{"contracts/Supplychain.sol":{"Supplychain":{"abi":[{"inputs":[{"internalType":"uint256","name":"","type":"uint256"},{"internalType":"uint256","name":"","type":"uint256"}],"name":"BatchIDToProductIDMapping","outputs":[{"internalType":"uint256","name":"","type":"uint256"}],"stateMutability":"view","type":"function"},{"inputs":[{"internalType":"uint256","name":"","type":"uint256"}],"name":"BatchIDs","outputs":[{"internalType":"uint256","name":"","type":"uint256"}],"stateMutability":"view","type":"function"},{"inputs":[{"internalType":"uint256","name":"","type":"uint256"}],"name":"BatchMapping","outputs":[{"internalType":"uint256","name":"BatchID","type":"uint256"},{"internalType":"uint256","name":"BatchSize","type":"uint256"},{"internalType":"uint256","name":"AmountSoldTOCustomer","type":"uint256"},{"internalType":"string","name":"BatchDescription","type":"string"},{"internalType":"uint256","name":"ProductTemplateID","type":"uint256"},{"internalType":"string","name":"FactoryID","type":"string"},{"internalType":"string","name":"DistributorID","type":"string"},{"internalType":"string","name":"FactoryLocation","type":"string"},{"internalType":"string","name":"DateOfProduction","type":"string"},{"internalType":"uint256","name":"State","type":"uint256"},{"internalType":"bool","name":"DistributorScanned","type":"bool"},{"internalType":"uint256","name":"AmountLeftForSellingTORetailer","type":"uint256"}],"stateMutability":"view","type":"function"},{"inputs":[{"internalType":"uint256","name":"","type":"uint256"}],"name":"BatchTemplateIDs","outputs":[{"internalType":"uint256","name":"","type":"uint256"}],"stateMutability":"view","type":"function"},{"inputs":[{"internalType":"uint256","name":"","type":"uint256"}],"name":"BatchTemplateMAP","outputs":[{"internalType":"uint256","name":"BatchTemplateID","type":"uint256"},{"internalType":"uint256","name":"ProductTemplateID","type":"uint256"},{"internalType":"string","name":"Description","type":"string"},{"internalType":"uint256","name":"BatchSize","type":"uint256"},{"internalType":"string","name":"FactoryID","type":"string"}],"stateMutability":"view","type":"function"},{"inputs":[{"internalType":"string","name":"","type":"string"},{"internalType":"uint256","name":"","type":"uint256"}],"name":"CustomerData","outputs":[{"internalType":"uint256","name":"BatchID","type":"uint256"},{"internalType":"uint256","name":"ProductID","type":"uint256"}],"stateMutability":"view","type":"function"},{"inputs":[{"internalType":"string","name":"","type":"string"},{"internalType":"uint256","name":"","type":"uint256"}],"name":"DistributorIDToRetailerID","outputs":[{"internalType":"string","name":"","type":"string"}],"stateMutability":"view","type":"function"},{"inputs":[{"internalType":"uint256","name":"","type":"uint256"}],"name":"ProductIDs","outputs":[{"internalType":"uint256","name":"","type":"uint256"}],"stateMutability":"view","type":"function"},{"inputs":[{"internalType":"uint256","name":"","type":"uint256"}],"name":"ProductMapping","outputs":[{"internalType":"uint256","name":"ProductID","type":"uint256"},{"internalType":"uint256","name":"BatchID","type":"uint256"},{"internalType":"uint256","name":"ProductTemplateID","type":"uint256"},{"internalType":"string","name":"DOM","type":"string"},{"internalType":"string","name":"OwnerID","type":"string"},{"internalType":"string","name":"RetailerID","type":"string"},{"internalType":"bool","name":"RetailerScanned","type":"bool"},{"internalType":"uint256","name":"DateWhenSoldToRetailer","type":"uint256"},{"internalType":"uint256","name":"DateWhenSoldToCustomer","type":"uint256"}],"stateMutability":"view","type":"function"},{"inputs":[{"internalType":"uint256","name":"","type":"uint256"}],"name":"ProductTemplateIDs","outputs":[{"internalType":"uint256","name":"","type":"uint256"}],"stateMutability":"view","type":"function"},{"inputs":[{"internalType":"uint256","name":"","type":"uint256"}],"name":"ProductTemplateMAP","outputs":[{"internalType":"uint256","name":"ProductTemplateID","type":"uint256"},{"internalType":"string","name":"Name","type":"string"},{"internalType":"string","name":"Description","type":"string"},{"internalType":"string","name":"FactoryID","type":"string"}],"stateMutability":"view","type":"function"},{"inputs":[{"internalType":"string","name":"","type":"string"}],"name":"RetailerIDToProductID","outputs":[{"internalType":"uint256","name":"","type":"uint256"}],"stateMutability":"view","type":"function"},{"inputs":[{"internalType":"uint256","name":"_batchTemplateID","type":"uint256"},{"internalType":"uint256","name":"_productTemplateID","type":"uint256"},{"internalType":"string","name":"_description","type":"string"},{"internalType":"uint256","name":"_batchSize","type":"uint256"},{"internalType":"string","name":"_factoryID","type":"string"}],"name":"addBatchTemplate","outputs":[],"stateMutability":"nonpayable","type":"function"},{"inputs":[{"internalType":"uint256","name":"_productTemplateID","type":"uint256"},{"internalType":"string","name":"_name","type":"string"},{"internalType":"string","name":"_description","type":"string"},{"internalType":"string","name":"_factoryID","type":"string"}],"name":"addProductTemplate","outputs":[],"stateMutability":"nonpayable","type":"function"},{"inputs":[{"internalType":"uint256","name":"batchID","type":"uint256"},{"internalType":"uint256[]","name":"productIDs","type":"uint256[]"},{"internalType":"uint256","name":"batchSize","type":"uint256"},{"internalType":"string","name":"batchDescription","type":"string"},{"internalType":"uint256","name":"productTemplateID","type":"uint256"},{"internalType":"string","name":"factory","type":"string"},{"internalType":"string","name":"distributor","type":"string"},{"internalType":"string","name":"factoryLocation","type":"string"},{"internalType":"string","name":"dateOfProduction","type":"string"}],"name":"batchProduced","outputs":[],"stateMutability":"nonpayable","type":"function"},{"inputs":[{"internalType":"uint256","name":"batchID","type":"uint256"},{"internalType":"string","name":"_distributorID","type":"string"}],"name":"distributorScansBatch","outputs":[],"stateMutability":"nonpayable","type":"function"},{"inputs":[{"internalType":"uint256","name":"batchID","type":"uint256"},{"internalType":"uint256","name":"quantity","type":"uint256"},{"internalType":"string","name":"retailerID","type":"string"}],"name":"distributorSellToRetailer","outputs":[],"stateMutability":"nonpayable","type":"function"},{"inputs":[],"name":"getAllBatchIDs","outputs":[{"internalType":"uint256[]","name":"","type":"uint256[]"}],"stateMutability":"view","type":"function"},{"inputs":[],"name":"getAllBatchTemplateIDs","outputs":[{"internalType":"uint256[]","name":"","type":"uint256[]"}],"stateMutability":"view","type":"function"},{"inputs":[],"name":"getAllProductIDs","outputs":[{"internalType":"uint256[]","name":"","type":"uint256[]"}],"stateMutability":"view","type":"function"},{"inputs":[],"name":"getAllProductTemplateIDs","outputs":[{"internalType":"uint256[]","name":"","type":"uint256[]"}],"stateMutability":"view","type":"function"},{"inputs":[{"internalType":"string","name":"customerID","type":"string"}],"name":"getAllProductsBought","outputs":[{"components":[{"internalType":"uint256","name":"BatchID","type":"uint256"},{"internalType":"uint256","name":"ProductID","type":"uint256"}],"internalType":"struct Supplychain.Customer[]","name":"","type":"tuple[]"}],"stateMutability":"view","type":"function"},{"inputs":[{"internalType":"uint256","name":"batchID","type":"uint256"}],"name":"getProductIdsForaBatch","outputs":[{"internalType":"uint256[]","name":"","type":"uint256[]"}],"stateMutability":"view","type":"function"},{"inputs":[{"internalType":"uint256","name":"_productID","type":"uint256"},{"internalType":"string","name":"_retailerID","type":"string"}],"name":"retailerScansProduct","outputs":[],"stateMutability":"nonpayable","type":"function"},{"inputs":[{"internalType":"uint256","name":"batchID","type":"uint256"},{"internalType":"uint256","name":"productID","type":"uint256"},{"internalType":"string","name":"customerID","type":"string"}],"name":"retailerSellToCustomer","outputs":[],"stateMutability":"nonpayable","type":"function"}],"evm":{"bytecode":{"linkReferences":{},"object":"608060405234801561001057600080fd5b5061278a806100206000396000f3fe608060405234801561001057600080fd5b50600436106101735760003560e01c8063793560dd116100de578063a78317f811610097578063d16ad4e011610071578063d16ad4e01461037d578063d976f93014610390578063ea417247146103a3578063eac0e977146103b657600080fd5b8063a78317f81461032c578063bf801df11461033f578063c492384f1461036a57600080fd5b8063793560dd146102bf5780637ae4ee04146102c75780638bd42880146102eb5780638c4c42cd146102fe5780638e5452b81461030657806390973cce1461031957600080fd5b80633c743e29116101305780633c743e29146102235780634c27729c1461024e5780634ca20f3414610256578063588cd0ec14610269578063636955b61461028957806371d1dc0c1461029c57600080fd5b806321f2939114610178578063278338e8146101a5578063284328d0146101ba578063392a70a6146101da5780633ab95f30146101fa5780633b7d255c1461021b575b600080fd5b61018b610186366004611e78565b6103de565b604080519283526020830191909152015b60405180910390f35b6101b86101b3366004611ebd565b610429565b005b6101cd6101c8366004611f4f565b61054e565b60405161019c9190611f8c565b6101ed6101e8366004611fdb565b6105df565b60405161019c9190611ff4565b61020d610208366004611fdb565b610641565b60405190815260200161019c565b6101ed610662565b61020d610231366004611f4f565b805160208183018101805160078252928201919093012091525481565b6101ed6106ba565b61020d610264366004611fdb565b610710565b61027c610277366004611e78565b610720565b60405161019c9190612088565b6101b86102973660046120a2565b6107e8565b6102af6102aa366004611fdb565b61096c565b60405161019c94939291906120f2565b6101ed610b2d565b6102da6102d5366004611fdb565b610b83565b60405161019c95949392919061213c565b61020d6102f9366004611fdb565b610cc3565b6101ed610cd3565b6101b861031436600461217f565b610d29565b61020d610327366004612200565b610ed1565b61020d61033a366004611fdb565b610f02565b61035261034d366004611fdb565b610f12565b60405161019c9c9b9a99989796959493929190612222565b6101b861037836600461233c565b611220565b6101b861038b3660046120a2565b61167b565b6101b861039e366004612450565b61172e565b6101b86103b1366004612450565b611885565b6103c96103c4366004611fdb565b6119d6565b60405161019c99989796959493929190612497565b8151602081840181018051600582529282019185019190912091905280548290811061040957600080fd5b600091825260209091206002909102018054600190910154909250905082565b61043284611bbd565b156104a05760405162461bcd60e51b815260206004820152603360248201527f546869732050726f6475637454656d706c617465494420616c72656164792065604482015272786973747320696e207468652073797374656d60681b60648201526084015b60405180910390fd5b6040805160808101825285815260208082018681528284018690526060830185905260008881529182905292902081518155915190919060018201906104e69082612591565b50604082015160028201906104fb9082612591565b50606082015160038201906105109082612591565b5050600880546001810182556000919091527ff3f7a9fe364faab93b216da50a3214154f22a0a2b415b23a84c8169e8b636ee3019490945550505050565b60606005826040516105609190612651565b9081526020016040518091039020805480602002602001604051908101604052809291908181526020016000905b828210156105d45783829060005260206000209060020201604051806040016040529081600082015481526020016001820154815250508152602001906001019061058e565b505050509050919050565b60008181526004602090815260409182902080548351818402810184019094528084526060939283018282801561063557602002820191906000526020600020905b815481526020019060010190808311610621575b50505050509050919050565b6008818154811061065157600080fd5b600091825260209091200154905081565b606060088054806020026020016040519081016040528092919081815260200182805480156106b057602002820191906000526020600020905b81548152602001906001019080831161069c575b5050505050905090565b606060098054806020026020016040519081016040528092919081815260200182805480156106b0576020028201919060005260206000209081548152602001906001019080831161069c575050505050905090565b6009818154811061065157600080fd5b8151602081840181018051600682529282019185019190912091905280548290811061074b57600080fd5b9060005260206000200160009150915050805461076790612508565b80601f016020809104026020016040519081016040528092919081815260200182805461079390612508565b80156107e05780601f106107b5576101008083540402835291602001916107e0565b820191906000526020600020905b8154815290600101906020018083116107c357829003601f168201915b505050505081565b6000838152600360205260409020600b810154600190910154838210156108815760405162461bcd60e51b815260206004820152604160248201527f5175616e746974792069732067726561746572207468616e2074686520616d6f60448201527f756e74206c65667420746f20626520736f6c6420696e207468697320626174636064820152600d60fb1b608482015260a401610497565b600084116108d15760405162461bcd60e51b815260206004820152601760248201527f5175616e746974792063616e6e6f74206265207a65726f0000000000000000006044820152606401610497565b60006108dd8383612683565b60008781526004602090815260408083208054825181850281018501909352808352949550929390929183018282801561093657602002820191906000526020600020905b815481526020019060010190808311610922575b505050505090506109636040518060400160405280600581526020016448456c6c4f60d81b815250611c13565b50505050505050565b6000602081905290815260409020805460018201805491929161098e90612508565b80601f01602080910402602001604051908101604052809291908181526020018280546109ba90612508565b8015610a075780601f106109dc57610100808354040283529160200191610a07565b820191906000526020600020905b8154815290600101906020018083116109ea57829003601f168201915b505050505090806002018054610a1c90612508565b80601f0160208091040260200160405190810160405280929190818152602001828054610a4890612508565b8015610a955780601f10610a6a57610100808354040283529160200191610a95565b820191906000526020600020905b815481529060010190602001808311610a7857829003601f168201915b505050505090806003018054610aaa90612508565b80601f0160208091040260200160405190810160405280929190818152602001828054610ad690612508565b8015610b235780601f10610af857610100808354040283529160200191610b23565b820191906000526020600020905b815481529060010190602001808311610b0657829003601f168201915b5050505050905084565b6060600b8054806020026020016040519081016040528092919081815260200182805480156106b0576020028201919060005260206000209081548152602001906001019080831161069c575050505050905090565b6001602081905260009182526040909120805491810154600282018054919291610bac90612508565b80601f0160208091040260200160405190810160405280929190818152602001828054610bd890612508565b8015610c255780601f10610bfa57610100808354040283529160200191610c25565b820191906000526020600020905b815481529060010190602001808311610c0857829003601f168201915b505050505090806003015490806004018054610c4090612508565b80601f0160208091040260200160405190810160405280929190818152602001828054610c6c90612508565b8015610cb95780601f10610c8e57610100808354040283529160200191610cb9565b820191906000526020600020905b815481529060010190602001808311610c9c57829003601f168201915b5050505050905085565b600b818154811061065157600080fd5b6060600a8054806020026020016040519081016040528092919081815260200182805480156106b0576020028201919060005260206000209081548152602001906001019080831161069c575050505050905090565b610d3285611c59565b15610d995760405162461bcd60e51b815260206004820152603160248201527f5468697320426174636854656d706c617465494420616c72656164792065786960448201527073747320696e207468652073797374656d60781b6064820152608401610497565b610da284611bbd565b1515600114610e105760405162461bcd60e51b815260206004820152603460248201527f546869732050726f6475637454656d706c617465494420646f6573206e6f742060448201527365786973747320696e207468652073797374656d60601b6064820152608401610497565b6040518060a00160405280868152602001858152602001848152602001838152602001828152506001600087815260200190815260200160002060008201518160000155602082015181600101556040820151816002019081610e739190612591565b506060820151600382015560808201516004820190610e929082612591565b5050600980546001810182556000919091527f6e1540171b6c0c960b71a7020d9f60077f6af931a8bbf590da0223dacf75c7af01959095555050505050565b60046020528160005260406000208181548110610eed57600080fd5b90600052602060002001600091509150505481565b600a818154811061065157600080fd5b6003602052806000526040600020600091509050806000015490806001015490806002015490806003018054610f4790612508565b80601f0160208091040260200160405190810160405280929190818152602001828054610f7390612508565b8015610fc05780601f10610f9557610100808354040283529160200191610fc0565b820191906000526020600020905b815481529060010190602001808311610fa357829003601f168201915b505050505090806004015490806005018054610fdb90612508565b80601f016020809104026020016040519081016040528092919081815260200182805461100790612508565b80156110545780601f1061102957610100808354040283529160200191611054565b820191906000526020600020905b81548152906001019060200180831161103757829003601f168201915b50505050509080600601805461106990612508565b80601f016020809104026020016040519081016040528092919081815260200182805461109590612508565b80156110e25780601f106110b7576101008083540402835291602001916110e2565b820191906000526020600020905b8154815290600101906020018083116110c557829003601f168201915b5050505050908060070180546110f790612508565b80601f016020809104026020016040519081016040528092919081815260200182805461112390612508565b80156111705780601f1061114557610100808354040283529160200191611170565b820191906000526020600020905b81548152906001019060200180831161115357829003601f168201915b50505050509080600801805461118590612508565b80601f01602080910402602001604051908101604052809291908181526020018280546111b190612508565b80156111fe5780601f106111d3576101008083540402835291602001916111fe565b820191906000526020600020905b8154815290600101906020018083116111e157829003601f168201915b505050506009830154600a840154600b909401549293909260ff90911691508c565b61122989611ca6565b156112825760405162461bcd60e51b8152602060048201526024808201527f4261746368494420616c72656164792065786973747320696e207468652073796044820152637374656d60e01b6064820152608401610497565b868851146112f85760405162461bcd60e51b815260206004820152603760248201527f53697a65206f662070726f6475637449447320617272617920646f6573206e6f60448201527f74206d6174636820776974682042617463682073697a650000000000000000006064820152608401610497565b60408051610180810182528a815260208082018a81526000838501818152606085018c8152608086018c905260a086018b905260c086018a905260e0860189905261010086018890526101208601839052610140860183905261016086018e90528f835260039485905295909120845181559151600183015551600282015592519192919082019061138a9082612591565b506080820151600482015560a082015160058201906113a99082612591565b5060c082015160068201906113be9082612591565b5060e082015160078201906113d39082612591565b5061010082015160088201906113e99082612591565b506101208201516009820155610140820151600a8201805460ff191691151591909117905561016090910151600b918201558054600181019091557f0175b7a638427703f0dbe7bb9bbf987a2551717b34e79f33b5b1008d1fa01db90189905560008981526004602090815260409091208951611468928b0190611d61565b5060005b8781101561166f576114968982815181106114895761148961269c565b6020026020010151611cf3565b156114f25760405162461bcd60e51b815260206004820152602660248201527f50726f64756374494420616c72656164792065786973747320696e207468652060448201526573797374656d60d01b6064820152608401610497565b6040518061012001604052808a83815181106115105761151061269c565b602002602001015181526020018b8152602001878152602001838152602001604051806020016040528060008152508152602001604051806020016040528060008152508152602001600015158152602001600081526020016000815250600260008b84815181106115845761158461269c565b6020026020010151815260200190815260200160002060008201518160000155602082015181600101556040820151816002015560608201518160030190816115cd9190612591565b50608082015160048201906115e29082612591565b5060a082015160058201906115f79082612591565b5060c082015160068201805460ff191691151591909117905560e08201516007820155610100909101516008909101558851600a908a908390811061163e5761163e61269c565b6020908102919091018101518254600181018455600093845291909220015580611667816126b2565b91505061146c565b50505050505050505050565b600083815260036020526040812060020180546001929061169d9084906126cb565b909155505060008281526002602052604090206004016116bd8282612591565b506000828152600260205260409081902042600890910155516005906116e4908390612651565b908152604080519182900360209081018320838301909252948252818501938452805460018181018355600092835295909120915160029091029091019081559151919092015550565b6000828152600360205260409020600a015460ff16156117a95760405162461bcd60e51b815260206004820152603060248201527f5468697320626174636820697320616c7265616479207363616e6e656420627960448201526f103a3432903234b9ba3934b13aba37b960811b6064820152608401610497565b806040516020016117ba9190612651565b60408051601f1981840301815282825280516020918201206000868152600383529290922091926117ef9260060191016126de565b60405160208183030381529060405280519060200120146118665760405162461bcd60e51b815260206004820152602b60248201527f54686973206261746368206973206e6f74206f776e656420627920746869732060448201526a3234b9ba3934b13aba37b960a91b6064820152608401610497565b506000908152600360205260409020600a01805460ff19166001179055565b60008281526002602052604090206006015460ff16156118fd5760405162461bcd60e51b815260206004820152602d60248201527f5468697320626174636820697320616c7265616479207363616e6e656420627960448201526c103a3432903932ba30b4b632b960991b6064820152608401610497565b8060405160200161190e9190612651565b60408051601f1981840301815282825280516020918201206000868152600283529290922091926119439260050191016126de565b60405160208183030381529060405280519060200120146119b75760405162461bcd60e51b815260206004820152602860248201527f54686973206261746368206973206e6f74206f776e65642062792074686973206044820152673932ba30b4b632b960c11b6064820152608401610497565b506000908152600260205260409020600601805460ff19166001179055565b600260208190526000918252604090912080546001820154928201546003830180549294939192611a0690612508565b80601f0160208091040260200160405190810160405280929190818152602001828054611a3290612508565b8015611a7f5780601f10611a5457610100808354040283529160200191611a7f565b820191906000526020600020905b815481529060010190602001808311611a6257829003601f168201915b505050505090806004018054611a9490612508565b80601f0160208091040260200160405190810160405280929190818152602001828054611ac090612508565b8015611b0d5780601f10611ae257610100808354040283529160200191611b0d565b820191906000526020600020905b815481529060010190602001808311611af057829003601f168201915b505050505090806005018054611b2290612508565b80601f0160208091040260200160405190810160405280929190818152602001828054611b4e90612508565b8015611b9b5780601f10611b7057610100808354040283529160200191611b9b565b820191906000526020600020905b815481529060010190602001808311611b7e57829003601f168201915b5050505060068301546007840154600890940154929360ff9091169290915089565b6000805b600854811015611c0a578260088281548110611bdf57611bdf61269c565b906000526020600020015403611bf85750600192915050565b80611c02816126b2565b915050611bc1565b50600092915050565b611c5681604051602401611c279190612088565b60408051601f198184030181529190526020810180516001600160e01b031663104c13eb60e21b179052611d40565b50565b6000805b600954811015611c0a578260098281548110611c7b57611c7b61269c565b906000526020600020015403611c945750600192915050565b80611c9e816126b2565b915050611c5d565b6000805b600b54811015611c0a5782600b8281548110611cc857611cc861269c565b906000526020600020015403611ce15750600192915050565b80611ceb816126b2565b915050611caa565b6000805b600a54811015611c0a5782600a8281548110611d1557611d1561269c565b906000526020600020015403611d2e5750600192915050565b80611d38816126b2565b915050611cf7565b80516a636f6e736f6c652e6c6f67602083016000808483855afa5050505050565b828054828255906000526020600020908101928215611d9c579160200282015b82811115611d9c578251825591602001919060010190611d81565b50611da8929150611dac565b5090565b5b80821115611da85760008155600101611dad565b634e487b7160e01b600052604160045260246000fd5b604051601f8201601f1916810167ffffffffffffffff81118282101715611e0057611e00611dc1565b604052919050565b600082601f830112611e1957600080fd5b813567ffffffffffffffff811115611e3357611e33611dc1565b611e46601f8201601f1916602001611dd7565b818152846020838601011115611e5b57600080fd5b816020850160208301376000918101602001919091529392505050565b60008060408385031215611e8b57600080fd5b823567ffffffffffffffff811115611ea257600080fd5b611eae85828601611e08565b95602094909401359450505050565b60008060008060808587031215611ed357600080fd5b84359350602085013567ffffffffffffffff80821115611ef257600080fd5b611efe88838901611e08565b94506040870135915080821115611f1457600080fd5b611f2088838901611e08565b93506060870135915080821115611f3657600080fd5b50611f4387828801611e08565b91505092959194509250565b600060208284031215611f6157600080fd5b813567ffffffffffffffff811115611f7857600080fd5b611f8484828501611e08565b949350505050565b602080825282518282018190526000919060409081850190868401855b82811015611fce57815180518552860151868501529284019290850190600101611fa9565b5091979650505050505050565b600060208284031215611fed57600080fd5b5035919050565b6020808252825182820181905260009190848201906040850190845b8181101561202c57835183529284019291840191600101612010565b50909695505050505050565b60005b8381101561205357818101518382015260200161203b565b50506000910152565b60008151808452612074816020860160208601612038565b601f01601f19169290920160200192915050565b60208152600061209b602083018461205c565b9392505050565b6000806000606084860312156120b757600080fd5b8335925060208401359150604084013567ffffffffffffffff8111156120dc57600080fd5b6120e886828701611e08565b9150509250925092565b84815260806020820152600061210b608083018661205c565b828103604084015261211d818661205c565b90508281036060840152612131818561205c565b979650505050505050565b85815284602082015260a06040820152600061215b60a083018661205c565b8460608401528281036080840152612173818561205c565b98975050505050505050565b600080600080600060a0868803121561219757600080fd5b8535945060208601359350604086013567ffffffffffffffff808211156121bd57600080fd5b6121c989838a01611e08565b94506060880135935060808801359150808211156121e657600080fd5b506121f388828901611e08565b9150509295509295909350565b6000806040838503121561221357600080fd5b50508035926020909101359150565b60006101808e83528d60208401528c60408401528060608401526122488184018d61205c565b90508a608084015282810360a0840152612262818b61205c565b905082810360c0840152612276818a61205c565b905082810360e084015261228a818961205c565b905082810361010084015261229f818861205c565b6101208401969096525050911515610140830152610160909101529998505050505050505050565b600082601f8301126122d857600080fd5b8135602067ffffffffffffffff8211156122f4576122f4611dc1565b8160051b612303828201611dd7565b928352848101820192828101908785111561231d57600080fd5b83870192505b8483101561213157823582529183019190830190612323565b60008060008060008060008060006101208a8c03121561235b57600080fd5b8935985060208a013567ffffffffffffffff8082111561237a57600080fd5b6123868d838e016122c7565b995060408c0135985060608c01359150808211156123a357600080fd5b6123af8d838e01611e08565b975060808c0135965060a08c01359150808211156123cc57600080fd5b6123d88d838e01611e08565b955060c08c01359150808211156123ee57600080fd5b6123fa8d838e01611e08565b945060e08c013591508082111561241057600080fd5b61241c8d838e01611e08565b93506101008c013591508082111561243357600080fd5b506124408c828d01611e08565b9150509295985092959850929598565b6000806040838503121561246357600080fd5b82359150602083013567ffffffffffffffff81111561248157600080fd5b61248d85828601611e08565b9150509250929050565b60006101208b83528a60208401528960408401528060608401526124bd8184018a61205c565b905082810360808401526124d1818961205c565b905082810360a08401526124e5818861205c565b95151560c0840152505060e0810192909252610100909101529695505050505050565b600181811c9082168061251c57607f821691505b60208210810361253c57634e487b7160e01b600052602260045260246000fd5b50919050565b601f82111561258c57600081815260208120601f850160051c810160208610156125695750805b601f850160051c820191505b8181101561258857828155600101612575565b5050505b505050565b815167ffffffffffffffff8111156125ab576125ab611dc1565b6125bf816125b98454612508565b84612542565b602080601f8311600181146125f457600084156125dc5750858301515b600019600386901b1c1916600185901b178555612588565b600085815260208120601f198616915b8281101561262357888601518255948401946001909101908401612604565b50858210156126415787850151600019600388901b60f8161c191681555b5050505050600190811b01905550565b60008251612663818460208701612038565b9190910192915050565b634e487b7160e01b600052601160045260246000fd5b818103818111156126965761269661266d565b92915050565b634e487b7160e01b600052603260045260246000fd5b6000600182016126c4576126c461266d565b5060010190565b808201808211156126965761269661266d565b60008083546126ec81612508565b60018281168015612704576001811461271957612748565b60ff1984168752821515830287019450612748565b8760005260208060002060005b8581101561273f5781548a820152908401908201612726565b50505082870194505b5092969550505050505056fea2646970667358221220a10974c4b833f55eaed1466791b66b995336d2aa9cd45cd5c9e94322464ca3ce64736f6c63430008110033","opcodes":"PUSH1 0x80 PUSH1 0x40 MSTORE CALLVALUE DUP1 ISZERO PUSH2 0x10 JUMPI PUSH1 0x0 DUP1 REVERT JUMPDEST POP PUSH2 0x278A DUP1 PUSH2 0x20 PUSH1 0x0 CODECOPY PUSH1 0x0 RETURN INVALID PUSH1 0x80 PUSH1 0x40 MSTORE CALLVALUE DUP1 ISZERO PUSH2 0x10 JUMPI PUSH1 0x0 DUP1 REVERT JUMPDEST POP PUSH1 0x4 CALLDATASIZE LT PUSH2 0x173 JUMPI PUSH1 0x0 CALLDATALOAD PUSH1 0xE0 SHR DUP1 PUSH4 0x793560DD GT PUSH2 0xDE JUMPI DUP1 PUSH4 0xA78317F8 GT PUSH2 0x97 JUMPI DUP1 PUSH4 0xD16AD4E0 GT PUSH2 0x71 JUMPI DUP1 PUSH4 0xD16AD4E0 EQ PUSH2 0x37D JUMPI DUP1 PUSH4 0xD976F930 EQ PUSH2 0x390 JUMPI DUP1 PUSH4 0xEA417247 EQ PUSH2 0x3A3 JUMPI DUP1 PUSH4 0xEAC0E977 EQ PUSH2 0x3B6 JUMPI PUSH1 0x0 DUP1 REVERT JUMPDEST DUP1 PUSH4 0xA78317F8 EQ PUSH2 0x32C JUMPI DUP1 PUSH4 0xBF801DF1 EQ PUSH2 0x33F JUMPI DUP1 PUSH4 0xC492384F EQ PUSH2 0x36A JUMPI PUSH1 0x0 DUP1 REVERT JUMPDEST DUP1 PUSH4 0x793560DD EQ PUSH2 0x2BF JUMPI DUP1 PUSH4 0x7AE4EE04 EQ PUSH2 0x2C7 JUMPI DUP1 PUSH4 0x8BD42880 EQ PUSH2 0x2EB JUMPI DUP1 PUSH4 0x8C4C42CD EQ PUSH2 0x2FE JUMPI DUP1 PUSH4 0x8E5452B8 EQ PUSH2 0x306 JUMPI DUP1 PUSH4 0x90973CCE EQ PUSH2 0x319 JUMPI PUSH1 0x0 DUP1 REVERT JUMPDEST DUP1 PUSH4 0x3C743E29 GT PUSH2 0x130 JUMPI DUP1 PUSH4 0x3C743E29 EQ PUSH2 0x223 JUMPI DUP1 PUSH4 0x4C27729C EQ PUSH2 0x24E JUMPI DUP1 PUSH4 0x4CA20F34 EQ PUSH2 0x256 JUMPI DUP1 PUSH4 0x588CD0EC EQ PUSH2 0x269 JUMPI DUP1 PUSH4 0x636955B6 EQ PUSH2 0x289 JUMPI DUP1 PUSH4 0x71D1DC0C EQ PUSH2 0x29C JUMPI PUSH1 0x0 DUP1 REVERT JUMPDEST DUP1 PUSH4 0x21F29391 EQ PUSH2 0x178 JUMPI DUP1 PUSH4 0x278338E8 EQ PUSH2 0x1A5 JUMPI DUP1 PUSH4 0x284328D0 EQ PUSH2 0x1BA JUMPI DUP1 PUSH4 0x392A70A6 EQ PUSH2 0x1DA JUMPI DUP1 PUSH4 0x3AB95F30 EQ PUSH2 0x1FA JUMPI DUP1 PUSH4 0x3B7D255C EQ PUSH2 0x21B JUMPI JUMPDEST PUSH1 0x0 DUP1 REVERT JUMPDEST PUSH2 0x18B PUSH2 0x186 CALLDATASIZE PUSH1 0x4 PUSH2 0x1E78 JUMP JUMPDEST PUSH2 0x3DE JUMP JUMPDEST PUSH1 0x40 DUP1 MLOAD SWAP3 DUP4 MSTORE PUSH1 0x20 DUP4 ADD SWAP2 SWAP1 SWAP2 MSTORE ADD JUMPDEST PUSH1 0x40 MLOAD DUP1 SWAP2 SUB SWAP1 RETURN JUMPDEST PUSH2 0x1B8 PUSH2 0x1B3 CALLDATASIZE PUSH1 0x4 PUSH2 0x1EBD JUMP JUMPDEST PUSH2 0x429 JUMP JUMPDEST STOP JUMPDEST PUSH2 0x1CD PUSH2 0x1C8 CALLDATASIZE PUSH1 0x4 PUSH2 0x1F4F JUMP JUMPDEST PUSH2 0x54E JUMP JUMPDEST PUSH1 0x40 MLOAD PUSH2 0x19C SWAP2 SWAP1 PUSH2 0x1F8C JUMP JUMPDEST PUSH2 0x1ED PUSH2 0x1E8 CALLDATASIZE PUSH1 0x4 PUSH2 0x1FDB JUMP JUMPDEST PUSH2 0x5DF JUMP JUMPDEST PUSH1 0x40 MLOAD PUSH2 0x19C SWAP2 SWAP1 PUSH2 0x1FF4 JUMP JUMPDEST PUSH2 0x20D PUSH2 0x208 CALLDATASIZE PUSH1 0x4 PUSH2 0x1FDB JUMP JUMPDEST PUSH2 0x641 JUMP JUMPDEST PUSH1 0x40 MLOAD SWAP1 DUP2 MSTORE PUSH1 0x20 ADD PUSH2 0x19C JUMP JUMPDEST PUSH2 0x1ED PUSH2 0x662 JUMP JUMPDEST PUSH2 0x20D PUSH2 0x231 CALLDATASIZE PUSH1 0x4 PUSH2 0x1F4F JUMP JUMPDEST DUP1 MLOAD PUSH1 0x20 DUP2 DUP4 ADD DUP2 ADD DUP1 MLOAD PUSH1 0x7 DUP3 MSTORE SWAP3 DUP3 ADD SWAP2 SWAP1 SWAP4 ADD KECCAK256 SWAP2 MSTORE SLOAD DUP2 JUMP JUMPDEST PUSH2 0x1ED PUSH2 0x6BA JUMP JUMPDEST PUSH2 0x20D PUSH2 0x264 CALLDATASIZE PUSH1 0x4 PUSH2 0x1FDB JUMP JUMPDEST PUSH2 0x710 JUMP JUMPDEST PUSH2 0x27C PUSH2 0x277 CALLDATASIZE PUSH1 0x4 PUSH2 0x1E78 JUMP JUMPDEST PUSH2 0x720 JUMP JUMPDEST PUSH1 0x40 MLOAD PUSH2 0x19C SWAP2 SWAP1 PUSH2 0x2088 JUMP JUMPDEST PUSH2 0x1B8 PUSH2 0x297 CALLDATASIZE PUSH1 0x4 PUSH2 0x20A2 JUMP JUMPDEST PUSH2 0x7E8 JUMP JUMPDEST PUSH2 0x2AF PUSH2 0x2AA CALLDATASIZE PUSH1 0x4 PUSH2 0x1FDB JUMP JUMPDEST PUSH2 0x96C JUMP JUMPDEST PUSH1 0x40 MLOAD PUSH2 0x19C SWAP5 SWAP4 SWAP3 SWAP2 SWAP1 PUSH2 0x20F2 JUMP JUMPDEST PUSH2 0x1ED PUSH2 0xB2D JUMP JUMPDEST PUSH2 0x2DA PUSH2 0x2D5 CALLDATASIZE PUSH1 0x4 PUSH2 0x1FDB JUMP JUMPDEST PUSH2 0xB83 JUMP JUMPDEST PUSH1 0x40 MLOAD PUSH2 0x19C SWAP6 SWAP5 SWAP4 SWAP3 SWAP2 SWAP1 PUSH2 0x213C JUMP JUMPDEST PUSH2 0x20D PUSH2 0x2F9 CALLDATASIZE PUSH1 0x4 PUSH2 0x1FDB JUMP JUMPDEST PUSH2 0xCC3 JUMP JUMPDEST PUSH2 0x1ED PUSH2 0xCD3 JUMP JUMPDEST PUSH2 0x1B8 PUSH2 0x314 CALLDATASIZE PUSH1 0x4 PUSH2 0x217F JUMP JUMPDEST PUSH2 0xD29 JUMP JUMPDEST PUSH2 0x20D PUSH2 0x327 CALLDATASIZE PUSH1 0x4 PUSH2 0x2200 JUMP JUMPDEST PUSH2 0xED1 JUMP JUMPDEST PUSH2 0x20D PUSH2 0x33A CALLDATASIZE PUSH1 0x4 PUSH2 0x1FDB JUMP JUMPDEST PUSH2 0xF02 JUMP JUMPDEST PUSH2 0x352 PUSH2 0x34D CALLDATASIZE PUSH1 0x4 PUSH2 0x1FDB JUMP JUMPDEST PUSH2 0xF12 JUMP JUMPDEST PUSH1 0x40 MLOAD PUSH2 0x19C SWAP13 SWAP12 SWAP11 SWAP10 SWAP9 SWAP8 SWAP7 SWAP6 SWAP5 SWAP4 SWAP3 SWAP2 SWAP1 PUSH2 0x2222 JUMP JUMPDEST PUSH2 0x1B8 PUSH2 0x378 CALLDATASIZE PUSH1 0x4 PUSH2 0x233C JUMP JUMPDEST PUSH2 0x1220 JUMP JUMPDEST PUSH2 0x1B8 PUSH2 0x38B CALLDATASIZE PUSH1 0x4 PUSH2 0x20A2 JUMP JUMPDEST PUSH2 0x167B JUMP JUMPDEST PUSH2 0x1B8 PUSH2 0x39E CALLDATASIZE PUSH1 0x4 PUSH2 0x2450 JUMP JUMPDEST PUSH2 0x172E JUMP JUMPDEST PUSH2 0x1B8 PUSH2 0x3B1 CALLDATASIZE PUSH1 0x4 PUSH2 0x2450 JUMP JUMPDEST PUSH2 0x1885 JUMP JUMPDEST PUSH2 0x3C9 PUSH2 0x3C4 CALLDATASIZE PUSH1 0x4 PUSH2 0x1FDB JUMP JUMPDEST PUSH2 0x19D6 JUMP JUMPDEST PUSH1 0x40 MLOAD PUSH2 0x19C SWAP10 SWAP9 SWAP8 SWAP7 SWAP6 SWAP5 SWAP4 SWAP3 SWAP2 SWAP1 PUSH2 0x2497 JUMP JUMPDEST DUP2 MLOAD PUSH1 0x20 DUP2 DUP5 ADD DUP2 ADD DUP1 MLOAD PUSH1 0x5 DUP3 MSTORE SWAP3 DUP3 ADD SWAP2 DUP6 ADD SWAP2 SWAP1 SWAP2 KECCAK256 SWAP2 SWAP1 MSTORE DUP1 SLOAD DUP3 SWAP1 DUP2 LT PUSH2 0x409 JUMPI PUSH1 0x0 DUP1 REVERT JUMPDEST PUSH1 0x0 SWAP2 DUP3 MSTORE PUSH1 0x20 SWAP1 SWAP2 KECCAK256 PUSH1 0x2 SWAP1 SWAP2 MUL ADD DUP1 SLOAD PUSH1 0x1 SWAP1 SWAP2 ADD SLOAD SWAP1 SWAP3 POP SWAP1 POP DUP3 JUMP JUMPDEST PUSH2 0x432 DUP5 PUSH2 0x1BBD JUMP JUMPDEST ISZERO PUSH2 0x4A0 JUMPI PUSH1 0x40 MLOAD PUSH3 0x461BCD PUSH1 0xE5 SHL DUP2 MSTORE PUSH1 0x20 PUSH1 0x4 DUP3 ADD MSTORE PUSH1 0x33 PUSH1 0x24 DUP3 ADD MSTORE PUSH32 0x546869732050726F6475637454656D706C617465494420616C72656164792065 PUSH1 0x44 DUP3 ADD MSTORE PUSH19 0x786973747320696E207468652073797374656D PUSH1 0x68 SHL PUSH1 0x64 DUP3 ADD MSTORE PUSH1 0x84 ADD JUMPDEST PUSH1 0x40 MLOAD DUP1 SWAP2 SUB SWAP1 REVERT JUMPDEST PUSH1 0x40 DUP1 MLOAD PUSH1 0x80 DUP2 ADD DUP3 MSTORE DUP6 DUP2 MSTORE PUSH1 0x20 DUP1 DUP3 ADD DUP7 DUP2 MSTORE DUP3 DUP5 ADD DUP7 SWAP1 MSTORE PUSH1 0x60 DUP4 ADD DUP6 SWAP1 MSTORE PUSH1 0x0 DUP9 DUP2 MSTORE SWAP2 DUP3 SWAP1 MSTORE SWAP3 SWAP1 KECCAK256 DUP2 MLOAD DUP2 SSTORE SWAP2 MLOAD SWAP1 SWAP2 SWAP1 PUSH1 0x1 DUP3 ADD SWAP1 PUSH2 0x4E6 SWAP1 DUP3 PUSH2 0x2591 JUMP JUMPDEST POP PUSH1 0x40 DUP3 ADD MLOAD PUSH1 0x2 DUP3 ADD SWAP1 PUSH2 0x4FB SWAP1 DUP3 PUSH2 0x2591 JUMP JUMPDEST POP PUSH1 0x60 DUP3 ADD MLOAD PUSH1 0x3 DUP3 ADD SWAP1 PUSH2 0x510 SWAP1 DUP3 PUSH2 0x2591 JUMP JUMPDEST POP POP PUSH1 0x8 DUP1 SLOAD PUSH1 0x1 DUP2 ADD DUP3 SSTORE PUSH1 0x0 SWAP2 SWAP1 SWAP2 MSTORE PUSH32 0xF3F7A9FE364FAAB93B216DA50A3214154F22A0A2B415B23A84C8169E8B636EE3 ADD SWAP5 SWAP1 SWAP5 SSTORE POP POP POP POP JUMP JUMPDEST PUSH1 0x60 PUSH1 0x5 DUP3 PUSH1 0x40 MLOAD PUSH2 0x560 SWAP2 SWAP1 PUSH2 0x2651 JUMP JUMPDEST SWAP1 DUP2 MSTORE PUSH1 0x20 ADD PUSH1 0x40 MLOAD DUP1 SWAP2 SUB SWAP1 KECCAK256 DUP1 SLOAD DUP1 PUSH1 0x20 MUL PUSH1 0x20 ADD PUSH1 0x40 MLOAD SWAP1 DUP2 ADD PUSH1 0x40 MSTORE DUP1 SWAP3 SWAP2 SWAP1 DUP2 DUP2 MSTORE PUSH1 0x20 ADD PUSH1 0x0 SWAP1 JUMPDEST DUP3 DUP3 LT ISZERO PUSH2 0x5D4 JUMPI DUP4 DUP3 SWAP1 PUSH1 0x0 MSTORE PUSH1 0x20 PUSH1 0x0 KECCAK256 SWAP1 PUSH1 0x2 MUL ADD PUSH1 0x40 MLOAD DUP1 PUSH1 0x40 ADD PUSH1 0x40 MSTORE SWAP1 DUP2 PUSH1 0x0 DUP3 ADD SLOAD DUP2 MSTORE PUSH1 0x20 ADD PUSH1 0x1 DUP3 ADD SLOAD DUP2 MSTORE POP POP DUP2 MSTORE PUSH1 0x20 ADD SWAP1 PUSH1 0x1 ADD SWAP1 PUSH2 0x58E JUMP JUMPDEST POP POP POP POP SWAP1 POP SWAP2 SWAP1 POP JUMP JUMPDEST PUSH1 0x0 DUP2 DUP2 MSTORE PUSH1 0x4 PUSH1 0x20 SWAP1 DUP2 MSTORE PUSH1 0x40 SWAP2 DUP3 SWAP1 KECCAK256 DUP1 SLOAD DUP4 MLOAD DUP2 DUP5 MUL DUP2 ADD DUP5 ADD SWAP1 SWAP5 MSTORE DUP1 DUP5 MSTORE PUSH1 0x60 SWAP4 SWAP3 DUP4 ADD DUP3 DUP3 DUP1 ISZERO PUSH2 0x635 JUMPI PUSH1 0x20 MUL DUP3 ADD SWAP2 SWAP1 PUSH1 0x0 MSTORE PUSH1 0x20 PUSH1 0x0 KECCAK256 SWAP1 JUMPDEST DUP2 SLOAD DUP2 MSTORE PUSH1 0x20 ADD SWAP1 PUSH1 0x1 ADD SWAP1 DUP1 DUP4 GT PUSH2 0x621 JUMPI JUMPDEST POP POP POP POP POP SWAP1 POP SWAP2 SWAP1 POP JUMP JUMPDEST PUSH1 0x8 DUP2 DUP2 SLOAD DUP2 LT PUSH2 0x651 JUMPI PUSH1 0x0 DUP1 REVERT JUMPDEST PUSH1 0x0 SWAP2 DUP3 MSTORE PUSH1 0x20 SWAP1 SWAP2 KECCAK256 ADD SLOAD SWAP1 POP DUP2 JUMP JUMPDEST PUSH1 0x60 PUSH1 0x8 DUP1 SLOAD DUP1 PUSH1 0x20 MUL PUSH1 0x20 ADD PUSH1 0x40 MLOAD SWAP1 DUP2 ADD PUSH1 0x40 MSTORE DUP1 SWAP3 SWAP2 SWAP1 DUP2 DUP2 MSTORE PUSH1 0x20 ADD DUP3 DUP1 SLOAD DUP1 ISZERO PUSH2 0x6B0 JUMPI PUSH1 0x20 MUL DUP3 ADD SWAP2 SWAP1 PUSH1 0x0 MSTORE PUSH1 0x20 PUSH1 0x0 KECCAK256 SWAP1 JUMPDEST DUP2 SLOAD DUP2 MSTORE PUSH1 0x20 ADD SWAP1 PUSH1 0x1 ADD SWAP1 DUP1 DUP4 GT PUSH2 0x69C JUMPI JUMPDEST POP POP POP POP POP SWAP1 POP SWAP1 JUMP JUMPDEST PUSH1 0x60 PUSH1 0x9 DUP1 SLOAD DUP1 PUSH1 0x20 MUL PUSH1 0x20 ADD PUSH1 0x40 MLOAD SWAP1 DUP2 ADD PUSH1 0x40 MSTORE DUP1 SWAP3 SWAP2 SWAP1 DUP2 DUP2 MSTORE PUSH1 0x20 ADD DUP3 DUP1 SLOAD DUP1 ISZERO PUSH2 0x6B0 JUMPI PUSH1 0x20 MUL DUP3 ADD SWAP2 SWAP1 PUSH1 0x0 MSTORE PUSH1 0x20 PUSH1 0x0 KECCAK256 SWAP1 DUP2 SLOAD DUP2 MSTORE PUSH1 0x20 ADD SWAP1 PUSH1 0x1 ADD SWAP1 DUP1 DUP4 GT PUSH2 0x69C JUMPI POP POP POP POP POP SWAP1 POP SWAP1 JUMP JUMPDEST PUSH1 0x9 DUP2 DUP2 SLOAD DUP2 LT PUSH2 0x651 JUMPI PUSH1 0x0 DUP1 REVERT JUMPDEST DUP2 MLOAD PUSH1 0x20 DUP2 DUP5 ADD DUP2 ADD DUP1 MLOAD PUSH1 0x6 DUP3 MSTORE SWAP3 DUP3 ADD SWAP2 DUP6 ADD SWAP2 SWAP1 SWAP2 KECCAK256 SWAP2 SWAP1 MSTORE DUP1 SLOAD DUP3 SWAP1 DUP2 LT PUSH2 0x74B JUMPI PUSH1 0x0 DUP1 REVERT JUMPDEST SWAP1 PUSH1 0x0 MSTORE PUSH1 0x20 PUSH1 0x0 KECCAK256 ADD PUSH1 0x0 SWAP2 POP SWAP2 POP POP DUP1 SLOAD PUSH2 0x767 SWAP1 PUSH2 0x2508 JUMP JUMPDEST DUP1 PUSH1 0x1F ADD PUSH1 0x20 DUP1 SWAP2 DIV MUL PUSH1 0x20 ADD PUSH1 0x40 MLOAD SWAP1 DUP2 ADD PUSH1 0x40 MSTORE DUP1 SWAP3 SWAP2 SWAP1 DUP2 DUP2 MSTORE PUSH1 0x20 ADD DUP3 DUP1 SLOAD PUSH2 0x793 SWAP1 PUSH2 0x2508 JUMP JUMPDEST DUP1 ISZERO PUSH2 0x7E0 JUMPI DUP1 PUSH1 0x1F LT PUSH2 0x7B5 JUMPI PUSH2 0x100 DUP1 DUP4 SLOAD DIV MUL DUP4 MSTORE SWAP2 PUSH1 0x20 ADD SWAP2 PUSH2 0x7E0 JUMP JUMPDEST DUP3 ADD SWAP2 SWAP1 PUSH1 0x0 MSTORE PUSH1 0x20 PUSH1 0x0 KECCAK256 SWAP1 JUMPDEST DUP2 SLOAD DUP2 MSTORE SWAP1 PUSH1 0x1 ADD SWAP1 PUSH1 0x20 ADD DUP1 DUP4 GT PUSH2 0x7C3 JUMPI DUP3 SWAP1 SUB PUSH1 0x1F AND DUP3 ADD SWAP2 JUMPDEST POP POP POP POP POP DUP2 JUMP JUMPDEST PUSH1 0x0 DUP4 DUP2 MSTORE PUSH1 0x3 PUSH1 0x20 MSTORE PUSH1 0x40 SWAP1 KECCAK256 PUSH1 0xB DUP2 ADD SLOAD PUSH1 0x1 SWAP1 SWAP2 ADD SLOAD DUP4 DUP3 LT ISZERO PUSH2 0x881 JUMPI PUSH1 0x40 MLOAD PUSH3 0x461BCD PUSH1 0xE5 SHL DUP2 MSTORE PUSH1 0x20 PUSH1 0x4 DUP3 ADD MSTORE PUSH1 0x41 PUSH1 0x24 DUP3 ADD MSTORE PUSH32 0x5175616E746974792069732067726561746572207468616E2074686520616D6F PUSH1 0x44 DUP3 ADD MSTORE PUSH32 0x756E74206C65667420746F20626520736F6C6420696E20746869732062617463 PUSH1 0x64 DUP3 ADD MSTORE PUSH1 0xD PUSH1 0xFB SHL PUSH1 0x84 DUP3 ADD MSTORE PUSH1 0xA4 ADD PUSH2 0x497 JUMP JUMPDEST PUSH1 0x0 DUP5 GT PUSH2 0x8D1 JUMPI PUSH1 0x40 MLOAD PUSH3 0x461BCD PUSH1 0xE5 SHL DUP2 MSTORE PUSH1 0x20 PUSH1 0x4 DUP3 ADD MSTORE PUSH1 0x17 PUSH1 0x24 DUP3 ADD MSTORE PUSH32 0x5175616E746974792063616E6E6F74206265207A65726F000000000000000000 PUSH1 0x44 DUP3 ADD MSTORE PUSH1 0x64 ADD PUSH2 0x497 JUMP JUMPDEST PUSH1 0x0 PUSH2 0x8DD DUP4 DUP4 PUSH2 0x2683 JUMP JUMPDEST PUSH1 0x0 DUP8 DUP2 MSTORE PUSH1 0x4 PUSH1 0x20 SWAP1 DUP2 MSTORE PUSH1 0x40 DUP1 DUP4 KECCAK256 DUP1 SLOAD DUP3 MLOAD DUP2 DUP6 MUL DUP2 ADD DUP6 ADD SWAP1 SWAP4 MSTORE DUP1 DUP4 MSTORE SWAP5 SWAP6 POP SWAP3 SWAP4 SWAP1 SWAP3 SWAP2 DUP4 ADD DUP3 DUP3 DUP1 ISZERO PUSH2 0x936 JUMPI PUSH1 0x20 MUL DUP3 ADD SWAP2 SWAP1 PUSH1 0x0 MSTORE PUSH1 0x20 PUSH1 0x0 KECCAK256 SWAP1 JUMPDEST DUP2 SLOAD DUP2 MSTORE PUSH1 0x20 ADD SWAP1 PUSH1 0x1 ADD SWAP1 DUP1 DUP4 GT PUSH2 0x922 JUMPI JUMPDEST POP POP POP POP POP SWAP1 POP PUSH2 0x963 PUSH1 0x40 MLOAD DUP1 PUSH1 0x40 ADD PUSH1 0x40 MSTORE DUP1 PUSH1 0x5 DUP2 MSTORE PUSH1 0x20 ADD PUSH5 0x48456C6C4F PUSH1 0xD8 SHL DUP2 MSTORE POP PUSH2 0x1C13 JUMP JUMPDEST POP POP POP POP POP POP POP JUMP JUMPDEST PUSH1 0x0 PUSH1 0x20 DUP2 SWAP1 MSTORE SWAP1 DUP2 MSTORE PUSH1 0x40 SWAP1 KECCAK256 DUP1 SLOAD PUSH1 0x1 DUP3 ADD DUP1 SLOAD SWAP2 SWAP3 SWAP2 PUSH2 0x98E SWAP1 PUSH2 0x2508 JUMP JUMPDEST DUP1 PUSH1 0x1F ADD PUSH1 0x20 DUP1 SWAP2 DIV MUL PUSH1 0x20 ADD PUSH1 0x40 MLOAD SWAP1 DUP2 ADD PUSH1 0x40 MSTORE DUP1 SWAP3 SWAP2 SWAP1 DUP2 DUP2 MSTORE PUSH1 0x20 ADD DUP3 DUP1 SLOAD PUSH2 0x9BA SWAP1 PUSH2 0x2508 JUMP JUMPDEST DUP1 ISZERO PUSH2 0xA07 JUMPI DUP1 PUSH1 0x1F LT PUSH2 0x9DC JUMPI PUSH2 0x100 DUP1 DUP4 SLOAD DIV MUL DUP4 MSTORE SWAP2 PUSH1 0x20 ADD SWAP2 PUSH2 0xA07 JUMP JUMPDEST DUP3 ADD SWAP2 SWAP1 PUSH1 0x0 MSTORE PUSH1 0x20 PUSH1 0x0 KECCAK256 SWAP1 JUMPDEST DUP2 SLOAD DUP2 MSTORE SWAP1 PUSH1 0x1 ADD SWAP1 PUSH1 0x20 ADD DUP1 DUP4 GT PUSH2 0x9EA JUMPI DUP3 SWAP1 SUB PUSH1 0x1F AND DUP3 ADD SWAP2 JUMPDEST POP POP POP POP POP SWAP1 DUP1 PUSH1 0x2 ADD DUP1 SLOAD PUSH2 0xA1C SWAP1 PUSH2 0x2508 JUMP JUMPDEST DUP1 PUSH1 0x1F ADD PUSH1 0x20 DUP1 SWAP2 DIV MUL PUSH1 0x20 ADD PUSH1 0x40 MLOAD SWAP1 DUP2 ADD PUSH1 0x40 MSTORE DUP1 SWAP3 SWAP2 SWAP1 DUP2 DUP2 MSTORE PUSH1 0x20 ADD DUP3 DUP1 SLOAD PUSH2 0xA48 SWAP1 PUSH2 0x2508 JUMP JUMPDEST DUP1 ISZERO PUSH2 0xA95 JUMPI DUP1 PUSH1 0x1F LT PUSH2 0xA6A JUMPI PUSH2 0x100 DUP1 DUP4 SLOAD DIV MUL DUP4 MSTORE SWAP2 PUSH1 0x20 ADD SWAP2 PUSH2 0xA95 JUMP JUMPDEST DUP3 ADD SWAP2 SWAP1 PUSH1 0x0 MSTORE PUSH1 0x20 PUSH1 0x0 KECCAK256 SWAP1 JUMPDEST DUP2 SLOAD DUP2 MSTORE SWAP1 PUSH1 0x1 ADD SWAP1 PUSH1 0x20 ADD DUP1 DUP4 GT PUSH2 0xA78 JUMPI DUP3 SWAP1 SUB PUSH1 0x1F AND DUP3 ADD SWAP2 JUMPDEST POP POP POP POP POP SWAP1 DUP1 PUSH1 0x3 ADD DUP1 SLOAD PUSH2 0xAAA SWAP1 PUSH2 0x2508 JUMP JUMPDEST DUP1 PUSH1 0x1F ADD PUSH1 0x20 DUP1 SWAP2 DIV MUL PUSH1 0x20 ADD PUSH1 0x40 MLOAD SWAP1 DUP2 ADD PUSH1 0x40 MSTORE DUP1 SWAP3 SWAP2 SWAP1 DUP2 DUP2 MSTORE PUSH1 0x20 ADD DUP3 DUP1 SLOAD PUSH2 0xAD6 SWAP1 PUSH2 0x2508 JUMP JUMPDEST DUP1 ISZERO PUSH2 0xB23 JUMPI DUP1 PUSH1 0x1F LT PUSH2 0xAF8 JUMPI PUSH2 0x100 DUP1 DUP4 SLOAD DIV MUL DUP4 MSTORE SWAP2 PUSH1 0x20 ADD SWAP2 PUSH2 0xB23 JUMP JUMPDEST DUP3 ADD SWAP2 SWAP1 PUSH1 0x0 MSTORE PUSH1 0x20 PUSH1 0x0 KECCAK256 SWAP1 JUMPDEST DUP2 SLOAD DUP2 MSTORE SWAP1 PUSH1 0x1 ADD SWAP1 PUSH1 0x20 ADD DUP1 DUP4 GT PUSH2 0xB06 JUMPI DUP3 SWAP1 SUB PUSH1 0x1F AND DUP3 ADD SWAP2 JUMPDEST POP POP POP POP POP SWAP1 POP DUP5 JUMP JUMPDEST PUSH1 0x60 PUSH1 0xB DUP1 SLOAD DUP1 PUSH1 0x20 MUL PUSH1 0x20 ADD PUSH1 0x40 MLOAD SWAP1 DUP2 ADD PUSH1 0x40 MSTORE DUP1 SWAP3 SWAP2 SWAP1 DUP2 DUP2 MSTORE PUSH1 0x20 ADD DUP3 DUP1 SLOAD DUP1 ISZERO PUSH2 0x6B0 JUMPI PUSH1 0x20 MUL DUP3 ADD SWAP2 SWAP1 PUSH1 0x0 MSTORE PUSH1 0x20 PUSH1 0x0 KECCAK256 SWAP1 DUP2 SLOAD DUP2 MSTORE PUSH1 0x20 ADD SWAP1 PUSH1 0x1 ADD SWAP1 DUP1 DUP4 GT PUSH2 0x69C JUMPI POP POP POP POP POP SWAP1 POP SWAP1 JUMP JUMPDEST PUSH1 0x1 PUSH1 0x20 DUP2 SWAP1 MSTORE PUSH1 0x0 SWAP2 DUP3 MSTORE PUSH1 0x40 SWAP1 SWAP2 KECCAK256 DUP1 SLOAD SWAP2 DUP2 ADD SLOAD PUSH1 0x2 DUP3 ADD DUP1 SLOAD SWAP2 SWAP3 SWAP2 PUSH2 0xBAC SWAP1 PUSH2 0x2508 JUMP JUMPDEST DUP1 PUSH1 0x1F ADD PUSH1 0x20 DUP1 SWAP2 DIV MUL PUSH1 0x20 ADD PUSH1 0x40 MLOAD SWAP1 DUP2 ADD PUSH1 0x40 MSTORE DUP1 SWAP3 SWAP2 SWAP1 DUP2 DUP2 MSTORE PUSH1 0x20 ADD DUP3 DUP1 SLOAD PUSH2 0xBD8 SWAP1 PUSH2 0x2508 JUMP JUMPDEST DUP1 ISZERO PUSH2 0xC25 JUMPI DUP1 PUSH1 0x1F LT PUSH2 0xBFA JUMPI PUSH2 0x100 DUP1 DUP4 SLOAD DIV MUL DUP4 MSTORE SWAP2 PUSH1 0x20 ADD SWAP2 PUSH2 0xC25 JUMP JUMPDEST DUP3 ADD SWAP2 SWAP1 PUSH1 0x0 MSTORE PUSH1 0x20 PUSH1 0x0 KECCAK256 SWAP1 JUMPDEST DUP2 SLOAD DUP2 MSTORE SWAP1 PUSH1 0x1 ADD SWAP1 PUSH1 0x20 ADD DUP1 DUP4 GT PUSH2 0xC08 JUMPI DUP3 SWAP1 SUB PUSH1 0x1F AND DUP3 ADD SWAP2 JUMPDEST POP POP POP POP POP SWAP1 DUP1 PUSH1 0x3 ADD SLOAD SWAP1 DUP1 PUSH1 0x4 ADD DUP1 SLOAD PUSH2 0xC40 SWAP1 PUSH2 0x2508 JUMP JUMPDEST DUP1 PUSH1 0x1F ADD PUSH1 0x20 DUP1 SWAP2 DIV MUL PUSH1 0x20 ADD PUSH1 0x40 MLOAD SWAP1 DUP2 ADD PUSH1 0x40 MSTORE DUP1 SWAP3 SWAP2 SWAP1 DUP2 DUP2 MSTORE PUSH1 0x20 ADD DUP3 DUP1 SLOAD PUSH2 0xC6C SWAP1 PUSH2 0x2508 JUMP JUMPDEST DUP1 ISZERO PUSH2 0xCB9 JUMPI DUP1 PUSH1 0x1F LT PUSH2 0xC8E JUMPI PUSH2 0x100 DUP1 DUP4 SLOAD DIV MUL DUP4 MSTORE SWAP2 PUSH1 0x20 ADD SWAP2 PUSH2 0xCB9 JUMP JUMPDEST DUP3 ADD SWAP2 SWAP1 PUSH1 0x0 MSTORE PUSH1 0x20 PUSH1 0x0 KECCAK256 SWAP1 JUMPDEST DUP2 SLOAD DUP2 MSTORE SWAP1 PUSH1 0x1 ADD SWAP1 PUSH1 0x20 ADD DUP1 DUP4 GT PUSH2 0xC9C JUMPI DUP3 SWAP1 SUB PUSH1 0x1F AND DUP3 ADD SWAP2 JUMPDEST POP POP POP POP POP SWAP1 POP DUP6 JUMP JUMPDEST PUSH1 0xB DUP2 DUP2 SLOAD DUP2 LT PUSH2 0x651 JUMPI PUSH1 0x0 DUP1 REVERT JUMPDEST PUSH1 0x60 PUSH1 0xA DUP1 SLOAD DUP1 PUSH1 0x20 MUL PUSH1 0x20 ADD PUSH1 0x40 MLOAD SWAP1 DUP2 ADD PUSH1 0x40 MSTORE DUP1 SWAP3 SWAP2 SWAP1 DUP2 DUP2 MSTORE PUSH1 0x20 ADD DUP3 DUP1 SLOAD DUP1 ISZERO PUSH2 0x6B0 JUMPI PUSH1 0x20 MUL DUP3 ADD SWAP2 SWAP1 PUSH1 0x0 MSTORE PUSH1 0x20 PUSH1 0x0 KECCAK256 SWAP1 DUP2 SLOAD DUP2 MSTORE PUSH1 0x20 ADD SWAP1 PUSH1 0x1 ADD SWAP1 DUP1 DUP4 GT PUSH2 0x69C JUMPI POP POP POP POP POP SWAP1 POP SWAP1 JUMP JUMPDEST PUSH2 0xD32 DUP6 PUSH2 0x1C59 JUMP JUMPDEST ISZERO PUSH2 0xD99 JUMPI PUSH1 0x40 MLOAD PUSH3 0x461BCD PUSH1 0xE5 SHL DUP2 MSTORE PUSH1 0x20 PUSH1 0x4 DUP3 ADD MSTORE PUSH1 0x31 PUSH1 0x24 DUP3 ADD MSTORE PUSH32 0x5468697320426174636854656D706C617465494420616C726561647920657869 PUSH1 0x44 DUP3 ADD MSTORE PUSH17 0x73747320696E207468652073797374656D PUSH1 0x78 SHL PUSH1 0x64 DUP3 ADD MSTORE PUSH1 0x84 ADD PUSH2 0x497 JUMP JUMPDEST PUSH2 0xDA2 DUP5 PUSH2 0x1BBD JUMP JUMPDEST ISZERO ISZERO PUSH1 0x1 EQ PUSH2 0xE10 JUMPI PUSH1 0x40 MLOAD PUSH3 0x461BCD PUSH1 0xE5 SHL DUP2 MSTORE PUSH1 0x20 PUSH1 0x4 DUP3 ADD MSTORE PUSH1 0x34 PUSH1 0x24 DUP3 ADD MSTORE PUSH32 0x546869732050726F6475637454656D706C617465494420646F6573206E6F7420 PUSH1 0x44 DUP3 ADD MSTORE PUSH20 0x65786973747320696E207468652073797374656D PUSH1 0x60 SHL PUSH1 0x64 DUP3 ADD MSTORE PUSH1 0x84 ADD PUSH2 0x497 JUMP JUMPDEST PUSH1 0x40 MLOAD DUP1 PUSH1 0xA0 ADD PUSH1 0x40 MSTORE DUP1 DUP7 DUP2 MSTORE PUSH1 0x20 ADD DUP6 DUP2 MSTORE PUSH1 0x20 ADD DUP5 DUP2 MSTORE PUSH1 0x20 ADD DUP4 DUP2 MSTORE PUSH1 0x20 ADD DUP3 DUP2 MSTORE POP PUSH1 0x1 PUSH1 0x0 DUP8 DUP2 MSTORE PUSH1 0x20 ADD SWAP1 DUP2 MSTORE PUSH1 0x20 ADD PUSH1 0x0 KECCAK256 PUSH1 0x0 DUP3 ADD MLOAD DUP2 PUSH1 0x0 ADD SSTORE PUSH1 0x20 DUP3 ADD MLOAD DUP2 PUSH1 0x1 ADD SSTORE PUSH1 0x40 DUP3 ADD MLOAD DUP2 PUSH1 0x2 ADD SWAP1 DUP2 PUSH2 0xE73 SWAP2 SWAP1 PUSH2 0x2591 JUMP JUMPDEST POP PUSH1 0x60 DUP3 ADD MLOAD PUSH1 0x3 DUP3 ADD SSTORE PUSH1 0x80 DUP3 ADD MLOAD PUSH1 0x4 DUP3 ADD SWAP1 PUSH2 0xE92 SWAP1 DUP3 PUSH2 0x2591 JUMP JUMPDEST POP POP PUSH1 0x9 DUP1 SLOAD PUSH1 0x1 DUP2 ADD DUP3 SSTORE PUSH1 0x0 SWAP2 SWAP1 SWAP2 MSTORE PUSH32 0x6E1540171B6C0C960B71A7020D9F60077F6AF931A8BBF590DA0223DACF75C7AF ADD SWAP6 SWAP1 SWAP6 SSTORE POP POP POP POP POP JUMP JUMPDEST PUSH1 0x4 PUSH1 0x20 MSTORE DUP2 PUSH1 0x0 MSTORE PUSH1 0x40 PUSH1 0x0 KECCAK256 DUP2 DUP2 SLOAD DUP2 LT PUSH2 0xEED JUMPI PUSH1 0x0 DUP1 REVERT JUMPDEST SWAP1 PUSH1 0x0 MSTORE PUSH1 0x20 PUSH1 0x0 KECCAK256 ADD PUSH1 0x0 SWAP2 POP SWAP2 POP POP SLOAD DUP2 JUMP JUMPDEST PUSH1 0xA DUP2 DUP2 SLOAD DUP2 LT PUSH2 0x651 JUMPI PUSH1 0x0 DUP1 REVERT JUMPDEST PUSH1 0x3 PUSH1 0x20 MSTORE DUP1 PUSH1 0x0 MSTORE PUSH1 0x40 PUSH1 0x0 KECCAK256 PUSH1 0x0 SWAP2 POP SWAP1 POP DUP1 PUSH1 0x0 ADD SLOAD SWAP1 DUP1 PUSH1 0x1 ADD SLOAD SWAP1 DUP1 PUSH1 0x2 ADD SLOAD SWAP1 DUP1 PUSH1 0x3 ADD DUP1 SLOAD PUSH2 0xF47 SWAP1 PUSH2 0x2508 JUMP JUMPDEST DUP1 PUSH1 0x1F ADD PUSH1 0x20 DUP1 SWAP2 DIV MUL PUSH1 0x20 ADD PUSH1 0x40 MLOAD SWAP1 DUP2 ADD PUSH1 0x40 MSTORE DUP1 SWAP3 SWAP2 SWAP1 DUP2 DUP2 MSTORE PUSH1 0x20 ADD DUP3 DUP1 SLOAD PUSH2 0xF73 SWAP1 PUSH2 0x2508 JUMP JUMPDEST DUP1 ISZERO PUSH2 0xFC0 JUMPI DUP1 PUSH1 0x1F LT PUSH2 0xF95 JUMPI PUSH2 0x100 DUP1 DUP4 SLOAD DIV MUL DUP4 MSTORE SWAP2 PUSH1 0x20 ADD SWAP2 PUSH2 0xFC0 JUMP JUMPDEST DUP3 ADD SWAP2 SWAP1 PUSH1 0x0 MSTORE PUSH1 0x20 PUSH1 0x0 KECCAK256 SWAP1 JUMPDEST DUP2 SLOAD DUP2 MSTORE SWAP1 PUSH1 0x1 ADD SWAP1 PUSH1 0x20 ADD DUP1 DUP4 GT PUSH2 0xFA3 JUMPI DUP3 SWAP1 SUB PUSH1 0x1F AND DUP3 ADD SWAP2 JUMPDEST POP POP POP POP POP SWAP1 DUP1 PUSH1 0x4 ADD SLOAD SWAP1 DUP1 PUSH1 0x5 ADD DUP1 SLOAD PUSH2 0xFDB SWAP1 PUSH2 0x2508 JUMP JUMPDEST DUP1 PUSH1 0x1F ADD PUSH1 0x20 DUP1 SWAP2 DIV MUL PUSH1 0x20 ADD PUSH1 0x40 MLOAD SWAP1 DUP2 ADD PUSH1 0x40 MSTORE DUP1 SWAP3 SWAP2 SWAP1 DUP2 DUP2 MSTORE PUSH1 0x20 ADD DUP3 DUP1 SLOAD PUSH2 0x1007 SWAP1 PUSH2 0x2508 JUMP JUMPDEST DUP1 ISZERO PUSH2 0x1054 JUMPI DUP1 PUSH1 0x1F LT PUSH2 0x1029 JUMPI PUSH2 0x100 DUP1 DUP4 SLOAD DIV MUL DUP4 MSTORE SWAP2 PUSH1 0x20 ADD SWAP2 PUSH2 0x1054 JUMP JUMPDEST DUP3 ADD SWAP2 SWAP1 PUSH1 0x0 MSTORE PUSH1 0x20 PUSH1 0x0 KECCAK256 SWAP1 JUMPDEST DUP2 SLOAD DUP2 MSTORE SWAP1 PUSH1 0x1 ADD SWAP1 PUSH1 0x20 ADD DUP1 DUP4 GT PUSH2 0x1037 JUMPI DUP3 SWAP1 SUB PUSH1 0x1F AND DUP3 ADD SWAP2 JUMPDEST POP POP POP POP POP SWAP1 DUP1 PUSH1 0x6 ADD DUP1 SLOAD PUSH2 0x1069 SWAP1 PUSH2 0x2508 JUMP JUMPDEST DUP1 PUSH1 0x1F ADD PUSH1 0x20 DUP1 SWAP2 DIV MUL PUSH1 0x20 ADD PUSH1 0x40 MLOAD SWAP1 DUP2 ADD PUSH1 0x40 MSTORE DUP1 SWAP3 SWAP2 SWAP1 DUP2 DUP2 MSTORE PUSH1 0x20 ADD DUP3 DUP1 SLOAD PUSH2 0x1095 SWAP1 PUSH2 0x2508 JUMP JUMPDEST DUP1 ISZERO PUSH2 0x10E2 JUMPI DUP1 PUSH1 0x1F LT PUSH2 0x10B7 JUMPI PUSH2 0x100 DUP1 DUP4 SLOAD DIV MUL DUP4 MSTORE SWAP2 PUSH1 0x20 ADD SWAP2 PUSH2 0x10E2 JUMP JUMPDEST DUP3 ADD SWAP2 SWAP1 PUSH1 0x0 MSTORE PUSH1 0x20 PUSH1 0x0 KECCAK256 SWAP1 JUMPDEST DUP2 SLOAD DUP2 MSTORE SWAP1 PUSH1 0x1 ADD SWAP1 PUSH1 0x20 ADD DUP1 DUP4 GT PUSH2 0x10C5 JUMPI DUP3 SWAP1 SUB PUSH1 0x1F AND DUP3 ADD SWAP2 JUMPDEST POP POP POP POP POP SWAP1 DUP1 PUSH1 0x7 ADD DUP1 SLOAD PUSH2 0x10F7 SWAP1 PUSH2 0x2508 JUMP JUMPDEST DUP1 PUSH1 0x1F ADD PUSH1 0x20 DUP1 SWAP2 DIV MUL PUSH1 0x20 ADD PUSH1 0x40 MLOAD SWAP1 DUP2 ADD PUSH1 0x40 MSTORE DUP1 SWAP3 SWAP2 SWAP1 DUP2 DUP2 MSTORE PUSH1 0x20 ADD DUP3 DUP1 SLOAD PUSH2 0x1123 SWAP1 PUSH2 0x2508 JUMP JUMPDEST DUP1 ISZERO PUSH2 0x1170 JUMPI DUP1 PUSH1 0x1F LT PUSH2 0x1145 JUMPI PUSH2 0x100 DUP1 DUP4 SLOAD DIV MUL DUP4 MSTORE SWAP2 PUSH1 0x20 ADD SWAP2 PUSH2 0x1170 JUMP JUMPDEST DUP3 ADD SWAP2 SWAP1 PUSH1 0x0 MSTORE PUSH1 0x20 PUSH1 0x0 KECCAK256 SWAP1 JUMPDEST DUP2 SLOAD DUP2 MSTORE SWAP1 PUSH1 0x1 ADD SWAP1 PUSH1 0x20 ADD DUP1 DUP4 GT PUSH2 0x1153 JUMPI DUP3 SWAP1 SUB PUSH1 0x1F AND DUP3 ADD SWAP2 JUMPDEST POP POP POP POP POP SWAP1 DUP1 PUSH1 0x8 ADD DUP1 SLOAD PUSH2 0x1185 SWAP1 PUSH2 0x2508 JUMP JUMPDEST DUP1 PUSH1 0x1F ADD PUSH1 0x20 DUP1 SWAP2 DIV MUL PUSH1 0x20 ADD PUSH1 0x40 MLOAD SWAP1 DUP2 ADD PUSH1 0x40 MSTORE DUP1 SWAP3 SWAP2 SWAP1 DUP2 DUP2 MSTORE PUSH1 0x20 ADD DUP3 DUP1 SLOAD PUSH2 0x11B1 SWAP1 PUSH2 0x2508 JUMP JUMPDEST DUP1 ISZERO PUSH2 0x11FE JUMPI DUP1 PUSH1 0x1F LT PUSH2 0x11D3 JUMPI PUSH2 0x100 DUP1 DUP4 SLOAD DIV MUL DUP4 MSTORE SWAP2 PUSH1 0x20 ADD SWAP2 PUSH2 0x11FE JUMP JUMPDEST DUP3 ADD SWAP2 SWAP1 PUSH1 0x0 MSTORE PUSH1 0x20 PUSH1 0x0 KECCAK256 SWAP1 JUMPDEST DUP2 SLOAD DUP2 MSTORE SWAP1 PUSH1 0x1 ADD SWAP1 PUSH1 0x20 ADD DUP1 DUP4 GT PUSH2 0x11E1 JUMPI DUP3 SWAP1 SUB PUSH1 0x1F AND DUP3 ADD SWAP2 JUMPDEST POP POP POP POP PUSH1 0x9 DUP4 ADD SLOAD PUSH1 0xA DUP5 ADD SLOAD PUSH1 0xB SWAP1 SWAP5 ADD SLOAD SWAP3 SWAP4 SWAP1 SWAP3 PUSH1 0xFF SWAP1 SWAP2 AND SWAP2 POP DUP13 JUMP JUMPDEST PUSH2 0x1229 DUP10 PUSH2 0x1CA6 JUMP JUMPDEST ISZERO PUSH2 0x1282 JUMPI PUSH1 0x40 MLOAD PUSH3 0x461BCD PUSH1 0xE5 SHL DUP2 MSTORE PUSH1 0x20 PUSH1 0x4 DUP3 ADD MSTORE PUSH1 0x24 DUP1 DUP3 ADD MSTORE PUSH32 0x4261746368494420616C72656164792065786973747320696E20746865207379 PUSH1 0x44 DUP3 ADD MSTORE PUSH4 0x7374656D PUSH1 0xE0 SHL PUSH1 0x64 DUP3 ADD MSTORE PUSH1 0x84 ADD PUSH2 0x497 JUMP JUMPDEST DUP7 DUP9 MLOAD EQ PUSH2 0x12F8 JUMPI PUSH1 0x40 MLOAD PUSH3 0x461BCD PUSH1 0xE5 SHL DUP2 MSTORE PUSH1 0x20 PUSH1 0x4 DUP3 ADD MSTORE PUSH1 0x37 PUSH1 0x24 DUP3 ADD MSTORE PUSH32 0x53697A65206F662070726F6475637449447320617272617920646F6573206E6F PUSH1 0x44 DUP3 ADD MSTORE PUSH32 0x74206D6174636820776974682042617463682073697A65000000000000000000 PUSH1 0x64 DUP3 ADD MSTORE PUSH1 0x84 ADD PUSH2 0x497 JUMP JUMPDEST PUSH1 0x40 DUP1 MLOAD PUSH2 0x180 DUP2 ADD DUP3 MSTORE DUP11 DUP2 MSTORE PUSH1 0x20 DUP1 DUP3 ADD DUP11 DUP2 MSTORE PUSH1 0x0 DUP4 DUP6 ADD DUP2 DUP2 MSTORE PUSH1 0x60 DUP6 ADD DUP13 DUP2 MSTORE PUSH1 0x80 DUP7 ADD DUP13 SWAP1 MSTORE PUSH1 0xA0 DUP7 ADD DUP12 SWAP1 MSTORE PUSH1 0xC0 DUP7 ADD DUP11 SWAP1 MSTORE PUSH1 0xE0 DUP7 ADD DUP10 SWAP1 MSTORE PUSH2 0x100 DUP7 ADD DUP9 SWAP1 MSTORE PUSH2 0x120 DUP7 ADD DUP4 SWAP1 MSTORE PUSH2 0x140 DUP7 ADD DUP4 SWAP1 MSTORE PUSH2 0x160 DUP7 ADD DUP15 SWAP1 MSTORE DUP16 DUP4 MSTORE PUSH1 0x3 SWAP5 DUP6 SWAP1 MSTORE SWAP6 SWAP1 SWAP2 KECCAK256 DUP5 MLOAD DUP2 SSTORE SWAP2 MLOAD PUSH1 0x1 DUP4 ADD SSTORE MLOAD PUSH1 0x2 DUP3 ADD SSTORE SWAP3 MLOAD SWAP2 SWAP3 SWAP2 SWAP1 DUP3 ADD SWAP1 PUSH2 0x138A SWAP1 DUP3 PUSH2 0x2591 JUMP JUMPDEST POP PUSH1 0x80 DUP3 ADD MLOAD PUSH1 0x4 DUP3 ADD SSTORE PUSH1 0xA0 DUP3 ADD MLOAD PUSH1 0x5 DUP3 ADD SWAP1 PUSH2 0x13A9 SWAP1 DUP3 PUSH2 0x2591 JUMP JUMPDEST POP PUSH1 0xC0 DUP3 ADD MLOAD PUSH1 0x6 DUP3 ADD SWAP1 PUSH2 0x13BE SWAP1 DUP3 PUSH2 0x2591 JUMP JUMPDEST POP PUSH1 0xE0 DUP3 ADD MLOAD PUSH1 0x7 DUP3 ADD SWAP1 PUSH2 0x13D3 SWAP1 DUP3 PUSH2 0x2591 JUMP JUMPDEST POP PUSH2 0x100 DUP3 ADD MLOAD PUSH1 0x8 DUP3 ADD SWAP1 PUSH2 0x13E9 SWAP1 DUP3 PUSH2 0x2591 JUMP JUMPDEST POP PUSH2 0x120 DUP3 ADD MLOAD PUSH1 0x9 DUP3 ADD SSTORE PUSH2 0x140 DUP3 ADD MLOAD PUSH1 0xA DUP3 ADD DUP1 SLOAD PUSH1 0xFF NOT AND SWAP2 ISZERO ISZERO SWAP2 SWAP1 SWAP2 OR SWAP1 SSTORE PUSH2 0x160 SWAP1 SWAP2 ADD MLOAD PUSH1 0xB SWAP2 DUP3 ADD SSTORE DUP1 SLOAD PUSH1 0x1 DUP2 ADD SWAP1 SWAP2 SSTORE PUSH32 0x175B7A638427703F0DBE7BB9BBF987A2551717B34E79F33B5B1008D1FA01DB9 ADD DUP10 SWAP1 SSTORE PUSH1 0x0 DUP10 DUP2 MSTORE PUSH1 0x4 PUSH1 0x20 SWAP1 DUP2 MSTORE PUSH1 0x40 SWAP1 SWAP2 KECCAK256 DUP10 MLOAD PUSH2 0x1468 SWAP3 DUP12 ADD SWAP1 PUSH2 0x1D61 JUMP JUMPDEST POP PUSH1 0x0 JUMPDEST DUP8 DUP2 LT ISZERO PUSH2 0x166F JUMPI PUSH2 0x1496 DUP10 DUP3 DUP2 MLOAD DUP2 LT PUSH2 0x1489 JUMPI PUSH2 0x1489 PUSH2 0x269C JUMP JUMPDEST PUSH1 0x20 MUL PUSH1 0x20 ADD ADD MLOAD PUSH2 0x1CF3 JUMP JUMPDEST ISZERO PUSH2 0x14F2 JUMPI PUSH1 0x40 MLOAD PUSH3 0x461BCD PUSH1 0xE5 SHL DUP2 MSTORE PUSH1 0x20 PUSH1 0x4 DUP3 ADD MSTORE PUSH1 0x26 PUSH1 0x24 DUP3 ADD MSTORE PUSH32 0x50726F64756374494420616C72656164792065786973747320696E2074686520 PUSH1 0x44 DUP3 ADD MSTORE PUSH6 0x73797374656D PUSH1 0xD0 SHL PUSH1 0x64 DUP3 ADD MSTORE PUSH1 0x84 ADD PUSH2 0x497 JUMP JUMPDEST PUSH1 0x40 MLOAD DUP1 PUSH2 0x120 ADD PUSH1 0x40 MSTORE DUP1 DUP11 DUP4 DUP2 MLOAD DUP2 LT PUSH2 0x1510 JUMPI PUSH2 0x1510 PUSH2 0x269C JUMP JUMPDEST PUSH1 0x20 MUL PUSH1 0x20 ADD ADD MLOAD DUP2 MSTORE PUSH1 0x20 ADD DUP12 DUP2 MSTORE PUSH1 0x20 ADD DUP8 DUP2 MSTORE PUSH1 0x20 ADD DUP4 DUP2 MSTORE PUSH1 0x20 ADD PUSH1 0x40 MLOAD DUP1 PUSH1 0x20 ADD PUSH1 0x40 MSTORE DUP1 PUSH1 0x0 DUP2 MSTORE POP DUP2 MSTORE PUSH1 0x20 ADD PUSH1 0x40 MLOAD DUP1 PUSH1 0x20 ADD PUSH1 0x40 MSTORE DUP1 PUSH1 0x0 DUP2 MSTORE POP DUP2 MSTORE PUSH1 0x20 ADD PUSH1 0x0 ISZERO ISZERO DUP2 MSTORE PUSH1 0x20 ADD PUSH1 0x0 DUP2 MSTORE PUSH1 0x20 ADD PUSH1 0x0 DUP2 MSTORE POP PUSH1 0x2 PUSH1 0x0 DUP12 DUP5 DUP2 MLOAD DUP2 LT PUSH2 0x1584 JUMPI PUSH2 0x1584 PUSH2 0x269C JUMP JUMPDEST PUSH1 0x20 MUL PUSH1 0x20 ADD ADD MLOAD DUP2 MSTORE PUSH1 0x20 ADD SWAP1 DUP2 MSTORE PUSH1 0x20 ADD PUSH1 0x0 KECCAK256 PUSH1 0x0 DUP3 ADD MLOAD DUP2 PUSH1 0x0 ADD SSTORE PUSH1 0x20 DUP3 ADD MLOAD DUP2 PUSH1 0x1 ADD SSTORE PUSH1 0x40 DUP3 ADD MLOAD DUP2 PUSH1 0x2 ADD SSTORE PUSH1 0x60 DUP3 ADD MLOAD DUP2 PUSH1 0x3 ADD SWAP1 DUP2 PUSH2 0x15CD SWAP2 SWAP1 PUSH2 0x2591 JUMP JUMPDEST POP PUSH1 0x80 DUP3 ADD MLOAD PUSH1 0x4 DUP3 ADD SWAP1 PUSH2 0x15E2 SWAP1 DUP3 PUSH2 0x2591 JUMP JUMPDEST POP PUSH1 0xA0 DUP3 ADD MLOAD PUSH1 0x5 DUP3 ADD SWAP1 PUSH2 0x15F7 SWAP1 DUP3 PUSH2 0x2591 JUMP JUMPDEST POP PUSH1 0xC0 DUP3 ADD MLOAD PUSH1 0x6 DUP3 ADD DUP1 SLOAD PUSH1 0xFF NOT AND SWAP2 ISZERO ISZERO SWAP2 SWAP1 SWAP2 OR SWAP1 SSTORE PUSH1 0xE0 DUP3 ADD MLOAD PUSH1 0x7 DUP3 ADD SSTORE PUSH2 0x100 SWAP1 SWAP2 ADD MLOAD PUSH1 0x8 SWAP1 SWAP2 ADD SSTORE DUP9 MLOAD PUSH1 0xA SWAP1 DUP11 SWAP1 DUP4 SWAP1 DUP2 LT PUSH2 0x163E JUMPI PUSH2 0x163E PUSH2 0x269C JUMP JUMPDEST PUSH1 0x20 SWAP1 DUP2 MUL SWAP2 SWAP1 SWAP2 ADD DUP2 ADD MLOAD DUP3 SLOAD PUSH1 0x1 DUP2 ADD DUP5 SSTORE PUSH1 0x0 SWAP4 DUP5 MSTORE SWAP2 SWAP1 SWAP3 KECCAK256 ADD SSTORE DUP1 PUSH2 0x1667 DUP2 PUSH2 0x26B2 JUMP JUMPDEST SWAP2 POP POP PUSH2 0x146C JUMP JUMPDEST POP POP POP POP POP POP POP POP POP POP JUMP JUMPDEST PUSH1 0x0 DUP4 DUP2 MSTORE PUSH1 0x3 PUSH1 0x20 MSTORE PUSH1 0x40 DUP2 KECCAK256 PUSH1 0x2 ADD DUP1 SLOAD PUSH1 0x1 SWAP3 SWAP1 PUSH2 0x169D SWAP1 DUP5 SWAP1 PUSH2 0x26CB JUMP JUMPDEST SWAP1 SWAP2 SSTORE POP POP PUSH1 0x0 DUP3 DUP2 MSTORE PUSH1 0x2 PUSH1 0x20 MSTORE PUSH1 0x40 SWAP1 KECCAK256 PUSH1 0x4 ADD PUSH2 0x16BD DUP3 DUP3 PUSH2 0x2591 JUMP JUMPDEST POP PUSH1 0x0 DUP3 DUP2 MSTORE PUSH1 0x2 PUSH1 0x20 MSTORE PUSH1 0x40 SWAP1 DUP2 SWAP1 KECCAK256 TIMESTAMP PUSH1 0x8 SWAP1 SWAP2 ADD SSTORE MLOAD PUSH1 0x5 SWAP1 PUSH2 0x16E4 SWAP1 DUP4 SWAP1 PUSH2 0x2651 JUMP JUMPDEST SWAP1 DUP2 MSTORE PUSH1 0x40 DUP1 MLOAD SWAP2 DUP3 SWAP1 SUB PUSH1 0x20 SWAP1 DUP2 ADD DUP4 KECCAK256 DUP4 DUP4 ADD SWAP1 SWAP3 MSTORE SWAP5 DUP3 MSTORE DUP2 DUP6 ADD SWAP4 DUP5 MSTORE DUP1 SLOAD PUSH1 0x1 DUP2 DUP2 ADD DUP4 SSTORE PUSH1 0x0 SWAP3 DUP4 MSTORE SWAP6 SWAP1 SWAP2 KECCAK256 SWAP2 MLOAD PUSH1 0x2 SWAP1 SWAP2 MUL SWAP1 SWAP2 ADD SWAP1 DUP2 SSTORE SWAP2 MLOAD SWAP2 SWAP1 SWAP3 ADD SSTORE POP JUMP JUMPDEST PUSH1 0x0 DUP3 DUP2 MSTORE PUSH1 0x3 PUSH1 0x20 MSTORE PUSH1 0x40 SWAP1 KECCAK256 PUSH1 0xA ADD SLOAD PUSH1 0xFF AND ISZERO PUSH2 0x17A9 JUMPI PUSH1 0x40 MLOAD PUSH3 0x461BCD PUSH1 0xE5 SHL DUP2 MSTORE PUSH1 0x20 PUSH1 0x4 DUP3 ADD MSTORE PUSH1 0x30 PUSH1 0x24 DUP3 ADD MSTORE PUSH32 0x5468697320626174636820697320616C7265616479207363616E6E6564206279 PUSH1 0x44 DUP3 ADD MSTORE PUSH16 0x103A3432903234B9BA3934B13ABA37B9 PUSH1 0x81 SHL PUSH1 0x64 DUP3 ADD MSTORE PUSH1 0x84 ADD PUSH2 0x497 JUMP JUMPDEST DUP1 PUSH1 0x40 MLOAD PUSH1 0x20 ADD PUSH2 0x17BA SWAP2 SWAP1 PUSH2 0x2651 JUMP JUMPDEST PUSH1 0x40 DUP1 MLOAD PUSH1 0x1F NOT DUP2 DUP5 SUB ADD DUP2 MSTORE DUP3 DUP3 MSTORE DUP1 MLOAD PUSH1 0x20 SWAP2 DUP3 ADD KECCAK256 PUSH1 0x0 DUP7 DUP2 MSTORE PUSH1 0x3 DUP4 MSTORE SWAP3 SWAP1 SWAP3 KECCAK256 SWAP2 SWAP3 PUSH2 0x17EF SWAP3 PUSH1 0x6 ADD SWAP2 ADD PUSH2 0x26DE JUMP JUMPDEST PUSH1 0x40 MLOAD PUSH1 0x20 DUP2 DUP4 SUB SUB DUP2 MSTORE SWAP1 PUSH1 0x40 MSTORE DUP1 MLOAD SWAP1 PUSH1 0x20 ADD KECCAK256 EQ PUSH2 0x1866 JUMPI PUSH1 0x40 MLOAD PUSH3 0x461BCD PUSH1 0xE5 SHL DUP2 MSTORE PUSH1 0x20 PUSH1 0x4 DUP3 ADD MSTORE PUSH1 0x2B PUSH1 0x24 DUP3 ADD MSTORE PUSH32 0x54686973206261746368206973206E6F74206F776E6564206279207468697320 PUSH1 0x44 DUP3 ADD MSTORE PUSH11 0x3234B9BA3934B13ABA37B9 PUSH1 0xA9 SHL PUSH1 0x64 DUP3 ADD MSTORE PUSH1 0x84 ADD PUSH2 0x497 JUMP JUMPDEST POP PUSH1 0x0 SWAP1 DUP2 MSTORE PUSH1 0x3 PUSH1 0x20 MSTORE PUSH1 0x40 SWAP1 KECCAK256 PUSH1 0xA ADD DUP1 SLOAD PUSH1 0xFF NOT AND PUSH1 0x1 OR SWAP1 SSTORE JUMP JUMPDEST PUSH1 0x0 DUP3 DUP2 MSTORE PUSH1 0x2 PUSH1 0x20 MSTORE PUSH1 0x40 SWAP1 KECCAK256 PUSH1 0x6 ADD SLOAD PUSH1 0xFF AND ISZERO PUSH2 0x18FD JUMPI PUSH1 0x40 MLOAD PUSH3 0x461BCD PUSH1 0xE5 SHL DUP2 MSTORE PUSH1 0x20 PUSH1 0x4 DUP3 ADD MSTORE PUSH1 0x2D PUSH1 0x24 DUP3 ADD MSTORE PUSH32 0x5468697320626174636820697320616C7265616479207363616E6E6564206279 PUSH1 0x44 DUP3 ADD MSTORE PUSH13 0x103A3432903932BA30B4B632B9 PUSH1 0x99 SHL PUSH1 0x64 DUP3 ADD MSTORE PUSH1 0x84 ADD PUSH2 0x497 JUMP JUMPDEST DUP1 PUSH1 0x40 MLOAD PUSH1 0x20 ADD PUSH2 0x190E SWAP2 SWAP1 PUSH2 0x2651 JUMP JUMPDEST PUSH1 0x40 DUP1 MLOAD PUSH1 0x1F NOT DUP2 DUP5 SUB ADD DUP2 MSTORE DUP3 DUP3 MSTORE DUP1 MLOAD PUSH1 0x20 SWAP2 DUP3 ADD KECCAK256 PUSH1 0x0 DUP7 DUP2 MSTORE PUSH1 0x2 DUP4 MSTORE SWAP3 SWAP1 SWAP3 KECCAK256 SWAP2 SWAP3 PUSH2 0x1943 SWAP3 PUSH1 0x5 ADD SWAP2 ADD PUSH2 0x26DE JUMP JUMPDEST PUSH1 0x40 MLOAD PUSH1 0x20 DUP2 DUP4 SUB SUB DUP2 MSTORE SWAP1 PUSH1 0x40 MSTORE DUP1 MLOAD SWAP1 PUSH1 0x20 ADD KECCAK256 EQ PUSH2 0x19B7 JUMPI PUSH1 0x40 MLOAD PUSH3 0x461BCD PUSH1 0xE5 SHL DUP2 MSTORE PUSH1 0x20 PUSH1 0x4 DUP3 ADD MSTORE PUSH1 0x28 PUSH1 0x24 DUP3 ADD MSTORE PUSH32 0x54686973206261746368206973206E6F74206F776E6564206279207468697320 PUSH1 0x44 DUP3 ADD MSTORE PUSH8 0x3932BA30B4B632B9 PUSH1 0xC1 SHL PUSH1 0x64 DUP3 ADD MSTORE PUSH1 0x84 ADD PUSH2 0x497 JUMP JUMPDEST POP PUSH1 0x0 SWAP1 DUP2 MSTORE PUSH1 0x2 PUSH1 0x20 MSTORE PUSH1 0x40 SWAP1 KECCAK256 PUSH1 0x6 ADD DUP1 SLOAD PUSH1 0xFF NOT AND PUSH1 0x1 OR SWAP1 SSTORE JUMP JUMPDEST PUSH1 0x2 PUSH1 0x20 DUP2 SWAP1 MSTORE PUSH1 0x0 SWAP2 DUP3 MSTORE PUSH1 0x40 SWAP1 SWAP2 KECCAK256 DUP1 SLOAD PUSH1 0x1 DUP3 ADD SLOAD SWAP3 DUP3 ADD SLOAD PUSH1 0x3 DUP4 ADD DUP1 SLOAD SWAP3 SWAP5 SWAP4 SWAP2 SWAP3 PUSH2 0x1A06 SWAP1 PUSH2 0x2508 JUMP JUMPDEST DUP1 PUSH1 0x1F ADD PUSH1 0x20 DUP1 SWAP2 DIV MUL PUSH1 0x20 ADD PUSH1 0x40 MLOAD SWAP1 DUP2 ADD PUSH1 0x40 MSTORE DUP1 SWAP3 SWAP2 SWAP1 DUP2 DUP2 MSTORE PUSH1 0x20 ADD DUP3 DUP1 SLOAD PUSH2 0x1A32 SWAP1 PUSH2 0x2508 JUMP JUMPDEST DUP1 ISZERO PUSH2 0x1A7F JUMPI DUP1 PUSH1 0x1F LT PUSH2 0x1A54 JUMPI PUSH2 0x100 DUP1 DUP4 SLOAD DIV MUL DUP4 MSTORE SWAP2 PUSH1 0x20 ADD SWAP2 PUSH2 0x1A7F JUMP JUMPDEST DUP3 ADD SWAP2 SWAP1 PUSH1 0x0 MSTORE PUSH1 0x20 PUSH1 0x0 KECCAK256 SWAP1 JUMPDEST DUP2 SLOAD DUP2 MSTORE SWAP1 PUSH1 0x1 ADD SWAP1 PUSH1 0x20 ADD DUP1 DUP4 GT PUSH2 0x1A62 JUMPI DUP3 SWAP1 SUB PUSH1 0x1F AND DUP3 ADD SWAP2 JUMPDEST POP POP POP POP POP SWAP1 DUP1 PUSH1 0x4 ADD DUP1 SLOAD PUSH2 0x1A94 SWAP1 PUSH2 0x2508 JUMP JUMPDEST DUP1 PUSH1 0x1F ADD PUSH1 0x20 DUP1 SWAP2 DIV MUL PUSH1 0x20 ADD PUSH1 0x40 MLOAD SWAP1 DUP2 ADD PUSH1 0x40 MSTORE DUP1 SWAP3 SWAP2 SWAP1 DUP2 DUP2 MSTORE PUSH1 0x20 ADD DUP3 DUP1 SLOAD PUSH2 0x1AC0 SWAP1 PUSH2 0x2508 JUMP JUMPDEST DUP1 ISZERO PUSH2 0x1B0D JUMPI DUP1 PUSH1 0x1F LT PUSH2 0x1AE2 JUMPI PUSH2 0x100 DUP1 DUP4 SLOAD DIV MUL DUP4 MSTORE SWAP2 PUSH1 0x20 ADD SWAP2 PUSH2 0x1B0D JUMP JUMPDEST DUP3 ADD SWAP2 SWAP1 PUSH1 0x0 MSTORE PUSH1 0x20 PUSH1 0x0 KECCAK256 SWAP1 JUMPDEST DUP2 SLOAD DUP2 MSTORE SWAP1 PUSH1 0x1 ADD SWAP1 PUSH1 0x20 ADD DUP1 DUP4 GT PUSH2 0x1AF0 JUMPI DUP3 SWAP1 SUB PUSH1 0x1F AND DUP3 ADD SWAP2 JUMPDEST POP POP POP POP POP SWAP1 DUP1 PUSH1 0x5 ADD DUP1 SLOAD PUSH2 0x1B22 SWAP1 PUSH2 0x2508 JUMP JUMPDEST DUP1 PUSH1 0x1F ADD PUSH1 0x20 DUP1 SWAP2 DIV MUL PUSH1 0x20 ADD PUSH1 0x40 MLOAD SWAP1 DUP2 ADD PUSH1 0x40 MSTORE DUP1 SWAP3 SWAP2 SWAP1 DUP2 DUP2 MSTORE PUSH1 0x20 ADD DUP3 DUP1 SLOAD PUSH2 0x1B4E SWAP1 PUSH2 0x2508 JUMP JUMPDEST DUP1 ISZERO PUSH2 0x1B9B JUMPI DUP1 PUSH1 0x1F LT PUSH2 0x1B70 JUMPI PUSH2 0x100 DUP1 DUP4 SLOAD DIV MUL DUP4 MSTORE SWAP2 PUSH1 0x20 ADD SWAP2 PUSH2 0x1B9B JUMP JUMPDEST DUP3 ADD SWAP2 SWAP1 PUSH1 0x0 MSTORE PUSH1 0x20 PUSH1 0x0 KECCAK256 SWAP1 JUMPDEST DUP2 SLOAD DUP2 MSTORE SWAP1 PUSH1 0x1 ADD SWAP1 PUSH1 0x20 ADD DUP1 DUP4 GT PUSH2 0x1B7E JUMPI DUP3 SWAP1 SUB PUSH1 0x1F AND DUP3 ADD SWAP2 JUMPDEST POP POP POP POP PUSH1 0x6 DUP4 ADD SLOAD PUSH1 0x7 DUP5 ADD SLOAD PUSH1 0x8 SWAP1 SWAP5 ADD SLOAD SWAP3 SWAP4 PUSH1 0xFF SWAP1 SWAP2 AND SWAP3 SWAP1 SWAP2 POP DUP10 JUMP JUMPDEST PUSH1 0x0 DUP1 JUMPDEST PUSH1 0x8 SLOAD DUP2 LT ISZERO PUSH2 0x1C0A JUMPI DUP3 PUSH1 0x8 DUP3 DUP2 SLOAD DUP2 LT PUSH2 0x1BDF JUMPI PUSH2 0x1BDF PUSH2 0x269C JUMP JUMPDEST SWAP1 PUSH1 0x0 MSTORE PUSH1 0x20 PUSH1 0x0 KECCAK256 ADD SLOAD SUB PUSH2 0x1BF8 JUMPI POP PUSH1 0x1 SWAP3 SWAP2 POP POP JUMP JUMPDEST DUP1 PUSH2 0x1C02 DUP2 PUSH2 0x26B2 JUMP JUMPDEST SWAP2 POP POP PUSH2 0x1BC1 JUMP JUMPDEST POP PUSH1 0x0 SWAP3 SWAP2 POP POP JUMP JUMPDEST PUSH2 0x1C56 DUP2 PUSH1 0x40 MLOAD PUSH1 0x24 ADD PUSH2 0x1C27 SWAP2 SWAP1 PUSH2 0x2088 JUMP JUMPDEST PUSH1 0x40 DUP1 MLOAD PUSH1 0x1F NOT DUP2 DUP5 SUB ADD DUP2 MSTORE SWAP2 SWAP1 MSTORE PUSH1 0x20 DUP2 ADD DUP1 MLOAD PUSH1 0x1 PUSH1 0x1 PUSH1 0xE0 SHL SUB AND PUSH4 0x104C13EB PUSH1 0xE2 SHL OR SWAP1 MSTORE PUSH2 0x1D40 JUMP JUMPDEST POP JUMP JUMPDEST PUSH1 0x0 DUP1 JUMPDEST PUSH1 0x9 SLOAD DUP2 LT ISZERO PUSH2 0x1C0A JUMPI DUP3 PUSH1 0x9 DUP3 DUP2 SLOAD DUP2 LT PUSH2 0x1C7B JUMPI PUSH2 0x1C7B PUSH2 0x269C JUMP JUMPDEST SWAP1 PUSH1 0x0 MSTORE PUSH1 0x20 PUSH1 0x0 KECCAK256 ADD SLOAD SUB PUSH2 0x1C94 JUMPI POP PUSH1 0x1 SWAP3 SWAP2 POP POP JUMP JUMPDEST DUP1 PUSH2 0x1C9E DUP2 PUSH2 0x26B2 JUMP JUMPDEST SWAP2 POP POP PUSH2 0x1C5D JUMP JUMPDEST PUSH1 0x0 DUP1 JUMPDEST PUSH1 0xB SLOAD DUP2 LT ISZERO PUSH2 0x1C0A JUMPI DUP3 PUSH1 0xB DUP3 DUP2 SLOAD DUP2 LT PUSH2 0x1CC8 JUMPI PUSH2 0x1CC8 PUSH2 0x269C JUMP JUMPDEST SWAP1 PUSH1 0x0 MSTORE PUSH1 0x20 PUSH1 0x0 KECCAK256 ADD SLOAD SUB PUSH2 0x1CE1 JUMPI POP PUSH1 0x1 SWAP3 SWAP2 POP POP JUMP JUMPDEST DUP1 PUSH2 0x1CEB DUP2 PUSH2 0x26B2 JUMP JUMPDEST SWAP2 POP POP PUSH2 0x1CAA JUMP JUMPDEST PUSH1 0x0 DUP1 JUMPDEST PUSH1 0xA SLOAD DUP2 LT ISZERO PUSH2 0x1C0A JUMPI DUP3 PUSH1 0xA DUP3 DUP2 SLOAD DUP2 LT PUSH2 0x1D15 JUMPI PUSH2 0x1D15 PUSH2 0x269C JUMP JUMPDEST SWAP1 PUSH1 0x0 MSTORE PUSH1 0x20 PUSH1 0x0 KECCAK256 ADD SLOAD SUB PUSH2 0x1D2E JUMPI POP PUSH1 0x1 SWAP3 SWAP2 POP POP JUMP JUMPDEST DUP1 PUSH2 0x1D38 DUP2 PUSH2 0x26B2 JUMP JUMPDEST SWAP2 POP POP PUSH2 0x1CF7 JUMP JUMPDEST DUP1 MLOAD PUSH11 0x636F6E736F6C652E6C6F67 PUSH1 0x20 DUP4 ADD PUSH1 0x0 DUP1 DUP5 DUP4 DUP6 GAS STATICCALL POP POP POP POP POP JUMP JUMPDEST DUP3 DUP1 SLOAD DUP3 DUP3 SSTORE SWAP1 PUSH1 0x0 MSTORE PUSH1 0x20 PUSH1 0x0 KECCAK256 SWAP1 DUP2 ADD SWAP3 DUP3 ISZERO PUSH2 0x1D9C JUMPI SWAP2 PUSH1 0x20 MUL DUP3 ADD JUMPDEST DUP3 DUP2 GT ISZERO PUSH2 0x1D9C JUMPI DUP3 MLOAD DUP3 SSTORE SWAP2 PUSH1 0x20 ADD SWAP2 SWAP1 PUSH1 0x1 ADD SWAP1 PUSH2 0x1D81 JUMP JUMPDEST POP PUSH2 0x1DA8 SWAP3 SWAP2 POP PUSH2 0x1DAC JUMP JUMPDEST POP SWAP1 JUMP JUMPDEST JUMPDEST DUP1 DUP3 GT ISZERO PUSH2 0x1DA8 JUMPI PUSH1 0x0 DUP2 SSTORE PUSH1 0x1 ADD PUSH2 0x1DAD JUMP JUMPDEST PUSH4 0x4E487B71 PUSH1 0xE0 SHL PUSH1 0x0 MSTORE PUSH1 0x41 PUSH1 0x4 MSTORE PUSH1 0x24 PUSH1 0x0 REVERT JUMPDEST PUSH1 0x40 MLOAD PUSH1 0x1F DUP3 ADD PUSH1 0x1F NOT AND DUP2 ADD PUSH8 0xFFFFFFFFFFFFFFFF DUP2 GT DUP3 DUP3 LT OR ISZERO PUSH2 0x1E00 JUMPI PUSH2 0x1E00 PUSH2 0x1DC1 JUMP JUMPDEST PUSH1 0x40 MSTORE SWAP2 SWAP1 POP JUMP JUMPDEST PUSH1 0x0 DUP3 PUSH1 0x1F DUP4 ADD SLT PUSH2 0x1E19 JUMPI PUSH1 0x0 DUP1 REVERT JUMPDEST DUP2 CALLDATALOAD PUSH8 0xFFFFFFFFFFFFFFFF DUP2 GT ISZERO PUSH2 0x1E33 JUMPI PUSH2 0x1E33 PUSH2 0x1DC1 JUMP JUMPDEST PUSH2 0x1E46 PUSH1 0x1F DUP3 ADD PUSH1 0x1F NOT AND PUSH1 0x20 ADD PUSH2 0x1DD7 JUMP JUMPDEST DUP2 DUP2 MSTORE DUP5 PUSH1 0x20 DUP4 DUP7 ADD ADD GT ISZERO PUSH2 0x1E5B JUMPI PUSH1 0x0 DUP1 REVERT JUMPDEST DUP2 PUSH1 0x20 DUP6 ADD PUSH1 0x20 DUP4 ADD CALLDATACOPY PUSH1 0x0 SWAP2 DUP2 ADD PUSH1 0x20 ADD SWAP2 SWAP1 SWAP2 MSTORE SWAP4 SWAP3 POP POP POP JUMP JUMPDEST PUSH1 0x0 DUP1 PUSH1 0x40 DUP4 DUP6 SUB SLT ISZERO PUSH2 0x1E8B JUMPI PUSH1 0x0 DUP1 REVERT JUMPDEST DUP3 CALLDATALOAD PUSH8 0xFFFFFFFFFFFFFFFF DUP2 GT ISZERO PUSH2 0x1EA2 JUMPI PUSH1 0x0 DUP1 REVERT JUMPDEST PUSH2 0x1EAE DUP6 DUP3 DUP7 ADD PUSH2 0x1E08 JUMP JUMPDEST SWAP6 PUSH1 0x20 SWAP5 SWAP1 SWAP5 ADD CALLDATALOAD SWAP5 POP POP POP POP JUMP JUMPDEST PUSH1 0x0 DUP1 PUSH1 0x0 DUP1 PUSH1 0x80 DUP6 DUP8 SUB SLT ISZERO PUSH2 0x1ED3 JUMPI PUSH1 0x0 DUP1 REVERT JUMPDEST DUP5 CALLDATALOAD SWAP4 POP PUSH1 0x20 DUP6 ADD CALLDATALOAD PUSH8 0xFFFFFFFFFFFFFFFF DUP1 DUP3 GT ISZERO PUSH2 0x1EF2 JUMPI PUSH1 0x0 DUP1 REVERT JUMPDEST PUSH2 0x1EFE DUP9 DUP4 DUP10 ADD PUSH2 0x1E08 JUMP JUMPDEST SWAP5 POP PUSH1 0x40 DUP8 ADD CALLDATALOAD SWAP2 POP DUP1 DUP3 GT ISZERO PUSH2 0x1F14 JUMPI PUSH1 0x0 DUP1 REVERT JUMPDEST PUSH2 0x1F20 DUP9 DUP4 DUP10 ADD PUSH2 0x1E08 JUMP JUMPDEST SWAP4 POP PUSH1 0x60 DUP8 ADD CALLDATALOAD SWAP2 POP DUP1 DUP3 GT ISZERO PUSH2 0x1F36 JUMPI PUSH1 0x0 DUP1 REVERT JUMPDEST POP PUSH2 0x1F43 DUP8 DUP3 DUP9 ADD PUSH2 0x1E08 JUMP JUMPDEST SWAP2 POP POP SWAP3 SWAP6 SWAP2 SWAP5 POP SWAP3 POP JUMP JUMPDEST PUSH1 0x0 PUSH1 0x20 DUP3 DUP5 SUB SLT ISZERO PUSH2 0x1F61 JUMPI PUSH1 0x0 DUP1 REVERT JUMPDEST DUP2 CALLDATALOAD PUSH8 0xFFFFFFFFFFFFFFFF DUP2 GT ISZERO PUSH2 0x1F78 JUMPI PUSH1 0x0 DUP1 REVERT JUMPDEST PUSH2 0x1F84 DUP5 DUP3 DUP6 ADD PUSH2 0x1E08 JUMP JUMPDEST SWAP5 SWAP4 POP POP POP POP JUMP JUMPDEST PUSH1 0x20 DUP1 DUP3 MSTORE DUP3 MLOAD DUP3 DUP3 ADD DUP2 SWAP1 MSTORE PUSH1 0x0 SWAP2 SWAP1 PUSH1 0x40 SWAP1 DUP2 DUP6 ADD SWAP1 DUP7 DUP5 ADD DUP6 JUMPDEST DUP3 DUP2 LT ISZERO PUSH2 0x1FCE JUMPI DUP2 MLOAD DUP1 MLOAD DUP6 MSTORE DUP7 ADD MLOAD DUP7 DUP6 ADD MSTORE SWAP3 DUP5 ADD SWAP3 SWAP1 DUP6 ADD SWAP1 PUSH1 0x1 ADD PUSH2 0x1FA9 JUMP JUMPDEST POP SWAP2 SWAP8 SWAP7 POP POP POP POP POP POP POP JUMP JUMPDEST PUSH1 0x0 PUSH1 0x20 DUP3 DUP5 SUB SLT ISZERO PUSH2 0x1FED JUMPI PUSH1 0x0 DUP1 REVERT JUMPDEST POP CALLDATALOAD SWAP2 SWAP1 POP JUMP JUMPDEST PUSH1 0x20 DUP1 DUP3 MSTORE DUP3 MLOAD DUP3 DUP3 ADD DUP2 SWAP1 MSTORE PUSH1 0x0 SWAP2 SWAP1 DUP5 DUP3 ADD SWAP1 PUSH1 0x40 DUP6 ADD SWAP1 DUP5 JUMPDEST DUP2 DUP2 LT ISZERO PUSH2 0x202C JUMPI DUP4 MLOAD DUP4 MSTORE SWAP3 DUP5 ADD SWAP3 SWAP2 DUP5 ADD SWAP2 PUSH1 0x1 ADD PUSH2 0x2010 JUMP JUMPDEST POP SWAP1 SWAP7 SWAP6 POP POP POP POP POP POP JUMP JUMPDEST PUSH1 0x0 JUMPDEST DUP4 DUP2 LT ISZERO PUSH2 0x2053 JUMPI DUP2 DUP2 ADD MLOAD DUP4 DUP3 ADD MSTORE PUSH1 0x20 ADD PUSH2 0x203B JUMP JUMPDEST POP POP PUSH1 0x0 SWAP2 ADD MSTORE JUMP JUMPDEST PUSH1 0x0 DUP2 MLOAD DUP1 DUP5 MSTORE PUSH2 0x2074 DUP2 PUSH1 0x20 DUP7 ADD PUSH1 0x20 DUP7 ADD PUSH2 0x2038 JUMP JUMPDEST PUSH1 0x1F ADD PUSH1 0x1F NOT AND SWAP3 SWAP1 SWAP3 ADD PUSH1 0x20 ADD SWAP3 SWAP2 POP POP JUMP JUMPDEST PUSH1 0x20 DUP2 MSTORE PUSH1 0x0 PUSH2 0x209B PUSH1 0x20 DUP4 ADD DUP5 PUSH2 0x205C JUMP JUMPDEST SWAP4 SWAP3 POP POP POP JUMP JUMPDEST PUSH1 0x0 DUP1 PUSH1 0x0 PUSH1 0x60 DUP5 DUP7 SUB SLT ISZERO PUSH2 0x20B7 JUMPI PUSH1 0x0 DUP1 REVERT JUMPDEST DUP4 CALLDATALOAD SWAP3 POP PUSH1 0x20 DUP5 ADD CALLDATALOAD SWAP2 POP PUSH1 0x40 DUP5 ADD CALLDATALOAD PUSH8 0xFFFFFFFFFFFFFFFF DUP2 GT ISZERO PUSH2 0x20DC JUMPI PUSH1 0x0 DUP1 REVERT JUMPDEST PUSH2 0x20E8 DUP7 DUP3 DUP8 ADD PUSH2 0x1E08 JUMP JUMPDEST SWAP2 POP POP SWAP3 POP SWAP3 POP SWAP3 JUMP JUMPDEST DUP5 DUP2 MSTORE PUSH1 0x80 PUSH1 0x20 DUP3 ADD MSTORE PUSH1 0x0 PUSH2 0x210B PUSH1 0x80 DUP4 ADD DUP7 PUSH2 0x205C JUMP JUMPDEST DUP3 DUP2 SUB PUSH1 0x40 DUP5 ADD MSTORE PUSH2 0x211D DUP2 DUP7 PUSH2 0x205C JUMP JUMPDEST SWAP1 POP DUP3 DUP2 SUB PUSH1 0x60 DUP5 ADD MSTORE PUSH2 0x2131 DUP2 DUP6 PUSH2 0x205C JUMP JUMPDEST SWAP8 SWAP7 POP POP POP POP POP POP POP JUMP JUMPDEST DUP6 DUP2 MSTORE DUP5 PUSH1 0x20 DUP3 ADD MSTORE PUSH1 0xA0 PUSH1 0x40 DUP3 ADD MSTORE PUSH1 0x0 PUSH2 0x215B PUSH1 0xA0 DUP4 ADD DUP7 PUSH2 0x205C JUMP JUMPDEST DUP5 PUSH1 0x60 DUP5 ADD MSTORE DUP3 DUP2 SUB PUSH1 0x80 DUP5 ADD MSTORE PUSH2 0x2173 DUP2 DUP6 PUSH2 0x205C JUMP JUMPDEST SWAP9 SWAP8 POP POP POP POP POP POP POP POP JUMP JUMPDEST PUSH1 0x0 DUP1 PUSH1 0x0 DUP1 PUSH1 0x0 PUSH1 0xA0 DUP7 DUP9 SUB SLT ISZERO PUSH2 0x2197 JUMPI PUSH1 0x0 DUP1 REVERT JUMPDEST DUP6 CALLDATALOAD SWAP5 POP PUSH1 0x20 DUP7 ADD CALLDATALOAD SWAP4 POP PUSH1 0x40 DUP7 ADD CALLDATALOAD PUSH8 0xFFFFFFFFFFFFFFFF DUP1 DUP3 GT ISZERO PUSH2 0x21BD JUMPI PUSH1 0x0 DUP1 REVERT JUMPDEST PUSH2 0x21C9 DUP10 DUP4 DUP11 ADD PUSH2 0x1E08 JUMP JUMPDEST SWAP5 POP PUSH1 0x60 DUP9 ADD CALLDATALOAD SWAP4 POP PUSH1 0x80 DUP9 ADD CALLDATALOAD SWAP2 POP DUP1 DUP3 GT ISZERO PUSH2 0x21E6 JUMPI PUSH1 0x0 DUP1 REVERT JUMPDEST POP PUSH2 0x21F3 DUP9 DUP3 DUP10 ADD PUSH2 0x1E08 JUMP JUMPDEST SWAP2 POP POP SWAP3 SWAP6 POP SWAP3 SWAP6 SWAP1 SWAP4 POP JUMP JUMPDEST PUSH1 0x0 DUP1 PUSH1 0x40 DUP4 DUP6 SUB SLT ISZERO PUSH2 0x2213 JUMPI PUSH1 0x0 DUP1 REVERT JUMPDEST POP POP DUP1 CALLDATALOAD SWAP3 PUSH1 0x20 SWAP1 SWAP2 ADD CALLDATALOAD SWAP2 POP JUMP JUMPDEST PUSH1 0x0 PUSH2 0x180 DUP15 DUP4 MSTORE DUP14 PUSH1 0x20 DUP5 ADD MSTORE DUP13 PUSH1 0x40 DUP5 ADD MSTORE DUP1 PUSH1 0x60 DUP5 ADD MSTORE PUSH2 0x2248 DUP2 DUP5 ADD DUP14 PUSH2 0x205C JUMP JUMPDEST SWAP1 POP DUP11 PUSH1 0x80 DUP5 ADD MSTORE DUP3 DUP2 SUB PUSH1 0xA0 DUP5 ADD MSTORE PUSH2 0x2262 DUP2 DUP12 PUSH2 0x205C JUMP JUMPDEST SWAP1 POP DUP3 DUP2 SUB PUSH1 0xC0 DUP5 ADD MSTORE PUSH2 0x2276 DUP2 DUP11 PUSH2 0x205C JUMP JUMPDEST SWAP1 POP DUP3 DUP2 SUB PUSH1 0xE0 DUP5 ADD MSTORE PUSH2 0x228A DUP2 DUP10 PUSH2 0x205C JUMP JUMPDEST SWAP1 POP DUP3 DUP2 SUB PUSH2 0x100 DUP5 ADD MSTORE PUSH2 0x229F DUP2 DUP9 PUSH2 0x205C JUMP JUMPDEST PUSH2 0x120 DUP5 ADD SWAP7 SWAP1 SWAP7 MSTORE POP POP SWAP2 ISZERO ISZERO PUSH2 0x140 DUP4 ADD MSTORE PUSH2 0x160 SWAP1 SWAP2 ADD MSTORE SWAP10 SWAP9 POP POP POP POP POP POP POP POP POP JUMP JUMPDEST PUSH1 0x0 DUP3 PUSH1 0x1F DUP4 ADD SLT PUSH2 0x22D8 JUMPI PUSH1 0x0 DUP1 REVERT JUMPDEST DUP2 CALLDATALOAD PUSH1 0x20 PUSH8 0xFFFFFFFFFFFFFFFF DUP3 GT ISZERO PUSH2 0x22F4 JUMPI PUSH2 0x22F4 PUSH2 0x1DC1 JUMP JUMPDEST DUP2 PUSH1 0x5 SHL PUSH2 0x2303 DUP3 DUP3 ADD PUSH2 0x1DD7 JUMP JUMPDEST SWAP3 DUP4 MSTORE DUP5 DUP2 ADD DUP3 ADD SWAP3 DUP3 DUP2 ADD SWAP1 DUP8 DUP6 GT ISZERO PUSH2 0x231D JUMPI PUSH1 0x0 DUP1 REVERT JUMPDEST DUP4 DUP8 ADD SWAP3 POP JUMPDEST DUP5 DUP4 LT ISZERO PUSH2 0x2131 JUMPI DUP3 CALLDATALOAD DUP3 MSTORE SWAP2 DUP4 ADD SWAP2 SWAP1 DUP4 ADD SWAP1 PUSH2 0x2323 JUMP JUMPDEST PUSH1 0x0 DUP1 PUSH1 0x0 DUP1 PUSH1 0x0 DUP1 PUSH1 0x0 DUP1 PUSH1 0x0 PUSH2 0x120 DUP11 DUP13 SUB SLT ISZERO PUSH2 0x235B JUMPI PUSH1 0x0 DUP1 REVERT JUMPDEST DUP10 CALLDATALOAD SWAP9 POP PUSH1 0x20 DUP11 ADD CALLDATALOAD PUSH8 0xFFFFFFFFFFFFFFFF DUP1 DUP3 GT ISZERO PUSH2 0x237A JUMPI PUSH1 0x0 DUP1 REVERT JUMPDEST PUSH2 0x2386 DUP14 DUP4 DUP15 ADD PUSH2 0x22C7 JUMP JUMPDEST SWAP10 POP PUSH1 0x40 DUP13 ADD CALLDATALOAD SWAP9 POP PUSH1 0x60 DUP13 ADD CALLDATALOAD SWAP2 POP DUP1 DUP3 GT ISZERO PUSH2 0x23A3 JUMPI PUSH1 0x0 DUP1 REVERT JUMPDEST PUSH2 0x23AF DUP14 DUP4 DUP15 ADD PUSH2 0x1E08 JUMP JUMPDEST SWAP8 POP PUSH1 0x80 DUP13 ADD CALLDATALOAD SWAP7 POP PUSH1 0xA0 DUP13 ADD CALLDATALOAD SWAP2 POP DUP1 DUP3 GT ISZERO PUSH2 0x23CC JUMPI PUSH1 0x0 DUP1 REVERT JUMPDEST PUSH2 0x23D8 DUP14 DUP4 DUP15 ADD PUSH2 0x1E08 JUMP JUMPDEST SWAP6 POP PUSH1 0xC0 DUP13 ADD CALLDATALOAD SWAP2 POP DUP1 DUP3 GT ISZERO PUSH2 0x23EE JUMPI PUSH1 0x0 DUP1 REVERT JUMPDEST PUSH2 0x23FA DUP14 DUP4 DUP15 ADD PUSH2 0x1E08 JUMP JUMPDEST SWAP5 POP PUSH1 0xE0 DUP13 ADD CALLDATALOAD SWAP2 POP DUP1 DUP3 GT ISZERO PUSH2 0x2410 JUMPI PUSH1 0x0 DUP1 REVERT JUMPDEST PUSH2 0x241C DUP14 DUP4 DUP15 ADD PUSH2 0x1E08 JUMP JUMPDEST SWAP4 POP PUSH2 0x100 DUP13 ADD CALLDATALOAD SWAP2 POP DUP1 DUP3 GT ISZERO PUSH2 0x2433 JUMPI PUSH1 0x0 DUP1 REVERT JUMPDEST POP PUSH2 0x2440 DUP13 DUP3 DUP14 ADD PUSH2 0x1E08 JUMP JUMPDEST SWAP2 POP POP SWAP3 SWAP6 SWAP9 POP SWAP3 SWAP6 SWAP9 POP SWAP3 SWAP6 SWAP9 JUMP JUMPDEST PUSH1 0x0 DUP1 PUSH1 0x40 DUP4 DUP6 SUB SLT ISZERO PUSH2 0x2463 JUMPI PUSH1 0x0 DUP1 REVERT JUMPDEST DUP3 CALLDATALOAD SWAP2 POP PUSH1 0x20 DUP4 ADD CALLDATALOAD PUSH8 0xFFFFFFFFFFFFFFFF DUP2 GT ISZERO PUSH2 0x2481 JUMPI PUSH1 0x0 DUP1 REVERT JUMPDEST PUSH2 0x248D DUP6 DUP3 DUP7 ADD PUSH2 0x1E08 JUMP JUMPDEST SWAP2 POP POP SWAP3 POP SWAP3 SWAP1 POP JUMP JUMPDEST PUSH1 0x0 PUSH2 0x120 DUP12 DUP4 MSTORE DUP11 PUSH1 0x20 DUP5 ADD MSTORE DUP10 PUSH1 0x40 DUP5 ADD MSTORE DUP1 PUSH1 0x60 DUP5 ADD MSTORE PUSH2 0x24BD DUP2 DUP5 ADD DUP11 PUSH2 0x205C JUMP JUMPDEST SWAP1 POP DUP3 DUP2 SUB PUSH1 0x80 DUP5 ADD MSTORE PUSH2 0x24D1 DUP2 DUP10 PUSH2 0x205C JUMP JUMPDEST SWAP1 POP DUP3 DUP2 SUB PUSH1 0xA0 DUP5 ADD MSTORE PUSH2 0x24E5 DUP2 DUP9 PUSH2 0x205C JUMP JUMPDEST SWAP6 ISZERO ISZERO PUSH1 0xC0 DUP5 ADD MSTORE POP POP PUSH1 0xE0 DUP2 ADD SWAP3 SWAP1 SWAP3 MSTORE PUSH2 0x100 SWAP1 SWAP2 ADD MSTORE SWAP7 SWAP6 POP POP POP POP POP POP JUMP JUMPDEST PUSH1 0x1 DUP2 DUP2 SHR SWAP1 DUP3 AND DUP1 PUSH2 0x251C JUMPI PUSH1 0x7F DUP3 AND SWAP2 POP JUMPDEST PUSH1 0x20 DUP3 LT DUP2 SUB PUSH2 0x253C JUMPI PUSH4 0x4E487B71 PUSH1 0xE0 SHL PUSH1 0x0 MSTORE PUSH1 0x22 PUSH1 0x4 MSTORE PUSH1 0x24 PUSH1 0x0 REVERT JUMPDEST POP SWAP2 SWAP1 POP JUMP JUMPDEST PUSH1 0x1F DUP3 GT ISZERO PUSH2 0x258C JUMPI PUSH1 0x0 DUP2 DUP2 MSTORE PUSH1 0x20 DUP2 KECCAK256 PUSH1 0x1F DUP6 ADD PUSH1 0x5 SHR DUP2 ADD PUSH1 0x20 DUP7 LT ISZERO PUSH2 0x2569 JUMPI POP DUP1 JUMPDEST PUSH1 0x1F DUP6 ADD PUSH1 0x5 SHR DUP3 ADD SWAP2 POP JUMPDEST DUP2 DUP2 LT ISZERO PUSH2 0x2588 JUMPI DUP3 DUP2 SSTORE PUSH1 0x1 ADD PUSH2 0x2575 JUMP JUMPDEST POP POP POP JUMPDEST POP POP POP JUMP JUMPDEST DUP2 MLOAD PUSH8 0xFFFFFFFFFFFFFFFF DUP2 GT ISZERO PUSH2 0x25AB JUMPI PUSH2 0x25AB PUSH2 0x1DC1 JUMP JUMPDEST PUSH2 0x25BF DUP2 PUSH2 0x25B9 DUP5 SLOAD PUSH2 0x2508 JUMP JUMPDEST DUP5 PUSH2 0x2542 JUMP JUMPDEST PUSH1 0x20 DUP1 PUSH1 0x1F DUP4 GT PUSH1 0x1 DUP2 EQ PUSH2 0x25F4 JUMPI PUSH1 0x0 DUP5 ISZERO PUSH2 0x25DC JUMPI POP DUP6 DUP4 ADD MLOAD JUMPDEST PUSH1 0x0 NOT PUSH1 0x3 DUP7 SWAP1 SHL SHR NOT AND PUSH1 0x1 DUP6 SWAP1 SHL OR DUP6 SSTORE PUSH2 0x2588 JUMP JUMPDEST PUSH1 0x0 DUP6 DUP2 MSTORE PUSH1 0x20 DUP2 KECCAK256 PUSH1 0x1F NOT DUP7 AND SWAP2 JUMPDEST DUP3 DUP2 LT ISZERO PUSH2 0x2623 JUMPI DUP9 DUP7 ADD MLOAD DUP3 SSTORE SWAP5 DUP5 ADD SWAP5 PUSH1 0x1 SWAP1 SWAP2 ADD SWAP1 DUP5 ADD PUSH2 0x2604 JUMP JUMPDEST POP DUP6 DUP3 LT ISZERO PUSH2 0x2641 JUMPI DUP8 DUP6 ADD MLOAD PUSH1 0x0 NOT PUSH1 0x3 DUP9 SWAP1 SHL PUSH1 0xF8 AND SHR NOT AND DUP2 SSTORE JUMPDEST POP POP POP POP POP PUSH1 0x1 SWAP1 DUP2 SHL ADD SWAP1 SSTORE POP JUMP JUMPDEST PUSH1 0x0 DUP3 MLOAD PUSH2 0x2663 DUP2 DUP5 PUSH1 0x20 DUP8 ADD PUSH2 0x2038 JUMP JUMPDEST SWAP2 SWAP1 SWAP2 ADD SWAP3 SWAP2 POP POP JUMP JUMPDEST PUSH4 0x4E487B71 PUSH1 0xE0 SHL PUSH1 0x0 MSTORE PUSH1 0x11 PUSH1 0x4 MSTORE PUSH1 0x24 PUSH1 0x0 REVERT JUMPDEST DUP2 DUP2 SUB DUP2 DUP2 GT ISZERO PUSH2 0x2696 JUMPI PUSH2 0x2696 PUSH2 0x266D JUMP JUMPDEST SWAP3 SWAP2 POP POP JUMP JUMPDEST PUSH4 0x4E487B71 PUSH1 0xE0 SHL PUSH1 0x0 MSTORE PUSH1 0x32 PUSH1 0x4 MSTORE PUSH1 0x24 PUSH1 0x0 REVERT JUMPDEST PUSH1 0x0 PUSH1 0x1 DUP3 ADD PUSH2 0x26C4 JUMPI PUSH2 0x26C4 PUSH2 0x266D JUMP JUMPDEST POP PUSH1 0x1 ADD SWAP1 JUMP JUMPDEST DUP1 DUP3 ADD DUP1 DUP3 GT ISZERO PUSH2 0x2696 JUMPI PUSH2 0x2696 PUSH2 0x266D JUMP JUMPDEST PUSH1 0x0 DUP1 DUP4 SLOAD PUSH2 0x26EC DUP2 PUSH2 0x2508 JUMP JUMPDEST PUSH1 0x1 DUP3 DUP2 AND DUP1 ISZERO PUSH2 0x2704 JUMPI PUSH1 0x1 DUP2 EQ PUSH2 0x2719 JUMPI PUSH2 0x2748 JUMP JUMPDEST PUSH1 0xFF NOT DUP5 AND DUP8 MSTORE DUP3 ISZERO ISZERO DUP4 MUL DUP8 ADD SWAP5 POP PUSH2 0x2748 JUMP JUMPDEST DUP8 PUSH1 0x0 MSTORE PUSH1 0x20 DUP1 PUSH1 0x0 KECCAK256 PUSH1 0x0 JUMPDEST DUP6 DUP2 LT ISZERO PUSH2 0x273F JUMPI DUP2 SLOAD DUP11 DUP3 ADD MSTORE SWAP1 DUP5 ADD SWAP1 DUP3 ADD PUSH2 0x2726 JUMP JUMPDEST POP POP POP DUP3 DUP8 ADD SWAP5 POP JUMPDEST POP SWAP3 SWAP7 SWAP6 POP POP POP POP POP POP JUMP INVALID LOG2 PUSH5 0x6970667358 0x22 SLT KECCAK256 LOG1 MULMOD PUSH21 0xC4B833F55EAED1466791B66B995336D2AA9CD45CD5 0xC9 0xE9 NUMBER 0x22 CHAINID 0x4C LOG3 0xCE PUSH5 0x736F6C6343 STOP ADDMOD GT STOP CALLER "},"methodIdentifiers":{"BatchIDToProductIDMapping(uint256,uint256)":"90973cce","BatchIDs(uint256)":"8bd42880","BatchMapping(uint256)":"bf801df1","BatchTemplateIDs(uint256)":"4ca20f34","BatchTemplateMAP(uint256)":"7ae4ee04","CustomerData(string,uint256)":"21f29391","DistributorIDToRetailerID(string,uint256)":"588cd0ec","ProductIDs(uint256)":"a78317f8","ProductMapping(uint256)":"eac0e977","ProductTemplateIDs(uint256)":"3ab95f30","ProductTemplateMAP(uint256)":"71d1dc0c","RetailerIDToProductID(string)":"3c743e29","addBatchTemplate(uint256,uint256,string,uint256,string)":"8e5452b8","addProductTemplate(uint256,string,string,string)":"278338e8","batchProduced(uint256,uint256[],uint256,string,uint256,string,string,string,string)":"c492384f","distributorScansBatch(uint256,string)":"d976f930","distributorSellToRetailer(uint256,uint256,string)":"636955b6","getAllBatchIDs()":"793560dd","getAllBatchTemplateIDs()":"4c27729c","getAllProductIDs()":"8c4c42cd","getAllProductTemplateIDs()":"3b7d255c","getAllProductsBought(string)":"284328d0","getProductIdsForaBatch(uint256)":"392a70a6","retailerScansProduct(uint256,string)":"ea417247","retailerSellToCustomer(uint256,uint256,string)":"d16ad4e0"}}}}}