{"contracts/Supplychain.sol":{"Supplychain":{"abi":[{"inputs":[{"internalType":"uint256","name":"","type":"uint256"},{"internalType":"uint256","name":"","type":"uint256"}],"name":"BatchIDToProductIDMapping","outputs":[{"internalType":"uint256","name":"","type":"uint256"}],"stateMutability":"view","type":"function"},{"inputs":[{"internalType":"uint256","name":"","type":"uint256"}],"name":"BatchIDs","outputs":[{"internalType":"uint256","name":"","type":"uint256"}],"stateMutability":"view","type":"function"},{"inputs":[{"internalType":"uint256","name":"","type":"uint256"}],"name":"BatchMapping","outputs":[{"internalType":"uint256","name":"BatchID","type":"uint256"},{"internalType":"uint256","name":"BatchSize","type":"uint256"},{"internalType":"uint256","name":"AmountSold","type":"uint256"},{"internalType":"string","name":"BatchDescription","type":"string"},{"internalType":"uint256","name":"ProductTemplateID","type":"uint256"},{"internalType":"string","name":"FactoryID","type":"string"},{"internalType":"string","name":"DistributorID","type":"string"},{"internalType":"string","name":"RetailerID","type":"string"},{"internalType":"string","name":"FactoryLocation","type":"string"},{"internalType":"string","name":"DateOfProduction","type":"string"},{"internalType":"uint256","name":"State","type":"uint256"},{"internalType":"bool","name":"FactoryScanned","type":"bool"},{"internalType":"bool","name":"DistributorScanned","type":"bool"},{"internalType":"bool","name":"RetailerScanned","type":"bool"}],"stateMutability":"view","type":"function"},{"inputs":[{"internalType":"uint256","name":"","type":"uint256"}],"name":"BatchTemplateIDs","outputs":[{"internalType":"uint256","name":"","type":"uint256"}],"stateMutability":"view","type":"function"},{"inputs":[{"internalType":"uint256","name":"","type":"uint256"}],"name":"BatchTemplateMAP","outputs":[{"internalType":"uint256","name":"BatchTemplateID","type":"uint256"},{"internalType":"uint256","name":"ProductTemplateID","type":"uint256"},{"internalType":"string","name":"Description","type":"string"},{"internalType":"uint256","name":"BatchSize","type":"uint256"},{"internalType":"string","name":"FactoryID","type":"string"}],"stateMutability":"view","type":"function"},{"inputs":[{"internalType":"string","name":"","type":"string"},{"internalType":"uint256","name":"","type":"uint256"}],"name":"CustomerData","outputs":[{"internalType":"uint256","name":"BatchID","type":"uint256"},{"internalType":"uint256","name":"ProductID","type":"uint256"}],"stateMutability":"view","type":"function"},{"inputs":[{"internalType":"uint256","name":"","type":"uint256"}],"name":"ProductIDs","outputs":[{"internalType":"uint256","name":"","type":"uint256"}],"stateMutability":"view","type":"function"},{"inputs":[{"internalType":"uint256","name":"","type":"uint256"}],"name":"ProductMapping","outputs":[{"internalType":"uint256","name":"ProductID","type":"uint256"},{"internalType":"uint256","name":"BatchID","type":"uint256"},{"internalType":"uint256","name":"ProductTemplateID","type":"uint256"},{"internalType":"string","name":"DOM","type":"string"},{"internalType":"string","name":"OwnerID","type":"string"},{"internalType":"uint256","name":"DateWhenSold","type":"uint256"}],"stateMutability":"view","type":"function"},{"inputs":[{"internalType":"uint256","name":"","type":"uint256"}],"name":"ProductTemplateIDs","outputs":[{"internalType":"uint256","name":"","type":"uint256"}],"stateMutability":"view","type":"function"},{"inputs":[{"internalType":"uint256","name":"","type":"uint256"}],"name":"ProductTemplateMAP","outputs":[{"internalType":"uint256","name":"ProductTemplateID","type":"uint256"},{"internalType":"string","name":"Name","type":"string"},{"internalType":"string","name":"Description","type":"string"},{"internalType":"string","name":"FactoryID","type":"string"}],"stateMutability":"view","type":"function"},{"inputs":[{"internalType":"uint256","name":"_batchTemplateID","type":"uint256"},{"internalType":"uint256","name":"_productTemplateID","type":"uint256"},{"internalType":"string","name":"_description","type":"string"},{"internalType":"uint256","name":"_batchSize","type":"uint256"},{"internalType":"string","name":"_factoryID","type":"string"}],"name":"addBatchTemplate","outputs":[],"stateMutability":"nonpayable","type":"function"},{"inputs":[{"internalType":"uint256","name":"_productTemplateID","type":"uint256"},{"internalType":"string","name":"_name","type":"string"},{"internalType":"string","name":"_description","type":"string"},{"internalType":"string","name":"_factoryID","type":"string"}],"name":"addProductTemplate","outputs":[],"stateMutability":"nonpayable","type":"function"},{"inputs":[{"internalType":"uint256","name":"batchID","type":"uint256"},{"internalType":"uint256[]","name":"productIDs","type":"uint256[]"},{"internalType":"uint256","name":"batchSize","type":"uint256"},{"internalType":"string","name":"batchDescription","type":"string"},{"internalType":"uint256","name":"productTemplateID","type":"uint256"},{"internalType":"string","name":"factory","type":"string"},{"internalType":"string","name":"distributor","type":"string"},{"internalType":"string","name":"factoryLocation","type":"string"},{"internalType":"string","name":"dateOfProduction","type":"string"}],"name":"batchProduced","outputs":[],"stateMutability":"nonpayable","type":"function"},{"inputs":[{"internalType":"uint256","name":"batchID","type":"uint256"},{"internalType":"string","name":"_distributorID","type":"string"}],"name":"distributorScansBatch","outputs":[],"stateMutability":"nonpayable","type":"function"},{"inputs":[{"internalType":"uint256","name":"batchID","type":"uint256"},{"internalType":"string","name":"retailerID","type":"string"}],"name":"distributorSellToRetailer","outputs":[],"stateMutability":"nonpayable","type":"function"},{"inputs":[{"internalType":"uint256","name":"batchID","type":"uint256"},{"internalType":"string","name":"_factoryID","type":"string"}],"name":"factoryScansBatch","outputs":[],"stateMutability":"nonpayable","type":"function"},{"inputs":[],"name":"getAllBatchIDs","outputs":[{"internalType":"uint256[]","name":"","type":"uint256[]"}],"stateMutability":"view","type":"function"},{"inputs":[],"name":"getAllBatchTemplateIDs","outputs":[{"internalType":"uint256[]","name":"","type":"uint256[]"}],"stateMutability":"view","type":"function"},{"inputs":[],"name":"getAllProductIDs","outputs":[{"internalType":"uint256[]","name":"","type":"uint256[]"}],"stateMutability":"view","type":"function"},{"inputs":[],"name":"getAllProductTemplateIDs","outputs":[{"internalType":"uint256[]","name":"","type":"uint256[]"}],"stateMutability":"view","type":"function"},{"inputs":[{"internalType":"string","name":"customerID","type":"string"}],"name":"getAllProductsBought","outputs":[{"components":[{"internalType":"uint256","name":"BatchID","type":"uint256"},{"internalType":"uint256","name":"ProductID","type":"uint256"}],"internalType":"struct Supplychain.Customer[]","name":"","type":"tuple[]"}],"stateMutability":"view","type":"function"},{"inputs":[{"internalType":"uint256","name":"batchID","type":"uint256"}],"name":"getProductIdsForaBatch","outputs":[{"internalType":"uint256[]","name":"","type":"uint256[]"}],"stateMutability":"view","type":"function"},{"inputs":[{"internalType":"uint256","name":"batchID","type":"uint256"},{"internalType":"string","name":"_retailerID","type":"string"}],"name":"retailerScansBatch","outputs":[],"stateMutability":"nonpayable","type":"function"},{"inputs":[{"internalType":"uint256","name":"batchID","type":"uint256"},{"internalType":"uint256","name":"productID","type":"uint256"},{"internalType":"string","name":"customerID","type":"string"}],"name":"retailerSellToCustomer","outputs":[],"stateMutability":"nonpayable","type":"function"}],"evm":{"bytecode":{"linkReferences":{},"object":"608060405234801561001057600080fd5b50612564806100206000396000f3fe608060405234801561001057600080fd5b50600436106101585760003560e01c80637fdd55f5116100c3578063bf801df11161007c578063bf801df1146102ec578063c492384f14610319578063d16ad4e01461032c578063d5932cc41461033f578063d976f93014610352578063eac0e9771461036557600080fd5b80637fdd55f5146102855780638bd42880146102985780638c4c42cd146102ab5780638e5452b8146102b357806390973cce146102c6578063a78317f8146102d957600080fd5b80634c27729c116101155780634c27729c146102085780634ca20f34146102105780635aaa718e1461022357806371d1dc0c14610236578063793560dd146102595780637ae4ee041461026157600080fd5b806321f293911461015d578063278338e81461018a578063284328d01461019f578063392a70a6146101bf5780633ab95f30146101df5780633b7d255c14610200575b600080fd5b61017061016b366004611c7d565b61038a565b604080519283526020830191909152015b60405180910390f35b61019d610198366004611cc2565b6103d5565b005b6101b26101ad366004611d54565b6104fa565b6040516101819190611d91565b6101d26101cd366004611de0565b61058b565b6040516101819190611df9565b6101f26101ed366004611de0565b6105ed565b604051908152602001610181565b6101d261060e565b6101d2610666565b6101f261021e366004611de0565b6106bc565b61019d610231366004611e3d565b6106cc565b610249610244366004611de0565b610701565b6040516101819493929190611ed4565b6101d26108c2565b61027461026f366004611de0565b610918565b604051610181959493929190611f1e565b61019d610293366004611e3d565b610a58565b6101f26102a6366004611de0565b610bb3565b6101d2610bc3565b61019d6102c1366004611f61565b610c19565b6101f26102d4366004611fe2565b610dc1565b6101f26102e7366004611de0565b610df2565b6102ff6102fa366004611de0565b610e02565b6040516101819e9d9c9b9a99989796959493929190612004565b61019d610327366004612146565b6111a7565b61019d61033a36600461225a565b611584565b61019d61034d366004611e3d565b611635565b61019d610360366004611e3d565b611784565b610378610373366004611de0565b6118e2565b604051610181969594939291906122aa565b815160208184018101805160058252928201918501919091209190528054829081106103b557600080fd5b600091825260209091206002909102018054600190910154909250905082565b6103de84611a29565b1561044c5760405162461bcd60e51b815260206004820152603360248201527f546869732050726f6475637454656d706c617465494420616c72656164792065604482015272786973747320696e207468652073797374656d60681b60648201526084015b60405180910390fd5b604080516080810182528581526020808201868152828401869052606083018590526000888152918290529290208151815591519091906001820190610492908261237e565b50604082015160028201906104a7908261237e565b50606082015160038201906104bc908261237e565b5050600680546001810182556000919091527ff652222313e28459528d920b65115c16c04f3efc82aaedc97be59f3f377c0d3f019490945550505050565b606060058260405161050c919061243e565b9081526020016040518091039020805480602002602001604051908101604052809291908181526020016000905b828210156105805783829060005260206000209060020201604051806040016040529081600082015481526020016001820154815250508152602001906001019061053a565b505050509050919050565b6000818152600460209081526040918290208054835181840281018401909452808452606093928301828280156105e157602002820191906000526020600020905b8154815260200190600101908083116105cd575b50505050509050919050565b600681815481106105fd57600080fd5b600091825260209091200154905081565b6060600680548060200260200160405190810160405280929190818152602001828054801561065c57602002820191906000526020600020905b815481526020019060010190808311610648575b5050505050905090565b6060600780548060200260200160405190810160405280929190818152602001828054801561065c5760200282019190600052602060002090815481526020019060010190808311610648575050505050905090565b600781815481106105fd57600080fd5b60008281526003602052604090206007016106e7828261237e565b505060009081526003602052604090206001600a90910155565b60006020819052908152604090208054600182018054919291610723906122f5565b80601f016020809104026020016040519081016040528092919081815260200182805461074f906122f5565b801561079c5780601f106107715761010080835404028352916020019161079c565b820191906000526020600020905b81548152906001019060200180831161077f57829003601f168201915b5050505050908060020180546107b1906122f5565b80601f01602080910402602001604051908101604052809291908181526020018280546107dd906122f5565b801561082a5780601f106107ff5761010080835404028352916020019161082a565b820191906000526020600020905b81548152906001019060200180831161080d57829003601f168201915b50505050509080600301805461083f906122f5565b80601f016020809104026020016040519081016040528092919081815260200182805461086b906122f5565b80156108b85780601f1061088d576101008083540402835291602001916108b8565b820191906000526020600020905b81548152906001019060200180831161089b57829003601f168201915b5050505050905084565b6060600980548060200260200160405190810160405280929190818152602001828054801561065c5760200282019190600052602060002090815481526020019060010190808311610648575050505050905090565b6001602081905260009182526040909120805491810154600282018054919291610941906122f5565b80601f016020809104026020016040519081016040528092919081815260200182805461096d906122f5565b80156109ba5780601f1061098f576101008083540402835291602001916109ba565b820191906000526020600020905b81548152906001019060200180831161099d57829003601f168201915b5050505050908060030154908060040180546109d5906122f5565b80601f0160208091040260200160405190810160405280929190818152602001828054610a01906122f5565b8015610a4e5780601f10610a2357610100808354040283529160200191610a4e565b820191906000526020600020905b815481529060010190602001808311610a3157829003601f168201915b5050505050905085565b6000828152600360205260409020600b015462010000900460ff1615610ad65760405162461bcd60e51b815260206004820152602d60248201527f5468697320626174636820697320616c7265616479207363616e6e656420627960448201526c103a3432903932ba30b4b632b960991b6064820152608401610443565b80604051602001610ae7919061243e565b60408051601f198184030181528282528051602091820120600086815260038352929092209192610b1c92600701910161245a565b6040516020818303038152906040528051906020012014610b905760405162461bcd60e51b815260206004820152602860248201527f54686973206261746368206973206e6f74206f776e65642062792074686973206044820152673932ba30b4b632b960c11b6064820152608401610443565b506000908152600360205260409020600b01805462ff0000191662010000179055565b600981815481106105fd57600080fd5b6060600880548060200260200160405190810160405280929190818152602001828054801561065c5760200282019190600052602060002090815481526020019060010190808311610648575050505050905090565b610c2285611a7f565b15610c895760405162461bcd60e51b815260206004820152603160248201527f5468697320426174636854656d706c617465494420616c72656164792065786960448201527073747320696e207468652073797374656d60781b6064820152608401610443565b610c9284611a29565b1515600114610d005760405162461bcd60e51b815260206004820152603460248201527f546869732050726f6475637454656d706c617465494420646f6573206e6f742060448201527365786973747320696e207468652073797374656d60601b6064820152608401610443565b6040518060a00160405280868152602001858152602001848152602001838152602001828152506001600087815260200190815260200160002060008201518160000155602082015181600101556040820151816002019081610d63919061237e565b506060820151600382015560808201516004820190610d82908261237e565b5050600780546001810182556000919091527fa66cc928b5edb82af9bd49922954155ab7b0942694bea4ce44661d9a8736c68801959095555050505050565b60046020528160005260406000208181548110610ddd57600080fd5b90600052602060002001600091509150505481565b600881815481106105fd57600080fd5b6003602052806000526040600020600091509050806000015490806001015490806002015490806003018054610e37906122f5565b80601f0160208091040260200160405190810160405280929190818152602001828054610e63906122f5565b8015610eb05780601f10610e8557610100808354040283529160200191610eb0565b820191906000526020600020905b815481529060010190602001808311610e9357829003601f168201915b505050505090806004015490806005018054610ecb906122f5565b80601f0160208091040260200160405190810160405280929190818152602001828054610ef7906122f5565b8015610f445780601f10610f1957610100808354040283529160200191610f44565b820191906000526020600020905b815481529060010190602001808311610f2757829003601f168201915b505050505090806006018054610f59906122f5565b80601f0160208091040260200160405190810160405280929190818152602001828054610f85906122f5565b8015610fd25780601f10610fa757610100808354040283529160200191610fd2565b820191906000526020600020905b815481529060010190602001808311610fb557829003601f168201915b505050505090806007018054610fe7906122f5565b80601f0160208091040260200160405190810160405280929190818152602001828054611013906122f5565b80156110605780601f1061103557610100808354040283529160200191611060565b820191906000526020600020905b81548152906001019060200180831161104357829003601f168201915b505050505090806008018054611075906122f5565b80601f01602080910402602001604051908101604052809291908181526020018280546110a1906122f5565b80156110ee5780601f106110c3576101008083540402835291602001916110ee565b820191906000526020600020905b8154815290600101906020018083116110d157829003601f168201915b505050505090806009018054611103906122f5565b80601f016020809104026020016040519081016040528092919081815260200182805461112f906122f5565b801561117c5780601f106111515761010080835404028352916020019161117c565b820191906000526020600020905b81548152906001019060200180831161115f57829003601f168201915b50505050600a830154600b9093015491929160ff80821692506101008204811691620100009004168e565b6111b089611acc565b156112095760405162461bcd60e51b8152602060048201526024808201527f4261746368494420616c72656164792065786973747320696e207468652073796044820152637374656d60e01b6064820152608401610443565b604080516101c0810182528a815260208082018a81526000838501818152606085018c8152608086018c905260a086018b905260c086018a90528651808601885283815260e0870152610100860189905261012086018890526101408601839052610160860183905261018086018390526101a086018390528f83526003948590529590912084518155915160018301555160028201559251919291908201906112b3908261237e565b506080820151600482015560a082015160058201906112d2908261237e565b5060c082015160068201906112e7908261237e565b5060e082015160078201906112fc908261237e565b506101008201516008820190611312908261237e565b506101208201516009820190611328908261237e565b50610140820151600a820155610160820151600b90910180546101808401516101a0909401511515620100000262ff0000199415156101000261ff00199415159490941661ffff1990921691909117929092179290921617905560098054600181019091557f6e1540171b6c0c960b71a7020d9f60077f6af931a8bbf590da0223dacf75c7af01899055600089815260046020908152604090912089516113d1928b0190611b66565b5060005b87811015611578576113ff8982815181106113f2576113f26124d0565b6020026020010151611b19565b1561145b5760405162461bcd60e51b815260206004820152602660248201527f50726f64756374494420616c72656164792065786973747320696e207468652060448201526573797374656d60d01b6064820152608401610443565b6040518060c001604052808a8381518110611478576114786124d0565b602002602001015181526020018b81526020018781526020018381526020016040518060200160405280600081525081526020016000815250600260008b84815181106114c7576114c76124d0565b602002602001015181526020019081526020016000206000820151816000015560208201518160010155604082015181600201556060820151816003019081611510919061237e565b5060808201516004820190611525908261237e565b5060a082015181600501559050506008898281518110611547576115476124d0565b6020908102919091018101518254600181018455600093845291909220015580611570816124fc565b9150506113d5565b50505050505050505050565b60008381526003602052604081206002018054600192906115a6908490612515565b909155505060008281526002602052604090206004016115c6828261237e565b50600082815260026020526040908190204260059182015590516115eb90839061243e565b908152604080519182900360209081018320838301909252948252818501938452805460018181018355600092835295909120915160029091029091019081559151919092015550565b6000828152600360205260409020600b015460ff16156116ac5760405162461bcd60e51b815260206004820152602c60248201527f5468697320626174636820697320616c7265616479207363616e6e656420627960448201526b2074686520666163746f727960a01b6064820152608401610443565b806040516020016116bd919061243e565b60408051601f1981840301815282825280516020918201206000868152600383529290922091926116f292600501910161245a565b60405160208183030381529060405280519060200120146117655760405162461bcd60e51b815260206004820152602760248201527f54686973206261746368206973206e6f74206f776e6564206279207468697320604482015266666163746f727960c81b6064820152608401610443565b506000908152600360205260409020600b01805460ff19166001179055565b6000828152600360205260409020600b0154610100900460ff16156118045760405162461bcd60e51b815260206004820152603060248201527f5468697320626174636820697320616c7265616479207363616e6e656420627960448201526f103a3432903234b9ba3934b13aba37b960811b6064820152608401610443565b80604051602001611815919061243e565b60408051601f19818403018152828252805160209182012060008681526003835292909220919261184a92600601910161245a565b60405160208183030381529060405280519060200120146118c15760405162461bcd60e51b815260206004820152602b60248201527f54686973206261746368206973206e6f74206f776e656420627920746869732060448201526a3234b9ba3934b13aba37b960a91b6064820152608401610443565b506000908152600360205260409020600b01805461ff001916610100179055565b600260208190526000918252604090912080546001820154928201546003830180549294939192611912906122f5565b80601f016020809104026020016040519081016040528092919081815260200182805461193e906122f5565b801561198b5780601f106119605761010080835404028352916020019161198b565b820191906000526020600020905b81548152906001019060200180831161196e57829003601f168201915b5050505050908060040180546119a0906122f5565b80601f01602080910402602001604051908101604052809291908181526020018280546119cc906122f5565b8015611a195780601f106119ee57610100808354040283529160200191611a19565b820191906000526020600020905b8154815290600101906020018083116119fc57829003601f168201915b5050505050908060050154905086565b6000805b600654811015611a76578260068281548110611a4b57611a4b6124d0565b906000526020600020015403611a645750600192915050565b80611a6e816124fc565b915050611a2d565b50600092915050565b6000805b600754811015611a76578260078281548110611aa157611aa16124d0565b906000526020600020015403611aba5750600192915050565b80611ac4816124fc565b915050611a83565b6000805b600954811015611a76578260098281548110611aee57611aee6124d0565b906000526020600020015403611b075750600192915050565b80611b11816124fc565b915050611ad0565b6000805b600854811015611a76578260088281548110611b3b57611b3b6124d0565b906000526020600020015403611b545750600192915050565b80611b5e816124fc565b915050611b1d565b828054828255906000526020600020908101928215611ba1579160200282015b82811115611ba1578251825591602001919060010190611b86565b50611bad929150611bb1565b5090565b5b80821115611bad5760008155600101611bb2565b634e487b7160e01b600052604160045260246000fd5b604051601f8201601f1916810167ffffffffffffffff81118282101715611c0557611c05611bc6565b604052919050565b600082601f830112611c1e57600080fd5b813567ffffffffffffffff811115611c3857611c38611bc6565b611c4b601f8201601f1916602001611bdc565b818152846020838601011115611c6057600080fd5b816020850160208301376000918101602001919091529392505050565b60008060408385031215611c9057600080fd5b823567ffffffffffffffff811115611ca757600080fd5b611cb385828601611c0d565b95602094909401359450505050565b60008060008060808587031215611cd857600080fd5b84359350602085013567ffffffffffffffff80821115611cf757600080fd5b611d0388838901611c0d565b94506040870135915080821115611d1957600080fd5b611d2588838901611c0d565b93506060870135915080821115611d3b57600080fd5b50611d4887828801611c0d565b91505092959194509250565b600060208284031215611d6657600080fd5b813567ffffffffffffffff811115611d7d57600080fd5b611d8984828501611c0d565b949350505050565b602080825282518282018190526000919060409081850190868401855b82811015611dd357815180518552860151868501529284019290850190600101611dae565b5091979650505050505050565b600060208284031215611df257600080fd5b5035919050565b6020808252825182820181905260009190848201906040850190845b81811015611e3157835183529284019291840191600101611e15565b50909695505050505050565b60008060408385031215611e5057600080fd5b82359150602083013567ffffffffffffffff811115611e6e57600080fd5b611e7a85828601611c0d565b9150509250929050565b60005b83811015611e9f578181015183820152602001611e87565b50506000910152565b60008151808452611ec0816020860160208601611e84565b601f01601f19169290920160200192915050565b848152608060208201526000611eed6080830186611ea8565b8281036040840152611eff8186611ea8565b90508281036060840152611f138185611ea8565b979650505050505050565b85815284602082015260a060408201526000611f3d60a0830186611ea8565b8460608401528281036080840152611f558185611ea8565b98975050505050505050565b600080600080600060a08688031215611f7957600080fd5b8535945060208601359350604086013567ffffffffffffffff80821115611f9f57600080fd5b611fab89838a01611c0d565b9450606088013593506080880135915080821115611fc857600080fd5b50611fd588828901611c0d565b9150509295509295909350565b60008060408385031215611ff557600080fd5b50508035926020909101359150565b8e81528d60208201528c60408201526101c06060820152600061202b6101c083018e611ea8565b8c608084015282810360a0840152612043818d611ea8565b905082810360c0840152612057818c611ea8565b905082810360e084015261206b818b611ea8565b9050828103610100840152612080818a611ea8565b90508281036101208401526120958189611ea8565b915050856101408301526120ae61016083018615159052565b9215156101808201529015156101a0909101529c9b505050505050505050505050565b600082601f8301126120e257600080fd5b8135602067ffffffffffffffff8211156120fe576120fe611bc6565b8160051b61210d828201611bdc565b928352848101820192828101908785111561212757600080fd5b83870192505b84831015611f135782358252918301919083019061212d565b60008060008060008060008060006101208a8c03121561216557600080fd5b8935985060208a013567ffffffffffffffff8082111561218457600080fd5b6121908d838e016120d1565b995060408c0135985060608c01359150808211156121ad57600080fd5b6121b98d838e01611c0d565b975060808c0135965060a08c01359150808211156121d657600080fd5b6121e28d838e01611c0d565b955060c08c01359150808211156121f857600080fd5b6122048d838e01611c0d565b945060e08c013591508082111561221a57600080fd5b6122268d838e01611c0d565b93506101008c013591508082111561223d57600080fd5b5061224a8c828d01611c0d565b9150509295985092959850929598565b60008060006060848603121561226f57600080fd5b8335925060208401359150604084013567ffffffffffffffff81111561229457600080fd5b6122a086828701611c0d565b9150509250925092565b86815285602082015284604082015260c0606082015260006122cf60c0830186611ea8565b82810360808401526122e18186611ea8565b9150508260a0830152979650505050505050565b600181811c9082168061230957607f821691505b60208210810361232957634e487b7160e01b600052602260045260246000fd5b50919050565b601f82111561237957600081815260208120601f850160051c810160208610156123565750805b601f850160051c820191505b8181101561237557828155600101612362565b5050505b505050565b815167ffffffffffffffff81111561239857612398611bc6565b6123ac816123a684546122f5565b8461232f565b602080601f8311600181146123e157600084156123c95750858301515b600019600386901b1c1916600185901b178555612375565b600085815260208120601f198616915b82811015612410578886015182559484019460019091019084016123f1565b508582101561242e5787850151600019600388901b60f8161c191681555b5050505050600190811b01905550565b60008251612450818460208701611e84565b9190910192915050565b6000808354612468816122f5565b600182811680156124805760018114612495576124c4565b60ff19841687528215158302870194506124c4565b8760005260208060002060005b858110156124bb5781548a8201529084019082016124a2565b50505082870194505b50929695505050505050565b634e487b7160e01b600052603260045260246000fd5b634e487b7160e01b600052601160045260246000fd5b60006001820161250e5761250e6124e6565b5060010190565b80820180821115612528576125286124e6565b9291505056fea26469706673582212205a0393a52fc557c15d91c350edf26badc44dc5a51327fbfe886b5d7fc7573e6964736f6c63430008110033","opcodes":"PUSH1 0x80 PUSH1 0x40 MSTORE CALLVALUE DUP1 ISZERO PUSH2 0x10 JUMPI PUSH1 0x0 DUP1 REVERT JUMPDEST POP PUSH2 0x2564 DUP1 PUSH2 0x20 PUSH1 0x0 CODECOPY PUSH1 0x0 RETURN INVALID PUSH1 0x80 PUSH1 0x40 MSTORE CALLVALUE DUP1 ISZERO PUSH2 0x10 JUMPI PUSH1 0x0 DUP1 REVERT JUMPDEST POP PUSH1 0x4 CALLDATASIZE LT PUSH2 0x158 JUMPI PUSH1 0x0 CALLDATALOAD PUSH1 0xE0 SHR DUP1 PUSH4 0x7FDD55F5 GT PUSH2 0xC3 JUMPI DUP1 PUSH4 0xBF801DF1 GT PUSH2 0x7C JUMPI DUP1 PUSH4 0xBF801DF1 EQ PUSH2 0x2EC JUMPI DUP1 PUSH4 0xC492384F EQ PUSH2 0x319 JUMPI DUP1 PUSH4 0xD16AD4E0 EQ PUSH2 0x32C JUMPI DUP1 PUSH4 0xD5932CC4 EQ PUSH2 0x33F JUMPI DUP1 PUSH4 0xD976F930 EQ PUSH2 0x352 JUMPI DUP1 PUSH4 0xEAC0E977 EQ PUSH2 0x365 JUMPI PUSH1 0x0 DUP1 REVERT JUMPDEST DUP1 PUSH4 0x7FDD55F5 EQ PUSH2 0x285 JUMPI DUP1 PUSH4 0x8BD42880 EQ PUSH2 0x298 JUMPI DUP1 PUSH4 0x8C4C42CD EQ PUSH2 0x2AB JUMPI DUP1 PUSH4 0x8E5452B8 EQ PUSH2 0x2B3 JUMPI DUP1 PUSH4 0x90973CCE EQ PUSH2 0x2C6 JUMPI DUP1 PUSH4 0xA78317F8 EQ PUSH2 0x2D9 JUMPI PUSH1 0x0 DUP1 REVERT JUMPDEST DUP1 PUSH4 0x4C27729C GT PUSH2 0x115 JUMPI DUP1 PUSH4 0x4C27729C EQ PUSH2 0x208 JUMPI DUP1 PUSH4 0x4CA20F34 EQ PUSH2 0x210 JUMPI DUP1 PUSH4 0x5AAA718E EQ PUSH2 0x223 JUMPI DUP1 PUSH4 0x71D1DC0C EQ PUSH2 0x236 JUMPI DUP1 PUSH4 0x793560DD EQ PUSH2 0x259 JUMPI DUP1 PUSH4 0x7AE4EE04 EQ PUSH2 0x261 JUMPI PUSH1 0x0 DUP1 REVERT JUMPDEST DUP1 PUSH4 0x21F29391 EQ PUSH2 0x15D JUMPI DUP1 PUSH4 0x278338E8 EQ PUSH2 0x18A JUMPI DUP1 PUSH4 0x284328D0 EQ PUSH2 0x19F JUMPI DUP1 PUSH4 0x392A70A6 EQ PUSH2 0x1BF JUMPI DUP1 PUSH4 0x3AB95F30 EQ PUSH2 0x1DF JUMPI DUP1 PUSH4 0x3B7D255C EQ PUSH2 0x200 JUMPI JUMPDEST PUSH1 0x0 DUP1 REVERT JUMPDEST PUSH2 0x170 PUSH2 0x16B CALLDATASIZE PUSH1 0x4 PUSH2 0x1C7D JUMP JUMPDEST PUSH2 0x38A JUMP JUMPDEST PUSH1 0x40 DUP1 MLOAD SWAP3 DUP4 MSTORE PUSH1 0x20 DUP4 ADD SWAP2 SWAP1 SWAP2 MSTORE ADD JUMPDEST PUSH1 0x40 MLOAD DUP1 SWAP2 SUB SWAP1 RETURN JUMPDEST PUSH2 0x19D PUSH2 0x198 CALLDATASIZE PUSH1 0x4 PUSH2 0x1CC2 JUMP JUMPDEST PUSH2 0x3D5 JUMP JUMPDEST STOP JUMPDEST PUSH2 0x1B2 PUSH2 0x1AD CALLDATASIZE PUSH1 0x4 PUSH2 0x1D54 JUMP JUMPDEST PUSH2 0x4FA JUMP JUMPDEST PUSH1 0x40 MLOAD PUSH2 0x181 SWAP2 SWAP1 PUSH2 0x1D91 JUMP JUMPDEST PUSH2 0x1D2 PUSH2 0x1CD CALLDATASIZE PUSH1 0x4 PUSH2 0x1DE0 JUMP JUMPDEST PUSH2 0x58B JUMP JUMPDEST PUSH1 0x40 MLOAD PUSH2 0x181 SWAP2 SWAP1 PUSH2 0x1DF9 JUMP JUMPDEST PUSH2 0x1F2 PUSH2 0x1ED CALLDATASIZE PUSH1 0x4 PUSH2 0x1DE0 JUMP JUMPDEST PUSH2 0x5ED JUMP JUMPDEST PUSH1 0x40 MLOAD SWAP1 DUP2 MSTORE PUSH1 0x20 ADD PUSH2 0x181 JUMP JUMPDEST PUSH2 0x1D2 PUSH2 0x60E JUMP JUMPDEST PUSH2 0x1D2 PUSH2 0x666 JUMP JUMPDEST PUSH2 0x1F2 PUSH2 0x21E CALLDATASIZE PUSH1 0x4 PUSH2 0x1DE0 JUMP JUMPDEST PUSH2 0x6BC JUMP JUMPDEST PUSH2 0x19D PUSH2 0x231 CALLDATASIZE PUSH1 0x4 PUSH2 0x1E3D JUMP JUMPDEST PUSH2 0x6CC JUMP JUMPDEST PUSH2 0x249 PUSH2 0x244 CALLDATASIZE PUSH1 0x4 PUSH2 0x1DE0 JUMP JUMPDEST PUSH2 0x701 JUMP JUMPDEST PUSH1 0x40 MLOAD PUSH2 0x181 SWAP5 SWAP4 SWAP3 SWAP2 SWAP1 PUSH2 0x1ED4 JUMP JUMPDEST PUSH2 0x1D2 PUSH2 0x8C2 JUMP JUMPDEST PUSH2 0x274 PUSH2 0x26F CALLDATASIZE PUSH1 0x4 PUSH2 0x1DE0 JUMP JUMPDEST PUSH2 0x918 JUMP JUMPDEST PUSH1 0x40 MLOAD PUSH2 0x181 SWAP6 SWAP5 SWAP4 SWAP3 SWAP2 SWAP1 PUSH2 0x1F1E JUMP JUMPDEST PUSH2 0x19D PUSH2 0x293 CALLDATASIZE PUSH1 0x4 PUSH2 0x1E3D JUMP JUMPDEST PUSH2 0xA58 JUMP JUMPDEST PUSH2 0x1F2 PUSH2 0x2A6 CALLDATASIZE PUSH1 0x4 PUSH2 0x1DE0 JUMP JUMPDEST PUSH2 0xBB3 JUMP JUMPDEST PUSH2 0x1D2 PUSH2 0xBC3 JUMP JUMPDEST PUSH2 0x19D PUSH2 0x2C1 CALLDATASIZE PUSH1 0x4 PUSH2 0x1F61 JUMP JUMPDEST PUSH2 0xC19 JUMP JUMPDEST PUSH2 0x1F2 PUSH2 0x2D4 CALLDATASIZE PUSH1 0x4 PUSH2 0x1FE2 JUMP JUMPDEST PUSH2 0xDC1 JUMP JUMPDEST PUSH2 0x1F2 PUSH2 0x2E7 CALLDATASIZE PUSH1 0x4 PUSH2 0x1DE0 JUMP JUMPDEST PUSH2 0xDF2 JUMP JUMPDEST PUSH2 0x2FF PUSH2 0x2FA CALLDATASIZE PUSH1 0x4 PUSH2 0x1DE0 JUMP JUMPDEST PUSH2 0xE02 JUMP JUMPDEST PUSH1 0x40 MLOAD PUSH2 0x181 SWAP15 SWAP14 SWAP13 SWAP12 SWAP11 SWAP10 SWAP9 SWAP8 SWAP7 SWAP6 SWAP5 SWAP4 SWAP3 SWAP2 SWAP1 PUSH2 0x2004 JUMP JUMPDEST PUSH2 0x19D PUSH2 0x327 CALLDATASIZE PUSH1 0x4 PUSH2 0x2146 JUMP JUMPDEST PUSH2 0x11A7 JUMP JUMPDEST PUSH2 0x19D PUSH2 0x33A CALLDATASIZE PUSH1 0x4 PUSH2 0x225A JUMP JUMPDEST PUSH2 0x1584 JUMP JUMPDEST PUSH2 0x19D PUSH2 0x34D CALLDATASIZE PUSH1 0x4 PUSH2 0x1E3D JUMP JUMPDEST PUSH2 0x1635 JUMP JUMPDEST PUSH2 0x19D PUSH2 0x360 CALLDATASIZE PUSH1 0x4 PUSH2 0x1E3D JUMP JUMPDEST PUSH2 0x1784 JUMP JUMPDEST PUSH2 0x378 PUSH2 0x373 CALLDATASIZE PUSH1 0x4 PUSH2 0x1DE0 JUMP JUMPDEST PUSH2 0x18E2 JUMP JUMPDEST PUSH1 0x40 MLOAD PUSH2 0x181 SWAP7 SWAP6 SWAP5 SWAP4 SWAP3 SWAP2 SWAP1 PUSH2 0x22AA JUMP JUMPDEST DUP2 MLOAD PUSH1 0x20 DUP2 DUP5 ADD DUP2 ADD DUP1 MLOAD PUSH1 0x5 DUP3 MSTORE SWAP3 DUP3 ADD SWAP2 DUP6 ADD SWAP2 SWAP1 SWAP2 KECCAK256 SWAP2 SWAP1 MSTORE DUP1 SLOAD DUP3 SWAP1 DUP2 LT PUSH2 0x3B5 JUMPI PUSH1 0x0 DUP1 REVERT JUMPDEST PUSH1 0x0 SWAP2 DUP3 MSTORE PUSH1 0x20 SWAP1 SWAP2 KECCAK256 PUSH1 0x2 SWAP1 SWAP2 MUL ADD DUP1 SLOAD PUSH1 0x1 SWAP1 SWAP2 ADD SLOAD SWAP1 SWAP3 POP SWAP1 POP DUP3 JUMP JUMPDEST PUSH2 0x3DE DUP5 PUSH2 0x1A29 JUMP JUMPDEST ISZERO PUSH2 0x44C JUMPI PUSH1 0x40 MLOAD PUSH3 0x461BCD PUSH1 0xE5 SHL DUP2 MSTORE PUSH1 0x20 PUSH1 0x4 DUP3 ADD MSTORE PUSH1 0x33 PUSH1 0x24 DUP3 ADD MSTORE PUSH32 0x546869732050726F6475637454656D706C617465494420616C72656164792065 PUSH1 0x44 DUP3 ADD MSTORE PUSH19 0x786973747320696E207468652073797374656D PUSH1 0x68 SHL PUSH1 0x64 DUP3 ADD MSTORE PUSH1 0x84 ADD JUMPDEST PUSH1 0x40 MLOAD DUP1 SWAP2 SUB SWAP1 REVERT JUMPDEST PUSH1 0x40 DUP1 MLOAD PUSH1 0x80 DUP2 ADD DUP3 MSTORE DUP6 DUP2 MSTORE PUSH1 0x20 DUP1 DUP3 ADD DUP7 DUP2 MSTORE DUP3 DUP5 ADD DUP7 SWAP1 MSTORE PUSH1 0x60 DUP4 ADD DUP6 SWAP1 MSTORE PUSH1 0x0 DUP9 DUP2 MSTORE SWAP2 DUP3 SWAP1 MSTORE SWAP3 SWAP1 KECCAK256 DUP2 MLOAD DUP2 SSTORE SWAP2 MLOAD SWAP1 SWAP2 SWAP1 PUSH1 0x1 DUP3 ADD SWAP1 PUSH2 0x492 SWAP1 DUP3 PUSH2 0x237E JUMP JUMPDEST POP PUSH1 0x40 DUP3 ADD MLOAD PUSH1 0x2 DUP3 ADD SWAP1 PUSH2 0x4A7 SWAP1 DUP3 PUSH2 0x237E JUMP JUMPDEST POP PUSH1 0x60 DUP3 ADD MLOAD PUSH1 0x3 DUP3 ADD SWAP1 PUSH2 0x4BC SWAP1 DUP3 PUSH2 0x237E JUMP JUMPDEST POP POP PUSH1 0x6 DUP1 SLOAD PUSH1 0x1 DUP2 ADD DUP3 SSTORE PUSH1 0x0 SWAP2 SWAP1 SWAP2 MSTORE PUSH32 0xF652222313E28459528D920B65115C16C04F3EFC82AAEDC97BE59F3F377C0D3F ADD SWAP5 SWAP1 SWAP5 SSTORE POP POP POP POP JUMP JUMPDEST PUSH1 0x60 PUSH1 0x5 DUP3 PUSH1 0x40 MLOAD PUSH2 0x50C SWAP2 SWAP1 PUSH2 0x243E JUMP JUMPDEST SWAP1 DUP2 MSTORE PUSH1 0x20 ADD PUSH1 0x40 MLOAD DUP1 SWAP2 SUB SWAP1 KECCAK256 DUP1 SLOAD DUP1 PUSH1 0x20 MUL PUSH1 0x20 ADD PUSH1 0x40 MLOAD SWAP1 DUP2 ADD PUSH1 0x40 MSTORE DUP1 SWAP3 SWAP2 SWAP1 DUP2 DUP2 MSTORE PUSH1 0x20 ADD PUSH1 0x0 SWAP1 JUMPDEST DUP3 DUP3 LT ISZERO PUSH2 0x580 JUMPI DUP4 DUP3 SWAP1 PUSH1 0x0 MSTORE PUSH1 0x20 PUSH1 0x0 KECCAK256 SWAP1 PUSH1 0x2 MUL ADD PUSH1 0x40 MLOAD DUP1 PUSH1 0x40 ADD PUSH1 0x40 MSTORE SWAP1 DUP2 PUSH1 0x0 DUP3 ADD SLOAD DUP2 MSTORE PUSH1 0x20 ADD PUSH1 0x1 DUP3 ADD SLOAD DUP2 MSTORE POP POP DUP2 MSTORE PUSH1 0x20 ADD SWAP1 PUSH1 0x1 ADD SWAP1 PUSH2 0x53A JUMP JUMPDEST POP POP POP POP SWAP1 POP SWAP2 SWAP1 POP JUMP JUMPDEST PUSH1 0x0 DUP2 DUP2 MSTORE PUSH1 0x4 PUSH1 0x20 SWAP1 DUP2 MSTORE PUSH1 0x40 SWAP2 DUP3 SWAP1 KECCAK256 DUP1 SLOAD DUP4 MLOAD DUP2 DUP5 MUL DUP2 ADD DUP5 ADD SWAP1 SWAP5 MSTORE DUP1 DUP5 MSTORE PUSH1 0x60 SWAP4 SWAP3 DUP4 ADD DUP3 DUP3 DUP1 ISZERO PUSH2 0x5E1 JUMPI PUSH1 0x20 MUL DUP3 ADD SWAP2 SWAP1 PUSH1 0x0 MSTORE PUSH1 0x20 PUSH1 0x0 KECCAK256 SWAP1 JUMPDEST DUP2 SLOAD DUP2 MSTORE PUSH1 0x20 ADD SWAP1 PUSH1 0x1 ADD SWAP1 DUP1 DUP4 GT PUSH2 0x5CD JUMPI JUMPDEST POP POP POP POP POP SWAP1 POP SWAP2 SWAP1 POP JUMP JUMPDEST PUSH1 0x6 DUP2 DUP2 SLOAD DUP2 LT PUSH2 0x5FD JUMPI PUSH1 0x0 DUP1 REVERT JUMPDEST PUSH1 0x0 SWAP2 DUP3 MSTORE PUSH1 0x20 SWAP1 SWAP2 KECCAK256 ADD SLOAD SWAP1 POP DUP2 JUMP JUMPDEST PUSH1 0x60 PUSH1 0x6 DUP1 SLOAD DUP1 PUSH1 0x20 MUL PUSH1 0x20 ADD PUSH1 0x40 MLOAD SWAP1 DUP2 ADD PUSH1 0x40 MSTORE DUP1 SWAP3 SWAP2 SWAP1 DUP2 DUP2 MSTORE PUSH1 0x20 ADD DUP3 DUP1 SLOAD DUP1 ISZERO PUSH2 0x65C JUMPI PUSH1 0x20 MUL DUP3 ADD SWAP2 SWAP1 PUSH1 0x0 MSTORE PUSH1 0x20 PUSH1 0x0 KECCAK256 SWAP1 JUMPDEST DUP2 SLOAD DUP2 MSTORE PUSH1 0x20 ADD SWAP1 PUSH1 0x1 ADD SWAP1 DUP1 DUP4 GT PUSH2 0x648 JUMPI JUMPDEST POP POP POP POP POP SWAP1 POP SWAP1 JUMP JUMPDEST PUSH1 0x60 PUSH1 0x7 DUP1 SLOAD DUP1 PUSH1 0x20 MUL PUSH1 0x20 ADD PUSH1 0x40 MLOAD SWAP1 DUP2 ADD PUSH1 0x40 MSTORE DUP1 SWAP3 SWAP2 SWAP1 DUP2 DUP2 MSTORE PUSH1 0x20 ADD DUP3 DUP1 SLOAD DUP1 ISZERO PUSH2 0x65C JUMPI PUSH1 0x20 MUL DUP3 ADD SWAP2 SWAP1 PUSH1 0x0 MSTORE PUSH1 0x20 PUSH1 0x0 KECCAK256 SWAP1 DUP2 SLOAD DUP2 MSTORE PUSH1 0x20 ADD SWAP1 PUSH1 0x1 ADD SWAP1 DUP1 DUP4 GT PUSH2 0x648 JUMPI POP POP POP POP POP SWAP1 POP SWAP1 JUMP JUMPDEST PUSH1 0x7 DUP2 DUP2 SLOAD DUP2 LT PUSH2 0x5FD JUMPI PUSH1 0x0 DUP1 REVERT JUMPDEST PUSH1 0x0 DUP3 DUP2 MSTORE PUSH1 0x3 PUSH1 0x20 MSTORE PUSH1 0x40 SWAP1 KECCAK256 PUSH1 0x7 ADD PUSH2 0x6E7 DUP3 DUP3 PUSH2 0x237E JUMP JUMPDEST POP POP PUSH1 0x0 SWAP1 DUP2 MSTORE PUSH1 0x3 PUSH1 0x20 MSTORE PUSH1 0x40 SWAP1 KECCAK256 PUSH1 0x1 PUSH1 0xA SWAP1 SWAP2 ADD SSTORE JUMP JUMPDEST PUSH1 0x0 PUSH1 0x20 DUP2 SWAP1 MSTORE SWAP1 DUP2 MSTORE PUSH1 0x40 SWAP1 KECCAK256 DUP1 SLOAD PUSH1 0x1 DUP3 ADD DUP1 SLOAD SWAP2 SWAP3 SWAP2 PUSH2 0x723 SWAP1 PUSH2 0x22F5 JUMP JUMPDEST DUP1 PUSH1 0x1F ADD PUSH1 0x20 DUP1 SWAP2 DIV MUL PUSH1 0x20 ADD PUSH1 0x40 MLOAD SWAP1 DUP2 ADD PUSH1 0x40 MSTORE DUP1 SWAP3 SWAP2 SWAP1 DUP2 DUP2 MSTORE PUSH1 0x20 ADD DUP3 DUP1 SLOAD PUSH2 0x74F SWAP1 PUSH2 0x22F5 JUMP JUMPDEST DUP1 ISZERO PUSH2 0x79C JUMPI DUP1 PUSH1 0x1F LT PUSH2 0x771 JUMPI PUSH2 0x100 DUP1 DUP4 SLOAD DIV MUL DUP4 MSTORE SWAP2 PUSH1 0x20 ADD SWAP2 PUSH2 0x79C JUMP JUMPDEST DUP3 ADD SWAP2 SWAP1 PUSH1 0x0 MSTORE PUSH1 0x20 PUSH1 0x0 KECCAK256 SWAP1 JUMPDEST DUP2 SLOAD DUP2 MSTORE SWAP1 PUSH1 0x1 ADD SWAP1 PUSH1 0x20 ADD DUP1 DUP4 GT PUSH2 0x77F JUMPI DUP3 SWAP1 SUB PUSH1 0x1F AND DUP3 ADD SWAP2 JUMPDEST POP POP POP POP POP SWAP1 DUP1 PUSH1 0x2 ADD DUP1 SLOAD PUSH2 0x7B1 SWAP1 PUSH2 0x22F5 JUMP JUMPDEST DUP1 PUSH1 0x1F ADD PUSH1 0x20 DUP1 SWAP2 DIV MUL PUSH1 0x20 ADD PUSH1 0x40 MLOAD SWAP1 DUP2 ADD PUSH1 0x40 MSTORE DUP1 SWAP3 SWAP2 SWAP1 DUP2 DUP2 MSTORE PUSH1 0x20 ADD DUP3 DUP1 SLOAD PUSH2 0x7DD SWAP1 PUSH2 0x22F5 JUMP JUMPDEST DUP1 ISZERO PUSH2 0x82A JUMPI DUP1 PUSH1 0x1F LT PUSH2 0x7FF JUMPI PUSH2 0x100 DUP1 DUP4 SLOAD DIV MUL DUP4 MSTORE SWAP2 PUSH1 0x20 ADD SWAP2 PUSH2 0x82A JUMP JUMPDEST DUP3 ADD SWAP2 SWAP1 PUSH1 0x0 MSTORE PUSH1 0x20 PUSH1 0x0 KECCAK256 SWAP1 JUMPDEST DUP2 SLOAD DUP2 MSTORE SWAP1 PUSH1 0x1 ADD SWAP1 PUSH1 0x20 ADD DUP1 DUP4 GT PUSH2 0x80D JUMPI DUP3 SWAP1 SUB PUSH1 0x1F AND DUP3 ADD SWAP2 JUMPDEST POP POP POP POP POP SWAP1 DUP1 PUSH1 0x3 ADD DUP1 SLOAD PUSH2 0x83F SWAP1 PUSH2 0x22F5 JUMP JUMPDEST DUP1 PUSH1 0x1F ADD PUSH1 0x20 DUP1 SWAP2 DIV MUL PUSH1 0x20 ADD PUSH1 0x40 MLOAD SWAP1 DUP2 ADD PUSH1 0x40 MSTORE DUP1 SWAP3 SWAP2 SWAP1 DUP2 DUP2 MSTORE PUSH1 0x20 ADD DUP3 DUP1 SLOAD PUSH2 0x86B SWAP1 PUSH2 0x22F5 JUMP JUMPDEST DUP1 ISZERO PUSH2 0x8B8 JUMPI DUP1 PUSH1 0x1F LT PUSH2 0x88D JUMPI PUSH2 0x100 DUP1 DUP4 SLOAD DIV MUL DUP4 MSTORE SWAP2 PUSH1 0x20 ADD SWAP2 PUSH2 0x8B8 JUMP JUMPDEST DUP3 ADD SWAP2 SWAP1 PUSH1 0x0 MSTORE PUSH1 0x20 PUSH1 0x0 KECCAK256 SWAP1 JUMPDEST DUP2 SLOAD DUP2 MSTORE SWAP1 PUSH1 0x1 ADD SWAP1 PUSH1 0x20 ADD DUP1 DUP4 GT PUSH2 0x89B JUMPI DUP3 SWAP1 SUB PUSH1 0x1F AND DUP3 ADD SWAP2 JUMPDEST POP POP POP POP POP SWAP1 POP DUP5 JUMP JUMPDEST PUSH1 0x60 PUSH1 0x9 DUP1 SLOAD DUP1 PUSH1 0x20 MUL PUSH1 0x20 ADD PUSH1 0x40 MLOAD SWAP1 DUP2 ADD PUSH1 0x40 MSTORE DUP1 SWAP3 SWAP2 SWAP1 DUP2 DUP2 MSTORE PUSH1 0x20 ADD DUP3 DUP1 SLOAD DUP1 ISZERO PUSH2 0x65C JUMPI PUSH1 0x20 MUL DUP3 ADD SWAP2 SWAP1 PUSH1 0x0 MSTORE PUSH1 0x20 PUSH1 0x0 KECCAK256 SWAP1 DUP2 SLOAD DUP2 MSTORE PUSH1 0x20 ADD SWAP1 PUSH1 0x1 ADD SWAP1 DUP1 DUP4 GT PUSH2 0x648 JUMPI POP POP POP POP POP SWAP1 POP SWAP1 JUMP JUMPDEST PUSH1 0x1 PUSH1 0x20 DUP2 SWAP1 MSTORE PUSH1 0x0 SWAP2 DUP3 MSTORE PUSH1 0x40 SWAP1 SWAP2 KECCAK256 DUP1 SLOAD SWAP2 DUP2 ADD SLOAD PUSH1 0x2 DUP3 ADD DUP1 SLOAD SWAP2 SWAP3 SWAP2 PUSH2 0x941 SWAP1 PUSH2 0x22F5 JUMP JUMPDEST DUP1 PUSH1 0x1F ADD PUSH1 0x20 DUP1 SWAP2 DIV MUL PUSH1 0x20 ADD PUSH1 0x40 MLOAD SWAP1 DUP2 ADD PUSH1 0x40 MSTORE DUP1 SWAP3 SWAP2 SWAP1 DUP2 DUP2 MSTORE PUSH1 0x20 ADD DUP3 DUP1 SLOAD PUSH2 0x96D SWAP1 PUSH2 0x22F5 JUMP JUMPDEST DUP1 ISZERO PUSH2 0x9BA JUMPI DUP1 PUSH1 0x1F LT PUSH2 0x98F JUMPI PUSH2 0x100 DUP1 DUP4 SLOAD DIV MUL DUP4 MSTORE SWAP2 PUSH1 0x20 ADD SWAP2 PUSH2 0x9BA JUMP JUMPDEST DUP3 ADD SWAP2 SWAP1 PUSH1 0x0 MSTORE PUSH1 0x20 PUSH1 0x0 KECCAK256 SWAP1 JUMPDEST DUP2 SLOAD DUP2 MSTORE SWAP1 PUSH1 0x1 ADD SWAP1 PUSH1 0x20 ADD DUP1 DUP4 GT PUSH2 0x99D JUMPI DUP3 SWAP1 SUB PUSH1 0x1F AND DUP3 ADD SWAP2 JUMPDEST POP POP POP POP POP SWAP1 DUP1 PUSH1 0x3 ADD SLOAD SWAP1 DUP1 PUSH1 0x4 ADD DUP1 SLOAD PUSH2 0x9D5 SWAP1 PUSH2 0x22F5 JUMP JUMPDEST DUP1 PUSH1 0x1F ADD PUSH1 0x20 DUP1 SWAP2 DIV MUL PUSH1 0x20 ADD PUSH1 0x40 MLOAD SWAP1 DUP2 ADD PUSH1 0x40 MSTORE DUP1 SWAP3 SWAP2 SWAP1 DUP2 DUP2 MSTORE PUSH1 0x20 ADD DUP3 DUP1 SLOAD PUSH2 0xA01 SWAP1 PUSH2 0x22F5 JUMP JUMPDEST DUP1 ISZERO PUSH2 0xA4E JUMPI DUP1 PUSH1 0x1F LT PUSH2 0xA23 JUMPI PUSH2 0x100 DUP1 DUP4 SLOAD DIV MUL DUP4 MSTORE SWAP2 PUSH1 0x20 ADD SWAP2 PUSH2 0xA4E JUMP JUMPDEST DUP3 ADD SWAP2 SWAP1 PUSH1 0x0 MSTORE PUSH1 0x20 PUSH1 0x0 KECCAK256 SWAP1 JUMPDEST DUP2 SLOAD DUP2 MSTORE SWAP1 PUSH1 0x1 ADD SWAP1 PUSH1 0x20 ADD DUP1 DUP4 GT PUSH2 0xA31 JUMPI DUP3 SWAP1 SUB PUSH1 0x1F AND DUP3 ADD SWAP2 JUMPDEST POP POP POP POP POP SWAP1 POP DUP6 JUMP JUMPDEST PUSH1 0x0 DUP3 DUP2 MSTORE PUSH1 0x3 PUSH1 0x20 MSTORE PUSH1 0x40 SWAP1 KECCAK256 PUSH1 0xB ADD SLOAD PUSH3 0x10000 SWAP1 DIV PUSH1 0xFF AND ISZERO PUSH2 0xAD6 JUMPI PUSH1 0x40 MLOAD PUSH3 0x461BCD PUSH1 0xE5 SHL DUP2 MSTORE PUSH1 0x20 PUSH1 0x4 DUP3 ADD MSTORE PUSH1 0x2D PUSH1 0x24 DUP3 ADD MSTORE PUSH32 0x5468697320626174636820697320616C7265616479207363616E6E6564206279 PUSH1 0x44 DUP3 ADD MSTORE PUSH13 0x103A3432903932BA30B4B632B9 PUSH1 0x99 SHL PUSH1 0x64 DUP3 ADD MSTORE PUSH1 0x84 ADD PUSH2 0x443 JUMP JUMPDEST DUP1 PUSH1 0x40 MLOAD PUSH1 0x20 ADD PUSH2 0xAE7 SWAP2 SWAP1 PUSH2 0x243E JUMP JUMPDEST PUSH1 0x40 DUP1 MLOAD PUSH1 0x1F NOT DUP2 DUP5 SUB ADD DUP2 MSTORE DUP3 DUP3 MSTORE DUP1 MLOAD PUSH1 0x20 SWAP2 DUP3 ADD KECCAK256 PUSH1 0x0 DUP7 DUP2 MSTORE PUSH1 0x3 DUP4 MSTORE SWAP3 SWAP1 SWAP3 KECCAK256 SWAP2 SWAP3 PUSH2 0xB1C SWAP3 PUSH1 0x7 ADD SWAP2 ADD PUSH2 0x245A JUMP JUMPDEST PUSH1 0x40 MLOAD PUSH1 0x20 DUP2 DUP4 SUB SUB DUP2 MSTORE SWAP1 PUSH1 0x40 MSTORE DUP1 MLOAD SWAP1 PUSH1 0x20 ADD KECCAK256 EQ PUSH2 0xB90 JUMPI PUSH1 0x40 MLOAD PUSH3 0x461BCD PUSH1 0xE5 SHL DUP2 MSTORE PUSH1 0x20 PUSH1 0x4 DUP3 ADD MSTORE PUSH1 0x28 PUSH1 0x24 DUP3 ADD MSTORE PUSH32 0x54686973206261746368206973206E6F74206F776E6564206279207468697320 PUSH1 0x44 DUP3 ADD MSTORE PUSH8 0x3932BA30B4B632B9 PUSH1 0xC1 SHL PUSH1 0x64 DUP3 ADD MSTORE PUSH1 0x84 ADD PUSH2 0x443 JUMP JUMPDEST POP PUSH1 0x0 SWAP1 DUP2 MSTORE PUSH1 0x3 PUSH1 0x20 MSTORE PUSH1 0x40 SWAP1 KECCAK256 PUSH1 0xB ADD DUP1 SLOAD PUSH3 0xFF0000 NOT AND PUSH3 0x10000 OR SWAP1 SSTORE JUMP JUMPDEST PUSH1 0x9 DUP2 DUP2 SLOAD DUP2 LT PUSH2 0x5FD JUMPI PUSH1 0x0 DUP1 REVERT JUMPDEST PUSH1 0x60 PUSH1 0x8 DUP1 SLOAD DUP1 PUSH1 0x20 MUL PUSH1 0x20 ADD PUSH1 0x40 MLOAD SWAP1 DUP2 ADD PUSH1 0x40 MSTORE DUP1 SWAP3 SWAP2 SWAP1 DUP2 DUP2 MSTORE PUSH1 0x20 ADD DUP3 DUP1 SLOAD DUP1 ISZERO PUSH2 0x65C JUMPI PUSH1 0x20 MUL DUP3 ADD SWAP2 SWAP1 PUSH1 0x0 MSTORE PUSH1 0x20 PUSH1 0x0 KECCAK256 SWAP1 DUP2 SLOAD DUP2 MSTORE PUSH1 0x20 ADD SWAP1 PUSH1 0x1 ADD SWAP1 DUP1 DUP4 GT PUSH2 0x648 JUMPI POP POP POP POP POP SWAP1 POP SWAP1 JUMP JUMPDEST PUSH2 0xC22 DUP6 PUSH2 0x1A7F JUMP JUMPDEST ISZERO PUSH2 0xC89 JUMPI PUSH1 0x40 MLOAD PUSH3 0x461BCD PUSH1 0xE5 SHL DUP2 MSTORE PUSH1 0x20 PUSH1 0x4 DUP3 ADD MSTORE PUSH1 0x31 PUSH1 0x24 DUP3 ADD MSTORE PUSH32 0x5468697320426174636854656D706C617465494420616C726561647920657869 PUSH1 0x44 DUP3 ADD MSTORE PUSH17 0x73747320696E207468652073797374656D PUSH1 0x78 SHL PUSH1 0x64 DUP3 ADD MSTORE PUSH1 0x84 ADD PUSH2 0x443 JUMP JUMPDEST PUSH2 0xC92 DUP5 PUSH2 0x1A29 JUMP JUMPDEST ISZERO ISZERO PUSH1 0x1 EQ PUSH2 0xD00 JUMPI PUSH1 0x40 MLOAD PUSH3 0x461BCD PUSH1 0xE5 SHL DUP2 MSTORE PUSH1 0x20 PUSH1 0x4 DUP3 ADD MSTORE PUSH1 0x34 PUSH1 0x24 DUP3 ADD MSTORE PUSH32 0x546869732050726F6475637454656D706C617465494420646F6573206E6F7420 PUSH1 0x44 DUP3 ADD MSTORE PUSH20 0x65786973747320696E207468652073797374656D PUSH1 0x60 SHL PUSH1 0x64 DUP3 ADD MSTORE PUSH1 0x84 ADD PUSH2 0x443 JUMP JUMPDEST PUSH1 0x40 MLOAD DUP1 PUSH1 0xA0 ADD PUSH1 0x40 MSTORE DUP1 DUP7 DUP2 MSTORE PUSH1 0x20 ADD DUP6 DUP2 MSTORE PUSH1 0x20 ADD DUP5 DUP2 MSTORE PUSH1 0x20 ADD DUP4 DUP2 MSTORE PUSH1 0x20 ADD DUP3 DUP2 MSTORE POP PUSH1 0x1 PUSH1 0x0 DUP8 DUP2 MSTORE PUSH1 0x20 ADD SWAP1 DUP2 MSTORE PUSH1 0x20 ADD PUSH1 0x0 KECCAK256 PUSH1 0x0 DUP3 ADD MLOAD DUP2 PUSH1 0x0 ADD SSTORE PUSH1 0x20 DUP3 ADD MLOAD DUP2 PUSH1 0x1 ADD SSTORE PUSH1 0x40 DUP3 ADD MLOAD DUP2 PUSH1 0x2 ADD SWAP1 DUP2 PUSH2 0xD63 SWAP2 SWAP1 PUSH2 0x237E JUMP JUMPDEST POP PUSH1 0x60 DUP3 ADD MLOAD PUSH1 0x3 DUP3 ADD SSTORE PUSH1 0x80 DUP3 ADD MLOAD PUSH1 0x4 DUP3 ADD SWAP1 PUSH2 0xD82 SWAP1 DUP3 PUSH2 0x237E JUMP JUMPDEST POP POP PUSH1 0x7 DUP1 SLOAD PUSH1 0x1 DUP2 ADD DUP3 SSTORE PUSH1 0x0 SWAP2 SWAP1 SWAP2 MSTORE PUSH32 0xA66CC928B5EDB82AF9BD49922954155AB7B0942694BEA4CE44661D9A8736C688 ADD SWAP6 SWAP1 SWAP6 SSTORE POP POP POP POP POP JUMP JUMPDEST PUSH1 0x4 PUSH1 0x20 MSTORE DUP2 PUSH1 0x0 MSTORE PUSH1 0x40 PUSH1 0x0 KECCAK256 DUP2 DUP2 SLOAD DUP2 LT PUSH2 0xDDD JUMPI PUSH1 0x0 DUP1 REVERT JUMPDEST SWAP1 PUSH1 0x0 MSTORE PUSH1 0x20 PUSH1 0x0 KECCAK256 ADD PUSH1 0x0 SWAP2 POP SWAP2 POP POP SLOAD DUP2 JUMP JUMPDEST PUSH1 0x8 DUP2 DUP2 SLOAD DUP2 LT PUSH2 0x5FD JUMPI PUSH1 0x0 DUP1 REVERT JUMPDEST PUSH1 0x3 PUSH1 0x20 MSTORE DUP1 PUSH1 0x0 MSTORE PUSH1 0x40 PUSH1 0x0 KECCAK256 PUSH1 0x0 SWAP2 POP SWAP1 POP DUP1 PUSH1 0x0 ADD SLOAD SWAP1 DUP1 PUSH1 0x1 ADD SLOAD SWAP1 DUP1 PUSH1 0x2 ADD SLOAD SWAP1 DUP1 PUSH1 0x3 ADD DUP1 SLOAD PUSH2 0xE37 SWAP1 PUSH2 0x22F5 JUMP JUMPDEST DUP1 PUSH1 0x1F ADD PUSH1 0x20 DUP1 SWAP2 DIV MUL PUSH1 0x20 ADD PUSH1 0x40 MLOAD SWAP1 DUP2 ADD PUSH1 0x40 MSTORE DUP1 SWAP3 SWAP2 SWAP1 DUP2 DUP2 MSTORE PUSH1 0x20 ADD DUP3 DUP1 SLOAD PUSH2 0xE63 SWAP1 PUSH2 0x22F5 JUMP JUMPDEST DUP1 ISZERO PUSH2 0xEB0 JUMPI DUP1 PUSH1 0x1F LT PUSH2 0xE85 JUMPI PUSH2 0x100 DUP1 DUP4 SLOAD DIV MUL DUP4 MSTORE SWAP2 PUSH1 0x20 ADD SWAP2 PUSH2 0xEB0 JUMP JUMPDEST DUP3 ADD SWAP2 SWAP1 PUSH1 0x0 MSTORE PUSH1 0x20 PUSH1 0x0 KECCAK256 SWAP1 JUMPDEST DUP2 SLOAD DUP2 MSTORE SWAP1 PUSH1 0x1 ADD SWAP1 PUSH1 0x20 ADD DUP1 DUP4 GT PUSH2 0xE93 JUMPI DUP3 SWAP1 SUB PUSH1 0x1F AND DUP3 ADD SWAP2 JUMPDEST POP POP POP POP POP SWAP1 DUP1 PUSH1 0x4 ADD SLOAD SWAP1 DUP1 PUSH1 0x5 ADD DUP1 SLOAD PUSH2 0xECB SWAP1 PUSH2 0x22F5 JUMP JUMPDEST DUP1 PUSH1 0x1F ADD PUSH1 0x20 DUP1 SWAP2 DIV MUL PUSH1 0x20 ADD PUSH1 0x40 MLOAD SWAP1 DUP2 ADD PUSH1 0x40 MSTORE DUP1 SWAP3 SWAP2 SWAP1 DUP2 DUP2 MSTORE PUSH1 0x20 ADD DUP3 DUP1 SLOAD PUSH2 0xEF7 SWAP1 PUSH2 0x22F5 JUMP JUMPDEST DUP1 ISZERO PUSH2 0xF44 JUMPI DUP1 PUSH1 0x1F LT PUSH2 0xF19 JUMPI PUSH2 0x100 DUP1 DUP4 SLOAD DIV MUL DUP4 MSTORE SWAP2 PUSH1 0x20 ADD SWAP2 PUSH2 0xF44 JUMP JUMPDEST DUP3 ADD SWAP2 SWAP1 PUSH1 0x0 MSTORE PUSH1 0x20 PUSH1 0x0 KECCAK256 SWAP1 JUMPDEST DUP2 SLOAD DUP2 MSTORE SWAP1 PUSH1 0x1 ADD SWAP1 PUSH1 0x20 ADD DUP1 DUP4 GT PUSH2 0xF27 JUMPI DUP3 SWAP1 SUB PUSH1 0x1F AND DUP3 ADD SWAP2 JUMPDEST POP POP POP POP POP SWAP1 DUP1 PUSH1 0x6 ADD DUP1 SLOAD PUSH2 0xF59 SWAP1 PUSH2 0x22F5 JUMP JUMPDEST DUP1 PUSH1 0x1F ADD PUSH1 0x20 DUP1 SWAP2 DIV MUL PUSH1 0x20 ADD PUSH1 0x40 MLOAD SWAP1 DUP2 ADD PUSH1 0x40 MSTORE DUP1 SWAP3 SWAP2 SWAP1 DUP2 DUP2 MSTORE PUSH1 0x20 ADD DUP3 DUP1 SLOAD PUSH2 0xF85 SWAP1 PUSH2 0x22F5 JUMP JUMPDEST DUP1 ISZERO PUSH2 0xFD2 JUMPI DUP1 PUSH1 0x1F LT PUSH2 0xFA7 JUMPI PUSH2 0x100 DUP1 DUP4 SLOAD DIV MUL DUP4 MSTORE SWAP2 PUSH1 0x20 ADD SWAP2 PUSH2 0xFD2 JUMP JUMPDEST DUP3 ADD SWAP2 SWAP1 PUSH1 0x0 MSTORE PUSH1 0x20 PUSH1 0x0 KECCAK256 SWAP1 JUMPDEST DUP2 SLOAD DUP2 MSTORE SWAP1 PUSH1 0x1 ADD SWAP1 PUSH1 0x20 ADD DUP1 DUP4 GT PUSH2 0xFB5 JUMPI DUP3 SWAP1 SUB PUSH1 0x1F AND DUP3 ADD SWAP2 JUMPDEST POP POP POP POP POP SWAP1 DUP1 PUSH1 0x7 ADD DUP1 SLOAD PUSH2 0xFE7 SWAP1 PUSH2 0x22F5 JUMP JUMPDEST DUP1 PUSH1 0x1F ADD PUSH1 0x20 DUP1 SWAP2 DIV MUL PUSH1 0x20 ADD PUSH1 0x40 MLOAD SWAP1 DUP2 ADD PUSH1 0x40 MSTORE DUP1 SWAP3 SWAP2 SWAP1 DUP2 DUP2 MSTORE PUSH1 0x20 ADD DUP3 DUP1 SLOAD PUSH2 0x1013 SWAP1 PUSH2 0x22F5 JUMP JUMPDEST DUP1 ISZERO PUSH2 0x1060 JUMPI DUP1 PUSH1 0x1F LT PUSH2 0x1035 JUMPI PUSH2 0x100 DUP1 DUP4 SLOAD DIV MUL DUP4 MSTORE SWAP2 PUSH1 0x20 ADD SWAP2 PUSH2 0x1060 JUMP JUMPDEST DUP3 ADD SWAP2 SWAP1 PUSH1 0x0 MSTORE PUSH1 0x20 PUSH1 0x0 KECCAK256 SWAP1 JUMPDEST DUP2 SLOAD DUP2 MSTORE SWAP1 PUSH1 0x1 ADD SWAP1 PUSH1 0x20 ADD DUP1 DUP4 GT PUSH2 0x1043 JUMPI DUP3 SWAP1 SUB PUSH1 0x1F AND DUP3 ADD SWAP2 JUMPDEST POP POP POP POP POP SWAP1 DUP1 PUSH1 0x8 ADD DUP1 SLOAD PUSH2 0x1075 SWAP1 PUSH2 0x22F5 JUMP JUMPDEST DUP1 PUSH1 0x1F ADD PUSH1 0x20 DUP1 SWAP2 DIV MUL PUSH1 0x20 ADD PUSH1 0x40 MLOAD SWAP1 DUP2 ADD PUSH1 0x40 MSTORE DUP1 SWAP3 SWAP2 SWAP1 DUP2 DUP2 MSTORE PUSH1 0x20 ADD DUP3 DUP1 SLOAD PUSH2 0x10A1 SWAP1 PUSH2 0x22F5 JUMP JUMPDEST DUP1 ISZERO PUSH2 0x10EE JUMPI DUP1 PUSH1 0x1F LT PUSH2 0x10C3 JUMPI PUSH2 0x100 DUP1 DUP4 SLOAD DIV MUL DUP4 MSTORE SWAP2 PUSH1 0x20 ADD SWAP2 PUSH2 0x10EE JUMP JUMPDEST DUP3 ADD SWAP2 SWAP1 PUSH1 0x0 MSTORE PUSH1 0x20 PUSH1 0x0 KECCAK256 SWAP1 JUMPDEST DUP2 SLOAD DUP2 MSTORE SWAP1 PUSH1 0x1 ADD SWAP1 PUSH1 0x20 ADD DUP1 DUP4 GT PUSH2 0x10D1 JUMPI DUP3 SWAP1 SUB PUSH1 0x1F AND DUP3 ADD SWAP2 JUMPDEST POP POP POP POP POP SWAP1 DUP1 PUSH1 0x9 ADD DUP1 SLOAD PUSH2 0x1103 SWAP1 PUSH2 0x22F5 JUMP JUMPDEST DUP1 PUSH1 0x1F ADD PUSH1 0x20 DUP1 SWAP2 DIV MUL PUSH1 0x20 ADD PUSH1 0x40 MLOAD SWAP1 DUP2 ADD PUSH1 0x40 MSTORE DUP1 SWAP3 SWAP2 SWAP1 DUP2 DUP2 MSTORE PUSH1 0x20 ADD DUP3 DUP1 SLOAD PUSH2 0x112F SWAP1 PUSH2 0x22F5 JUMP JUMPDEST DUP1 ISZERO PUSH2 0x117C JUMPI DUP1 PUSH1 0x1F LT PUSH2 0x1151 JUMPI PUSH2 0x100 DUP1 DUP4 SLOAD DIV MUL DUP4 MSTORE SWAP2 PUSH1 0x20 ADD SWAP2 PUSH2 0x117C JUMP JUMPDEST DUP3 ADD SWAP2 SWAP1 PUSH1 0x0 MSTORE PUSH1 0x20 PUSH1 0x0 KECCAK256 SWAP1 JUMPDEST DUP2 SLOAD DUP2 MSTORE SWAP1 PUSH1 0x1 ADD SWAP1 PUSH1 0x20 ADD DUP1 DUP4 GT PUSH2 0x115F JUMPI DUP3 SWAP1 SUB PUSH1 0x1F AND DUP3 ADD SWAP2 JUMPDEST POP POP POP POP PUSH1 0xA DUP4 ADD SLOAD PUSH1 0xB SWAP1 SWAP4 ADD SLOAD SWAP2 SWAP3 SWAP2 PUSH1 0xFF DUP1 DUP3 AND SWAP3 POP PUSH2 0x100 DUP3 DIV DUP2 AND SWAP2 PUSH3 0x10000 SWAP1 DIV AND DUP15 JUMP JUMPDEST PUSH2 0x11B0 DUP10 PUSH2 0x1ACC JUMP JUMPDEST ISZERO PUSH2 0x1209 JUMPI PUSH1 0x40 MLOAD PUSH3 0x461BCD PUSH1 0xE5 SHL DUP2 MSTORE PUSH1 0x20 PUSH1 0x4 DUP3 ADD MSTORE PUSH1 0x24 DUP1 DUP3 ADD MSTORE PUSH32 0x4261746368494420616C72656164792065786973747320696E20746865207379 PUSH1 0x44 DUP3 ADD MSTORE PUSH4 0x7374656D PUSH1 0xE0 SHL PUSH1 0x64 DUP3 ADD MSTORE PUSH1 0x84 ADD PUSH2 0x443 JUMP JUMPDEST PUSH1 0x40 DUP1 MLOAD PUSH2 0x1C0 DUP2 ADD DUP3 MSTORE DUP11 DUP2 MSTORE PUSH1 0x20 DUP1 DUP3 ADD DUP11 DUP2 MSTORE PUSH1 0x0 DUP4 DUP6 ADD DUP2 DUP2 MSTORE PUSH1 0x60 DUP6 ADD DUP13 DUP2 MSTORE PUSH1 0x80 DUP7 ADD DUP13 SWAP1 MSTORE PUSH1 0xA0 DUP7 ADD DUP12 SWAP1 MSTORE PUSH1 0xC0 DUP7 ADD DUP11 SWAP1 MSTORE DUP7 MLOAD DUP1 DUP7 ADD DUP9 MSTORE DUP4 DUP2 MSTORE PUSH1 0xE0 DUP8 ADD MSTORE PUSH2 0x100 DUP7 ADD DUP10 SWAP1 MSTORE PUSH2 0x120 DUP7 ADD DUP9 SWAP1 MSTORE PUSH2 0x140 DUP7 ADD DUP4 SWAP1 MSTORE PUSH2 0x160 DUP7 ADD DUP4 SWAP1 MSTORE PUSH2 0x180 DUP7 ADD DUP4 SWAP1 MSTORE PUSH2 0x1A0 DUP7 ADD DUP4 SWAP1 MSTORE DUP16 DUP4 MSTORE PUSH1 0x3 SWAP5 DUP6 SWAP1 MSTORE SWAP6 SWAP1 SWAP2 KECCAK256 DUP5 MLOAD DUP2 SSTORE SWAP2 MLOAD PUSH1 0x1 DUP4 ADD SSTORE MLOAD PUSH1 0x2 DUP3 ADD SSTORE SWAP3 MLOAD SWAP2 SWAP3 SWAP2 SWAP1 DUP3 ADD SWAP1 PUSH2 0x12B3 SWAP1 DUP3 PUSH2 0x237E JUMP JUMPDEST POP PUSH1 0x80 DUP3 ADD MLOAD PUSH1 0x4 DUP3 ADD SSTORE PUSH1 0xA0 DUP3 ADD MLOAD PUSH1 0x5 DUP3 ADD SWAP1 PUSH2 0x12D2 SWAP1 DUP3 PUSH2 0x237E JUMP JUMPDEST POP PUSH1 0xC0 DUP3 ADD MLOAD PUSH1 0x6 DUP3 ADD SWAP1 PUSH2 0x12E7 SWAP1 DUP3 PUSH2 0x237E JUMP JUMPDEST POP PUSH1 0xE0 DUP3 ADD MLOAD PUSH1 0x7 DUP3 ADD SWAP1 PUSH2 0x12FC SWAP1 DUP3 PUSH2 0x237E JUMP JUMPDEST POP PUSH2 0x100 DUP3 ADD MLOAD PUSH1 0x8 DUP3 ADD SWAP1 PUSH2 0x1312 SWAP1 DUP3 PUSH2 0x237E JUMP JUMPDEST POP PUSH2 0x120 DUP3 ADD MLOAD PUSH1 0x9 DUP3 ADD SWAP1 PUSH2 0x1328 SWAP1 DUP3 PUSH2 0x237E JUMP JUMPDEST POP PUSH2 0x140 DUP3 ADD MLOAD PUSH1 0xA DUP3 ADD SSTORE PUSH2 0x160 DUP3 ADD MLOAD PUSH1 0xB SWAP1 SWAP2 ADD DUP1 SLOAD PUSH2 0x180 DUP5 ADD MLOAD PUSH2 0x1A0 SWAP1 SWAP5 ADD MLOAD ISZERO ISZERO PUSH3 0x10000 MUL PUSH3 0xFF0000 NOT SWAP5 ISZERO ISZERO PUSH2 0x100 MUL PUSH2 0xFF00 NOT SWAP5 ISZERO ISZERO SWAP5 SWAP1 SWAP5 AND PUSH2 0xFFFF NOT SWAP1 SWAP3 AND SWAP2 SWAP1 SWAP2 OR SWAP3 SWAP1 SWAP3 OR SWAP3 SWAP1 SWAP3 AND OR SWAP1 SSTORE PUSH1 0x9 DUP1 SLOAD PUSH1 0x1 DUP2 ADD SWAP1 SWAP2 SSTORE PUSH32 0x6E1540171B6C0C960B71A7020D9F60077F6AF931A8BBF590DA0223DACF75C7AF ADD DUP10 SWAP1 SSTORE PUSH1 0x0 DUP10 DUP2 MSTORE PUSH1 0x4 PUSH1 0x20 SWAP1 DUP2 MSTORE PUSH1 0x40 SWAP1 SWAP2 KECCAK256 DUP10 MLOAD PUSH2 0x13D1 SWAP3 DUP12 ADD SWAP1 PUSH2 0x1B66 JUMP JUMPDEST POP PUSH1 0x0 JUMPDEST DUP8 DUP2 LT ISZERO PUSH2 0x1578 JUMPI PUSH2 0x13FF DUP10 DUP3 DUP2 MLOAD DUP2 LT PUSH2 0x13F2 JUMPI PUSH2 0x13F2 PUSH2 0x24D0 JUMP JUMPDEST PUSH1 0x20 MUL PUSH1 0x20 ADD ADD MLOAD PUSH2 0x1B19 JUMP JUMPDEST ISZERO PUSH2 0x145B JUMPI PUSH1 0x40 MLOAD PUSH3 0x461BCD PUSH1 0xE5 SHL DUP2 MSTORE PUSH1 0x20 PUSH1 0x4 DUP3 ADD MSTORE PUSH1 0x26 PUSH1 0x24 DUP3 ADD MSTORE PUSH32 0x50726F64756374494420616C72656164792065786973747320696E2074686520 PUSH1 0x44 DUP3 ADD MSTORE PUSH6 0x73797374656D PUSH1 0xD0 SHL PUSH1 0x64 DUP3 ADD MSTORE PUSH1 0x84 ADD PUSH2 0x443 JUMP JUMPDEST PUSH1 0x40 MLOAD DUP1 PUSH1 0xC0 ADD PUSH1 0x40 MSTORE DUP1 DUP11 DUP4 DUP2 MLOAD DUP2 LT PUSH2 0x1478 JUMPI PUSH2 0x1478 PUSH2 0x24D0 JUMP JUMPDEST PUSH1 0x20 MUL PUSH1 0x20 ADD ADD MLOAD DUP2 MSTORE PUSH1 0x20 ADD DUP12 DUP2 MSTORE PUSH1 0x20 ADD DUP8 DUP2 MSTORE PUSH1 0x20 ADD DUP4 DUP2 MSTORE PUSH1 0x20 ADD PUSH1 0x40 MLOAD DUP1 PUSH1 0x20 ADD PUSH1 0x40 MSTORE DUP1 PUSH1 0x0 DUP2 MSTORE POP DUP2 MSTORE PUSH1 0x20 ADD PUSH1 0x0 DUP2 MSTORE POP PUSH1 0x2 PUSH1 0x0 DUP12 DUP5 DUP2 MLOAD DUP2 LT PUSH2 0x14C7 JUMPI PUSH2 0x14C7 PUSH2 0x24D0 JUMP JUMPDEST PUSH1 0x20 MUL PUSH1 0x20 ADD ADD MLOAD DUP2 MSTORE PUSH1 0x20 ADD SWAP1 DUP2 MSTORE PUSH1 0x20 ADD PUSH1 0x0 KECCAK256 PUSH1 0x0 DUP3 ADD MLOAD DUP2 PUSH1 0x0 ADD SSTORE PUSH1 0x20 DUP3 ADD MLOAD DUP2 PUSH1 0x1 ADD SSTORE PUSH1 0x40 DUP3 ADD MLOAD DUP2 PUSH1 0x2 ADD SSTORE PUSH1 0x60 DUP3 ADD MLOAD DUP2 PUSH1 0x3 ADD SWAP1 DUP2 PUSH2 0x1510 SWAP2 SWAP1 PUSH2 0x237E JUMP JUMPDEST POP PUSH1 0x80 DUP3 ADD MLOAD PUSH1 0x4 DUP3 ADD SWAP1 PUSH2 0x1525 SWAP1 DUP3 PUSH2 0x237E JUMP JUMPDEST POP PUSH1 0xA0 DUP3 ADD MLOAD DUP2 PUSH1 0x5 ADD SSTORE SWAP1 POP POP PUSH1 0x8 DUP10 DUP3 DUP2 MLOAD DUP2 LT PUSH2 0x1547 JUMPI PUSH2 0x1547 PUSH2 0x24D0 JUMP JUMPDEST PUSH1 0x20 SWAP1 DUP2 MUL SWAP2 SWAP1 SWAP2 ADD DUP2 ADD MLOAD DUP3 SLOAD PUSH1 0x1 DUP2 ADD DUP5 SSTORE PUSH1 0x0 SWAP4 DUP5 MSTORE SWAP2 SWAP1 SWAP3 KECCAK256 ADD SSTORE DUP1 PUSH2 0x1570 DUP2 PUSH2 0x24FC JUMP JUMPDEST SWAP2 POP POP PUSH2 0x13D5 JUMP JUMPDEST POP POP POP POP POP POP POP POP POP POP JUMP JUMPDEST PUSH1 0x0 DUP4 DUP2 MSTORE PUSH1 0x3 PUSH1 0x20 MSTORE PUSH1 0x40 DUP2 KECCAK256 PUSH1 0x2 ADD DUP1 SLOAD PUSH1 0x1 SWAP3 SWAP1 PUSH2 0x15A6 SWAP1 DUP5 SWAP1 PUSH2 0x2515 JUMP JUMPDEST SWAP1 SWAP2 SSTORE POP POP PUSH1 0x0 DUP3 DUP2 MSTORE PUSH1 0x2 PUSH1 0x20 MSTORE PUSH1 0x40 SWAP1 KECCAK256 PUSH1 0x4 ADD PUSH2 0x15C6 DUP3 DUP3 PUSH2 0x237E JUMP JUMPDEST POP PUSH1 0x0 DUP3 DUP2 MSTORE PUSH1 0x2 PUSH1 0x20 MSTORE PUSH1 0x40 SWAP1 DUP2 SWAP1 KECCAK256 TIMESTAMP PUSH1 0x5 SWAP2 DUP3 ADD SSTORE SWAP1 MLOAD PUSH2 0x15EB SWAP1 DUP4 SWAP1 PUSH2 0x243E JUMP JUMPDEST SWAP1 DUP2 MSTORE PUSH1 0x40 DUP1 MLOAD SWAP2 DUP3 SWAP1 SUB PUSH1 0x20 SWAP1 DUP2 ADD DUP4 KECCAK256 DUP4 DUP4 ADD SWAP1 SWAP3 MSTORE SWAP5 DUP3 MSTORE DUP2 DUP6 ADD SWAP4 DUP5 MSTORE DUP1 SLOAD PUSH1 0x1 DUP2 DUP2 ADD DUP4 SSTORE PUSH1 0x0 SWAP3 DUP4 MSTORE SWAP6 SWAP1 SWAP2 KECCAK256 SWAP2 MLOAD PUSH1 0x2 SWAP1 SWAP2 MUL SWAP1 SWAP2 ADD SWAP1 DUP2 SSTORE SWAP2 MLOAD SWAP2 SWAP1 SWAP3 ADD SSTORE POP JUMP JUMPDEST PUSH1 0x0 DUP3 DUP2 MSTORE PUSH1 0x3 PUSH1 0x20 MSTORE PUSH1 0x40 SWAP1 KECCAK256 PUSH1 0xB ADD SLOAD PUSH1 0xFF AND ISZERO PUSH2 0x16AC JUMPI PUSH1 0x40 MLOAD PUSH3 0x461BCD PUSH1 0xE5 SHL DUP2 MSTORE PUSH1 0x20 PUSH1 0x4 DUP3 ADD MSTORE PUSH1 0x2C PUSH1 0x24 DUP3 ADD MSTORE PUSH32 0x5468697320626174636820697320616C7265616479207363616E6E6564206279 PUSH1 0x44 DUP3 ADD MSTORE PUSH12 0x2074686520666163746F7279 PUSH1 0xA0 SHL PUSH1 0x64 DUP3 ADD MSTORE PUSH1 0x84 ADD PUSH2 0x443 JUMP JUMPDEST DUP1 PUSH1 0x40 MLOAD PUSH1 0x20 ADD PUSH2 0x16BD SWAP2 SWAP1 PUSH2 0x243E JUMP JUMPDEST PUSH1 0x40 DUP1 MLOAD PUSH1 0x1F NOT DUP2 DUP5 SUB ADD DUP2 MSTORE DUP3 DUP3 MSTORE DUP1 MLOAD PUSH1 0x20 SWAP2 DUP3 ADD KECCAK256 PUSH1 0x0 DUP7 DUP2 MSTORE PUSH1 0x3 DUP4 MSTORE SWAP3 SWAP1 SWAP3 KECCAK256 SWAP2 SWAP3 PUSH2 0x16F2 SWAP3 PUSH1 0x5 ADD SWAP2 ADD PUSH2 0x245A JUMP JUMPDEST PUSH1 0x40 MLOAD PUSH1 0x20 DUP2 DUP4 SUB SUB DUP2 MSTORE SWAP1 PUSH1 0x40 MSTORE DUP1 MLOAD SWAP1 PUSH1 0x20 ADD KECCAK256 EQ PUSH2 0x1765 JUMPI PUSH1 0x40 MLOAD PUSH3 0x461BCD PUSH1 0xE5 SHL DUP2 MSTORE PUSH1 0x20 PUSH1 0x4 DUP3 ADD MSTORE PUSH1 0x27 PUSH1 0x24 DUP3 ADD MSTORE PUSH32 0x54686973206261746368206973206E6F74206F776E6564206279207468697320 PUSH1 0x44 DUP3 ADD MSTORE PUSH7 0x666163746F7279 PUSH1 0xC8 SHL PUSH1 0x64 DUP3 ADD MSTORE PUSH1 0x84 ADD PUSH2 0x443 JUMP JUMPDEST POP PUSH1 0x0 SWAP1 DUP2 MSTORE PUSH1 0x3 PUSH1 0x20 MSTORE PUSH1 0x40 SWAP1 KECCAK256 PUSH1 0xB ADD DUP1 SLOAD PUSH1 0xFF NOT AND PUSH1 0x1 OR SWAP1 SSTORE JUMP JUMPDEST PUSH1 0x0 DUP3 DUP2 MSTORE PUSH1 0x3 PUSH1 0x20 MSTORE PUSH1 0x40 SWAP1 KECCAK256 PUSH1 0xB ADD SLOAD PUSH2 0x100 SWAP1 DIV PUSH1 0xFF AND ISZERO PUSH2 0x1804 JUMPI PUSH1 0x40 MLOAD PUSH3 0x461BCD PUSH1 0xE5 SHL DUP2 MSTORE PUSH1 0x20 PUSH1 0x4 DUP3 ADD MSTORE PUSH1 0x30 PUSH1 0x24 DUP3 ADD MSTORE PUSH32 0x5468697320626174636820697320616C7265616479207363616E6E6564206279 PUSH1 0x44 DUP3 ADD MSTORE PUSH16 0x103A3432903234B9BA3934B13ABA37B9 PUSH1 0x81 SHL PUSH1 0x64 DUP3 ADD MSTORE PUSH1 0x84 ADD PUSH2 0x443 JUMP JUMPDEST DUP1 PUSH1 0x40 MLOAD PUSH1 0x20 ADD PUSH2 0x1815 SWAP2 SWAP1 PUSH2 0x243E JUMP JUMPDEST PUSH1 0x40 DUP1 MLOAD PUSH1 0x1F NOT DUP2 DUP5 SUB ADD DUP2 MSTORE DUP3 DUP3 MSTORE DUP1 MLOAD PUSH1 0x20 SWAP2 DUP3 ADD KECCAK256 PUSH1 0x0 DUP7 DUP2 MSTORE PUSH1 0x3 DUP4 MSTORE SWAP3 SWAP1 SWAP3 KECCAK256 SWAP2 SWAP3 PUSH2 0x184A SWAP3 PUSH1 0x6 ADD SWAP2 ADD PUSH2 0x245A JUMP JUMPDEST PUSH1 0x40 MLOAD PUSH1 0x20 DUP2 DUP4 SUB SUB DUP2 MSTORE SWAP1 PUSH1 0x40 MSTORE DUP1 MLOAD SWAP1 PUSH1 0x20 ADD KECCAK256 EQ PUSH2 0x18C1 JUMPI PUSH1 0x40 MLOAD PUSH3 0x461BCD PUSH1 0xE5 SHL DUP2 MSTORE PUSH1 0x20 PUSH1 0x4 DUP3 ADD MSTORE PUSH1 0x2B PUSH1 0x24 DUP3 ADD MSTORE PUSH32 0x54686973206261746368206973206E6F74206F776E6564206279207468697320 PUSH1 0x44 DUP3 ADD MSTORE PUSH11 0x3234B9BA3934B13ABA37B9 PUSH1 0xA9 SHL PUSH1 0x64 DUP3 ADD MSTORE PUSH1 0x84 ADD PUSH2 0x443 JUMP JUMPDEST POP PUSH1 0x0 SWAP1 DUP2 MSTORE PUSH1 0x3 PUSH1 0x20 MSTORE PUSH1 0x40 SWAP1 KECCAK256 PUSH1 0xB ADD DUP1 SLOAD PUSH2 0xFF00 NOT AND PUSH2 0x100 OR SWAP1 SSTORE JUMP JUMPDEST PUSH1 0x2 PUSH1 0x20 DUP2 SWAP1 MSTORE PUSH1 0x0 SWAP2 DUP3 MSTORE PUSH1 0x40 SWAP1 SWAP2 KECCAK256 DUP1 SLOAD PUSH1 0x1 DUP3 ADD SLOAD SWAP3 DUP3 ADD SLOAD PUSH1 0x3 DUP4 ADD DUP1 SLOAD SWAP3 SWAP5 SWAP4 SWAP2 SWAP3 PUSH2 0x1912 SWAP1 PUSH2 0x22F5 JUMP JUMPDEST DUP1 PUSH1 0x1F ADD PUSH1 0x20 DUP1 SWAP2 DIV MUL PUSH1 0x20 ADD PUSH1 0x40 MLOAD SWAP1 DUP2 ADD PUSH1 0x40 MSTORE DUP1 SWAP3 SWAP2 SWAP1 DUP2 DUP2 MSTORE PUSH1 0x20 ADD DUP3 DUP1 SLOAD PUSH2 0x193E SWAP1 PUSH2 0x22F5 JUMP JUMPDEST DUP1 ISZERO PUSH2 0x198B JUMPI DUP1 PUSH1 0x1F LT PUSH2 0x1960 JUMPI PUSH2 0x100 DUP1 DUP4 SLOAD DIV MUL DUP4 MSTORE SWAP2 PUSH1 0x20 ADD SWAP2 PUSH2 0x198B JUMP JUMPDEST DUP3 ADD SWAP2 SWAP1 PUSH1 0x0 MSTORE PUSH1 0x20 PUSH1 0x0 KECCAK256 SWAP1 JUMPDEST DUP2 SLOAD DUP2 MSTORE SWAP1 PUSH1 0x1 ADD SWAP1 PUSH1 0x20 ADD DUP1 DUP4 GT PUSH2 0x196E JUMPI DUP3 SWAP1 SUB PUSH1 0x1F AND DUP3 ADD SWAP2 JUMPDEST POP POP POP POP POP SWAP1 DUP1 PUSH1 0x4 ADD DUP1 SLOAD PUSH2 0x19A0 SWAP1 PUSH2 0x22F5 JUMP JUMPDEST DUP1 PUSH1 0x1F ADD PUSH1 0x20 DUP1 SWAP2 DIV MUL PUSH1 0x20 ADD PUSH1 0x40 MLOAD SWAP1 DUP2 ADD PUSH1 0x40 MSTORE DUP1 SWAP3 SWAP2 SWAP1 DUP2 DUP2 MSTORE PUSH1 0x20 ADD DUP3 DUP1 SLOAD PUSH2 0x19CC SWAP1 PUSH2 0x22F5 JUMP JUMPDEST DUP1 ISZERO PUSH2 0x1A19 JUMPI DUP1 PUSH1 0x1F LT PUSH2 0x19EE JUMPI PUSH2 0x100 DUP1 DUP4 SLOAD DIV MUL DUP4 MSTORE SWAP2 PUSH1 0x20 ADD SWAP2 PUSH2 0x1A19 JUMP JUMPDEST DUP3 ADD SWAP2 SWAP1 PUSH1 0x0 MSTORE PUSH1 0x20 PUSH1 0x0 KECCAK256 SWAP1 JUMPDEST DUP2 SLOAD DUP2 MSTORE SWAP1 PUSH1 0x1 ADD SWAP1 PUSH1 0x20 ADD DUP1 DUP4 GT PUSH2 0x19FC JUMPI DUP3 SWAP1 SUB PUSH1 0x1F AND DUP3 ADD SWAP2 JUMPDEST POP POP POP POP POP SWAP1 DUP1 PUSH1 0x5 ADD SLOAD SWAP1 POP DUP7 JUMP JUMPDEST PUSH1 0x0 DUP1 JUMPDEST PUSH1 0x6 SLOAD DUP2 LT ISZERO PUSH2 0x1A76 JUMPI DUP3 PUSH1 0x6 DUP3 DUP2 SLOAD DUP2 LT PUSH2 0x1A4B JUMPI PUSH2 0x1A4B PUSH2 0x24D0 JUMP JUMPDEST SWAP1 PUSH1 0x0 MSTORE PUSH1 0x20 PUSH1 0x0 KECCAK256 ADD SLOAD SUB PUSH2 0x1A64 JUMPI POP PUSH1 0x1 SWAP3 SWAP2 POP POP JUMP JUMPDEST DUP1 PUSH2 0x1A6E DUP2 PUSH2 0x24FC JUMP JUMPDEST SWAP2 POP POP PUSH2 0x1A2D JUMP JUMPDEST POP PUSH1 0x0 SWAP3 SWAP2 POP POP JUMP JUMPDEST PUSH1 0x0 DUP1 JUMPDEST PUSH1 0x7 SLOAD DUP2 LT ISZERO PUSH2 0x1A76 JUMPI DUP3 PUSH1 0x7 DUP3 DUP2 SLOAD DUP2 LT PUSH2 0x1AA1 JUMPI PUSH2 0x1AA1 PUSH2 0x24D0 JUMP JUMPDEST SWAP1 PUSH1 0x0 MSTORE PUSH1 0x20 PUSH1 0x0 KECCAK256 ADD SLOAD SUB PUSH2 0x1ABA JUMPI POP PUSH1 0x1 SWAP3 SWAP2 POP POP JUMP JUMPDEST DUP1 PUSH2 0x1AC4 DUP2 PUSH2 0x24FC JUMP JUMPDEST SWAP2 POP POP PUSH2 0x1A83 JUMP JUMPDEST PUSH1 0x0 DUP1 JUMPDEST PUSH1 0x9 SLOAD DUP2 LT ISZERO PUSH2 0x1A76 JUMPI DUP3 PUSH1 0x9 DUP3 DUP2 SLOAD DUP2 LT PUSH2 0x1AEE JUMPI PUSH2 0x1AEE PUSH2 0x24D0 JUMP JUMPDEST SWAP1 PUSH1 0x0 MSTORE PUSH1 0x20 PUSH1 0x0 KECCAK256 ADD SLOAD SUB PUSH2 0x1B07 JUMPI POP PUSH1 0x1 SWAP3 SWAP2 POP POP JUMP JUMPDEST DUP1 PUSH2 0x1B11 DUP2 PUSH2 0x24FC JUMP JUMPDEST SWAP2 POP POP PUSH2 0x1AD0 JUMP JUMPDEST PUSH1 0x0 DUP1 JUMPDEST PUSH1 0x8 SLOAD DUP2 LT ISZERO PUSH2 0x1A76 JUMPI DUP3 PUSH1 0x8 DUP3 DUP2 SLOAD DUP2 LT PUSH2 0x1B3B JUMPI PUSH2 0x1B3B PUSH2 0x24D0 JUMP JUMPDEST SWAP1 PUSH1 0x0 MSTORE PUSH1 0x20 PUSH1 0x0 KECCAK256 ADD SLOAD SUB PUSH2 0x1B54 JUMPI POP PUSH1 0x1 SWAP3 SWAP2 POP POP JUMP JUMPDEST DUP1 PUSH2 0x1B5E DUP2 PUSH2 0x24FC JUMP JUMPDEST SWAP2 POP POP PUSH2 0x1B1D JUMP JUMPDEST DUP3 DUP1 SLOAD DUP3 DUP3 SSTORE SWAP1 PUSH1 0x0 MSTORE PUSH1 0x20 PUSH1 0x0 KECCAK256 SWAP1 DUP2 ADD SWAP3 DUP3 ISZERO PUSH2 0x1BA1 JUMPI SWAP2 PUSH1 0x20 MUL DUP3 ADD JUMPDEST DUP3 DUP2 GT ISZERO PUSH2 0x1BA1 JUMPI DUP3 MLOAD DUP3 SSTORE SWAP2 PUSH1 0x20 ADD SWAP2 SWAP1 PUSH1 0x1 ADD SWAP1 PUSH2 0x1B86 JUMP JUMPDEST POP PUSH2 0x1BAD SWAP3 SWAP2 POP PUSH2 0x1BB1 JUMP JUMPDEST POP SWAP1 JUMP JUMPDEST JUMPDEST DUP1 DUP3 GT ISZERO PUSH2 0x1BAD JUMPI PUSH1 0x0 DUP2 SSTORE PUSH1 0x1 ADD PUSH2 0x1BB2 JUMP JUMPDEST PUSH4 0x4E487B71 PUSH1 0xE0 SHL PUSH1 0x0 MSTORE PUSH1 0x41 PUSH1 0x4 MSTORE PUSH1 0x24 PUSH1 0x0 REVERT JUMPDEST PUSH1 0x40 MLOAD PUSH1 0x1F DUP3 ADD PUSH1 0x1F NOT AND DUP2 ADD PUSH8 0xFFFFFFFFFFFFFFFF DUP2 GT DUP3 DUP3 LT OR ISZERO PUSH2 0x1C05 JUMPI PUSH2 0x1C05 PUSH2 0x1BC6 JUMP JUMPDEST PUSH1 0x40 MSTORE SWAP2 SWAP1 POP JUMP JUMPDEST PUSH1 0x0 DUP3 PUSH1 0x1F DUP4 ADD SLT PUSH2 0x1C1E JUMPI PUSH1 0x0 DUP1 REVERT JUMPDEST DUP2 CALLDATALOAD PUSH8 0xFFFFFFFFFFFFFFFF DUP2 GT ISZERO PUSH2 0x1C38 JUMPI PUSH2 0x1C38 PUSH2 0x1BC6 JUMP JUMPDEST PUSH2 0x1C4B PUSH1 0x1F DUP3 ADD PUSH1 0x1F NOT AND PUSH1 0x20 ADD PUSH2 0x1BDC JUMP JUMPDEST DUP2 DUP2 MSTORE DUP5 PUSH1 0x20 DUP4 DUP7 ADD ADD GT ISZERO PUSH2 0x1C60 JUMPI PUSH1 0x0 DUP1 REVERT JUMPDEST DUP2 PUSH1 0x20 DUP6 ADD PUSH1 0x20 DUP4 ADD CALLDATACOPY PUSH1 0x0 SWAP2 DUP2 ADD PUSH1 0x20 ADD SWAP2 SWAP1 SWAP2 MSTORE SWAP4 SWAP3 POP POP POP JUMP JUMPDEST PUSH1 0x0 DUP1 PUSH1 0x40 DUP4 DUP6 SUB SLT ISZERO PUSH2 0x1C90 JUMPI PUSH1 0x0 DUP1 REVERT JUMPDEST DUP3 CALLDATALOAD PUSH8 0xFFFFFFFFFFFFFFFF DUP2 GT ISZERO PUSH2 0x1CA7 JUMPI PUSH1 0x0 DUP1 REVERT JUMPDEST PUSH2 0x1CB3 DUP6 DUP3 DUP7 ADD PUSH2 0x1C0D JUMP JUMPDEST SWAP6 PUSH1 0x20 SWAP5 SWAP1 SWAP5 ADD CALLDATALOAD SWAP5 POP POP POP POP JUMP JUMPDEST PUSH1 0x0 DUP1 PUSH1 0x0 DUP1 PUSH1 0x80 DUP6 DUP8 SUB SLT ISZERO PUSH2 0x1CD8 JUMPI PUSH1 0x0 DUP1 REVERT JUMPDEST DUP5 CALLDATALOAD SWAP4 POP PUSH1 0x20 DUP6 ADD CALLDATALOAD PUSH8 0xFFFFFFFFFFFFFFFF DUP1 DUP3 GT ISZERO PUSH2 0x1CF7 JUMPI PUSH1 0x0 DUP1 REVERT JUMPDEST PUSH2 0x1D03 DUP9 DUP4 DUP10 ADD PUSH2 0x1C0D JUMP JUMPDEST SWAP5 POP PUSH1 0x40 DUP8 ADD CALLDATALOAD SWAP2 POP DUP1 DUP3 GT ISZERO PUSH2 0x1D19 JUMPI PUSH1 0x0 DUP1 REVERT JUMPDEST PUSH2 0x1D25 DUP9 DUP4 DUP10 ADD PUSH2 0x1C0D JUMP JUMPDEST SWAP4 POP PUSH1 0x60 DUP8 ADD CALLDATALOAD SWAP2 POP DUP1 DUP3 GT ISZERO PUSH2 0x1D3B JUMPI PUSH1 0x0 DUP1 REVERT JUMPDEST POP PUSH2 0x1D48 DUP8 DUP3 DUP9 ADD PUSH2 0x1C0D JUMP JUMPDEST SWAP2 POP POP SWAP3 SWAP6 SWAP2 SWAP5 POP SWAP3 POP JUMP JUMPDEST PUSH1 0x0 PUSH1 0x20 DUP3 DUP5 SUB SLT ISZERO PUSH2 0x1D66 JUMPI PUSH1 0x0 DUP1 REVERT JUMPDEST DUP2 CALLDATALOAD PUSH8 0xFFFFFFFFFFFFFFFF DUP2 GT ISZERO PUSH2 0x1D7D JUMPI PUSH1 0x0 DUP1 REVERT JUMPDEST PUSH2 0x1D89 DUP5 DUP3 DUP6 ADD PUSH2 0x1C0D JUMP JUMPDEST SWAP5 SWAP4 POP POP POP POP JUMP JUMPDEST PUSH1 0x20 DUP1 DUP3 MSTORE DUP3 MLOAD DUP3 DUP3 ADD DUP2 SWAP1 MSTORE PUSH1 0x0 SWAP2 SWAP1 PUSH1 0x40 SWAP1 DUP2 DUP6 ADD SWAP1 DUP7 DUP5 ADD DUP6 JUMPDEST DUP3 DUP2 LT ISZERO PUSH2 0x1DD3 JUMPI DUP2 MLOAD DUP1 MLOAD DUP6 MSTORE DUP7 ADD MLOAD DUP7 DUP6 ADD MSTORE SWAP3 DUP5 ADD SWAP3 SWAP1 DUP6 ADD SWAP1 PUSH1 0x1 ADD PUSH2 0x1DAE JUMP JUMPDEST POP SWAP2 SWAP8 SWAP7 POP POP POP POP POP POP POP JUMP JUMPDEST PUSH1 0x0 PUSH1 0x20 DUP3 DUP5 SUB SLT ISZERO PUSH2 0x1DF2 JUMPI PUSH1 0x0 DUP1 REVERT JUMPDEST POP CALLDATALOAD SWAP2 SWAP1 POP JUMP JUMPDEST PUSH1 0x20 DUP1 DUP3 MSTORE DUP3 MLOAD DUP3 DUP3 ADD DUP2 SWAP1 MSTORE PUSH1 0x0 SWAP2 SWAP1 DUP5 DUP3 ADD SWAP1 PUSH1 0x40 DUP6 ADD SWAP1 DUP5 JUMPDEST DUP2 DUP2 LT ISZERO PUSH2 0x1E31 JUMPI DUP4 MLOAD DUP4 MSTORE SWAP3 DUP5 ADD SWAP3 SWAP2 DUP5 ADD SWAP2 PUSH1 0x1 ADD PUSH2 0x1E15 JUMP JUMPDEST POP SWAP1 SWAP7 SWAP6 POP POP POP POP POP POP JUMP JUMPDEST PUSH1 0x0 DUP1 PUSH1 0x40 DUP4 DUP6 SUB SLT ISZERO PUSH2 0x1E50 JUMPI PUSH1 0x0 DUP1 REVERT JUMPDEST DUP3 CALLDATALOAD SWAP2 POP PUSH1 0x20 DUP4 ADD CALLDATALOAD PUSH8 0xFFFFFFFFFFFFFFFF DUP2 GT ISZERO PUSH2 0x1E6E JUMPI PUSH1 0x0 DUP1 REVERT JUMPDEST PUSH2 0x1E7A DUP6 DUP3 DUP7 ADD PUSH2 0x1C0D JUMP JUMPDEST SWAP2 POP POP SWAP3 POP SWAP3 SWAP1 POP JUMP JUMPDEST PUSH1 0x0 JUMPDEST DUP4 DUP2 LT ISZERO PUSH2 0x1E9F JUMPI DUP2 DUP2 ADD MLOAD DUP4 DUP3 ADD MSTORE PUSH1 0x20 ADD PUSH2 0x1E87 JUMP JUMPDEST POP POP PUSH1 0x0 SWAP2 ADD MSTORE JUMP JUMPDEST PUSH1 0x0 DUP2 MLOAD DUP1 DUP5 MSTORE PUSH2 0x1EC0 DUP2 PUSH1 0x20 DUP7 ADD PUSH1 0x20 DUP7 ADD PUSH2 0x1E84 JUMP JUMPDEST PUSH1 0x1F ADD PUSH1 0x1F NOT AND SWAP3 SWAP1 SWAP3 ADD PUSH1 0x20 ADD SWAP3 SWAP2 POP POP JUMP JUMPDEST DUP5 DUP2 MSTORE PUSH1 0x80 PUSH1 0x20 DUP3 ADD MSTORE PUSH1 0x0 PUSH2 0x1EED PUSH1 0x80 DUP4 ADD DUP7 PUSH2 0x1EA8 JUMP JUMPDEST DUP3 DUP2 SUB PUSH1 0x40 DUP5 ADD MSTORE PUSH2 0x1EFF DUP2 DUP7 PUSH2 0x1EA8 JUMP JUMPDEST SWAP1 POP DUP3 DUP2 SUB PUSH1 0x60 DUP5 ADD MSTORE PUSH2 0x1F13 DUP2 DUP6 PUSH2 0x1EA8 JUMP JUMPDEST SWAP8 SWAP7 POP POP POP POP POP POP POP JUMP JUMPDEST DUP6 DUP2 MSTORE DUP5 PUSH1 0x20 DUP3 ADD MSTORE PUSH1 0xA0 PUSH1 0x40 DUP3 ADD MSTORE PUSH1 0x0 PUSH2 0x1F3D PUSH1 0xA0 DUP4 ADD DUP7 PUSH2 0x1EA8 JUMP JUMPDEST DUP5 PUSH1 0x60 DUP5 ADD MSTORE DUP3 DUP2 SUB PUSH1 0x80 DUP5 ADD MSTORE PUSH2 0x1F55 DUP2 DUP6 PUSH2 0x1EA8 JUMP JUMPDEST SWAP9 SWAP8 POP POP POP POP POP POP POP POP JUMP JUMPDEST PUSH1 0x0 DUP1 PUSH1 0x0 DUP1 PUSH1 0x0 PUSH1 0xA0 DUP7 DUP9 SUB SLT ISZERO PUSH2 0x1F79 JUMPI PUSH1 0x0 DUP1 REVERT JUMPDEST DUP6 CALLDATALOAD SWAP5 POP PUSH1 0x20 DUP7 ADD CALLDATALOAD SWAP4 POP PUSH1 0x40 DUP7 ADD CALLDATALOAD PUSH8 0xFFFFFFFFFFFFFFFF DUP1 DUP3 GT ISZERO PUSH2 0x1F9F JUMPI PUSH1 0x0 DUP1 REVERT JUMPDEST PUSH2 0x1FAB DUP10 DUP4 DUP11 ADD PUSH2 0x1C0D JUMP JUMPDEST SWAP5 POP PUSH1 0x60 DUP9 ADD CALLDATALOAD SWAP4 POP PUSH1 0x80 DUP9 ADD CALLDATALOAD SWAP2 POP DUP1 DUP3 GT ISZERO PUSH2 0x1FC8 JUMPI PUSH1 0x0 DUP1 REVERT JUMPDEST POP PUSH2 0x1FD5 DUP9 DUP3 DUP10 ADD PUSH2 0x1C0D JUMP JUMPDEST SWAP2 POP POP SWAP3 SWAP6 POP SWAP3 SWAP6 SWAP1 SWAP4 POP JUMP JUMPDEST PUSH1 0x0 DUP1 PUSH1 0x40 DUP4 DUP6 SUB SLT ISZERO PUSH2 0x1FF5 JUMPI PUSH1 0x0 DUP1 REVERT JUMPDEST POP POP DUP1 CALLDATALOAD SWAP3 PUSH1 0x20 SWAP1 SWAP2 ADD CALLDATALOAD SWAP2 POP JUMP JUMPDEST DUP15 DUP2 MSTORE DUP14 PUSH1 0x20 DUP3 ADD MSTORE DUP13 PUSH1 0x40 DUP3 ADD MSTORE PUSH2 0x1C0 PUSH1 0x60 DUP3 ADD MSTORE PUSH1 0x0 PUSH2 0x202B PUSH2 0x1C0 DUP4 ADD DUP15 PUSH2 0x1EA8 JUMP JUMPDEST DUP13 PUSH1 0x80 DUP5 ADD MSTORE DUP3 DUP2 SUB PUSH1 0xA0 DUP5 ADD MSTORE PUSH2 0x2043 DUP2 DUP14 PUSH2 0x1EA8 JUMP JUMPDEST SWAP1 POP DUP3 DUP2 SUB PUSH1 0xC0 DUP5 ADD MSTORE PUSH2 0x2057 DUP2 DUP13 PUSH2 0x1EA8 JUMP JUMPDEST SWAP1 POP DUP3 DUP2 SUB PUSH1 0xE0 DUP5 ADD MSTORE PUSH2 0x206B DUP2 DUP12 PUSH2 0x1EA8 JUMP JUMPDEST SWAP1 POP DUP3 DUP2 SUB PUSH2 0x100 DUP5 ADD MSTORE PUSH2 0x2080 DUP2 DUP11 PUSH2 0x1EA8 JUMP JUMPDEST SWAP1 POP DUP3 DUP2 SUB PUSH2 0x120 DUP5 ADD MSTORE PUSH2 0x2095 DUP2 DUP10 PUSH2 0x1EA8 JUMP JUMPDEST SWAP2 POP POP DUP6 PUSH2 0x140 DUP4 ADD MSTORE PUSH2 0x20AE PUSH2 0x160 DUP4 ADD DUP7 ISZERO ISZERO SWAP1 MSTORE JUMP JUMPDEST SWAP3 ISZERO ISZERO PUSH2 0x180 DUP3 ADD MSTORE SWAP1 ISZERO ISZERO PUSH2 0x1A0 SWAP1 SWAP2 ADD MSTORE SWAP13 SWAP12 POP POP POP POP POP POP POP POP POP POP POP POP JUMP JUMPDEST PUSH1 0x0 DUP3 PUSH1 0x1F DUP4 ADD SLT PUSH2 0x20E2 JUMPI PUSH1 0x0 DUP1 REVERT JUMPDEST DUP2 CALLDATALOAD PUSH1 0x20 PUSH8 0xFFFFFFFFFFFFFFFF DUP3 GT ISZERO PUSH2 0x20FE JUMPI PUSH2 0x20FE PUSH2 0x1BC6 JUMP JUMPDEST DUP2 PUSH1 0x5 SHL PUSH2 0x210D DUP3 DUP3 ADD PUSH2 0x1BDC JUMP JUMPDEST SWAP3 DUP4 MSTORE DUP5 DUP2 ADD DUP3 ADD SWAP3 DUP3 DUP2 ADD SWAP1 DUP8 DUP6 GT ISZERO PUSH2 0x2127 JUMPI PUSH1 0x0 DUP1 REVERT JUMPDEST DUP4 DUP8 ADD SWAP3 POP JUMPDEST DUP5 DUP4 LT ISZERO PUSH2 0x1F13 JUMPI DUP3 CALLDATALOAD DUP3 MSTORE SWAP2 DUP4 ADD SWAP2 SWAP1 DUP4 ADD SWAP1 PUSH2 0x212D JUMP JUMPDEST PUSH1 0x0 DUP1 PUSH1 0x0 DUP1 PUSH1 0x0 DUP1 PUSH1 0x0 DUP1 PUSH1 0x0 PUSH2 0x120 DUP11 DUP13 SUB SLT ISZERO PUSH2 0x2165 JUMPI PUSH1 0x0 DUP1 REVERT JUMPDEST DUP10 CALLDATALOAD SWAP9 POP PUSH1 0x20 DUP11 ADD CALLDATALOAD PUSH8 0xFFFFFFFFFFFFFFFF DUP1 DUP3 GT ISZERO PUSH2 0x2184 JUMPI PUSH1 0x0 DUP1 REVERT JUMPDEST PUSH2 0x2190 DUP14 DUP4 DUP15 ADD PUSH2 0x20D1 JUMP JUMPDEST SWAP10 POP PUSH1 0x40 DUP13 ADD CALLDATALOAD SWAP9 POP PUSH1 0x60 DUP13 ADD CALLDATALOAD SWAP2 POP DUP1 DUP3 GT ISZERO PUSH2 0x21AD JUMPI PUSH1 0x0 DUP1 REVERT JUMPDEST PUSH2 0x21B9 DUP14 DUP4 DUP15 ADD PUSH2 0x1C0D JUMP JUMPDEST SWAP8 POP PUSH1 0x80 DUP13 ADD CALLDATALOAD SWAP7 POP PUSH1 0xA0 DUP13 ADD CALLDATALOAD SWAP2 POP DUP1 DUP3 GT ISZERO PUSH2 0x21D6 JUMPI PUSH1 0x0 DUP1 REVERT JUMPDEST PUSH2 0x21E2 DUP14 DUP4 DUP15 ADD PUSH2 0x1C0D JUMP JUMPDEST SWAP6 POP PUSH1 0xC0 DUP13 ADD CALLDATALOAD SWAP2 POP DUP1 DUP3 GT ISZERO PUSH2 0x21F8 JUMPI PUSH1 0x0 DUP1 REVERT JUMPDEST PUSH2 0x2204 DUP14 DUP4 DUP15 ADD PUSH2 0x1C0D JUMP JUMPDEST SWAP5 POP PUSH1 0xE0 DUP13 ADD CALLDATALOAD SWAP2 POP DUP1 DUP3 GT ISZERO PUSH2 0x221A JUMPI PUSH1 0x0 DUP1 REVERT JUMPDEST PUSH2 0x2226 DUP14 DUP4 DUP15 ADD PUSH2 0x1C0D JUMP JUMPDEST SWAP4 POP PUSH2 0x100 DUP13 ADD CALLDATALOAD SWAP2 POP DUP1 DUP3 GT ISZERO PUSH2 0x223D JUMPI PUSH1 0x0 DUP1 REVERT JUMPDEST POP PUSH2 0x224A DUP13 DUP3 DUP14 ADD PUSH2 0x1C0D JUMP JUMPDEST SWAP2 POP POP SWAP3 SWAP6 SWAP9 POP SWAP3 SWAP6 SWAP9 POP SWAP3 SWAP6 SWAP9 JUMP JUMPDEST PUSH1 0x0 DUP1 PUSH1 0x0 PUSH1 0x60 DUP5 DUP7 SUB SLT ISZERO PUSH2 0x226F JUMPI PUSH1 0x0 DUP1 REVERT JUMPDEST DUP4 CALLDATALOAD SWAP3 POP PUSH1 0x20 DUP5 ADD CALLDATALOAD SWAP2 POP PUSH1 0x40 DUP5 ADD CALLDATALOAD PUSH8 0xFFFFFFFFFFFFFFFF DUP2 GT ISZERO PUSH2 0x2294 JUMPI PUSH1 0x0 DUP1 REVERT JUMPDEST PUSH2 0x22A0 DUP7 DUP3 DUP8 ADD PUSH2 0x1C0D JUMP JUMPDEST SWAP2 POP POP SWAP3 POP SWAP3 POP SWAP3 JUMP JUMPDEST DUP7 DUP2 MSTORE DUP6 PUSH1 0x20 DUP3 ADD MSTORE DUP5 PUSH1 0x40 DUP3 ADD MSTORE PUSH1 0xC0 PUSH1 0x60 DUP3 ADD MSTORE PUSH1 0x0 PUSH2 0x22CF PUSH1 0xC0 DUP4 ADD DUP7 PUSH2 0x1EA8 JUMP JUMPDEST DUP3 DUP2 SUB PUSH1 0x80 DUP5 ADD MSTORE PUSH2 0x22E1 DUP2 DUP7 PUSH2 0x1EA8 JUMP JUMPDEST SWAP2 POP POP DUP3 PUSH1 0xA0 DUP4 ADD MSTORE SWAP8 SWAP7 POP POP POP POP POP POP POP JUMP JUMPDEST PUSH1 0x1 DUP2 DUP2 SHR SWAP1 DUP3 AND DUP1 PUSH2 0x2309 JUMPI PUSH1 0x7F DUP3 AND SWAP2 POP JUMPDEST PUSH1 0x20 DUP3 LT DUP2 SUB PUSH2 0x2329 JUMPI PUSH4 0x4E487B71 PUSH1 0xE0 SHL PUSH1 0x0 MSTORE PUSH1 0x22 PUSH1 0x4 MSTORE PUSH1 0x24 PUSH1 0x0 REVERT JUMPDEST POP SWAP2 SWAP1 POP JUMP JUMPDEST PUSH1 0x1F DUP3 GT ISZERO PUSH2 0x2379 JUMPI PUSH1 0x0 DUP2 DUP2 MSTORE PUSH1 0x20 DUP2 KECCAK256 PUSH1 0x1F DUP6 ADD PUSH1 0x5 SHR DUP2 ADD PUSH1 0x20 DUP7 LT ISZERO PUSH2 0x2356 JUMPI POP DUP1 JUMPDEST PUSH1 0x1F DUP6 ADD PUSH1 0x5 SHR DUP3 ADD SWAP2 POP JUMPDEST DUP2 DUP2 LT ISZERO PUSH2 0x2375 JUMPI DUP3 DUP2 SSTORE PUSH1 0x1 ADD PUSH2 0x2362 JUMP JUMPDEST POP POP POP JUMPDEST POP POP POP JUMP JUMPDEST DUP2 MLOAD PUSH8 0xFFFFFFFFFFFFFFFF DUP2 GT ISZERO PUSH2 0x2398 JUMPI PUSH2 0x2398 PUSH2 0x1BC6 JUMP JUMPDEST PUSH2 0x23AC DUP2 PUSH2 0x23A6 DUP5 SLOAD PUSH2 0x22F5 JUMP JUMPDEST DUP5 PUSH2 0x232F JUMP JUMPDEST PUSH1 0x20 DUP1 PUSH1 0x1F DUP4 GT PUSH1 0x1 DUP2 EQ PUSH2 0x23E1 JUMPI PUSH1 0x0 DUP5 ISZERO PUSH2 0x23C9 JUMPI POP DUP6 DUP4 ADD MLOAD JUMPDEST PUSH1 0x0 NOT PUSH1 0x3 DUP7 SWAP1 SHL SHR NOT AND PUSH1 0x1 DUP6 SWAP1 SHL OR DUP6 SSTORE PUSH2 0x2375 JUMP JUMPDEST PUSH1 0x0 DUP6 DUP2 MSTORE PUSH1 0x20 DUP2 KECCAK256 PUSH1 0x1F NOT DUP7 AND SWAP2 JUMPDEST DUP3 DUP2 LT ISZERO PUSH2 0x2410 JUMPI DUP9 DUP7 ADD MLOAD DUP3 SSTORE SWAP5 DUP5 ADD SWAP5 PUSH1 0x1 SWAP1 SWAP2 ADD SWAP1 DUP5 ADD PUSH2 0x23F1 JUMP JUMPDEST POP DUP6 DUP3 LT ISZERO PUSH2 0x242E JUMPI DUP8 DUP6 ADD MLOAD PUSH1 0x0 NOT PUSH1 0x3 DUP9 SWAP1 SHL PUSH1 0xF8 AND SHR NOT AND DUP2 SSTORE JUMPDEST POP POP POP POP POP PUSH1 0x1 SWAP1 DUP2 SHL ADD SWAP1 SSTORE POP JUMP JUMPDEST PUSH1 0x0 DUP3 MLOAD PUSH2 0x2450 DUP2 DUP5 PUSH1 0x20 DUP8 ADD PUSH2 0x1E84 JUMP JUMPDEST SWAP2 SWAP1 SWAP2 ADD SWAP3 SWAP2 POP POP JUMP JUMPDEST PUSH1 0x0 DUP1 DUP4 SLOAD PUSH2 0x2468 DUP2 PUSH2 0x22F5 JUMP JUMPDEST PUSH1 0x1 DUP3 DUP2 AND DUP1 ISZERO PUSH2 0x2480 JUMPI PUSH1 0x1 DUP2 EQ PUSH2 0x2495 JUMPI PUSH2 0x24C4 JUMP JUMPDEST PUSH1 0xFF NOT DUP5 AND DUP8 MSTORE DUP3 ISZERO ISZERO DUP4 MUL DUP8 ADD SWAP5 POP PUSH2 0x24C4 JUMP JUMPDEST DUP8 PUSH1 0x0 MSTORE PUSH1 0x20 DUP1 PUSH1 0x0 KECCAK256 PUSH1 0x0 JUMPDEST DUP6 DUP2 LT ISZERO PUSH2 0x24BB JUMPI DUP2 SLOAD DUP11 DUP3 ADD MSTORE SWAP1 DUP5 ADD SWAP1 DUP3 ADD PUSH2 0x24A2 JUMP JUMPDEST POP POP POP DUP3 DUP8 ADD SWAP5 POP JUMPDEST POP SWAP3 SWAP7 SWAP6 POP POP POP POP POP POP JUMP JUMPDEST PUSH4 0x4E487B71 PUSH1 0xE0 SHL PUSH1 0x0 MSTORE PUSH1 0x32 PUSH1 0x4 MSTORE PUSH1 0x24 PUSH1 0x0 REVERT JUMPDEST PUSH4 0x4E487B71 PUSH1 0xE0 SHL PUSH1 0x0 MSTORE PUSH1 0x11 PUSH1 0x4 MSTORE PUSH1 0x24 PUSH1 0x0 REVERT JUMPDEST PUSH1 0x0 PUSH1 0x1 DUP3 ADD PUSH2 0x250E JUMPI PUSH2 0x250E PUSH2 0x24E6 JUMP JUMPDEST POP PUSH1 0x1 ADD SWAP1 JUMP JUMPDEST DUP1 DUP3 ADD DUP1 DUP3 GT ISZERO PUSH2 0x2528 JUMPI PUSH2 0x2528 PUSH2 0x24E6 JUMP JUMPDEST SWAP3 SWAP2 POP POP JUMP INVALID LOG2 PUSH5 0x6970667358 0x22 SLT KECCAK256 GAS SUB SWAP4 0xA5 0x2F 0xC5 JUMPI 0xC1 0x5D SWAP2 0xC3 POP 0xED CALLCODE PUSH12 0xADC44DC5A51327FBFE886B5D PUSH32 0xC7573E6964736F6C634300081100330000000000000000000000000000000000 "},"methodIdentifiers":{"BatchIDToProductIDMapping(uint256,uint256)":"90973cce","BatchIDs(uint256)":"8bd42880","BatchMapping(uint256)":"bf801df1","BatchTemplateIDs(uint256)":"4ca20f34","BatchTemplateMAP(uint256)":"7ae4ee04","CustomerData(string,uint256)":"21f29391","ProductIDs(uint256)":"a78317f8","ProductMapping(uint256)":"eac0e977","ProductTemplateIDs(uint256)":"3ab95f30","ProductTemplateMAP(uint256)":"71d1dc0c","addBatchTemplate(uint256,uint256,string,uint256,string)":"8e5452b8","addProductTemplate(uint256,string,string,string)":"278338e8","batchProduced(uint256,uint256[],uint256,string,uint256,string,string,string,string)":"c492384f","distributorScansBatch(uint256,string)":"d976f930","distributorSellToRetailer(uint256,string)":"5aaa718e","factoryScansBatch(uint256,string)":"d5932cc4","getAllBatchIDs()":"793560dd","getAllBatchTemplateIDs()":"4c27729c","getAllProductIDs()":"8c4c42cd","getAllProductTemplateIDs()":"3b7d255c","getAllProductsBought(string)":"284328d0","getProductIdsForaBatch(uint256)":"392a70a6","retailerScansBatch(uint256,string)":"7fdd55f5","retailerSellToCustomer(uint256,uint256,string)":"d16ad4e0"}}}}}