{
  "_format": "hh-sol-artifact-1",
  "contractName": "Supplychain",
  "sourceName": "contracts/Supplychain.sol",
  "abi": [
    {
      "inputs": [
        {
          "internalType": "uint256",
          "name": "",
          "type": "uint256"
        },
        {
          "internalType": "uint256",
          "name": "",
          "type": "uint256"
        }
      ],
      "name": "BatchIDToProductIDMapping",
      "outputs": [
        {
          "internalType": "uint256",
          "name": "",
          "type": "uint256"
        }
      ],
      "stateMutability": "view",
      "type": "function"
    },
    {
      "inputs": [
        {
          "internalType": "uint256",
          "name": "",
          "type": "uint256"
        }
      ],
      "name": "BatchIDs",
      "outputs": [
        {
          "internalType": "uint256",
          "name": "",
          "type": "uint256"
        }
      ],
      "stateMutability": "view",
      "type": "function"
    },
    {
      "inputs": [
        {
          "internalType": "uint256",
          "name": "",
          "type": "uint256"
        }
      ],
      "name": "BatchMapping",
      "outputs": [
        {
          "internalType": "uint256",
          "name": "BatchID",
          "type": "uint256"
        },
        {
          "internalType": "uint256",
          "name": "BatchSize",
          "type": "uint256"
        },
        {
          "internalType": "uint256",
          "name": "AmountSoldTOCustomer",
          "type": "uint256"
        },
        {
          "internalType": "string",
          "name": "BatchDescription",
          "type": "string"
        },
        {
          "internalType": "uint256",
          "name": "ProductTemplateID",
          "type": "uint256"
        },
        {
          "internalType": "string",
          "name": "FactoryID",
          "type": "string"
        },
        {
          "internalType": "string",
          "name": "DistributorID",
          "type": "string"
        },
        {
          "internalType": "string",
          "name": "FactoryLocation",
          "type": "string"
        },
        {
          "internalType": "string",
          "name": "DateOfProduction",
          "type": "string"
        },
        {
          "internalType": "uint256",
          "name": "State",
          "type": "uint256"
        },
        {
          "internalType": "bool",
          "name": "DistributorScanned",
          "type": "bool"
        },
        {
          "internalType": "string",
          "name": "DistributorScannedTimeStamp",
          "type": "string"
        },
        {
          "internalType": "uint256",
          "name": "AmountLeftForSellingTORetailer",
          "type": "uint256"
        }
      ],
      "stateMutability": "view",
      "type": "function"
    },
    {
      "inputs": [
        {
          "internalType": "uint256",
          "name": "",
          "type": "uint256"
        }
      ],
      "name": "BatchTemplateIDs",
      "outputs": [
        {
          "internalType": "uint256",
          "name": "",
          "type": "uint256"
        }
      ],
      "stateMutability": "view",
      "type": "function"
    },
    {
      "inputs": [
        {
          "internalType": "uint256",
          "name": "",
          "type": "uint256"
        }
      ],
      "name": "BatchTemplateMAP",
      "outputs": [
        {
          "internalType": "uint256",
          "name": "BatchTemplateID",
          "type": "uint256"
        },
        {
          "internalType": "uint256",
          "name": "ProductTemplateID",
          "type": "uint256"
        },
        {
          "internalType": "string",
          "name": "Description",
          "type": "string"
        },
        {
          "internalType": "uint256",
          "name": "BatchSize",
          "type": "uint256"
        },
        {
          "internalType": "string",
          "name": "FactoryID",
          "type": "string"
        }
      ],
      "stateMutability": "view",
      "type": "function"
    },
    {
      "inputs": [
        {
          "internalType": "string",
          "name": "",
          "type": "string"
        },
        {
          "internalType": "uint256",
          "name": "",
          "type": "uint256"
        }
      ],
      "name": "CustomerData",
      "outputs": [
        {
          "internalType": "uint256",
          "name": "BatchID",
          "type": "uint256"
        },
        {
          "internalType": "uint256",
          "name": "ProductID",
          "type": "uint256"
        }
      ],
      "stateMutability": "view",
      "type": "function"
    },
    {
      "inputs": [
        {
          "internalType": "string",
          "name": "",
          "type": "string"
        },
        {
          "internalType": "uint256",
          "name": "",
          "type": "uint256"
        }
      ],
      "name": "DistributorIDToRetailerStruct",
      "outputs": [
        {
          "internalType": "string",
          "name": "DistributorID",
          "type": "string"
        },
        {
          "internalType": "string",
          "name": "RetailerID",
          "type": "string"
        },
        {
          "internalType": "uint256",
          "name": "BatchID",
          "type": "uint256"
        },
        {
          "internalType": "uint256",
          "name": "Quantity",
          "type": "uint256"
        },
        {
          "internalType": "string",
          "name": "TimeStamp",
          "type": "string"
        }
      ],
      "stateMutability": "view",
      "type": "function"
    },
    {
      "inputs": [
        {
          "internalType": "uint256",
          "name": "",
          "type": "uint256"
        }
      ],
      "name": "ProductIDs",
      "outputs": [
        {
          "internalType": "uint256",
          "name": "",
          "type": "uint256"
        }
      ],
      "stateMutability": "view",
      "type": "function"
    },
    {
      "inputs": [
        {
          "internalType": "uint256",
          "name": "",
          "type": "uint256"
        }
      ],
      "name": "ProductMapping",
      "outputs": [
        {
          "internalType": "uint256",
          "name": "ProductID",
          "type": "uint256"
        },
        {
          "internalType": "uint256",
          "name": "BatchID",
          "type": "uint256"
        },
        {
          "internalType": "uint256",
          "name": "ProductTemplateID",
          "type": "uint256"
        },
        {
          "internalType": "string",
          "name": "DOM",
          "type": "string"
        },
        {
          "internalType": "string",
          "name": "CustomerID",
          "type": "string"
        },
        {
          "internalType": "string",
          "name": "RetailerID",
          "type": "string"
        },
        {
          "internalType": "bool",
          "name": "RetailerScanned",
          "type": "bool"
        },
        {
          "internalType": "string",
          "name": "RetailerScannedTimeStamp",
          "type": "string"
        },
        {
          "internalType": "string",
          "name": "DateWhenSoldToRetailer",
          "type": "string"
        },
        {
          "internalType": "string",
          "name": "DateWhenSoldToCustomer",
          "type": "string"
        }
      ],
      "stateMutability": "view",
      "type": "function"
    },
    {
      "inputs": [
        {
          "internalType": "uint256",
          "name": "",
          "type": "uint256"
        }
      ],
      "name": "ProductTemplateIDs",
      "outputs": [
        {
          "internalType": "uint256",
          "name": "",
          "type": "uint256"
        }
      ],
      "stateMutability": "view",
      "type": "function"
    },
    {
      "inputs": [
        {
          "internalType": "uint256",
          "name": "",
          "type": "uint256"
        }
      ],
      "name": "ProductTemplateMAP",
      "outputs": [
        {
          "internalType": "uint256",
          "name": "ProductTemplateID",
          "type": "uint256"
        },
        {
          "internalType": "string",
          "name": "Name",
          "type": "string"
        },
        {
          "internalType": "string",
          "name": "Description",
          "type": "string"
        },
        {
          "internalType": "string",
          "name": "FactoryID",
          "type": "string"
        }
      ],
      "stateMutability": "view",
      "type": "function"
    },
    {
      "inputs": [
        {
          "internalType": "string",
          "name": "",
          "type": "string"
        },
        {
          "internalType": "uint256",
          "name": "",
          "type": "uint256"
        }
      ],
      "name": "RetailerIDToRetailerStruct",
      "outputs": [
        {
          "internalType": "string",
          "name": "DistributorID",
          "type": "string"
        },
        {
          "internalType": "string",
          "name": "RetailerID",
          "type": "string"
        },
        {
          "internalType": "uint256",
          "name": "BatchID",
          "type": "uint256"
        },
        {
          "internalType": "uint256",
          "name": "Quantity",
          "type": "uint256"
        },
        {
          "internalType": "string",
          "name": "TimeStamp",
          "type": "string"
        }
      ],
      "stateMutability": "view",
      "type": "function"
    },
    {
      "inputs": [
        {
          "internalType": "uint256",
          "name": "_batchTemplateID",
          "type": "uint256"
        },
        {
          "internalType": "uint256",
          "name": "_productTemplateID",
          "type": "uint256"
        },
        {
          "internalType": "string",
          "name": "_description",
          "type": "string"
        },
        {
          "internalType": "uint256",
          "name": "_batchSize",
          "type": "uint256"
        },
        {
          "internalType": "string",
          "name": "_factoryID",
          "type": "string"
        }
      ],
      "name": "addBatchTemplate",
      "outputs": [],
      "stateMutability": "nonpayable",
      "type": "function"
    },
    {
      "inputs": [
        {
          "internalType": "uint256",
          "name": "_productTemplateID",
          "type": "uint256"
        },
        {
          "internalType": "string",
          "name": "_name",
          "type": "string"
        },
        {
          "internalType": "string",
          "name": "_description",
          "type": "string"
        },
        {
          "internalType": "string",
          "name": "_factoryID",
          "type": "string"
        }
      ],
      "name": "addProductTemplate",
      "outputs": [],
      "stateMutability": "nonpayable",
      "type": "function"
    },
    {
      "inputs": [
        {
          "internalType": "uint256",
          "name": "batchID",
          "type": "uint256"
        },
        {
          "internalType": "uint256[]",
          "name": "productIDs",
          "type": "uint256[]"
        },
        {
          "internalType": "uint256",
          "name": "batchSize",
          "type": "uint256"
        },
        {
          "internalType": "string",
          "name": "batchDescription",
          "type": "string"
        },
        {
          "internalType": "uint256",
          "name": "productTemplateID",
          "type": "uint256"
        },
        {
          "internalType": "string",
          "name": "factory",
          "type": "string"
        },
        {
          "internalType": "string",
          "name": "distributor",
          "type": "string"
        },
        {
          "internalType": "string",
          "name": "factoryLocation",
          "type": "string"
        },
        {
          "internalType": "string",
          "name": "dateOfProduction",
          "type": "string"
        }
      ],
      "name": "batchProduced",
      "outputs": [],
      "stateMutability": "nonpayable",
      "type": "function"
    },
    {
      "inputs": [
        {
          "internalType": "uint256",
          "name": "batchID",
          "type": "uint256"
        },
        {
          "internalType": "string",
          "name": "_distributorID",
          "type": "string"
        },
        {
          "internalType": "string",
          "name": "timeStamp",
          "type": "string"
        }
      ],
      "name": "distributorScansBatch",
      "outputs": [],
      "stateMutability": "nonpayable",
      "type": "function"
    },
    {
      "inputs": [
        {
          "internalType": "uint256",
          "name": "batchID",
          "type": "uint256"
        },
        {
          "internalType": "uint256",
          "name": "quantity",
          "type": "uint256"
        },
        {
          "internalType": "string",
          "name": "retailerID",
          "type": "string"
        },
        {
          "internalType": "string",
          "name": "timeStamp",
          "type": "string"
        }
      ],
      "name": "distributorSellToRetailer",
      "outputs": [],
      "stateMutability": "nonpayable",
      "type": "function"
    },
    {
      "inputs": [],
      "name": "getAllBatchIDs",
      "outputs": [
        {
          "internalType": "uint256[]",
          "name": "",
          "type": "uint256[]"
        }
      ],
      "stateMutability": "view",
      "type": "function"
    },
    {
      "inputs": [],
      "name": "getAllBatchTemplateIDs",
      "outputs": [
        {
          "internalType": "uint256[]",
          "name": "",
          "type": "uint256[]"
        }
      ],
      "stateMutability": "view",
      "type": "function"
    },
    {
      "inputs": [],
      "name": "getAllProductIDs",
      "outputs": [
        {
          "internalType": "uint256[]",
          "name": "",
          "type": "uint256[]"
        }
      ],
      "stateMutability": "view",
      "type": "function"
    },
    {
      "inputs": [],
      "name": "getAllProductTemplateIDs",
      "outputs": [
        {
          "internalType": "uint256[]",
          "name": "",
          "type": "uint256[]"
        }
      ],
      "stateMutability": "view",
      "type": "function"
    },
    {
      "inputs": [
        {
          "internalType": "string",
          "name": "customerID",
          "type": "string"
        }
      ],
      "name": "getAllProductsBought",
      "outputs": [
        {
          "components": [
            {
              "internalType": "uint256",
              "name": "BatchID",
              "type": "uint256"
            },
            {
              "internalType": "uint256",
              "name": "ProductID",
              "type": "uint256"
            }
          ],
          "internalType": "struct Supplychain.Customer[]",
          "name": "",
          "type": "tuple[]"
        }
      ],
      "stateMutability": "view",
      "type": "function"
    },
    {
      "inputs": [
        {
          "internalType": "string",
          "name": "distributorID",
          "type": "string"
        }
      ],
      "name": "getDistributorIDToRetailerStruct",
      "outputs": [
        {
          "components": [
            {
              "internalType": "string",
              "name": "DistributorID",
              "type": "string"
            },
            {
              "internalType": "string",
              "name": "RetailerID",
              "type": "string"
            },
            {
              "internalType": "uint256",
              "name": "BatchID",
              "type": "uint256"
            },
            {
              "internalType": "uint256",
              "name": "Quantity",
              "type": "uint256"
            },
            {
              "internalType": "string",
              "name": "TimeStamp",
              "type": "string"
            }
          ],
          "internalType": "struct Supplychain.Retailer[]",
          "name": "",
          "type": "tuple[]"
        }
      ],
      "stateMutability": "view",
      "type": "function"
    },
    {
      "inputs": [
        {
          "internalType": "uint256",
          "name": "batchID",
          "type": "uint256"
        }
      ],
      "name": "getProductIdsForaBatch",
      "outputs": [
        {
          "internalType": "uint256[]",
          "name": "",
          "type": "uint256[]"
        }
      ],
      "stateMutability": "view",
      "type": "function"
    },
    {
      "inputs": [
        {
          "internalType": "string",
          "name": "retailerID",
          "type": "string"
        }
      ],
      "name": "getRetailerIDToRetailerStruct",
      "outputs": [
        {
          "components": [
            {
              "internalType": "string",
              "name": "DistributorID",
              "type": "string"
            },
            {
              "internalType": "string",
              "name": "RetailerID",
              "type": "string"
            },
            {
              "internalType": "uint256",
              "name": "BatchID",
              "type": "uint256"
            },
            {
              "internalType": "uint256",
              "name": "Quantity",
              "type": "uint256"
            },
            {
              "internalType": "string",
              "name": "TimeStamp",
              "type": "string"
            }
          ],
          "internalType": "struct Supplychain.Retailer[]",
          "name": "",
          "type": "tuple[]"
        }
      ],
      "stateMutability": "view",
      "type": "function"
    },
    {
      "inputs": [
        {
          "internalType": "uint256",
          "name": "_productID",
          "type": "uint256"
        },
        {
          "internalType": "string",
          "name": "_retailerID",
          "type": "string"
        },
        {
          "internalType": "string",
          "name": "timeStamp",
          "type": "string"
        }
      ],
      "name": "retailerScansProduct",
      "outputs": [],
      "stateMutability": "nonpayable",
      "type": "function"
    },
    {
      "inputs": [
        {
          "internalType": "uint256",
          "name": "batchID",
          "type": "uint256"
        },
        {
          "internalType": "uint256",
          "name": "quantity",
          "type": "uint256"
        },
        {
          "internalType": "string",
          "name": "retailerID",
          "type": "string"
        },
        {
          "internalType": "string",
          "name": "timeStamp",
          "type": "string"
        }
      ],
      "name": "retailerSellToAnotherRetailer",
      "outputs": [],
      "stateMutability": "nonpayable",
      "type": "function"
    },
    {
      "inputs": [
        {
          "internalType": "uint256",
          "name": "batchID",
          "type": "uint256"
        },
        {
          "internalType": "uint256",
          "name": "productID",
          "type": "uint256"
        },
        {
          "internalType": "string",
          "name": "customerID",
          "type": "string"
        },
        {
          "internalType": "string",
          "name": "timeStamp",
          "type": "string"
        }
      ],
      "name": "retailerSellToCustomer",
      "outputs": [],
      "stateMutability": "nonpayable",
      "type": "function"
    }
  ],
  "bytecode": "0x608060405234801561001057600080fd5b50613e00806100206000396000f3fe608060405234801561001057600080fd5b50600436106101c45760003560e01c80638bd42880116100f9578063bf801df111610097578063e3c6a4ac11610071578063e3c6a4ac14610401578063eac0e97714610414578063ecc4217c1461043d578063ee55fae21461045057600080fd5b8063bf801df11461039e578063c492384f146103ca578063e139f994146103dd57600080fd5b806390973cce116100d357806390973cce14610352578063a78317f814610365578063a7a4523d14610378578063b84a6f221461038b57600080fd5b80638bd42880146103245780638c4c42cd146103375780638e5452b81461033f57600080fd5b80634ca20f3411610166578063793560dd11610140578063793560dd146102c55780637ae4ee04146102cd5780637f7bf690146102f15780638272d34b1461031157600080fd5b80634ca20f341461027c578063684173741461028f57806371d1dc0c146102a257600080fd5b8063392a70a6116101a2578063392a70a61461022b5780633ab95f301461024b5780633b7d255c1461026c5780634c27729c1461027457600080fd5b806321f29391146101c9578063278338e8146101f6578063284328d01461020b575b600080fd5b6101dc6101d73660046133a7565b610463565b604080519283526020830191909152015b60405180910390f35b6102096102043660046133ec565b6104ae565b005b61021e61021936600461347e565b6105d3565b6040516101ed91906134bb565b61023e61023936600461350a565b610664565b6040516101ed9190613523565b61025e61025936600461350a565b6106c6565b6040519081526020016101ed565b61023e6106e7565b61023e61073f565b61025e61028a36600461350a565b610795565b61020961029d366004613567565b6107a5565b6102b56102b036600461350a565b610f4e565b6040516101ed94939291906135f3565b61023e61110f565b6102e06102db36600461350a565b611165565b6040516101ed95949392919061363d565b6103046102ff36600461347e565b6112a5565b6040516101ed9190613680565b61020961031f366004613737565b6114e1565b61025e61033236600461350a565b611649565b61023e611659565b61020961034d3660046137a4565b6116af565b61025e610360366004613825565b611857565b61025e61037336600461350a565b611888565b61030461038636600461347e565b611898565b610209610399366004613567565b611ad4565b6103b16103ac36600461350a565b611b90565b6040516101ed9d9c9b9a99989796959493929190613847565b6102096103d8366004613980565b611f2e565b6103f06103eb3660046133a7565b61240d565b6040516101ed959493929190613a94565b6103f061040f3660046133a7565b612584565b61042761042236600461350a565b6125af565b6040516101ed9a99989796959493929190613ad9565b61020961044b366004613737565b612937565b61020961045e366004613567565b612a95565b8151602081840181018051600582529282019185019190912091905280548290811061048e57600080fd5b600091825260209091206002909102018054600190910154909250905082565b6104b784613153565b156105255760405162461bcd60e51b815260206004820152603360248201527f546869732050726f6475637454656d706c617465494420616c72656164792065604482015272786973747320696e207468652073797374656d60681b60648201526084015b60405180910390fd5b60408051608081018252858152602080820186815282840186905260608301859052600088815291829052929020815181559151909190600182019061056b9082613c07565b50604082015160028201906105809082613c07565b50606082015160038201906105959082613c07565b5050600880546001810182556000919091527ff3f7a9fe364faab93b216da50a3214154f22a0a2b415b23a84c8169e8b636ee3019490945550505050565b60606005826040516105e59190613cc7565b9081526020016040518091039020805480602002602001604051908101604052809291908181526020016000905b8282101561065957838290600052602060002090600202016040518060400160405290816000820154815260200160018201548152505081526020019060010190610613565b505050509050919050565b6000818152600460209081526040918290208054835181840281018401909452808452606093928301828280156106ba57602002820191906000526020600020905b8154815260200190600101908083116106a6575b50505050509050919050565b600881815481106106d657600080fd5b600091825260209091200154905081565b6060600880548060200260200160405190810160405280929190818152602001828054801561073557602002820191906000526020600020905b815481526020019060010190808311610721575b5050505050905090565b606060098054806020026020016040519081016040528092919081815260200182805480156107355760200282019190600052602060002090815481526020019060010190808311610721575050505050905090565b600981815481106106d657600080fd5b6000848152600360205260408120600c8101546001820154600690920180549193916107d090613b7e565b80601f01602080910402602001604051908101604052809291908181526020018280546107fc90613b7e565b80156108495780601f1061081e57610100808354040283529160200191610849565b820191906000526020600020905b81548152906001019060200180831161082c57829003601f168201915b505050505090506000861161089a5760405162461bcd60e51b81526020600482015260176024820152765175616e746974792063616e6e6f74206265207a65726f60481b604482015260640161051c565b60006108a68484613cf9565b6000898152600460209081526040808320805482518185028101850190935280835294955092939092918301828280156108ff57602002820191906000526020600020905b8154815260200190600101908083116108eb575b509394508593505050505b6109148984613d12565b811015610de357600082828151811061092f5761092f613d25565b602002602001015190506000600260008381526020019081526020016000206040518061014001604052908160008201548152602001600182015481526020016002820154815260200160038201805461098890613b7e565b80601f01602080910402602001604051908101604052809291908181526020018280546109b490613b7e565b8015610a015780601f106109d657610100808354040283529160200191610a01565b820191906000526020600020905b8154815290600101906020018083116109e457829003601f168201915b50505050508152602001600482018054610a1a90613b7e565b80601f0160208091040260200160405190810160405280929190818152602001828054610a4690613b7e565b8015610a935780601f10610a6857610100808354040283529160200191610a93565b820191906000526020600020905b815481529060010190602001808311610a7657829003601f168201915b50505050508152602001600582018054610aac90613b7e565b80601f0160208091040260200160405190810160405280929190818152602001828054610ad890613b7e565b8015610b255780601f10610afa57610100808354040283529160200191610b25565b820191906000526020600020905b815481529060010190602001808311610b0857829003601f168201915b5050509183525050600682015460ff1615156020820152600782018054604090920191610b5190613b7e565b80601f0160208091040260200160405190810160405280929190818152602001828054610b7d90613b7e565b8015610bca5780601f10610b9f57610100808354040283529160200191610bca565b820191906000526020600020905b815481529060010190602001808311610bad57829003601f168201915b50505050508152602001600882018054610be390613b7e565b80601f0160208091040260200160405190810160405280929190818152602001828054610c0f90613b7e565b8015610c5c5780601f10610c3157610100808354040283529160200191610c5c565b820191906000526020600020905b815481529060010190602001808311610c3f57829003601f168201915b50505050508152602001600982018054610c7590613b7e565b80601f0160208091040260200160405190810160405280929190818152602001828054610ca190613b7e565b8015610cee5780601f10610cc357610100808354040283529160200191610cee565b820191906000526020600020905b815481529060010190602001808311610cd157829003601f168201915b5050509190925250505060a081018b905261010081018a9052600083815260026020818152604092839020845181559084015160018201559183015190820155606082015191925082916003820190610d479082613c07565b5060808201516004820190610d5c9082613c07565b5060a08201516005820190610d719082613c07565b5060c082015160068201805460ff191691151591909117905560e08201516007820190610d9e9082613c07565b506101008201516008820190610db49082613c07565b506101208201516009820190610dca9082613c07565b5090505050508080610ddb90613d3b565b91505061090a565b506000898152600360205260408120600c0180548a9290610e05908490613cf9565b90915550506040805160a081018252848152602081018990528082018b9052606081018a9052608081018890529051600690610e42908690613cc7565b908152604051602091819003820190208054600181018255600091825291902082518392600502909101908190610e799082613c07565b5060208201516001820190610e8e9082613c07565b50604082015160028201556060820151600382015560808201516004820190610eb79082613c07565b505050600788604051610eca9190613cc7565b908152604051602091819003820190208054600181018255600091825291902082518392600502909101908190610f019082613c07565b5060208201516001820190610f169082613c07565b50604082015160028201556060820151600382015560808201516004820190610f3f9082613c07565b50505050505050505050505050565b60006020819052908152604090208054600182018054919291610f7090613b7e565b80601f0160208091040260200160405190810160405280929190818152602001828054610f9c90613b7e565b8015610fe95780601f10610fbe57610100808354040283529160200191610fe9565b820191906000526020600020905b815481529060010190602001808311610fcc57829003601f168201915b505050505090806002018054610ffe90613b7e565b80601f016020809104026020016040519081016040528092919081815260200182805461102a90613b7e565b80156110775780601f1061104c57610100808354040283529160200191611077565b820191906000526020600020905b81548152906001019060200180831161105a57829003601f168201915b50505050509080600301805461108c90613b7e565b80601f01602080910402602001604051908101604052809291908181526020018280546110b890613b7e565b80156111055780601f106110da57610100808354040283529160200191611105565b820191906000526020600020905b8154815290600101906020018083116110e857829003601f168201915b5050505050905084565b6060600b8054806020026020016040519081016040528092919081815260200182805480156107355760200282019190600052602060002090815481526020019060010190808311610721575050505050905090565b600160208190526000918252604090912080549181015460028201805491929161118e90613b7e565b80601f01602080910402602001604051908101604052809291908181526020018280546111ba90613b7e565b80156112075780601f106111dc57610100808354040283529160200191611207565b820191906000526020600020905b8154815290600101906020018083116111ea57829003601f168201915b50505050509080600301549080600401805461122290613b7e565b80601f016020809104026020016040519081016040528092919081815260200182805461124e90613b7e565b801561129b5780601f106112705761010080835404028352916020019161129b565b820191906000526020600020905b81548152906001019060200180831161127e57829003601f168201915b5050505050905085565b60606006826040516112b79190613cc7565b9081526020016040518091039020805480602002602001604051908101604052809291908181526020016000905b8282101561065957838290600052602060002090600502016040518060a001604052908160008201805461131890613b7e565b80601f016020809104026020016040519081016040528092919081815260200182805461134490613b7e565b80156113915780601f1061136657610100808354040283529160200191611391565b820191906000526020600020905b81548152906001019060200180831161137457829003601f168201915b505050505081526020016001820180546113aa90613b7e565b80601f01602080910402602001604051908101604052809291908181526020018280546113d690613b7e565b80156114235780601f106113f857610100808354040283529160200191611423565b820191906000526020600020905b81548152906001019060200180831161140657829003601f168201915b50505050508152602001600282015481526020016003820154815260200160048201805461145090613b7e565b80601f016020809104026020016040519081016040528092919081815260200182805461147c90613b7e565b80156114c95780601f1061149e576101008083540402835291602001916114c9565b820191906000526020600020905b8154815290600101906020018083116114ac57829003601f168201915b505050505081525050815260200190600101906112e5565b6000838152600360205260409020600a015460ff161561155c5760405162461bcd60e51b815260206004820152603060248201527f5468697320626174636820697320616c7265616479207363616e6e656420627960448201526f103a3432903234b9ba3934b13aba37b960811b606482015260840161051c565b8160405160200161156d9190613cc7565b60408051601f1981840301815282825280516020918201206000878152600383529290922091926115a2926006019101613d54565b60405160208183030381529060405280519060200120146116195760405162461bcd60e51b815260206004820152602b60248201527f54686973206261746368206973206e6f74206f776e656420627920746869732060448201526a3234b9ba3934b13aba37b960a91b606482015260840161051c565b6000838152600360205260409020600a8101805460ff19166001179055600b016116438282613c07565b50505050565b600b81815481106106d657600080fd5b6060600a8054806020026020016040519081016040528092919081815260200182805480156107355760200282019190600052602060002090815481526020019060010190808311610721575050505050905090565b6116b8856131a9565b1561171f5760405162461bcd60e51b815260206004820152603160248201527f5468697320426174636854656d706c617465494420616c72656164792065786960448201527073747320696e207468652073797374656d60781b606482015260840161051c565b61172884613153565b15156001146117965760405162461bcd60e51b815260206004820152603460248201527f546869732050726f6475637454656d706c617465494420646f6573206e6f742060448201527365786973747320696e207468652073797374656d60601b606482015260840161051c565b6040518060a001604052808681526020018581526020018481526020018381526020018281525060016000878152602001908152602001600020600082015181600001556020820151816001015560408201518160020190816117f99190613c07565b5060608201516003820155608082015160048201906118189082613c07565b5050600980546001810182556000919091527f6e1540171b6c0c960b71a7020d9f60077f6af931a8bbf590da0223dacf75c7af01959095555050505050565b6004602052816000526040600020818154811061187357600080fd5b90600052602060002001600091509150505481565b600a81815481106106d657600080fd5b60606007826040516118aa9190613cc7565b9081526020016040518091039020805480602002602001604051908101604052809291908181526020016000905b8282101561065957838290600052602060002090600502016040518060a001604052908160008201805461190b90613b7e565b80601f016020809104026020016040519081016040528092919081815260200182805461193790613b7e565b80156119845780601f1061195957610100808354040283529160200191611984565b820191906000526020600020905b81548152906001019060200180831161196757829003601f168201915b5050505050815260200160018201805461199d90613b7e565b80601f01602080910402602001604051908101604052809291908181526020018280546119c990613b7e565b8015611a165780601f106119eb57610100808354040283529160200191611a16565b820191906000526020600020905b8154815290600101906020018083116119f957829003601f168201915b505050505081526020016002820154815260200160038201548152602001600482018054611a4390613b7e565b80601f0160208091040260200160405190810160405280929190818152602001828054611a6f90613b7e565b8015611abc5780601f10611a9157610100808354040283529160200191611abc565b820191906000526020600020905b815481529060010190602001808311611a9f57829003601f168201915b505050505081525050815260200190600101906118d8565b6000848152600360205260408120600201805460019290611af6908490613d12565b90915550506000838152600260205260409020600401611b168382613c07565b506000838152600260205260409020600901611b328282613c07565b50600582604051611b439190613cc7565b908152604080516020928190038301812081830190925295865281860194855280546001808201835560009283529290912095516002909102909501948555925193909201929092555050565b6003602052806000526040600020600091509050806000015490806001015490806002015490806003018054611bc590613b7e565b80601f0160208091040260200160405190810160405280929190818152602001828054611bf190613b7e565b8015611c3e5780601f10611c1357610100808354040283529160200191611c3e565b820191906000526020600020905b815481529060010190602001808311611c2157829003601f168201915b505050505090806004015490806005018054611c5990613b7e565b80601f0160208091040260200160405190810160405280929190818152602001828054611c8590613b7e565b8015611cd25780601f10611ca757610100808354040283529160200191611cd2565b820191906000526020600020905b815481529060010190602001808311611cb557829003601f168201915b505050505090806006018054611ce790613b7e565b80601f0160208091040260200160405190810160405280929190818152602001828054611d1390613b7e565b8015611d605780601f10611d3557610100808354040283529160200191611d60565b820191906000526020600020905b815481529060010190602001808311611d4357829003601f168201915b505050505090806007018054611d7590613b7e565b80601f0160208091040260200160405190810160405280929190818152602001828054611da190613b7e565b8015611dee5780601f10611dc357610100808354040283529160200191611dee565b820191906000526020600020905b815481529060010190602001808311611dd157829003601f168201915b505050505090806008018054611e0390613b7e565b80601f0160208091040260200160405190810160405280929190818152602001828054611e2f90613b7e565b8015611e7c5780601f10611e5157610100808354040283529160200191611e7c565b820191906000526020600020905b815481529060010190602001808311611e5f57829003601f168201915b505050506009830154600a840154600b850180549495929460ff909216935090611ea590613b7e565b80601f0160208091040260200160405190810160405280929190818152602001828054611ed190613b7e565b8015611f1e5780601f10611ef357610100808354040283529160200191611f1e565b820191906000526020600020905b815481529060010190602001808311611f0157829003601f168201915b50505050509080600c015490508d565b611f37896131f6565b15611f905760405162461bcd60e51b8152602060048201526024808201527f4261746368494420616c72656164792065786973747320696e207468652073796044820152637374656d60e01b606482015260840161051c565b868851146120065760405162461bcd60e51b815260206004820152603760248201527f53697a65206f662070726f6475637449447320617272617920646f6573206e6f60448201527f74206d6174636820776974682042617463682073697a65000000000000000000606482015260840161051c565b604080516101a0810182528a815260208082018a81526000838501818152606085018c8152608086018c905260a086018b905260c086018a905260e086018990526101008601889052610120860183905261014086018390528651808601885283815261016087015261018086018e90528f83526003948590529590912084518155915160018301555160028201559251919291908201906120a89082613c07565b506080820151600482015560a082015160058201906120c79082613c07565b5060c082015160068201906120dc9082613c07565b5060e082015160078201906120f19082613c07565b5061010082015160088201906121079082613c07565b506101208201516009820155610140820151600a8201805460ff1916911515919091179055610160820151600b8201906121419082613c07565b506101809190910151600c90910155600b8054600181019091557f0175b7a638427703f0dbe7bb9bbf987a2551717b34e79f33b5b1008d1fa01db9018990556000898152600460209081526040909120895161219f928b0190613290565b5060005b87811015612401576121cd8982815181106121c0576121c0613d25565b6020026020010151613243565b156122295760405162461bcd60e51b815260206004820152602660248201527f50726f64756374494420616c72656164792065786973747320696e207468652060448201526573797374656d60d01b606482015260840161051c565b6040518061014001604052808a838151811061224757612247613d25565b602002602001015181526020018b815260200187815260200183815260200160405180602001604052806000815250815260200160405180602001604052806000815250815260200160001515815260200160405180602001604052806000815250815260200160405180602001604052806000815250815260200160405180602001604052806000815250815250600260008b84815181106122ec576122ec613d25565b6020026020010151815260200190815260200160002060008201518160000155602082015181600101556040820151816002015560608201518160030190816123359190613c07565b506080820151600482019061234a9082613c07565b5060a0820151600582019061235f9082613c07565b5060c082015160068201805460ff191691151591909117905560e0820151600782019061238c9082613c07565b5061010082015160088201906123a29082613c07565b5061012082015160098201906123b89082613c07565b50905050600a8982815181106123d0576123d0613d25565b60209081029190910181015182546001810184556000938452919092200155806123f981613d3b565b9150506121a3565b50505050505050505050565b8151602081840181018051600682529282019185019190912091905280548290811061243857600080fd5b90600052602060002090600502016000915091505080600001805461245c90613b7e565b80601f016020809104026020016040519081016040528092919081815260200182805461248890613b7e565b80156124d55780601f106124aa576101008083540402835291602001916124d5565b820191906000526020600020905b8154815290600101906020018083116124b857829003601f168201915b5050505050908060010180546124ea90613b7e565b80601f016020809104026020016040519081016040528092919081815260200182805461251690613b7e565b80156125635780601f1061253857610100808354040283529160200191612563565b820191906000526020600020905b81548152906001019060200180831161254657829003601f168201915b50505050509080600201549080600301549080600401805461122290613b7e565b8151602081840181018051600782529282019185019190912091905280548290811061243857600080fd5b6002602081905260009182526040909120805460018201549282015460038301805492949391926125df90613b7e565b80601f016020809104026020016040519081016040528092919081815260200182805461260b90613b7e565b80156126585780601f1061262d57610100808354040283529160200191612658565b820191906000526020600020905b81548152906001019060200180831161263b57829003601f168201915b50505050509080600401805461266d90613b7e565b80601f016020809104026020016040519081016040528092919081815260200182805461269990613b7e565b80156126e65780601f106126bb576101008083540402835291602001916126e6565b820191906000526020600020905b8154815290600101906020018083116126c957829003601f168201915b5050505050908060050180546126fb90613b7e565b80601f016020809104026020016040519081016040528092919081815260200182805461272790613b7e565b80156127745780601f1061274957610100808354040283529160200191612774565b820191906000526020600020905b81548152906001019060200180831161275757829003601f168201915b5050506006840154600785018054949560ff90921694919350915061279890613b7e565b80601f01602080910402602001604051908101604052809291908181526020018280546127c490613b7e565b80156128115780601f106127e657610100808354040283529160200191612811565b820191906000526020600020905b8154815290600101906020018083116127f457829003601f168201915b50505050509080600801805461282690613b7e565b80601f016020809104026020016040519081016040528092919081815260200182805461285290613b7e565b801561289f5780601f106128745761010080835404028352916020019161289f565b820191906000526020600020905b81548152906001019060200180831161288257829003601f168201915b5050505050908060090180546128b490613b7e565b80601f01602080910402602001604051908101604052809291908181526020018280546128e090613b7e565b801561292d5780601f106129025761010080835404028352916020019161292d565b820191906000526020600020905b81548152906001019060200180831161291057829003601f168201915b505050505090508a565b60008381526002602052604090206006015460ff16156129af5760405162461bcd60e51b815260206004820152602d60248201527f5468697320626174636820697320616c7265616479207363616e6e656420627960448201526c103a3432903932ba30b4b632b960991b606482015260840161051c565b816040516020016129c09190613cc7565b60408051601f1981840301815282825280516020918201206000878152600283529290922091926129f5926005019101613d54565b6040516020818303038152906040528051906020012014612a6b5760405162461bcd60e51b815260206004820152602a60248201527f546869732070726f64756374206973206e6f74206f776e65642062792074686960448201526939903932ba30b4b632b960b11b606482015260840161051c565b600083815260026020526040902060068101805460ff191660011790556007016116438282613c07565b6000848152600360205260408120600c810154600182015460069092018054919391612ac090613b7e565b80601f0160208091040260200160405190810160405280929190818152602001828054612aec90613b7e565b8015612b395780601f10612b0e57610100808354040283529160200191612b39565b820191906000526020600020905b815481529060010190602001808311612b1c57829003601f168201915b5050505050905085831015612bc05760405162461bcd60e51b815260206004820152604160248201527f5175616e746974792069732067726561746572207468616e2074686520616d6f60448201527f756e74206c65667420746f20626520736f6c6420696e207468697320626174636064820152600d60fb1b608482015260a40161051c565b60008611612c0a5760405162461bcd60e51b81526020600482015260176024820152765175616e746974792063616e6e6f74206265207a65726f60481b604482015260640161051c565b6000612c168484613cf9565b600089815260046020908152604080832080548251818502810185019093528083529495509293909291830182828015612c6f57602002820191906000526020600020905b815481526020019060010190808311612c5b575b509394508593505050505b612c848984613d12565b811015610de3576000828281518110612c9f57612c9f613d25565b6020026020010151905060006002600083815260200190815260200160002060405180610140016040529081600082015481526020016001820154815260200160028201548152602001600382018054612cf890613b7e565b80601f0160208091040260200160405190810160405280929190818152602001828054612d2490613b7e565b8015612d715780601f10612d4657610100808354040283529160200191612d71565b820191906000526020600020905b815481529060010190602001808311612d5457829003601f168201915b50505050508152602001600482018054612d8a90613b7e565b80601f0160208091040260200160405190810160405280929190818152602001828054612db690613b7e565b8015612e035780601f10612dd857610100808354040283529160200191612e03565b820191906000526020600020905b815481529060010190602001808311612de657829003601f168201915b50505050508152602001600582018054612e1c90613b7e565b80601f0160208091040260200160405190810160405280929190818152602001828054612e4890613b7e565b8015612e955780601f10612e6a57610100808354040283529160200191612e95565b820191906000526020600020905b815481529060010190602001808311612e7857829003601f168201915b5050509183525050600682015460ff1615156020820152600782018054604090920191612ec190613b7e565b80601f0160208091040260200160405190810160405280929190818152602001828054612eed90613b7e565b8015612f3a5780601f10612f0f57610100808354040283529160200191612f3a565b820191906000526020600020905b815481529060010190602001808311612f1d57829003601f168201915b50505050508152602001600882018054612f5390613b7e565b80601f0160208091040260200160405190810160405280929190818152602001828054612f7f90613b7e565b8015612fcc5780601f10612fa157610100808354040283529160200191612fcc565b820191906000526020600020905b815481529060010190602001808311612faf57829003601f168201915b50505050508152602001600982018054612fe590613b7e565b80601f016020809104026020016040519081016040528092919081815260200182805461301190613b7e565b801561305e5780601f106130335761010080835404028352916020019161305e565b820191906000526020600020905b81548152906001019060200180831161304157829003601f168201915b5050509190925250505060a081018b905261010081018a90526000838152600260208181526040928390208451815590840151600182015591830151908201556060820151919250829160038201906130b79082613c07565b50608082015160048201906130cc9082613c07565b5060a082015160058201906130e19082613c07565b5060c082015160068201805460ff191691151591909117905560e0820151600782019061310e9082613c07565b5061010082015160088201906131249082613c07565b50610120820151600982019061313a9082613c07565b509050505050808061314b90613d3b565b915050612c7a565b6000805b6008548110156131a057826008828154811061317557613175613d25565b90600052602060002001540361318e5750600192915050565b8061319881613d3b565b915050613157565b50600092915050565b6000805b6009548110156131a05782600982815481106131cb576131cb613d25565b9060005260206000200154036131e45750600192915050565b806131ee81613d3b565b9150506131ad565b6000805b600b548110156131a05782600b828154811061321857613218613d25565b9060005260206000200154036132315750600192915050565b8061323b81613d3b565b9150506131fa565b6000805b600a548110156131a05782600a828154811061326557613265613d25565b90600052602060002001540361327e5750600192915050565b8061328881613d3b565b915050613247565b8280548282559060005260206000209081019282156132cb579160200282015b828111156132cb5782518255916020019190600101906132b0565b506132d79291506132db565b5090565b5b808211156132d757600081556001016132dc565b634e487b7160e01b600052604160045260246000fd5b604051601f8201601f1916810167ffffffffffffffff8111828210171561332f5761332f6132f0565b604052919050565b600082601f83011261334857600080fd5b813567ffffffffffffffff811115613362576133626132f0565b613375601f8201601f1916602001613306565b81815284602083860101111561338a57600080fd5b816020850160208301376000918101602001919091529392505050565b600080604083850312156133ba57600080fd5b823567ffffffffffffffff8111156133d157600080fd5b6133dd85828601613337565b95602094909401359450505050565b6000806000806080858703121561340257600080fd5b84359350602085013567ffffffffffffffff8082111561342157600080fd5b61342d88838901613337565b9450604087013591508082111561344357600080fd5b61344f88838901613337565b9350606087013591508082111561346557600080fd5b5061347287828801613337565b91505092959194509250565b60006020828403121561349057600080fd5b813567ffffffffffffffff8111156134a757600080fd5b6134b384828501613337565b949350505050565b602080825282518282018190526000919060409081850190868401855b828110156134fd578151805185528601518685015292840192908501906001016134d8565b5091979650505050505050565b60006020828403121561351c57600080fd5b5035919050565b6020808252825182820181905260009190848201906040850190845b8181101561355b5783518352928401929184019160010161353f565b50909695505050505050565b6000806000806080858703121561357d57600080fd5b8435935060208501359250604085013567ffffffffffffffff8082111561344357600080fd5b60005b838110156135be5781810151838201526020016135a6565b50506000910152565b600081518084526135df8160208601602086016135a3565b601f01601f19169290920160200192915050565b84815260806020820152600061360c60808301866135c7565b828103604084015261361e81866135c7565b9050828103606084015261363281856135c7565b979650505050505050565b85815284602082015260a06040820152600061365c60a08301866135c7565b846060840152828103608084015261367481856135c7565b98975050505050505050565b60006020808301818452808551808352604092508286019150828160051b87010184880160005b8381101561372957603f19898403018552815160a081518186526136cd828701826135c7565b915050888201518582038a8701526136e582826135c7565b915050878201518886015260608083015181870152506080808301519250858203818701525061371581836135c7565b9689019694505050908601906001016136a7565b509098975050505050505050565b60008060006060848603121561374c57600080fd5b83359250602084013567ffffffffffffffff8082111561376b57600080fd5b61377787838801613337565b9350604086013591508082111561378d57600080fd5b5061379a86828701613337565b9150509250925092565b600080600080600060a086880312156137bc57600080fd5b8535945060208601359350604086013567ffffffffffffffff808211156137e257600080fd5b6137ee89838a01613337565b945060608801359350608088013591508082111561380b57600080fd5b5061381888828901613337565b9150509295509295909350565b6000806040838503121561383857600080fd5b50508035926020909101359150565b60006101a08f83528e60208401528d604084015280606084015261386d8184018e6135c7565b90508b608084015282810360a0840152613887818c6135c7565b905082810360c084015261389b818b6135c7565b905082810360e08401526138af818a6135c7565b90508281036101008401526138c481896135c7565b9050866101208401526138dc61014084018715159052565b8281036101608401526138ef81866135c7565b915050826101808301529e9d5050505050505050505050505050565b600082601f83011261391c57600080fd5b8135602067ffffffffffffffff821115613938576139386132f0565b8160051b613947828201613306565b928352848101820192828101908785111561396157600080fd5b83870192505b8483101561363257823582529183019190830190613967565b60008060008060008060008060006101208a8c03121561399f57600080fd5b8935985060208a013567ffffffffffffffff808211156139be57600080fd5b6139ca8d838e0161390b565b995060408c0135985060608c01359150808211156139e757600080fd5b6139f38d838e01613337565b975060808c0135965060a08c0135915080821115613a1057600080fd5b613a1c8d838e01613337565b955060c08c0135915080821115613a3257600080fd5b613a3e8d838e01613337565b945060e08c0135915080821115613a5457600080fd5b613a608d838e01613337565b93506101008c0135915080821115613a7757600080fd5b50613a848c828d01613337565b9150509295985092959850929598565b60a081526000613aa760a08301886135c7565b8281036020840152613ab981886135c7565b9050856040840152846060840152828103608084015261367481856135c7565b60006101408c83528b60208401528a6040840152806060840152613aff8184018b6135c7565b90508281036080840152613b13818a6135c7565b905082810360a0840152613b2781896135c7565b905086151560c084015282810360e0840152613b4381876135c7565b9050828103610100840152613b5881866135c7565b9050828103610120840152613b6d81856135c7565b9d9c50505050505050505050505050565b600181811c90821680613b9257607f821691505b602082108103613bb257634e487b7160e01b600052602260045260246000fd5b50919050565b601f821115613c0257600081815260208120601f850160051c81016020861015613bdf5750805b601f850160051c820191505b81811015613bfe57828155600101613beb565b5050505b505050565b815167ffffffffffffffff811115613c2157613c216132f0565b613c3581613c2f8454613b7e565b84613bb8565b602080601f831160018114613c6a5760008415613c525750858301515b600019600386901b1c1916600185901b178555613bfe565b600085815260208120601f198616915b82811015613c9957888601518255948401946001909101908401613c7a565b5085821015613cb75787850151600019600388901b60f8161c191681555b5050505050600190811b01905550565b60008251613cd98184602087016135a3565b9190910192915050565b634e487b7160e01b600052601160045260246000fd5b81810381811115613d0c57613d0c613ce3565b92915050565b80820180821115613d0c57613d0c613ce3565b634e487b7160e01b600052603260045260246000fd5b600060018201613d4d57613d4d613ce3565b5060010190565b6000808354613d6281613b7e565b60018281168015613d7a5760018114613d8f57613dbe565b60ff1984168752821515830287019450613dbe565b8760005260208060002060005b85811015613db55781548a820152908401908201613d9c565b50505082870194505b5092969550505050505056fea2646970667358221220d5c5260fdca8f0469059448c267a4e221355be1678718b0183a7f1f7c29fd95164736f6c63430008110033",
  "linkReferences": {},
  "deployedLinkReferences": {}
}