{
  "_format": "hh-sol-artifact-1",
  "contractName": "Supplychain",
  "sourceName": "contracts/Supplychain.sol",
  "abi": [
    {
      "inputs": [
        {
          "internalType": "uint256",
          "name": "",
          "type": "uint256"
        },
        {
          "internalType": "uint256",
          "name": "",
          "type": "uint256"
        }
      ],
      "name": "BatchIDToCompanyProductIDMapping",
      "outputs": [
        {
          "internalType": "uint256",
          "name": "",
          "type": "uint256"
        }
      ],
      "stateMutability": "view",
      "type": "function"
    },
    {
      "inputs": [
        {
          "internalType": "uint256",
          "name": "",
          "type": "uint256"
        },
        {
          "internalType": "uint256",
          "name": "",
          "type": "uint256"
        }
      ],
      "name": "BatchIDToProductIDMapping",
      "outputs": [
        {
          "internalType": "uint256",
          "name": "",
          "type": "uint256"
        }
      ],
      "stateMutability": "view",
      "type": "function"
    },
    {
      "inputs": [
        {
          "internalType": "uint256",
          "name": "",
          "type": "uint256"
        }
      ],
      "name": "BatchIDs",
      "outputs": [
        {
          "internalType": "uint256",
          "name": "",
          "type": "uint256"
        }
      ],
      "stateMutability": "view",
      "type": "function"
    },
    {
      "inputs": [
        {
          "internalType": "uint256",
          "name": "",
          "type": "uint256"
        }
      ],
      "name": "BatchMapping",
      "outputs": [
        {
          "internalType": "uint256",
          "name": "BatchID",
          "type": "uint256"
        },
        {
          "internalType": "uint256",
          "name": "BatchSize",
          "type": "uint256"
        },
        {
          "internalType": "uint256",
          "name": "AmountSoldTOCustomer",
          "type": "uint256"
        },
        {
          "internalType": "string",
          "name": "BatchDescription",
          "type": "string"
        },
        {
          "internalType": "uint256",
          "name": "ProductTemplateID",
          "type": "uint256"
        },
        {
          "internalType": "string",
          "name": "FactoryID",
          "type": "string"
        },
        {
          "internalType": "string",
          "name": "DistributorID",
          "type": "string"
        },
        {
          "internalType": "string",
          "name": "FactoryLocation",
          "type": "string"
        },
        {
          "internalType": "string",
          "name": "DateOfProduction",
          "type": "string"
        },
        {
          "internalType": "uint256",
          "name": "State",
          "type": "uint256"
        },
        {
          "internalType": "bool",
          "name": "DistributorScanned",
          "type": "bool"
        },
        {
          "internalType": "string",
          "name": "DistributorScannedTimeStamp",
          "type": "string"
        },
        {
          "internalType": "string",
          "name": "DistributorLatLong",
          "type": "string"
        },
        {
          "internalType": "uint256",
          "name": "AmountLeftForSellingTORetailer",
          "type": "uint256"
        }
      ],
      "stateMutability": "view",
      "type": "function"
    },
    {
      "inputs": [
        {
          "internalType": "uint256",
          "name": "",
          "type": "uint256"
        }
      ],
      "name": "BatchTemplateIDs",
      "outputs": [
        {
          "internalType": "uint256",
          "name": "",
          "type": "uint256"
        }
      ],
      "stateMutability": "view",
      "type": "function"
    },
    {
      "inputs": [
        {
          "internalType": "uint256",
          "name": "",
          "type": "uint256"
        }
      ],
      "name": "BatchTemplateMAP",
      "outputs": [
        {
          "internalType": "uint256",
          "name": "BatchTemplateID",
          "type": "uint256"
        },
        {
          "internalType": "uint256",
          "name": "ProductTemplateID",
          "type": "uint256"
        },
        {
          "internalType": "string",
          "name": "Description",
          "type": "string"
        },
        {
          "internalType": "uint256",
          "name": "BatchSize",
          "type": "uint256"
        },
        {
          "internalType": "string",
          "name": "FactoryID",
          "type": "string"
        }
      ],
      "stateMutability": "view",
      "type": "function"
    },
    {
      "inputs": [
        {
          "internalType": "string",
          "name": "",
          "type": "string"
        },
        {
          "internalType": "uint256",
          "name": "",
          "type": "uint256"
        }
      ],
      "name": "CustomerData",
      "outputs": [
        {
          "internalType": "uint256",
          "name": "BatchID",
          "type": "uint256"
        },
        {
          "internalType": "uint256",
          "name": "ProductID",
          "type": "uint256"
        }
      ],
      "stateMutability": "view",
      "type": "function"
    },
    {
      "inputs": [
        {
          "internalType": "string",
          "name": "",
          "type": "string"
        },
        {
          "internalType": "uint256",
          "name": "",
          "type": "uint256"
        }
      ],
      "name": "DistributorIDToRetailerStruct",
      "outputs": [
        {
          "internalType": "string",
          "name": "DistributorID",
          "type": "string"
        },
        {
          "internalType": "string",
          "name": "RetailerID",
          "type": "string"
        },
        {
          "internalType": "uint256",
          "name": "BatchID",
          "type": "uint256"
        },
        {
          "internalType": "uint256",
          "name": "Quantity",
          "type": "uint256"
        },
        {
          "internalType": "string",
          "name": "TimeStamp",
          "type": "string"
        }
      ],
      "stateMutability": "view",
      "type": "function"
    },
    {
      "inputs": [
        {
          "internalType": "uint256",
          "name": "",
          "type": "uint256"
        }
      ],
      "name": "ProductIDs",
      "outputs": [
        {
          "internalType": "uint256",
          "name": "",
          "type": "uint256"
        }
      ],
      "stateMutability": "view",
      "type": "function"
    },
    {
      "inputs": [
        {
          "internalType": "uint256",
          "name": "",
          "type": "uint256"
        }
      ],
      "name": "ProductMapping",
      "outputs": [
        {
          "internalType": "uint256",
          "name": "ProductID",
          "type": "uint256"
        },
        {
          "internalType": "uint256",
          "name": "BatchID",
          "type": "uint256"
        },
        {
          "internalType": "uint256",
          "name": "ProductTemplateID",
          "type": "uint256"
        },
        {
          "internalType": "string",
          "name": "DOM",
          "type": "string"
        },
        {
          "internalType": "string",
          "name": "CustomerID",
          "type": "string"
        },
        {
          "internalType": "string",
          "name": "RetailerID",
          "type": "string"
        },
        {
          "internalType": "bool",
          "name": "RetailerScanned",
          "type": "bool"
        },
        {
          "internalType": "string",
          "name": "RetailerScannedTimeStamp",
          "type": "string"
        },
        {
          "internalType": "string",
          "name": "RetailerLatLong",
          "type": "string"
        },
        {
          "internalType": "string",
          "name": "DateWhenSoldToRetailer",
          "type": "string"
        },
        {
          "internalType": "string",
          "name": "DateWhenSoldToCustomer",
          "type": "string"
        }
      ],
      "stateMutability": "view",
      "type": "function"
    },
    {
      "inputs": [
        {
          "internalType": "uint256",
          "name": "",
          "type": "uint256"
        }
      ],
      "name": "ProductTemplateIDs",
      "outputs": [
        {
          "internalType": "uint256",
          "name": "",
          "type": "uint256"
        }
      ],
      "stateMutability": "view",
      "type": "function"
    },
    {
      "inputs": [
        {
          "internalType": "uint256",
          "name": "",
          "type": "uint256"
        }
      ],
      "name": "ProductTemplateMAP",
      "outputs": [
        {
          "internalType": "uint256",
          "name": "ProductTemplateID",
          "type": "uint256"
        },
        {
          "internalType": "string",
          "name": "Name",
          "type": "string"
        },
        {
          "internalType": "string",
          "name": "Description",
          "type": "string"
        },
        {
          "internalType": "string",
          "name": "FactoryID",
          "type": "string"
        }
      ],
      "stateMutability": "view",
      "type": "function"
    },
    {
      "inputs": [
        {
          "internalType": "string",
          "name": "",
          "type": "string"
        },
        {
          "internalType": "uint256",
          "name": "",
          "type": "uint256"
        }
      ],
      "name": "RetailerIDToRetailerStruct",
      "outputs": [
        {
          "internalType": "string",
          "name": "DistributorID",
          "type": "string"
        },
        {
          "internalType": "string",
          "name": "RetailerID",
          "type": "string"
        },
        {
          "internalType": "uint256",
          "name": "BatchID",
          "type": "uint256"
        },
        {
          "internalType": "uint256",
          "name": "Quantity",
          "type": "uint256"
        },
        {
          "internalType": "string",
          "name": "TimeStamp",
          "type": "string"
        }
      ],
      "stateMutability": "view",
      "type": "function"
    },
    {
      "inputs": [
        {
          "internalType": "uint256",
          "name": "_batchTemplateID",
          "type": "uint256"
        },
        {
          "internalType": "uint256",
          "name": "_productTemplateID",
          "type": "uint256"
        },
        {
          "internalType": "string",
          "name": "_description",
          "type": "string"
        },
        {
          "internalType": "uint256",
          "name": "_batchSize",
          "type": "uint256"
        },
        {
          "internalType": "string",
          "name": "_factoryID",
          "type": "string"
        }
      ],
      "name": "addBatchTemplate",
      "outputs": [],
      "stateMutability": "nonpayable",
      "type": "function"
    },
    {
      "inputs": [
        {
          "internalType": "uint256",
          "name": "_productTemplateID",
          "type": "uint256"
        },
        {
          "internalType": "string",
          "name": "_name",
          "type": "string"
        },
        {
          "internalType": "string",
          "name": "_description",
          "type": "string"
        },
        {
          "internalType": "string",
          "name": "_factoryID",
          "type": "string"
        }
      ],
      "name": "addProductTemplate",
      "outputs": [],
      "stateMutability": "nonpayable",
      "type": "function"
    },
    {
      "inputs": [
        {
          "internalType": "uint256",
          "name": "batchID",
          "type": "uint256"
        },
        {
          "internalType": "uint256[]",
          "name": "productIDs",
          "type": "uint256[]"
        },
        {
          "internalType": "uint256[]",
          "name": "companyProductIDs",
          "type": "uint256[]"
        },
        {
          "internalType": "uint256",
          "name": "batchSize",
          "type": "uint256"
        },
        {
          "internalType": "string",
          "name": "batchDescription",
          "type": "string"
        },
        {
          "internalType": "uint256",
          "name": "productTemplateID",
          "type": "uint256"
        },
        {
          "internalType": "string",
          "name": "factory",
          "type": "string"
        },
        {
          "internalType": "string",
          "name": "distributor",
          "type": "string"
        },
        {
          "internalType": "string",
          "name": "factoryLocation",
          "type": "string"
        },
        {
          "internalType": "string",
          "name": "dateOfProduction",
          "type": "string"
        }
      ],
      "name": "batchProduced",
      "outputs": [],
      "stateMutability": "nonpayable",
      "type": "function"
    },
    {
      "inputs": [
        {
          "internalType": "uint256",
          "name": "batchID",
          "type": "uint256"
        },
        {
          "internalType": "string",
          "name": "_distributorID",
          "type": "string"
        },
        {
          "internalType": "string",
          "name": "timeStamp",
          "type": "string"
        },
        {
          "internalType": "string",
          "name": "_distributorLatLong",
          "type": "string"
        }
      ],
      "name": "distributorScansBatch",
      "outputs": [],
      "stateMutability": "nonpayable",
      "type": "function"
    },
    {
      "inputs": [
        {
          "internalType": "uint256",
          "name": "batchID",
          "type": "uint256"
        },
        {
          "internalType": "uint256",
          "name": "quantity",
          "type": "uint256"
        },
        {
          "internalType": "string",
          "name": "retailerID",
          "type": "string"
        },
        {
          "internalType": "string",
          "name": "timeStamp",
          "type": "string"
        }
      ],
      "name": "distributorSellToRetailer",
      "outputs": [],
      "stateMutability": "nonpayable",
      "type": "function"
    },
    {
      "inputs": [],
      "name": "getAllBatchIDs",
      "outputs": [
        {
          "internalType": "uint256[]",
          "name": "",
          "type": "uint256[]"
        }
      ],
      "stateMutability": "view",
      "type": "function"
    },
    {
      "inputs": [],
      "name": "getAllBatchTemplateIDs",
      "outputs": [
        {
          "internalType": "uint256[]",
          "name": "",
          "type": "uint256[]"
        }
      ],
      "stateMutability": "view",
      "type": "function"
    },
    {
      "inputs": [],
      "name": "getAllProductIDs",
      "outputs": [
        {
          "internalType": "uint256[]",
          "name": "",
          "type": "uint256[]"
        }
      ],
      "stateMutability": "view",
      "type": "function"
    },
    {
      "inputs": [],
      "name": "getAllProductTemplateIDs",
      "outputs": [
        {
          "internalType": "uint256[]",
          "name": "",
          "type": "uint256[]"
        }
      ],
      "stateMutability": "view",
      "type": "function"
    },
    {
      "inputs": [
        {
          "internalType": "string",
          "name": "customerID",
          "type": "string"
        }
      ],
      "name": "getAllProductsBought",
      "outputs": [
        {
          "components": [
            {
              "internalType": "uint256",
              "name": "BatchID",
              "type": "uint256"
            },
            {
              "internalType": "uint256",
              "name": "ProductID",
              "type": "uint256"
            }
          ],
          "internalType": "struct Supplychain.Customer[]",
          "name": "",
          "type": "tuple[]"
        }
      ],
      "stateMutability": "view",
      "type": "function"
    },
    {
      "inputs": [
        {
          "internalType": "uint256",
          "name": "batchID",
          "type": "uint256"
        }
      ],
      "name": "getCompanyProductIdsForaBatch",
      "outputs": [
        {
          "internalType": "uint256[]",
          "name": "",
          "type": "uint256[]"
        }
      ],
      "stateMutability": "view",
      "type": "function"
    },
    {
      "inputs": [
        {
          "internalType": "string",
          "name": "distributorID",
          "type": "string"
        }
      ],
      "name": "getDistributorIDToRetailerStruct",
      "outputs": [
        {
          "components": [
            {
              "internalType": "string",
              "name": "DistributorID",
              "type": "string"
            },
            {
              "internalType": "string",
              "name": "RetailerID",
              "type": "string"
            },
            {
              "internalType": "uint256",
              "name": "BatchID",
              "type": "uint256"
            },
            {
              "internalType": "uint256",
              "name": "Quantity",
              "type": "uint256"
            },
            {
              "internalType": "string",
              "name": "TimeStamp",
              "type": "string"
            }
          ],
          "internalType": "struct Supplychain.Retailer[]",
          "name": "",
          "type": "tuple[]"
        }
      ],
      "stateMutability": "view",
      "type": "function"
    },
    {
      "inputs": [
        {
          "internalType": "uint256",
          "name": "batchID",
          "type": "uint256"
        }
      ],
      "name": "getProductIdsForaBatch",
      "outputs": [
        {
          "internalType": "uint256[]",
          "name": "",
          "type": "uint256[]"
        }
      ],
      "stateMutability": "view",
      "type": "function"
    },
    {
      "inputs": [
        {
          "internalType": "string",
          "name": "retailerID",
          "type": "string"
        }
      ],
      "name": "getRetailerIDToRetailerStruct",
      "outputs": [
        {
          "components": [
            {
              "internalType": "string",
              "name": "DistributorID",
              "type": "string"
            },
            {
              "internalType": "string",
              "name": "RetailerID",
              "type": "string"
            },
            {
              "internalType": "uint256",
              "name": "BatchID",
              "type": "uint256"
            },
            {
              "internalType": "uint256",
              "name": "Quantity",
              "type": "uint256"
            },
            {
              "internalType": "string",
              "name": "TimeStamp",
              "type": "string"
            }
          ],
          "internalType": "struct Supplychain.Retailer[]",
          "name": "",
          "type": "tuple[]"
        }
      ],
      "stateMutability": "view",
      "type": "function"
    },
    {
      "inputs": [
        {
          "internalType": "uint256",
          "name": "_productID",
          "type": "uint256"
        },
        {
          "internalType": "string",
          "name": "_retailerID",
          "type": "string"
        },
        {
          "internalType": "string",
          "name": "timeStamp",
          "type": "string"
        },
        {
          "internalType": "string",
          "name": "_retailerLatLong",
          "type": "string"
        }
      ],
      "name": "retailerScansProduct",
      "outputs": [],
      "stateMutability": "nonpayable",
      "type": "function"
    },
    {
      "inputs": [
        {
          "internalType": "uint256",
          "name": "batchID",
          "type": "uint256"
        },
        {
          "internalType": "uint256",
          "name": "productID",
          "type": "uint256"
        },
        {
          "internalType": "string",
          "name": "customerID",
          "type": "string"
        },
        {
          "internalType": "string",
          "name": "timeStamp",
          "type": "string"
        }
      ],
      "name": "retailerSellToCustomer",
      "outputs": [],
      "stateMutability": "nonpayable",
      "type": "function"
    }
  ],
  "bytecode": "0x608060405234801561001057600080fd5b50613aba806100206000396000f3fe608060405234801561001057600080fd5b50600436106101cf5760003560e01c80637f7bf69011610104578063a7a4523d116100a2578063e3c6a4ac11610071578063e3c6a4ac14610420578063eac0e97714610433578063ee55fae21461045d578063fde4335f1461047057600080fd5b8063a7a4523d146103a9578063b84a6f22146103bc578063bf801df1146103cf578063e139f994146103fc57600080fd5b80638e5452b8116100de5780638e5452b81461035d57806390973cce14610370578063963707cd14610383578063a78317f81461039657600080fd5b80637f7bf690146103225780638bd42880146103425780638c4c42cd1461035557600080fd5b80634c27729c1161017157806371d1dc0c1161014b57806371d1dc0c146102c0578063793560dd146102e35780637ae4ee04146102eb5780637b7fa81f1461030f57600080fd5b80634c27729c146102925780634ca20f341461029a5780636c1d7a9e146102ad57600080fd5b8063284328d0116101ad578063284328d014610237578063392a70a6146102575780633ab95f30146102775780633b7d255c1461028a57600080fd5b8063025430b1146101d457806321f29391146101fa578063278338e814610222575b600080fd5b6101e76101e2366004612fc6565b610483565b6040519081526020015b60405180910390f35b61020d61020836600461309f565b6104b4565b604080519283526020830191909152016101f1565b6102356102303660046130e4565b6104ff565b005b61024a610245366004613176565b610622565b6040516101f191906131b3565b61026a610265366004613202565b6106b3565b6040516101f1919061321b565b6101e7610285366004613202565b610715565b61026a610736565b61026a61078e565b6101e76102a8366004613202565b6107e4565b6102356102bb3660046132df565b6107f4565b6102d36102ce366004613202565b610d5a565b6040516101f19493929190613469565b61026a610f1b565b6102fe6102f9366004613202565b610f71565b6040516101f19594939291906134a8565b61023561031d3660046130e4565b6110b0565b610335610330366004613176565b611234565b6040516101f191906134eb565b6101e7610350366004613202565b611470565b61026a611480565b61023561036b3660046135a2565b6114d6565b6101e761037e366004612fc6565b611670565b61026a610391366004613202565b61168c565b6101e76103a4366004613202565b6116ec565b6103356103b7366004613176565b6116fc565b6102356103ca366004613623565b611938565b6103e26103dd366004613202565b6119f4565b6040516101f19e9d9c9b9a9998979695949392919061365f565b61040f61040a36600461309f565b611e1b565b6040516101f1959493929190613738565b61040f61042e36600461309f565b611f92565b610446610441366004613202565b611fbd565b6040516101f19b9a9998979695949392919061377d565b61023561046b366004613623565b6123d3565b61023561047e3660046130e4565b612cab565b6009602052816000526040600020818154811061049f57600080fd5b90600052602060002001600091509150505481565b8151602081840181018051600a8252928201918501919091209190528054829081106104df57600080fd5b600091825260209091206002909102018054600190910154909250905082565b61050884612e29565b156105765760405162461bcd60e51b815260206004820152603360248201527f546869732050726f6475637454656d706c617465494420616c72656164792065604482015272786973747320696e207468652073797374656d60681b60648201526084015b60405180910390fd5b604080516080810182528581526020808201868152828401869052606083018590526000888152600490925292902081518155915190919060018201906105bd90826138c1565b50604082015160028201906105d290826138c1565b50606082015160038201906105e790826138c1565b5050600080546001810182559080527f290decd9548b62a8d60345a988386fc84ba6bc95484008f6362f93160ef3e563019490945550505050565b6060600a826040516106349190613981565b9081526020016040518091039020805480602002602001604051908101604052809291908181526020016000905b828210156106a857838290600052602060002090600202016040518060400160405290816000820154815260200160018201548152505081526020019060010190610662565b505050509050919050565b60008181526008602090815260409182902080548351818402810184019094528084526060939283018282801561070957602002820191906000526020600020905b8154815260200190600101908083116106f5575b50505050509050919050565b6000818154811061072557600080fd5b600091825260209091200154905081565b6060600080548060200260200160405190810160405280929190818152602001828054801561078457602002820191906000526020600020905b815481526020019060010190808311610770575b5050505050905090565b606060018054806020026020016040519081016040528092919081815260200182805480156107845760200282019190600052602060002090815481526020019060010190808311610770575050505050905090565b6001818154811061072557600080fd5b6107fd8a612e7f565b156108565760405162461bcd60e51b8152602060048201526024808201527f4261746368494420616c72656164792065786973747320696e207468652073796044820152637374656d60e01b606482015260840161056d565b868951146108cc5760405162461bcd60e51b815260206004820152603760248201527f53697a65206f662070726f6475637449447320617272617920646f6573206e6f60448201527f74206d6174636820776974682042617463682073697a65000000000000000000606482015260840161056d565b604051806101c001604052808b8152602001888152602001600081526020018781526020018681526020018581526020018481526020018381526020018281526020016000815260200160001515815260200160405180602001604052806000815250815260200160405180602001604052806000815250815260200188815250600760008c8152602001908152602001600020600082015181600001556020820151816001015560408201518160020155606082015181600301908161099391906138c1565b506080820151600482015560a082015160058201906109b290826138c1565b5060c082015160068201906109c790826138c1565b5060e082015160078201906109dc90826138c1565b5061010082015160088201906109f290826138c1565b506101208201516009820155610140820151600a8201805460ff1916911515919091179055610160820151600b820190610a2c90826138c1565b50610180820151600c820190610a4290826138c1565b506101a09190910151600d9091015560038054600181019091557fc2575a0e9e593c00f959f8c92f12db2869c3395a3b0502d05e2516446f71f85b018a905560008a81526008602090815260409091208a51610aa0928c0190612f66565b5060008a81526009602090815260409091208951610ac0928b0190612f66565b5060005b87811015610d4d57610aee8a8281518110610ae157610ae161399d565b6020026020010151612ecc565b15610b4a5760405162461bcd60e51b815260206004820152602660248201527f50726f64756374494420616c72656164792065786973747320696e207468652060448201526573797374656d60d01b606482015260840161056d565b6040518061016001604052808b8381518110610b6857610b6861399d565b602002602001015181526020018c815260200187815260200183815260200160405180602001604052806000815250815260200160405180602001604052806000815250815260200160001515815260200160405180602001604052806000815250815260200160405180602001604052806000815250815260200160405180602001604052806000815250815260200160405180602001604052806000815250815250600660008c8481518110610c2257610c2261399d565b602002602001015181526020019081526020016000206000820151816000015560208201518160010155604082015181600201556060820151816003019081610c6b91906138c1565b5060808201516004820190610c8090826138c1565b5060a08201516005820190610c9590826138c1565b5060c082015160068201805460ff191691151591909117905560e08201516007820190610cc290826138c1565b506101008201516008820190610cd890826138c1565b506101208201516009820190610cee90826138c1565b50610140820151600a820190610d0490826138c1565b5090505060028a8281518110610d1c57610d1c61399d565b6020908102919091018101518254600181018455600093845291909220015580610d45816139c9565b915050610ac4565b5050505050505050505050565b60046020526000908152604090208054600182018054919291610d7c90613838565b80601f0160208091040260200160405190810160405280929190818152602001828054610da890613838565b8015610df55780601f10610dca57610100808354040283529160200191610df5565b820191906000526020600020905b815481529060010190602001808311610dd857829003601f168201915b505050505090806002018054610e0a90613838565b80601f0160208091040260200160405190810160405280929190818152602001828054610e3690613838565b8015610e835780601f10610e5857610100808354040283529160200191610e83565b820191906000526020600020905b815481529060010190602001808311610e6657829003601f168201915b505050505090806003018054610e9890613838565b80601f0160208091040260200160405190810160405280929190818152602001828054610ec490613838565b8015610f115780601f10610ee657610100808354040283529160200191610f11565b820191906000526020600020905b815481529060010190602001808311610ef457829003601f168201915b5050505050905084565b606060038054806020026020016040519081016040528092919081815260200182805480156107845760200282019190600052602060002090815481526020019060010190808311610770575050505050905090565b60056020526000908152604090208054600182015460028301805492939192610f9990613838565b80601f0160208091040260200160405190810160405280929190818152602001828054610fc590613838565b80156110125780601f10610fe757610100808354040283529160200191611012565b820191906000526020600020905b815481529060010190602001808311610ff557829003601f168201915b50505050509080600301549080600401805461102d90613838565b80601f016020809104026020016040519081016040528092919081815260200182805461105990613838565b80156110a65780601f1061107b576101008083540402835291602001916110a6565b820191906000526020600020905b81548152906001019060200180831161108957829003601f168201915b5050505050905085565b6000848152600660208190526040909120015460ff16156111295760405162461bcd60e51b815260206004820152602d60248201527f5468697320626174636820697320616c7265616479207363616e6e656420627960448201526c103a3432903932ba30b4b632b960991b606482015260840161056d565b8260405160200161113a9190613981565b60408051601f19818403018152828252805160209182012060008881526006835292909220919261116f9260050191016139e2565b60405160208183030381529060405280519060200120146111e55760405162461bcd60e51b815260206004820152602a60248201527f546869732070726f64756374206973206e6f74206f776e65642062792074686960448201526939903932ba30b4b632b960b11b606482015260840161056d565b6000848152600660208190526040909120908101805460ff1916600117905560070161121183826138c1565b50600084815260066020526040902060080161122d82826138c1565b5050505050565b6060600b826040516112469190613981565b9081526020016040518091039020805480602002602001604051908101604052809291908181526020016000905b828210156106a857838290600052602060002090600502016040518060a00160405290816000820180546112a790613838565b80601f01602080910402602001604051908101604052809291908181526020018280546112d390613838565b80156113205780601f106112f557610100808354040283529160200191611320565b820191906000526020600020905b81548152906001019060200180831161130357829003601f168201915b5050505050815260200160018201805461133990613838565b80601f016020809104026020016040519081016040528092919081815260200182805461136590613838565b80156113b25780601f10611387576101008083540402835291602001916113b2565b820191906000526020600020905b81548152906001019060200180831161139557829003601f168201915b5050505050815260200160028201548152602001600382015481526020016004820180546113df90613838565b80601f016020809104026020016040519081016040528092919081815260200182805461140b90613838565b80156114585780601f1061142d57610100808354040283529160200191611458565b820191906000526020600020905b81548152906001019060200180831161143b57829003601f168201915b50505050508152505081526020019060010190611274565b6003818154811061072557600080fd5b606060028054806020026020016040519081016040528092919081815260200182805480156107845760200282019190600052602060002090815481526020019060010190808311610770575050505050905090565b6114df85612f19565b156115465760405162461bcd60e51b815260206004820152603160248201527f5468697320426174636854656d706c617465494420616c72656164792065786960448201527073747320696e207468652073797374656d60781b606482015260840161056d565b61154f84612e29565b15156001146115bd5760405162461bcd60e51b815260206004820152603460248201527f546869732050726f6475637454656d706c617465494420646f6573206e6f742060448201527365786973747320696e207468652073797374656d60601b606482015260840161056d565b6040805160a0810182528681526020808201878152828401878152606084018790526080840186905260008a815260059093529390912082518155905160018201559151909190600282019061161390826138c1565b50606082015160038201556080820151600482019061163290826138c1565b50506001805480820182556000919091527fb10e2d527612073b26eecdfd717e6a320cf44b4afac2b0732d9fcbe2b7fa0cf601959095555050505050565b6008602052816000526040600020818154811061049f57600080fd5b60008181526009602090815260409182902080548351818402810184019094528084526060939283018282801561070957602002820191906000526020600020908154815260200190600101908083116106f55750505050509050919050565b6002818154811061072557600080fd5b6060600c8260405161170e9190613981565b9081526020016040518091039020805480602002602001604051908101604052809291908181526020016000905b828210156106a857838290600052602060002090600502016040518060a001604052908160008201805461176f90613838565b80601f016020809104026020016040519081016040528092919081815260200182805461179b90613838565b80156117e85780601f106117bd576101008083540402835291602001916117e8565b820191906000526020600020905b8154815290600101906020018083116117cb57829003601f168201915b5050505050815260200160018201805461180190613838565b80601f016020809104026020016040519081016040528092919081815260200182805461182d90613838565b801561187a5780601f1061184f5761010080835404028352916020019161187a565b820191906000526020600020905b81548152906001019060200180831161185d57829003601f168201915b5050505050815260200160028201548152602001600382015481526020016004820180546118a790613838565b80601f01602080910402602001604051908101604052809291908181526020018280546118d390613838565b80156119205780601f106118f557610100808354040283529160200191611920565b820191906000526020600020905b81548152906001019060200180831161190357829003601f168201915b5050505050815250508152602001906001019061173c565b600084815260076020526040812060020180546001929061195a908490613a58565b9091555050600083815260066020526040902060040161197a83826138c1565b506000838152600660205260409020600a0161199682826138c1565b50600a826040516119a79190613981565b908152604080516020928190038301812081830190925295865281860194855280546001808201835560009283529290912095516002909102909501948555925193909201929092555050565b600760205260009081526040902080546001820154600283015460038401805493949293919291611a2490613838565b80601f0160208091040260200160405190810160405280929190818152602001828054611a5090613838565b8015611a9d5780601f10611a7257610100808354040283529160200191611a9d565b820191906000526020600020905b815481529060010190602001808311611a8057829003601f168201915b505050505090806004015490806005018054611ab890613838565b80601f0160208091040260200160405190810160405280929190818152602001828054611ae490613838565b8015611b315780601f10611b0657610100808354040283529160200191611b31565b820191906000526020600020905b815481529060010190602001808311611b1457829003601f168201915b505050505090806006018054611b4690613838565b80601f0160208091040260200160405190810160405280929190818152602001828054611b7290613838565b8015611bbf5780601f10611b9457610100808354040283529160200191611bbf565b820191906000526020600020905b815481529060010190602001808311611ba257829003601f168201915b505050505090806007018054611bd490613838565b80601f0160208091040260200160405190810160405280929190818152602001828054611c0090613838565b8015611c4d5780601f10611c2257610100808354040283529160200191611c4d565b820191906000526020600020905b815481529060010190602001808311611c3057829003601f168201915b505050505090806008018054611c6290613838565b80601f0160208091040260200160405190810160405280929190818152602001828054611c8e90613838565b8015611cdb5780601f10611cb057610100808354040283529160200191611cdb565b820191906000526020600020905b815481529060010190602001808311611cbe57829003601f168201915b505050506009830154600a840154600b850180549495929460ff909216935090611d0490613838565b80601f0160208091040260200160405190810160405280929190818152602001828054611d3090613838565b8015611d7d5780601f10611d5257610100808354040283529160200191611d7d565b820191906000526020600020905b815481529060010190602001808311611d6057829003601f168201915b50505050509080600c018054611d9290613838565b80601f0160208091040260200160405190810160405280929190818152602001828054611dbe90613838565b8015611e0b5780601f10611de057610100808354040283529160200191611e0b565b820191906000526020600020905b815481529060010190602001808311611dee57829003601f168201915b50505050509080600d015490508e565b8151602081840181018051600b825292820191850191909120919052805482908110611e4657600080fd5b906000526020600020906005020160009150915050806000018054611e6a90613838565b80601f0160208091040260200160405190810160405280929190818152602001828054611e9690613838565b8015611ee35780601f10611eb857610100808354040283529160200191611ee3565b820191906000526020600020905b815481529060010190602001808311611ec657829003601f168201915b505050505090806001018054611ef890613838565b80601f0160208091040260200160405190810160405280929190818152602001828054611f2490613838565b8015611f715780601f10611f4657610100808354040283529160200191611f71565b820191906000526020600020905b815481529060010190602001808311611f5457829003601f168201915b50505050509080600201549080600301549080600401805461102d90613838565b8151602081840181018051600c825292820191850191909120919052805482908110611e4657600080fd5b600660205260009081526040902080546001820154600283015460038401805493949293919291611fed90613838565b80601f016020809104026020016040519081016040528092919081815260200182805461201990613838565b80156120665780601f1061203b57610100808354040283529160200191612066565b820191906000526020600020905b81548152906001019060200180831161204957829003601f168201915b50505050509080600401805461207b90613838565b80601f01602080910402602001604051908101604052809291908181526020018280546120a790613838565b80156120f45780601f106120c9576101008083540402835291602001916120f4565b820191906000526020600020905b8154815290600101906020018083116120d757829003601f168201915b50505050509080600501805461210990613838565b80601f016020809104026020016040519081016040528092919081815260200182805461213590613838565b80156121825780601f1061215757610100808354040283529160200191612182565b820191906000526020600020905b81548152906001019060200180831161216557829003601f168201915b5050506006840154600785018054949560ff9092169491935091506121a690613838565b80601f01602080910402602001604051908101604052809291908181526020018280546121d290613838565b801561221f5780601f106121f45761010080835404028352916020019161221f565b820191906000526020600020905b81548152906001019060200180831161220257829003601f168201915b50505050509080600801805461223490613838565b80601f016020809104026020016040519081016040528092919081815260200182805461226090613838565b80156122ad5780601f10612282576101008083540402835291602001916122ad565b820191906000526020600020905b81548152906001019060200180831161229057829003601f168201915b5050505050908060090180546122c290613838565b80601f01602080910402602001604051908101604052809291908181526020018280546122ee90613838565b801561233b5780601f106123105761010080835404028352916020019161233b565b820191906000526020600020905b81548152906001019060200180831161231e57829003601f168201915b50505050509080600a01805461235090613838565b80601f016020809104026020016040519081016040528092919081815260200182805461237c90613838565b80156123c95780601f1061239e576101008083540402835291602001916123c9565b820191906000526020600020905b8154815290600101906020018083116123ac57829003601f168201915b505050505090508b565b6000848152600760205260408120600d8101546001820154600690920180549193916123fe90613838565b80601f016020809104026020016040519081016040528092919081815260200182805461242a90613838565b80156124775780601f1061244c57610100808354040283529160200191612477565b820191906000526020600020905b81548152906001019060200180831161245a57829003601f168201915b50505050509050858310156124fe5760405162461bcd60e51b815260206004820152604160248201527f5175616e746974792069732067726561746572207468616e2074686520616d6f60448201527f756e74206c65667420746f20626520736f6c6420696e207468697320626174636064820152600d60fb1b608482015260a40161056d565b6000861161254e5760405162461bcd60e51b815260206004820152601760248201527f5175616e746974792063616e6e6f74206265207a65726f000000000000000000604482015260640161056d565b600061255a8484613a71565b6000898152600860209081526040808320805482518185028101850190935280835294955092939092918301828280156125b357602002820191906000526020600020905b81548152602001906001019080831161259f575b509394508593505050505b6125c88984613a58565b811015612b405760008282815181106125e3576125e361399d565b602002602001015190506000600660008381526020019081526020016000206040518061016001604052908160008201548152602001600182015481526020016002820154815260200160038201805461263c90613838565b80601f016020809104026020016040519081016040528092919081815260200182805461266890613838565b80156126b55780601f1061268a576101008083540402835291602001916126b5565b820191906000526020600020905b81548152906001019060200180831161269857829003601f168201915b505050505081526020016004820180546126ce90613838565b80601f01602080910402602001604051908101604052809291908181526020018280546126fa90613838565b80156127475780601f1061271c57610100808354040283529160200191612747565b820191906000526020600020905b81548152906001019060200180831161272a57829003601f168201915b5050505050815260200160058201805461276090613838565b80601f016020809104026020016040519081016040528092919081815260200182805461278c90613838565b80156127d95780601f106127ae576101008083540402835291602001916127d9565b820191906000526020600020905b8154815290600101906020018083116127bc57829003601f168201915b5050509183525050600682015460ff161515602082015260078201805460409092019161280590613838565b80601f016020809104026020016040519081016040528092919081815260200182805461283190613838565b801561287e5780601f106128535761010080835404028352916020019161287e565b820191906000526020600020905b81548152906001019060200180831161286157829003601f168201915b5050505050815260200160088201805461289790613838565b80601f01602080910402602001604051908101604052809291908181526020018280546128c390613838565b80156129105780601f106128e557610100808354040283529160200191612910565b820191906000526020600020905b8154815290600101906020018083116128f357829003601f168201915b5050505050815260200160098201805461292990613838565b80601f016020809104026020016040519081016040528092919081815260200182805461295590613838565b80156129a25780601f10612977576101008083540402835291602001916129a2565b820191906000526020600020905b81548152906001019060200180831161298557829003601f168201915b50505050508152602001600a820180546129bb90613838565b80601f01602080910402602001604051908101604052809291908181526020018280546129e790613838565b8015612a345780601f10612a0957610100808354040283529160200191612a34565b820191906000526020600020905b815481529060010190602001808311612a1757829003601f168201915b5050509190925250505060a081018b905261012081018a905260008381526006602090815260409182902083518155908301516001820155908201516002820155606082015191925082916003820190612a8e90826138c1565b5060808201516004820190612aa390826138c1565b5060a08201516005820190612ab890826138c1565b5060c082015160068201805460ff191691151591909117905560e08201516007820190612ae590826138c1565b506101008201516008820190612afb90826138c1565b506101208201516009820190612b1190826138c1565b50610140820151600a820190612b2790826138c1565b5090505050508080612b38906139c9565b9150506125be565b506000898152600760205260408120600d0180548a9290612b62908490613a71565b90915550506040805160a081018252848152602081018990528082018b9052606081018a9052608081018890529051600b90612b9f908690613981565b908152604051602091819003820190208054600181018255600091825291902082518392600502909101908190612bd690826138c1565b5060208201516001820190612beb90826138c1565b50604082015160028201556060820151600382015560808201516004820190612c1490826138c1565b505050600c88604051612c279190613981565b908152604051602091819003820190208054600181018255600091825291902082518392600502909101908190612c5e90826138c1565b5060208201516001820190612c7390826138c1565b50604082015160028201556060820151600382015560808201516004820190612c9c90826138c1565b50505050505050505050505050565b6000848152600760205260409020600a015460ff1615612d265760405162461bcd60e51b815260206004820152603060248201527f5468697320626174636820697320616c7265616479207363616e6e656420627960448201526f103a3432903234b9ba3934b13aba37b960811b606482015260840161056d565b82604051602001612d379190613981565b60408051601f198184030181528282528051602091820120600088815260078352929092209192612d6c9260060191016139e2565b6040516020818303038152906040528051906020012014612de35760405162461bcd60e51b815260206004820152602b60248201527f54686973206261746368206973206e6f74206f776e656420627920746869732060448201526a3234b9ba3934b13aba37b960a91b606482015260840161056d565b6000848152600760205260409020600a8101805460ff19166001179055600b01612e0d83826138c1565b506000848152600760205260409020600c0161122d82826138c1565b6000805b600054811015612e76578260008281548110612e4b57612e4b61399d565b906000526020600020015403612e645750600192915050565b80612e6e816139c9565b915050612e2d565b50600092915050565b6000805b600354811015612e76578260038281548110612ea157612ea161399d565b906000526020600020015403612eba5750600192915050565b80612ec4816139c9565b915050612e83565b6000805b600254811015612e76578260028281548110612eee57612eee61399d565b906000526020600020015403612f075750600192915050565b80612f11816139c9565b915050612ed0565b6000805b600154811015612e76578260018281548110612f3b57612f3b61399d565b906000526020600020015403612f545750600192915050565b80612f5e816139c9565b915050612f1d565b828054828255906000526020600020908101928215612fa1579160200282015b82811115612fa1578251825591602001919060010190612f86565b50612fad929150612fb1565b5090565b5b80821115612fad5760008155600101612fb2565b60008060408385031215612fd957600080fd5b50508035926020909101359150565b634e487b7160e01b600052604160045260246000fd5b604051601f8201601f1916810167ffffffffffffffff8111828210171561302757613027612fe8565b604052919050565b600082601f83011261304057600080fd5b813567ffffffffffffffff81111561305a5761305a612fe8565b61306d601f8201601f1916602001612ffe565b81815284602083860101111561308257600080fd5b816020850160208301376000918101602001919091529392505050565b600080604083850312156130b257600080fd5b823567ffffffffffffffff8111156130c957600080fd5b6130d58582860161302f565b95602094909401359450505050565b600080600080608085870312156130fa57600080fd5b84359350602085013567ffffffffffffffff8082111561311957600080fd5b6131258883890161302f565b9450604087013591508082111561313b57600080fd5b6131478883890161302f565b9350606087013591508082111561315d57600080fd5b5061316a8782880161302f565b91505092959194509250565b60006020828403121561318857600080fd5b813567ffffffffffffffff81111561319f57600080fd5b6131ab8482850161302f565b949350505050565b602080825282518282018190526000919060409081850190868401855b828110156131f5578151805185528601518685015292840192908501906001016131d0565b5091979650505050505050565b60006020828403121561321457600080fd5b5035919050565b6020808252825182820181905260009190848201906040850190845b8181101561325357835183529284019291840191600101613237565b50909695505050505050565b600082601f83011261327057600080fd5b8135602067ffffffffffffffff82111561328c5761328c612fe8565b8160051b61329b828201612ffe565b92835284810182019282810190878511156132b557600080fd5b83870192505b848310156132d4578235825291830191908301906132bb565b979650505050505050565b6000806000806000806000806000806101408b8d0312156132ff57600080fd5b8a35995060208b013567ffffffffffffffff8082111561331e57600080fd5b61332a8e838f0161325f565b9a5060408d013591508082111561334057600080fd5b61334c8e838f0161325f565b995060608d0135985060808d013591508082111561336957600080fd5b6133758e838f0161302f565b975060a08d0135965060c08d013591508082111561339257600080fd5b61339e8e838f0161302f565b955060e08d01359150808211156133b457600080fd5b6133c08e838f0161302f565b94506101008d01359150808211156133d757600080fd5b6133e38e838f0161302f565b93506101208d01359150808211156133fa57600080fd5b506134078d828e0161302f565b9150509295989b9194979a5092959850565b60005b8381101561343457818101518382015260200161341c565b50506000910152565b60008151808452613455816020860160208601613419565b601f01601f19169290920160200192915050565b848152608060208201526000613482608083018661343d565b8281036040840152613494818661343d565b905082810360608401526132d4818561343d565b85815284602082015260a0604082015260006134c760a083018661343d565b84606084015282810360808401526134df818561343d565b98975050505050505050565b60006020808301818452808551808352604092508286019150828160051b87010184880160005b8381101561359457603f19898403018552815160a081518186526135388287018261343d565b915050888201518582038a870152613550828261343d565b9150508782015188860152606080830151818701525060808083015192508582038187015250613580818361343d565b968901969450505090860190600101613512565b509098975050505050505050565b600080600080600060a086880312156135ba57600080fd5b8535945060208601359350604086013567ffffffffffffffff808211156135e057600080fd5b6135ec89838a0161302f565b945060608801359350608088013591508082111561360957600080fd5b506136168882890161302f565b9150509295509295909350565b6000806000806080858703121561363957600080fd5b8435935060208501359250604085013567ffffffffffffffff8082111561313b57600080fd5b8e81528d60208201528c60408201526101c0606082015260006136866101c083018e61343d565b8c608084015282810360a084015261369e818d61343d565b905082810360c08401526136b2818c61343d565b905082810360e08401526136c6818b61343d565b90508281036101008401526136db818a61343d565b9050876101208401526136f361014084018815159052565b828103610160840152613706818761343d565b905082810361018084015261371b818661343d565b915050826101a08301529f9e505050505050505050505050505050565b60a08152600061374b60a083018861343d565b828103602084015261375d818861343d565b905085604084015284606084015282810360808401526134df818561343d565b60006101608d83528c60208401528b60408401528060608401526137a38184018c61343d565b905082810360808401526137b7818b61343d565b905082810360a08401526137cb818a61343d565b88151560c0850152905082810360e08401526137e7818861343d565b90508281036101008401526137fc818761343d565b9050828103610120840152613811818661343d565b9050828103610140840152613826818561343d565b9e9d5050505050505050505050505050565b600181811c9082168061384c57607f821691505b60208210810361386c57634e487b7160e01b600052602260045260246000fd5b50919050565b601f8211156138bc57600081815260208120601f850160051c810160208610156138995750805b601f850160051c820191505b818110156138b8578281556001016138a5565b5050505b505050565b815167ffffffffffffffff8111156138db576138db612fe8565b6138ef816138e98454613838565b84613872565b602080601f831160018114613924576000841561390c5750858301515b600019600386901b1c1916600185901b1785556138b8565b600085815260208120601f198616915b8281101561395357888601518255948401946001909101908401613934565b50858210156139715787850151600019600388901b60f8161c191681555b5050505050600190811b01905550565b60008251613993818460208701613419565b9190910192915050565b634e487b7160e01b600052603260045260246000fd5b634e487b7160e01b600052601160045260246000fd5b6000600182016139db576139db6139b3565b5060010190565b60008083546139f081613838565b60018281168015613a085760018114613a1d57613a4c565b60ff1984168752821515830287019450613a4c565b8760005260208060002060005b85811015613a435781548a820152908401908201613a2a565b50505082870194505b50929695505050505050565b80820180821115613a6b57613a6b6139b3565b92915050565b81810381811115613a6b57613a6b6139b356fea264697066735822122045556308dbd49400ca78dbafeeeb5e2a07b8c73b300b79229d072a9bbf40417e64736f6c63430008110033",
  "linkReferences": {},
  "deployedLinkReferences": {}
}