{
  "_format": "hh-sol-artifact-1",
  "contractName": "Supplychain",
  "sourceName": "contracts/Supplychain.sol",
  "abi": [
    {
      "inputs": [
        {
          "internalType": "uint256",
          "name": "",
          "type": "uint256"
        },
        {
          "internalType": "uint256",
          "name": "",
          "type": "uint256"
        }
      ],
      "name": "BatchIDToProductIDMapping",
      "outputs": [
        {
          "internalType": "uint256",
          "name": "",
          "type": "uint256"
        }
      ],
      "stateMutability": "view",
      "type": "function"
    },
    {
      "inputs": [
        {
          "internalType": "uint256",
          "name": "",
          "type": "uint256"
        }
      ],
      "name": "BatchIDs",
      "outputs": [
        {
          "internalType": "uint256",
          "name": "",
          "type": "uint256"
        }
      ],
      "stateMutability": "view",
      "type": "function"
    },
    {
      "inputs": [
        {
          "internalType": "uint256",
          "name": "",
          "type": "uint256"
        }
      ],
      "name": "BatchMapping",
      "outputs": [
        {
          "internalType": "uint256",
          "name": "BatchID",
          "type": "uint256"
        },
        {
          "internalType": "uint256",
          "name": "BatchSize",
          "type": "uint256"
        },
        {
          "internalType": "uint256",
          "name": "AmountSoldTOCustomer",
          "type": "uint256"
        },
        {
          "internalType": "string",
          "name": "BatchDescription",
          "type": "string"
        },
        {
          "internalType": "uint256",
          "name": "ProductTemplateID",
          "type": "uint256"
        },
        {
          "internalType": "string",
          "name": "FactoryID",
          "type": "string"
        },
        {
          "internalType": "string",
          "name": "DistributorID",
          "type": "string"
        },
        {
          "internalType": "string",
          "name": "FactoryLocation",
          "type": "string"
        },
        {
          "internalType": "string",
          "name": "DateOfProduction",
          "type": "string"
        },
        {
          "internalType": "uint256",
          "name": "State",
          "type": "uint256"
        },
        {
          "internalType": "bool",
          "name": "DistributorScanned",
          "type": "bool"
        },
        {
          "internalType": "string",
          "name": "DistributorScannedTimeStamp",
          "type": "string"
        },
        {
          "internalType": "uint256",
          "name": "AmountLeftForSellingTORetailer",
          "type": "uint256"
        },
        {
          "internalType": "uint256",
          "name": "CompanyBatchID",
          "type": "uint256"
        }
      ],
      "stateMutability": "view",
      "type": "function"
    },
    {
      "inputs": [
        {
          "internalType": "uint256",
          "name": "",
          "type": "uint256"
        }
      ],
      "name": "BatchTemplateIDs",
      "outputs": [
        {
          "internalType": "uint256",
          "name": "",
          "type": "uint256"
        }
      ],
      "stateMutability": "view",
      "type": "function"
    },
    {
      "inputs": [
        {
          "internalType": "uint256",
          "name": "",
          "type": "uint256"
        }
      ],
      "name": "BatchTemplateMAP",
      "outputs": [
        {
          "internalType": "uint256",
          "name": "BatchTemplateID",
          "type": "uint256"
        },
        {
          "internalType": "uint256",
          "name": "ProductTemplateID",
          "type": "uint256"
        },
        {
          "internalType": "string",
          "name": "Description",
          "type": "string"
        },
        {
          "internalType": "uint256",
          "name": "BatchSize",
          "type": "uint256"
        },
        {
          "internalType": "string",
          "name": "FactoryID",
          "type": "string"
        }
      ],
      "stateMutability": "view",
      "type": "function"
    },
    {
      "inputs": [
        {
          "internalType": "string",
          "name": "",
          "type": "string"
        },
        {
          "internalType": "uint256",
          "name": "",
          "type": "uint256"
        }
      ],
      "name": "CustomerData",
      "outputs": [
        {
          "internalType": "uint256",
          "name": "BatchID",
          "type": "uint256"
        },
        {
          "internalType": "uint256",
          "name": "ProductID",
          "type": "uint256"
        },
        {
          "internalType": "string",
          "name": "CustomerID",
          "type": "string"
        },
        {
          "internalType": "string",
          "name": "CustomerName",
          "type": "string"
        }
      ],
      "stateMutability": "view",
      "type": "function"
    },
    {
      "inputs": [
        {
          "internalType": "string",
          "name": "",
          "type": "string"
        },
        {
          "internalType": "uint256",
          "name": "",
          "type": "uint256"
        }
      ],
      "name": "DistributorIDToRetailerStruct",
      "outputs": [
        {
          "internalType": "string",
          "name": "DistributorID",
          "type": "string"
        },
        {
          "internalType": "string",
          "name": "RetailerID",
          "type": "string"
        },
        {
          "internalType": "uint256",
          "name": "BatchID",
          "type": "uint256"
        },
        {
          "internalType": "uint256",
          "name": "Quantity",
          "type": "uint256"
        },
        {
          "internalType": "string",
          "name": "TimeStamp",
          "type": "string"
        }
      ],
      "stateMutability": "view",
      "type": "function"
    },
    {
      "inputs": [
        {
          "internalType": "uint256",
          "name": "",
          "type": "uint256"
        }
      ],
      "name": "ProductIDs",
      "outputs": [
        {
          "internalType": "uint256",
          "name": "",
          "type": "uint256"
        }
      ],
      "stateMutability": "view",
      "type": "function"
    },
    {
      "inputs": [
        {
          "internalType": "uint256",
          "name": "",
          "type": "uint256"
        }
      ],
      "name": "ProductMapping",
      "outputs": [
        {
          "internalType": "uint256",
          "name": "ProductID",
          "type": "uint256"
        },
        {
          "internalType": "uint256",
          "name": "CompanyProductID",
          "type": "uint256"
        },
        {
          "internalType": "uint256",
          "name": "BatchID",
          "type": "uint256"
        },
        {
          "internalType": "uint256",
          "name": "ProductTemplateID",
          "type": "uint256"
        },
        {
          "internalType": "string",
          "name": "DOM",
          "type": "string"
        },
        {
          "internalType": "string",
          "name": "CustomerID",
          "type": "string"
        },
        {
          "internalType": "string",
          "name": "RetailerID",
          "type": "string"
        },
        {
          "internalType": "bool",
          "name": "RetailerScanned",
          "type": "bool"
        },
        {
          "internalType": "string",
          "name": "RetailerScannedTimeStamp",
          "type": "string"
        },
        {
          "internalType": "string",
          "name": "DateWhenSoldToRetailer",
          "type": "string"
        },
        {
          "internalType": "string",
          "name": "DateWhenSoldToCustomer",
          "type": "string"
        },
        {
          "internalType": "string",
          "name": "RetailerLatitude",
          "type": "string"
        },
        {
          "internalType": "string",
          "name": "RetailerLongitude",
          "type": "string"
        },
        {
          "internalType": "string",
          "name": "CustomerName",
          "type": "string"
        }
      ],
      "stateMutability": "view",
      "type": "function"
    },
    {
      "inputs": [
        {
          "internalType": "uint256",
          "name": "",
          "type": "uint256"
        }
      ],
      "name": "ProductTemplateIDs",
      "outputs": [
        {
          "internalType": "uint256",
          "name": "",
          "type": "uint256"
        }
      ],
      "stateMutability": "view",
      "type": "function"
    },
    {
      "inputs": [
        {
          "internalType": "uint256",
          "name": "",
          "type": "uint256"
        }
      ],
      "name": "ProductTemplateMAP",
      "outputs": [
        {
          "internalType": "uint256",
          "name": "ProductTemplateID",
          "type": "uint256"
        },
        {
          "internalType": "string",
          "name": "Name",
          "type": "string"
        },
        {
          "internalType": "string",
          "name": "Description",
          "type": "string"
        },
        {
          "internalType": "string",
          "name": "FactoryID",
          "type": "string"
        }
      ],
      "stateMutability": "view",
      "type": "function"
    },
    {
      "inputs": [
        {
          "internalType": "string",
          "name": "",
          "type": "string"
        },
        {
          "internalType": "uint256",
          "name": "",
          "type": "uint256"
        }
      ],
      "name": "RetailerIDToRetailerStruct",
      "outputs": [
        {
          "internalType": "string",
          "name": "DistributorID",
          "type": "string"
        },
        {
          "internalType": "string",
          "name": "RetailerID",
          "type": "string"
        },
        {
          "internalType": "uint256",
          "name": "BatchID",
          "type": "uint256"
        },
        {
          "internalType": "uint256",
          "name": "Quantity",
          "type": "uint256"
        },
        {
          "internalType": "string",
          "name": "TimeStamp",
          "type": "string"
        }
      ],
      "stateMutability": "view",
      "type": "function"
    },
    {
      "inputs": [
        {
          "internalType": "uint256",
          "name": "_batchTemplateID",
          "type": "uint256"
        },
        {
          "internalType": "uint256",
          "name": "_productTemplateID",
          "type": "uint256"
        },
        {
          "internalType": "string",
          "name": "_description",
          "type": "string"
        },
        {
          "internalType": "uint256",
          "name": "_batchSize",
          "type": "uint256"
        },
        {
          "internalType": "string",
          "name": "_factoryID",
          "type": "string"
        }
      ],
      "name": "addBatchTemplate",
      "outputs": [],
      "stateMutability": "nonpayable",
      "type": "function"
    },
    {
      "inputs": [
        {
          "internalType": "uint256",
          "name": "_productTemplateID",
          "type": "uint256"
        },
        {
          "internalType": "string",
          "name": "_name",
          "type": "string"
        },
        {
          "internalType": "string",
          "name": "_description",
          "type": "string"
        },
        {
          "internalType": "string",
          "name": "_factoryID",
          "type": "string"
        }
      ],
      "name": "addProductTemplate",
      "outputs": [],
      "stateMutability": "nonpayable",
      "type": "function"
    },
    {
      "inputs": [
        {
          "internalType": "uint256",
          "name": "batchID",
          "type": "uint256"
        },
        {
          "internalType": "uint256",
          "name": "companyBatchID",
          "type": "uint256"
        },
        {
          "internalType": "uint256[]",
          "name": "productIDs",
          "type": "uint256[]"
        },
        {
          "internalType": "uint256",
          "name": "batchSize",
          "type": "uint256"
        },
        {
          "internalType": "string",
          "name": "batchDescription",
          "type": "string"
        },
        {
          "internalType": "uint256",
          "name": "productTemplateID",
          "type": "uint256"
        },
        {
          "internalType": "string",
          "name": "factory",
          "type": "string"
        },
        {
          "internalType": "string",
          "name": "distributor",
          "type": "string"
        },
        {
          "internalType": "string",
          "name": "factoryLocation",
          "type": "string"
        },
        {
          "internalType": "string",
          "name": "dateOfProduction",
          "type": "string"
        }
      ],
      "name": "batchProduced",
      "outputs": [],
      "stateMutability": "nonpayable",
      "type": "function"
    },
    {
      "inputs": [
        {
          "internalType": "uint256",
          "name": "batchID",
          "type": "uint256"
        },
        {
          "internalType": "string",
          "name": "_distributorID",
          "type": "string"
        },
        {
          "internalType": "string",
          "name": "timeStamp",
          "type": "string"
        }
      ],
      "name": "distributorScansBatch",
      "outputs": [],
      "stateMutability": "nonpayable",
      "type": "function"
    },
    {
      "inputs": [
        {
          "internalType": "uint256",
          "name": "batchID",
          "type": "uint256"
        },
        {
          "internalType": "uint256",
          "name": "quantity",
          "type": "uint256"
        }
      ],
      "name": "distributorSellToRetailer",
      "outputs": [],
      "stateMutability": "nonpayable",
      "type": "function"
    },
    {
      "inputs": [],
      "name": "getAllBatchIDs",
      "outputs": [
        {
          "internalType": "uint256[]",
          "name": "",
          "type": "uint256[]"
        }
      ],
      "stateMutability": "view",
      "type": "function"
    },
    {
      "inputs": [],
      "name": "getAllBatchTemplateIDs",
      "outputs": [
        {
          "internalType": "uint256[]",
          "name": "",
          "type": "uint256[]"
        }
      ],
      "stateMutability": "view",
      "type": "function"
    },
    {
      "inputs": [],
      "name": "getAllProductIDs",
      "outputs": [
        {
          "internalType": "uint256[]",
          "name": "",
          "type": "uint256[]"
        }
      ],
      "stateMutability": "view",
      "type": "function"
    },
    {
      "inputs": [],
      "name": "getAllProductTemplateIDs",
      "outputs": [
        {
          "internalType": "uint256[]",
          "name": "",
          "type": "uint256[]"
        }
      ],
      "stateMutability": "view",
      "type": "function"
    },
    {
      "inputs": [
        {
          "internalType": "string",
          "name": "customerID",
          "type": "string"
        }
      ],
      "name": "getAllProductsBought",
      "outputs": [
        {
          "components": [
            {
              "internalType": "uint256",
              "name": "BatchID",
              "type": "uint256"
            },
            {
              "internalType": "uint256",
              "name": "ProductID",
              "type": "uint256"
            },
            {
              "internalType": "string",
              "name": "CustomerID",
              "type": "string"
            },
            {
              "internalType": "string",
              "name": "CustomerName",
              "type": "string"
            }
          ],
          "internalType": "struct Supplychain.Customer[]",
          "name": "",
          "type": "tuple[]"
        }
      ],
      "stateMutability": "view",
      "type": "function"
    },
    {
      "inputs": [
        {
          "internalType": "string",
          "name": "distributorID",
          "type": "string"
        }
      ],
      "name": "getDistributorIDToRetailerStruct",
      "outputs": [
        {
          "components": [
            {
              "internalType": "string",
              "name": "DistributorID",
              "type": "string"
            },
            {
              "internalType": "string",
              "name": "RetailerID",
              "type": "string"
            },
            {
              "internalType": "uint256",
              "name": "BatchID",
              "type": "uint256"
            },
            {
              "internalType": "uint256",
              "name": "Quantity",
              "type": "uint256"
            },
            {
              "internalType": "string",
              "name": "TimeStamp",
              "type": "string"
            }
          ],
          "internalType": "struct Supplychain.Retailer[]",
          "name": "",
          "type": "tuple[]"
        }
      ],
      "stateMutability": "view",
      "type": "function"
    },
    {
      "inputs": [
        {
          "internalType": "uint256",
          "name": "batchID",
          "type": "uint256"
        }
      ],
      "name": "getProductIdsForaBatch",
      "outputs": [
        {
          "internalType": "uint256[]",
          "name": "",
          "type": "uint256[]"
        }
      ],
      "stateMutability": "view",
      "type": "function"
    },
    {
      "inputs": [
        {
          "internalType": "string",
          "name": "retailerID",
          "type": "string"
        }
      ],
      "name": "getRetailerIDToRetailerStruct",
      "outputs": [
        {
          "components": [
            {
              "internalType": "string",
              "name": "DistributorID",
              "type": "string"
            },
            {
              "internalType": "string",
              "name": "RetailerID",
              "type": "string"
            },
            {
              "internalType": "uint256",
              "name": "BatchID",
              "type": "uint256"
            },
            {
              "internalType": "uint256",
              "name": "Quantity",
              "type": "uint256"
            },
            {
              "internalType": "string",
              "name": "TimeStamp",
              "type": "string"
            }
          ],
          "internalType": "struct Supplychain.Retailer[]",
          "name": "",
          "type": "tuple[]"
        }
      ],
      "stateMutability": "view",
      "type": "function"
    },
    {
      "inputs": [
        {
          "internalType": "uint256",
          "name": "_productID",
          "type": "uint256"
        },
        {
          "internalType": "string",
          "name": "_retailerID",
          "type": "string"
        },
        {
          "internalType": "string",
          "name": "timeStamp",
          "type": "string"
        },
        {
          "internalType": "string",
          "name": "latitude",
          "type": "string"
        },
        {
          "internalType": "string",
          "name": "longitude",
          "type": "string"
        }
      ],
      "name": "retailerScansProduct",
      "outputs": [],
      "stateMutability": "nonpayable",
      "type": "function"
    },
    {
      "inputs": [
        {
          "internalType": "uint256",
          "name": "batchID",
          "type": "uint256"
        },
        {
          "internalType": "uint256",
          "name": "productID",
          "type": "uint256"
        },
        {
          "internalType": "string",
          "name": "customerID",
          "type": "string"
        },
        {
          "internalType": "string",
          "name": "customerName",
          "type": "string"
        }
      ],
      "name": "retailerSellToCustomer",
      "outputs": [],
      "stateMutability": "nonpayable",
      "type": "function"
    }
  ],
  "bytecode": "0x608060405234801561001057600080fd5b506134b3806100206000396000f3fe608060405234801561001057600080fd5b50600436106101a95760003560e01c80637f7bf690116100f9578063a7a4523d11610097578063bf801df111610071578063bf801df1146103a8578063e139f994146103d5578063e3c6a4ac146103f9578063eac0e9771461040c57600080fd5b8063a7a4523d1461036f578063ab6e3ec514610382578063b84a6f221461039557600080fd5b80638c4c42cd116100d35780638c4c42cd1461032e5780638e5452b81461033657806390973cce14610349578063a78317f81461035c57600080fd5b80637f7bf690146102e85780638272d34b146103085780638bd428801461031b57600080fd5b80633c2f29761161016657806371d1dc0c1161014057806371d1dc0c14610286578063793560dd146102a95780637ae4ee04146102b15780637c0fac7f146102d557600080fd5b80633c2f2976146102585780634c27729c1461026b5780634ca20f341461027357600080fd5b806321f29391146101ae578063278338e8146101da578063284328d0146101ef578063392a70a61461020f5780633ab95f301461022f5780633b7d255c14610250575b600080fd5b6101c16101bc3660046128df565b610439565b6040516101d19493929190612974565b60405180910390f35b6101ed6101e83660046129b0565b6105a5565b005b6102026101fd366004612a42565b6106c8565b6040516101d19190612a7f565b61022261021d366004612b1b565b61087d565b6040516101d19190612b34565b61024261023d366004612b1b565b6108df565b6040519081526020016101d1565b610222610900565b6101ed610266366004612bed565b610958565b610222610cc5565b610242610281366004612b1b565b610d1b565b610299610294366004612b1b565b610d2b565b6040516101d19493929190612d0c565b610222610ddb565b6102c46102bf366004612b1b565b610e31565b6040516101d1959493929190612d4b565b6101ed6102e3366004612d8e565b610f70565b6102fb6102f6366004612a42565b61107d565b6040516101d19190612db0565b6101ed610316366004612e59565b6112b9565b610242610329366004612b1b565b6114ce565b6102226114de565b6101ed610344366004612ec6565b611534565b610242610357366004612d8e565b6116ce565b61024261036a366004612b1b565b6116ff565b6102fb61037d366004612a42565b61170f565b6101ed610390366004612f47565b61194b565b6101ed6103a3366004612fe4565b611af0565b6103bb6103b6366004612b1b565b611bab565b6040516101d19e9d9c9b9a99989796959493929190613020565b6103e86103e33660046128df565b611f4a565b6040516101d19594939291906130e7565b6103e86104073660046128df565b6120c1565b61041f61041a366004612b1b565b6120ec565b6040516101d19e9d9c9b9a9998979695949392919061312c565b8151602081840181018051600982529282019185019190912091905280548290811061046457600080fd5b9060005260206000209060040201600091509150508060000154908060010154908060020180546104949061321b565b80601f01602080910402602001604051908101604052809291908181526020018280546104c09061321b565b801561050d5780601f106104e25761010080835404028352916020019161050d565b820191906000526020600020905b8154815290600101906020018083116104f057829003601f168201915b5050505050908060030180546105229061321b565b80601f016020809104026020016040519081016040528092919081815260200182805461054e9061321b565b801561059b5780601f106105705761010080835404028352916020019161059b565b820191906000526020600020905b81548152906001019060200180831161057e57829003601f168201915b5050505050905084565b6105ae84612624565b1561061c5760405162461bcd60e51b815260206004820152603360248201527f546869732050726f6475637454656d706c617465494420616c72656164792065604482015272786973747320696e207468652073797374656d60681b60648201526084015b60405180910390fd5b6040805160808101825285815260208082018681528284018690526060830185905260008881526004909252929020815181559151909190600182019061066390826132a0565b506040820151600282019061067890826132a0565b506060820151600382019061068d90826132a0565b5050600080546001810182559080527f290decd9548b62a8d60345a988386fc84ba6bc95484008f6362f93160ef3e563019490945550505050565b60606009826040516106da9190613360565b9081526020016040518091039020805480602002602001604051908101604052809291908181526020016000905b828210156108725783829060005260206000209060040201604051806080016040529081600082015481526020016001820154815260200160028201805461074f9061321b565b80601f016020809104026020016040519081016040528092919081815260200182805461077b9061321b565b80156107c85780601f1061079d576101008083540402835291602001916107c8565b820191906000526020600020905b8154815290600101906020018083116107ab57829003601f168201915b505050505081526020016003820180546107e19061321b565b80601f016020809104026020016040519081016040528092919081815260200182805461080d9061321b565b801561085a5780601f1061082f5761010080835404028352916020019161085a565b820191906000526020600020905b81548152906001019060200180831161083d57829003601f168201915b50505050508152505081526020019060010190610708565b505050509050919050565b6000818152600860209081526040918290208054835181840281018401909452808452606093928301828280156108d357602002820191906000526020600020905b8154815260200190600101908083116108bf575b50505050509050919050565b600081815481106108ef57600080fd5b600091825260209091200154905081565b6060600080548060200260200160405190810160405280929190818152602001828054801561094e57602002820191906000526020600020905b81548152602001906001019080831161093a575b5050505050905090565b6109618a61267a565b156109ba5760405162461bcd60e51b8152602060048201526024808201527f4261746368494420616c72656164792065786973747320696e207468652073796044820152637374656d60e01b6064820152608401610613565b86885114610a305760405162461bcd60e51b815260206004820152603760248201527f53697a65206f662070726f6475637449447320617272617920646f6573206e6f60448201527f74206d6174636820776974682042617463682073697a650000000000000000006064820152608401610613565b604051806101c001604052808b815260200188815260200160008152602001878152602001868152602001858152602001848152602001838152602001828152602001600081526020016000151581526020016040518060200160405280600081525081526020018881526020018a815250600760008c81526020019081526020016000206000820151816000015560208201518160010155604082015181600201556060820151816003019081610ae891906132a0565b506080820151600482015560a08201516005820190610b0790826132a0565b5060c08201516006820190610b1c90826132a0565b5060e08201516007820190610b3190826132a0565b506101008201516008820190610b4790826132a0565b506101208201516009820155610140820151600a8201805460ff1916911515919091179055610160820151600b820190610b8190826132a0565b50610180820151600c8201556101a090910151600d9091015560038054600181019091557fc2575a0e9e593c00f959f8c92f12db2869c3395a3b0502d05e2516446f71f85b018a905560008a81526008602090815260409091208951610be9928b01906127c8565b5060005b87811015610cb857610c17898281518110610c0a57610c0a61337c565b60200260200101516126c7565b15610c735760405162461bcd60e51b815260206004820152602660248201527f50726f64756374494420616c72656164792065786973747320696e207468652060448201526573797374656d60d01b6064820152608401610613565b6002898281518110610c8757610c8761337c565b6020908102919091018101518254600181018455600093845291909220015580610cb0816133a8565b915050610bed565b5050505050505050505050565b6060600180548060200260200160405190810160405280929190818152602001828054801561094e576020028201919060005260206000209081548152602001906001019080831161093a575050505050905090565b600181815481106108ef57600080fd5b60046020526000908152604090208054600182018054919291610d4d9061321b565b80601f0160208091040260200160405190810160405280929190818152602001828054610d799061321b565b8015610dc65780601f10610d9b57610100808354040283529160200191610dc6565b820191906000526020600020905b815481529060010190602001808311610da957829003601f168201915b5050505050908060020180546104949061321b565b6060600380548060200260200160405190810160405280929190818152602001828054801561094e576020028201919060005260206000209081548152602001906001019080831161093a575050505050905090565b60056020526000908152604090208054600182015460028301805492939192610e599061321b565b80601f0160208091040260200160405190810160405280929190818152602001828054610e859061321b565b8015610ed25780601f10610ea757610100808354040283529160200191610ed2565b820191906000526020600020905b815481529060010190602001808311610eb557829003601f168201915b505050505090806003015490806004018054610eed9061321b565b80601f0160208091040260200160405190810160405280929190818152602001828054610f199061321b565b8015610f665780601f10610f3b57610100808354040283529160200191610f66565b820191906000526020600020905b815481529060010190602001808311610f4957829003601f168201915b5050505050905085565b6000828152600760205260409020600c0154818110156110025760405162461bcd60e51b815260206004820152604160248201527f5175616e746974792069732067726561746572207468616e2074686520616d6f60448201527f756e74206c65667420746f20626520736f6c6420696e207468697320626174636064820152600d60fb1b608482015260a401610613565b600082116110525760405162461bcd60e51b815260206004820152601760248201527f5175616e746974792063616e6e6f74206265207a65726f0000000000000000006044820152606401610613565b6000838152600760205260408120600c0180548492906110739084906133c1565b9091555050505050565b6060600a8260405161108f9190613360565b9081526020016040518091039020805480602002602001604051908101604052809291908181526020016000905b8282101561087257838290600052602060002090600502016040518060a00160405290816000820180546110f09061321b565b80601f016020809104026020016040519081016040528092919081815260200182805461111c9061321b565b80156111695780601f1061113e57610100808354040283529160200191611169565b820191906000526020600020905b81548152906001019060200180831161114c57829003601f168201915b505050505081526020016001820180546111829061321b565b80601f01602080910402602001604051908101604052809291908181526020018280546111ae9061321b565b80156111fb5780601f106111d0576101008083540402835291602001916111fb565b820191906000526020600020905b8154815290600101906020018083116111de57829003601f168201915b5050505050815260200160028201548152602001600382015481526020016004820180546112289061321b565b80601f01602080910402602001604051908101604052809291908181526020018280546112549061321b565b80156112a15780601f10611276576101008083540402835291602001916112a1565b820191906000526020600020905b81548152906001019060200180831161128457829003601f168201915b505050505081525050815260200190600101906110bd565b6000838152600760205260409020600a015460ff16156113345760405162461bcd60e51b815260206004820152603060248201527f5468697320626174636820697320616c7265616479207363616e6e656420627960448201526f103a3432903234b9ba3934b13aba37b960811b6064820152608401610613565b600083815260076020526040902060060180546113d891906113559061321b565b80601f01602080910402602001604051908101604052809291908181526020018280546113819061321b565b80156113ce5780601f106113a3576101008083540402835291602001916113ce565b820191906000526020600020905b8154815290600101906020018083116113b157829003601f168201915b5050505050612714565b6113e182612714565b816040516020016113f29190613360565b60408051601f1981840301815282825280516020918201206000878152600783529290922091926114279260060191016133da565b604051602081830303815290604052805190602001201461149e5760405162461bcd60e51b815260206004820152602b60248201527f54686973206261746368206973206e6f74206f776e656420627920746869732060448201526a3234b9ba3934b13aba37b960a91b6064820152608401610613565b6000838152600760205260409020600a8101805460ff19166001179055600b016114c882826132a0565b50505050565b600381815481106108ef57600080fd5b6060600280548060200260200160405190810160405280929190818152602001828054801561094e576020028201919060005260206000209081548152602001906001019080831161093a575050505050905090565b61153d8561275a565b156115a45760405162461bcd60e51b815260206004820152603160248201527f5468697320426174636854656d706c617465494420616c72656164792065786960448201527073747320696e207468652073797374656d60781b6064820152608401610613565b6115ad84612624565b151560011461161b5760405162461bcd60e51b815260206004820152603460248201527f546869732050726f6475637454656d706c617465494420646f6573206e6f742060448201527365786973747320696e207468652073797374656d60601b6064820152608401610613565b6040805160a0810182528681526020808201878152828401878152606084018790526080840186905260008a815260059093529390912082518155905160018201559151909190600282019061167190826132a0565b50606082015160038201556080820151600482019061169090826132a0565b50506001805480820182556000919091527fb10e2d527612073b26eecdfd717e6a320cf44b4afac2b0732d9fcbe2b7fa0cf601959095555050505050565b600860205281600052604060002081815481106116ea57600080fd5b90600052602060002001600091509150505481565b600281815481106108ef57600080fd5b6060600b826040516117219190613360565b9081526020016040518091039020805480602002602001604051908101604052809291908181526020016000905b8282101561087257838290600052602060002090600502016040518060a00160405290816000820180546117829061321b565b80601f01602080910402602001604051908101604052809291908181526020018280546117ae9061321b565b80156117fb5780601f106117d0576101008083540402835291602001916117fb565b820191906000526020600020905b8154815290600101906020018083116117de57829003601f168201915b505050505081526020016001820180546118149061321b565b80601f01602080910402602001604051908101604052809291908181526020018280546118409061321b565b801561188d5780601f106118625761010080835404028352916020019161188d565b820191906000526020600020905b81548152906001019060200180831161187057829003601f168201915b5050505050815260200160028201548152602001600382015481526020016004820180546118ba9061321b565b80601f01602080910402602001604051908101604052809291908181526020018280546118e69061321b565b80156119335780601f1061190857610100808354040283529160200191611933565b820191906000526020600020905b81548152906001019060200180831161191657829003601f168201915b5050505050815250508152602001906001019061174f565b60008581526006602052604090206007015460ff16156119c35760405162461bcd60e51b815260206004820152602d60248201527f5468697320626174636820697320616c7265616479207363616e6e656420627960448201526c103a3432903932ba30b4b632b960991b6064820152608401610613565b836040516020016119d49190613360565b6040516020818303038152906040528051906020012060066000878152602001908152602001600020600601604051602001611a1091906133da565b6040516020818303038152906040528051906020012014611a865760405162461bcd60e51b815260206004820152602a60248201527f546869732070726f64756374206973206e6f74206f776e65642062792074686960448201526939903932ba30b4b632b960b11b6064820152608401610613565b600085815260066020526040902060078101805460ff19166001179055600801611ab084826132a0565b506000858152600660205260409020600b01611acc83826132a0565b506000858152600660205260409020600c01611ae882826132a0565b505050505050565b6000848152600760205260408120600201805460019290611b12908490613450565b9091555050604051600990611b28908490613360565b90815260408051918290036020908101832060808401835287845283820187815292840186815260608501869052815460018181018455600093845293909220855160049093020191825592519181019190915590516002820190611b8d90826132a0565b5060608201516003820190611ba290826132a0565b50505050505050565b600760205260009081526040902080546001820154600283015460038401805493949293919291611bdb9061321b565b80601f0160208091040260200160405190810160405280929190818152602001828054611c079061321b565b8015611c545780601f10611c2957610100808354040283529160200191611c54565b820191906000526020600020905b815481529060010190602001808311611c3757829003601f168201915b505050505090806004015490806005018054611c6f9061321b565b80601f0160208091040260200160405190810160405280929190818152602001828054611c9b9061321b565b8015611ce85780601f10611cbd57610100808354040283529160200191611ce8565b820191906000526020600020905b815481529060010190602001808311611ccb57829003601f168201915b505050505090806006018054611cfd9061321b565b80601f0160208091040260200160405190810160405280929190818152602001828054611d299061321b565b8015611d765780601f10611d4b57610100808354040283529160200191611d76565b820191906000526020600020905b815481529060010190602001808311611d5957829003601f168201915b505050505090806007018054611d8b9061321b565b80601f0160208091040260200160405190810160405280929190818152602001828054611db79061321b565b8015611e045780601f10611dd957610100808354040283529160200191611e04565b820191906000526020600020905b815481529060010190602001808311611de757829003601f168201915b505050505090806008018054611e199061321b565b80601f0160208091040260200160405190810160405280929190818152602001828054611e459061321b565b8015611e925780601f10611e6757610100808354040283529160200191611e92565b820191906000526020600020905b815481529060010190602001808311611e7557829003601f168201915b505050506009830154600a840154600b850180549495929460ff909216935090611ebb9061321b565b80601f0160208091040260200160405190810160405280929190818152602001828054611ee79061321b565b8015611f345780601f10611f0957610100808354040283529160200191611f34565b820191906000526020600020905b815481529060010190602001808311611f1757829003601f168201915b50505050509080600c01549080600d015490508e565b8151602081840181018051600a825292820191850191909120919052805482908110611f7557600080fd5b906000526020600020906005020160009150915050806000018054611f999061321b565b80601f0160208091040260200160405190810160405280929190818152602001828054611fc59061321b565b80156120125780601f10611fe757610100808354040283529160200191612012565b820191906000526020600020905b815481529060010190602001808311611ff557829003601f168201915b5050505050908060010180546120279061321b565b80601f01602080910402602001604051908101604052809291908181526020018280546120539061321b565b80156120a05780601f10612075576101008083540402835291602001916120a0565b820191906000526020600020905b81548152906001019060200180831161208357829003601f168201915b505050505090806002015490806003015490806004018054610eed9061321b565b8151602081840181018051600b825292820191850191909120919052805482908110611f7557600080fd5b6006602052600090815260409020805460018201546002830154600384015460048501805494959394929391926121229061321b565b80601f016020809104026020016040519081016040528092919081815260200182805461214e9061321b565b801561219b5780601f106121705761010080835404028352916020019161219b565b820191906000526020600020905b81548152906001019060200180831161217e57829003601f168201915b5050505050908060050180546121b09061321b565b80601f01602080910402602001604051908101604052809291908181526020018280546121dc9061321b565b80156122295780601f106121fe57610100808354040283529160200191612229565b820191906000526020600020905b81548152906001019060200180831161220c57829003601f168201915b50505050509080600601805461223e9061321b565b80601f016020809104026020016040519081016040528092919081815260200182805461226a9061321b565b80156122b75780601f1061228c576101008083540402835291602001916122b7565b820191906000526020600020905b81548152906001019060200180831161229a57829003601f168201915b5050506007840154600885018054949560ff9092169491935091506122db9061321b565b80601f01602080910402602001604051908101604052809291908181526020018280546123079061321b565b80156123545780601f1061232957610100808354040283529160200191612354565b820191906000526020600020905b81548152906001019060200180831161233757829003601f168201915b5050505050908060090180546123699061321b565b80601f01602080910402602001604051908101604052809291908181526020018280546123959061321b565b80156123e25780601f106123b7576101008083540402835291602001916123e2565b820191906000526020600020905b8154815290600101906020018083116123c557829003601f168201915b50505050509080600a0180546123f79061321b565b80601f01602080910402602001604051908101604052809291908181526020018280546124239061321b565b80156124705780601f1061244557610100808354040283529160200191612470565b820191906000526020600020905b81548152906001019060200180831161245357829003601f168201915b50505050509080600b0180546124859061321b565b80601f01602080910402602001604051908101604052809291908181526020018280546124b19061321b565b80156124fe5780601f106124d3576101008083540402835291602001916124fe565b820191906000526020600020905b8154815290600101906020018083116124e157829003601f168201915b50505050509080600c0180546125139061321b565b80601f016020809104026020016040519081016040528092919081815260200182805461253f9061321b565b801561258c5780601f106125615761010080835404028352916020019161258c565b820191906000526020600020905b81548152906001019060200180831161256f57829003601f168201915b50505050509080600d0180546125a19061321b565b80601f01602080910402602001604051908101604052809291908181526020018280546125cd9061321b565b801561261a5780601f106125ef5761010080835404028352916020019161261a565b820191906000526020600020905b8154815290600101906020018083116125fd57829003601f168201915b505050505090508e565b6000805b6000548110156126715782600082815481106126465761264661337c565b90600052602060002001540361265f5750600192915050565b80612669816133a8565b915050612628565b50600092915050565b6000805b60035481101561267157826003828154811061269c5761269c61337c565b9060005260206000200154036126b55750600192915050565b806126bf816133a8565b91505061267e565b6000805b6002548110156126715782600282815481106126e9576126e961337c565b9060005260206000200154036127025750600192915050565b8061270c816133a8565b9150506126cb565b612757816040516024016127289190613463565b60408051601f198184030181529190526020810180516001600160e01b031663104c13eb60e21b1790526127a7565b50565b6000805b60015481101561267157826001828154811061277c5761277c61337c565b9060005260206000200154036127955750600192915050565b8061279f816133a8565b91505061275e565b80516a636f6e736f6c652e6c6f67602083016000808483855afa5050505050565b828054828255906000526020600020908101928215612803579160200282015b828111156128035782518255916020019190600101906127e8565b5061280f929150612813565b5090565b5b8082111561280f5760008155600101612814565b634e487b7160e01b600052604160045260246000fd5b604051601f8201601f1916810167ffffffffffffffff8111828210171561286757612867612828565b604052919050565b600082601f83011261288057600080fd5b813567ffffffffffffffff81111561289a5761289a612828565b6128ad601f8201601f191660200161283e565b8181528460208386010111156128c257600080fd5b816020850160208301376000918101602001919091529392505050565b600080604083850312156128f257600080fd5b823567ffffffffffffffff81111561290957600080fd5b6129158582860161286f565b95602094909401359450505050565b60005b8381101561293f578181015183820152602001612927565b50506000910152565b60008151808452612960816020860160208601612924565b601f01601f19169290920160200192915050565b8481528360208201526080604082015260006129936080830185612948565b82810360608401526129a58185612948565b979650505050505050565b600080600080608085870312156129c657600080fd5b84359350602085013567ffffffffffffffff808211156129e557600080fd5b6129f18883890161286f565b94506040870135915080821115612a0757600080fd5b612a138883890161286f565b93506060870135915080821115612a2957600080fd5b50612a368782880161286f565b91505092959194509250565b600060208284031215612a5457600080fd5b813567ffffffffffffffff811115612a6b57600080fd5b612a778482850161286f565b949350505050565b60006020808301818452808551808352604092508286019150828160051b87010184880160005b83811015612b0d57603f1989840301855281516080815185528882015189860152878201518189870152612adc82870182612948565b91505060608083015192508582038187015250612af98183612948565b968901969450505090860190600101612aa6565b509098975050505050505050565b600060208284031215612b2d57600080fd5b5035919050565b6020808252825182820181905260009190848201906040850190845b81811015612b6c57835183529284019291840191600101612b50565b50909695505050505050565b600082601f830112612b8957600080fd5b8135602067ffffffffffffffff821115612ba557612ba5612828565b8160051b612bb482820161283e565b9283528481018201928281019087851115612bce57600080fd5b83870192505b848310156129a557823582529183019190830190612bd4565b6000806000806000806000806000806101408b8d031215612c0d57600080fd5b8a35995060208b0135985060408b013567ffffffffffffffff80821115612c3357600080fd5b612c3f8e838f01612b78565b995060608d0135985060808d0135915080821115612c5c57600080fd5b612c688e838f0161286f565b975060a08d0135965060c08d0135915080821115612c8557600080fd5b612c918e838f0161286f565b955060e08d0135915080821115612ca757600080fd5b612cb38e838f0161286f565b94506101008d0135915080821115612cca57600080fd5b612cd68e838f0161286f565b93506101208d0135915080821115612ced57600080fd5b50612cfa8d828e0161286f565b9150509295989b9194979a5092959850565b848152608060208201526000612d256080830186612948565b8281036040840152612d378186612948565b905082810360608401526129a58185612948565b85815284602082015260a060408201526000612d6a60a0830186612948565b8460608401528281036080840152612d828185612948565b98975050505050505050565b60008060408385031215612da157600080fd5b50508035926020909101359150565b60006020808301818452808551808352604092508286019150828160051b87010184880160005b83811015612b0d57603f19898403018552815160a08151818652612dfd82870182612948565b915050888201518582038a870152612e158282612948565b9150508782015188860152606080830151818701525060808083015192508582038187015250612e458183612948565b968901969450505090860190600101612dd7565b600080600060608486031215612e6e57600080fd5b83359250602084013567ffffffffffffffff80821115612e8d57600080fd5b612e998783880161286f565b93506040860135915080821115612eaf57600080fd5b50612ebc8682870161286f565b9150509250925092565b600080600080600060a08688031215612ede57600080fd5b8535945060208601359350604086013567ffffffffffffffff80821115612f0457600080fd5b612f1089838a0161286f565b9450606088013593506080880135915080821115612f2d57600080fd5b50612f3a8882890161286f565b9150509295509295909350565b600080600080600060a08688031215612f5f57600080fd5b85359450602086013567ffffffffffffffff80821115612f7e57600080fd5b612f8a89838a0161286f565b95506040880135915080821115612fa057600080fd5b612fac89838a0161286f565b94506060880135915080821115612fc257600080fd5b612fce89838a0161286f565b93506080880135915080821115612f2d57600080fd5b60008060008060808587031215612ffa57600080fd5b8435935060208501359250604085013567ffffffffffffffff80821115612a0757600080fd5b8e81528d60208201528c60408201526101c0606082015260006130476101c083018e612948565b8c608084015282810360a084015261305f818d612948565b905082810360c0840152613073818c612948565b905082810360e0840152613087818b612948565b905082810361010084015261309c818a612948565b9050876101208401526130b461014084018815159052565b8281036101608401526130c78187612948565b61018084019590955250506101a001529c9b505050505050505050505050565b60a0815260006130fa60a0830188612948565b828103602084015261310c8188612948565b90508560408401528460608401528281036080840152612d828185612948565b8e81528d60208201528c60408201528b60608201526101c0608082015260006131596101c083018d612948565b82810360a084015261316b818d612948565b905082810360c084015261317f818c612948565b8a151560e0850152905082810361010084015261319c818a612948565b90508281036101208401526131b18189612948565b90508281036101408401526131c68188612948565b90508281036101608401526131db8187612948565b90508281036101808401526131f08186612948565b90508281036101a08401526132058185612948565b9150509f9e505050505050505050505050505050565b600181811c9082168061322f57607f821691505b60208210810361324f57634e487b7160e01b600052602260045260246000fd5b50919050565b601f82111561329b57600081815260208120601f850160051c8101602086101561327c5750805b601f850160051c820191505b81811015611ae857828155600101613288565b505050565b815167ffffffffffffffff8111156132ba576132ba612828565b6132ce816132c8845461321b565b84613255565b602080601f83116001811461330357600084156132eb5750858301515b600019600386901b1c1916600185901b178555611ae8565b600085815260208120601f198616915b8281101561333257888601518255948401946001909101908401613313565b50858210156133505787850151600019600388901b60f8161c191681555b5050505050600190811b01905550565b60008251613372818460208701612924565b9190910192915050565b634e487b7160e01b600052603260045260246000fd5b634e487b7160e01b600052601160045260246000fd5b6000600182016133ba576133ba613392565b5060010190565b818103818111156133d4576133d4613392565b92915050565b60008083546133e88161321b565b60018281168015613400576001811461341557613444565b60ff1984168752821515830287019450613444565b8760005260208060002060005b8581101561343b5781548a820152908401908201613422565b50505082870194505b50929695505050505050565b808201808211156133d4576133d4613392565b6020815260006134766020830184612948565b939250505056fea2646970667358221220c58dde6235fde00c5de308e380b5adc64654efe6c11899931e8d70040375fa0664736f6c63430008110033",
  "linkReferences": {},
  "deployedLinkReferences": {}
}