{
  "_format": "hh-sol-artifact-1",
  "contractName": "Supplychain",
  "sourceName": "contracts/Supplychain.sol",
  "abi": [
    {
      "inputs": [
        {
          "internalType": "uint256",
          "name": "",
          "type": "uint256"
        },
        {
          "internalType": "uint256",
          "name": "",
          "type": "uint256"
        }
      ],
      "name": "BatchIDToProductIDMapping",
      "outputs": [
        {
          "internalType": "uint256",
          "name": "",
          "type": "uint256"
        }
      ],
      "stateMutability": "view",
      "type": "function"
    },
    {
      "inputs": [
        {
          "internalType": "uint256",
          "name": "",
          "type": "uint256"
        }
      ],
      "name": "BatchIDs",
      "outputs": [
        {
          "internalType": "uint256",
          "name": "",
          "type": "uint256"
        }
      ],
      "stateMutability": "view",
      "type": "function"
    },
    {
      "inputs": [
        {
          "internalType": "uint256",
          "name": "",
          "type": "uint256"
        }
      ],
      "name": "BatchMapping",
      "outputs": [
        {
          "internalType": "uint256",
          "name": "BatchID",
          "type": "uint256"
        },
        {
          "internalType": "uint256",
          "name": "BatchSize",
          "type": "uint256"
        },
        {
          "internalType": "uint256",
          "name": "AmountSoldTOCustomer",
          "type": "uint256"
        },
        {
          "internalType": "string",
          "name": "BatchDescription",
          "type": "string"
        },
        {
          "internalType": "uint256",
          "name": "ProductTemplateID",
          "type": "uint256"
        },
        {
          "internalType": "string",
          "name": "FactoryID",
          "type": "string"
        },
        {
          "internalType": "string",
          "name": "DistributorID",
          "type": "string"
        },
        {
          "internalType": "string",
          "name": "FactoryLocation",
          "type": "string"
        },
        {
          "internalType": "string",
          "name": "DateOfProduction",
          "type": "string"
        },
        {
          "internalType": "uint256",
          "name": "State",
          "type": "uint256"
        },
        {
          "internalType": "bool",
          "name": "DistributorScanned",
          "type": "bool"
        },
        {
          "internalType": "string",
          "name": "DistributorScannedTimeStamp",
          "type": "string"
        },
        {
          "internalType": "uint256",
          "name": "AmountLeftForSellingTORetailer",
          "type": "uint256"
        }
      ],
      "stateMutability": "view",
      "type": "function"
    },
    {
      "inputs": [
        {
          "internalType": "uint256",
          "name": "",
          "type": "uint256"
        }
      ],
      "name": "BatchTemplateIDs",
      "outputs": [
        {
          "internalType": "uint256",
          "name": "",
          "type": "uint256"
        }
      ],
      "stateMutability": "view",
      "type": "function"
    },
    {
      "inputs": [
        {
          "internalType": "uint256",
          "name": "",
          "type": "uint256"
        }
      ],
      "name": "BatchTemplateMAP",
      "outputs": [
        {
          "internalType": "uint256",
          "name": "BatchTemplateID",
          "type": "uint256"
        },
        {
          "internalType": "uint256",
          "name": "ProductTemplateID",
          "type": "uint256"
        },
        {
          "internalType": "string",
          "name": "Description",
          "type": "string"
        },
        {
          "internalType": "uint256",
          "name": "BatchSize",
          "type": "uint256"
        },
        {
          "internalType": "string",
          "name": "FactoryID",
          "type": "string"
        }
      ],
      "stateMutability": "view",
      "type": "function"
    },
    {
      "inputs": [
        {
          "internalType": "string",
          "name": "",
          "type": "string"
        },
        {
          "internalType": "uint256",
          "name": "",
          "type": "uint256"
        }
      ],
      "name": "CustomerData",
      "outputs": [
        {
          "internalType": "uint256",
          "name": "BatchID",
          "type": "uint256"
        },
        {
          "internalType": "uint256",
          "name": "ProductID",
          "type": "uint256"
        }
      ],
      "stateMutability": "view",
      "type": "function"
    },
    {
      "inputs": [
        {
          "internalType": "string",
          "name": "",
          "type": "string"
        },
        {
          "internalType": "uint256",
          "name": "",
          "type": "uint256"
        }
      ],
      "name": "DistributorIDToRetailerStruct",
      "outputs": [
        {
          "internalType": "string",
          "name": "DistributorID",
          "type": "string"
        },
        {
          "internalType": "string",
          "name": "RetailerID",
          "type": "string"
        },
        {
          "internalType": "uint256",
          "name": "BatchID",
          "type": "uint256"
        },
        {
          "internalType": "uint256",
          "name": "Quantity",
          "type": "uint256"
        },
        {
          "internalType": "string",
          "name": "TimeStamp",
          "type": "string"
        }
      ],
      "stateMutability": "view",
      "type": "function"
    },
    {
      "inputs": [
        {
          "internalType": "uint256",
          "name": "",
          "type": "uint256"
        }
      ],
      "name": "ProductIDs",
      "outputs": [
        {
          "internalType": "uint256",
          "name": "",
          "type": "uint256"
        }
      ],
      "stateMutability": "view",
      "type": "function"
    },
    {
      "inputs": [
        {
          "internalType": "uint256",
          "name": "",
          "type": "uint256"
        }
      ],
      "name": "ProductMapping",
      "outputs": [
        {
          "internalType": "uint256",
          "name": "ProductID",
          "type": "uint256"
        },
        {
          "internalType": "uint256",
          "name": "CompanyProductID",
          "type": "uint256"
        },
        {
          "internalType": "uint256",
          "name": "BatchID",
          "type": "uint256"
        },
        {
          "internalType": "uint256",
          "name": "ProductTemplateID",
          "type": "uint256"
        },
        {
          "internalType": "string",
          "name": "DOM",
          "type": "string"
        },
        {
          "internalType": "string",
          "name": "CustomerID",
          "type": "string"
        },
        {
          "internalType": "string",
          "name": "RetailerID",
          "type": "string"
        },
        {
          "internalType": "bool",
          "name": "RetailerScanned",
          "type": "bool"
        },
        {
          "internalType": "string",
          "name": "RetailerScannedTimeStamp",
          "type": "string"
        },
        {
          "internalType": "string",
          "name": "DateWhenSoldToRetailer",
          "type": "string"
        },
        {
          "internalType": "string",
          "name": "DateWhenSoldToCustomer",
          "type": "string"
        },
        {
          "internalType": "string",
          "name": "RetailerLatitude",
          "type": "string"
        },
        {
          "internalType": "string",
          "name": "RetailerLongitude",
          "type": "string"
        }
      ],
      "stateMutability": "view",
      "type": "function"
    },
    {
      "inputs": [
        {
          "internalType": "uint256",
          "name": "",
          "type": "uint256"
        }
      ],
      "name": "ProductTemplateIDs",
      "outputs": [
        {
          "internalType": "uint256",
          "name": "",
          "type": "uint256"
        }
      ],
      "stateMutability": "view",
      "type": "function"
    },
    {
      "inputs": [
        {
          "internalType": "uint256",
          "name": "",
          "type": "uint256"
        }
      ],
      "name": "ProductTemplateMAP",
      "outputs": [
        {
          "internalType": "uint256",
          "name": "ProductTemplateID",
          "type": "uint256"
        },
        {
          "internalType": "string",
          "name": "Name",
          "type": "string"
        },
        {
          "internalType": "string",
          "name": "Description",
          "type": "string"
        },
        {
          "internalType": "string",
          "name": "FactoryID",
          "type": "string"
        }
      ],
      "stateMutability": "view",
      "type": "function"
    },
    {
      "inputs": [
        {
          "internalType": "string",
          "name": "",
          "type": "string"
        },
        {
          "internalType": "uint256",
          "name": "",
          "type": "uint256"
        }
      ],
      "name": "RetailerIDToRetailerStruct",
      "outputs": [
        {
          "internalType": "string",
          "name": "DistributorID",
          "type": "string"
        },
        {
          "internalType": "string",
          "name": "RetailerID",
          "type": "string"
        },
        {
          "internalType": "uint256",
          "name": "BatchID",
          "type": "uint256"
        },
        {
          "internalType": "uint256",
          "name": "Quantity",
          "type": "uint256"
        },
        {
          "internalType": "string",
          "name": "TimeStamp",
          "type": "string"
        }
      ],
      "stateMutability": "view",
      "type": "function"
    },
    {
      "inputs": [
        {
          "internalType": "uint256",
          "name": "_batchTemplateID",
          "type": "uint256"
        },
        {
          "internalType": "uint256",
          "name": "_productTemplateID",
          "type": "uint256"
        },
        {
          "internalType": "string",
          "name": "_description",
          "type": "string"
        },
        {
          "internalType": "uint256",
          "name": "_batchSize",
          "type": "uint256"
        },
        {
          "internalType": "string",
          "name": "_factoryID",
          "type": "string"
        }
      ],
      "name": "addBatchTemplate",
      "outputs": [],
      "stateMutability": "nonpayable",
      "type": "function"
    },
    {
      "inputs": [
        {
          "internalType": "uint256",
          "name": "_productTemplateID",
          "type": "uint256"
        },
        {
          "internalType": "string",
          "name": "_name",
          "type": "string"
        },
        {
          "internalType": "string",
          "name": "_description",
          "type": "string"
        },
        {
          "internalType": "string",
          "name": "_factoryID",
          "type": "string"
        }
      ],
      "name": "addProductTemplate",
      "outputs": [],
      "stateMutability": "nonpayable",
      "type": "function"
    },
    {
      "inputs": [
        {
          "internalType": "uint256",
          "name": "batchID",
          "type": "uint256"
        },
        {
          "internalType": "uint256[]",
          "name": "productIDs",
          "type": "uint256[]"
        },
        {
          "internalType": "uint256[]",
          "name": "companyProductIDs",
          "type": "uint256[]"
        },
        {
          "internalType": "uint256",
          "name": "batchSize",
          "type": "uint256"
        },
        {
          "internalType": "string",
          "name": "batchDescription",
          "type": "string"
        },
        {
          "internalType": "uint256",
          "name": "productTemplateID",
          "type": "uint256"
        },
        {
          "internalType": "string",
          "name": "factory",
          "type": "string"
        },
        {
          "internalType": "string",
          "name": "distributor",
          "type": "string"
        },
        {
          "internalType": "string",
          "name": "factoryLocation",
          "type": "string"
        },
        {
          "internalType": "string",
          "name": "dateOfProduction",
          "type": "string"
        }
      ],
      "name": "batchProduced",
      "outputs": [],
      "stateMutability": "nonpayable",
      "type": "function"
    },
    {
      "inputs": [
        {
          "internalType": "uint256",
          "name": "batchID",
          "type": "uint256"
        },
        {
          "internalType": "string",
          "name": "_distributorID",
          "type": "string"
        },
        {
          "internalType": "string",
          "name": "timeStamp",
          "type": "string"
        }
      ],
      "name": "distributorScansBatch",
      "outputs": [],
      "stateMutability": "nonpayable",
      "type": "function"
    },
    {
      "inputs": [
        {
          "internalType": "uint256",
          "name": "batchID",
          "type": "uint256"
        },
        {
          "internalType": "uint256",
          "name": "quantity",
          "type": "uint256"
        },
        {
          "internalType": "string",
          "name": "retailerID",
          "type": "string"
        },
        {
          "internalType": "string",
          "name": "timeStamp",
          "type": "string"
        }
      ],
      "name": "distributorSellToRetailer",
      "outputs": [],
      "stateMutability": "nonpayable",
      "type": "function"
    },
    {
      "inputs": [],
      "name": "getAllBatchIDs",
      "outputs": [
        {
          "internalType": "uint256[]",
          "name": "",
          "type": "uint256[]"
        }
      ],
      "stateMutability": "view",
      "type": "function"
    },
    {
      "inputs": [],
      "name": "getAllBatchTemplateIDs",
      "outputs": [
        {
          "internalType": "uint256[]",
          "name": "",
          "type": "uint256[]"
        }
      ],
      "stateMutability": "view",
      "type": "function"
    },
    {
      "inputs": [],
      "name": "getAllProductIDs",
      "outputs": [
        {
          "internalType": "uint256[]",
          "name": "",
          "type": "uint256[]"
        }
      ],
      "stateMutability": "view",
      "type": "function"
    },
    {
      "inputs": [],
      "name": "getAllProductTemplateIDs",
      "outputs": [
        {
          "internalType": "uint256[]",
          "name": "",
          "type": "uint256[]"
        }
      ],
      "stateMutability": "view",
      "type": "function"
    },
    {
      "inputs": [
        {
          "internalType": "string",
          "name": "customerID",
          "type": "string"
        }
      ],
      "name": "getAllProductsBought",
      "outputs": [
        {
          "components": [
            {
              "internalType": "uint256",
              "name": "BatchID",
              "type": "uint256"
            },
            {
              "internalType": "uint256",
              "name": "ProductID",
              "type": "uint256"
            }
          ],
          "internalType": "struct Supplychain.Customer[]",
          "name": "",
          "type": "tuple[]"
        }
      ],
      "stateMutability": "view",
      "type": "function"
    },
    {
      "inputs": [
        {
          "internalType": "string",
          "name": "distributorID",
          "type": "string"
        }
      ],
      "name": "getDistributorIDToRetailerStruct",
      "outputs": [
        {
          "components": [
            {
              "internalType": "string",
              "name": "DistributorID",
              "type": "string"
            },
            {
              "internalType": "string",
              "name": "RetailerID",
              "type": "string"
            },
            {
              "internalType": "uint256",
              "name": "BatchID",
              "type": "uint256"
            },
            {
              "internalType": "uint256",
              "name": "Quantity",
              "type": "uint256"
            },
            {
              "internalType": "string",
              "name": "TimeStamp",
              "type": "string"
            }
          ],
          "internalType": "struct Supplychain.Retailer[]",
          "name": "",
          "type": "tuple[]"
        }
      ],
      "stateMutability": "view",
      "type": "function"
    },
    {
      "inputs": [
        {
          "internalType": "uint256",
          "name": "batchID",
          "type": "uint256"
        }
      ],
      "name": "getProductIdsForaBatch",
      "outputs": [
        {
          "internalType": "uint256[]",
          "name": "",
          "type": "uint256[]"
        }
      ],
      "stateMutability": "view",
      "type": "function"
    },
    {
      "inputs": [
        {
          "internalType": "string",
          "name": "retailerID",
          "type": "string"
        }
      ],
      "name": "getRetailerIDToRetailerStruct",
      "outputs": [
        {
          "components": [
            {
              "internalType": "string",
              "name": "DistributorID",
              "type": "string"
            },
            {
              "internalType": "string",
              "name": "RetailerID",
              "type": "string"
            },
            {
              "internalType": "uint256",
              "name": "BatchID",
              "type": "uint256"
            },
            {
              "internalType": "uint256",
              "name": "Quantity",
              "type": "uint256"
            },
            {
              "internalType": "string",
              "name": "TimeStamp",
              "type": "string"
            }
          ],
          "internalType": "struct Supplychain.Retailer[]",
          "name": "",
          "type": "tuple[]"
        }
      ],
      "stateMutability": "view",
      "type": "function"
    },
    {
      "inputs": [
        {
          "internalType": "uint256",
          "name": "_productID",
          "type": "uint256"
        },
        {
          "internalType": "string",
          "name": "_retailerID",
          "type": "string"
        },
        {
          "internalType": "string",
          "name": "timeStamp",
          "type": "string"
        },
        {
          "internalType": "string",
          "name": "latitude",
          "type": "string"
        },
        {
          "internalType": "string",
          "name": "longitude",
          "type": "string"
        }
      ],
      "name": "retailerScansProduct",
      "outputs": [],
      "stateMutability": "nonpayable",
      "type": "function"
    },
    {
      "inputs": [
        {
          "internalType": "uint256",
          "name": "batchID",
          "type": "uint256"
        },
        {
          "internalType": "uint256",
          "name": "productID",
          "type": "uint256"
        },
        {
          "internalType": "string",
          "name": "customerID",
          "type": "string"
        },
        {
          "internalType": "string",
          "name": "timeStamp",
          "type": "string"
        }
      ],
      "name": "retailerSellToCustomer",
      "outputs": [],
      "stateMutability": "nonpayable",
      "type": "function"
    }
  ],
  "bytecode": "0x608060405234801561001057600080fd5b50613bdb806100206000396000f3fe608060405234801561001057600080fd5b50600436106101a95760003560e01c80638272d34b116100f9578063ab6e3ec511610097578063e139f99411610071578063e139f994146103c2578063e3c6a4ac146103e6578063eac0e977146103f9578063ee55fae21461042557600080fd5b8063ab6e3ec514610370578063b84a6f2214610383578063bf801df11461039657600080fd5b80638e5452b8116100d35780638e5452b81461032457806390973cce14610337578063a78317f81461034a578063a7a4523d1461035d57600080fd5b80638272d34b146102f65780638bd42880146103095780638c4c42cd1461031c57600080fd5b80634c27729c1161016657806371d1dc0c1161014057806371d1dc0c14610287578063793560dd146102aa5780637ae4ee04146102b25780637f7bf690146102d657600080fd5b80634c27729c146102595780634ca20f34146102615780636c1d7a9e1461027457600080fd5b806321f29391146101ae578063278338e8146101db578063284328d0146101f0578063392a70a6146102105780633ab95f30146102305780633b7d255c14610251575b600080fd5b6101c16101bc36600461308e565b610438565b604080519283526020830191909152015b60405180910390f35b6101ee6101e93660046130d3565b610483565b005b6102036101fe366004613165565b6105a6565b6040516101d291906131a2565b61022361021e3660046131f1565b610637565b6040516101d2919061320a565b61024361023e3660046131f1565b610699565b6040519081526020016101d2565b6102236106ba565b610223610712565b61024361026f3660046131f1565b610768565b6101ee6102823660046132ce565b610778565b61029a6102953660046131f1565b610ce8565b6040516101d29493929190613458565b610223610ea9565b6102c56102c03660046131f1565b610eff565b6040516101d2959493929190613497565b6102e96102e4366004613165565b61103e565b6040516101d291906134da565b6101ee610304366004613591565b61127a565b6102436103173660046131f1565b6113e2565b6102236113f2565b6101ee6103323660046135fe565b611448565b61024361034536600461367f565b6115e2565b6102436103583660046131f1565b611613565b6102e961036b366004613165565b611623565b6101ee61037e3660046136a1565b61185f565b6101ee61039136600461373e565b611a04565b6103a96103a43660046131f1565b611ac0565b6040516101d29d9c9b9a9998979695949392919061377a565b6103d56103d036600461308e565b611e59565b6040516101d295949392919061383e565b6103d56103f436600461308e565b611fd0565b61040c6104073660046131f1565b611ffb565b6040516101d29d9c9b9a99989796959493929190613883565b6101ee61043336600461373e565b6124a5565b8151602081840181018051600982529282019185019190912091905280548290811061046357600080fd5b600091825260209091206002909102018054600190910154909250905082565b61048c84612e3a565b156104fa5760405162461bcd60e51b815260206004820152603360248201527f546869732050726f6475637454656d706c617465494420616c72656164792065604482015272786973747320696e207468652073797374656d60681b60648201526084015b60405180910390fd5b6040805160808101825285815260208082018681528284018690526060830185905260008881526004909252929020815181559151909190600182019061054190826139e2565b506040820151600282019061055690826139e2565b506060820151600382019061056b90826139e2565b5050600080546001810182559080527f290decd9548b62a8d60345a988386fc84ba6bc95484008f6362f93160ef3e563019490945550505050565b60606009826040516105b89190613aa2565b9081526020016040518091039020805480602002602001604051908101604052809291908181526020016000905b8282101561062c578382906000526020600020906002020160405180604001604052908160008201548152602001600182015481525050815260200190600101906105e6565b505050509050919050565b60008181526008602090815260409182902080548351818402810184019094528084526060939283018282801561068d57602002820191906000526020600020905b815481526020019060010190808311610679575b50505050509050919050565b600081815481106106a957600080fd5b600091825260209091200154905081565b6060600080548060200260200160405190810160405280929190818152602001828054801561070857602002820191906000526020600020905b8154815260200190600101908083116106f4575b5050505050905090565b6060600180548060200260200160405190810160405280929190818152602001828054801561070857602002820191906000526020600020908154815260200190600101908083116106f4575050505050905090565b600181815481106106a957600080fd5b6107818a612e90565b156107da5760405162461bcd60e51b8152602060048201526024808201527f4261746368494420616c72656164792065786973747320696e207468652073796044820152637374656d60e01b60648201526084016104f1565b868951146108505760405162461bcd60e51b815260206004820152603760248201527f53697a65206f662070726f6475637449447320617272617920646f6573206e6f60448201527f74206d6174636820776974682042617463682073697a6500000000000000000060648201526084016104f1565b604051806101a001604052808b8152602001888152602001600081526020018781526020018681526020018581526020018481526020018381526020018281526020016000815260200160001515815260200160405180602001604052806000815250815260200188815250600760008c8152602001908152602001600020600082015181600001556020820151816001015560408201518160020155606082015181600301908161090291906139e2565b506080820151600482015560a0820151600582019061092190826139e2565b5060c0820151600682019061093690826139e2565b5060e0820151600782019061094b90826139e2565b50610100820151600882019061096190826139e2565b506101208201516009820155610140820151600a8201805460ff1916911515919091179055610160820151600b82019061099b90826139e2565b506101809190910151600c9091015560038054600181019091557fc2575a0e9e593c00f959f8c92f12db2869c3395a3b0502d05e2516446f71f85b018a905560008a81526008602090815260409091208a516109f9928c0190612f77565b5060005b87811015610cdb57610a278a8281518110610a1a57610a1a613abe565b6020026020010151612edd565b15610a835760405162461bcd60e51b815260206004820152602660248201527f50726f64756374494420616c72656164792065786973747320696e207468652060448201526573797374656d60d01b60648201526084016104f1565b604051806101a001604052808b8381518110610aa157610aa1613abe565b602002602001015181526020018a8381518110610ac057610ac0613abe565b602002602001015181526020018c815260200187815260200183815260200160405180602001604052806000815250815260200160405180602001604052806000815250815260200160001515815260200160405180602001604052806000815250815260200160405180602001604052806000815250815260200160405180602001604052806000815250815260200160405180602001604052806000815250815260200160405180602001604052806000815250815250600660008c8481518110610b8f57610b8f613abe565b60200260200101518152602001908152602001600020600082015181600001556020820151816001015560408201518160020155606082015181600301556080820151816004019081610be291906139e2565b5060a08201516005820190610bf790826139e2565b5060c08201516006820190610c0c90826139e2565b5060e082015160078201805460ff19169115159190911790556101008201516008820190610c3a90826139e2565b506101208201516009820190610c5090826139e2565b50610140820151600a820190610c6690826139e2565b50610160820151600b820190610c7c90826139e2565b50610180820151600c820190610c9290826139e2565b5090505060028a8281518110610caa57610caa613abe565b6020908102919091018101518254600181018455600093845291909220015580610cd381613aea565b9150506109fd565b5050505050505050505050565b60046020526000908152604090208054600182018054919291610d0a9061395d565b80601f0160208091040260200160405190810160405280929190818152602001828054610d369061395d565b8015610d835780601f10610d5857610100808354040283529160200191610d83565b820191906000526020600020905b815481529060010190602001808311610d6657829003601f168201915b505050505090806002018054610d989061395d565b80601f0160208091040260200160405190810160405280929190818152602001828054610dc49061395d565b8015610e115780601f10610de657610100808354040283529160200191610e11565b820191906000526020600020905b815481529060010190602001808311610df457829003601f168201915b505050505090806003018054610e269061395d565b80601f0160208091040260200160405190810160405280929190818152602001828054610e529061395d565b8015610e9f5780601f10610e7457610100808354040283529160200191610e9f565b820191906000526020600020905b815481529060010190602001808311610e8257829003601f168201915b5050505050905084565b6060600380548060200260200160405190810160405280929190818152602001828054801561070857602002820191906000526020600020908154815260200190600101908083116106f4575050505050905090565b60056020526000908152604090208054600182015460028301805492939192610f279061395d565b80601f0160208091040260200160405190810160405280929190818152602001828054610f539061395d565b8015610fa05780601f10610f7557610100808354040283529160200191610fa0565b820191906000526020600020905b815481529060010190602001808311610f8357829003601f168201915b505050505090806003015490806004018054610fbb9061395d565b80601f0160208091040260200160405190810160405280929190818152602001828054610fe79061395d565b80156110345780601f1061100957610100808354040283529160200191611034565b820191906000526020600020905b81548152906001019060200180831161101757829003601f168201915b5050505050905085565b6060600a826040516110509190613aa2565b9081526020016040518091039020805480602002602001604051908101604052809291908181526020016000905b8282101561062c57838290600052602060002090600502016040518060a00160405290816000820180546110b19061395d565b80601f01602080910402602001604051908101604052809291908181526020018280546110dd9061395d565b801561112a5780601f106110ff5761010080835404028352916020019161112a565b820191906000526020600020905b81548152906001019060200180831161110d57829003601f168201915b505050505081526020016001820180546111439061395d565b80601f016020809104026020016040519081016040528092919081815260200182805461116f9061395d565b80156111bc5780601f10611191576101008083540402835291602001916111bc565b820191906000526020600020905b81548152906001019060200180831161119f57829003601f168201915b5050505050815260200160028201548152602001600382015481526020016004820180546111e99061395d565b80601f01602080910402602001604051908101604052809291908181526020018280546112159061395d565b80156112625780601f1061123757610100808354040283529160200191611262565b820191906000526020600020905b81548152906001019060200180831161124557829003601f168201915b5050505050815250508152602001906001019061107e565b6000838152600760205260409020600a015460ff16156112f55760405162461bcd60e51b815260206004820152603060248201527f5468697320626174636820697320616c7265616479207363616e6e656420627960448201526f103a3432903234b9ba3934b13aba37b960811b60648201526084016104f1565b816040516020016113069190613aa2565b60408051601f19818403018152828252805160209182012060008781526007835292909220919261133b926006019101613b03565b60405160208183030381529060405280519060200120146113b25760405162461bcd60e51b815260206004820152602b60248201527f54686973206261746368206973206e6f74206f776e656420627920746869732060448201526a3234b9ba3934b13aba37b960a91b60648201526084016104f1565b6000838152600760205260409020600a8101805460ff19166001179055600b016113dc82826139e2565b50505050565b600381815481106106a957600080fd5b6060600280548060200260200160405190810160405280929190818152602001828054801561070857602002820191906000526020600020908154815260200190600101908083116106f4575050505050905090565b61145185612f2a565b156114b85760405162461bcd60e51b815260206004820152603160248201527f5468697320426174636854656d706c617465494420616c72656164792065786960448201527073747320696e207468652073797374656d60781b60648201526084016104f1565b6114c184612e3a565b151560011461152f5760405162461bcd60e51b815260206004820152603460248201527f546869732050726f6475637454656d706c617465494420646f6573206e6f742060448201527365786973747320696e207468652073797374656d60601b60648201526084016104f1565b6040805160a0810182528681526020808201878152828401878152606084018790526080840186905260008a815260059093529390912082518155905160018201559151909190600282019061158590826139e2565b5060608201516003820155608082015160048201906115a490826139e2565b50506001805480820182556000919091527fb10e2d527612073b26eecdfd717e6a320cf44b4afac2b0732d9fcbe2b7fa0cf601959095555050505050565b600860205281600052604060002081815481106115fe57600080fd5b90600052602060002001600091509150505481565b600281815481106106a957600080fd5b6060600b826040516116359190613aa2565b9081526020016040518091039020805480602002602001604051908101604052809291908181526020016000905b8282101561062c57838290600052602060002090600502016040518060a00160405290816000820180546116969061395d565b80601f01602080910402602001604051908101604052809291908181526020018280546116c29061395d565b801561170f5780601f106116e45761010080835404028352916020019161170f565b820191906000526020600020905b8154815290600101906020018083116116f257829003601f168201915b505050505081526020016001820180546117289061395d565b80601f01602080910402602001604051908101604052809291908181526020018280546117549061395d565b80156117a15780601f10611776576101008083540402835291602001916117a1565b820191906000526020600020905b81548152906001019060200180831161178457829003601f168201915b5050505050815260200160028201548152602001600382015481526020016004820180546117ce9061395d565b80601f01602080910402602001604051908101604052809291908181526020018280546117fa9061395d565b80156118475780601f1061181c57610100808354040283529160200191611847565b820191906000526020600020905b81548152906001019060200180831161182a57829003601f168201915b50505050508152505081526020019060010190611663565b60008581526006602052604090206007015460ff16156118d75760405162461bcd60e51b815260206004820152602d60248201527f5468697320626174636820697320616c7265616479207363616e6e656420627960448201526c103a3432903932ba30b4b632b960991b60648201526084016104f1565b836040516020016118e89190613aa2565b60405160208183030381529060405280519060200120600660008781526020019081526020016000206006016040516020016119249190613b03565b604051602081830303815290604052805190602001201461199a5760405162461bcd60e51b815260206004820152602a60248201527f546869732070726f64756374206973206e6f74206f776e65642062792074686960448201526939903932ba30b4b632b960b11b60648201526084016104f1565b600085815260066020526040902060078101805460ff191660011790556008016119c484826139e2565b506000858152600660205260409020600b016119e083826139e2565b506000858152600660205260409020600c016119fc82826139e2565b505050505050565b6000848152600760205260408120600201805460019290611a26908490613b79565b90915550506000838152600660205260409020600501611a4683826139e2565b506000838152600660205260409020600a01611a6282826139e2565b50600982604051611a739190613aa2565b908152604080516020928190038301812081830190925295865281860194855280546001808201835560009283529290912095516002909102909501948555925193909201929092555050565b600760205260009081526040902080546001820154600283015460038401805493949293919291611af09061395d565b80601f0160208091040260200160405190810160405280929190818152602001828054611b1c9061395d565b8015611b695780601f10611b3e57610100808354040283529160200191611b69565b820191906000526020600020905b815481529060010190602001808311611b4c57829003601f168201915b505050505090806004015490806005018054611b849061395d565b80601f0160208091040260200160405190810160405280929190818152602001828054611bb09061395d565b8015611bfd5780601f10611bd257610100808354040283529160200191611bfd565b820191906000526020600020905b815481529060010190602001808311611be057829003601f168201915b505050505090806006018054611c129061395d565b80601f0160208091040260200160405190810160405280929190818152602001828054611c3e9061395d565b8015611c8b5780601f10611c6057610100808354040283529160200191611c8b565b820191906000526020600020905b815481529060010190602001808311611c6e57829003601f168201915b505050505090806007018054611ca09061395d565b80601f0160208091040260200160405190810160405280929190818152602001828054611ccc9061395d565b8015611d195780601f10611cee57610100808354040283529160200191611d19565b820191906000526020600020905b815481529060010190602001808311611cfc57829003601f168201915b505050505090806008018054611d2e9061395d565b80601f0160208091040260200160405190810160405280929190818152602001828054611d5a9061395d565b8015611da75780601f10611d7c57610100808354040283529160200191611da7565b820191906000526020600020905b815481529060010190602001808311611d8a57829003601f168201915b505050506009830154600a840154600b850180549495929460ff909216935090611dd09061395d565b80601f0160208091040260200160405190810160405280929190818152602001828054611dfc9061395d565b8015611e495780601f10611e1e57610100808354040283529160200191611e49565b820191906000526020600020905b815481529060010190602001808311611e2c57829003601f168201915b50505050509080600c015490508d565b8151602081840181018051600a825292820191850191909120919052805482908110611e8457600080fd5b906000526020600020906005020160009150915050806000018054611ea89061395d565b80601f0160208091040260200160405190810160405280929190818152602001828054611ed49061395d565b8015611f215780601f10611ef657610100808354040283529160200191611f21565b820191906000526020600020905b815481529060010190602001808311611f0457829003601f168201915b505050505090806001018054611f369061395d565b80601f0160208091040260200160405190810160405280929190818152602001828054611f629061395d565b8015611faf5780601f10611f8457610100808354040283529160200191611faf565b820191906000526020600020905b815481529060010190602001808311611f9257829003601f168201915b505050505090806002015490806003015490806004018054610fbb9061395d565b8151602081840181018051600b825292820191850191909120919052805482908110611e8457600080fd5b6006602052600090815260409020805460018201546002830154600384015460048501805494959394929391926120319061395d565b80601f016020809104026020016040519081016040528092919081815260200182805461205d9061395d565b80156120aa5780601f1061207f576101008083540402835291602001916120aa565b820191906000526020600020905b81548152906001019060200180831161208d57829003601f168201915b5050505050908060050180546120bf9061395d565b80601f01602080910402602001604051908101604052809291908181526020018280546120eb9061395d565b80156121385780601f1061210d57610100808354040283529160200191612138565b820191906000526020600020905b81548152906001019060200180831161211b57829003601f168201915b50505050509080600601805461214d9061395d565b80601f01602080910402602001604051908101604052809291908181526020018280546121799061395d565b80156121c65780601f1061219b576101008083540402835291602001916121c6565b820191906000526020600020905b8154815290600101906020018083116121a957829003601f168201915b5050506007840154600885018054949560ff9092169491935091506121ea9061395d565b80601f01602080910402602001604051908101604052809291908181526020018280546122169061395d565b80156122635780601f1061223857610100808354040283529160200191612263565b820191906000526020600020905b81548152906001019060200180831161224657829003601f168201915b5050505050908060090180546122789061395d565b80601f01602080910402602001604051908101604052809291908181526020018280546122a49061395d565b80156122f15780601f106122c6576101008083540402835291602001916122f1565b820191906000526020600020905b8154815290600101906020018083116122d457829003601f168201915b50505050509080600a0180546123069061395d565b80601f01602080910402602001604051908101604052809291908181526020018280546123329061395d565b801561237f5780601f106123545761010080835404028352916020019161237f565b820191906000526020600020905b81548152906001019060200180831161236257829003601f168201915b50505050509080600b0180546123949061395d565b80601f01602080910402602001604051908101604052809291908181526020018280546123c09061395d565b801561240d5780601f106123e25761010080835404028352916020019161240d565b820191906000526020600020905b8154815290600101906020018083116123f057829003601f168201915b50505050509080600c0180546124229061395d565b80601f016020809104026020016040519081016040528092919081815260200182805461244e9061395d565b801561249b5780601f106124705761010080835404028352916020019161249b565b820191906000526020600020905b81548152906001019060200180831161247e57829003601f168201915b505050505090508d565b6000848152600760205260408120600c8101546001820154600690920180549193916124d09061395d565b80601f01602080910402602001604051908101604052809291908181526020018280546124fc9061395d565b80156125495780601f1061251e57610100808354040283529160200191612549565b820191906000526020600020905b81548152906001019060200180831161252c57829003601f168201915b50505050509050858310156125d05760405162461bcd60e51b815260206004820152604160248201527f5175616e746974792069732067726561746572207468616e2074686520616d6f60448201527f756e74206c65667420746f20626520736f6c6420696e207468697320626174636064820152600d60fb1b608482015260a4016104f1565b600086116126205760405162461bcd60e51b815260206004820152601760248201527f5175616e746974792063616e6e6f74206265207a65726f00000000000000000060448201526064016104f1565b600061262c8484613b92565b60008981526008602090815260408083208054825181850281018501909352808352949550929390929183018282801561268557602002820191906000526020600020905b815481526020019060010190808311612671575b509394508593505050505b61269a8984613b79565b811015612ccf5760008282815181106126b5576126b5613abe565b60200260200101519050600060066000838152602001908152602001600020604051806101a0016040529081600082015481526020016001820154815260200160028201548152602001600382015481526020016004820180546127189061395d565b80601f01602080910402602001604051908101604052809291908181526020018280546127449061395d565b80156127915780601f1061276657610100808354040283529160200191612791565b820191906000526020600020905b81548152906001019060200180831161277457829003601f168201915b505050505081526020016005820180546127aa9061395d565b80601f01602080910402602001604051908101604052809291908181526020018280546127d69061395d565b80156128235780601f106127f857610100808354040283529160200191612823565b820191906000526020600020905b81548152906001019060200180831161280657829003601f168201915b5050505050815260200160068201805461283c9061395d565b80601f01602080910402602001604051908101604052809291908181526020018280546128689061395d565b80156128b55780601f1061288a576101008083540402835291602001916128b5565b820191906000526020600020905b81548152906001019060200180831161289857829003601f168201915b5050509183525050600782015460ff16151560208201526008820180546040909201916128e19061395d565b80601f016020809104026020016040519081016040528092919081815260200182805461290d9061395d565b801561295a5780601f1061292f5761010080835404028352916020019161295a565b820191906000526020600020905b81548152906001019060200180831161293d57829003601f168201915b505050505081526020016009820180546129739061395d565b80601f016020809104026020016040519081016040528092919081815260200182805461299f9061395d565b80156129ec5780601f106129c1576101008083540402835291602001916129ec565b820191906000526020600020905b8154815290600101906020018083116129cf57829003601f168201915b50505050508152602001600a82018054612a059061395d565b80601f0160208091040260200160405190810160405280929190818152602001828054612a319061395d565b8015612a7e5780601f10612a5357610100808354040283529160200191612a7e565b820191906000526020600020905b815481529060010190602001808311612a6157829003601f168201915b50505050508152602001600b82018054612a979061395d565b80601f0160208091040260200160405190810160405280929190818152602001828054612ac39061395d565b8015612b105780601f10612ae557610100808354040283529160200191612b10565b820191906000526020600020905b815481529060010190602001808311612af357829003601f168201915b50505050508152602001600c82018054612b299061395d565b80601f0160208091040260200160405190810160405280929190818152602001828054612b559061395d565b8015612ba25780601f10612b7757610100808354040283529160200191612ba2565b820191906000526020600020905b815481529060010190602001808311612b8557829003601f168201915b5050509190925250505060c081018b905261012081018a90526000838152600660209081526040918290208351815590830151600182015590820151600282015560608201516003820155608082015191925082916004820190612c0690826139e2565b5060a08201516005820190612c1b90826139e2565b5060c08201516006820190612c3090826139e2565b5060e082015160078201805460ff19169115159190911790556101008201516008820190612c5e90826139e2565b506101208201516009820190612c7490826139e2565b50610140820151600a820190612c8a90826139e2565b50610160820151600b820190612ca090826139e2565b50610180820151600c820190612cb690826139e2565b5090505050508080612cc790613aea565b915050612690565b506000898152600760205260408120600c0180548a9290612cf1908490613b92565b90915550506040805160a081018252848152602081018990528082018b9052606081018a9052608081018890529051600a90612d2e908690613aa2565b908152604051602091819003820190208054600181018255600091825291902082518392600502909101908190612d6590826139e2565b5060208201516001820190612d7a90826139e2565b50604082015160028201556060820151600382015560808201516004820190612da390826139e2565b505050600b88604051612db69190613aa2565b908152604051602091819003820190208054600181018255600091825291902082518392600502909101908190612ded90826139e2565b5060208201516001820190612e0290826139e2565b50604082015160028201556060820151600382015560808201516004820190612e2b90826139e2565b50505050505050505050505050565b6000805b600054811015612e87578260008281548110612e5c57612e5c613abe565b906000526020600020015403612e755750600192915050565b80612e7f81613aea565b915050612e3e565b50600092915050565b6000805b600354811015612e87578260038281548110612eb257612eb2613abe565b906000526020600020015403612ecb5750600192915050565b80612ed581613aea565b915050612e94565b6000805b600254811015612e87578260028281548110612eff57612eff613abe565b906000526020600020015403612f185750600192915050565b80612f2281613aea565b915050612ee1565b6000805b600154811015612e87578260018281548110612f4c57612f4c613abe565b906000526020600020015403612f655750600192915050565b80612f6f81613aea565b915050612f2e565b828054828255906000526020600020908101928215612fb2579160200282015b82811115612fb2578251825591602001919060010190612f97565b50612fbe929150612fc2565b5090565b5b80821115612fbe5760008155600101612fc3565b634e487b7160e01b600052604160045260246000fd5b604051601f8201601f1916810167ffffffffffffffff8111828210171561301657613016612fd7565b604052919050565b600082601f83011261302f57600080fd5b813567ffffffffffffffff81111561304957613049612fd7565b61305c601f8201601f1916602001612fed565b81815284602083860101111561307157600080fd5b816020850160208301376000918101602001919091529392505050565b600080604083850312156130a157600080fd5b823567ffffffffffffffff8111156130b857600080fd5b6130c48582860161301e565b95602094909401359450505050565b600080600080608085870312156130e957600080fd5b84359350602085013567ffffffffffffffff8082111561310857600080fd5b6131148883890161301e565b9450604087013591508082111561312a57600080fd5b6131368883890161301e565b9350606087013591508082111561314c57600080fd5b506131598782880161301e565b91505092959194509250565b60006020828403121561317757600080fd5b813567ffffffffffffffff81111561318e57600080fd5b61319a8482850161301e565b949350505050565b602080825282518282018190526000919060409081850190868401855b828110156131e4578151805185528601518685015292840192908501906001016131bf565b5091979650505050505050565b60006020828403121561320357600080fd5b5035919050565b6020808252825182820181905260009190848201906040850190845b8181101561324257835183529284019291840191600101613226565b50909695505050505050565b600082601f83011261325f57600080fd5b8135602067ffffffffffffffff82111561327b5761327b612fd7565b8160051b61328a828201612fed565b92835284810182019282810190878511156132a457600080fd5b83870192505b848310156132c3578235825291830191908301906132aa565b979650505050505050565b6000806000806000806000806000806101408b8d0312156132ee57600080fd5b8a35995060208b013567ffffffffffffffff8082111561330d57600080fd5b6133198e838f0161324e565b9a5060408d013591508082111561332f57600080fd5b61333b8e838f0161324e565b995060608d0135985060808d013591508082111561335857600080fd5b6133648e838f0161301e565b975060a08d0135965060c08d013591508082111561338157600080fd5b61338d8e838f0161301e565b955060e08d01359150808211156133a357600080fd5b6133af8e838f0161301e565b94506101008d01359150808211156133c657600080fd5b6133d28e838f0161301e565b93506101208d01359150808211156133e957600080fd5b506133f68d828e0161301e565b9150509295989b9194979a5092959850565b60005b8381101561342357818101518382015260200161340b565b50506000910152565b60008151808452613444816020860160208601613408565b601f01601f19169290920160200192915050565b848152608060208201526000613471608083018661342c565b8281036040840152613483818661342c565b905082810360608401526132c3818561342c565b85815284602082015260a0604082015260006134b660a083018661342c565b84606084015282810360808401526134ce818561342c565b98975050505050505050565b60006020808301818452808551808352604092508286019150828160051b87010184880160005b8381101561358357603f19898403018552815160a081518186526135278287018261342c565b915050888201518582038a87015261353f828261342c565b915050878201518886015260608083015181870152506080808301519250858203818701525061356f818361342c565b968901969450505090860190600101613501565b509098975050505050505050565b6000806000606084860312156135a657600080fd5b83359250602084013567ffffffffffffffff808211156135c557600080fd5b6135d18783880161301e565b935060408601359150808211156135e757600080fd5b506135f48682870161301e565b9150509250925092565b600080600080600060a0868803121561361657600080fd5b8535945060208601359350604086013567ffffffffffffffff8082111561363c57600080fd5b61364889838a0161301e565b945060608801359350608088013591508082111561366557600080fd5b506136728882890161301e565b9150509295509295909350565b6000806040838503121561369257600080fd5b50508035926020909101359150565b600080600080600060a086880312156136b957600080fd5b85359450602086013567ffffffffffffffff808211156136d857600080fd5b6136e489838a0161301e565b955060408801359150808211156136fa57600080fd5b61370689838a0161301e565b9450606088013591508082111561371c57600080fd5b61372889838a0161301e565b9350608088013591508082111561366557600080fd5b6000806000806080858703121561375457600080fd5b8435935060208501359250604085013567ffffffffffffffff8082111561312a57600080fd5b60006101a08f83528e60208401528d60408401528060608401526137a08184018e61342c565b90508b608084015282810360a08401526137ba818c61342c565b905082810360c08401526137ce818b61342c565b905082810360e08401526137e2818a61342c565b90508281036101008401526137f7818961342c565b90508661012084015261380f61014084018715159052565b828103610160840152613822818661342c565b915050826101808301529e9d5050505050505050505050505050565b60a08152600061385160a083018861342c565b8281036020840152613863818861342c565b905085604084015284606084015282810360808401526134ce818561342c565b60006101a08f83528e60208401528d60408401528c60608401528060808401526138af8184018d61342c565b905082810360a08401526138c3818c61342c565b905082810360c08401526138d7818b61342c565b89151560e085015290508281036101008401526138f4818961342c565b9050828103610120840152613909818861342c565b905082810361014084015261391e818761342c565b9050828103610160840152613933818661342c565b9050828103610180840152613948818561342c565b9150509e9d5050505050505050505050505050565b600181811c9082168061397157607f821691505b60208210810361399157634e487b7160e01b600052602260045260246000fd5b50919050565b601f8211156139dd57600081815260208120601f850160051c810160208610156139be5750805b601f850160051c820191505b818110156119fc578281556001016139ca565b505050565b815167ffffffffffffffff8111156139fc576139fc612fd7565b613a1081613a0a845461395d565b84613997565b602080601f831160018114613a455760008415613a2d5750858301515b600019600386901b1c1916600185901b1785556119fc565b600085815260208120601f198616915b82811015613a7457888601518255948401946001909101908401613a55565b5085821015613a925787850151600019600388901b60f8161c191681555b5050505050600190811b01905550565b60008251613ab4818460208701613408565b9190910192915050565b634e487b7160e01b600052603260045260246000fd5b634e487b7160e01b600052601160045260246000fd5b600060018201613afc57613afc613ad4565b5060010190565b6000808354613b118161395d565b60018281168015613b295760018114613b3e57613b6d565b60ff1984168752821515830287019450613b6d565b8760005260208060002060005b85811015613b645781548a820152908401908201613b4b565b50505082870194505b50929695505050505050565b80820180821115613b8c57613b8c613ad4565b92915050565b81810381811115613b8c57613b8c613ad456fea26469706673582212201517928b736a95856cfeede42777ca68b4bc11a2e428c5b725f3b873900e7a3f64736f6c63430008110033",
  "linkReferences": {},
  "deployedLinkReferences": {}
}