{
  "_format": "hh-sol-artifact-1",
  "contractName": "Supplychain",
  "sourceName": "contracts/Supplychain.sol",
  "abi": [
    {
      "inputs": [
        {
          "internalType": "uint256",
          "name": "",
          "type": "uint256"
        },
        {
          "internalType": "uint256",
          "name": "",
          "type": "uint256"
        }
      ],
      "name": "BatchIDToProductIDMapping",
      "outputs": [
        {
          "internalType": "uint256",
          "name": "",
          "type": "uint256"
        }
      ],
      "stateMutability": "view",
      "type": "function"
    },
    {
      "inputs": [
        {
          "internalType": "uint256",
          "name": "",
          "type": "uint256"
        }
      ],
      "name": "BatchIDs",
      "outputs": [
        {
          "internalType": "uint256",
          "name": "",
          "type": "uint256"
        }
      ],
      "stateMutability": "view",
      "type": "function"
    },
    {
      "inputs": [
        {
          "internalType": "uint256",
          "name": "",
          "type": "uint256"
        }
      ],
      "name": "BatchMapping",
      "outputs": [
        {
          "internalType": "uint256",
          "name": "BatchID",
          "type": "uint256"
        },
        {
          "internalType": "uint256",
          "name": "BatchSize",
          "type": "uint256"
        },
        {
          "internalType": "uint256",
          "name": "AmountSoldTOCustomer",
          "type": "uint256"
        },
        {
          "internalType": "string",
          "name": "BatchDescription",
          "type": "string"
        },
        {
          "internalType": "uint256",
          "name": "ProductTemplateID",
          "type": "uint256"
        },
        {
          "internalType": "string",
          "name": "FactoryID",
          "type": "string"
        },
        {
          "internalType": "string",
          "name": "DistributorID",
          "type": "string"
        },
        {
          "internalType": "string",
          "name": "FactoryLocation",
          "type": "string"
        },
        {
          "internalType": "string",
          "name": "DateOfProduction",
          "type": "string"
        },
        {
          "internalType": "uint256",
          "name": "State",
          "type": "uint256"
        },
        {
          "internalType": "bool",
          "name": "DistributorScanned",
          "type": "bool"
        },
        {
          "internalType": "uint256",
          "name": "AmountSoldTORetailer",
          "type": "uint256"
        }
      ],
      "stateMutability": "view",
      "type": "function"
    },
    {
      "inputs": [
        {
          "internalType": "uint256",
          "name": "",
          "type": "uint256"
        }
      ],
      "name": "BatchTemplateIDs",
      "outputs": [
        {
          "internalType": "uint256",
          "name": "",
          "type": "uint256"
        }
      ],
      "stateMutability": "view",
      "type": "function"
    },
    {
      "inputs": [
        {
          "internalType": "uint256",
          "name": "",
          "type": "uint256"
        }
      ],
      "name": "BatchTemplateMAP",
      "outputs": [
        {
          "internalType": "uint256",
          "name": "BatchTemplateID",
          "type": "uint256"
        },
        {
          "internalType": "uint256",
          "name": "ProductTemplateID",
          "type": "uint256"
        },
        {
          "internalType": "string",
          "name": "Description",
          "type": "string"
        },
        {
          "internalType": "uint256",
          "name": "BatchSize",
          "type": "uint256"
        },
        {
          "internalType": "string",
          "name": "FactoryID",
          "type": "string"
        }
      ],
      "stateMutability": "view",
      "type": "function"
    },
    {
      "inputs": [
        {
          "internalType": "string",
          "name": "",
          "type": "string"
        },
        {
          "internalType": "uint256",
          "name": "",
          "type": "uint256"
        }
      ],
      "name": "CustomerData",
      "outputs": [
        {
          "internalType": "uint256",
          "name": "BatchID",
          "type": "uint256"
        },
        {
          "internalType": "uint256",
          "name": "ProductID",
          "type": "uint256"
        }
      ],
      "stateMutability": "view",
      "type": "function"
    },
    {
      "inputs": [
        {
          "internalType": "string",
          "name": "",
          "type": "string"
        },
        {
          "internalType": "uint256",
          "name": "",
          "type": "uint256"
        }
      ],
      "name": "DistributorIDToRetailerID",
      "outputs": [
        {
          "internalType": "string",
          "name": "",
          "type": "string"
        }
      ],
      "stateMutability": "view",
      "type": "function"
    },
    {
      "inputs": [
        {
          "internalType": "uint256",
          "name": "",
          "type": "uint256"
        }
      ],
      "name": "ProductIDs",
      "outputs": [
        {
          "internalType": "uint256",
          "name": "",
          "type": "uint256"
        }
      ],
      "stateMutability": "view",
      "type": "function"
    },
    {
      "inputs": [
        {
          "internalType": "uint256",
          "name": "",
          "type": "uint256"
        }
      ],
      "name": "ProductMapping",
      "outputs": [
        {
          "internalType": "uint256",
          "name": "ProductID",
          "type": "uint256"
        },
        {
          "internalType": "uint256",
          "name": "BatchID",
          "type": "uint256"
        },
        {
          "internalType": "uint256",
          "name": "ProductTemplateID",
          "type": "uint256"
        },
        {
          "internalType": "string",
          "name": "DOM",
          "type": "string"
        },
        {
          "internalType": "string",
          "name": "OwnerID",
          "type": "string"
        },
        {
          "internalType": "string",
          "name": "RetailerID",
          "type": "string"
        },
        {
          "internalType": "bool",
          "name": "RetailerScanned",
          "type": "bool"
        },
        {
          "internalType": "uint256",
          "name": "DateWhenSold",
          "type": "uint256"
        }
      ],
      "stateMutability": "view",
      "type": "function"
    },
    {
      "inputs": [
        {
          "internalType": "uint256",
          "name": "",
          "type": "uint256"
        }
      ],
      "name": "ProductTemplateIDs",
      "outputs": [
        {
          "internalType": "uint256",
          "name": "",
          "type": "uint256"
        }
      ],
      "stateMutability": "view",
      "type": "function"
    },
    {
      "inputs": [
        {
          "internalType": "uint256",
          "name": "",
          "type": "uint256"
        }
      ],
      "name": "ProductTemplateMAP",
      "outputs": [
        {
          "internalType": "uint256",
          "name": "ProductTemplateID",
          "type": "uint256"
        },
        {
          "internalType": "string",
          "name": "Name",
          "type": "string"
        },
        {
          "internalType": "string",
          "name": "Description",
          "type": "string"
        },
        {
          "internalType": "string",
          "name": "FactoryID",
          "type": "string"
        }
      ],
      "stateMutability": "view",
      "type": "function"
    },
    {
      "inputs": [
        {
          "internalType": "string",
          "name": "",
          "type": "string"
        }
      ],
      "name": "RetailerIDToProductID",
      "outputs": [
        {
          "internalType": "uint256",
          "name": "",
          "type": "uint256"
        }
      ],
      "stateMutability": "view",
      "type": "function"
    },
    {
      "inputs": [
        {
          "internalType": "uint256",
          "name": "_batchTemplateID",
          "type": "uint256"
        },
        {
          "internalType": "uint256",
          "name": "_productTemplateID",
          "type": "uint256"
        },
        {
          "internalType": "string",
          "name": "_description",
          "type": "string"
        },
        {
          "internalType": "uint256",
          "name": "_batchSize",
          "type": "uint256"
        },
        {
          "internalType": "string",
          "name": "_factoryID",
          "type": "string"
        }
      ],
      "name": "addBatchTemplate",
      "outputs": [],
      "stateMutability": "nonpayable",
      "type": "function"
    },
    {
      "inputs": [
        {
          "internalType": "uint256",
          "name": "_productTemplateID",
          "type": "uint256"
        },
        {
          "internalType": "string",
          "name": "_name",
          "type": "string"
        },
        {
          "internalType": "string",
          "name": "_description",
          "type": "string"
        },
        {
          "internalType": "string",
          "name": "_factoryID",
          "type": "string"
        }
      ],
      "name": "addProductTemplate",
      "outputs": [],
      "stateMutability": "nonpayable",
      "type": "function"
    },
    {
      "inputs": [
        {
          "internalType": "uint256",
          "name": "batchID",
          "type": "uint256"
        },
        {
          "internalType": "uint256[]",
          "name": "productIDs",
          "type": "uint256[]"
        },
        {
          "internalType": "uint256",
          "name": "batchSize",
          "type": "uint256"
        },
        {
          "internalType": "string",
          "name": "batchDescription",
          "type": "string"
        },
        {
          "internalType": "uint256",
          "name": "productTemplateID",
          "type": "uint256"
        },
        {
          "internalType": "string",
          "name": "factory",
          "type": "string"
        },
        {
          "internalType": "string",
          "name": "distributor",
          "type": "string"
        },
        {
          "internalType": "string",
          "name": "factoryLocation",
          "type": "string"
        },
        {
          "internalType": "string",
          "name": "dateOfProduction",
          "type": "string"
        }
      ],
      "name": "batchProduced",
      "outputs": [],
      "stateMutability": "nonpayable",
      "type": "function"
    },
    {
      "inputs": [
        {
          "internalType": "uint256",
          "name": "batchID",
          "type": "uint256"
        },
        {
          "internalType": "string",
          "name": "_distributorID",
          "type": "string"
        }
      ],
      "name": "distributorScansBatch",
      "outputs": [],
      "stateMutability": "nonpayable",
      "type": "function"
    },
    {
      "inputs": [
        {
          "internalType": "uint256",
          "name": "batchID",
          "type": "uint256"
        },
        {
          "internalType": "uint256[]",
          "name": "productIDs",
          "type": "uint256[]"
        },
        {
          "internalType": "string[]",
          "name": "retailerIDs",
          "type": "string[]"
        }
      ],
      "name": "distributorSellToRetailer",
      "outputs": [],
      "stateMutability": "nonpayable",
      "type": "function"
    },
    {
      "inputs": [],
      "name": "getAllBatchIDs",
      "outputs": [
        {
          "internalType": "uint256[]",
          "name": "",
          "type": "uint256[]"
        }
      ],
      "stateMutability": "view",
      "type": "function"
    },
    {
      "inputs": [],
      "name": "getAllBatchTemplateIDs",
      "outputs": [
        {
          "internalType": "uint256[]",
          "name": "",
          "type": "uint256[]"
        }
      ],
      "stateMutability": "view",
      "type": "function"
    },
    {
      "inputs": [],
      "name": "getAllProductIDs",
      "outputs": [
        {
          "internalType": "uint256[]",
          "name": "",
          "type": "uint256[]"
        }
      ],
      "stateMutability": "view",
      "type": "function"
    },
    {
      "inputs": [],
      "name": "getAllProductTemplateIDs",
      "outputs": [
        {
          "internalType": "uint256[]",
          "name": "",
          "type": "uint256[]"
        }
      ],
      "stateMutability": "view",
      "type": "function"
    },
    {
      "inputs": [
        {
          "internalType": "string",
          "name": "customerID",
          "type": "string"
        }
      ],
      "name": "getAllProductsBought",
      "outputs": [
        {
          "components": [
            {
              "internalType": "uint256",
              "name": "BatchID",
              "type": "uint256"
            },
            {
              "internalType": "uint256",
              "name": "ProductID",
              "type": "uint256"
            }
          ],
          "internalType": "struct Supplychain.Customer[]",
          "name": "",
          "type": "tuple[]"
        }
      ],
      "stateMutability": "view",
      "type": "function"
    },
    {
      "inputs": [
        {
          "internalType": "uint256",
          "name": "batchID",
          "type": "uint256"
        }
      ],
      "name": "getProductIdsForaBatch",
      "outputs": [
        {
          "internalType": "uint256[]",
          "name": "",
          "type": "uint256[]"
        }
      ],
      "stateMutability": "view",
      "type": "function"
    },
    {
      "inputs": [
        {
          "internalType": "uint256",
          "name": "_productID",
          "type": "uint256"
        },
        {
          "internalType": "string",
          "name": "_retailerID",
          "type": "string"
        }
      ],
      "name": "retailerScansProduct",
      "outputs": [],
      "stateMutability": "nonpayable",
      "type": "function"
    },
    {
      "inputs": [
        {
          "internalType": "uint256",
          "name": "batchID",
          "type": "uint256"
        },
        {
          "internalType": "uint256",
          "name": "productID",
          "type": "uint256"
        },
        {
          "internalType": "string",
          "name": "customerID",
          "type": "string"
        }
      ],
      "name": "retailerSellToCustomer",
      "outputs": [],
      "stateMutability": "nonpayable",
      "type": "function"
    }
  ],
  "bytecode": "0x608060405234801561001057600080fd5b50612822806100206000396000f3fe608060405234801561001057600080fd5b50600436106101735760003560e01c8063793560dd116100de578063a78317f811610097578063d16ad4e011610071578063d16ad4e01461037d578063d976f93014610390578063ea417247146103a3578063eac0e977146103b657600080fd5b8063a78317f81461032c578063bf801df11461033f578063c492384f1461036a57600080fd5b8063793560dd146102bf5780637ae4ee04146102c75780638bd42880146102eb5780638c4c42cd146102fe5780638e5452b81461030657806390973cce1461031957600080fd5b80633b7d255c116101305780633b7d255c1461022e5780633c743e29146102365780634c27729c146102615780634ca20f3414610269578063588cd0ec1461027c57806371d1dc0c1461029c57600080fd5b806314cecf911461017857806321f293911461018d578063278338e8146101ba578063284328d0146101cd578063392a70a6146101ed5780633ab95f301461020d575b600080fd5b61018b610186366004611ec3565b6103dd565b005b6101a061019b366004611fa4565b6105a4565b604080519283526020830191909152015b60405180910390f35b61018b6101c8366004611fe9565b6105ef565b6101e06101db36600461207b565b61070f565b6040516101b191906120b8565b6102006101fb366004612107565b6107a0565b6040516101b19190612120565b61022061021b366004612107565b610802565b6040519081526020016101b1565b610200610823565b61022061024436600461207b565b805160208183018101805160078252928201919093012091525481565b61020061087b565b610220610277366004612107565b6108d1565b61028f61028a366004611fa4565b6108e1565b6040516101b191906121b4565b6102af6102aa366004612107565b6109a9565b6040516101b194939291906121ce565b610200610b6a565b6102da6102d5366004612107565b610bc0565b6040516101b1959493929190612218565b6102206102f9366004612107565b610d00565b610200610d10565b61018b61031436600461225b565b610d66565b6102206103273660046122dc565b610f0e565b61022061033a366004612107565b610f3f565b61035261034d366004612107565b610f4f565b6040516101b19c9b9a999897969594939291906122fe565b61018b6103783660046123a3565b61125d565b61018b61038b3660046124b7565b6116a6565b61018b61039e366004612507565b611759565b61018b6103b1366004612507565b6118b0565b6103c96103c4366004612107565b611a01565b6040516101b198979695949392919061254e565b600083815260036020526040902060010154825111156104605760405162461bcd60e51b815260206004820152603360248201527f4c656e677468206f662070726f647563744944732073686f756c64206265206c604482015272657373207468656e2062617463682073697a6560681b60648201526084015b60405180910390fd5b80518251146104cd5760405162461bcd60e51b815260206004820152603360248201527f4c656e677468206f662070726f6475637449447320616e642072657461696c65604482015272724944732073686f756c642062652073616d6560681b6064820152608401610457565b60005b8251811015610541578181815181106104eb576104eb6125b4565b602002602001015160026000858481518110610509576105096125b4565b60200260200101518152602001908152602001600020600501908161052e9190612652565b508061053981612728565b9150506104d0565b5081516000848152600360205260408120600b018054909190610565908490612741565b909155505060008381526003602052604090206001810154600b909101540361059f57600083815260036020526040902060016009909101555b505050565b815160208184018101805160058252928201918501919091209190528054829081106105cf57600080fd5b600091825260209091206002909102018054600190910154909250905082565b6105f884611be0565b156106615760405162461bcd60e51b815260206004820152603360248201527f546869732050726f6475637454656d706c617465494420616c72656164792065604482015272786973747320696e207468652073797374656d60681b6064820152608401610457565b6040805160808101825285815260208082018681528284018690526060830185905260008881529182905292902081518155915190919060018201906106a79082612652565b50604082015160028201906106bc9082612652565b50606082015160038201906106d19082612652565b5050600880546001810182556000919091527ff3f7a9fe364faab93b216da50a3214154f22a0a2b415b23a84c8169e8b636ee3019490945550505050565b6060600582604051610721919061275a565b9081526020016040518091039020805480602002602001604051908101604052809291908181526020016000905b828210156107955783829060005260206000209060020201604051806040016040529081600082015481526020016001820154815250508152602001906001019061074f565b505050509050919050565b6000818152600460209081526040918290208054835181840281018401909452808452606093928301828280156107f657602002820191906000526020600020905b8154815260200190600101908083116107e2575b50505050509050919050565b6008818154811061081257600080fd5b600091825260209091200154905081565b6060600880548060200260200160405190810160405280929190818152602001828054801561087157602002820191906000526020600020905b81548152602001906001019080831161085d575b5050505050905090565b60606009805480602002602001604051908101604052809291908181526020018280548015610871576020028201919060005260206000209081548152602001906001019080831161085d575050505050905090565b6009818154811061081257600080fd5b8151602081840181018051600682529282019185019190912091905280548290811061090c57600080fd5b90600052602060002001600091509150508054610928906125ca565b80601f0160208091040260200160405190810160405280929190818152602001828054610954906125ca565b80156109a15780601f10610976576101008083540402835291602001916109a1565b820191906000526020600020905b81548152906001019060200180831161098457829003601f168201915b505050505081565b600060208190529081526040902080546001820180549192916109cb906125ca565b80601f01602080910402602001604051908101604052809291908181526020018280546109f7906125ca565b8015610a445780601f10610a1957610100808354040283529160200191610a44565b820191906000526020600020905b815481529060010190602001808311610a2757829003601f168201915b505050505090806002018054610a59906125ca565b80601f0160208091040260200160405190810160405280929190818152602001828054610a85906125ca565b8015610ad25780601f10610aa757610100808354040283529160200191610ad2565b820191906000526020600020905b815481529060010190602001808311610ab557829003601f168201915b505050505090806003018054610ae7906125ca565b80601f0160208091040260200160405190810160405280929190818152602001828054610b13906125ca565b8015610b605780601f10610b3557610100808354040283529160200191610b60565b820191906000526020600020905b815481529060010190602001808311610b4357829003601f168201915b5050505050905084565b6060600b805480602002602001604051908101604052809291908181526020018280548015610871576020028201919060005260206000209081548152602001906001019080831161085d575050505050905090565b6001602081905260009182526040909120805491810154600282018054919291610be9906125ca565b80601f0160208091040260200160405190810160405280929190818152602001828054610c15906125ca565b8015610c625780601f10610c3757610100808354040283529160200191610c62565b820191906000526020600020905b815481529060010190602001808311610c4557829003601f168201915b505050505090806003015490806004018054610c7d906125ca565b80601f0160208091040260200160405190810160405280929190818152602001828054610ca9906125ca565b8015610cf65780601f10610ccb57610100808354040283529160200191610cf6565b820191906000526020600020905b815481529060010190602001808311610cd957829003601f168201915b5050505050905085565b600b818154811061081257600080fd5b6060600a805480602002602001604051908101604052809291908181526020018280548015610871576020028201919060005260206000209081548152602001906001019080831161085d575050505050905090565b610d6f85611c36565b15610dd65760405162461bcd60e51b815260206004820152603160248201527f5468697320426174636854656d706c617465494420616c72656164792065786960448201527073747320696e207468652073797374656d60781b6064820152608401610457565b610ddf84611be0565b1515600114610e4d5760405162461bcd60e51b815260206004820152603460248201527f546869732050726f6475637454656d706c617465494420646f6573206e6f742060448201527365786973747320696e207468652073797374656d60601b6064820152608401610457565b6040518060a00160405280868152602001858152602001848152602001838152602001828152506001600087815260200190815260200160002060008201518160000155602082015181600101556040820151816002019081610eb09190612652565b506060820151600382015560808201516004820190610ecf9082612652565b5050600980546001810182556000919091527f6e1540171b6c0c960b71a7020d9f60077f6af931a8bbf590da0223dacf75c7af01959095555050505050565b60046020528160005260406000208181548110610f2a57600080fd5b90600052602060002001600091509150505481565b600a818154811061081257600080fd5b6003602052806000526040600020600091509050806000015490806001015490806002015490806003018054610f84906125ca565b80601f0160208091040260200160405190810160405280929190818152602001828054610fb0906125ca565b8015610ffd5780601f10610fd257610100808354040283529160200191610ffd565b820191906000526020600020905b815481529060010190602001808311610fe057829003601f168201915b505050505090806004015490806005018054611018906125ca565b80601f0160208091040260200160405190810160405280929190818152602001828054611044906125ca565b80156110915780601f1061106657610100808354040283529160200191611091565b820191906000526020600020905b81548152906001019060200180831161107457829003601f168201915b5050505050908060060180546110a6906125ca565b80601f01602080910402602001604051908101604052809291908181526020018280546110d2906125ca565b801561111f5780601f106110f45761010080835404028352916020019161111f565b820191906000526020600020905b81548152906001019060200180831161110257829003601f168201915b505050505090806007018054611134906125ca565b80601f0160208091040260200160405190810160405280929190818152602001828054611160906125ca565b80156111ad5780601f10611182576101008083540402835291602001916111ad565b820191906000526020600020905b81548152906001019060200180831161119057829003601f168201915b5050505050908060080180546111c2906125ca565b80601f01602080910402602001604051908101604052809291908181526020018280546111ee906125ca565b801561123b5780601f106112105761010080835404028352916020019161123b565b820191906000526020600020905b81548152906001019060200180831161121e57829003601f168201915b505050506009830154600a840154600b909401549293909260ff90911691508c565b61126689611c83565b156112bf5760405162461bcd60e51b8152602060048201526024808201527f4261746368494420616c72656164792065786973747320696e207468652073796044820152637374656d60e01b6064820152608401610457565b868851146113355760405162461bcd60e51b815260206004820152603760248201527f53697a65206f662070726f6475637449447320617272617920646f6573206e6f60448201527f74206d6174636820776974682042617463682073697a650000000000000000006064820152608401610457565b60408051610180810182528a815260208082018a81526000838501818152606085018c8152608086018c905260a086018b905260c086018a905260e0860189905261010086018890526101208601839052610140860183905261016086018390528f83526003948590529590912084518155915160018301555160028201559251919291908201906113c79082612652565b506080820151600482015560a082015160058201906113e69082612652565b5060c082015160068201906113fb9082612652565b5060e082015160078201906114109082612652565b5061010082015160088201906114269082612652565b506101208201516009820155610140820151600a8201805460ff191691151591909117905561016090910151600b918201558054600181019091557f0175b7a638427703f0dbe7bb9bbf987a2551717b34e79f33b5b1008d1fa01db901899055600089815260046020908152604090912089516114a5928b0190611d1d565b5060005b8781101561169a576114d38982815181106114c6576114c66125b4565b6020026020010151611cd0565b1561152f5760405162461bcd60e51b815260206004820152602660248201527f50726f64756374494420616c72656164792065786973747320696e207468652060448201526573797374656d60d01b6064820152608401610457565b6040518061010001604052808a838151811061154d5761154d6125b4565b602002602001015181526020018b81526020018781526020018381526020016040518060200160405280600081525081526020016040518060200160405280600081525081526020016000151581526020016000815250600260008b84815181106115ba576115ba6125b4565b6020026020010151815260200190815260200160002060008201518160000155602082015181600101556040820151816002015560608201518160030190816116039190612652565b50608082015160048201906116189082612652565b5060a0820151600582019061162d9082612652565b5060c082015160068201805460ff191691151591909117905560e0909101516007909101558851600a908a9083908110611669576116696125b4565b602090810291909101810151825460018101845560009384529190922001558061169281612728565b9150506114a9565b50505050505050505050565b60008381526003602052604081206002018054600192906116c8908490612741565b909155505060008281526002602052604090206004016116e88282612652565b5060008281526002602052604090819020426007909101555160059061170f90839061275a565b908152604080519182900360209081018320838301909252948252818501938452805460018181018355600092835295909120915160029091029091019081559151919092015550565b6000828152600360205260409020600a015460ff16156117d45760405162461bcd60e51b815260206004820152603060248201527f5468697320626174636820697320616c7265616479207363616e6e656420627960448201526f103a3432903234b9ba3934b13aba37b960811b6064820152608401610457565b806040516020016117e5919061275a565b60408051601f19818403018152828252805160209182012060008681526003835292909220919261181a926006019101612776565b60405160208183030381529060405280519060200120146118915760405162461bcd60e51b815260206004820152602b60248201527f54686973206261746368206973206e6f74206f776e656420627920746869732060448201526a3234b9ba3934b13aba37b960a91b6064820152608401610457565b506000908152600360205260409020600a01805460ff19166001179055565b60008281526002602052604090206006015460ff16156119285760405162461bcd60e51b815260206004820152602d60248201527f5468697320626174636820697320616c7265616479207363616e6e656420627960448201526c103a3432903932ba30b4b632b960991b6064820152608401610457565b80604051602001611939919061275a565b60408051601f19818403018152828252805160209182012060008681526002835292909220919261196e926005019101612776565b60405160208183030381529060405280519060200120146119e25760405162461bcd60e51b815260206004820152602860248201527f54686973206261746368206973206e6f74206f776e65642062792074686973206044820152673932ba30b4b632b960c11b6064820152608401610457565b506000908152600260205260409020600601805460ff19166001179055565b600260208190526000918252604090912080546001820154928201546003830180549294939192611a31906125ca565b80601f0160208091040260200160405190810160405280929190818152602001828054611a5d906125ca565b8015611aaa5780601f10611a7f57610100808354040283529160200191611aaa565b820191906000526020600020905b815481529060010190602001808311611a8d57829003601f168201915b505050505090806004018054611abf906125ca565b80601f0160208091040260200160405190810160405280929190818152602001828054611aeb906125ca565b8015611b385780601f10611b0d57610100808354040283529160200191611b38565b820191906000526020600020905b815481529060010190602001808311611b1b57829003601f168201915b505050505090806005018054611b4d906125ca565b80601f0160208091040260200160405190810160405280929190818152602001828054611b79906125ca565b8015611bc65780601f10611b9b57610100808354040283529160200191611bc6565b820191906000526020600020905b815481529060010190602001808311611ba957829003601f168201915b505050506006830154600790930154919260ff1691905088565b6000805b600854811015611c2d578260088281548110611c0257611c026125b4565b906000526020600020015403611c1b5750600192915050565b80611c2581612728565b915050611be4565b50600092915050565b6000805b600954811015611c2d578260098281548110611c5857611c586125b4565b906000526020600020015403611c715750600192915050565b80611c7b81612728565b915050611c3a565b6000805b600b54811015611c2d5782600b8281548110611ca557611ca56125b4565b906000526020600020015403611cbe5750600192915050565b80611cc881612728565b915050611c87565b6000805b600a54811015611c2d5782600a8281548110611cf257611cf26125b4565b906000526020600020015403611d0b5750600192915050565b80611d1581612728565b915050611cd4565b828054828255906000526020600020908101928215611d58579160200282015b82811115611d58578251825591602001919060010190611d3d565b50611d64929150611d68565b5090565b5b80821115611d645760008155600101611d69565b634e487b7160e01b600052604160045260246000fd5b604051601f8201601f1916810167ffffffffffffffff81118282101715611dbc57611dbc611d7d565b604052919050565b600067ffffffffffffffff821115611dde57611dde611d7d565b5060051b60200190565b600082601f830112611df957600080fd5b81356020611e0e611e0983611dc4565b611d93565b82815260059290921b84018101918181019086841115611e2d57600080fd5b8286015b84811015611e485780358352918301918301611e31565b509695505050505050565b600082601f830112611e6457600080fd5b813567ffffffffffffffff811115611e7e57611e7e611d7d565b611e91601f8201601f1916602001611d93565b818152846020838601011115611ea657600080fd5b816020850160208301376000918101602001919091529392505050565b600080600060608486031215611ed857600080fd5b8335925060208085013567ffffffffffffffff80821115611ef857600080fd5b611f0488838901611de8565b94506040870135915080821115611f1a57600080fd5b818701915087601f830112611f2e57600080fd5b8135611f3c611e0982611dc4565b81815260059190911b8301840190848101908a831115611f5b57600080fd5b8585015b83811015611f9357803585811115611f775760008081fd5b611f858d89838a0101611e53565b845250918601918601611f5f565b508096505050505050509250925092565b60008060408385031215611fb757600080fd5b823567ffffffffffffffff811115611fce57600080fd5b611fda85828601611e53565b95602094909401359450505050565b60008060008060808587031215611fff57600080fd5b84359350602085013567ffffffffffffffff8082111561201e57600080fd5b61202a88838901611e53565b9450604087013591508082111561204057600080fd5b61204c88838901611e53565b9350606087013591508082111561206257600080fd5b5061206f87828801611e53565b91505092959194509250565b60006020828403121561208d57600080fd5b813567ffffffffffffffff8111156120a457600080fd5b6120b084828501611e53565b949350505050565b602080825282518282018190526000919060409081850190868401855b828110156120fa578151805185528601518685015292840192908501906001016120d5565b5091979650505050505050565b60006020828403121561211957600080fd5b5035919050565b6020808252825182820181905260009190848201906040850190845b818110156121585783518352928401929184019160010161213c565b50909695505050505050565b60005b8381101561217f578181015183820152602001612167565b50506000910152565b600081518084526121a0816020860160208601612164565b601f01601f19169290920160200192915050565b6020815260006121c76020830184612188565b9392505050565b8481526080602082015260006121e76080830186612188565b82810360408401526121f98186612188565b9050828103606084015261220d8185612188565b979650505050505050565b85815284602082015260a06040820152600061223760a0830186612188565b846060840152828103608084015261224f8185612188565b98975050505050505050565b600080600080600060a0868803121561227357600080fd5b8535945060208601359350604086013567ffffffffffffffff8082111561229957600080fd5b6122a589838a01611e53565b94506060880135935060808801359150808211156122c257600080fd5b506122cf88828901611e53565b9150509295509295909350565b600080604083850312156122ef57600080fd5b50508035926020909101359150565b60006101808e83528d60208401528c60408401528060608401526123248184018d612188565b90508a608084015282810360a084015261233e818b612188565b905082810360c0840152612352818a612188565b905082810360e08401526123668189612188565b905082810361010084015261237b8188612188565b6101208401969096525050911515610140830152610160909101529998505050505050505050565b60008060008060008060008060006101208a8c0312156123c257600080fd5b8935985060208a013567ffffffffffffffff808211156123e157600080fd5b6123ed8d838e01611de8565b995060408c0135985060608c013591508082111561240a57600080fd5b6124168d838e01611e53565b975060808c0135965060a08c013591508082111561243357600080fd5b61243f8d838e01611e53565b955060c08c013591508082111561245557600080fd5b6124618d838e01611e53565b945060e08c013591508082111561247757600080fd5b6124838d838e01611e53565b93506101008c013591508082111561249a57600080fd5b506124a78c828d01611e53565b9150509295985092959850929598565b6000806000606084860312156124cc57600080fd5b8335925060208401359150604084013567ffffffffffffffff8111156124f157600080fd5b6124fd86828701611e53565b9150509250925092565b6000806040838503121561251a57600080fd5b82359150602083013567ffffffffffffffff81111561253857600080fd5b61254485828601611e53565b9150509250929050565b60006101008a835289602084015288604084015280606084015261257481840189612188565b905082810360808401526125888188612188565b905082810360a084015261259c8187612188565b94151560c0840152505060e001529695505050505050565b634e487b7160e01b600052603260045260246000fd5b600181811c908216806125de57607f821691505b6020821081036125fe57634e487b7160e01b600052602260045260246000fd5b50919050565b601f82111561059f57600081815260208120601f850160051c8101602086101561262b5750805b601f850160051c820191505b8181101561264a57828155600101612637565b505050505050565b815167ffffffffffffffff81111561266c5761266c611d7d565b6126808161267a84546125ca565b84612604565b602080601f8311600181146126b5576000841561269d5750858301515b600019600386901b1c1916600185901b17855561264a565b600085815260208120601f198616915b828110156126e4578886015182559484019460019091019084016126c5565b50858210156127025787850151600019600388901b60f8161c191681555b5050505050600190811b01905550565b634e487b7160e01b600052601160045260246000fd5b60006001820161273a5761273a612712565b5060010190565b8082018082111561275457612754612712565b92915050565b6000825161276c818460208701612164565b9190910192915050565b6000808354612784816125ca565b6001828116801561279c57600181146127b1576127e0565b60ff19841687528215158302870194506127e0565b8760005260208060002060005b858110156127d75781548a8201529084019082016127be565b50505082870194505b5092969550505050505056fea2646970667358221220ff446946bc2524eb1a2566bdf19d6dfb773da08b995f2e0dee594a3a0927116a64736f6c63430008110033",
  "linkReferences": {},
  "deployedLinkReferences": {}
}