{
  "_format": "hh-sol-artifact-1",
  "contractName": "Supplychain",
  "sourceName": "contracts/Supplychain.sol",
  "abi": [
    {
      "inputs": [
        {
          "internalType": "uint256",
          "name": "",
          "type": "uint256"
        },
        {
          "internalType": "uint256",
          "name": "",
          "type": "uint256"
        }
      ],
      "name": "BatchIDToProductIDMapping",
      "outputs": [
        {
          "internalType": "uint256",
          "name": "",
          "type": "uint256"
        }
      ],
      "stateMutability": "view",
      "type": "function"
    },
    {
      "inputs": [
        {
          "internalType": "uint256",
          "name": "",
          "type": "uint256"
        }
      ],
      "name": "BatchIDs",
      "outputs": [
        {
          "internalType": "uint256",
          "name": "",
          "type": "uint256"
        }
      ],
      "stateMutability": "view",
      "type": "function"
    },
    {
      "inputs": [
        {
          "internalType": "uint256",
          "name": "",
          "type": "uint256"
        }
      ],
      "name": "BatchMapping",
      "outputs": [
        {
          "internalType": "uint256",
          "name": "BatchID",
          "type": "uint256"
        },
        {
          "internalType": "uint256",
          "name": "BatchSize",
          "type": "uint256"
        },
        {
          "internalType": "uint256",
          "name": "AmountSoldTOCustomer",
          "type": "uint256"
        },
        {
          "internalType": "string",
          "name": "BatchDescription",
          "type": "string"
        },
        {
          "internalType": "uint256",
          "name": "ProductTemplateID",
          "type": "uint256"
        },
        {
          "internalType": "string",
          "name": "FactoryID",
          "type": "string"
        },
        {
          "internalType": "string",
          "name": "DistributorID",
          "type": "string"
        },
        {
          "internalType": "string",
          "name": "FactoryLocation",
          "type": "string"
        },
        {
          "internalType": "string",
          "name": "DateOfProduction",
          "type": "string"
        },
        {
          "internalType": "uint256",
          "name": "State",
          "type": "uint256"
        },
        {
          "internalType": "bool",
          "name": "DistributorScanned",
          "type": "bool"
        },
        {
          "internalType": "string",
          "name": "DistributorScannedTimeStamp",
          "type": "string"
        },
        {
          "internalType": "uint256",
          "name": "AmountLeftForSellingTORetailer",
          "type": "uint256"
        },
        {
          "internalType": "uint256",
          "name": "CompanyBatchID",
          "type": "uint256"
        }
      ],
      "stateMutability": "view",
      "type": "function"
    },
    {
      "inputs": [
        {
          "internalType": "uint256",
          "name": "",
          "type": "uint256"
        }
      ],
      "name": "BatchTemplateIDs",
      "outputs": [
        {
          "internalType": "uint256",
          "name": "",
          "type": "uint256"
        }
      ],
      "stateMutability": "view",
      "type": "function"
    },
    {
      "inputs": [
        {
          "internalType": "uint256",
          "name": "",
          "type": "uint256"
        }
      ],
      "name": "BatchTemplateMAP",
      "outputs": [
        {
          "internalType": "uint256",
          "name": "BatchTemplateID",
          "type": "uint256"
        },
        {
          "internalType": "uint256",
          "name": "ProductTemplateID",
          "type": "uint256"
        },
        {
          "internalType": "string",
          "name": "Description",
          "type": "string"
        },
        {
          "internalType": "uint256",
          "name": "BatchSize",
          "type": "uint256"
        },
        {
          "internalType": "string",
          "name": "FactoryID",
          "type": "string"
        }
      ],
      "stateMutability": "view",
      "type": "function"
    },
    {
      "inputs": [
        {
          "internalType": "string",
          "name": "",
          "type": "string"
        },
        {
          "internalType": "uint256",
          "name": "",
          "type": "uint256"
        }
      ],
      "name": "CustomerData",
      "outputs": [
        {
          "internalType": "uint256",
          "name": "BatchID",
          "type": "uint256"
        },
        {
          "internalType": "uint256",
          "name": "ProductID",
          "type": "uint256"
        },
        {
          "internalType": "string",
          "name": "CustomerID",
          "type": "string"
        },
        {
          "internalType": "string",
          "name": "CustomerName",
          "type": "string"
        }
      ],
      "stateMutability": "view",
      "type": "function"
    },
    {
      "inputs": [
        {
          "internalType": "string",
          "name": "",
          "type": "string"
        },
        {
          "internalType": "uint256",
          "name": "",
          "type": "uint256"
        }
      ],
      "name": "DistributorIDToRetailerStruct",
      "outputs": [
        {
          "internalType": "string",
          "name": "DistributorID",
          "type": "string"
        },
        {
          "internalType": "string",
          "name": "RetailerID",
          "type": "string"
        },
        {
          "internalType": "uint256",
          "name": "BatchID",
          "type": "uint256"
        },
        {
          "internalType": "uint256",
          "name": "Quantity",
          "type": "uint256"
        },
        {
          "internalType": "string",
          "name": "TimeStamp",
          "type": "string"
        }
      ],
      "stateMutability": "view",
      "type": "function"
    },
    {
      "inputs": [
        {
          "internalType": "uint256",
          "name": "",
          "type": "uint256"
        }
      ],
      "name": "ProductIDs",
      "outputs": [
        {
          "internalType": "uint256",
          "name": "",
          "type": "uint256"
        }
      ],
      "stateMutability": "view",
      "type": "function"
    },
    {
      "inputs": [
        {
          "internalType": "uint256",
          "name": "",
          "type": "uint256"
        }
      ],
      "name": "ProductMapping",
      "outputs": [
        {
          "internalType": "uint256",
          "name": "ProductID",
          "type": "uint256"
        },
        {
          "internalType": "uint256",
          "name": "CompanyProductID",
          "type": "uint256"
        },
        {
          "internalType": "uint256",
          "name": "BatchID",
          "type": "uint256"
        },
        {
          "internalType": "uint256",
          "name": "ProductTemplateID",
          "type": "uint256"
        },
        {
          "internalType": "string",
          "name": "DOM",
          "type": "string"
        },
        {
          "internalType": "string",
          "name": "CustomerID",
          "type": "string"
        },
        {
          "internalType": "string",
          "name": "RetailerID",
          "type": "string"
        },
        {
          "internalType": "bool",
          "name": "RetailerScanned",
          "type": "bool"
        },
        {
          "internalType": "string",
          "name": "RetailerScannedTimeStamp",
          "type": "string"
        },
        {
          "internalType": "string",
          "name": "DateWhenSoldToRetailer",
          "type": "string"
        },
        {
          "internalType": "string",
          "name": "DateWhenSoldToCustomer",
          "type": "string"
        },
        {
          "internalType": "string",
          "name": "RetailerLatitude",
          "type": "string"
        },
        {
          "internalType": "string",
          "name": "RetailerLongitude",
          "type": "string"
        },
        {
          "internalType": "string",
          "name": "CustomerName",
          "type": "string"
        }
      ],
      "stateMutability": "view",
      "type": "function"
    },
    {
      "inputs": [
        {
          "internalType": "uint256",
          "name": "",
          "type": "uint256"
        }
      ],
      "name": "ProductTemplateIDs",
      "outputs": [
        {
          "internalType": "uint256",
          "name": "",
          "type": "uint256"
        }
      ],
      "stateMutability": "view",
      "type": "function"
    },
    {
      "inputs": [
        {
          "internalType": "uint256",
          "name": "",
          "type": "uint256"
        }
      ],
      "name": "ProductTemplateMAP",
      "outputs": [
        {
          "internalType": "uint256",
          "name": "ProductTemplateID",
          "type": "uint256"
        },
        {
          "internalType": "string",
          "name": "Name",
          "type": "string"
        },
        {
          "internalType": "string",
          "name": "Description",
          "type": "string"
        },
        {
          "internalType": "string",
          "name": "FactoryID",
          "type": "string"
        }
      ],
      "stateMutability": "view",
      "type": "function"
    },
    {
      "inputs": [
        {
          "internalType": "string",
          "name": "",
          "type": "string"
        },
        {
          "internalType": "uint256",
          "name": "",
          "type": "uint256"
        }
      ],
      "name": "RetailerIDToRetailerStruct",
      "outputs": [
        {
          "internalType": "string",
          "name": "DistributorID",
          "type": "string"
        },
        {
          "internalType": "string",
          "name": "RetailerID",
          "type": "string"
        },
        {
          "internalType": "uint256",
          "name": "BatchID",
          "type": "uint256"
        },
        {
          "internalType": "uint256",
          "name": "Quantity",
          "type": "uint256"
        },
        {
          "internalType": "string",
          "name": "TimeStamp",
          "type": "string"
        }
      ],
      "stateMutability": "view",
      "type": "function"
    },
    {
      "inputs": [
        {
          "internalType": "uint256",
          "name": "_batchTemplateID",
          "type": "uint256"
        },
        {
          "internalType": "uint256",
          "name": "_productTemplateID",
          "type": "uint256"
        },
        {
          "internalType": "string",
          "name": "_description",
          "type": "string"
        },
        {
          "internalType": "uint256",
          "name": "_batchSize",
          "type": "uint256"
        },
        {
          "internalType": "string",
          "name": "_factoryID",
          "type": "string"
        }
      ],
      "name": "addBatchTemplate",
      "outputs": [],
      "stateMutability": "nonpayable",
      "type": "function"
    },
    {
      "inputs": [
        {
          "internalType": "uint256",
          "name": "_productTemplateID",
          "type": "uint256"
        },
        {
          "internalType": "string",
          "name": "_name",
          "type": "string"
        },
        {
          "internalType": "string",
          "name": "_description",
          "type": "string"
        },
        {
          "internalType": "string",
          "name": "_factoryID",
          "type": "string"
        }
      ],
      "name": "addProductTemplate",
      "outputs": [],
      "stateMutability": "nonpayable",
      "type": "function"
    },
    {
      "inputs": [
        {
          "internalType": "uint256",
          "name": "batchID",
          "type": "uint256"
        },
        {
          "internalType": "uint256",
          "name": "companyBatchID",
          "type": "uint256"
        },
        {
          "internalType": "uint256[]",
          "name": "productIDs",
          "type": "uint256[]"
        },
        {
          "internalType": "uint256[]",
          "name": "companyProductIDs",
          "type": "uint256[]"
        },
        {
          "internalType": "uint256",
          "name": "batchSize",
          "type": "uint256"
        },
        {
          "internalType": "string",
          "name": "batchDescription",
          "type": "string"
        },
        {
          "internalType": "uint256",
          "name": "productTemplateID",
          "type": "uint256"
        },
        {
          "internalType": "string",
          "name": "factory",
          "type": "string"
        },
        {
          "internalType": "string",
          "name": "distributor",
          "type": "string"
        },
        {
          "internalType": "string",
          "name": "factoryLocation",
          "type": "string"
        },
        {
          "internalType": "string",
          "name": "dateOfProduction",
          "type": "string"
        }
      ],
      "name": "batchProduced",
      "outputs": [],
      "stateMutability": "nonpayable",
      "type": "function"
    },
    {
      "inputs": [
        {
          "internalType": "uint256",
          "name": "batchID",
          "type": "uint256"
        },
        {
          "internalType": "string",
          "name": "_distributorID",
          "type": "string"
        },
        {
          "internalType": "string",
          "name": "timeStamp",
          "type": "string"
        }
      ],
      "name": "distributorScansBatch",
      "outputs": [],
      "stateMutability": "nonpayable",
      "type": "function"
    },
    {
      "inputs": [
        {
          "internalType": "uint256",
          "name": "batchID",
          "type": "uint256"
        },
        {
          "internalType": "uint256",
          "name": "quantity",
          "type": "uint256"
        },
        {
          "internalType": "string",
          "name": "retailerID",
          "type": "string"
        },
        {
          "internalType": "string",
          "name": "timeStamp",
          "type": "string"
        }
      ],
      "name": "distributorSellToRetailer",
      "outputs": [],
      "stateMutability": "nonpayable",
      "type": "function"
    },
    {
      "inputs": [],
      "name": "getAllBatchIDs",
      "outputs": [
        {
          "internalType": "uint256[]",
          "name": "",
          "type": "uint256[]"
        }
      ],
      "stateMutability": "view",
      "type": "function"
    },
    {
      "inputs": [],
      "name": "getAllBatchTemplateIDs",
      "outputs": [
        {
          "internalType": "uint256[]",
          "name": "",
          "type": "uint256[]"
        }
      ],
      "stateMutability": "view",
      "type": "function"
    },
    {
      "inputs": [],
      "name": "getAllProductIDs",
      "outputs": [
        {
          "internalType": "uint256[]",
          "name": "",
          "type": "uint256[]"
        }
      ],
      "stateMutability": "view",
      "type": "function"
    },
    {
      "inputs": [],
      "name": "getAllProductTemplateIDs",
      "outputs": [
        {
          "internalType": "uint256[]",
          "name": "",
          "type": "uint256[]"
        }
      ],
      "stateMutability": "view",
      "type": "function"
    },
    {
      "inputs": [
        {
          "internalType": "string",
          "name": "customerID",
          "type": "string"
        }
      ],
      "name": "getAllProductsBought",
      "outputs": [
        {
          "components": [
            {
              "internalType": "uint256",
              "name": "BatchID",
              "type": "uint256"
            },
            {
              "internalType": "uint256",
              "name": "ProductID",
              "type": "uint256"
            },
            {
              "internalType": "string",
              "name": "CustomerID",
              "type": "string"
            },
            {
              "internalType": "string",
              "name": "CustomerName",
              "type": "string"
            }
          ],
          "internalType": "struct Supplychain.Customer[]",
          "name": "",
          "type": "tuple[]"
        }
      ],
      "stateMutability": "view",
      "type": "function"
    },
    {
      "inputs": [
        {
          "internalType": "string",
          "name": "distributorID",
          "type": "string"
        }
      ],
      "name": "getDistributorIDToRetailerStruct",
      "outputs": [
        {
          "components": [
            {
              "internalType": "string",
              "name": "DistributorID",
              "type": "string"
            },
            {
              "internalType": "string",
              "name": "RetailerID",
              "type": "string"
            },
            {
              "internalType": "uint256",
              "name": "BatchID",
              "type": "uint256"
            },
            {
              "internalType": "uint256",
              "name": "Quantity",
              "type": "uint256"
            },
            {
              "internalType": "string",
              "name": "TimeStamp",
              "type": "string"
            }
          ],
          "internalType": "struct Supplychain.Retailer[]",
          "name": "",
          "type": "tuple[]"
        }
      ],
      "stateMutability": "view",
      "type": "function"
    },
    {
      "inputs": [
        {
          "internalType": "uint256",
          "name": "batchID",
          "type": "uint256"
        }
      ],
      "name": "getProductIdsForaBatch",
      "outputs": [
        {
          "internalType": "uint256[]",
          "name": "",
          "type": "uint256[]"
        }
      ],
      "stateMutability": "view",
      "type": "function"
    },
    {
      "inputs": [
        {
          "internalType": "string",
          "name": "retailerID",
          "type": "string"
        }
      ],
      "name": "getRetailerIDToRetailerStruct",
      "outputs": [
        {
          "components": [
            {
              "internalType": "string",
              "name": "DistributorID",
              "type": "string"
            },
            {
              "internalType": "string",
              "name": "RetailerID",
              "type": "string"
            },
            {
              "internalType": "uint256",
              "name": "BatchID",
              "type": "uint256"
            },
            {
              "internalType": "uint256",
              "name": "Quantity",
              "type": "uint256"
            },
            {
              "internalType": "string",
              "name": "TimeStamp",
              "type": "string"
            }
          ],
          "internalType": "struct Supplychain.Retailer[]",
          "name": "",
          "type": "tuple[]"
        }
      ],
      "stateMutability": "view",
      "type": "function"
    },
    {
      "inputs": [
        {
          "internalType": "uint256",
          "name": "_productID",
          "type": "uint256"
        },
        {
          "internalType": "string",
          "name": "_retailerID",
          "type": "string"
        },
        {
          "internalType": "string",
          "name": "timeStamp",
          "type": "string"
        },
        {
          "internalType": "string",
          "name": "latitude",
          "type": "string"
        },
        {
          "internalType": "string",
          "name": "longitude",
          "type": "string"
        }
      ],
      "name": "retailerScansProduct",
      "outputs": [],
      "stateMutability": "nonpayable",
      "type": "function"
    },
    {
      "inputs": [
        {
          "internalType": "uint256",
          "name": "batchID",
          "type": "uint256"
        },
        {
          "internalType": "uint256",
          "name": "productID",
          "type": "uint256"
        },
        {
          "internalType": "string",
          "name": "customerID",
          "type": "string"
        },
        {
          "internalType": "string",
          "name": "customerName",
          "type": "string"
        },
        {
          "internalType": "string",
          "name": "timeStamp",
          "type": "string"
        }
      ],
      "name": "retailerSellToCustomer",
      "outputs": [],
      "stateMutability": "nonpayable",
      "type": "function"
    }
  ],
  "bytecode": "0x608060405234801561001057600080fd5b50613faa806100206000396000f3fe608060405234801561001057600080fd5b50600436106101a95760003560e01c80637f7bf690116100f9578063a7a4523d11610097578063e139f99411610071578063e139f994146103c2578063e3c6a4ac146103e6578063eac0e977146103f9578063ee55fae21461042657600080fd5b8063a7a4523d1461036f578063ab6e3ec514610382578063bf801df11461039557600080fd5b80638c4c42cd116100d35780638c4c42cd1461032e5780638e5452b81461033657806390973cce14610349578063a78317f81461035c57600080fd5b80637f7bf690146102e85780638272d34b146103085780638bd428801461031b57600080fd5b80633ab95f30116101665780634ca20f34116101405780634ca20f341461028657806371d1dc0c14610299578063793560dd146102bc5780637ae4ee04146102c457600080fd5b80633ab95f30146102555780633b7d255c146102765780634c27729c1461027e57600080fd5b806316705686146101ae57806321359e58146101c357806321f29391146101d6578063278338e814610202578063284328d014610215578063392a70a614610235575b600080fd5b6101c16101bc36600461340b565b610439565b005b6101c16101d136600461355a565b6109ea565b6101e96101e43660046135f5565b610af9565b6040516101f99493929190613689565b60405180910390f35b6101c16102103660046136ba565b610c65565b61022861022336600461374b565b610d83565b6040516101f99190613787565b610248610243366004613823565b610f38565b6040516101f9919061383c565b610268610263366004613823565b610f9a565b6040519081526020016101f9565b610248610fbb565b610248611013565b610268610294366004613823565b611069565b6102ac6102a7366004613823565b611079565b6040516101f99493929190613880565b610248611129565b6102d76102d2366004613823565b61117f565b6040516101f99594939291906138bf565b6102fb6102f636600461374b565b6112be565b6040516101f99190613902565b6101c16103163660046139ab565b6114fa565b610268610329366004613823565b611662565b610248611672565b6101c1610344366004613a17565b6116c8565b610268610357366004613a7d565b611862565b61026861036a366004613823565b611893565b6102fb61037d36600461374b565b6118a3565b6101c1610390366004613a9f565b611adf565b6103a86103a3366004613823565b611c84565b6040516101f99e9d9c9b9a99989796959493929190613af7565b6103d56103d03660046135f5565b612023565b6040516101f9959493929190613bbe565b6103d56103f43660046135f5565b61219a565b61040c610407366004613823565b6121c5565b6040516101f99e9d9c9b9a99989796959493929190613c03565b6101c1610434366004613cf2565b6126fd565b6104428b61313a565b156104a05760405162461bcd60e51b8152602060048201526024808201527f4261746368494420616c72656164792065786973747320696e207468652073796044820152637374656d60e01b60648201526084015b60405180910390fd5b868951146105165760405162461bcd60e51b815260206004820152603760248201527f53697a65206f662070726f6475637449447320617272617920646f6573206e6f60448201527f74206d6174636820776974682042617463682073697a650000000000000000006064820152608401610497565b604051806101c001604052808c815260200188815260200160008152602001878152602001868152602001858152602001848152602001838152602001828152602001600081526020016000151581526020016040518060200160405280600081525081526020018881526020018b815250600760008d815260200190815260200160002060008201518160000155602082015181600101556040820151816002015560608201518160030190816105ce9190613db2565b506080820151600482015560a082015160058201906105ed9082613db2565b5060c082015160068201906106029082613db2565b5060e082015160078201906106179082613db2565b50610100820151600882019061062d9082613db2565b506101208201516009820155610140820151600a8201805460ff1916911515919091179055610160820151600b8201906106679082613db2565b50610180820151600c8201556101a090910151600d9091015560038054600181019091557fc2575a0e9e593c00f959f8c92f12db2869c3395a3b0502d05e2516446f71f85b018b905560008b81526008602090815260409091208a516106cf928c0190613277565b5060005b878110156109dc576106fd8a82815181106106f0576106f0613e71565b6020026020010151613190565b156107595760405162461bcd60e51b815260206004820152602660248201527f50726f64756374494420616c72656164792065786973747320696e207468652060448201526573797374656d60d01b6064820152608401610497565b604051806101c001604052808b838151811061077757610777613e71565b602002602001015181526020018a838151811061079657610796613e71565b602002602001015181526020018d815260200187815260200183815260200160405180602001604052806000815250815260200160405180602001604052806000815250815260200160001515815260200160405180602001604052806000815250815260200160405180602001604052806000815250815260200160405180602001604052806000815250815260200160405180602001604052806000815250815260200160405180602001604052806000815250815260200160405180602001604052806000815250815250600660008c848151811061087a5761087a613e71565b602002602001015181526020019081526020016000206000820151816000015560208201518160010155604082015181600201556060820151816003015560808201518160040190816108cd9190613db2565b5060a082015160058201906108e29082613db2565b5060c082015160068201906108f79082613db2565b5060e082015160078201805460ff191691151591909117905561010082015160088201906109259082613db2565b50610120820151600982019061093b9082613db2565b50610140820151600a8201906109519082613db2565b50610160820151600b8201906109679082613db2565b50610180820151600c82019061097d9082613db2565b506101a0820151600d8201906109939082613db2565b5090505060028a82815181106109ab576109ab613e71565b60209081029190910181015182546001810184556000938452919092200155806109d481613e9d565b9150506106d3565b505050505050505050505050565b6000858152600760205260408120600201805460019290610a0c908490613eb6565b90915550506000848152600660205260409020600501610a2c8482613db2565b506000848152600660205260409020600d01610a488382613db2565b506000848152600660205260409020600a01610a648282613db2565b50600983604051610a759190613ecf565b90815260408051918290036020908101832060808401835288845283820188815292840187815260608501879052815460018181018455600093845293909220855160049093020191825592519181019190915590516002820190610ada9082613db2565b5060608201516003820190610aef9082613db2565b5050505050505050565b81516020818401810180516009825292820191850191909120919052805482908110610b2457600080fd5b906000526020600020906004020160009150915050806000015490806001015490806002018054610b5490613d2d565b80601f0160208091040260200160405190810160405280929190818152602001828054610b8090613d2d565b8015610bcd5780601f10610ba257610100808354040283529160200191610bcd565b820191906000526020600020905b815481529060010190602001808311610bb057829003601f168201915b505050505090806003018054610be290613d2d565b80601f0160208091040260200160405190810160405280929190818152602001828054610c0e90613d2d565b8015610c5b5780601f10610c3057610100808354040283529160200191610c5b565b820191906000526020600020905b815481529060010190602001808311610c3e57829003601f168201915b5050505050905084565b610c6e846131dd565b15610cd75760405162461bcd60e51b815260206004820152603360248201527f546869732050726f6475637454656d706c617465494420616c72656164792065604482015272786973747320696e207468652073797374656d60681b6064820152608401610497565b60408051608081018252858152602080820186815282840186905260608301859052600088815260049092529290208151815591519091906001820190610d1e9082613db2565b5060408201516002820190610d339082613db2565b5060608201516003820190610d489082613db2565b5050600080546001810182559080527f290decd9548b62a8d60345a988386fc84ba6bc95484008f6362f93160ef3e563019490945550505050565b6060600982604051610d959190613ecf565b9081526020016040518091039020805480602002602001604051908101604052809291908181526020016000905b82821015610f2d57838290600052602060002090600402016040518060800160405290816000820154815260200160018201548152602001600282018054610e0a90613d2d565b80601f0160208091040260200160405190810160405280929190818152602001828054610e3690613d2d565b8015610e835780601f10610e5857610100808354040283529160200191610e83565b820191906000526020600020905b815481529060010190602001808311610e6657829003601f168201915b50505050508152602001600382018054610e9c90613d2d565b80601f0160208091040260200160405190810160405280929190818152602001828054610ec890613d2d565b8015610f155780601f10610eea57610100808354040283529160200191610f15565b820191906000526020600020905b815481529060010190602001808311610ef857829003601f168201915b50505050508152505081526020019060010190610dc3565b505050509050919050565b600081815260086020908152604091829020805483518184028101840190945280845260609392830182828015610f8e57602002820191906000526020600020905b815481526020019060010190808311610f7a575b50505050509050919050565b60008181548110610faa57600080fd5b600091825260209091200154905081565b6060600080548060200260200160405190810160405280929190818152602001828054801561100957602002820191906000526020600020905b815481526020019060010190808311610ff5575b5050505050905090565b606060018054806020026020016040519081016040528092919081815260200182805480156110095760200282019190600052602060002090815481526020019060010190808311610ff5575050505050905090565b60018181548110610faa57600080fd5b6004602052600090815260409020805460018201805491929161109b90613d2d565b80601f01602080910402602001604051908101604052809291908181526020018280546110c790613d2d565b80156111145780601f106110e957610100808354040283529160200191611114565b820191906000526020600020905b8154815290600101906020018083116110f757829003601f168201915b505050505090806002018054610b5490613d2d565b606060038054806020026020016040519081016040528092919081815260200182805480156110095760200282019190600052602060002090815481526020019060010190808311610ff5575050505050905090565b600560205260009081526040902080546001820154600283018054929391926111a790613d2d565b80601f01602080910402602001604051908101604052809291908181526020018280546111d390613d2d565b80156112205780601f106111f557610100808354040283529160200191611220565b820191906000526020600020905b81548152906001019060200180831161120357829003601f168201915b50505050509080600301549080600401805461123b90613d2d565b80601f016020809104026020016040519081016040528092919081815260200182805461126790613d2d565b80156112b45780601f10611289576101008083540402835291602001916112b4565b820191906000526020600020905b81548152906001019060200180831161129757829003601f168201915b5050505050905085565b6060600a826040516112d09190613ecf565b9081526020016040518091039020805480602002602001604051908101604052809291908181526020016000905b82821015610f2d57838290600052602060002090600502016040518060a001604052908160008201805461133190613d2d565b80601f016020809104026020016040519081016040528092919081815260200182805461135d90613d2d565b80156113aa5780601f1061137f576101008083540402835291602001916113aa565b820191906000526020600020905b81548152906001019060200180831161138d57829003601f168201915b505050505081526020016001820180546113c390613d2d565b80601f01602080910402602001604051908101604052809291908181526020018280546113ef90613d2d565b801561143c5780601f106114115761010080835404028352916020019161143c565b820191906000526020600020905b81548152906001019060200180831161141f57829003601f168201915b50505050508152602001600282015481526020016003820154815260200160048201805461146990613d2d565b80601f016020809104026020016040519081016040528092919081815260200182805461149590613d2d565b80156114e25780601f106114b7576101008083540402835291602001916114e2565b820191906000526020600020905b8154815290600101906020018083116114c557829003601f168201915b505050505081525050815260200190600101906112fe565b6000838152600760205260409020600a015460ff16156115755760405162461bcd60e51b815260206004820152603060248201527f5468697320626174636820697320616c7265616479207363616e6e656420627960448201526f103a3432903234b9ba3934b13aba37b960811b6064820152608401610497565b816040516020016115869190613ecf565b60408051601f1981840301815282825280516020918201206000878152600783529290922091926115bb926006019101613eeb565b60405160208183030381529060405280519060200120146116325760405162461bcd60e51b815260206004820152602b60248201527f54686973206261746368206973206e6f74206f776e656420627920746869732060448201526a3234b9ba3934b13aba37b960a91b6064820152608401610497565b6000838152600760205260409020600a8101805460ff19166001179055600b0161165c8282613db2565b50505050565b60038181548110610faa57600080fd5b606060028054806020026020016040519081016040528092919081815260200182805480156110095760200282019190600052602060002090815481526020019060010190808311610ff5575050505050905090565b6116d18561322a565b156117385760405162461bcd60e51b815260206004820152603160248201527f5468697320426174636854656d706c617465494420616c72656164792065786960448201527073747320696e207468652073797374656d60781b6064820152608401610497565b611741846131dd565b15156001146117af5760405162461bcd60e51b815260206004820152603460248201527f546869732050726f6475637454656d706c617465494420646f6573206e6f742060448201527365786973747320696e207468652073797374656d60601b6064820152608401610497565b6040805160a0810182528681526020808201878152828401878152606084018790526080840186905260008a81526005909352939091208251815590516001820155915190919060028201906118059082613db2565b5060608201516003820155608082015160048201906118249082613db2565b50506001805480820182556000919091527fb10e2d527612073b26eecdfd717e6a320cf44b4afac2b0732d9fcbe2b7fa0cf601959095555050505050565b6008602052816000526040600020818154811061187e57600080fd5b90600052602060002001600091509150505481565b60028181548110610faa57600080fd5b6060600b826040516118b59190613ecf565b9081526020016040518091039020805480602002602001604051908101604052809291908181526020016000905b82821015610f2d57838290600052602060002090600502016040518060a001604052908160008201805461191690613d2d565b80601f016020809104026020016040519081016040528092919081815260200182805461194290613d2d565b801561198f5780601f106119645761010080835404028352916020019161198f565b820191906000526020600020905b81548152906001019060200180831161197257829003601f168201915b505050505081526020016001820180546119a890613d2d565b80601f01602080910402602001604051908101604052809291908181526020018280546119d490613d2d565b8015611a215780601f106119f657610100808354040283529160200191611a21565b820191906000526020600020905b815481529060010190602001808311611a0457829003601f168201915b505050505081526020016002820154815260200160038201548152602001600482018054611a4e90613d2d565b80601f0160208091040260200160405190810160405280929190818152602001828054611a7a90613d2d565b8015611ac75780601f10611a9c57610100808354040283529160200191611ac7565b820191906000526020600020905b815481529060010190602001808311611aaa57829003601f168201915b505050505081525050815260200190600101906118e3565b60008581526006602052604090206007015460ff1615611b575760405162461bcd60e51b815260206004820152602d60248201527f5468697320626174636820697320616c7265616479207363616e6e656420627960448201526c103a3432903932ba30b4b632b960991b6064820152608401610497565b83604051602001611b689190613ecf565b6040516020818303038152906040528051906020012060066000878152602001908152602001600020600601604051602001611ba49190613eeb565b6040516020818303038152906040528051906020012014611c1a5760405162461bcd60e51b815260206004820152602a60248201527f546869732070726f64756374206973206e6f74206f776e65642062792074686960448201526939903932ba30b4b632b960b11b6064820152608401610497565b600085815260066020526040902060078101805460ff19166001179055600801611c448482613db2565b506000858152600660205260409020600b01611c608382613db2565b506000858152600660205260409020600c01611c7c8282613db2565b505050505050565b600760205260009081526040902080546001820154600283015460038401805493949293919291611cb490613d2d565b80601f0160208091040260200160405190810160405280929190818152602001828054611ce090613d2d565b8015611d2d5780601f10611d0257610100808354040283529160200191611d2d565b820191906000526020600020905b815481529060010190602001808311611d1057829003601f168201915b505050505090806004015490806005018054611d4890613d2d565b80601f0160208091040260200160405190810160405280929190818152602001828054611d7490613d2d565b8015611dc15780601f10611d9657610100808354040283529160200191611dc1565b820191906000526020600020905b815481529060010190602001808311611da457829003601f168201915b505050505090806006018054611dd690613d2d565b80601f0160208091040260200160405190810160405280929190818152602001828054611e0290613d2d565b8015611e4f5780601f10611e2457610100808354040283529160200191611e4f565b820191906000526020600020905b815481529060010190602001808311611e3257829003601f168201915b505050505090806007018054611e6490613d2d565b80601f0160208091040260200160405190810160405280929190818152602001828054611e9090613d2d565b8015611edd5780601f10611eb257610100808354040283529160200191611edd565b820191906000526020600020905b815481529060010190602001808311611ec057829003601f168201915b505050505090806008018054611ef290613d2d565b80601f0160208091040260200160405190810160405280929190818152602001828054611f1e90613d2d565b8015611f6b5780601f10611f4057610100808354040283529160200191611f6b565b820191906000526020600020905b815481529060010190602001808311611f4e57829003601f168201915b505050506009830154600a840154600b850180549495929460ff909216935090611f9490613d2d565b80601f0160208091040260200160405190810160405280929190818152602001828054611fc090613d2d565b801561200d5780601f10611fe25761010080835404028352916020019161200d565b820191906000526020600020905b815481529060010190602001808311611ff057829003601f168201915b50505050509080600c01549080600d015490508e565b8151602081840181018051600a82529282019185019190912091905280548290811061204e57600080fd5b90600052602060002090600502016000915091505080600001805461207290613d2d565b80601f016020809104026020016040519081016040528092919081815260200182805461209e90613d2d565b80156120eb5780601f106120c0576101008083540402835291602001916120eb565b820191906000526020600020905b8154815290600101906020018083116120ce57829003601f168201915b50505050509080600101805461210090613d2d565b80601f016020809104026020016040519081016040528092919081815260200182805461212c90613d2d565b80156121795780601f1061214e57610100808354040283529160200191612179565b820191906000526020600020905b81548152906001019060200180831161215c57829003601f168201915b50505050509080600201549080600301549080600401805461123b90613d2d565b8151602081840181018051600b82529282019185019190912091905280548290811061204e57600080fd5b6006602052600090815260409020805460018201546002830154600384015460048501805494959394929391926121fb90613d2d565b80601f016020809104026020016040519081016040528092919081815260200182805461222790613d2d565b80156122745780601f1061224957610100808354040283529160200191612274565b820191906000526020600020905b81548152906001019060200180831161225757829003601f168201915b50505050509080600501805461228990613d2d565b80601f01602080910402602001604051908101604052809291908181526020018280546122b590613d2d565b80156123025780601f106122d757610100808354040283529160200191612302565b820191906000526020600020905b8154815290600101906020018083116122e557829003601f168201915b50505050509080600601805461231790613d2d565b80601f016020809104026020016040519081016040528092919081815260200182805461234390613d2d565b80156123905780601f1061236557610100808354040283529160200191612390565b820191906000526020600020905b81548152906001019060200180831161237357829003601f168201915b5050506007840154600885018054949560ff9092169491935091506123b490613d2d565b80601f01602080910402602001604051908101604052809291908181526020018280546123e090613d2d565b801561242d5780601f106124025761010080835404028352916020019161242d565b820191906000526020600020905b81548152906001019060200180831161241057829003601f168201915b50505050509080600901805461244290613d2d565b80601f016020809104026020016040519081016040528092919081815260200182805461246e90613d2d565b80156124bb5780601f10612490576101008083540402835291602001916124bb565b820191906000526020600020905b81548152906001019060200180831161249e57829003601f168201915b50505050509080600a0180546124d090613d2d565b80601f01602080910402602001604051908101604052809291908181526020018280546124fc90613d2d565b80156125495780601f1061251e57610100808354040283529160200191612549565b820191906000526020600020905b81548152906001019060200180831161252c57829003601f168201915b50505050509080600b01805461255e90613d2d565b80601f016020809104026020016040519081016040528092919081815260200182805461258a90613d2d565b80156125d75780601f106125ac576101008083540402835291602001916125d7565b820191906000526020600020905b8154815290600101906020018083116125ba57829003601f168201915b50505050509080600c0180546125ec90613d2d565b80601f016020809104026020016040519081016040528092919081815260200182805461261890613d2d565b80156126655780601f1061263a57610100808354040283529160200191612665565b820191906000526020600020905b81548152906001019060200180831161264857829003601f168201915b50505050509080600d01805461267a90613d2d565b80601f01602080910402602001604051908101604052809291908181526020018280546126a690613d2d565b80156126f35780601f106126c8576101008083540402835291602001916126f3565b820191906000526020600020905b8154815290600101906020018083116126d657829003601f168201915b505050505090508e565b6000848152600760205260408120600c81015460018201546006909201805491939161272890613d2d565b80601f016020809104026020016040519081016040528092919081815260200182805461275490613d2d565b80156127a15780601f10612776576101008083540402835291602001916127a1565b820191906000526020600020905b81548152906001019060200180831161278457829003601f168201915b50505050509050858310156128285760405162461bcd60e51b815260206004820152604160248201527f5175616e746974792069732067726561746572207468616e2074686520616d6f60448201527f756e74206c65667420746f20626520736f6c6420696e207468697320626174636064820152600d60fb1b608482015260a401610497565b600086116128785760405162461bcd60e51b815260206004820152601760248201527f5175616e746974792063616e6e6f74206265207a65726f0000000000000000006044820152606401610497565b60006128848484613f61565b6000898152600860209081526040808320805482518185028101850190935280835294955092939092918301828280156128dd57602002820191906000526020600020905b8154815260200190600101908083116128c9575b509394508593505050505b6128f28984613eb6565b811015612fcf57600082828151811061290d5761290d613e71565b60200260200101519050600060066000838152602001908152602001600020604051806101c00160405290816000820154815260200160018201548152602001600282015481526020016003820154815260200160048201805461297090613d2d565b80601f016020809104026020016040519081016040528092919081815260200182805461299c90613d2d565b80156129e95780601f106129be576101008083540402835291602001916129e9565b820191906000526020600020905b8154815290600101906020018083116129cc57829003601f168201915b50505050508152602001600582018054612a0290613d2d565b80601f0160208091040260200160405190810160405280929190818152602001828054612a2e90613d2d565b8015612a7b5780601f10612a5057610100808354040283529160200191612a7b565b820191906000526020600020905b815481529060010190602001808311612a5e57829003601f168201915b50505050508152602001600682018054612a9490613d2d565b80601f0160208091040260200160405190810160405280929190818152602001828054612ac090613d2d565b8015612b0d5780601f10612ae257610100808354040283529160200191612b0d565b820191906000526020600020905b815481529060010190602001808311612af057829003601f168201915b5050509183525050600782015460ff1615156020820152600882018054604090920191612b3990613d2d565b80601f0160208091040260200160405190810160405280929190818152602001828054612b6590613d2d565b8015612bb25780601f10612b8757610100808354040283529160200191612bb2565b820191906000526020600020905b815481529060010190602001808311612b9557829003601f168201915b50505050508152602001600982018054612bcb90613d2d565b80601f0160208091040260200160405190810160405280929190818152602001828054612bf790613d2d565b8015612c445780601f10612c1957610100808354040283529160200191612c44565b820191906000526020600020905b815481529060010190602001808311612c2757829003601f168201915b50505050508152602001600a82018054612c5d90613d2d565b80601f0160208091040260200160405190810160405280929190818152602001828054612c8990613d2d565b8015612cd65780601f10612cab57610100808354040283529160200191612cd6565b820191906000526020600020905b815481529060010190602001808311612cb957829003601f168201915b50505050508152602001600b82018054612cef90613d2d565b80601f0160208091040260200160405190810160405280929190818152602001828054612d1b90613d2d565b8015612d685780601f10612d3d57610100808354040283529160200191612d68565b820191906000526020600020905b815481529060010190602001808311612d4b57829003601f168201915b50505050508152602001600c82018054612d8190613d2d565b80601f0160208091040260200160405190810160405280929190818152602001828054612dad90613d2d565b8015612dfa5780601f10612dcf57610100808354040283529160200191612dfa565b820191906000526020600020905b815481529060010190602001808311612ddd57829003601f168201915b50505050508152602001600d82018054612e1390613d2d565b80601f0160208091040260200160405190810160405280929190818152602001828054612e3f90613d2d565b8015612e8c5780601f10612e6157610100808354040283529160200191612e8c565b820191906000526020600020905b815481529060010190602001808311612e6f57829003601f168201915b5050509190925250505060c081018b905261012081018a90526000838152600660209081526040918290208351815590830151600182015590820151600282015560608201516003820155608082015191925082916004820190612ef09082613db2565b5060a08201516005820190612f059082613db2565b5060c08201516006820190612f1a9082613db2565b5060e082015160078201805460ff19169115159190911790556101008201516008820190612f489082613db2565b506101208201516009820190612f5e9082613db2565b50610140820151600a820190612f749082613db2565b50610160820151600b820190612f8a9082613db2565b50610180820151600c820190612fa09082613db2565b506101a0820151600d820190612fb69082613db2565b5090505050508080612fc790613e9d565b9150506128e8565b506000898152600760205260408120600c0180548a9290612ff1908490613f61565b90915550506040805160a081018252848152602081018990528082018b9052606081018a9052608081018890529051600a9061302e908690613ecf565b9081526040516020918190038201902080546001810182556000918252919020825183926005029091019081906130659082613db2565b506020820151600182019061307a9082613db2565b506040820151600282015560608201516003820155608082015160048201906130a39082613db2565b505050600b886040516130b69190613ecf565b9081526040516020918190038201902080546001810182556000918252919020825183926005029091019081906130ed9082613db2565b50602082015160018201906131029082613db2565b5060408201516002820155606082015160038201556080820151600482019061312b9082613db2565b50505050505050505050505050565b6000805b60035481101561318757826003828154811061315c5761315c613e71565b9060005260206000200154036131755750600192915050565b8061317f81613e9d565b91505061313e565b50600092915050565b6000805b6002548110156131875782600282815481106131b2576131b2613e71565b9060005260206000200154036131cb5750600192915050565b806131d581613e9d565b915050613194565b6000805b6000548110156131875782600082815481106131ff576131ff613e71565b9060005260206000200154036132185750600192915050565b8061322281613e9d565b9150506131e1565b6000805b60015481101561318757826001828154811061324c5761324c613e71565b9060005260206000200154036132655750600192915050565b8061326f81613e9d565b91505061322e565b8280548282559060005260206000209081019282156132b2579160200282015b828111156132b2578251825591602001919060010190613297565b506132be9291506132c2565b5090565b5b808211156132be57600081556001016132c3565b634e487b7160e01b600052604160045260246000fd5b604051601f8201601f191681016001600160401b0381118282101715613315576133156132d7565b604052919050565b600082601f83011261332e57600080fd5b813560206001600160401b03821115613349576133496132d7565b8160051b6133588282016132ed565b928352848101820192828101908785111561337257600080fd5b83870192505b8483101561339157823582529183019190830190613378565b979650505050505050565b600082601f8301126133ad57600080fd5b81356001600160401b038111156133c6576133c66132d7565b6133d9601f8201601f19166020016132ed565b8181528460208386010111156133ee57600080fd5b816020850160208301376000918101602001919091529392505050565b60008060008060008060008060008060006101608c8e03121561342d57600080fd5b8b359a5060208c013599506001600160401b038060408e0135111561345157600080fd5b6134618e60408f01358f0161331d565b99508060608e0135111561347457600080fd5b6134848e60608f01358f0161331d565b985060808d013597508060a08e0135111561349e57600080fd5b6134ae8e60a08f01358f0161339c565b965060c08d013595508060e08e013511156134c857600080fd5b6134d88e60e08f01358f0161339c565b9450806101008e013511156134ec57600080fd5b6134fd8e6101008f01358f0161339c565b9350806101208e0135111561351157600080fd5b6135228e6101208f01358f0161339c565b9250806101408e0135111561353657600080fd5b506135488d6101408e01358e0161339c565b90509295989b509295989b9093969950565b600080600080600060a0868803121561357257600080fd5b853594506020860135935060408601356001600160401b038082111561359757600080fd5b6135a389838a0161339c565b945060608801359150808211156135b957600080fd5b6135c589838a0161339c565b935060808801359150808211156135db57600080fd5b506135e88882890161339c565b9150509295509295909350565b6000806040838503121561360857600080fd5b82356001600160401b0381111561361e57600080fd5b61362a8582860161339c565b95602094909401359450505050565b60005b8381101561365457818101518382015260200161363c565b50506000910152565b60008151808452613675816020860160208601613639565b601f01601f19169290920160200192915050565b8481528360208201526080604082015260006136a8608083018561365d565b8281036060840152613391818561365d565b600080600080608085870312156136d057600080fd5b8435935060208501356001600160401b03808211156136ee57600080fd5b6136fa8883890161339c565b9450604087013591508082111561371057600080fd5b61371c8883890161339c565b9350606087013591508082111561373257600080fd5b5061373f8782880161339c565b91505092959194509250565b60006020828403121561375d57600080fd5b81356001600160401b0381111561377357600080fd5b61377f8482850161339c565b949350505050565b60006020808301818452808551808352604092508286019150828160051b87010184880160005b8381101561381557603f19898403018552815160808151855288820151898601528782015181898701526137e48287018261365d565b91505060608083015192508582038187015250613801818361365d565b9689019694505050908601906001016137ae565b509098975050505050505050565b60006020828403121561383557600080fd5b5035919050565b6020808252825182820181905260009190848201906040850190845b8181101561387457835183529284019291840191600101613858565b50909695505050505050565b848152608060208201526000613899608083018661365d565b82810360408401526138ab818661365d565b90508281036060840152613391818561365d565b85815284602082015260a0604082015260006138de60a083018661365d565b84606084015282810360808401526138f6818561365d565b98975050505050505050565b60006020808301818452808551808352604092508286019150828160051b87010184880160005b8381101561381557603f19898403018552815160a0815181865261394f8287018261365d565b915050888201518582038a870152613967828261365d565b9150508782015188860152606080830151818701525060808083015192508582038187015250613997818361365d565b968901969450505090860190600101613929565b6000806000606084860312156139c057600080fd5b8335925060208401356001600160401b03808211156139de57600080fd5b6139ea8783880161339c565b93506040860135915080821115613a0057600080fd5b50613a0d8682870161339c565b9150509250925092565b600080600080600060a08688031215613a2f57600080fd5b853594506020860135935060408601356001600160401b0380821115613a5457600080fd5b613a6089838a0161339c565b94506060880135935060808801359150808211156135db57600080fd5b60008060408385031215613a9057600080fd5b50508035926020909101359150565b600080600080600060a08688031215613ab757600080fd5b8535945060208601356001600160401b0380821115613ad557600080fd5b613ae189838a0161339c565b9550604088013591508082111561359757600080fd5b8e81528d60208201528c60408201526101c060608201526000613b1e6101c083018e61365d565b8c608084015282810360a0840152613b36818d61365d565b905082810360c0840152613b4a818c61365d565b905082810360e0840152613b5e818b61365d565b9050828103610100840152613b73818a61365d565b905087610120840152613b8b61014084018815159052565b828103610160840152613b9e818761365d565b61018084019590955250506101a001529c9b505050505050505050505050565b60a081526000613bd160a083018861365d565b8281036020840152613be3818861365d565b905085604084015284606084015282810360808401526138f6818561365d565b8e81528d60208201528c60408201528b60608201526101c060808201526000613c306101c083018d61365d565b82810360a0840152613c42818d61365d565b905082810360c0840152613c56818c61365d565b8a151560e08501529050828103610100840152613c73818a61365d565b9050828103610120840152613c88818961365d565b9050828103610140840152613c9d818861365d565b9050828103610160840152613cb2818761365d565b9050828103610180840152613cc7818661365d565b90508281036101a0840152613cdc818561365d565b9150509f9e505050505050505050505050505050565b60008060008060808587031215613d0857600080fd5b843593506020850135925060408501356001600160401b038082111561371057600080fd5b600181811c90821680613d4157607f821691505b602082108103613d6157634e487b7160e01b600052602260045260246000fd5b50919050565b601f821115613dad57600081815260208120601f850160051c81016020861015613d8e5750805b601f850160051c820191505b81811015611c7c57828155600101613d9a565b505050565b81516001600160401b03811115613dcb57613dcb6132d7565b613ddf81613dd98454613d2d565b84613d67565b602080601f831160018114613e145760008415613dfc5750858301515b600019600386901b1c1916600185901b178555611c7c565b600085815260208120601f198616915b82811015613e4357888601518255948401946001909101908401613e24565b5085821015613e615787850151600019600388901b60f8161c191681555b5050505050600190811b01905550565b634e487b7160e01b600052603260045260246000fd5b634e487b7160e01b600052601160045260246000fd5b600060018201613eaf57613eaf613e87565b5060010190565b80820180821115613ec957613ec9613e87565b92915050565b60008251613ee1818460208701613639565b9190910192915050565b6000808354613ef981613d2d565b60018281168015613f115760018114613f2657613f55565b60ff1984168752821515830287019450613f55565b8760005260208060002060005b85811015613f4c5781548a820152908401908201613f33565b50505082870194505b50929695505050505050565b81810381811115613ec957613ec9613e8756fea26469706673582212202311a7d7b74bc61a0961e3a009ae4ceb2b9f6a8d3ead947dba5a88f9b33ebf4464736f6c63430008110033",
  "linkReferences": {},
  "deployedLinkReferences": {}
}