{
  "_format": "hh-sol-artifact-1",
  "contractName": "Supplychain",
  "sourceName": "contracts/Supplychain.sol",
  "abi": [
    {
      "inputs": [
        {
          "internalType": "uint256",
          "name": "",
          "type": "uint256"
        },
        {
          "internalType": "uint256",
          "name": "",
          "type": "uint256"
        }
      ],
      "name": "BatchIDToProductIDMapping",
      "outputs": [
        {
          "internalType": "uint256",
          "name": "",
          "type": "uint256"
        }
      ],
      "stateMutability": "view",
      "type": "function"
    },
    {
      "inputs": [
        {
          "internalType": "uint256",
          "name": "",
          "type": "uint256"
        }
      ],
      "name": "BatchIDs",
      "outputs": [
        {
          "internalType": "uint256",
          "name": "",
          "type": "uint256"
        }
      ],
      "stateMutability": "view",
      "type": "function"
    },
    {
      "inputs": [
        {
          "internalType": "uint256",
          "name": "",
          "type": "uint256"
        }
      ],
      "name": "BatchMapping",
      "outputs": [
        {
          "internalType": "uint256",
          "name": "BatchID",
          "type": "uint256"
        },
        {
          "internalType": "uint256",
          "name": "BatchSize",
          "type": "uint256"
        },
        {
          "internalType": "uint256",
          "name": "AmountSoldTOCustomer",
          "type": "uint256"
        },
        {
          "internalType": "string",
          "name": "BatchDescription",
          "type": "string"
        },
        {
          "internalType": "uint256",
          "name": "ProductTemplateID",
          "type": "uint256"
        },
        {
          "internalType": "string",
          "name": "FactoryID",
          "type": "string"
        },
        {
          "internalType": "string",
          "name": "DistributorID",
          "type": "string"
        },
        {
          "internalType": "string",
          "name": "FactoryLocation",
          "type": "string"
        },
        {
          "internalType": "string",
          "name": "DateOfProduction",
          "type": "string"
        },
        {
          "internalType": "uint256",
          "name": "State",
          "type": "uint256"
        },
        {
          "internalType": "bool",
          "name": "FactoryScanned",
          "type": "bool"
        },
        {
          "internalType": "bool",
          "name": "DistributorScanned",
          "type": "bool"
        },
        {
          "internalType": "uint256",
          "name": "AmountSoldTORetailer",
          "type": "uint256"
        }
      ],
      "stateMutability": "view",
      "type": "function"
    },
    {
      "inputs": [
        {
          "internalType": "uint256",
          "name": "",
          "type": "uint256"
        }
      ],
      "name": "BatchTemplateIDs",
      "outputs": [
        {
          "internalType": "uint256",
          "name": "",
          "type": "uint256"
        }
      ],
      "stateMutability": "view",
      "type": "function"
    },
    {
      "inputs": [
        {
          "internalType": "uint256",
          "name": "",
          "type": "uint256"
        }
      ],
      "name": "BatchTemplateMAP",
      "outputs": [
        {
          "internalType": "uint256",
          "name": "BatchTemplateID",
          "type": "uint256"
        },
        {
          "internalType": "uint256",
          "name": "ProductTemplateID",
          "type": "uint256"
        },
        {
          "internalType": "string",
          "name": "Description",
          "type": "string"
        },
        {
          "internalType": "uint256",
          "name": "BatchSize",
          "type": "uint256"
        },
        {
          "internalType": "string",
          "name": "FactoryID",
          "type": "string"
        }
      ],
      "stateMutability": "view",
      "type": "function"
    },
    {
      "inputs": [
        {
          "internalType": "string",
          "name": "",
          "type": "string"
        },
        {
          "internalType": "uint256",
          "name": "",
          "type": "uint256"
        }
      ],
      "name": "CustomerData",
      "outputs": [
        {
          "internalType": "uint256",
          "name": "BatchID",
          "type": "uint256"
        },
        {
          "internalType": "uint256",
          "name": "ProductID",
          "type": "uint256"
        }
      ],
      "stateMutability": "view",
      "type": "function"
    },
    {
      "inputs": [
        {
          "internalType": "uint256",
          "name": "",
          "type": "uint256"
        }
      ],
      "name": "ProductIDs",
      "outputs": [
        {
          "internalType": "uint256",
          "name": "",
          "type": "uint256"
        }
      ],
      "stateMutability": "view",
      "type": "function"
    },
    {
      "inputs": [
        {
          "internalType": "uint256",
          "name": "",
          "type": "uint256"
        }
      ],
      "name": "ProductMapping",
      "outputs": [
        {
          "internalType": "uint256",
          "name": "ProductID",
          "type": "uint256"
        },
        {
          "internalType": "uint256",
          "name": "BatchID",
          "type": "uint256"
        },
        {
          "internalType": "uint256",
          "name": "ProductTemplateID",
          "type": "uint256"
        },
        {
          "internalType": "string",
          "name": "DOM",
          "type": "string"
        },
        {
          "internalType": "string",
          "name": "OwnerID",
          "type": "string"
        },
        {
          "internalType": "string",
          "name": "RetailerID",
          "type": "string"
        },
        {
          "internalType": "bool",
          "name": "RetailerScanned",
          "type": "bool"
        },
        {
          "internalType": "uint256",
          "name": "DateWhenSold",
          "type": "uint256"
        }
      ],
      "stateMutability": "view",
      "type": "function"
    },
    {
      "inputs": [
        {
          "internalType": "uint256",
          "name": "",
          "type": "uint256"
        }
      ],
      "name": "ProductTemplateIDs",
      "outputs": [
        {
          "internalType": "uint256",
          "name": "",
          "type": "uint256"
        }
      ],
      "stateMutability": "view",
      "type": "function"
    },
    {
      "inputs": [
        {
          "internalType": "uint256",
          "name": "",
          "type": "uint256"
        }
      ],
      "name": "ProductTemplateMAP",
      "outputs": [
        {
          "internalType": "uint256",
          "name": "ProductTemplateID",
          "type": "uint256"
        },
        {
          "internalType": "string",
          "name": "Name",
          "type": "string"
        },
        {
          "internalType": "string",
          "name": "Description",
          "type": "string"
        },
        {
          "internalType": "string",
          "name": "FactoryID",
          "type": "string"
        }
      ],
      "stateMutability": "view",
      "type": "function"
    },
    {
      "inputs": [
        {
          "internalType": "uint256",
          "name": "_batchTemplateID",
          "type": "uint256"
        },
        {
          "internalType": "uint256",
          "name": "_productTemplateID",
          "type": "uint256"
        },
        {
          "internalType": "string",
          "name": "_description",
          "type": "string"
        },
        {
          "internalType": "uint256",
          "name": "_batchSize",
          "type": "uint256"
        },
        {
          "internalType": "string",
          "name": "_factoryID",
          "type": "string"
        }
      ],
      "name": "addBatchTemplate",
      "outputs": [],
      "stateMutability": "nonpayable",
      "type": "function"
    },
    {
      "inputs": [
        {
          "internalType": "uint256",
          "name": "_productTemplateID",
          "type": "uint256"
        },
        {
          "internalType": "string",
          "name": "_name",
          "type": "string"
        },
        {
          "internalType": "string",
          "name": "_description",
          "type": "string"
        },
        {
          "internalType": "string",
          "name": "_factoryID",
          "type": "string"
        }
      ],
      "name": "addProductTemplate",
      "outputs": [],
      "stateMutability": "nonpayable",
      "type": "function"
    },
    {
      "inputs": [
        {
          "internalType": "uint256",
          "name": "batchID",
          "type": "uint256"
        },
        {
          "internalType": "uint256[]",
          "name": "productIDs",
          "type": "uint256[]"
        },
        {
          "internalType": "uint256",
          "name": "batchSize",
          "type": "uint256"
        },
        {
          "internalType": "string",
          "name": "batchDescription",
          "type": "string"
        },
        {
          "internalType": "uint256",
          "name": "productTemplateID",
          "type": "uint256"
        },
        {
          "internalType": "string",
          "name": "factory",
          "type": "string"
        },
        {
          "internalType": "string",
          "name": "distributor",
          "type": "string"
        },
        {
          "internalType": "string",
          "name": "factoryLocation",
          "type": "string"
        },
        {
          "internalType": "string",
          "name": "dateOfProduction",
          "type": "string"
        }
      ],
      "name": "batchProduced",
      "outputs": [],
      "stateMutability": "nonpayable",
      "type": "function"
    },
    {
      "inputs": [
        {
          "internalType": "uint256",
          "name": "batchID",
          "type": "uint256"
        },
        {
          "internalType": "string",
          "name": "_distributorID",
          "type": "string"
        }
      ],
      "name": "distributorScansBatch",
      "outputs": [],
      "stateMutability": "nonpayable",
      "type": "function"
    },
    {
      "inputs": [
        {
          "internalType": "uint256",
          "name": "batchID",
          "type": "uint256"
        },
        {
          "internalType": "uint256[]",
          "name": "productIDs",
          "type": "uint256[]"
        },
        {
          "internalType": "string[]",
          "name": "retailerIDs",
          "type": "string[]"
        }
      ],
      "name": "distributorSellToRetailer",
      "outputs": [],
      "stateMutability": "nonpayable",
      "type": "function"
    },
    {
      "inputs": [
        {
          "internalType": "uint256",
          "name": "batchID",
          "type": "uint256"
        },
        {
          "internalType": "string",
          "name": "_factoryID",
          "type": "string"
        }
      ],
      "name": "factoryScansBatch",
      "outputs": [],
      "stateMutability": "nonpayable",
      "type": "function"
    },
    {
      "inputs": [],
      "name": "getAllBatchIDs",
      "outputs": [
        {
          "internalType": "uint256[]",
          "name": "",
          "type": "uint256[]"
        }
      ],
      "stateMutability": "view",
      "type": "function"
    },
    {
      "inputs": [],
      "name": "getAllBatchTemplateIDs",
      "outputs": [
        {
          "internalType": "uint256[]",
          "name": "",
          "type": "uint256[]"
        }
      ],
      "stateMutability": "view",
      "type": "function"
    },
    {
      "inputs": [],
      "name": "getAllProductIDs",
      "outputs": [
        {
          "internalType": "uint256[]",
          "name": "",
          "type": "uint256[]"
        }
      ],
      "stateMutability": "view",
      "type": "function"
    },
    {
      "inputs": [],
      "name": "getAllProductTemplateIDs",
      "outputs": [
        {
          "internalType": "uint256[]",
          "name": "",
          "type": "uint256[]"
        }
      ],
      "stateMutability": "view",
      "type": "function"
    },
    {
      "inputs": [
        {
          "internalType": "string",
          "name": "customerID",
          "type": "string"
        }
      ],
      "name": "getAllProductsBought",
      "outputs": [
        {
          "components": [
            {
              "internalType": "uint256",
              "name": "BatchID",
              "type": "uint256"
            },
            {
              "internalType": "uint256",
              "name": "ProductID",
              "type": "uint256"
            }
          ],
          "internalType": "struct Supplychain.Customer[]",
          "name": "",
          "type": "tuple[]"
        }
      ],
      "stateMutability": "view",
      "type": "function"
    },
    {
      "inputs": [
        {
          "internalType": "uint256",
          "name": "batchID",
          "type": "uint256"
        }
      ],
      "name": "getProductIdsForaBatch",
      "outputs": [
        {
          "internalType": "uint256[]",
          "name": "",
          "type": "uint256[]"
        }
      ],
      "stateMutability": "view",
      "type": "function"
    },
    {
      "inputs": [
        {
          "internalType": "uint256",
          "name": "_productID",
          "type": "uint256"
        },
        {
          "internalType": "string",
          "name": "_retailerID",
          "type": "string"
        }
      ],
      "name": "retailerScansBatch",
      "outputs": [],
      "stateMutability": "nonpayable",
      "type": "function"
    },
    {
      "inputs": [
        {
          "internalType": "uint256",
          "name": "batchID",
          "type": "uint256"
        },
        {
          "internalType": "uint256",
          "name": "productID",
          "type": "uint256"
        },
        {
          "internalType": "string",
          "name": "customerID",
          "type": "string"
        }
      ],
      "name": "retailerSellToCustomer",
      "outputs": [],
      "stateMutability": "nonpayable",
      "type": "function"
    }
  ],
  "bytecode": "0x608060405234801561001057600080fd5b50612880806100206000396000f3fe608060405234801561001057600080fd5b50600436106101585760003560e01c80637fdd55f5116100c3578063bf801df11161007c578063bf801df1146102ec578063c492384f14610318578063d16ad4e01461032b578063d5932cc41461033e578063d976f93014610351578063eac0e9771461036457600080fd5b80637fdd55f5146102855780638bd42880146102985780638c4c42cd146102ab5780638e5452b8146102b357806390973cce146102c6578063a78317f8146102d957600080fd5b80633b7d255c116101155780633b7d255c146102135780634c27729c1461021b5780634ca20f341461022357806371d1dc0c14610236578063793560dd146102595780637ae4ee041461026157600080fd5b806314cecf911461015d57806321f2939114610172578063278338e81461019f578063284328d0146101b2578063392a70a6146101d25780633ab95f30146101f2575b600080fd5b61017061016b366004611f2d565b61038b565b005b61018561018036600461200e565b610552565b604080519283526020830191909152015b60405180910390f35b6101706101ad366004612053565b61059d565b6101c56101c03660046120e5565b6106bd565b6040516101969190612122565b6101e56101e0366004612171565b61074e565b604051610196919061218a565b610205610200366004612171565b6107b0565b604051908152602001610196565b6101e56107d1565b6101e5610829565b610205610231366004612171565b61087f565b610249610244366004612171565b61088f565b604051610196949392919061221e565b6101e5610a50565b61027461026f366004612171565b610aa6565b604051610196959493929190612268565b6101706102933660046122ab565b610be6565b6102056102a6366004612171565b610d37565b6101e5610d47565b6101706102c13660046122f2565b610d9d565b6102056102d4366004612373565b610f45565b6102056102e7366004612171565b610f76565b6102ff6102fa366004612171565b610f86565b6040516101969d9c9b9a99989796959493929190612395565b610170610326366004612448565b61129e565b61017061033936600461255c565b61170b565b61017061034c3660046122ab565b6117be565b61017061035f3660046122ab565b61190d565b610377610372366004612171565b611a6b565b6040516101969897969594939291906125ac565b6000838152600360205260409020600101548251111561040e5760405162461bcd60e51b815260206004820152603360248201527f4c656e677468206f662070726f647563744944732073686f756c64206265206c604482015272657373207468656e2062617463682073697a6560681b60648201526084015b60405180910390fd5b805182511461047b5760405162461bcd60e51b815260206004820152603360248201527f4c656e677468206f662070726f6475637449447320616e642072657461696c65604482015272724944732073686f756c642062652073616d6560681b6064820152608401610405565b60005b82518110156104ef5781818151811061049957610499612612565b6020026020010151600260008584815181106104b7576104b7612612565b6020026020010151815260200190815260200160002060050190816104dc91906126b0565b50806104e781612786565b91505061047e565b5081516000848152600360205260408120600b01805490919061051390849061279f565b909155505060008381526003602052604090206001810154600b909101540361054d57600083815260036020526040902060016009909101555b505050565b8151602081840181018051600582529282019185019190912091905280548290811061057d57600080fd5b600091825260209091206002909102018054600190910154909250905082565b6105a684611c4a565b1561060f5760405162461bcd60e51b815260206004820152603360248201527f546869732050726f6475637454656d706c617465494420616c72656164792065604482015272786973747320696e207468652073797374656d60681b6064820152608401610405565b60408051608081018252858152602080820186815282840186905260608301859052600088815291829052929020815181559151909190600182019061065590826126b0565b506040820151600282019061066a90826126b0565b506060820151600382019061067f90826126b0565b5050600680546001810182556000919091527ff652222313e28459528d920b65115c16c04f3efc82aaedc97be59f3f377c0d3f019490945550505050565b60606005826040516106cf91906127b8565b9081526020016040518091039020805480602002602001604051908101604052809291908181526020016000905b82821015610743578382906000526020600020906002020160405180604001604052908160008201548152602001600182015481525050815260200190600101906106fd565b505050509050919050565b6000818152600460209081526040918290208054835181840281018401909452808452606093928301828280156107a457602002820191906000526020600020905b815481526020019060010190808311610790575b50505050509050919050565b600681815481106107c057600080fd5b600091825260209091200154905081565b6060600680548060200260200160405190810160405280929190818152602001828054801561081f57602002820191906000526020600020905b81548152602001906001019080831161080b575b5050505050905090565b6060600780548060200260200160405190810160405280929190818152602001828054801561081f576020028201919060005260206000209081548152602001906001019080831161080b575050505050905090565b600781815481106107c057600080fd5b600060208190529081526040902080546001820180549192916108b190612628565b80601f01602080910402602001604051908101604052809291908181526020018280546108dd90612628565b801561092a5780601f106108ff5761010080835404028352916020019161092a565b820191906000526020600020905b81548152906001019060200180831161090d57829003601f168201915b50505050509080600201805461093f90612628565b80601f016020809104026020016040519081016040528092919081815260200182805461096b90612628565b80156109b85780601f1061098d576101008083540402835291602001916109b8565b820191906000526020600020905b81548152906001019060200180831161099b57829003601f168201915b5050505050908060030180546109cd90612628565b80601f01602080910402602001604051908101604052809291908181526020018280546109f990612628565b8015610a465780601f10610a1b57610100808354040283529160200191610a46565b820191906000526020600020905b815481529060010190602001808311610a2957829003601f168201915b5050505050905084565b6060600980548060200260200160405190810160405280929190818152602001828054801561081f576020028201919060005260206000209081548152602001906001019080831161080b575050505050905090565b6001602081905260009182526040909120805491810154600282018054919291610acf90612628565b80601f0160208091040260200160405190810160405280929190818152602001828054610afb90612628565b8015610b485780601f10610b1d57610100808354040283529160200191610b48565b820191906000526020600020905b815481529060010190602001808311610b2b57829003601f168201915b505050505090806003015490806004018054610b6390612628565b80601f0160208091040260200160405190810160405280929190818152602001828054610b8f90612628565b8015610bdc5780601f10610bb157610100808354040283529160200191610bdc565b820191906000526020600020905b815481529060010190602001808311610bbf57829003601f168201915b5050505050905085565b60008281526002602052604090206006015460ff1615610c5e5760405162461bcd60e51b815260206004820152602d60248201527f5468697320626174636820697320616c7265616479207363616e6e656420627960448201526c103a3432903932ba30b4b632b960991b6064820152608401610405565b80604051602001610c6f91906127b8565b60408051601f198184030181528282528051602091820120600086815260028352929092209192610ca49260050191016127d4565b6040516020818303038152906040528051906020012014610d185760405162461bcd60e51b815260206004820152602860248201527f54686973206261746368206973206e6f74206f776e65642062792074686973206044820152673932ba30b4b632b960c11b6064820152608401610405565b506000908152600260205260409020600601805460ff19166001179055565b600981815481106107c057600080fd5b6060600880548060200260200160405190810160405280929190818152602001828054801561081f576020028201919060005260206000209081548152602001906001019080831161080b575050505050905090565b610da685611ca0565b15610e0d5760405162461bcd60e51b815260206004820152603160248201527f5468697320426174636854656d706c617465494420616c72656164792065786960448201527073747320696e207468652073797374656d60781b6064820152608401610405565b610e1684611c4a565b1515600114610e845760405162461bcd60e51b815260206004820152603460248201527f546869732050726f6475637454656d706c617465494420646f6573206e6f742060448201527365786973747320696e207468652073797374656d60601b6064820152608401610405565b6040518060a00160405280868152602001858152602001848152602001838152602001828152506001600087815260200190815260200160002060008201518160000155602082015181600101556040820151816002019081610ee791906126b0565b506060820151600382015560808201516004820190610f0690826126b0565b5050600780546001810182556000919091527fa66cc928b5edb82af9bd49922954155ab7b0942694bea4ce44661d9a8736c68801959095555050505050565b60046020528160005260406000208181548110610f6157600080fd5b90600052602060002001600091509150505481565b600881815481106107c057600080fd5b6003602052806000526040600020600091509050806000015490806001015490806002015490806003018054610fbb90612628565b80601f0160208091040260200160405190810160405280929190818152602001828054610fe790612628565b80156110345780601f1061100957610100808354040283529160200191611034565b820191906000526020600020905b81548152906001019060200180831161101757829003601f168201915b50505050509080600401549080600501805461104f90612628565b80601f016020809104026020016040519081016040528092919081815260200182805461107b90612628565b80156110c85780601f1061109d576101008083540402835291602001916110c8565b820191906000526020600020905b8154815290600101906020018083116110ab57829003601f168201915b5050505050908060060180546110dd90612628565b80601f016020809104026020016040519081016040528092919081815260200182805461110990612628565b80156111565780601f1061112b57610100808354040283529160200191611156565b820191906000526020600020905b81548152906001019060200180831161113957829003601f168201915b50505050509080600701805461116b90612628565b80601f016020809104026020016040519081016040528092919081815260200182805461119790612628565b80156111e45780601f106111b9576101008083540402835291602001916111e4565b820191906000526020600020905b8154815290600101906020018083116111c757829003601f168201915b5050505050908060080180546111f990612628565b80601f016020809104026020016040519081016040528092919081815260200182805461122590612628565b80156112725780601f1061124757610100808354040283529160200191611272565b820191906000526020600020905b81548152906001019060200180831161125557829003601f168201915b5050506009840154600a850154600b909501549394909360ff808316945061010090920490911691508d565b6112a789611ced565b156113005760405162461bcd60e51b8152602060048201526024808201527f4261746368494420616c72656164792065786973747320696e207468652073796044820152637374656d60e01b6064820152608401610405565b868851146113765760405162461bcd60e51b815260206004820152603760248201527f53697a65206f662070726f6475637449447320617272617920646f6573206e6f60448201527f74206d6174636820776974682042617463682073697a650000000000000000006064820152608401610405565b604080516101a0810182528a815260208082018a81526000838501818152606085018c8152608086018c905260a086018b905260c086018a905260e08601899052610100860188905261012086018390526101408601839052610160860183905261018086018390528f835260039485905295909120845181559151600183015551600282015592519192919082019061141090826126b0565b506080820151600482015560a0820151600582019061142f90826126b0565b5060c0820151600682019061144490826126b0565b5060e0820151600782019061145990826126b0565b50610100820151600882019061146f90826126b0565b50610120820151600980830191909155610140830151600a8301805461016086015115156101000261ff00199315159390931661ffff199091161791909117905561018090920151600b909101558054600181019091557f6e1540171b6c0c960b71a7020d9f60077f6af931a8bbf590da0223dacf75c7af018990556000898152600460209081526040909120895161150a928b0190611d87565b5060005b878110156116ff5761153889828151811061152b5761152b612612565b6020026020010151611d3a565b156115945760405162461bcd60e51b815260206004820152602660248201527f50726f64756374494420616c72656164792065786973747320696e207468652060448201526573797374656d60d01b6064820152608401610405565b6040518061010001604052808a83815181106115b2576115b2612612565b602002602001015181526020018b81526020018781526020018381526020016040518060200160405280600081525081526020016040518060200160405280600081525081526020016000151581526020016000815250600260008b848151811061161f5761161f612612565b60200260200101518152602001908152602001600020600082015181600001556020820151816001015560408201518160020155606082015181600301908161166891906126b0565b506080820151600482019061167d90826126b0565b5060a0820151600582019061169290826126b0565b5060c082015160068201805460ff191691151591909117905560e09091015160079091015588516008908a90839081106116ce576116ce612612565b60209081029190910181015182546001810184556000938452919092200155806116f781612786565b91505061150e565b50505050505050505050565b600083815260036020526040812060020180546001929061172d90849061279f565b9091555050600082815260026020526040902060040161174d82826126b0565b506000828152600260205260409081902042600790910155516005906117749083906127b8565b908152604080519182900360209081018320838301909252948252818501938452805460018181018355600092835295909120915160029091029091019081559151919092015550565b6000828152600360205260409020600a015460ff16156118355760405162461bcd60e51b815260206004820152602c60248201527f5468697320626174636820697320616c7265616479207363616e6e656420627960448201526b2074686520666163746f727960a01b6064820152608401610405565b8060405160200161184691906127b8565b60408051601f19818403018152828252805160209182012060008681526003835292909220919261187b9260050191016127d4565b60405160208183030381529060405280519060200120146118ee5760405162461bcd60e51b815260206004820152602760248201527f54686973206261746368206973206e6f74206f776e6564206279207468697320604482015266666163746f727960c81b6064820152608401610405565b506000908152600360205260409020600a01805460ff19166001179055565b6000828152600360205260409020600a0154610100900460ff161561198d5760405162461bcd60e51b815260206004820152603060248201527f5468697320626174636820697320616c7265616479207363616e6e656420627960448201526f103a3432903234b9ba3934b13aba37b960811b6064820152608401610405565b8060405160200161199e91906127b8565b60408051601f1981840301815282825280516020918201206000868152600383529290922091926119d39260060191016127d4565b6040516020818303038152906040528051906020012014611a4a5760405162461bcd60e51b815260206004820152602b60248201527f54686973206261746368206973206e6f74206f776e656420627920746869732060448201526a3234b9ba3934b13aba37b960a91b6064820152608401610405565b506000908152600360205260409020600a01805461ff001916610100179055565b600260208190526000918252604090912080546001820154928201546003830180549294939192611a9b90612628565b80601f0160208091040260200160405190810160405280929190818152602001828054611ac790612628565b8015611b145780601f10611ae957610100808354040283529160200191611b14565b820191906000526020600020905b815481529060010190602001808311611af757829003601f168201915b505050505090806004018054611b2990612628565b80601f0160208091040260200160405190810160405280929190818152602001828054611b5590612628565b8015611ba25780601f10611b7757610100808354040283529160200191611ba2565b820191906000526020600020905b815481529060010190602001808311611b8557829003601f168201915b505050505090806005018054611bb790612628565b80601f0160208091040260200160405190810160405280929190818152602001828054611be390612628565b8015611c305780601f10611c0557610100808354040283529160200191611c30565b820191906000526020600020905b815481529060010190602001808311611c1357829003601f168201915b505050506006830154600790930154919260ff1691905088565b6000805b600654811015611c97578260068281548110611c6c57611c6c612612565b906000526020600020015403611c855750600192915050565b80611c8f81612786565b915050611c4e565b50600092915050565b6000805b600754811015611c97578260078281548110611cc257611cc2612612565b906000526020600020015403611cdb5750600192915050565b80611ce581612786565b915050611ca4565b6000805b600954811015611c97578260098281548110611d0f57611d0f612612565b906000526020600020015403611d285750600192915050565b80611d3281612786565b915050611cf1565b6000805b600854811015611c97578260088281548110611d5c57611d5c612612565b906000526020600020015403611d755750600192915050565b80611d7f81612786565b915050611d3e565b828054828255906000526020600020908101928215611dc2579160200282015b82811115611dc2578251825591602001919060010190611da7565b50611dce929150611dd2565b5090565b5b80821115611dce5760008155600101611dd3565b634e487b7160e01b600052604160045260246000fd5b604051601f8201601f1916810167ffffffffffffffff81118282101715611e2657611e26611de7565b604052919050565b600067ffffffffffffffff821115611e4857611e48611de7565b5060051b60200190565b600082601f830112611e6357600080fd5b81356020611e78611e7383611e2e565b611dfd565b82815260059290921b84018101918181019086841115611e9757600080fd5b8286015b84811015611eb25780358352918301918301611e9b565b509695505050505050565b600082601f830112611ece57600080fd5b813567ffffffffffffffff811115611ee857611ee8611de7565b611efb601f8201601f1916602001611dfd565b818152846020838601011115611f1057600080fd5b816020850160208301376000918101602001919091529392505050565b600080600060608486031215611f4257600080fd5b8335925060208085013567ffffffffffffffff80821115611f6257600080fd5b611f6e88838901611e52565b94506040870135915080821115611f8457600080fd5b818701915087601f830112611f9857600080fd5b8135611fa6611e7382611e2e565b81815260059190911b8301840190848101908a831115611fc557600080fd5b8585015b83811015611ffd57803585811115611fe15760008081fd5b611fef8d89838a0101611ebd565b845250918601918601611fc9565b508096505050505050509250925092565b6000806040838503121561202157600080fd5b823567ffffffffffffffff81111561203857600080fd5b61204485828601611ebd565b95602094909401359450505050565b6000806000806080858703121561206957600080fd5b84359350602085013567ffffffffffffffff8082111561208857600080fd5b61209488838901611ebd565b945060408701359150808211156120aa57600080fd5b6120b688838901611ebd565b935060608701359150808211156120cc57600080fd5b506120d987828801611ebd565b91505092959194509250565b6000602082840312156120f757600080fd5b813567ffffffffffffffff81111561210e57600080fd5b61211a84828501611ebd565b949350505050565b602080825282518282018190526000919060409081850190868401855b828110156121645781518051855286015186850152928401929085019060010161213f565b5091979650505050505050565b60006020828403121561218357600080fd5b5035919050565b6020808252825182820181905260009190848201906040850190845b818110156121c2578351835292840192918401916001016121a6565b50909695505050505050565b60005b838110156121e95781810151838201526020016121d1565b50506000910152565b6000815180845261220a8160208601602086016121ce565b601f01601f19169290920160200192915050565b84815260806020820152600061223760808301866121f2565b828103604084015261224981866121f2565b9050828103606084015261225d81856121f2565b979650505050505050565b85815284602082015260a06040820152600061228760a08301866121f2565b846060840152828103608084015261229f81856121f2565b98975050505050505050565b600080604083850312156122be57600080fd5b82359150602083013567ffffffffffffffff8111156122dc57600080fd5b6122e885828601611ebd565b9150509250929050565b600080600080600060a0868803121561230a57600080fd5b8535945060208601359350604086013567ffffffffffffffff8082111561233057600080fd5b61233c89838a01611ebd565b945060608801359350608088013591508082111561235957600080fd5b5061236688828901611ebd565b9150509295509295909350565b6000806040838503121561238657600080fd5b50508035926020909101359150565b60006101a08f83528e60208401528d60408401528060608401526123bb8184018e6121f2565b90508b608084015282810360a08401526123d5818c6121f2565b905082810360c08401526123e9818b6121f2565b905082810360e08401526123fd818a6121f2565b905082810361010084015261241281896121f2565b9150508561012083015261242b61014083018615159052565b92151561016082015261018001529b9a5050505050505050505050565b60008060008060008060008060006101208a8c03121561246757600080fd5b8935985060208a013567ffffffffffffffff8082111561248657600080fd5b6124928d838e01611e52565b995060408c0135985060608c01359150808211156124af57600080fd5b6124bb8d838e01611ebd565b975060808c0135965060a08c01359150808211156124d857600080fd5b6124e48d838e01611ebd565b955060c08c01359150808211156124fa57600080fd5b6125068d838e01611ebd565b945060e08c013591508082111561251c57600080fd5b6125288d838e01611ebd565b93506101008c013591508082111561253f57600080fd5b5061254c8c828d01611ebd565b9150509295985092959850929598565b60008060006060848603121561257157600080fd5b8335925060208401359150604084013567ffffffffffffffff81111561259657600080fd5b6125a286828701611ebd565b9150509250925092565b60006101008a83528960208401528860408401528060608401526125d2818401896121f2565b905082810360808401526125e681886121f2565b905082810360a08401526125fa81876121f2565b94151560c0840152505060e001529695505050505050565b634e487b7160e01b600052603260045260246000fd5b600181811c9082168061263c57607f821691505b60208210810361265c57634e487b7160e01b600052602260045260246000fd5b50919050565b601f82111561054d57600081815260208120601f850160051c810160208610156126895750805b601f850160051c820191505b818110156126a857828155600101612695565b505050505050565b815167ffffffffffffffff8111156126ca576126ca611de7565b6126de816126d88454612628565b84612662565b602080601f83116001811461271357600084156126fb5750858301515b600019600386901b1c1916600185901b1785556126a8565b600085815260208120601f198616915b8281101561274257888601518255948401946001909101908401612723565b50858210156127605787850151600019600388901b60f8161c191681555b5050505050600190811b01905550565b634e487b7160e01b600052601160045260246000fd5b60006001820161279857612798612770565b5060010190565b808201808211156127b2576127b2612770565b92915050565b600082516127ca8184602087016121ce565b9190910192915050565b60008083546127e281612628565b600182811680156127fa576001811461280f5761283e565b60ff198416875282151583028701945061283e565b8760005260208060002060005b858110156128355781548a82015290840190820161281c565b50505082870194505b5092969550505050505056fea26469706673582212200714792c6fe222bf80cf25179bfcb3a3d452e4053253d178f91fcdcef182a23264736f6c63430008110033",
  "linkReferences": {},
  "deployedLinkReferences": {}
}