{
  "_format": "hh-sol-artifact-1",
  "contractName": "Supplychain",
  "sourceName": "contracts/Supplychain.sol",
  "abi": [
    {
      "inputs": [
        {
          "internalType": "uint256",
          "name": "",
          "type": "uint256"
        },
        {
          "internalType": "uint256",
          "name": "",
          "type": "uint256"
        }
      ],
      "name": "BatchIDToProductIDMapping",
      "outputs": [
        {
          "internalType": "uint256",
          "name": "",
          "type": "uint256"
        }
      ],
      "stateMutability": "view",
      "type": "function"
    },
    {
      "inputs": [
        {
          "internalType": "uint256",
          "name": "",
          "type": "uint256"
        }
      ],
      "name": "BatchIDs",
      "outputs": [
        {
          "internalType": "uint256",
          "name": "",
          "type": "uint256"
        }
      ],
      "stateMutability": "view",
      "type": "function"
    },
    {
      "inputs": [
        {
          "internalType": "uint256",
          "name": "",
          "type": "uint256"
        }
      ],
      "name": "BatchMapping",
      "outputs": [
        {
          "internalType": "uint256",
          "name": "BatchID",
          "type": "uint256"
        },
        {
          "internalType": "uint256",
          "name": "BatchSize",
          "type": "uint256"
        },
        {
          "internalType": "uint256",
          "name": "AmountSoldTOCustomer",
          "type": "uint256"
        },
        {
          "internalType": "string",
          "name": "BatchDescription",
          "type": "string"
        },
        {
          "internalType": "uint256",
          "name": "ProductTemplateID",
          "type": "uint256"
        },
        {
          "internalType": "string",
          "name": "FactoryID",
          "type": "string"
        },
        {
          "internalType": "string",
          "name": "DistributorID",
          "type": "string"
        },
        {
          "internalType": "string",
          "name": "FactoryLocation",
          "type": "string"
        },
        {
          "internalType": "string",
          "name": "DateOfProduction",
          "type": "string"
        },
        {
          "internalType": "uint256",
          "name": "State",
          "type": "uint256"
        },
        {
          "internalType": "bool",
          "name": "DistributorScanned",
          "type": "bool"
        },
        {
          "internalType": "string",
          "name": "DistributorScannedTimeStamp",
          "type": "string"
        },
        {
          "internalType": "uint256",
          "name": "AmountLeftForSellingTORetailer",
          "type": "uint256"
        }
      ],
      "stateMutability": "view",
      "type": "function"
    },
    {
      "inputs": [
        {
          "internalType": "uint256",
          "name": "",
          "type": "uint256"
        }
      ],
      "name": "BatchTemplateIDs",
      "outputs": [
        {
          "internalType": "uint256",
          "name": "",
          "type": "uint256"
        }
      ],
      "stateMutability": "view",
      "type": "function"
    },
    {
      "inputs": [
        {
          "internalType": "uint256",
          "name": "",
          "type": "uint256"
        }
      ],
      "name": "BatchTemplateMAP",
      "outputs": [
        {
          "internalType": "uint256",
          "name": "BatchTemplateID",
          "type": "uint256"
        },
        {
          "internalType": "uint256",
          "name": "ProductTemplateID",
          "type": "uint256"
        },
        {
          "internalType": "string",
          "name": "Description",
          "type": "string"
        },
        {
          "internalType": "uint256",
          "name": "BatchSize",
          "type": "uint256"
        },
        {
          "internalType": "string",
          "name": "FactoryID",
          "type": "string"
        }
      ],
      "stateMutability": "view",
      "type": "function"
    },
    {
      "inputs": [
        {
          "internalType": "string",
          "name": "",
          "type": "string"
        },
        {
          "internalType": "uint256",
          "name": "",
          "type": "uint256"
        }
      ],
      "name": "CustomerData",
      "outputs": [
        {
          "internalType": "uint256",
          "name": "BatchID",
          "type": "uint256"
        },
        {
          "internalType": "uint256",
          "name": "ProductID",
          "type": "uint256"
        }
      ],
      "stateMutability": "view",
      "type": "function"
    },
    {
      "inputs": [
        {
          "internalType": "string",
          "name": "",
          "type": "string"
        },
        {
          "internalType": "uint256",
          "name": "",
          "type": "uint256"
        }
      ],
      "name": "DistributorIDToRetailerStruct",
      "outputs": [
        {
          "internalType": "string",
          "name": "DistributorID",
          "type": "string"
        },
        {
          "internalType": "string",
          "name": "RetailerID",
          "type": "string"
        },
        {
          "internalType": "uint256",
          "name": "BatchID",
          "type": "uint256"
        },
        {
          "internalType": "uint256",
          "name": "Quantity",
          "type": "uint256"
        },
        {
          "internalType": "string",
          "name": "TimeStamp",
          "type": "string"
        }
      ],
      "stateMutability": "view",
      "type": "function"
    },
    {
      "inputs": [
        {
          "internalType": "uint256",
          "name": "",
          "type": "uint256"
        }
      ],
      "name": "ProductIDs",
      "outputs": [
        {
          "internalType": "uint256",
          "name": "",
          "type": "uint256"
        }
      ],
      "stateMutability": "view",
      "type": "function"
    },
    {
      "inputs": [
        {
          "internalType": "uint256",
          "name": "",
          "type": "uint256"
        }
      ],
      "name": "ProductMapping",
      "outputs": [
        {
          "internalType": "uint256",
          "name": "ProductID",
          "type": "uint256"
        },
        {
          "internalType": "uint256",
          "name": "CompanyProductID",
          "type": "uint256"
        },
        {
          "internalType": "uint256",
          "name": "BatchID",
          "type": "uint256"
        },
        {
          "internalType": "uint256",
          "name": "ProductTemplateID",
          "type": "uint256"
        },
        {
          "internalType": "string",
          "name": "DOM",
          "type": "string"
        },
        {
          "internalType": "string",
          "name": "CustomerID",
          "type": "string"
        },
        {
          "internalType": "string",
          "name": "RetailerID",
          "type": "string"
        },
        {
          "internalType": "bool",
          "name": "RetailerScanned",
          "type": "bool"
        },
        {
          "internalType": "string",
          "name": "RetailerScannedTimeStamp",
          "type": "string"
        },
        {
          "internalType": "string",
          "name": "DateWhenSoldToRetailer",
          "type": "string"
        },
        {
          "internalType": "string",
          "name": "DateWhenSoldToCustomer",
          "type": "string"
        }
      ],
      "stateMutability": "view",
      "type": "function"
    },
    {
      "inputs": [
        {
          "internalType": "uint256",
          "name": "",
          "type": "uint256"
        }
      ],
      "name": "ProductTemplateIDs",
      "outputs": [
        {
          "internalType": "uint256",
          "name": "",
          "type": "uint256"
        }
      ],
      "stateMutability": "view",
      "type": "function"
    },
    {
      "inputs": [
        {
          "internalType": "uint256",
          "name": "",
          "type": "uint256"
        }
      ],
      "name": "ProductTemplateMAP",
      "outputs": [
        {
          "internalType": "uint256",
          "name": "ProductTemplateID",
          "type": "uint256"
        },
        {
          "internalType": "string",
          "name": "Name",
          "type": "string"
        },
        {
          "internalType": "string",
          "name": "Description",
          "type": "string"
        },
        {
          "internalType": "string",
          "name": "FactoryID",
          "type": "string"
        }
      ],
      "stateMutability": "view",
      "type": "function"
    },
    {
      "inputs": [
        {
          "internalType": "string",
          "name": "",
          "type": "string"
        },
        {
          "internalType": "uint256",
          "name": "",
          "type": "uint256"
        }
      ],
      "name": "RetailerIDToRetailerStruct",
      "outputs": [
        {
          "internalType": "string",
          "name": "DistributorID",
          "type": "string"
        },
        {
          "internalType": "string",
          "name": "RetailerID",
          "type": "string"
        },
        {
          "internalType": "uint256",
          "name": "BatchID",
          "type": "uint256"
        },
        {
          "internalType": "uint256",
          "name": "Quantity",
          "type": "uint256"
        },
        {
          "internalType": "string",
          "name": "TimeStamp",
          "type": "string"
        }
      ],
      "stateMutability": "view",
      "type": "function"
    },
    {
      "inputs": [
        {
          "internalType": "uint256",
          "name": "_batchTemplateID",
          "type": "uint256"
        },
        {
          "internalType": "uint256",
          "name": "_productTemplateID",
          "type": "uint256"
        },
        {
          "internalType": "string",
          "name": "_description",
          "type": "string"
        },
        {
          "internalType": "uint256",
          "name": "_batchSize",
          "type": "uint256"
        },
        {
          "internalType": "string",
          "name": "_factoryID",
          "type": "string"
        }
      ],
      "name": "addBatchTemplate",
      "outputs": [],
      "stateMutability": "nonpayable",
      "type": "function"
    },
    {
      "inputs": [
        {
          "internalType": "uint256",
          "name": "_productTemplateID",
          "type": "uint256"
        },
        {
          "internalType": "string",
          "name": "_name",
          "type": "string"
        },
        {
          "internalType": "string",
          "name": "_description",
          "type": "string"
        },
        {
          "internalType": "string",
          "name": "_factoryID",
          "type": "string"
        }
      ],
      "name": "addProductTemplate",
      "outputs": [],
      "stateMutability": "nonpayable",
      "type": "function"
    },
    {
      "inputs": [
        {
          "internalType": "uint256",
          "name": "batchID",
          "type": "uint256"
        },
        {
          "internalType": "uint256[]",
          "name": "productIDs",
          "type": "uint256[]"
        },
        {
          "internalType": "uint256[]",
          "name": "companyProductIDs",
          "type": "uint256[]"
        },
        {
          "internalType": "uint256",
          "name": "batchSize",
          "type": "uint256"
        },
        {
          "internalType": "string",
          "name": "batchDescription",
          "type": "string"
        },
        {
          "internalType": "uint256",
          "name": "productTemplateID",
          "type": "uint256"
        },
        {
          "internalType": "string",
          "name": "factory",
          "type": "string"
        },
        {
          "internalType": "string",
          "name": "distributor",
          "type": "string"
        },
        {
          "internalType": "string",
          "name": "factoryLocation",
          "type": "string"
        },
        {
          "internalType": "string",
          "name": "dateOfProduction",
          "type": "string"
        }
      ],
      "name": "batchProduced",
      "outputs": [],
      "stateMutability": "nonpayable",
      "type": "function"
    },
    {
      "inputs": [
        {
          "internalType": "uint256",
          "name": "batchID",
          "type": "uint256"
        },
        {
          "internalType": "string",
          "name": "_distributorID",
          "type": "string"
        },
        {
          "internalType": "string",
          "name": "timeStamp",
          "type": "string"
        }
      ],
      "name": "distributorScansBatch",
      "outputs": [],
      "stateMutability": "nonpayable",
      "type": "function"
    },
    {
      "inputs": [
        {
          "internalType": "uint256",
          "name": "batchID",
          "type": "uint256"
        },
        {
          "internalType": "uint256",
          "name": "quantity",
          "type": "uint256"
        },
        {
          "internalType": "string",
          "name": "retailerID",
          "type": "string"
        },
        {
          "internalType": "string",
          "name": "timeStamp",
          "type": "string"
        }
      ],
      "name": "distributorSellToRetailer",
      "outputs": [],
      "stateMutability": "nonpayable",
      "type": "function"
    },
    {
      "inputs": [],
      "name": "getAllBatchIDs",
      "outputs": [
        {
          "internalType": "uint256[]",
          "name": "",
          "type": "uint256[]"
        }
      ],
      "stateMutability": "view",
      "type": "function"
    },
    {
      "inputs": [],
      "name": "getAllBatchTemplateIDs",
      "outputs": [
        {
          "internalType": "uint256[]",
          "name": "",
          "type": "uint256[]"
        }
      ],
      "stateMutability": "view",
      "type": "function"
    },
    {
      "inputs": [],
      "name": "getAllProductIDs",
      "outputs": [
        {
          "internalType": "uint256[]",
          "name": "",
          "type": "uint256[]"
        }
      ],
      "stateMutability": "view",
      "type": "function"
    },
    {
      "inputs": [],
      "name": "getAllProductTemplateIDs",
      "outputs": [
        {
          "internalType": "uint256[]",
          "name": "",
          "type": "uint256[]"
        }
      ],
      "stateMutability": "view",
      "type": "function"
    },
    {
      "inputs": [
        {
          "internalType": "string",
          "name": "customerID",
          "type": "string"
        }
      ],
      "name": "getAllProductsBought",
      "outputs": [
        {
          "components": [
            {
              "internalType": "uint256",
              "name": "BatchID",
              "type": "uint256"
            },
            {
              "internalType": "uint256",
              "name": "ProductID",
              "type": "uint256"
            }
          ],
          "internalType": "struct Supplychain.Customer[]",
          "name": "",
          "type": "tuple[]"
        }
      ],
      "stateMutability": "view",
      "type": "function"
    },
    {
      "inputs": [
        {
          "internalType": "string",
          "name": "distributorID",
          "type": "string"
        }
      ],
      "name": "getDistributorIDToRetailerStruct",
      "outputs": [
        {
          "components": [
            {
              "internalType": "string",
              "name": "DistributorID",
              "type": "string"
            },
            {
              "internalType": "string",
              "name": "RetailerID",
              "type": "string"
            },
            {
              "internalType": "uint256",
              "name": "BatchID",
              "type": "uint256"
            },
            {
              "internalType": "uint256",
              "name": "Quantity",
              "type": "uint256"
            },
            {
              "internalType": "string",
              "name": "TimeStamp",
              "type": "string"
            }
          ],
          "internalType": "struct Supplychain.Retailer[]",
          "name": "",
          "type": "tuple[]"
        }
      ],
      "stateMutability": "view",
      "type": "function"
    },
    {
      "inputs": [
        {
          "internalType": "uint256",
          "name": "batchID",
          "type": "uint256"
        }
      ],
      "name": "getProductIdsForaBatch",
      "outputs": [
        {
          "internalType": "uint256[]",
          "name": "",
          "type": "uint256[]"
        }
      ],
      "stateMutability": "view",
      "type": "function"
    },
    {
      "inputs": [
        {
          "internalType": "string",
          "name": "retailerID",
          "type": "string"
        }
      ],
      "name": "getRetailerIDToRetailerStruct",
      "outputs": [
        {
          "components": [
            {
              "internalType": "string",
              "name": "DistributorID",
              "type": "string"
            },
            {
              "internalType": "string",
              "name": "RetailerID",
              "type": "string"
            },
            {
              "internalType": "uint256",
              "name": "BatchID",
              "type": "uint256"
            },
            {
              "internalType": "uint256",
              "name": "Quantity",
              "type": "uint256"
            },
            {
              "internalType": "string",
              "name": "TimeStamp",
              "type": "string"
            }
          ],
          "internalType": "struct Supplychain.Retailer[]",
          "name": "",
          "type": "tuple[]"
        }
      ],
      "stateMutability": "view",
      "type": "function"
    },
    {
      "inputs": [
        {
          "internalType": "uint256",
          "name": "_productID",
          "type": "uint256"
        },
        {
          "internalType": "string",
          "name": "_retailerID",
          "type": "string"
        },
        {
          "internalType": "string",
          "name": "timeStamp",
          "type": "string"
        }
      ],
      "name": "retailerScansProduct",
      "outputs": [],
      "stateMutability": "nonpayable",
      "type": "function"
    },
    {
      "inputs": [
        {
          "internalType": "uint256",
          "name": "batchID",
          "type": "uint256"
        },
        {
          "internalType": "uint256",
          "name": "productID",
          "type": "uint256"
        },
        {
          "internalType": "string",
          "name": "customerID",
          "type": "string"
        },
        {
          "internalType": "string",
          "name": "timeStamp",
          "type": "string"
        }
      ],
      "name": "retailerSellToCustomer",
      "outputs": [],
      "stateMutability": "nonpayable",
      "type": "function"
    }
  ],
  "bytecode": "0x608060405234801561001057600080fd5b50613811806100206000396000f3fe608060405234801561001057600080fd5b50600436106101a95760003560e01c80638272d34b116100f9578063b84a6f2211610097578063e3c6a4ac11610071578063e3c6a4ac146103d3578063eac0e977146103e6578063ecc4217c14610410578063ee55fae21461042357600080fd5b8063b84a6f2214610370578063bf801df114610383578063e139f994146103af57600080fd5b80638e5452b8116100d35780638e5452b81461032457806390973cce14610337578063a78317f81461034a578063a7a4523d1461035d57600080fd5b80638272d34b146102f65780638bd42880146103095780638c4c42cd1461031c57600080fd5b80634c27729c1161016657806371d1dc0c1161014057806371d1dc0c14610287578063793560dd146102aa5780637ae4ee04146102b25780637f7bf690146102d657600080fd5b80634c27729c146102595780634ca20f34146102615780636c1d7a9e1461027457600080fd5b806321f29391146101ae578063278338e8146101db578063284328d0146101f0578063392a70a6146102105780633ab95f30146102305780633b7d255c14610251575b600080fd5b6101c16101bc366004612d8a565b610436565b604080519283526020830191909152015b60405180910390f35b6101ee6101e9366004612dcf565b610481565b005b6102036101fe366004612e61565b6105a4565b6040516101d29190612e9e565b61022361021e366004612eed565b610635565b6040516101d29190612f06565b61024361023e366004612eed565b610697565b6040519081526020016101d2565b6102236106b8565b610223610710565b61024361026f366004612eed565b610766565b6101ee610282366004612fca565b610776565b61029a610295366004612eed565b610c90565b6040516101d29493929190613154565b610223610e51565b6102c56102c0366004612eed565b610ea7565b6040516101d2959493929190613193565b6102e96102e4366004612e61565b610fe6565b6040516101d291906131d6565b6101ee61030436600461328d565b611222565b610243610317366004612eed565b61138a565b61022361139a565b6101ee6103323660046132fa565b6113f0565b61024361034536600461337b565b61158a565b610243610358366004612eed565b6115bb565b6102e961036b366004612e61565b6115cb565b6101ee61037e36600461339d565b611807565b610396610391366004612eed565b6118c3565b6040516101d29d9c9b9a999897969594939291906133d9565b6103c26103bd366004612d8a565b611c5c565b6040516101d295949392919061349d565b6103c26103e1366004612d8a565b611dd3565b6103f96103f4366004612eed565b611dfe565b6040516101d29b9a999897969594939291906134e2565b6101ee61041e36600461328d565b61218c565b6101ee61043136600461339d565b6122f1565b8151602081840181018051600982529282019185019190912091905280548290811061046157600080fd5b600091825260209091206002909102018054600190910154909250905082565b61048a84612b36565b156104f85760405162461bcd60e51b815260206004820152603360248201527f546869732050726f6475637454656d706c617465494420616c72656164792065604482015272786973747320696e207468652073797374656d60681b60648201526084015b60405180910390fd5b6040805160808101825285815260208082018681528284018690526060830185905260008881526004909252929020815181559151909190600182019061053f9082613618565b50604082015160028201906105549082613618565b50606082015160038201906105699082613618565b5050600080546001810182559080527f290decd9548b62a8d60345a988386fc84ba6bc95484008f6362f93160ef3e563019490945550505050565b60606009826040516105b691906136d8565b9081526020016040518091039020805480602002602001604051908101604052809291908181526020016000905b8282101561062a578382906000526020600020906002020160405180604001604052908160008201548152602001600182015481525050815260200190600101906105e4565b505050509050919050565b60008181526008602090815260409182902080548351818402810184019094528084526060939283018282801561068b57602002820191906000526020600020905b815481526020019060010190808311610677575b50505050509050919050565b600081815481106106a757600080fd5b600091825260209091200154905081565b6060600080548060200260200160405190810160405280929190818152602001828054801561070657602002820191906000526020600020905b8154815260200190600101908083116106f2575b5050505050905090565b6060600180548060200260200160405190810160405280929190818152602001828054801561070657602002820191906000526020600020908154815260200190600101908083116106f2575050505050905090565b600181815481106106a757600080fd5b61077f8a612b8c565b156107d85760405162461bcd60e51b8152602060048201526024808201527f4261746368494420616c72656164792065786973747320696e207468652073796044820152637374656d60e01b60648201526084016104ef565b8689511461084e5760405162461bcd60e51b815260206004820152603760248201527f53697a65206f662070726f6475637449447320617272617920646f6573206e6f60448201527f74206d6174636820776974682042617463682073697a6500000000000000000060648201526084016104ef565b604051806101a001604052808b8152602001888152602001600081526020018781526020018681526020018581526020018481526020018381526020018281526020016000815260200160001515815260200160405180602001604052806000815250815260200188815250600760008c815260200190815260200160002060008201518160000155602082015181600101556040820151816002015560608201518160030190816109009190613618565b506080820151600482015560a0820151600582019061091f9082613618565b5060c082015160068201906109349082613618565b5060e082015160078201906109499082613618565b50610100820151600882019061095f9082613618565b506101208201516009820155610140820151600a8201805460ff1916911515919091179055610160820151600b8201906109999082613618565b506101809190910151600c9091015560038054600181019091557fc2575a0e9e593c00f959f8c92f12db2869c3395a3b0502d05e2516446f71f85b018a905560008a81526008602090815260409091208a516109f7928c0190612c73565b5060005b87811015610c8357610a258a8281518110610a1857610a186136f4565b6020026020010151612bd9565b15610a815760405162461bcd60e51b815260206004820152602660248201527f50726f64756374494420616c72656164792065786973747320696e207468652060448201526573797374656d60d01b60648201526084016104ef565b6040518061016001604052808b8381518110610a9f57610a9f6136f4565b602002602001015181526020018a8381518110610abe57610abe6136f4565b602002602001015181526020018c815260200187815260200183815260200160405180602001604052806000815250815260200160405180602001604052806000815250815260200160001515815260200160405180602001604052806000815250815260200160405180602001604052806000815250815260200160405180602001604052806000815250815250600660008c8481518110610b6357610b636136f4565b60200260200101518152602001908152602001600020600082015181600001556020820151816001015560408201518160020155606082015181600301556080820151816004019081610bb69190613618565b5060a08201516005820190610bcb9082613618565b5060c08201516006820190610be09082613618565b5060e082015160078201805460ff19169115159190911790556101008201516008820190610c0e9082613618565b506101208201516009820190610c249082613618565b50610140820151600a820190610c3a9082613618565b5090505060028a8281518110610c5257610c526136f4565b6020908102919091018101518254600181018455600093845291909220015580610c7b81613720565b9150506109fb565b5050505050505050505050565b60046020526000908152604090208054600182018054919291610cb29061358f565b80601f0160208091040260200160405190810160405280929190818152602001828054610cde9061358f565b8015610d2b5780601f10610d0057610100808354040283529160200191610d2b565b820191906000526020600020905b815481529060010190602001808311610d0e57829003601f168201915b505050505090806002018054610d409061358f565b80601f0160208091040260200160405190810160405280929190818152602001828054610d6c9061358f565b8015610db95780601f10610d8e57610100808354040283529160200191610db9565b820191906000526020600020905b815481529060010190602001808311610d9c57829003601f168201915b505050505090806003018054610dce9061358f565b80601f0160208091040260200160405190810160405280929190818152602001828054610dfa9061358f565b8015610e475780601f10610e1c57610100808354040283529160200191610e47565b820191906000526020600020905b815481529060010190602001808311610e2a57829003601f168201915b5050505050905084565b6060600380548060200260200160405190810160405280929190818152602001828054801561070657602002820191906000526020600020908154815260200190600101908083116106f2575050505050905090565b60056020526000908152604090208054600182015460028301805492939192610ecf9061358f565b80601f0160208091040260200160405190810160405280929190818152602001828054610efb9061358f565b8015610f485780601f10610f1d57610100808354040283529160200191610f48565b820191906000526020600020905b815481529060010190602001808311610f2b57829003601f168201915b505050505090806003015490806004018054610f639061358f565b80601f0160208091040260200160405190810160405280929190818152602001828054610f8f9061358f565b8015610fdc5780601f10610fb157610100808354040283529160200191610fdc565b820191906000526020600020905b815481529060010190602001808311610fbf57829003601f168201915b5050505050905085565b6060600a82604051610ff891906136d8565b9081526020016040518091039020805480602002602001604051908101604052809291908181526020016000905b8282101561062a57838290600052602060002090600502016040518060a00160405290816000820180546110599061358f565b80601f01602080910402602001604051908101604052809291908181526020018280546110859061358f565b80156110d25780601f106110a7576101008083540402835291602001916110d2565b820191906000526020600020905b8154815290600101906020018083116110b557829003601f168201915b505050505081526020016001820180546110eb9061358f565b80601f01602080910402602001604051908101604052809291908181526020018280546111179061358f565b80156111645780601f1061113957610100808354040283529160200191611164565b820191906000526020600020905b81548152906001019060200180831161114757829003601f168201915b5050505050815260200160028201548152602001600382015481526020016004820180546111919061358f565b80601f01602080910402602001604051908101604052809291908181526020018280546111bd9061358f565b801561120a5780601f106111df5761010080835404028352916020019161120a565b820191906000526020600020905b8154815290600101906020018083116111ed57829003601f168201915b50505050508152505081526020019060010190611026565b6000838152600760205260409020600a015460ff161561129d5760405162461bcd60e51b815260206004820152603060248201527f5468697320626174636820697320616c7265616479207363616e6e656420627960448201526f103a3432903234b9ba3934b13aba37b960811b60648201526084016104ef565b816040516020016112ae91906136d8565b60408051601f1981840301815282825280516020918201206000878152600783529290922091926112e3926006019101613739565b604051602081830303815290604052805190602001201461135a5760405162461bcd60e51b815260206004820152602b60248201527f54686973206261746368206973206e6f74206f776e656420627920746869732060448201526a3234b9ba3934b13aba37b960a91b60648201526084016104ef565b6000838152600760205260409020600a8101805460ff19166001179055600b016113848282613618565b50505050565b600381815481106106a757600080fd5b6060600280548060200260200160405190810160405280929190818152602001828054801561070657602002820191906000526020600020908154815260200190600101908083116106f2575050505050905090565b6113f985612c26565b156114605760405162461bcd60e51b815260206004820152603160248201527f5468697320426174636854656d706c617465494420616c72656164792065786960448201527073747320696e207468652073797374656d60781b60648201526084016104ef565b61146984612b36565b15156001146114d75760405162461bcd60e51b815260206004820152603460248201527f546869732050726f6475637454656d706c617465494420646f6573206e6f742060448201527365786973747320696e207468652073797374656d60601b60648201526084016104ef565b6040805160a0810182528681526020808201878152828401878152606084018790526080840186905260008a815260059093529390912082518155905160018201559151909190600282019061152d9082613618565b50606082015160038201556080820151600482019061154c9082613618565b50506001805480820182556000919091527fb10e2d527612073b26eecdfd717e6a320cf44b4afac2b0732d9fcbe2b7fa0cf601959095555050505050565b600860205281600052604060002081815481106115a657600080fd5b90600052602060002001600091509150505481565b600281815481106106a757600080fd5b6060600b826040516115dd91906136d8565b9081526020016040518091039020805480602002602001604051908101604052809291908181526020016000905b8282101561062a57838290600052602060002090600502016040518060a001604052908160008201805461163e9061358f565b80601f016020809104026020016040519081016040528092919081815260200182805461166a9061358f565b80156116b75780601f1061168c576101008083540402835291602001916116b7565b820191906000526020600020905b81548152906001019060200180831161169a57829003601f168201915b505050505081526020016001820180546116d09061358f565b80601f01602080910402602001604051908101604052809291908181526020018280546116fc9061358f565b80156117495780601f1061171e57610100808354040283529160200191611749565b820191906000526020600020905b81548152906001019060200180831161172c57829003601f168201915b5050505050815260200160028201548152602001600382015481526020016004820180546117769061358f565b80601f01602080910402602001604051908101604052809291908181526020018280546117a29061358f565b80156117ef5780601f106117c4576101008083540402835291602001916117ef565b820191906000526020600020905b8154815290600101906020018083116117d257829003601f168201915b5050505050815250508152602001906001019061160b565b60008481526007602052604081206002018054600192906118299084906137af565b909155505060008381526006602052604090206005016118498382613618565b506000838152600660205260409020600a016118658282613618565b5060098260405161187691906136d8565b908152604080516020928190038301812081830190925295865281860194855280546001808201835560009283529290912095516002909102909501948555925193909201929092555050565b6007602052600090815260409020805460018201546002830154600384018054939492939192916118f39061358f565b80601f016020809104026020016040519081016040528092919081815260200182805461191f9061358f565b801561196c5780601f106119415761010080835404028352916020019161196c565b820191906000526020600020905b81548152906001019060200180831161194f57829003601f168201915b5050505050908060040154908060050180546119879061358f565b80601f01602080910402602001604051908101604052809291908181526020018280546119b39061358f565b8015611a005780601f106119d557610100808354040283529160200191611a00565b820191906000526020600020905b8154815290600101906020018083116119e357829003601f168201915b505050505090806006018054611a159061358f565b80601f0160208091040260200160405190810160405280929190818152602001828054611a419061358f565b8015611a8e5780601f10611a6357610100808354040283529160200191611a8e565b820191906000526020600020905b815481529060010190602001808311611a7157829003601f168201915b505050505090806007018054611aa39061358f565b80601f0160208091040260200160405190810160405280929190818152602001828054611acf9061358f565b8015611b1c5780601f10611af157610100808354040283529160200191611b1c565b820191906000526020600020905b815481529060010190602001808311611aff57829003601f168201915b505050505090806008018054611b319061358f565b80601f0160208091040260200160405190810160405280929190818152602001828054611b5d9061358f565b8015611baa5780601f10611b7f57610100808354040283529160200191611baa565b820191906000526020600020905b815481529060010190602001808311611b8d57829003601f168201915b505050506009830154600a840154600b850180549495929460ff909216935090611bd39061358f565b80601f0160208091040260200160405190810160405280929190818152602001828054611bff9061358f565b8015611c4c5780601f10611c2157610100808354040283529160200191611c4c565b820191906000526020600020905b815481529060010190602001808311611c2f57829003601f168201915b50505050509080600c015490508d565b8151602081840181018051600a825292820191850191909120919052805482908110611c8757600080fd5b906000526020600020906005020160009150915050806000018054611cab9061358f565b80601f0160208091040260200160405190810160405280929190818152602001828054611cd79061358f565b8015611d245780601f10611cf957610100808354040283529160200191611d24565b820191906000526020600020905b815481529060010190602001808311611d0757829003601f168201915b505050505090806001018054611d399061358f565b80601f0160208091040260200160405190810160405280929190818152602001828054611d659061358f565b8015611db25780601f10611d8757610100808354040283529160200191611db2565b820191906000526020600020905b815481529060010190602001808311611d9557829003601f168201915b505050505090806002015490806003015490806004018054610f639061358f565b8151602081840181018051600b825292820191850191909120919052805482908110611c8757600080fd5b600660205260009081526040902080546001820154600283015460038401546004850180549495939492939192611e349061358f565b80601f0160208091040260200160405190810160405280929190818152602001828054611e609061358f565b8015611ead5780601f10611e8257610100808354040283529160200191611ead565b820191906000526020600020905b815481529060010190602001808311611e9057829003601f168201915b505050505090806005018054611ec29061358f565b80601f0160208091040260200160405190810160405280929190818152602001828054611eee9061358f565b8015611f3b5780601f10611f1057610100808354040283529160200191611f3b565b820191906000526020600020905b815481529060010190602001808311611f1e57829003601f168201915b505050505090806006018054611f509061358f565b80601f0160208091040260200160405190810160405280929190818152602001828054611f7c9061358f565b8015611fc95780601f10611f9e57610100808354040283529160200191611fc9565b820191906000526020600020905b815481529060010190602001808311611fac57829003601f168201915b5050506007840154600885018054949560ff909216949193509150611fed9061358f565b80601f01602080910402602001604051908101604052809291908181526020018280546120199061358f565b80156120665780601f1061203b57610100808354040283529160200191612066565b820191906000526020600020905b81548152906001019060200180831161204957829003601f168201915b50505050509080600901805461207b9061358f565b80601f01602080910402602001604051908101604052809291908181526020018280546120a79061358f565b80156120f45780601f106120c9576101008083540402835291602001916120f4565b820191906000526020600020905b8154815290600101906020018083116120d757829003601f168201915b50505050509080600a0180546121099061358f565b80601f01602080910402602001604051908101604052809291908181526020018280546121359061358f565b80156121825780601f1061215757610100808354040283529160200191612182565b820191906000526020600020905b81548152906001019060200180831161216557829003601f168201915b505050505090508b565b60008381526006602052604090206007015460ff16156122045760405162461bcd60e51b815260206004820152602d60248201527f5468697320626174636820697320616c7265616479207363616e6e656420627960448201526c103a3432903932ba30b4b632b960991b60648201526084016104ef565b8160405160200161221591906136d8565b60405160208183030381529060405280519060200120600660008581526020019081526020016000206006016040516020016122519190613739565b60405160208183030381529060405280519060200120146122c75760405162461bcd60e51b815260206004820152602a60248201527f546869732070726f64756374206973206e6f74206f776e65642062792074686960448201526939903932ba30b4b632b960b11b60648201526084016104ef565b600083815260066020526040902060078101805460ff191660011790556008016113848282613618565b6000848152600760205260408120600c81015460018201546006909201805491939161231c9061358f565b80601f01602080910402602001604051908101604052809291908181526020018280546123489061358f565b80156123955780601f1061236a57610100808354040283529160200191612395565b820191906000526020600020905b81548152906001019060200180831161237857829003601f168201915b505050505090508583101561241c5760405162461bcd60e51b815260206004820152604160248201527f5175616e746974792069732067726561746572207468616e2074686520616d6f60448201527f756e74206c65667420746f20626520736f6c6420696e207468697320626174636064820152600d60fb1b608482015260a4016104ef565b6000861161246c5760405162461bcd60e51b815260206004820152601760248201527f5175616e746974792063616e6e6f74206265207a65726f00000000000000000060448201526064016104ef565b600061247884846137c8565b6000898152600860209081526040808320805482518185028101850190935280835294955092939092918301828280156124d157602002820191906000526020600020905b8154815260200190600101908083116124bd575b509394508593505050505b6124e689846137af565b8110156129cb576000828281518110612501576125016136f4565b6020026020010151905060006006600083815260200190815260200160002060405180610160016040529081600082015481526020016001820154815260200160028201548152602001600382015481526020016004820180546125649061358f565b80601f01602080910402602001604051908101604052809291908181526020018280546125909061358f565b80156125dd5780601f106125b2576101008083540402835291602001916125dd565b820191906000526020600020905b8154815290600101906020018083116125c057829003601f168201915b505050505081526020016005820180546125f69061358f565b80601f01602080910402602001604051908101604052809291908181526020018280546126229061358f565b801561266f5780601f106126445761010080835404028352916020019161266f565b820191906000526020600020905b81548152906001019060200180831161265257829003601f168201915b505050505081526020016006820180546126889061358f565b80601f01602080910402602001604051908101604052809291908181526020018280546126b49061358f565b80156127015780601f106126d657610100808354040283529160200191612701565b820191906000526020600020905b8154815290600101906020018083116126e457829003601f168201915b5050509183525050600782015460ff161515602082015260088201805460409092019161272d9061358f565b80601f01602080910402602001604051908101604052809291908181526020018280546127599061358f565b80156127a65780601f1061277b576101008083540402835291602001916127a6565b820191906000526020600020905b81548152906001019060200180831161278957829003601f168201915b505050505081526020016009820180546127bf9061358f565b80601f01602080910402602001604051908101604052809291908181526020018280546127eb9061358f565b80156128385780601f1061280d57610100808354040283529160200191612838565b820191906000526020600020905b81548152906001019060200180831161281b57829003601f168201915b50505050508152602001600a820180546128519061358f565b80601f016020809104026020016040519081016040528092919081815260200182805461287d9061358f565b80156128ca5780601f1061289f576101008083540402835291602001916128ca565b820191906000526020600020905b8154815290600101906020018083116128ad57829003601f168201915b5050509190925250505060c081018b905261012081018a9052600083815260066020908152604091829020835181559083015160018201559082015160028201556060820151600382015560808201519192508291600482019061292e9082613618565b5060a082015160058201906129439082613618565b5060c082015160068201906129589082613618565b5060e082015160078201805460ff191691151591909117905561010082015160088201906129869082613618565b50610120820151600982019061299c9082613618565b50610140820151600a8201906129b29082613618565b50905050505080806129c390613720565b9150506124dc565b506000898152600760205260408120600c0180548a92906129ed9084906137c8565b90915550506040805160a081018252848152602081018990528082018b9052606081018a9052608081018890529051600a90612a2a9086906136d8565b908152604051602091819003820190208054600181018255600091825291902082518392600502909101908190612a619082613618565b5060208201516001820190612a769082613618565b50604082015160028201556060820151600382015560808201516004820190612a9f9082613618565b505050600b88604051612ab291906136d8565b908152604051602091819003820190208054600181018255600091825291902082518392600502909101908190612ae99082613618565b5060208201516001820190612afe9082613618565b50604082015160028201556060820151600382015560808201516004820190612b279082613618565b50505050505050505050505050565b6000805b600054811015612b83578260008281548110612b5857612b586136f4565b906000526020600020015403612b715750600192915050565b80612b7b81613720565b915050612b3a565b50600092915050565b6000805b600354811015612b83578260038281548110612bae57612bae6136f4565b906000526020600020015403612bc75750600192915050565b80612bd181613720565b915050612b90565b6000805b600254811015612b83578260028281548110612bfb57612bfb6136f4565b906000526020600020015403612c145750600192915050565b80612c1e81613720565b915050612bdd565b6000805b600154811015612b83578260018281548110612c4857612c486136f4565b906000526020600020015403612c615750600192915050565b80612c6b81613720565b915050612c2a565b828054828255906000526020600020908101928215612cae579160200282015b82811115612cae578251825591602001919060010190612c93565b50612cba929150612cbe565b5090565b5b80821115612cba5760008155600101612cbf565b634e487b7160e01b600052604160045260246000fd5b604051601f8201601f1916810167ffffffffffffffff81118282101715612d1257612d12612cd3565b604052919050565b600082601f830112612d2b57600080fd5b813567ffffffffffffffff811115612d4557612d45612cd3565b612d58601f8201601f1916602001612ce9565b818152846020838601011115612d6d57600080fd5b816020850160208301376000918101602001919091529392505050565b60008060408385031215612d9d57600080fd5b823567ffffffffffffffff811115612db457600080fd5b612dc085828601612d1a565b95602094909401359450505050565b60008060008060808587031215612de557600080fd5b84359350602085013567ffffffffffffffff80821115612e0457600080fd5b612e1088838901612d1a565b94506040870135915080821115612e2657600080fd5b612e3288838901612d1a565b93506060870135915080821115612e4857600080fd5b50612e5587828801612d1a565b91505092959194509250565b600060208284031215612e7357600080fd5b813567ffffffffffffffff811115612e8a57600080fd5b612e9684828501612d1a565b949350505050565b602080825282518282018190526000919060409081850190868401855b82811015612ee057815180518552860151868501529284019290850190600101612ebb565b5091979650505050505050565b600060208284031215612eff57600080fd5b5035919050565b6020808252825182820181905260009190848201906040850190845b81811015612f3e57835183529284019291840191600101612f22565b50909695505050505050565b600082601f830112612f5b57600080fd5b8135602067ffffffffffffffff821115612f7757612f77612cd3565b8160051b612f86828201612ce9565b9283528481018201928281019087851115612fa057600080fd5b83870192505b84831015612fbf57823582529183019190830190612fa6565b979650505050505050565b6000806000806000806000806000806101408b8d031215612fea57600080fd5b8a35995060208b013567ffffffffffffffff8082111561300957600080fd5b6130158e838f01612f4a565b9a5060408d013591508082111561302b57600080fd5b6130378e838f01612f4a565b995060608d0135985060808d013591508082111561305457600080fd5b6130608e838f01612d1a565b975060a08d0135965060c08d013591508082111561307d57600080fd5b6130898e838f01612d1a565b955060e08d013591508082111561309f57600080fd5b6130ab8e838f01612d1a565b94506101008d01359150808211156130c257600080fd5b6130ce8e838f01612d1a565b93506101208d01359150808211156130e557600080fd5b506130f28d828e01612d1a565b9150509295989b9194979a5092959850565b60005b8381101561311f578181015183820152602001613107565b50506000910152565b60008151808452613140816020860160208601613104565b601f01601f19169290920160200192915050565b84815260806020820152600061316d6080830186613128565b828103604084015261317f8186613128565b90508281036060840152612fbf8185613128565b85815284602082015260a0604082015260006131b260a0830186613128565b84606084015282810360808401526131ca8185613128565b98975050505050505050565b60006020808301818452808551808352604092508286019150828160051b87010184880160005b8381101561327f57603f19898403018552815160a0815181865261322382870182613128565b915050888201518582038a87015261323b8282613128565b915050878201518886015260608083015181870152506080808301519250858203818701525061326b8183613128565b9689019694505050908601906001016131fd565b509098975050505050505050565b6000806000606084860312156132a257600080fd5b83359250602084013567ffffffffffffffff808211156132c157600080fd5b6132cd87838801612d1a565b935060408601359150808211156132e357600080fd5b506132f086828701612d1a565b9150509250925092565b600080600080600060a0868803121561331257600080fd5b8535945060208601359350604086013567ffffffffffffffff8082111561333857600080fd5b61334489838a01612d1a565b945060608801359350608088013591508082111561336157600080fd5b5061336e88828901612d1a565b9150509295509295909350565b6000806040838503121561338e57600080fd5b50508035926020909101359150565b600080600080608085870312156133b357600080fd5b8435935060208501359250604085013567ffffffffffffffff80821115612e2657600080fd5b60006101a08f83528e60208401528d60408401528060608401526133ff8184018e613128565b90508b608084015282810360a0840152613419818c613128565b905082810360c084015261342d818b613128565b905082810360e0840152613441818a613128565b90508281036101008401526134568189613128565b90508661012084015261346e61014084018715159052565b8281036101608401526134818186613128565b915050826101808301529e9d5050505050505050505050505050565b60a0815260006134b060a0830188613128565b82810360208401526134c28188613128565b905085604084015284606084015282810360808401526131ca8185613128565b60006101608d83528c60208401528b60408401528a606084015280608084015261350e8184018b613128565b905082810360a0840152613522818a613128565b905082810360c08401526135368189613128565b905086151560e08401528281036101008401526135538187613128565b90508281036101208401526135688186613128565b905082810361014084015261357d8185613128565b9e9d5050505050505050505050505050565b600181811c908216806135a357607f821691505b6020821081036135c357634e487b7160e01b600052602260045260246000fd5b50919050565b601f82111561361357600081815260208120601f850160051c810160208610156135f05750805b601f850160051c820191505b8181101561360f578281556001016135fc565b5050505b505050565b815167ffffffffffffffff81111561363257613632612cd3565b61364681613640845461358f565b846135c9565b602080601f83116001811461367b57600084156136635750858301515b600019600386901b1c1916600185901b17855561360f565b600085815260208120601f198616915b828110156136aa5788860151825594840194600190910190840161368b565b50858210156136c85787850151600019600388901b60f8161c191681555b5050505050600190811b01905550565b600082516136ea818460208701613104565b9190910192915050565b634e487b7160e01b600052603260045260246000fd5b634e487b7160e01b600052601160045260246000fd5b6000600182016137325761373261370a565b5060010190565b60008083546137478161358f565b6001828116801561375f5760018114613774576137a3565b60ff19841687528215158302870194506137a3565b8760005260208060002060005b8581101561379a5781548a820152908401908201613781565b50505082870194505b50929695505050505050565b808201808211156137c2576137c261370a565b92915050565b818103818111156137c2576137c261370a56fea26469706673582212201c0d0fdf35adc44c15efbebb6b438fd0b72518899f821af3c7bb0554bb2ae57e64736f6c63430008110033",
  "linkReferences": {},
  "deployedLinkReferences": {}
}