{
  "_format": "hh-sol-artifact-1",
  "contractName": "Supplychain",
  "sourceName": "contracts/Supplychain.sol",
  "abi": [
    {
      "inputs": [
        {
          "internalType": "uint256",
          "name": "",
          "type": "uint256"
        },
        {
          "internalType": "uint256",
          "name": "",
          "type": "uint256"
        }
      ],
      "name": "BatchIDToProductIDMapping",
      "outputs": [
        {
          "internalType": "uint256",
          "name": "",
          "type": "uint256"
        }
      ],
      "stateMutability": "view",
      "type": "function"
    },
    {
      "inputs": [
        {
          "internalType": "uint256",
          "name": "",
          "type": "uint256"
        }
      ],
      "name": "BatchIDs",
      "outputs": [
        {
          "internalType": "uint256",
          "name": "",
          "type": "uint256"
        }
      ],
      "stateMutability": "view",
      "type": "function"
    },
    {
      "inputs": [
        {
          "internalType": "uint256",
          "name": "",
          "type": "uint256"
        }
      ],
      "name": "BatchMapping",
      "outputs": [
        {
          "internalType": "uint256",
          "name": "BatchID",
          "type": "uint256"
        },
        {
          "internalType": "uint256",
          "name": "BatchSize",
          "type": "uint256"
        },
        {
          "internalType": "uint256",
          "name": "AmountSold",
          "type": "uint256"
        },
        {
          "internalType": "string",
          "name": "BatchDescription",
          "type": "string"
        },
        {
          "internalType": "uint256",
          "name": "ProductTemplateID",
          "type": "uint256"
        },
        {
          "internalType": "address",
          "name": "Factory",
          "type": "address"
        },
        {
          "internalType": "address",
          "name": "Distributor",
          "type": "address"
        },
        {
          "internalType": "address",
          "name": "Retailer",
          "type": "address"
        },
        {
          "internalType": "string",
          "name": "FactoryLocation",
          "type": "string"
        },
        {
          "internalType": "string",
          "name": "DateOfProduction",
          "type": "string"
        },
        {
          "internalType": "uint256",
          "name": "state",
          "type": "uint256"
        }
      ],
      "stateMutability": "view",
      "type": "function"
    },
    {
      "inputs": [
        {
          "internalType": "uint256",
          "name": "",
          "type": "uint256"
        }
      ],
      "name": "BatchTemplateIDs",
      "outputs": [
        {
          "internalType": "uint256",
          "name": "",
          "type": "uint256"
        }
      ],
      "stateMutability": "view",
      "type": "function"
    },
    {
      "inputs": [
        {
          "internalType": "uint256",
          "name": "",
          "type": "uint256"
        }
      ],
      "name": "BatchTemplateMAP",
      "outputs": [
        {
          "internalType": "uint256",
          "name": "batchTemplateID",
          "type": "uint256"
        },
        {
          "internalType": "uint256",
          "name": "productTemplateID",
          "type": "uint256"
        },
        {
          "internalType": "string",
          "name": "description",
          "type": "string"
        },
        {
          "internalType": "uint256",
          "name": "batchSize",
          "type": "uint256"
        },
        {
          "internalType": "address",
          "name": "factoryADDRESS",
          "type": "address"
        }
      ],
      "stateMutability": "view",
      "type": "function"
    },
    {
      "inputs": [
        {
          "internalType": "address",
          "name": "",
          "type": "address"
        },
        {
          "internalType": "uint256",
          "name": "",
          "type": "uint256"
        }
      ],
      "name": "CustomerData",
      "outputs": [
        {
          "internalType": "uint256",
          "name": "BatchID",
          "type": "uint256"
        },
        {
          "internalType": "uint256",
          "name": "ProductID",
          "type": "uint256"
        }
      ],
      "stateMutability": "view",
      "type": "function"
    },
    {
      "inputs": [
        {
          "internalType": "uint256",
          "name": "",
          "type": "uint256"
        }
      ],
      "name": "ProductIDs",
      "outputs": [
        {
          "internalType": "uint256",
          "name": "",
          "type": "uint256"
        }
      ],
      "stateMutability": "view",
      "type": "function"
    },
    {
      "inputs": [
        {
          "internalType": "uint256",
          "name": "",
          "type": "uint256"
        }
      ],
      "name": "ProductMapping",
      "outputs": [
        {
          "internalType": "uint256",
          "name": "ProductID",
          "type": "uint256"
        },
        {
          "internalType": "uint256",
          "name": "ProductTemplateID",
          "type": "uint256"
        },
        {
          "internalType": "string",
          "name": "DOM",
          "type": "string"
        },
        {
          "internalType": "address",
          "name": "Owner",
          "type": "address"
        },
        {
          "internalType": "uint256",
          "name": "DateWhenSold",
          "type": "uint256"
        }
      ],
      "stateMutability": "view",
      "type": "function"
    },
    {
      "inputs": [
        {
          "internalType": "uint256",
          "name": "",
          "type": "uint256"
        }
      ],
      "name": "ProductTemplateIDs",
      "outputs": [
        {
          "internalType": "uint256",
          "name": "",
          "type": "uint256"
        }
      ],
      "stateMutability": "view",
      "type": "function"
    },
    {
      "inputs": [
        {
          "internalType": "uint256",
          "name": "",
          "type": "uint256"
        }
      ],
      "name": "ProductTemplateMAP",
      "outputs": [
        {
          "internalType": "uint256",
          "name": "productTemplateID",
          "type": "uint256"
        },
        {
          "internalType": "string",
          "name": "name",
          "type": "string"
        },
        {
          "internalType": "string",
          "name": "description",
          "type": "string"
        }
      ],
      "stateMutability": "view",
      "type": "function"
    },
    {
      "inputs": [
        {
          "internalType": "uint256",
          "name": "_batchTemplateID",
          "type": "uint256"
        },
        {
          "internalType": "uint256",
          "name": "_productTemplateID",
          "type": "uint256"
        },
        {
          "internalType": "string",
          "name": "_description",
          "type": "string"
        },
        {
          "internalType": "uint256",
          "name": "_batchSize",
          "type": "uint256"
        },
        {
          "internalType": "address",
          "name": "_factoryADDRESS",
          "type": "address"
        }
      ],
      "name": "addBatchTemplate",
      "outputs": [],
      "stateMutability": "nonpayable",
      "type": "function"
    },
    {
      "inputs": [
        {
          "internalType": "uint256",
          "name": "_productTemplateID",
          "type": "uint256"
        },
        {
          "internalType": "string",
          "name": "_name",
          "type": "string"
        },
        {
          "internalType": "string",
          "name": "_description",
          "type": "string"
        }
      ],
      "name": "addProductTemplate",
      "outputs": [],
      "stateMutability": "nonpayable",
      "type": "function"
    },
    {
      "inputs": [
        {
          "internalType": "uint256",
          "name": "batchID",
          "type": "uint256"
        },
        {
          "internalType": "uint256[]",
          "name": "productIDs",
          "type": "uint256[]"
        },
        {
          "internalType": "uint256",
          "name": "batchSize",
          "type": "uint256"
        },
        {
          "internalType": "string",
          "name": "batchDescription",
          "type": "string"
        },
        {
          "internalType": "uint256",
          "name": "productTemplateID",
          "type": "uint256"
        },
        {
          "internalType": "address",
          "name": "factory",
          "type": "address"
        },
        {
          "internalType": "address",
          "name": "distributor",
          "type": "address"
        },
        {
          "internalType": "string",
          "name": "factoryLocation",
          "type": "string"
        },
        {
          "internalType": "string",
          "name": "dateOfProduction",
          "type": "string"
        }
      ],
      "name": "batchProduced",
      "outputs": [],
      "stateMutability": "nonpayable",
      "type": "function"
    },
    {
      "inputs": [
        {
          "internalType": "uint256",
          "name": "batchID",
          "type": "uint256"
        },
        {
          "internalType": "address",
          "name": "retailer",
          "type": "address"
        }
      ],
      "name": "distributorSellToRetailer",
      "outputs": [],
      "stateMutability": "nonpayable",
      "type": "function"
    },
    {
      "inputs": [],
      "name": "getAllBatchIDs",
      "outputs": [
        {
          "internalType": "uint256[]",
          "name": "",
          "type": "uint256[]"
        }
      ],
      "stateMutability": "view",
      "type": "function"
    },
    {
      "inputs": [],
      "name": "getAllBatchTemplateIDs",
      "outputs": [
        {
          "internalType": "uint256[]",
          "name": "",
          "type": "uint256[]"
        }
      ],
      "stateMutability": "view",
      "type": "function"
    },
    {
      "inputs": [],
      "name": "getAllProductIDs",
      "outputs": [
        {
          "internalType": "uint256[]",
          "name": "",
          "type": "uint256[]"
        }
      ],
      "stateMutability": "view",
      "type": "function"
    },
    {
      "inputs": [],
      "name": "getAllProductTemplateIDs",
      "outputs": [
        {
          "internalType": "uint256[]",
          "name": "",
          "type": "uint256[]"
        }
      ],
      "stateMutability": "view",
      "type": "function"
    },
    {
      "inputs": [
        {
          "internalType": "address",
          "name": "customer",
          "type": "address"
        }
      ],
      "name": "getAllProductsBought",
      "outputs": [
        {
          "components": [
            {
              "internalType": "uint256",
              "name": "BatchID",
              "type": "uint256"
            },
            {
              "internalType": "uint256",
              "name": "ProductID",
              "type": "uint256"
            }
          ],
          "internalType": "struct Supplychain.Customer[]",
          "name": "",
          "type": "tuple[]"
        }
      ],
      "stateMutability": "view",
      "type": "function"
    },
    {
      "inputs": [
        {
          "internalType": "uint256",
          "name": "batchID",
          "type": "uint256"
        }
      ],
      "name": "getProductIdsForaBatch",
      "outputs": [
        {
          "internalType": "uint256[]",
          "name": "",
          "type": "uint256[]"
        }
      ],
      "stateMutability": "view",
      "type": "function"
    },
    {
      "inputs": [
        {
          "internalType": "uint256",
          "name": "batchID",
          "type": "uint256"
        },
        {
          "internalType": "uint256",
          "name": "productID",
          "type": "uint256"
        },
        {
          "internalType": "address",
          "name": "customer",
          "type": "address"
        }
      ],
      "name": "retailerSellToCustomer",
      "outputs": [],
      "stateMutability": "nonpayable",
      "type": "function"
    }
  ],
  "bytecode": "0x608060405234801561001057600080fd5b50611820806100206000396000f3fe608060405234801561001057600080fd5b50600436106101375760003560e01c8063793560dd116100b85780639247e9fd1161007c5780639247e9fd1461028057806399ae96e2146102c9578063a78317f8146102dc578063bf801df1146102ef578063c6e8801114610319578063eac0e9771461034157600080fd5b8063793560dd146102265780637ae4ee041461022e5780638bd42880146102525780638c4c42cd1461026557806390973cce1461026d57600080fd5b80634ca20f34116100ff5780634ca20f34146101ab5780634e939486146101be578063547baaff146101d157806371d1dc0c146101f1578063759b8fba1461021357600080fd5b806313e6bed91461013c578063392a70a6146101515780633ab95f301461017a5780633b7d255c1461019b5780634c27729c146101a3575b600080fd5b61014f61014a366004611045565b610365565b005b61016461015f36600461107a565b610402565b6040516101719190611093565b60405180910390f35b61018d61018836600461107a565b610464565b604051908152602001610171565b610164610485565b6101646104dd565b61018d6101b936600461107a565b610533565b61014f6101cc36600461118e565b610543565b6101e46101df3660046111fb565b6105d4565b604051610171919061121d565b6102046101ff36600461107a565b61065d565b604051610171939291906112b2565b61014f610221366004611367565b610790565b610164610a3a565b61024161023c36600461107a565b610a90565b604051610171959493929190611453565b61018d61026036600461107a565b610b52565b610164610b62565b61018d61027b366004611494565b610bb8565b61014f61028e3660046114b6565b6000918252600660205260409091206007810180546001600160a01b0319166001600160a01b03909316929092179091556001600a90910155565b61014f6102d73660046114e2565b610be9565b61018d6102ea36600461107a565b610cbb565b6103026102fd36600461107a565b610ccb565b6040516101719b9a9998979695949392919061154d565b61032c6103273660046115dd565b610ecc565b60408051928352602083019190915201610171565b61035461034f36600461107a565b610f08565b604051610171959493929190611607565b6000838152600660205260408120600201805460019290610387908490611659565b909155505060008281526004602081815260408084206003810180546001600160a01b039097166001600160a01b031990971687179055429301929092559282526009835280822081518083019092529481528083019384528454600181810187559583529290912090516002909202019081559051910155565b60008181526007602090815260409182902080548351818402810184019094528084526060939283018282801561045857602002820191906000526020600020905b815481526020019060010190808311610444575b50505050509050919050565b6002818154811061047457600080fd5b600091825260209091200154905081565b606060028054806020026020016040519081016040528092919081815260200182805480156104d357602002820191906000526020600020905b8154815260200190600101908083116104bf575b5050505050905090565b606060038054806020026020016040519081016040528092919081815260200182805480156104d357602002820191906000526020600020908154815260200190600101908083116104bf575050505050905090565b6003818154811061047457600080fd5b604080516060810182528481526020808201858152828401859052600087815291829052929020815181559151909190600182019061058290826116fb565b506040820151600282019061059790826116fb565b5050600280546001810182556000919091527f405787fa12a823e0f2b7631cc41b3ba8828b3321ca811111fa75cd3aa3bb5ace0193909355505050565b6001600160a01b0381166000908152600960209081526040808320805482518185028101850190935280835260609492939192909184015b828210156106525783829060005260206000209060020201604051806040016040529081600082015481526020016001820154815250508152602001906001019061060c565b505050509050919050565b6000602081905290815260409020805460018201805491929161067f90611672565b80601f01602080910402602001604051908101604052809291908181526020018280546106ab90611672565b80156106f85780601f106106cd576101008083540402835291602001916106f8565b820191906000526020600020905b8154815290600101906020018083116106db57829003601f168201915b50505050509080600201805461070d90611672565b80601f016020809104026020016040519081016040528092919081815260200182805461073990611672565b80156107865780601f1061075b57610100808354040283529160200191610786565b820191906000526020600020905b81548152906001019060200180831161076957829003601f168201915b5050505050905083565b60408051610160810182528a815260208082018a81526000838501818152606085018c8152608086018c90526001600160a01b03808c1660a08801528a1660c087015260e086018390526101008601899052610120860188905261014086018390528f8352600690945294902083518155905160018201559251600284015551909190600382019061082290826116fb565b506080820151600482015560a08201516005820180546001600160a01b039283166001600160a01b03199182161790915560c084015160068401805491841691831691909117905560e0840151600784018054919093169116179055610100820151600882019061089390826116fb565b5061012082015160098201906108a990826116fb565b506101409190910151600a9091015560088054600181019091557ff3f7a9fe364faab93b216da50a3214154f22a0a2b415b23a84c8169e8b636ee30189905560008981526007602090815260409091208951610907928b0190610fc9565b5060005b87811015610a2e576040518060a001604052808a8381518110610930576109306117bb565b6020026020010151815260200187815260200183815260200160006001600160a01b031681526020016000815250600460008b8481518110610974576109746117bb565b60200260200101518152602001908152602001600020600082015181600001556020820151816001015560408201518160020190816109b391906116fb565b5060608201516003820180546001600160a01b0319166001600160a01b0390921691909117905560809091015160049091015588516005908a90839081106109fd576109fd6117bb565b6020908102919091018101518254600181018455600093845291909220015580610a26816117d1565b91505061090b565b50505050505050505050565b606060088054806020026020016040519081016040528092919081815260200182805480156104d357602002820191906000526020600020908154815260200190600101908083116104bf575050505050905090565b6001602081905260009182526040909120805491810154600282018054919291610ab990611672565b80601f0160208091040260200160405190810160405280929190818152602001828054610ae590611672565b8015610b325780601f10610b0757610100808354040283529160200191610b32565b820191906000526020600020905b815481529060010190602001808311610b1557829003601f168201915b5050505060038301546004909301549192916001600160a01b0316905085565b6008818154811061047457600080fd5b606060058054806020026020016040519081016040528092919081815260200182805480156104d357602002820191906000526020600020908154815260200190600101908083116104bf575050505050905090565b60076020528160005260406000208181548110610bd457600080fd5b90600052602060002001600091509150505481565b6040805160a0810182528681526020808201878152828401878152606084018790526001600160a01b038616608085015260008a8152600193849052949094208351815590519181019190915591519091906002820190610c4a90826116fb565b506060820151600382810191909155608090920151600490910180546001600160a01b0319166001600160a01b0390921691909117905580546001810182556000919091527fc2575a0e9e593c00f959f8c92f12db2869c3395a3b0502d05e2516446f71f85b019490945550505050565b6005818154811061047457600080fd5b600660205260009081526040902080546001820154600283015460038401805493949293919291610cfb90611672565b80601f0160208091040260200160405190810160405280929190818152602001828054610d2790611672565b8015610d745780601f10610d4957610100808354040283529160200191610d74565b820191906000526020600020905b815481529060010190602001808311610d5757829003601f168201915b5050506004840154600585015460068601546007870154600888018054979894976001600160a01b03948516975092841695509216929190610db590611672565b80601f0160208091040260200160405190810160405280929190818152602001828054610de190611672565b8015610e2e5780601f10610e0357610100808354040283529160200191610e2e565b820191906000526020600020905b815481529060010190602001808311610e1157829003601f168201915b505050505090806009018054610e4390611672565b80601f0160208091040260200160405190810160405280929190818152602001828054610e6f90611672565b8015610ebc5780601f10610e9157610100808354040283529160200191610ebc565b820191906000526020600020905b815481529060010190602001808311610e9f57829003601f168201915b50505050509080600a015490508b565b60096020528160005260406000208181548110610ee857600080fd5b600091825260209091206002909102018054600190910154909250905082565b60046020526000908152604090208054600182015460028301805492939192610f3090611672565b80601f0160208091040260200160405190810160405280929190818152602001828054610f5c90611672565b8015610fa95780601f10610f7e57610100808354040283529160200191610fa9565b820191906000526020600020905b815481529060010190602001808311610f8c57829003601f168201915b50505050600383015460049093015491926001600160a01b031691905085565b828054828255906000526020600020908101928215611004579160200282015b82811115611004578251825591602001919060010190610fe9565b50611010929150611014565b5090565b5b808211156110105760008155600101611015565b80356001600160a01b038116811461104057600080fd5b919050565b60008060006060848603121561105a57600080fd5b833592506020840135915061107160408501611029565b90509250925092565b60006020828403121561108c57600080fd5b5035919050565b6020808252825182820181905260009190848201906040850190845b818110156110cb578351835292840192918401916001016110af565b50909695505050505050565b634e487b7160e01b600052604160045260246000fd5b604051601f8201601f1916810167ffffffffffffffff81118282101715611116576111166110d7565b604052919050565b600082601f83011261112f57600080fd5b813567ffffffffffffffff811115611149576111496110d7565b61115c601f8201601f19166020016110ed565b81815284602083860101111561117157600080fd5b816020850160208301376000918101602001919091529392505050565b6000806000606084860312156111a357600080fd5b83359250602084013567ffffffffffffffff808211156111c257600080fd5b6111ce8783880161111e565b935060408601359150808211156111e457600080fd5b506111f18682870161111e565b9150509250925092565b60006020828403121561120d57600080fd5b61121682611029565b9392505050565b602080825282518282018190526000919060409081850190868401855b8281101561125f5781518051855286015186850152928401929085019060010161123a565b5091979650505050505050565b6000815180845260005b8181101561129257602081850181015186830182015201611276565b506000602082860101526020601f19601f83011685010191505092915050565b8381526060602082015260006112cb606083018561126c565b82810360408401526112dd818561126c565b9695505050505050565b600082601f8301126112f857600080fd5b8135602067ffffffffffffffff821115611314576113146110d7565b8160051b6113238282016110ed565b928352848101820192828101908785111561133d57600080fd5b83870192505b8483101561135c57823582529183019190830190611343565b979650505050505050565b60008060008060008060008060006101208a8c03121561138657600080fd5b8935985060208a013567ffffffffffffffff808211156113a557600080fd5b6113b18d838e016112e7565b995060408c0135985060608c01359150808211156113ce57600080fd5b6113da8d838e0161111e565b975060808c013596506113ef60a08d01611029565b95506113fd60c08d01611029565b945060e08c013591508082111561141357600080fd5b61141f8d838e0161111e565b93506101008c013591508082111561143657600080fd5b506114438c828d0161111e565b9150509295985092959850929598565b85815284602082015260a06040820152600061147260a083018661126c565b6060830194909452506001600160a01b03919091166080909101529392505050565b600080604083850312156114a757600080fd5b50508035926020909101359150565b600080604083850312156114c957600080fd5b823591506114d960208401611029565b90509250929050565b600080600080600060a086880312156114fa57600080fd5b8535945060208601359350604086013567ffffffffffffffff81111561151f57600080fd5b61152b8882890161111e565b9350506060860135915061154160808701611029565b90509295509295909350565b60006101608d83528c60208401528b60408401528060608401526115738184018c61126c565b608084018b90526001600160a01b038a811660a086015289811660c0860152881660e085015283810361010085015290506115ae818761126c565b90508281036101208401526115c3818661126c565b915050826101408301529c9b505050505050505050505050565b600080604083850312156115f057600080fd5b6115f983611029565b946020939093013593505050565b85815284602082015260a06040820152600061162660a083018661126c565b6001600160a01b0394909416606083015250608001529392505050565b634e487b7160e01b600052601160045260246000fd5b8082018082111561166c5761166c611643565b92915050565b600181811c9082168061168657607f821691505b6020821081036116a657634e487b7160e01b600052602260045260246000fd5b50919050565b601f8211156116f657600081815260208120601f850160051c810160208610156116d35750805b601f850160051c820191505b818110156116f2578281556001016116df565b5050505b505050565b815167ffffffffffffffff811115611715576117156110d7565b611729816117238454611672565b846116ac565b602080601f83116001811461175e57600084156117465750858301515b600019600386901b1c1916600185901b1785556116f2565b600085815260208120601f198616915b8281101561178d5788860151825594840194600190910190840161176e565b50858210156117ab5787850151600019600388901b60f8161c191681555b5050505050600190811b01905550565b634e487b7160e01b600052603260045260246000fd5b6000600182016117e3576117e3611643565b506001019056fea26469706673582212201741e1f99ad505dec064e8e4c496d17c894c5835b1d507b40369c78a5113f05264736f6c63430008110033",
  "linkReferences": {},
  "deployedLinkReferences": {}
}