{
  "_format": "hh-sol-artifact-1",
  "contractName": "Supplychain",
  "sourceName": "contracts/Supplychain.sol",
  "abi": [
    {
      "inputs": [
        {
          "internalType": "uint256",
          "name": "",
          "type": "uint256"
        },
        {
          "internalType": "uint256",
          "name": "",
          "type": "uint256"
        }
      ],
      "name": "BatchIDToProductIDMapping",
      "outputs": [
        {
          "internalType": "uint256",
          "name": "",
          "type": "uint256"
        }
      ],
      "stateMutability": "view",
      "type": "function"
    },
    {
      "inputs": [
        {
          "internalType": "uint256",
          "name": "",
          "type": "uint256"
        }
      ],
      "name": "BatchIDs",
      "outputs": [
        {
          "internalType": "uint256",
          "name": "",
          "type": "uint256"
        }
      ],
      "stateMutability": "view",
      "type": "function"
    },
    {
      "inputs": [
        {
          "internalType": "uint256",
          "name": "",
          "type": "uint256"
        }
      ],
      "name": "BatchMapping",
      "outputs": [
        {
          "internalType": "uint256",
          "name": "BatchID",
          "type": "uint256"
        },
        {
          "internalType": "uint256",
          "name": "BatchSize",
          "type": "uint256"
        },
        {
          "internalType": "uint256",
          "name": "AmountSoldTOCustomer",
          "type": "uint256"
        },
        {
          "internalType": "string",
          "name": "BatchDescription",
          "type": "string"
        },
        {
          "internalType": "uint256",
          "name": "ProductTemplateID",
          "type": "uint256"
        },
        {
          "internalType": "string",
          "name": "FactoryID",
          "type": "string"
        },
        {
          "internalType": "string",
          "name": "DistributorID",
          "type": "string"
        },
        {
          "internalType": "string",
          "name": "FactoryLocation",
          "type": "string"
        },
        {
          "internalType": "string",
          "name": "DateOfProduction",
          "type": "string"
        },
        {
          "internalType": "uint256",
          "name": "State",
          "type": "uint256"
        },
        {
          "internalType": "bool",
          "name": "DistributorScanned",
          "type": "bool"
        },
        {
          "internalType": "string",
          "name": "DistributorScannedTimeStamp",
          "type": "string"
        },
        {
          "internalType": "uint256",
          "name": "AmountLeftForSellingTORetailer",
          "type": "uint256"
        },
        {
          "internalType": "uint256",
          "name": "CompanyBatchID",
          "type": "uint256"
        }
      ],
      "stateMutability": "view",
      "type": "function"
    },
    {
      "inputs": [
        {
          "internalType": "uint256",
          "name": "",
          "type": "uint256"
        }
      ],
      "name": "BatchTemplateIDs",
      "outputs": [
        {
          "internalType": "uint256",
          "name": "",
          "type": "uint256"
        }
      ],
      "stateMutability": "view",
      "type": "function"
    },
    {
      "inputs": [
        {
          "internalType": "uint256",
          "name": "",
          "type": "uint256"
        }
      ],
      "name": "BatchTemplateMAP",
      "outputs": [
        {
          "internalType": "uint256",
          "name": "BatchTemplateID",
          "type": "uint256"
        },
        {
          "internalType": "uint256",
          "name": "ProductTemplateID",
          "type": "uint256"
        },
        {
          "internalType": "string",
          "name": "Description",
          "type": "string"
        },
        {
          "internalType": "uint256",
          "name": "BatchSize",
          "type": "uint256"
        },
        {
          "internalType": "string",
          "name": "FactoryID",
          "type": "string"
        }
      ],
      "stateMutability": "view",
      "type": "function"
    },
    {
      "inputs": [
        {
          "internalType": "string",
          "name": "",
          "type": "string"
        },
        {
          "internalType": "uint256",
          "name": "",
          "type": "uint256"
        }
      ],
      "name": "CustomerData",
      "outputs": [
        {
          "internalType": "uint256",
          "name": "BatchID",
          "type": "uint256"
        },
        {
          "internalType": "uint256",
          "name": "ProductID",
          "type": "uint256"
        }
      ],
      "stateMutability": "view",
      "type": "function"
    },
    {
      "inputs": [
        {
          "internalType": "string",
          "name": "",
          "type": "string"
        },
        {
          "internalType": "uint256",
          "name": "",
          "type": "uint256"
        }
      ],
      "name": "DistributorIDToRetailerStruct",
      "outputs": [
        {
          "internalType": "string",
          "name": "DistributorID",
          "type": "string"
        },
        {
          "internalType": "string",
          "name": "RetailerID",
          "type": "string"
        },
        {
          "internalType": "uint256",
          "name": "BatchID",
          "type": "uint256"
        },
        {
          "internalType": "uint256",
          "name": "Quantity",
          "type": "uint256"
        },
        {
          "internalType": "string",
          "name": "TimeStamp",
          "type": "string"
        }
      ],
      "stateMutability": "view",
      "type": "function"
    },
    {
      "inputs": [
        {
          "internalType": "uint256",
          "name": "",
          "type": "uint256"
        }
      ],
      "name": "ProductIDs",
      "outputs": [
        {
          "internalType": "uint256",
          "name": "",
          "type": "uint256"
        }
      ],
      "stateMutability": "view",
      "type": "function"
    },
    {
      "inputs": [
        {
          "internalType": "uint256",
          "name": "",
          "type": "uint256"
        }
      ],
      "name": "ProductMapping",
      "outputs": [
        {
          "internalType": "uint256",
          "name": "ProductID",
          "type": "uint256"
        },
        {
          "internalType": "uint256",
          "name": "CompanyProductID",
          "type": "uint256"
        },
        {
          "internalType": "uint256",
          "name": "BatchID",
          "type": "uint256"
        },
        {
          "internalType": "uint256",
          "name": "ProductTemplateID",
          "type": "uint256"
        },
        {
          "internalType": "string",
          "name": "DOM",
          "type": "string"
        },
        {
          "internalType": "string",
          "name": "CustomerID",
          "type": "string"
        },
        {
          "internalType": "string",
          "name": "RetailerID",
          "type": "string"
        },
        {
          "internalType": "bool",
          "name": "RetailerScanned",
          "type": "bool"
        },
        {
          "internalType": "string",
          "name": "RetailerScannedTimeStamp",
          "type": "string"
        },
        {
          "internalType": "string",
          "name": "DateWhenSoldToRetailer",
          "type": "string"
        },
        {
          "internalType": "string",
          "name": "DateWhenSoldToCustomer",
          "type": "string"
        },
        {
          "internalType": "string",
          "name": "RetailerLatitude",
          "type": "string"
        },
        {
          "internalType": "string",
          "name": "RetailerLongitude",
          "type": "string"
        }
      ],
      "stateMutability": "view",
      "type": "function"
    },
    {
      "inputs": [
        {
          "internalType": "uint256",
          "name": "",
          "type": "uint256"
        }
      ],
      "name": "ProductTemplateIDs",
      "outputs": [
        {
          "internalType": "uint256",
          "name": "",
          "type": "uint256"
        }
      ],
      "stateMutability": "view",
      "type": "function"
    },
    {
      "inputs": [
        {
          "internalType": "uint256",
          "name": "",
          "type": "uint256"
        }
      ],
      "name": "ProductTemplateMAP",
      "outputs": [
        {
          "internalType": "uint256",
          "name": "ProductTemplateID",
          "type": "uint256"
        },
        {
          "internalType": "string",
          "name": "Name",
          "type": "string"
        },
        {
          "internalType": "string",
          "name": "Description",
          "type": "string"
        },
        {
          "internalType": "string",
          "name": "FactoryID",
          "type": "string"
        }
      ],
      "stateMutability": "view",
      "type": "function"
    },
    {
      "inputs": [
        {
          "internalType": "string",
          "name": "",
          "type": "string"
        },
        {
          "internalType": "uint256",
          "name": "",
          "type": "uint256"
        }
      ],
      "name": "RetailerIDToRetailerStruct",
      "outputs": [
        {
          "internalType": "string",
          "name": "DistributorID",
          "type": "string"
        },
        {
          "internalType": "string",
          "name": "RetailerID",
          "type": "string"
        },
        {
          "internalType": "uint256",
          "name": "BatchID",
          "type": "uint256"
        },
        {
          "internalType": "uint256",
          "name": "Quantity",
          "type": "uint256"
        },
        {
          "internalType": "string",
          "name": "TimeStamp",
          "type": "string"
        }
      ],
      "stateMutability": "view",
      "type": "function"
    },
    {
      "inputs": [
        {
          "internalType": "uint256",
          "name": "_batchTemplateID",
          "type": "uint256"
        },
        {
          "internalType": "uint256",
          "name": "_productTemplateID",
          "type": "uint256"
        },
        {
          "internalType": "string",
          "name": "_description",
          "type": "string"
        },
        {
          "internalType": "uint256",
          "name": "_batchSize",
          "type": "uint256"
        },
        {
          "internalType": "string",
          "name": "_factoryID",
          "type": "string"
        }
      ],
      "name": "addBatchTemplate",
      "outputs": [],
      "stateMutability": "nonpayable",
      "type": "function"
    },
    {
      "inputs": [
        {
          "internalType": "uint256",
          "name": "_productTemplateID",
          "type": "uint256"
        },
        {
          "internalType": "string",
          "name": "_name",
          "type": "string"
        },
        {
          "internalType": "string",
          "name": "_description",
          "type": "string"
        },
        {
          "internalType": "string",
          "name": "_factoryID",
          "type": "string"
        }
      ],
      "name": "addProductTemplate",
      "outputs": [],
      "stateMutability": "nonpayable",
      "type": "function"
    },
    {
      "inputs": [
        {
          "internalType": "uint256",
          "name": "batchID",
          "type": "uint256"
        },
        {
          "internalType": "uint256",
          "name": "companyBatchID",
          "type": "uint256"
        },
        {
          "internalType": "uint256[]",
          "name": "productIDs",
          "type": "uint256[]"
        },
        {
          "internalType": "uint256[]",
          "name": "companyProductIDs",
          "type": "uint256[]"
        },
        {
          "internalType": "uint256",
          "name": "batchSize",
          "type": "uint256"
        },
        {
          "internalType": "string",
          "name": "batchDescription",
          "type": "string"
        },
        {
          "internalType": "uint256",
          "name": "productTemplateID",
          "type": "uint256"
        },
        {
          "internalType": "string",
          "name": "factory",
          "type": "string"
        },
        {
          "internalType": "string",
          "name": "distributor",
          "type": "string"
        },
        {
          "internalType": "string",
          "name": "factoryLocation",
          "type": "string"
        },
        {
          "internalType": "string",
          "name": "dateOfProduction",
          "type": "string"
        }
      ],
      "name": "batchProduced",
      "outputs": [],
      "stateMutability": "nonpayable",
      "type": "function"
    },
    {
      "inputs": [
        {
          "internalType": "uint256",
          "name": "batchID",
          "type": "uint256"
        },
        {
          "internalType": "string",
          "name": "_distributorID",
          "type": "string"
        },
        {
          "internalType": "string",
          "name": "timeStamp",
          "type": "string"
        }
      ],
      "name": "distributorScansBatch",
      "outputs": [],
      "stateMutability": "nonpayable",
      "type": "function"
    },
    {
      "inputs": [
        {
          "internalType": "uint256",
          "name": "batchID",
          "type": "uint256"
        },
        {
          "internalType": "uint256",
          "name": "quantity",
          "type": "uint256"
        },
        {
          "internalType": "string",
          "name": "retailerID",
          "type": "string"
        },
        {
          "internalType": "string",
          "name": "timeStamp",
          "type": "string"
        }
      ],
      "name": "distributorSellToRetailer",
      "outputs": [],
      "stateMutability": "nonpayable",
      "type": "function"
    },
    {
      "inputs": [],
      "name": "getAllBatchIDs",
      "outputs": [
        {
          "internalType": "uint256[]",
          "name": "",
          "type": "uint256[]"
        }
      ],
      "stateMutability": "view",
      "type": "function"
    },
    {
      "inputs": [],
      "name": "getAllBatchTemplateIDs",
      "outputs": [
        {
          "internalType": "uint256[]",
          "name": "",
          "type": "uint256[]"
        }
      ],
      "stateMutability": "view",
      "type": "function"
    },
    {
      "inputs": [],
      "name": "getAllProductIDs",
      "outputs": [
        {
          "internalType": "uint256[]",
          "name": "",
          "type": "uint256[]"
        }
      ],
      "stateMutability": "view",
      "type": "function"
    },
    {
      "inputs": [],
      "name": "getAllProductTemplateIDs",
      "outputs": [
        {
          "internalType": "uint256[]",
          "name": "",
          "type": "uint256[]"
        }
      ],
      "stateMutability": "view",
      "type": "function"
    },
    {
      "inputs": [
        {
          "internalType": "string",
          "name": "customerID",
          "type": "string"
        }
      ],
      "name": "getAllProductsBought",
      "outputs": [
        {
          "components": [
            {
              "internalType": "uint256",
              "name": "BatchID",
              "type": "uint256"
            },
            {
              "internalType": "uint256",
              "name": "ProductID",
              "type": "uint256"
            }
          ],
          "internalType": "struct Supplychain.Customer[]",
          "name": "",
          "type": "tuple[]"
        }
      ],
      "stateMutability": "view",
      "type": "function"
    },
    {
      "inputs": [
        {
          "internalType": "string",
          "name": "distributorID",
          "type": "string"
        }
      ],
      "name": "getDistributorIDToRetailerStruct",
      "outputs": [
        {
          "components": [
            {
              "internalType": "string",
              "name": "DistributorID",
              "type": "string"
            },
            {
              "internalType": "string",
              "name": "RetailerID",
              "type": "string"
            },
            {
              "internalType": "uint256",
              "name": "BatchID",
              "type": "uint256"
            },
            {
              "internalType": "uint256",
              "name": "Quantity",
              "type": "uint256"
            },
            {
              "internalType": "string",
              "name": "TimeStamp",
              "type": "string"
            }
          ],
          "internalType": "struct Supplychain.Retailer[]",
          "name": "",
          "type": "tuple[]"
        }
      ],
      "stateMutability": "view",
      "type": "function"
    },
    {
      "inputs": [
        {
          "internalType": "uint256",
          "name": "batchID",
          "type": "uint256"
        }
      ],
      "name": "getProductIdsForaBatch",
      "outputs": [
        {
          "internalType": "uint256[]",
          "name": "",
          "type": "uint256[]"
        }
      ],
      "stateMutability": "view",
      "type": "function"
    },
    {
      "inputs": [
        {
          "internalType": "string",
          "name": "retailerID",
          "type": "string"
        }
      ],
      "name": "getRetailerIDToRetailerStruct",
      "outputs": [
        {
          "components": [
            {
              "internalType": "string",
              "name": "DistributorID",
              "type": "string"
            },
            {
              "internalType": "string",
              "name": "RetailerID",
              "type": "string"
            },
            {
              "internalType": "uint256",
              "name": "BatchID",
              "type": "uint256"
            },
            {
              "internalType": "uint256",
              "name": "Quantity",
              "type": "uint256"
            },
            {
              "internalType": "string",
              "name": "TimeStamp",
              "type": "string"
            }
          ],
          "internalType": "struct Supplychain.Retailer[]",
          "name": "",
          "type": "tuple[]"
        }
      ],
      "stateMutability": "view",
      "type": "function"
    },
    {
      "inputs": [
        {
          "internalType": "uint256",
          "name": "_productID",
          "type": "uint256"
        },
        {
          "internalType": "string",
          "name": "_retailerID",
          "type": "string"
        },
        {
          "internalType": "string",
          "name": "timeStamp",
          "type": "string"
        },
        {
          "internalType": "string",
          "name": "latitude",
          "type": "string"
        },
        {
          "internalType": "string",
          "name": "longitude",
          "type": "string"
        }
      ],
      "name": "retailerScansProduct",
      "outputs": [],
      "stateMutability": "nonpayable",
      "type": "function"
    },
    {
      "inputs": [
        {
          "internalType": "uint256",
          "name": "batchID",
          "type": "uint256"
        },
        {
          "internalType": "uint256",
          "name": "productID",
          "type": "uint256"
        },
        {
          "internalType": "string",
          "name": "customerID",
          "type": "string"
        },
        {
          "internalType": "string",
          "name": "timeStamp",
          "type": "string"
        }
      ],
      "name": "retailerSellToCustomer",
      "outputs": [],
      "stateMutability": "nonpayable",
      "type": "function"
    }
  ],
  "bytecode": "0x608060405234801561001057600080fd5b50613c0c806100206000396000f3fe608060405234801561001057600080fd5b50600436106101a95760003560e01c80638272d34b116100f9578063ab6e3ec511610097578063e139f99411610071578063e139f994146103c3578063e3c6a4ac146103e7578063eac0e977146103fa578063ee55fae21461042657600080fd5b8063ab6e3ec514610370578063b84a6f2214610383578063bf801df11461039657600080fd5b80638e5452b8116100d35780638e5452b81461032457806390973cce14610337578063a78317f81461034a578063a7a4523d1461035d57600080fd5b80638272d34b146102f65780638bd42880146103095780638c4c42cd1461031c57600080fd5b80633b7d255c1161016657806371d1dc0c1161014057806371d1dc0c14610287578063793560dd146102aa5780637ae4ee04146102b25780637f7bf690146102d657600080fd5b80633b7d255c146102645780634c27729c1461026c5780634ca20f341461027457600080fd5b806316705686146101ae57806321f29391146101c3578063278338e8146101f0578063284328d014610203578063392a70a6146102235780633ab95f3014610243575b600080fd5b6101c16101bc366004613126565b610439565b005b6101d66101d1366004613276565b6109bf565b604080519283526020830191909152015b60405180910390f35b6101c16101fe3660046132bb565b610a0a565b61021661021136600461334d565b610b28565b6040516101e7919061338a565b6102366102313660046133d9565b610bb9565b6040516101e791906133f2565b6102566102513660046133d9565b610c1b565b6040519081526020016101e7565b610236610c3c565b610236610c94565b6102566102823660046133d9565b610cea565b61029a6102953660046133d9565b610cfa565b6040516101e79493929190613486565b610236610ebb565b6102c56102c03660046133d9565b610f11565b6040516101e79594939291906134c5565b6102e96102e436600461334d565b611050565b6040516101e79190613508565b6101c16103043660046135bf565b61128c565b6102566103173660046133d9565b6113f4565b610236611404565b6101c161033236600461362c565b61145a565b6102566103453660046136ad565b6115f4565b6102566103583660046133d9565b611625565b6102e961036b36600461334d565b611635565b6101c161037e3660046136cf565b611871565b6101c161039136600461376c565b611a16565b6103a96103a43660046133d9565b611ad2565b6040516101e79e9d9c9b9a999897969594939291906137a8565b6103d66103d1366004613276565b611e71565b6040516101e795949392919061386f565b6103d66103f5366004613276565b611fe8565b61040d6104083660046133d9565b612013565b6040516101e79d9c9b9a999897969594939291906138b4565b6101c161043436600461376c565b6124bd565b6104428b612e52565b156104a05760405162461bcd60e51b8152602060048201526024808201527f4261746368494420616c72656164792065786973747320696e207468652073796044820152637374656d60e01b60648201526084015b60405180910390fd5b868951146105165760405162461bcd60e51b815260206004820152603760248201527f53697a65206f662070726f6475637449447320617272617920646f6573206e6f60448201527f74206d6174636820776974682042617463682073697a650000000000000000006064820152608401610497565b604051806101c001604052808c815260200188815260200160008152602001878152602001868152602001858152602001848152602001838152602001828152602001600081526020016000151581526020016040518060200160405280600081525081526020018881526020018b815250600760008d815260200190815260200160002060008201518160000155602082015181600101556040820151816002015560608201518160030190816105ce9190613a13565b506080820151600482015560a082015160058201906105ed9082613a13565b5060c082015160068201906106029082613a13565b5060e082015160078201906106179082613a13565b50610100820151600882019061062d9082613a13565b506101208201516009820155610140820151600a8201805460ff1916911515919091179055610160820151600b8201906106679082613a13565b50610180820151600c8201556101a090910151600d9091015560038054600181019091557fc2575a0e9e593c00f959f8c92f12db2869c3395a3b0502d05e2516446f71f85b018b905560008b81526008602090815260409091208a516106cf928c0190612f8f565b5060005b878110156109b1576106fd8a82815181106106f0576106f0613ad3565b6020026020010151612ea8565b156107595760405162461bcd60e51b815260206004820152602660248201527f50726f64756374494420616c72656164792065786973747320696e207468652060448201526573797374656d60d01b6064820152608401610497565b604051806101a001604052808b838151811061077757610777613ad3565b602002602001015181526020018a838151811061079657610796613ad3565b602002602001015181526020018d815260200187815260200183815260200160405180602001604052806000815250815260200160405180602001604052806000815250815260200160001515815260200160405180602001604052806000815250815260200160405180602001604052806000815250815260200160405180602001604052806000815250815260200160405180602001604052806000815250815260200160405180602001604052806000815250815250600660008c848151811061086557610865613ad3565b602002602001015181526020019081526020016000206000820151816000015560208201518160010155604082015181600201556060820151816003015560808201518160040190816108b89190613a13565b5060a082015160058201906108cd9082613a13565b5060c082015160068201906108e29082613a13565b5060e082015160078201805460ff191691151591909117905561010082015160088201906109109082613a13565b5061012082015160098201906109269082613a13565b50610140820151600a82019061093c9082613a13565b50610160820151600b8201906109529082613a13565b50610180820151600c8201906109689082613a13565b5090505060028a828151811061098057610980613ad3565b60209081029190910181015182546001810184556000938452919092200155806109a981613aff565b9150506106d3565b505050505050505050505050565b815160208184018101805160098252928201918501919091209190528054829081106109ea57600080fd5b600091825260209091206002909102018054600190910154909250905082565b610a1384612ef5565b15610a7c5760405162461bcd60e51b815260206004820152603360248201527f546869732050726f6475637454656d706c617465494420616c72656164792065604482015272786973747320696e207468652073797374656d60681b6064820152608401610497565b60408051608081018252858152602080820186815282840186905260608301859052600088815260049092529290208151815591519091906001820190610ac39082613a13565b5060408201516002820190610ad89082613a13565b5060608201516003820190610aed9082613a13565b5050600080546001810182559080527f290decd9548b62a8d60345a988386fc84ba6bc95484008f6362f93160ef3e563019490945550505050565b6060600982604051610b3a9190613b18565b9081526020016040518091039020805480602002602001604051908101604052809291908181526020016000905b82821015610bae57838290600052602060002090600202016040518060400160405290816000820154815260200160018201548152505081526020019060010190610b68565b505050509050919050565b600081815260086020908152604091829020805483518184028101840190945280845260609392830182828015610c0f57602002820191906000526020600020905b815481526020019060010190808311610bfb575b50505050509050919050565b60008181548110610c2b57600080fd5b600091825260209091200154905081565b60606000805480602002602001604051908101604052809291908181526020018280548015610c8a57602002820191906000526020600020905b815481526020019060010190808311610c76575b5050505050905090565b60606001805480602002602001604051908101604052809291908181526020018280548015610c8a5760200282019190600052602060002090815481526020019060010190808311610c76575050505050905090565b60018181548110610c2b57600080fd5b60046020526000908152604090208054600182018054919291610d1c9061398e565b80601f0160208091040260200160405190810160405280929190818152602001828054610d489061398e565b8015610d955780601f10610d6a57610100808354040283529160200191610d95565b820191906000526020600020905b815481529060010190602001808311610d7857829003601f168201915b505050505090806002018054610daa9061398e565b80601f0160208091040260200160405190810160405280929190818152602001828054610dd69061398e565b8015610e235780601f10610df857610100808354040283529160200191610e23565b820191906000526020600020905b815481529060010190602001808311610e0657829003601f168201915b505050505090806003018054610e389061398e565b80601f0160208091040260200160405190810160405280929190818152602001828054610e649061398e565b8015610eb15780601f10610e8657610100808354040283529160200191610eb1565b820191906000526020600020905b815481529060010190602001808311610e9457829003601f168201915b5050505050905084565b60606003805480602002602001604051908101604052809291908181526020018280548015610c8a5760200282019190600052602060002090815481526020019060010190808311610c76575050505050905090565b60056020526000908152604090208054600182015460028301805492939192610f399061398e565b80601f0160208091040260200160405190810160405280929190818152602001828054610f659061398e565b8015610fb25780601f10610f8757610100808354040283529160200191610fb2565b820191906000526020600020905b815481529060010190602001808311610f9557829003601f168201915b505050505090806003015490806004018054610fcd9061398e565b80601f0160208091040260200160405190810160405280929190818152602001828054610ff99061398e565b80156110465780601f1061101b57610100808354040283529160200191611046565b820191906000526020600020905b81548152906001019060200180831161102957829003601f168201915b5050505050905085565b6060600a826040516110629190613b18565b9081526020016040518091039020805480602002602001604051908101604052809291908181526020016000905b82821015610bae57838290600052602060002090600502016040518060a00160405290816000820180546110c39061398e565b80601f01602080910402602001604051908101604052809291908181526020018280546110ef9061398e565b801561113c5780601f106111115761010080835404028352916020019161113c565b820191906000526020600020905b81548152906001019060200180831161111f57829003601f168201915b505050505081526020016001820180546111559061398e565b80601f01602080910402602001604051908101604052809291908181526020018280546111819061398e565b80156111ce5780601f106111a3576101008083540402835291602001916111ce565b820191906000526020600020905b8154815290600101906020018083116111b157829003601f168201915b5050505050815260200160028201548152602001600382015481526020016004820180546111fb9061398e565b80601f01602080910402602001604051908101604052809291908181526020018280546112279061398e565b80156112745780601f1061124957610100808354040283529160200191611274565b820191906000526020600020905b81548152906001019060200180831161125757829003601f168201915b50505050508152505081526020019060010190611090565b6000838152600760205260409020600a015460ff16156113075760405162461bcd60e51b815260206004820152603060248201527f5468697320626174636820697320616c7265616479207363616e6e656420627960448201526f103a3432903234b9ba3934b13aba37b960811b6064820152608401610497565b816040516020016113189190613b18565b60408051601f19818403018152828252805160209182012060008781526007835292909220919261134d926006019101613b34565b60405160208183030381529060405280519060200120146113c45760405162461bcd60e51b815260206004820152602b60248201527f54686973206261746368206973206e6f74206f776e656420627920746869732060448201526a3234b9ba3934b13aba37b960a91b6064820152608401610497565b6000838152600760205260409020600a8101805460ff19166001179055600b016113ee8282613a13565b50505050565b60038181548110610c2b57600080fd5b60606002805480602002602001604051908101604052809291908181526020018280548015610c8a5760200282019190600052602060002090815481526020019060010190808311610c76575050505050905090565b61146385612f42565b156114ca5760405162461bcd60e51b815260206004820152603160248201527f5468697320426174636854656d706c617465494420616c72656164792065786960448201527073747320696e207468652073797374656d60781b6064820152608401610497565b6114d384612ef5565b15156001146115415760405162461bcd60e51b815260206004820152603460248201527f546869732050726f6475637454656d706c617465494420646f6573206e6f742060448201527365786973747320696e207468652073797374656d60601b6064820152608401610497565b6040805160a0810182528681526020808201878152828401878152606084018790526080840186905260008a81526005909352939091208251815590516001820155915190919060028201906115979082613a13565b5060608201516003820155608082015160048201906115b69082613a13565b50506001805480820182556000919091527fb10e2d527612073b26eecdfd717e6a320cf44b4afac2b0732d9fcbe2b7fa0cf601959095555050505050565b6008602052816000526040600020818154811061161057600080fd5b90600052602060002001600091509150505481565b60028181548110610c2b57600080fd5b6060600b826040516116479190613b18565b9081526020016040518091039020805480602002602001604051908101604052809291908181526020016000905b82821015610bae57838290600052602060002090600502016040518060a00160405290816000820180546116a89061398e565b80601f01602080910402602001604051908101604052809291908181526020018280546116d49061398e565b80156117215780601f106116f657610100808354040283529160200191611721565b820191906000526020600020905b81548152906001019060200180831161170457829003601f168201915b5050505050815260200160018201805461173a9061398e565b80601f01602080910402602001604051908101604052809291908181526020018280546117669061398e565b80156117b35780601f10611788576101008083540402835291602001916117b3565b820191906000526020600020905b81548152906001019060200180831161179657829003601f168201915b5050505050815260200160028201548152602001600382015481526020016004820180546117e09061398e565b80601f016020809104026020016040519081016040528092919081815260200182805461180c9061398e565b80156118595780601f1061182e57610100808354040283529160200191611859565b820191906000526020600020905b81548152906001019060200180831161183c57829003601f168201915b50505050508152505081526020019060010190611675565b60008581526006602052604090206007015460ff16156118e95760405162461bcd60e51b815260206004820152602d60248201527f5468697320626174636820697320616c7265616479207363616e6e656420627960448201526c103a3432903932ba30b4b632b960991b6064820152608401610497565b836040516020016118fa9190613b18565b60405160208183030381529060405280519060200120600660008781526020019081526020016000206006016040516020016119369190613b34565b60405160208183030381529060405280519060200120146119ac5760405162461bcd60e51b815260206004820152602a60248201527f546869732070726f64756374206973206e6f74206f776e65642062792074686960448201526939903932ba30b4b632b960b11b6064820152608401610497565b600085815260066020526040902060078101805460ff191660011790556008016119d68482613a13565b506000858152600660205260409020600b016119f28382613a13565b506000858152600660205260409020600c01611a0e8282613a13565b505050505050565b6000848152600760205260408120600201805460019290611a38908490613baa565b90915550506000838152600660205260409020600501611a588382613a13565b506000838152600660205260409020600a01611a748282613a13565b50600982604051611a859190613b18565b908152604080516020928190038301812081830190925295865281860194855280546001808201835560009283529290912095516002909102909501948555925193909201929092555050565b600760205260009081526040902080546001820154600283015460038401805493949293919291611b029061398e565b80601f0160208091040260200160405190810160405280929190818152602001828054611b2e9061398e565b8015611b7b5780601f10611b5057610100808354040283529160200191611b7b565b820191906000526020600020905b815481529060010190602001808311611b5e57829003601f168201915b505050505090806004015490806005018054611b969061398e565b80601f0160208091040260200160405190810160405280929190818152602001828054611bc29061398e565b8015611c0f5780601f10611be457610100808354040283529160200191611c0f565b820191906000526020600020905b815481529060010190602001808311611bf257829003601f168201915b505050505090806006018054611c249061398e565b80601f0160208091040260200160405190810160405280929190818152602001828054611c509061398e565b8015611c9d5780601f10611c7257610100808354040283529160200191611c9d565b820191906000526020600020905b815481529060010190602001808311611c8057829003601f168201915b505050505090806007018054611cb29061398e565b80601f0160208091040260200160405190810160405280929190818152602001828054611cde9061398e565b8015611d2b5780601f10611d0057610100808354040283529160200191611d2b565b820191906000526020600020905b815481529060010190602001808311611d0e57829003601f168201915b505050505090806008018054611d409061398e565b80601f0160208091040260200160405190810160405280929190818152602001828054611d6c9061398e565b8015611db95780601f10611d8e57610100808354040283529160200191611db9565b820191906000526020600020905b815481529060010190602001808311611d9c57829003601f168201915b505050506009830154600a840154600b850180549495929460ff909216935090611de29061398e565b80601f0160208091040260200160405190810160405280929190818152602001828054611e0e9061398e565b8015611e5b5780601f10611e3057610100808354040283529160200191611e5b565b820191906000526020600020905b815481529060010190602001808311611e3e57829003601f168201915b50505050509080600c01549080600d015490508e565b8151602081840181018051600a825292820191850191909120919052805482908110611e9c57600080fd5b906000526020600020906005020160009150915050806000018054611ec09061398e565b80601f0160208091040260200160405190810160405280929190818152602001828054611eec9061398e565b8015611f395780601f10611f0e57610100808354040283529160200191611f39565b820191906000526020600020905b815481529060010190602001808311611f1c57829003601f168201915b505050505090806001018054611f4e9061398e565b80601f0160208091040260200160405190810160405280929190818152602001828054611f7a9061398e565b8015611fc75780601f10611f9c57610100808354040283529160200191611fc7565b820191906000526020600020905b815481529060010190602001808311611faa57829003601f168201915b505050505090806002015490806003015490806004018054610fcd9061398e565b8151602081840181018051600b825292820191850191909120919052805482908110611e9c57600080fd5b6006602052600090815260409020805460018201546002830154600384015460048501805494959394929391926120499061398e565b80601f01602080910402602001604051908101604052809291908181526020018280546120759061398e565b80156120c25780601f10612097576101008083540402835291602001916120c2565b820191906000526020600020905b8154815290600101906020018083116120a557829003601f168201915b5050505050908060050180546120d79061398e565b80601f01602080910402602001604051908101604052809291908181526020018280546121039061398e565b80156121505780601f1061212557610100808354040283529160200191612150565b820191906000526020600020905b81548152906001019060200180831161213357829003601f168201915b5050505050908060060180546121659061398e565b80601f01602080910402602001604051908101604052809291908181526020018280546121919061398e565b80156121de5780601f106121b3576101008083540402835291602001916121de565b820191906000526020600020905b8154815290600101906020018083116121c157829003601f168201915b5050506007840154600885018054949560ff9092169491935091506122029061398e565b80601f016020809104026020016040519081016040528092919081815260200182805461222e9061398e565b801561227b5780601f106122505761010080835404028352916020019161227b565b820191906000526020600020905b81548152906001019060200180831161225e57829003601f168201915b5050505050908060090180546122909061398e565b80601f01602080910402602001604051908101604052809291908181526020018280546122bc9061398e565b80156123095780601f106122de57610100808354040283529160200191612309565b820191906000526020600020905b8154815290600101906020018083116122ec57829003601f168201915b50505050509080600a01805461231e9061398e565b80601f016020809104026020016040519081016040528092919081815260200182805461234a9061398e565b80156123975780601f1061236c57610100808354040283529160200191612397565b820191906000526020600020905b81548152906001019060200180831161237a57829003601f168201915b50505050509080600b0180546123ac9061398e565b80601f01602080910402602001604051908101604052809291908181526020018280546123d89061398e565b80156124255780601f106123fa57610100808354040283529160200191612425565b820191906000526020600020905b81548152906001019060200180831161240857829003601f168201915b50505050509080600c01805461243a9061398e565b80601f01602080910402602001604051908101604052809291908181526020018280546124669061398e565b80156124b35780601f10612488576101008083540402835291602001916124b3565b820191906000526020600020905b81548152906001019060200180831161249657829003601f168201915b505050505090508d565b6000848152600760205260408120600c8101546001820154600690920180549193916124e89061398e565b80601f01602080910402602001604051908101604052809291908181526020018280546125149061398e565b80156125615780601f1061253657610100808354040283529160200191612561565b820191906000526020600020905b81548152906001019060200180831161254457829003601f168201915b50505050509050858310156125e85760405162461bcd60e51b815260206004820152604160248201527f5175616e746974792069732067726561746572207468616e2074686520616d6f60448201527f756e74206c65667420746f20626520736f6c6420696e207468697320626174636064820152600d60fb1b608482015260a401610497565b600086116126385760405162461bcd60e51b815260206004820152601760248201527f5175616e746974792063616e6e6f74206265207a65726f0000000000000000006044820152606401610497565b60006126448484613bc3565b60008981526008602090815260408083208054825181850281018501909352808352949550929390929183018282801561269d57602002820191906000526020600020905b815481526020019060010190808311612689575b509394508593505050505b6126b28984613baa565b811015612ce75760008282815181106126cd576126cd613ad3565b60200260200101519050600060066000838152602001908152602001600020604051806101a0016040529081600082015481526020016001820154815260200160028201548152602001600382015481526020016004820180546127309061398e565b80601f016020809104026020016040519081016040528092919081815260200182805461275c9061398e565b80156127a95780601f1061277e576101008083540402835291602001916127a9565b820191906000526020600020905b81548152906001019060200180831161278c57829003601f168201915b505050505081526020016005820180546127c29061398e565b80601f01602080910402602001604051908101604052809291908181526020018280546127ee9061398e565b801561283b5780601f106128105761010080835404028352916020019161283b565b820191906000526020600020905b81548152906001019060200180831161281e57829003601f168201915b505050505081526020016006820180546128549061398e565b80601f01602080910402602001604051908101604052809291908181526020018280546128809061398e565b80156128cd5780601f106128a2576101008083540402835291602001916128cd565b820191906000526020600020905b8154815290600101906020018083116128b057829003601f168201915b5050509183525050600782015460ff16151560208201526008820180546040909201916128f99061398e565b80601f01602080910402602001604051908101604052809291908181526020018280546129259061398e565b80156129725780601f1061294757610100808354040283529160200191612972565b820191906000526020600020905b81548152906001019060200180831161295557829003601f168201915b5050505050815260200160098201805461298b9061398e565b80601f01602080910402602001604051908101604052809291908181526020018280546129b79061398e565b8015612a045780601f106129d957610100808354040283529160200191612a04565b820191906000526020600020905b8154815290600101906020018083116129e757829003601f168201915b50505050508152602001600a82018054612a1d9061398e565b80601f0160208091040260200160405190810160405280929190818152602001828054612a499061398e565b8015612a965780601f10612a6b57610100808354040283529160200191612a96565b820191906000526020600020905b815481529060010190602001808311612a7957829003601f168201915b50505050508152602001600b82018054612aaf9061398e565b80601f0160208091040260200160405190810160405280929190818152602001828054612adb9061398e565b8015612b285780601f10612afd57610100808354040283529160200191612b28565b820191906000526020600020905b815481529060010190602001808311612b0b57829003601f168201915b50505050508152602001600c82018054612b419061398e565b80601f0160208091040260200160405190810160405280929190818152602001828054612b6d9061398e565b8015612bba5780601f10612b8f57610100808354040283529160200191612bba565b820191906000526020600020905b815481529060010190602001808311612b9d57829003601f168201915b5050509190925250505060c081018b905261012081018a90526000838152600660209081526040918290208351815590830151600182015590820151600282015560608201516003820155608082015191925082916004820190612c1e9082613a13565b5060a08201516005820190612c339082613a13565b5060c08201516006820190612c489082613a13565b5060e082015160078201805460ff19169115159190911790556101008201516008820190612c769082613a13565b506101208201516009820190612c8c9082613a13565b50610140820151600a820190612ca29082613a13565b50610160820151600b820190612cb89082613a13565b50610180820151600c820190612cce9082613a13565b5090505050508080612cdf90613aff565b9150506126a8565b506000898152600760205260408120600c0180548a9290612d09908490613bc3565b90915550506040805160a081018252848152602081018990528082018b9052606081018a9052608081018890529051600a90612d46908690613b18565b908152604051602091819003820190208054600181018255600091825291902082518392600502909101908190612d7d9082613a13565b5060208201516001820190612d929082613a13565b50604082015160028201556060820151600382015560808201516004820190612dbb9082613a13565b505050600b88604051612dce9190613b18565b908152604051602091819003820190208054600181018255600091825291902082518392600502909101908190612e059082613a13565b5060208201516001820190612e1a9082613a13565b50604082015160028201556060820151600382015560808201516004820190612e439082613a13565b50505050505050505050505050565b6000805b600354811015612e9f578260038281548110612e7457612e74613ad3565b906000526020600020015403612e8d5750600192915050565b80612e9781613aff565b915050612e56565b50600092915050565b6000805b600254811015612e9f578260028281548110612eca57612eca613ad3565b906000526020600020015403612ee35750600192915050565b80612eed81613aff565b915050612eac565b6000805b600054811015612e9f578260008281548110612f1757612f17613ad3565b906000526020600020015403612f305750600192915050565b80612f3a81613aff565b915050612ef9565b6000805b600154811015612e9f578260018281548110612f6457612f64613ad3565b906000526020600020015403612f7d5750600192915050565b80612f8781613aff565b915050612f46565b828054828255906000526020600020908101928215612fca579160200282015b82811115612fca578251825591602001919060010190612faf565b50612fd6929150612fda565b5090565b5b80821115612fd65760008155600101612fdb565b634e487b7160e01b600052604160045260246000fd5b604051601f8201601f1916810167ffffffffffffffff8111828210171561302e5761302e612fef565b604052919050565b600082601f83011261304757600080fd5b8135602067ffffffffffffffff82111561306357613063612fef565b8160051b613072828201613005565b928352848101820192828101908785111561308c57600080fd5b83870192505b848310156130ab57823582529183019190830190613092565b979650505050505050565b600082601f8301126130c757600080fd5b813567ffffffffffffffff8111156130e1576130e1612fef565b6130f4601f8201601f1916602001613005565b81815284602083860101111561310957600080fd5b816020850160208301376000918101602001919091529392505050565b60008060008060008060008060008060006101608c8e03121561314857600080fd5b8b359a5060208c0135995067ffffffffffffffff8060408e0135111561316d57600080fd5b61317d8e60408f01358f01613036565b99508060608e0135111561319057600080fd5b6131a08e60608f01358f01613036565b985060808d013597508060a08e013511156131ba57600080fd5b6131ca8e60a08f01358f016130b6565b965060c08d013595508060e08e013511156131e457600080fd5b6131f48e60e08f01358f016130b6565b9450806101008e0135111561320857600080fd5b6132198e6101008f01358f016130b6565b9350806101208e0135111561322d57600080fd5b61323e8e6101208f01358f016130b6565b9250806101408e0135111561325257600080fd5b506132648d6101408e01358e016130b6565b90509295989b509295989b9093969950565b6000806040838503121561328957600080fd5b823567ffffffffffffffff8111156132a057600080fd5b6132ac858286016130b6565b95602094909401359450505050565b600080600080608085870312156132d157600080fd5b84359350602085013567ffffffffffffffff808211156132f057600080fd5b6132fc888389016130b6565b9450604087013591508082111561331257600080fd5b61331e888389016130b6565b9350606087013591508082111561333457600080fd5b50613341878288016130b6565b91505092959194509250565b60006020828403121561335f57600080fd5b813567ffffffffffffffff81111561337657600080fd5b613382848285016130b6565b949350505050565b602080825282518282018190526000919060409081850190868401855b828110156133cc578151805185528601518685015292840192908501906001016133a7565b5091979650505050505050565b6000602082840312156133eb57600080fd5b5035919050565b6020808252825182820181905260009190848201906040850190845b8181101561342a5783518352928401929184019160010161340e565b50909695505050505050565b60005b83811015613451578181015183820152602001613439565b50506000910152565b60008151808452613472816020860160208601613436565b601f01601f19169290920160200192915050565b84815260806020820152600061349f608083018661345a565b82810360408401526134b1818661345a565b905082810360608401526130ab818561345a565b85815284602082015260a0604082015260006134e460a083018661345a565b84606084015282810360808401526134fc818561345a565b98975050505050505050565b60006020808301818452808551808352604092508286019150828160051b87010184880160005b838110156135b157603f19898403018552815160a081518186526135558287018261345a565b915050888201518582038a87015261356d828261345a565b915050878201518886015260608083015181870152506080808301519250858203818701525061359d818361345a565b96890196945050509086019060010161352f565b509098975050505050505050565b6000806000606084860312156135d457600080fd5b83359250602084013567ffffffffffffffff808211156135f357600080fd5b6135ff878388016130b6565b9350604086013591508082111561361557600080fd5b50613622868287016130b6565b9150509250925092565b600080600080600060a0868803121561364457600080fd5b8535945060208601359350604086013567ffffffffffffffff8082111561366a57600080fd5b61367689838a016130b6565b945060608801359350608088013591508082111561369357600080fd5b506136a0888289016130b6565b9150509295509295909350565b600080604083850312156136c057600080fd5b50508035926020909101359150565b600080600080600060a086880312156136e757600080fd5b85359450602086013567ffffffffffffffff8082111561370657600080fd5b61371289838a016130b6565b9550604088013591508082111561372857600080fd5b61373489838a016130b6565b9450606088013591508082111561374a57600080fd5b61375689838a016130b6565b9350608088013591508082111561369357600080fd5b6000806000806080858703121561378257600080fd5b8435935060208501359250604085013567ffffffffffffffff8082111561331257600080fd5b8e81528d60208201528c60408201526101c0606082015260006137cf6101c083018e61345a565b8c608084015282810360a08401526137e7818d61345a565b905082810360c08401526137fb818c61345a565b905082810360e084015261380f818b61345a565b9050828103610100840152613824818a61345a565b90508761012084015261383c61014084018815159052565b82810361016084015261384f818761345a565b61018084019590955250506101a001529c9b505050505050505050505050565b60a08152600061388260a083018861345a565b8281036020840152613894818861345a565b905085604084015284606084015282810360808401526134fc818561345a565b60006101a08f83528e60208401528d60408401528c60608401528060808401526138e08184018d61345a565b905082810360a08401526138f4818c61345a565b905082810360c0840152613908818b61345a565b89151560e08501529050828103610100840152613925818961345a565b905082810361012084015261393a818861345a565b905082810361014084015261394f818761345a565b9050828103610160840152613964818661345a565b9050828103610180840152613979818561345a565b9150509e9d5050505050505050505050505050565b600181811c908216806139a257607f821691505b6020821081036139c257634e487b7160e01b600052602260045260246000fd5b50919050565b601f821115613a0e57600081815260208120601f850160051c810160208610156139ef5750805b601f850160051c820191505b81811015611a0e578281556001016139fb565b505050565b815167ffffffffffffffff811115613a2d57613a2d612fef565b613a4181613a3b845461398e565b846139c8565b602080601f831160018114613a765760008415613a5e5750858301515b600019600386901b1c1916600185901b178555611a0e565b600085815260208120601f198616915b82811015613aa557888601518255948401946001909101908401613a86565b5085821015613ac35787850151600019600388901b60f8161c191681555b5050505050600190811b01905550565b634e487b7160e01b600052603260045260246000fd5b634e487b7160e01b600052601160045260246000fd5b600060018201613b1157613b11613ae9565b5060010190565b60008251613b2a818460208701613436565b9190910192915050565b6000808354613b428161398e565b60018281168015613b5a5760018114613b6f57613b9e565b60ff1984168752821515830287019450613b9e565b8760005260208060002060005b85811015613b955781548a820152908401908201613b7c565b50505082870194505b50929695505050505050565b80820180821115613bbd57613bbd613ae9565b92915050565b81810381811115613bbd57613bbd613ae956fea2646970667358221220b0f68a5b9881a9351c3dcf55bbbe36784942f5ff96fd00a876685af027be8b4364736f6c63430008110033",
  "linkReferences": {},
  "deployedLinkReferences": {}
}