{
  "_format": "hh-sol-artifact-1",
  "contractName": "Supplychain",
  "sourceName": "contracts/Supplychain.sol",
  "abi": [
    {
      "inputs": [
        {
          "internalType": "uint256",
          "name": "",
          "type": "uint256"
        },
        {
          "internalType": "uint256",
          "name": "",
          "type": "uint256"
        }
      ],
      "name": "BatchIDToProductIDMapping",
      "outputs": [
        {
          "internalType": "uint256",
          "name": "",
          "type": "uint256"
        }
      ],
      "stateMutability": "view",
      "type": "function"
    },
    {
      "inputs": [
        {
          "internalType": "uint256",
          "name": "",
          "type": "uint256"
        }
      ],
      "name": "BatchIDs",
      "outputs": [
        {
          "internalType": "uint256",
          "name": "",
          "type": "uint256"
        }
      ],
      "stateMutability": "view",
      "type": "function"
    },
    {
      "inputs": [
        {
          "internalType": "uint256",
          "name": "",
          "type": "uint256"
        }
      ],
      "name": "BatchMapping",
      "outputs": [
        {
          "internalType": "uint256",
          "name": "BatchID",
          "type": "uint256"
        },
        {
          "internalType": "uint256",
          "name": "BatchSize",
          "type": "uint256"
        },
        {
          "internalType": "uint256",
          "name": "AmountSoldTOCustomer",
          "type": "uint256"
        },
        {
          "internalType": "string",
          "name": "BatchDescription",
          "type": "string"
        },
        {
          "internalType": "uint256",
          "name": "ProductTemplateID",
          "type": "uint256"
        },
        {
          "internalType": "string",
          "name": "FactoryID",
          "type": "string"
        },
        {
          "internalType": "string",
          "name": "DistributorID",
          "type": "string"
        },
        {
          "internalType": "string",
          "name": "FactoryLocation",
          "type": "string"
        },
        {
          "internalType": "string",
          "name": "DateOfProduction",
          "type": "string"
        },
        {
          "internalType": "uint256",
          "name": "State",
          "type": "uint256"
        },
        {
          "internalType": "bool",
          "name": "DistributorScanned",
          "type": "bool"
        },
        {
          "internalType": "string",
          "name": "DistributorScannedTimeStamp",
          "type": "string"
        },
        {
          "internalType": "uint256",
          "name": "AmountLeftForSellingTORetailer",
          "type": "uint256"
        },
        {
          "internalType": "uint256",
          "name": "CompanyBatchID",
          "type": "uint256"
        }
      ],
      "stateMutability": "view",
      "type": "function"
    },
    {
      "inputs": [
        {
          "internalType": "uint256",
          "name": "",
          "type": "uint256"
        }
      ],
      "name": "BatchTemplateIDs",
      "outputs": [
        {
          "internalType": "uint256",
          "name": "",
          "type": "uint256"
        }
      ],
      "stateMutability": "view",
      "type": "function"
    },
    {
      "inputs": [
        {
          "internalType": "uint256",
          "name": "",
          "type": "uint256"
        }
      ],
      "name": "BatchTemplateMAP",
      "outputs": [
        {
          "internalType": "uint256",
          "name": "BatchTemplateID",
          "type": "uint256"
        },
        {
          "internalType": "uint256",
          "name": "ProductTemplateID",
          "type": "uint256"
        },
        {
          "internalType": "string",
          "name": "Description",
          "type": "string"
        },
        {
          "internalType": "uint256",
          "name": "BatchSize",
          "type": "uint256"
        },
        {
          "internalType": "string",
          "name": "FactoryID",
          "type": "string"
        }
      ],
      "stateMutability": "view",
      "type": "function"
    },
    {
      "inputs": [
        {
          "internalType": "string",
          "name": "",
          "type": "string"
        },
        {
          "internalType": "uint256",
          "name": "",
          "type": "uint256"
        }
      ],
      "name": "CustomerData",
      "outputs": [
        {
          "internalType": "uint256",
          "name": "BatchID",
          "type": "uint256"
        },
        {
          "internalType": "uint256",
          "name": "ProductID",
          "type": "uint256"
        },
        {
          "internalType": "string",
          "name": "CustomerID",
          "type": "string"
        },
        {
          "internalType": "string",
          "name": "CustomerName",
          "type": "string"
        }
      ],
      "stateMutability": "view",
      "type": "function"
    },
    {
      "inputs": [
        {
          "internalType": "string",
          "name": "",
          "type": "string"
        },
        {
          "internalType": "uint256",
          "name": "",
          "type": "uint256"
        }
      ],
      "name": "DistributorIDToRetailerStruct",
      "outputs": [
        {
          "internalType": "string",
          "name": "DistributorID",
          "type": "string"
        },
        {
          "internalType": "string",
          "name": "RetailerID",
          "type": "string"
        },
        {
          "internalType": "uint256",
          "name": "BatchID",
          "type": "uint256"
        },
        {
          "internalType": "uint256",
          "name": "Quantity",
          "type": "uint256"
        },
        {
          "internalType": "string",
          "name": "TimeStamp",
          "type": "string"
        }
      ],
      "stateMutability": "view",
      "type": "function"
    },
    {
      "inputs": [
        {
          "internalType": "uint256",
          "name": "",
          "type": "uint256"
        }
      ],
      "name": "ProductIDs",
      "outputs": [
        {
          "internalType": "uint256",
          "name": "",
          "type": "uint256"
        }
      ],
      "stateMutability": "view",
      "type": "function"
    },
    {
      "inputs": [
        {
          "internalType": "uint256",
          "name": "",
          "type": "uint256"
        }
      ],
      "name": "ProductMapping",
      "outputs": [
        {
          "internalType": "uint256",
          "name": "ProductID",
          "type": "uint256"
        },
        {
          "internalType": "uint256",
          "name": "CompanyProductID",
          "type": "uint256"
        },
        {
          "internalType": "uint256",
          "name": "BatchID",
          "type": "uint256"
        },
        {
          "internalType": "uint256",
          "name": "ProductTemplateID",
          "type": "uint256"
        },
        {
          "internalType": "string",
          "name": "DOM",
          "type": "string"
        },
        {
          "internalType": "string",
          "name": "CustomerID",
          "type": "string"
        },
        {
          "internalType": "string",
          "name": "RetailerID",
          "type": "string"
        },
        {
          "internalType": "bool",
          "name": "RetailerScanned",
          "type": "bool"
        },
        {
          "internalType": "string",
          "name": "RetailerScannedTimeStamp",
          "type": "string"
        },
        {
          "internalType": "string",
          "name": "DateWhenSoldToRetailer",
          "type": "string"
        },
        {
          "internalType": "string",
          "name": "DateWhenSoldToCustomer",
          "type": "string"
        },
        {
          "internalType": "string",
          "name": "RetailerLatitude",
          "type": "string"
        },
        {
          "internalType": "string",
          "name": "RetailerLongitude",
          "type": "string"
        },
        {
          "internalType": "string",
          "name": "CustomerName",
          "type": "string"
        }
      ],
      "stateMutability": "view",
      "type": "function"
    },
    {
      "inputs": [
        {
          "internalType": "uint256",
          "name": "",
          "type": "uint256"
        }
      ],
      "name": "ProductTemplateIDs",
      "outputs": [
        {
          "internalType": "uint256",
          "name": "",
          "type": "uint256"
        }
      ],
      "stateMutability": "view",
      "type": "function"
    },
    {
      "inputs": [
        {
          "internalType": "uint256",
          "name": "",
          "type": "uint256"
        }
      ],
      "name": "ProductTemplateMAP",
      "outputs": [
        {
          "internalType": "uint256",
          "name": "ProductTemplateID",
          "type": "uint256"
        },
        {
          "internalType": "string",
          "name": "Name",
          "type": "string"
        },
        {
          "internalType": "string",
          "name": "Description",
          "type": "string"
        },
        {
          "internalType": "string",
          "name": "FactoryID",
          "type": "string"
        }
      ],
      "stateMutability": "view",
      "type": "function"
    },
    {
      "inputs": [
        {
          "internalType": "string",
          "name": "",
          "type": "string"
        },
        {
          "internalType": "uint256",
          "name": "",
          "type": "uint256"
        }
      ],
      "name": "RetailerIDToRetailerStruct",
      "outputs": [
        {
          "internalType": "string",
          "name": "DistributorID",
          "type": "string"
        },
        {
          "internalType": "string",
          "name": "RetailerID",
          "type": "string"
        },
        {
          "internalType": "uint256",
          "name": "BatchID",
          "type": "uint256"
        },
        {
          "internalType": "uint256",
          "name": "Quantity",
          "type": "uint256"
        },
        {
          "internalType": "string",
          "name": "TimeStamp",
          "type": "string"
        }
      ],
      "stateMutability": "view",
      "type": "function"
    },
    {
      "inputs": [
        {
          "internalType": "uint256",
          "name": "_batchTemplateID",
          "type": "uint256"
        },
        {
          "internalType": "uint256",
          "name": "_productTemplateID",
          "type": "uint256"
        },
        {
          "internalType": "string",
          "name": "_description",
          "type": "string"
        },
        {
          "internalType": "uint256",
          "name": "_batchSize",
          "type": "uint256"
        },
        {
          "internalType": "string",
          "name": "_factoryID",
          "type": "string"
        }
      ],
      "name": "addBatchTemplate",
      "outputs": [],
      "stateMutability": "nonpayable",
      "type": "function"
    },
    {
      "inputs": [
        {
          "internalType": "uint256",
          "name": "_productTemplateID",
          "type": "uint256"
        },
        {
          "internalType": "string",
          "name": "_name",
          "type": "string"
        },
        {
          "internalType": "string",
          "name": "_description",
          "type": "string"
        },
        {
          "internalType": "string",
          "name": "_factoryID",
          "type": "string"
        }
      ],
      "name": "addProductTemplate",
      "outputs": [],
      "stateMutability": "nonpayable",
      "type": "function"
    },
    {
      "inputs": [
        {
          "internalType": "uint256",
          "name": "batchID",
          "type": "uint256"
        },
        {
          "internalType": "uint256",
          "name": "companyBatchID",
          "type": "uint256"
        },
        {
          "internalType": "uint256[]",
          "name": "productIDs",
          "type": "uint256[]"
        },
        {
          "internalType": "uint256",
          "name": "batchSize",
          "type": "uint256"
        },
        {
          "internalType": "string",
          "name": "batchDescription",
          "type": "string"
        },
        {
          "internalType": "uint256",
          "name": "productTemplateID",
          "type": "uint256"
        },
        {
          "internalType": "string",
          "name": "factory",
          "type": "string"
        },
        {
          "internalType": "string",
          "name": "distributor",
          "type": "string"
        },
        {
          "internalType": "string",
          "name": "factoryLocation",
          "type": "string"
        },
        {
          "internalType": "string",
          "name": "dateOfProduction",
          "type": "string"
        }
      ],
      "name": "batchProduced",
      "outputs": [],
      "stateMutability": "nonpayable",
      "type": "function"
    },
    {
      "inputs": [
        {
          "internalType": "uint256",
          "name": "batchID",
          "type": "uint256"
        },
        {
          "internalType": "string",
          "name": "_distributorID",
          "type": "string"
        },
        {
          "internalType": "string",
          "name": "timeStamp",
          "type": "string"
        }
      ],
      "name": "distributorScansBatch",
      "outputs": [],
      "stateMutability": "nonpayable",
      "type": "function"
    },
    {
      "inputs": [
        {
          "internalType": "uint256",
          "name": "batchID",
          "type": "uint256"
        },
        {
          "internalType": "uint256",
          "name": "quantity",
          "type": "uint256"
        }
      ],
      "name": "distributorSellToRetailer",
      "outputs": [],
      "stateMutability": "nonpayable",
      "type": "function"
    },
    {
      "inputs": [],
      "name": "getAllBatchIDs",
      "outputs": [
        {
          "internalType": "uint256[]",
          "name": "",
          "type": "uint256[]"
        }
      ],
      "stateMutability": "view",
      "type": "function"
    },
    {
      "inputs": [],
      "name": "getAllBatchTemplateIDs",
      "outputs": [
        {
          "internalType": "uint256[]",
          "name": "",
          "type": "uint256[]"
        }
      ],
      "stateMutability": "view",
      "type": "function"
    },
    {
      "inputs": [],
      "name": "getAllProductIDs",
      "outputs": [
        {
          "internalType": "uint256[]",
          "name": "",
          "type": "uint256[]"
        }
      ],
      "stateMutability": "view",
      "type": "function"
    },
    {
      "inputs": [],
      "name": "getAllProductTemplateIDs",
      "outputs": [
        {
          "internalType": "uint256[]",
          "name": "",
          "type": "uint256[]"
        }
      ],
      "stateMutability": "view",
      "type": "function"
    },
    {
      "inputs": [
        {
          "internalType": "string",
          "name": "customerID",
          "type": "string"
        }
      ],
      "name": "getAllProductsBought",
      "outputs": [
        {
          "components": [
            {
              "internalType": "uint256",
              "name": "BatchID",
              "type": "uint256"
            },
            {
              "internalType": "uint256",
              "name": "ProductID",
              "type": "uint256"
            },
            {
              "internalType": "string",
              "name": "CustomerID",
              "type": "string"
            },
            {
              "internalType": "string",
              "name": "CustomerName",
              "type": "string"
            }
          ],
          "internalType": "struct Supplychain.Customer[]",
          "name": "",
          "type": "tuple[]"
        }
      ],
      "stateMutability": "view",
      "type": "function"
    },
    {
      "inputs": [
        {
          "internalType": "string",
          "name": "distributorID",
          "type": "string"
        }
      ],
      "name": "getDistributorIDToRetailerStruct",
      "outputs": [
        {
          "components": [
            {
              "internalType": "string",
              "name": "DistributorID",
              "type": "string"
            },
            {
              "internalType": "string",
              "name": "RetailerID",
              "type": "string"
            },
            {
              "internalType": "uint256",
              "name": "BatchID",
              "type": "uint256"
            },
            {
              "internalType": "uint256",
              "name": "Quantity",
              "type": "uint256"
            },
            {
              "internalType": "string",
              "name": "TimeStamp",
              "type": "string"
            }
          ],
          "internalType": "struct Supplychain.Retailer[]",
          "name": "",
          "type": "tuple[]"
        }
      ],
      "stateMutability": "view",
      "type": "function"
    },
    {
      "inputs": [
        {
          "internalType": "uint256",
          "name": "batchID",
          "type": "uint256"
        }
      ],
      "name": "getProductIdsForaBatch",
      "outputs": [
        {
          "internalType": "uint256[]",
          "name": "",
          "type": "uint256[]"
        }
      ],
      "stateMutability": "view",
      "type": "function"
    },
    {
      "inputs": [
        {
          "internalType": "string",
          "name": "retailerID",
          "type": "string"
        }
      ],
      "name": "getRetailerIDToRetailerStruct",
      "outputs": [
        {
          "components": [
            {
              "internalType": "string",
              "name": "DistributorID",
              "type": "string"
            },
            {
              "internalType": "string",
              "name": "RetailerID",
              "type": "string"
            },
            {
              "internalType": "uint256",
              "name": "BatchID",
              "type": "uint256"
            },
            {
              "internalType": "uint256",
              "name": "Quantity",
              "type": "uint256"
            },
            {
              "internalType": "string",
              "name": "TimeStamp",
              "type": "string"
            }
          ],
          "internalType": "struct Supplychain.Retailer[]",
          "name": "",
          "type": "tuple[]"
        }
      ],
      "stateMutability": "view",
      "type": "function"
    },
    {
      "inputs": [
        {
          "internalType": "uint256",
          "name": "_productID",
          "type": "uint256"
        },
        {
          "internalType": "string",
          "name": "_retailerID",
          "type": "string"
        },
        {
          "internalType": "string",
          "name": "timeStamp",
          "type": "string"
        },
        {
          "internalType": "string",
          "name": "latitude",
          "type": "string"
        },
        {
          "internalType": "string",
          "name": "longitude",
          "type": "string"
        }
      ],
      "name": "retailerScansProduct",
      "outputs": [],
      "stateMutability": "nonpayable",
      "type": "function"
    },
    {
      "inputs": [
        {
          "internalType": "uint256",
          "name": "batchID",
          "type": "uint256"
        },
        {
          "internalType": "uint256",
          "name": "productID",
          "type": "uint256"
        },
        {
          "internalType": "string",
          "name": "customerID",
          "type": "string"
        },
        {
          "internalType": "string",
          "name": "customerName",
          "type": "string"
        }
      ],
      "name": "retailerSellToCustomer",
      "outputs": [],
      "stateMutability": "nonpayable",
      "type": "function"
    }
  ],
  "bytecode": "0x608060405234801561001057600080fd5b506133f6806100206000396000f3fe608060405234801561001057600080fd5b50600436106101a95760003560e01c80637f7bf690116100f9578063a7a4523d11610097578063bf801df111610071578063bf801df1146103a8578063e139f994146103d5578063e3c6a4ac146103f9578063eac0e9771461040c57600080fd5b8063a7a4523d1461036f578063ab6e3ec514610382578063b84a6f221461039557600080fd5b80638c4c42cd116100d35780638c4c42cd1461032e5780638e5452b81461033657806390973cce14610349578063a78317f81461035c57600080fd5b80637f7bf690146102e85780638272d34b146103085780638bd428801461031b57600080fd5b80633c2f29761161016657806371d1dc0c1161014057806371d1dc0c14610286578063793560dd146102a95780637ae4ee04146102b15780637c0fac7f146102d557600080fd5b80633c2f2976146102585780634c27729c1461026b5780634ca20f341461027357600080fd5b806321f29391146101ae578063278338e8146101da578063284328d0146101ef578063392a70a61461020f5780633ab95f301461022f5780633b7d255c14610250575b600080fd5b6101c16101bc366004612822565b610439565b6040516101d194939291906128b7565b60405180910390f35b6101ed6101e83660046128f3565b6105a5565b005b6102026101fd366004612985565b6106c8565b6040516101d191906129c2565b61022261021d366004612a5e565b61087d565b6040516101d19190612a77565b61024261023d366004612a5e565b6108df565b6040519081526020016101d1565b610222610900565b6101ed610266366004612b30565b610958565b610222610cc5565b610242610281366004612a5e565b610d1b565b610299610294366004612a5e565b610d2b565b6040516101d19493929190612c4f565b610222610ddb565b6102c46102bf366004612a5e565b610e31565b6040516101d1959493929190612c8e565b6101ed6102e3366004612cd1565b610f70565b6102fb6102f6366004612985565b61107d565b6040516101d19190612cf3565b6101ed610316366004612d9c565b6112b9565b610242610329366004612a5e565b611411565b610222611421565b6101ed610344366004612e09565b611477565b610242610357366004612cd1565b611611565b61024261036a366004612a5e565b611642565b6102fb61037d366004612985565b611652565b6101ed610390366004612e8a565b61188e565b6101ed6103a3366004612f27565b611a33565b6103bb6103b6366004612a5e565b611aee565b6040516101d19e9d9c9b9a99989796959493929190612f63565b6103e86103e3366004612822565b611e8d565b6040516101d195949392919061302a565b6103e8610407366004612822565b612004565b61041f61041a366004612a5e565b61202f565b6040516101d19e9d9c9b9a9998979695949392919061306f565b8151602081840181018051600982529282019185019190912091905280548290811061046457600080fd5b9060005260206000209060040201600091509150508060000154908060010154908060020180546104949061315e565b80601f01602080910402602001604051908101604052809291908181526020018280546104c09061315e565b801561050d5780601f106104e25761010080835404028352916020019161050d565b820191906000526020600020905b8154815290600101906020018083116104f057829003601f168201915b5050505050908060030180546105229061315e565b80601f016020809104026020016040519081016040528092919081815260200182805461054e9061315e565b801561059b5780601f106105705761010080835404028352916020019161059b565b820191906000526020600020905b81548152906001019060200180831161057e57829003601f168201915b5050505050905084565b6105ae84612567565b1561061c5760405162461bcd60e51b815260206004820152603360248201527f546869732050726f6475637454656d706c617465494420616c72656164792065604482015272786973747320696e207468652073797374656d60681b60648201526084015b60405180910390fd5b6040805160808101825285815260208082018681528284018690526060830185905260008881526004909252929020815181559151909190600182019061066390826131e3565b506040820151600282019061067890826131e3565b506060820151600382019061068d90826131e3565b5050600080546001810182559080527f290decd9548b62a8d60345a988386fc84ba6bc95484008f6362f93160ef3e563019490945550505050565b60606009826040516106da91906132a3565b9081526020016040518091039020805480602002602001604051908101604052809291908181526020016000905b828210156108725783829060005260206000209060040201604051806080016040529081600082015481526020016001820154815260200160028201805461074f9061315e565b80601f016020809104026020016040519081016040528092919081815260200182805461077b9061315e565b80156107c85780601f1061079d576101008083540402835291602001916107c8565b820191906000526020600020905b8154815290600101906020018083116107ab57829003601f168201915b505050505081526020016003820180546107e19061315e565b80601f016020809104026020016040519081016040528092919081815260200182805461080d9061315e565b801561085a5780601f1061082f5761010080835404028352916020019161085a565b820191906000526020600020905b81548152906001019060200180831161083d57829003601f168201915b50505050508152505081526020019060010190610708565b505050509050919050565b6000818152600860209081526040918290208054835181840281018401909452808452606093928301828280156108d357602002820191906000526020600020905b8154815260200190600101908083116108bf575b50505050509050919050565b600081815481106108ef57600080fd5b600091825260209091200154905081565b6060600080548060200260200160405190810160405280929190818152602001828054801561094e57602002820191906000526020600020905b81548152602001906001019080831161093a575b5050505050905090565b6109618a6125bd565b156109ba5760405162461bcd60e51b8152602060048201526024808201527f4261746368494420616c72656164792065786973747320696e207468652073796044820152637374656d60e01b6064820152608401610613565b86885114610a305760405162461bcd60e51b815260206004820152603760248201527f53697a65206f662070726f6475637449447320617272617920646f6573206e6f60448201527f74206d6174636820776974682042617463682073697a650000000000000000006064820152608401610613565b604051806101c001604052808b815260200188815260200160008152602001878152602001868152602001858152602001848152602001838152602001828152602001600081526020016000151581526020016040518060200160405280600081525081526020018881526020018a815250600760008c81526020019081526020016000206000820151816000015560208201518160010155604082015181600201556060820151816003019081610ae891906131e3565b506080820151600482015560a08201516005820190610b0790826131e3565b5060c08201516006820190610b1c90826131e3565b5060e08201516007820190610b3190826131e3565b506101008201516008820190610b4790826131e3565b506101208201516009820155610140820151600a8201805460ff1916911515919091179055610160820151600b820190610b8190826131e3565b50610180820151600c8201556101a090910151600d9091015560038054600181019091557fc2575a0e9e593c00f959f8c92f12db2869c3395a3b0502d05e2516446f71f85b018a905560008a81526008602090815260409091208951610be9928b019061270b565b5060005b87811015610cb857610c17898281518110610c0a57610c0a6132bf565b602002602001015161260a565b15610c735760405162461bcd60e51b815260206004820152602660248201527f50726f64756374494420616c72656164792065786973747320696e207468652060448201526573797374656d60d01b6064820152608401610613565b6002898281518110610c8757610c876132bf565b6020908102919091018101518254600181018455600093845291909220015580610cb0816132eb565b915050610bed565b5050505050505050505050565b6060600180548060200260200160405190810160405280929190818152602001828054801561094e576020028201919060005260206000209081548152602001906001019080831161093a575050505050905090565b600181815481106108ef57600080fd5b60046020526000908152604090208054600182018054919291610d4d9061315e565b80601f0160208091040260200160405190810160405280929190818152602001828054610d799061315e565b8015610dc65780601f10610d9b57610100808354040283529160200191610dc6565b820191906000526020600020905b815481529060010190602001808311610da957829003601f168201915b5050505050908060020180546104949061315e565b6060600380548060200260200160405190810160405280929190818152602001828054801561094e576020028201919060005260206000209081548152602001906001019080831161093a575050505050905090565b60056020526000908152604090208054600182015460028301805492939192610e599061315e565b80601f0160208091040260200160405190810160405280929190818152602001828054610e859061315e565b8015610ed25780601f10610ea757610100808354040283529160200191610ed2565b820191906000526020600020905b815481529060010190602001808311610eb557829003601f168201915b505050505090806003015490806004018054610eed9061315e565b80601f0160208091040260200160405190810160405280929190818152602001828054610f199061315e565b8015610f665780601f10610f3b57610100808354040283529160200191610f66565b820191906000526020600020905b815481529060010190602001808311610f4957829003601f168201915b5050505050905085565b6000828152600760205260409020600c0154818110156110025760405162461bcd60e51b815260206004820152604160248201527f5175616e746974792069732067726561746572207468616e2074686520616d6f60448201527f756e74206c65667420746f20626520736f6c6420696e207468697320626174636064820152600d60fb1b608482015260a401610613565b600082116110525760405162461bcd60e51b815260206004820152601760248201527f5175616e746974792063616e6e6f74206265207a65726f0000000000000000006044820152606401610613565b6000838152600760205260408120600c018054849290611073908490613304565b9091555050505050565b6060600a8260405161108f91906132a3565b9081526020016040518091039020805480602002602001604051908101604052809291908181526020016000905b8282101561087257838290600052602060002090600502016040518060a00160405290816000820180546110f09061315e565b80601f016020809104026020016040519081016040528092919081815260200182805461111c9061315e565b80156111695780601f1061113e57610100808354040283529160200191611169565b820191906000526020600020905b81548152906001019060200180831161114c57829003601f168201915b505050505081526020016001820180546111829061315e565b80601f01602080910402602001604051908101604052809291908181526020018280546111ae9061315e565b80156111fb5780601f106111d0576101008083540402835291602001916111fb565b820191906000526020600020905b8154815290600101906020018083116111de57829003601f168201915b5050505050815260200160028201548152602001600382015481526020016004820180546112289061315e565b80601f01602080910402602001604051908101604052809291908181526020018280546112549061315e565b80156112a15780601f10611276576101008083540402835291602001916112a1565b820191906000526020600020905b81548152906001019060200180831161128457829003601f168201915b505050505081525050815260200190600101906110bd565b6000838152600760205260409020600a015460ff16156113345760405162461bcd60e51b815260206004820152603060248201527f5468697320626174636820697320616c7265616479207363616e6e656420627960448201526f103a3432903234b9ba3934b13aba37b960811b6064820152608401610613565b600083815260076020526040902060060180546113d891906113559061315e565b80601f01602080910402602001604051908101604052809291908181526020018280546113819061315e565b80156113ce5780601f106113a3576101008083540402835291602001916113ce565b820191906000526020600020905b8154815290600101906020018083116113b157829003601f168201915b5050505050612657565b6113e182612657565b6000838152600760205260409020600a8101805460ff19166001179055600b0161140b82826131e3565b50505050565b600381815481106108ef57600080fd5b6060600280548060200260200160405190810160405280929190818152602001828054801561094e576020028201919060005260206000209081548152602001906001019080831161093a575050505050905090565b6114808561269d565b156114e75760405162461bcd60e51b815260206004820152603160248201527f5468697320426174636854656d706c617465494420616c72656164792065786960448201527073747320696e207468652073797374656d60781b6064820152608401610613565b6114f084612567565b151560011461155e5760405162461bcd60e51b815260206004820152603460248201527f546869732050726f6475637454656d706c617465494420646f6573206e6f742060448201527365786973747320696e207468652073797374656d60601b6064820152608401610613565b6040805160a0810182528681526020808201878152828401878152606084018790526080840186905260008a81526005909352939091208251815590516001820155915190919060028201906115b490826131e3565b5060608201516003820155608082015160048201906115d390826131e3565b50506001805480820182556000919091527fb10e2d527612073b26eecdfd717e6a320cf44b4afac2b0732d9fcbe2b7fa0cf601959095555050505050565b6008602052816000526040600020818154811061162d57600080fd5b90600052602060002001600091509150505481565b600281815481106108ef57600080fd5b6060600b8260405161166491906132a3565b9081526020016040518091039020805480602002602001604051908101604052809291908181526020016000905b8282101561087257838290600052602060002090600502016040518060a00160405290816000820180546116c59061315e565b80601f01602080910402602001604051908101604052809291908181526020018280546116f19061315e565b801561173e5780601f106117135761010080835404028352916020019161173e565b820191906000526020600020905b81548152906001019060200180831161172157829003601f168201915b505050505081526020016001820180546117579061315e565b80601f01602080910402602001604051908101604052809291908181526020018280546117839061315e565b80156117d05780601f106117a5576101008083540402835291602001916117d0565b820191906000526020600020905b8154815290600101906020018083116117b357829003601f168201915b5050505050815260200160028201548152602001600382015481526020016004820180546117fd9061315e565b80601f01602080910402602001604051908101604052809291908181526020018280546118299061315e565b80156118765780601f1061184b57610100808354040283529160200191611876565b820191906000526020600020905b81548152906001019060200180831161185957829003601f168201915b50505050508152505081526020019060010190611692565b60008581526006602052604090206007015460ff16156119065760405162461bcd60e51b815260206004820152602d60248201527f5468697320626174636820697320616c7265616479207363616e6e656420627960448201526c103a3432903932ba30b4b632b960991b6064820152608401610613565b8360405160200161191791906132a3565b6040516020818303038152906040528051906020012060066000878152602001908152602001600020600601604051602001611953919061331d565b60405160208183030381529060405280519060200120146119c95760405162461bcd60e51b815260206004820152602a60248201527f546869732070726f64756374206973206e6f74206f776e65642062792074686960448201526939903932ba30b4b632b960b11b6064820152608401610613565b600085815260066020526040902060078101805460ff191660011790556008016119f384826131e3565b506000858152600660205260409020600b01611a0f83826131e3565b506000858152600660205260409020600c01611a2b82826131e3565b505050505050565b6000848152600760205260408120600201805460019290611a55908490613393565b9091555050604051600990611a6b9084906132a3565b90815260408051918290036020908101832060808401835287845283820187815292840186815260608501869052815460018181018455600093845293909220855160049093020191825592519181019190915590516002820190611ad090826131e3565b5060608201516003820190611ae590826131e3565b50505050505050565b600760205260009081526040902080546001820154600283015460038401805493949293919291611b1e9061315e565b80601f0160208091040260200160405190810160405280929190818152602001828054611b4a9061315e565b8015611b975780601f10611b6c57610100808354040283529160200191611b97565b820191906000526020600020905b815481529060010190602001808311611b7a57829003601f168201915b505050505090806004015490806005018054611bb29061315e565b80601f0160208091040260200160405190810160405280929190818152602001828054611bde9061315e565b8015611c2b5780601f10611c0057610100808354040283529160200191611c2b565b820191906000526020600020905b815481529060010190602001808311611c0e57829003601f168201915b505050505090806006018054611c409061315e565b80601f0160208091040260200160405190810160405280929190818152602001828054611c6c9061315e565b8015611cb95780601f10611c8e57610100808354040283529160200191611cb9565b820191906000526020600020905b815481529060010190602001808311611c9c57829003601f168201915b505050505090806007018054611cce9061315e565b80601f0160208091040260200160405190810160405280929190818152602001828054611cfa9061315e565b8015611d475780601f10611d1c57610100808354040283529160200191611d47565b820191906000526020600020905b815481529060010190602001808311611d2a57829003601f168201915b505050505090806008018054611d5c9061315e565b80601f0160208091040260200160405190810160405280929190818152602001828054611d889061315e565b8015611dd55780601f10611daa57610100808354040283529160200191611dd5565b820191906000526020600020905b815481529060010190602001808311611db857829003601f168201915b505050506009830154600a840154600b850180549495929460ff909216935090611dfe9061315e565b80601f0160208091040260200160405190810160405280929190818152602001828054611e2a9061315e565b8015611e775780601f10611e4c57610100808354040283529160200191611e77565b820191906000526020600020905b815481529060010190602001808311611e5a57829003601f168201915b50505050509080600c01549080600d015490508e565b8151602081840181018051600a825292820191850191909120919052805482908110611eb857600080fd5b906000526020600020906005020160009150915050806000018054611edc9061315e565b80601f0160208091040260200160405190810160405280929190818152602001828054611f089061315e565b8015611f555780601f10611f2a57610100808354040283529160200191611f55565b820191906000526020600020905b815481529060010190602001808311611f3857829003601f168201915b505050505090806001018054611f6a9061315e565b80601f0160208091040260200160405190810160405280929190818152602001828054611f969061315e565b8015611fe35780601f10611fb857610100808354040283529160200191611fe3565b820191906000526020600020905b815481529060010190602001808311611fc657829003601f168201915b505050505090806002015490806003015490806004018054610eed9061315e565b8151602081840181018051600b825292820191850191909120919052805482908110611eb857600080fd5b6006602052600090815260409020805460018201546002830154600384015460048501805494959394929391926120659061315e565b80601f01602080910402602001604051908101604052809291908181526020018280546120919061315e565b80156120de5780601f106120b3576101008083540402835291602001916120de565b820191906000526020600020905b8154815290600101906020018083116120c157829003601f168201915b5050505050908060050180546120f39061315e565b80601f016020809104026020016040519081016040528092919081815260200182805461211f9061315e565b801561216c5780601f106121415761010080835404028352916020019161216c565b820191906000526020600020905b81548152906001019060200180831161214f57829003601f168201915b5050505050908060060180546121819061315e565b80601f01602080910402602001604051908101604052809291908181526020018280546121ad9061315e565b80156121fa5780601f106121cf576101008083540402835291602001916121fa565b820191906000526020600020905b8154815290600101906020018083116121dd57829003601f168201915b5050506007840154600885018054949560ff90921694919350915061221e9061315e565b80601f016020809104026020016040519081016040528092919081815260200182805461224a9061315e565b80156122975780601f1061226c57610100808354040283529160200191612297565b820191906000526020600020905b81548152906001019060200180831161227a57829003601f168201915b5050505050908060090180546122ac9061315e565b80601f01602080910402602001604051908101604052809291908181526020018280546122d89061315e565b80156123255780601f106122fa57610100808354040283529160200191612325565b820191906000526020600020905b81548152906001019060200180831161230857829003601f168201915b50505050509080600a01805461233a9061315e565b80601f01602080910402602001604051908101604052809291908181526020018280546123669061315e565b80156123b35780601f10612388576101008083540402835291602001916123b3565b820191906000526020600020905b81548152906001019060200180831161239657829003601f168201915b50505050509080600b0180546123c89061315e565b80601f01602080910402602001604051908101604052809291908181526020018280546123f49061315e565b80156124415780601f1061241657610100808354040283529160200191612441565b820191906000526020600020905b81548152906001019060200180831161242457829003601f168201915b50505050509080600c0180546124569061315e565b80601f01602080910402602001604051908101604052809291908181526020018280546124829061315e565b80156124cf5780601f106124a4576101008083540402835291602001916124cf565b820191906000526020600020905b8154815290600101906020018083116124b257829003601f168201915b50505050509080600d0180546124e49061315e565b80601f01602080910402602001604051908101604052809291908181526020018280546125109061315e565b801561255d5780601f106125325761010080835404028352916020019161255d565b820191906000526020600020905b81548152906001019060200180831161254057829003601f168201915b505050505090508e565b6000805b6000548110156125b4578260008281548110612589576125896132bf565b9060005260206000200154036125a25750600192915050565b806125ac816132eb565b91505061256b565b50600092915050565b6000805b6003548110156125b45782600382815481106125df576125df6132bf565b9060005260206000200154036125f85750600192915050565b80612602816132eb565b9150506125c1565b6000805b6002548110156125b457826002828154811061262c5761262c6132bf565b9060005260206000200154036126455750600192915050565b8061264f816132eb565b91505061260e565b61269a8160405160240161266b91906133a6565b60408051601f198184030181529190526020810180516001600160e01b031663104c13eb60e21b1790526126ea565b50565b6000805b6001548110156125b45782600182815481106126bf576126bf6132bf565b9060005260206000200154036126d85750600192915050565b806126e2816132eb565b9150506126a1565b80516a636f6e736f6c652e6c6f67602083016000808483855afa5050505050565b828054828255906000526020600020908101928215612746579160200282015b8281111561274657825182559160200191906001019061272b565b50612752929150612756565b5090565b5b808211156127525760008155600101612757565b634e487b7160e01b600052604160045260246000fd5b604051601f8201601f1916810167ffffffffffffffff811182821017156127aa576127aa61276b565b604052919050565b600082601f8301126127c357600080fd5b813567ffffffffffffffff8111156127dd576127dd61276b565b6127f0601f8201601f1916602001612781565b81815284602083860101111561280557600080fd5b816020850160208301376000918101602001919091529392505050565b6000806040838503121561283557600080fd5b823567ffffffffffffffff81111561284c57600080fd5b612858858286016127b2565b95602094909401359450505050565b60005b8381101561288257818101518382015260200161286a565b50506000910152565b600081518084526128a3816020860160208601612867565b601f01601f19169290920160200192915050565b8481528360208201526080604082015260006128d6608083018561288b565b82810360608401526128e8818561288b565b979650505050505050565b6000806000806080858703121561290957600080fd5b84359350602085013567ffffffffffffffff8082111561292857600080fd5b612934888389016127b2565b9450604087013591508082111561294a57600080fd5b612956888389016127b2565b9350606087013591508082111561296c57600080fd5b50612979878288016127b2565b91505092959194509250565b60006020828403121561299757600080fd5b813567ffffffffffffffff8111156129ae57600080fd5b6129ba848285016127b2565b949350505050565b60006020808301818452808551808352604092508286019150828160051b87010184880160005b83811015612a5057603f1989840301855281516080815185528882015189860152878201518189870152612a1f8287018261288b565b91505060608083015192508582038187015250612a3c818361288b565b9689019694505050908601906001016129e9565b509098975050505050505050565b600060208284031215612a7057600080fd5b5035919050565b6020808252825182820181905260009190848201906040850190845b81811015612aaf57835183529284019291840191600101612a93565b50909695505050505050565b600082601f830112612acc57600080fd5b8135602067ffffffffffffffff821115612ae857612ae861276b565b8160051b612af7828201612781565b9283528481018201928281019087851115612b1157600080fd5b83870192505b848310156128e857823582529183019190830190612b17565b6000806000806000806000806000806101408b8d031215612b5057600080fd5b8a35995060208b0135985060408b013567ffffffffffffffff80821115612b7657600080fd5b612b828e838f01612abb565b995060608d0135985060808d0135915080821115612b9f57600080fd5b612bab8e838f016127b2565b975060a08d0135965060c08d0135915080821115612bc857600080fd5b612bd48e838f016127b2565b955060e08d0135915080821115612bea57600080fd5b612bf68e838f016127b2565b94506101008d0135915080821115612c0d57600080fd5b612c198e838f016127b2565b93506101208d0135915080821115612c3057600080fd5b50612c3d8d828e016127b2565b9150509295989b9194979a5092959850565b848152608060208201526000612c68608083018661288b565b8281036040840152612c7a818661288b565b905082810360608401526128e8818561288b565b85815284602082015260a060408201526000612cad60a083018661288b565b8460608401528281036080840152612cc5818561288b565b98975050505050505050565b60008060408385031215612ce457600080fd5b50508035926020909101359150565b60006020808301818452808551808352604092508286019150828160051b87010184880160005b83811015612a5057603f19898403018552815160a08151818652612d408287018261288b565b915050888201518582038a870152612d58828261288b565b9150508782015188860152606080830151818701525060808083015192508582038187015250612d88818361288b565b968901969450505090860190600101612d1a565b600080600060608486031215612db157600080fd5b83359250602084013567ffffffffffffffff80821115612dd057600080fd5b612ddc878388016127b2565b93506040860135915080821115612df257600080fd5b50612dff868287016127b2565b9150509250925092565b600080600080600060a08688031215612e2157600080fd5b8535945060208601359350604086013567ffffffffffffffff80821115612e4757600080fd5b612e5389838a016127b2565b9450606088013593506080880135915080821115612e7057600080fd5b50612e7d888289016127b2565b9150509295509295909350565b600080600080600060a08688031215612ea257600080fd5b85359450602086013567ffffffffffffffff80821115612ec157600080fd5b612ecd89838a016127b2565b95506040880135915080821115612ee357600080fd5b612eef89838a016127b2565b94506060880135915080821115612f0557600080fd5b612f1189838a016127b2565b93506080880135915080821115612e7057600080fd5b60008060008060808587031215612f3d57600080fd5b8435935060208501359250604085013567ffffffffffffffff8082111561294a57600080fd5b8e81528d60208201528c60408201526101c060608201526000612f8a6101c083018e61288b565b8c608084015282810360a0840152612fa2818d61288b565b905082810360c0840152612fb6818c61288b565b905082810360e0840152612fca818b61288b565b9050828103610100840152612fdf818a61288b565b905087610120840152612ff761014084018815159052565b82810361016084015261300a818761288b565b61018084019590955250506101a001529c9b505050505050505050505050565b60a08152600061303d60a083018861288b565b828103602084015261304f818861288b565b90508560408401528460608401528281036080840152612cc5818561288b565b8e81528d60208201528c60408201528b60608201526101c06080820152600061309c6101c083018d61288b565b82810360a08401526130ae818d61288b565b905082810360c08401526130c2818c61288b565b8a151560e085015290508281036101008401526130df818a61288b565b90508281036101208401526130f4818961288b565b9050828103610140840152613109818861288b565b905082810361016084015261311e818761288b565b9050828103610180840152613133818661288b565b90508281036101a0840152613148818561288b565b9150509f9e505050505050505050505050505050565b600181811c9082168061317257607f821691505b60208210810361319257634e487b7160e01b600052602260045260246000fd5b50919050565b601f8211156131de57600081815260208120601f850160051c810160208610156131bf5750805b601f850160051c820191505b81811015611a2b578281556001016131cb565b505050565b815167ffffffffffffffff8111156131fd576131fd61276b565b6132118161320b845461315e565b84613198565b602080601f831160018114613246576000841561322e5750858301515b600019600386901b1c1916600185901b178555611a2b565b600085815260208120601f198616915b8281101561327557888601518255948401946001909101908401613256565b50858210156132935787850151600019600388901b60f8161c191681555b5050505050600190811b01905550565b600082516132b5818460208701612867565b9190910192915050565b634e487b7160e01b600052603260045260246000fd5b634e487b7160e01b600052601160045260246000fd5b6000600182016132fd576132fd6132d5565b5060010190565b81810381811115613317576133176132d5565b92915050565b600080835461332b8161315e565b60018281168015613343576001811461335857613387565b60ff1984168752821515830287019450613387565b8760005260208060002060005b8581101561337e5781548a820152908401908201613365565b50505082870194505b50929695505050505050565b80820180821115613317576133176132d5565b6020815260006133b9602083018461288b565b939250505056fea26469706673582212207e70f1fabd15d3e5d16fa5154980e99ec58c7f551555392628ee7118a2c23eeb64736f6c63430008110033",
  "linkReferences": {},
  "deployedLinkReferences": {}
}