{
  "_format": "hh-sol-artifact-1",
  "contractName": "Supplychain",
  "sourceName": "contracts/Supplychain.sol",
  "abi": [
    {
      "inputs": [
        {
          "internalType": "uint256",
          "name": "",
          "type": "uint256"
        },
        {
          "internalType": "uint256",
          "name": "",
          "type": "uint256"
        }
      ],
      "name": "BatchIDToProductIDMapping",
      "outputs": [
        {
          "internalType": "uint256",
          "name": "",
          "type": "uint256"
        }
      ],
      "stateMutability": "view",
      "type": "function"
    },
    {
      "inputs": [
        {
          "internalType": "uint256",
          "name": "",
          "type": "uint256"
        }
      ],
      "name": "BatchIDs",
      "outputs": [
        {
          "internalType": "uint256",
          "name": "",
          "type": "uint256"
        }
      ],
      "stateMutability": "view",
      "type": "function"
    },
    {
      "inputs": [
        {
          "internalType": "uint256",
          "name": "",
          "type": "uint256"
        }
      ],
      "name": "BatchMapping",
      "outputs": [
        {
          "internalType": "uint256",
          "name": "BatchID",
          "type": "uint256"
        },
        {
          "internalType": "uint256",
          "name": "BatchSize",
          "type": "uint256"
        },
        {
          "internalType": "uint256",
          "name": "AmountSoldTOCustomer",
          "type": "uint256"
        },
        {
          "internalType": "string",
          "name": "BatchDescription",
          "type": "string"
        },
        {
          "internalType": "uint256",
          "name": "ProductTemplateID",
          "type": "uint256"
        },
        {
          "internalType": "string",
          "name": "FactoryID",
          "type": "string"
        },
        {
          "internalType": "string",
          "name": "DistributorID",
          "type": "string"
        },
        {
          "internalType": "string",
          "name": "FactoryLocation",
          "type": "string"
        },
        {
          "internalType": "string",
          "name": "DateOfProduction",
          "type": "string"
        },
        {
          "internalType": "uint256",
          "name": "State",
          "type": "uint256"
        },
        {
          "internalType": "bool",
          "name": "DistributorScanned",
          "type": "bool"
        },
        {
          "internalType": "string",
          "name": "DistributorScannedTimeStamp",
          "type": "string"
        },
        {
          "internalType": "string",
          "name": "DistributorLatLong",
          "type": "string"
        },
        {
          "internalType": "uint256",
          "name": "AmountLeftForSellingTORetailer",
          "type": "uint256"
        }
      ],
      "stateMutability": "view",
      "type": "function"
    },
    {
      "inputs": [
        {
          "internalType": "uint256",
          "name": "",
          "type": "uint256"
        }
      ],
      "name": "BatchTemplateIDs",
      "outputs": [
        {
          "internalType": "uint256",
          "name": "",
          "type": "uint256"
        }
      ],
      "stateMutability": "view",
      "type": "function"
    },
    {
      "inputs": [
        {
          "internalType": "uint256",
          "name": "",
          "type": "uint256"
        }
      ],
      "name": "BatchTemplateMAP",
      "outputs": [
        {
          "internalType": "uint256",
          "name": "BatchTemplateID",
          "type": "uint256"
        },
        {
          "internalType": "uint256",
          "name": "ProductTemplateID",
          "type": "uint256"
        },
        {
          "internalType": "string",
          "name": "Description",
          "type": "string"
        },
        {
          "internalType": "uint256",
          "name": "BatchSize",
          "type": "uint256"
        },
        {
          "internalType": "string",
          "name": "FactoryID",
          "type": "string"
        }
      ],
      "stateMutability": "view",
      "type": "function"
    },
    {
      "inputs": [
        {
          "internalType": "string",
          "name": "",
          "type": "string"
        },
        {
          "internalType": "uint256",
          "name": "",
          "type": "uint256"
        }
      ],
      "name": "CustomerData",
      "outputs": [
        {
          "internalType": "uint256",
          "name": "BatchID",
          "type": "uint256"
        },
        {
          "internalType": "uint256",
          "name": "ProductID",
          "type": "uint256"
        }
      ],
      "stateMutability": "view",
      "type": "function"
    },
    {
      "inputs": [
        {
          "internalType": "string",
          "name": "",
          "type": "string"
        },
        {
          "internalType": "uint256",
          "name": "",
          "type": "uint256"
        }
      ],
      "name": "DistributorIDToRetailerStruct",
      "outputs": [
        {
          "internalType": "string",
          "name": "DistributorID",
          "type": "string"
        },
        {
          "internalType": "string",
          "name": "RetailerID",
          "type": "string"
        },
        {
          "internalType": "uint256",
          "name": "BatchID",
          "type": "uint256"
        },
        {
          "internalType": "uint256",
          "name": "Quantity",
          "type": "uint256"
        },
        {
          "internalType": "string",
          "name": "TimeStamp",
          "type": "string"
        }
      ],
      "stateMutability": "view",
      "type": "function"
    },
    {
      "inputs": [
        {
          "internalType": "uint256",
          "name": "",
          "type": "uint256"
        }
      ],
      "name": "ProductIDs",
      "outputs": [
        {
          "internalType": "uint256",
          "name": "",
          "type": "uint256"
        }
      ],
      "stateMutability": "view",
      "type": "function"
    },
    {
      "inputs": [
        {
          "internalType": "uint256",
          "name": "",
          "type": "uint256"
        }
      ],
      "name": "ProductMapping",
      "outputs": [
        {
          "internalType": "uint256",
          "name": "ProductID",
          "type": "uint256"
        },
        {
          "internalType": "uint256",
          "name": "CompanyProductID",
          "type": "uint256"
        },
        {
          "internalType": "uint256",
          "name": "BatchID",
          "type": "uint256"
        },
        {
          "internalType": "uint256",
          "name": "ProductTemplateID",
          "type": "uint256"
        },
        {
          "internalType": "string",
          "name": "DOM",
          "type": "string"
        },
        {
          "internalType": "string",
          "name": "CustomerID",
          "type": "string"
        },
        {
          "internalType": "string",
          "name": "RetailerID",
          "type": "string"
        },
        {
          "internalType": "bool",
          "name": "RetailerScanned",
          "type": "bool"
        },
        {
          "internalType": "string",
          "name": "RetailerScannedTimeStamp",
          "type": "string"
        },
        {
          "internalType": "string",
          "name": "RetailerLatLong",
          "type": "string"
        },
        {
          "internalType": "string",
          "name": "DateWhenSoldToRetailer",
          "type": "string"
        },
        {
          "internalType": "string",
          "name": "DateWhenSoldToCustomer",
          "type": "string"
        }
      ],
      "stateMutability": "view",
      "type": "function"
    },
    {
      "inputs": [
        {
          "internalType": "uint256",
          "name": "",
          "type": "uint256"
        }
      ],
      "name": "ProductTemplateIDs",
      "outputs": [
        {
          "internalType": "uint256",
          "name": "",
          "type": "uint256"
        }
      ],
      "stateMutability": "view",
      "type": "function"
    },
    {
      "inputs": [
        {
          "internalType": "uint256",
          "name": "",
          "type": "uint256"
        }
      ],
      "name": "ProductTemplateMAP",
      "outputs": [
        {
          "internalType": "uint256",
          "name": "ProductTemplateID",
          "type": "uint256"
        },
        {
          "internalType": "string",
          "name": "Name",
          "type": "string"
        },
        {
          "internalType": "string",
          "name": "Description",
          "type": "string"
        },
        {
          "internalType": "string",
          "name": "FactoryID",
          "type": "string"
        }
      ],
      "stateMutability": "view",
      "type": "function"
    },
    {
      "inputs": [
        {
          "internalType": "string",
          "name": "",
          "type": "string"
        },
        {
          "internalType": "uint256",
          "name": "",
          "type": "uint256"
        }
      ],
      "name": "RetailerIDToRetailerStruct",
      "outputs": [
        {
          "internalType": "string",
          "name": "DistributorID",
          "type": "string"
        },
        {
          "internalType": "string",
          "name": "RetailerID",
          "type": "string"
        },
        {
          "internalType": "uint256",
          "name": "BatchID",
          "type": "uint256"
        },
        {
          "internalType": "uint256",
          "name": "Quantity",
          "type": "uint256"
        },
        {
          "internalType": "string",
          "name": "TimeStamp",
          "type": "string"
        }
      ],
      "stateMutability": "view",
      "type": "function"
    },
    {
      "inputs": [
        {
          "internalType": "uint256",
          "name": "_batchTemplateID",
          "type": "uint256"
        },
        {
          "internalType": "uint256",
          "name": "_productTemplateID",
          "type": "uint256"
        },
        {
          "internalType": "string",
          "name": "_description",
          "type": "string"
        },
        {
          "internalType": "uint256",
          "name": "_batchSize",
          "type": "uint256"
        },
        {
          "internalType": "string",
          "name": "_factoryID",
          "type": "string"
        }
      ],
      "name": "addBatchTemplate",
      "outputs": [],
      "stateMutability": "nonpayable",
      "type": "function"
    },
    {
      "inputs": [
        {
          "internalType": "uint256",
          "name": "_productTemplateID",
          "type": "uint256"
        },
        {
          "internalType": "string",
          "name": "_name",
          "type": "string"
        },
        {
          "internalType": "string",
          "name": "_description",
          "type": "string"
        },
        {
          "internalType": "string",
          "name": "_factoryID",
          "type": "string"
        }
      ],
      "name": "addProductTemplate",
      "outputs": [],
      "stateMutability": "nonpayable",
      "type": "function"
    },
    {
      "inputs": [
        {
          "internalType": "uint256",
          "name": "batchID",
          "type": "uint256"
        },
        {
          "internalType": "uint256[]",
          "name": "productIDs",
          "type": "uint256[]"
        },
        {
          "internalType": "uint256[]",
          "name": "companyProductIDs",
          "type": "uint256[]"
        },
        {
          "internalType": "uint256",
          "name": "batchSize",
          "type": "uint256"
        },
        {
          "internalType": "string",
          "name": "batchDescription",
          "type": "string"
        },
        {
          "internalType": "uint256",
          "name": "productTemplateID",
          "type": "uint256"
        },
        {
          "internalType": "string",
          "name": "factory",
          "type": "string"
        },
        {
          "internalType": "string",
          "name": "distributor",
          "type": "string"
        },
        {
          "internalType": "string",
          "name": "factoryLocation",
          "type": "string"
        },
        {
          "internalType": "string",
          "name": "dateOfProduction",
          "type": "string"
        }
      ],
      "name": "batchProduced",
      "outputs": [],
      "stateMutability": "nonpayable",
      "type": "function"
    },
    {
      "inputs": [
        {
          "internalType": "uint256",
          "name": "batchID",
          "type": "uint256"
        },
        {
          "internalType": "string",
          "name": "_distributorID",
          "type": "string"
        },
        {
          "internalType": "string",
          "name": "timeStamp",
          "type": "string"
        },
        {
          "internalType": "string",
          "name": "_distributorLatLong",
          "type": "string"
        }
      ],
      "name": "distributorScansBatch",
      "outputs": [],
      "stateMutability": "nonpayable",
      "type": "function"
    },
    {
      "inputs": [
        {
          "internalType": "uint256",
          "name": "batchID",
          "type": "uint256"
        },
        {
          "internalType": "uint256",
          "name": "quantity",
          "type": "uint256"
        },
        {
          "internalType": "string",
          "name": "retailerID",
          "type": "string"
        },
        {
          "internalType": "string",
          "name": "timeStamp",
          "type": "string"
        }
      ],
      "name": "distributorSellToRetailer",
      "outputs": [],
      "stateMutability": "nonpayable",
      "type": "function"
    },
    {
      "inputs": [],
      "name": "getAllBatchIDs",
      "outputs": [
        {
          "internalType": "uint256[]",
          "name": "",
          "type": "uint256[]"
        }
      ],
      "stateMutability": "view",
      "type": "function"
    },
    {
      "inputs": [],
      "name": "getAllBatchTemplateIDs",
      "outputs": [
        {
          "internalType": "uint256[]",
          "name": "",
          "type": "uint256[]"
        }
      ],
      "stateMutability": "view",
      "type": "function"
    },
    {
      "inputs": [],
      "name": "getAllProductIDs",
      "outputs": [
        {
          "internalType": "uint256[]",
          "name": "",
          "type": "uint256[]"
        }
      ],
      "stateMutability": "view",
      "type": "function"
    },
    {
      "inputs": [],
      "name": "getAllProductTemplateIDs",
      "outputs": [
        {
          "internalType": "uint256[]",
          "name": "",
          "type": "uint256[]"
        }
      ],
      "stateMutability": "view",
      "type": "function"
    },
    {
      "inputs": [
        {
          "internalType": "string",
          "name": "customerID",
          "type": "string"
        }
      ],
      "name": "getAllProductsBought",
      "outputs": [
        {
          "components": [
            {
              "internalType": "uint256",
              "name": "BatchID",
              "type": "uint256"
            },
            {
              "internalType": "uint256",
              "name": "ProductID",
              "type": "uint256"
            }
          ],
          "internalType": "struct Supplychain.Customer[]",
          "name": "",
          "type": "tuple[]"
        }
      ],
      "stateMutability": "view",
      "type": "function"
    },
    {
      "inputs": [
        {
          "internalType": "string",
          "name": "distributorID",
          "type": "string"
        }
      ],
      "name": "getDistributorIDToRetailerStruct",
      "outputs": [
        {
          "components": [
            {
              "internalType": "string",
              "name": "DistributorID",
              "type": "string"
            },
            {
              "internalType": "string",
              "name": "RetailerID",
              "type": "string"
            },
            {
              "internalType": "uint256",
              "name": "BatchID",
              "type": "uint256"
            },
            {
              "internalType": "uint256",
              "name": "Quantity",
              "type": "uint256"
            },
            {
              "internalType": "string",
              "name": "TimeStamp",
              "type": "string"
            }
          ],
          "internalType": "struct Supplychain.Retailer[]",
          "name": "",
          "type": "tuple[]"
        }
      ],
      "stateMutability": "view",
      "type": "function"
    },
    {
      "inputs": [
        {
          "internalType": "uint256",
          "name": "batchID",
          "type": "uint256"
        }
      ],
      "name": "getProductIdsForaBatch",
      "outputs": [
        {
          "internalType": "uint256[]",
          "name": "",
          "type": "uint256[]"
        }
      ],
      "stateMutability": "view",
      "type": "function"
    },
    {
      "inputs": [
        {
          "internalType": "string",
          "name": "retailerID",
          "type": "string"
        }
      ],
      "name": "getRetailerIDToRetailerStruct",
      "outputs": [
        {
          "components": [
            {
              "internalType": "string",
              "name": "DistributorID",
              "type": "string"
            },
            {
              "internalType": "string",
              "name": "RetailerID",
              "type": "string"
            },
            {
              "internalType": "uint256",
              "name": "BatchID",
              "type": "uint256"
            },
            {
              "internalType": "uint256",
              "name": "Quantity",
              "type": "uint256"
            },
            {
              "internalType": "string",
              "name": "TimeStamp",
              "type": "string"
            }
          ],
          "internalType": "struct Supplychain.Retailer[]",
          "name": "",
          "type": "tuple[]"
        }
      ],
      "stateMutability": "view",
      "type": "function"
    },
    {
      "inputs": [
        {
          "internalType": "uint256",
          "name": "_productID",
          "type": "uint256"
        },
        {
          "internalType": "string",
          "name": "_retailerID",
          "type": "string"
        },
        {
          "internalType": "string",
          "name": "timeStamp",
          "type": "string"
        },
        {
          "internalType": "string",
          "name": "_retailerLatLong",
          "type": "string"
        }
      ],
      "name": "retailerScansProduct",
      "outputs": [],
      "stateMutability": "nonpayable",
      "type": "function"
    },
    {
      "inputs": [
        {
          "internalType": "uint256",
          "name": "batchID",
          "type": "uint256"
        },
        {
          "internalType": "uint256",
          "name": "productID",
          "type": "uint256"
        },
        {
          "internalType": "string",
          "name": "customerID",
          "type": "string"
        },
        {
          "internalType": "string",
          "name": "timeStamp",
          "type": "string"
        }
      ],
      "name": "retailerSellToCustomer",
      "outputs": [],
      "stateMutability": "nonpayable",
      "type": "function"
    }
  ],
  "bytecode": "0x608060405234801561001057600080fd5b50613a24806100206000396000f3fe608060405234801561001057600080fd5b50600436106101a95760003560e01c80637f7bf690116100f9578063b84a6f2211610097578063e3c6a4ac11610071578063e3c6a4ac146103d4578063eac0e977146103e7578063ee55fae214610412578063fde4335f1461042557600080fd5b8063b84a6f2214610370578063bf801df114610383578063e139f994146103b057600080fd5b80638e5452b8116100d35780638e5452b81461032457806390973cce14610337578063a78317f81461034a578063a7a4523d1461035d57600080fd5b80637f7bf690146102e95780638bd42880146103095780638c4c42cd1461031c57600080fd5b80634c27729c1161016657806371d1dc0c1161014057806371d1dc0c14610287578063793560dd146102aa5780637ae4ee04146102b25780637b7fa81f146102d657600080fd5b80634c27729c146102595780634ca20f34146102615780636c1d7a9e1461027457600080fd5b806321f29391146101ae578063278338e8146101db578063284328d0146101f0578063392a70a6146102105780633ab95f30146102305780633b7d255c14610251575b600080fd5b6101c16101bc366004612fdf565b610438565b604080519283526020830191909152015b60405180910390f35b6101ee6101e9366004613024565b610483565b005b6102036101fe3660046130b6565b6105a6565b6040516101d291906130f3565b61022361021e366004613142565b610637565b6040516101d2919061315b565b61024361023e366004613142565b610699565b6040519081526020016101d2565b6102236106ba565b610223610712565b61024361026f366004613142565b610768565b6101ee61028236600461321f565b610778565b61029a610295366004613142565b610ce8565b6040516101d294939291906133a9565b610223610ea9565b6102c56102c0366004613142565b610eff565b6040516101d29594939291906133e8565b6101ee6102e4366004613024565b61103e565b6102fc6102f73660046130b6565b6111c6565b6040516101d2919061342b565b610243610317366004613142565b611402565b610223611412565b6101ee6103323660046134e2565b611468565b610243610345366004613563565b611602565b610243610358366004613142565b611633565b6102fc61036b3660046130b6565b611643565b6101ee61037e366004613585565b61187f565b610396610391366004613142565b61193b565b6040516101d29e9d9c9b9a999897969594939291906135c1565b6103c36103be366004612fdf565b611d62565b6040516101d295949392919061369a565b6103c36103e2366004612fdf565b611ed9565b6103fa6103f5366004613142565b611f04565b6040516101d29c9b9a999897969594939291906136df565b6101ee610420366004613585565b612320565b6101ee610433366004613024565b612c0d565b8151602081840181018051600982529282019185019190912091905280548290811061046357600080fd5b600091825260209091206002909102018054600190910154909250905082565b61048c84612d8b565b156104fa5760405162461bcd60e51b815260206004820152603360248201527f546869732050726f6475637454656d706c617465494420616c72656164792065604482015272786973747320696e207468652073797374656d60681b60648201526084015b60405180910390fd5b60408051608081018252858152602080820186815282840186905260608301859052600088815260049092529290208151815591519091906001820190610541908261382b565b5060408201516002820190610556908261382b565b506060820151600382019061056b908261382b565b5050600080546001810182559080527f290decd9548b62a8d60345a988386fc84ba6bc95484008f6362f93160ef3e563019490945550505050565b60606009826040516105b891906138eb565b9081526020016040518091039020805480602002602001604051908101604052809291908181526020016000905b8282101561062c578382906000526020600020906002020160405180604001604052908160008201548152602001600182015481525050815260200190600101906105e6565b505050509050919050565b60008181526008602090815260409182902080548351818402810184019094528084526060939283018282801561068d57602002820191906000526020600020905b815481526020019060010190808311610679575b50505050509050919050565b600081815481106106a957600080fd5b600091825260209091200154905081565b6060600080548060200260200160405190810160405280929190818152602001828054801561070857602002820191906000526020600020905b8154815260200190600101908083116106f4575b5050505050905090565b6060600180548060200260200160405190810160405280929190818152602001828054801561070857602002820191906000526020600020908154815260200190600101908083116106f4575050505050905090565b600181815481106106a957600080fd5b6107818a612de1565b156107da5760405162461bcd60e51b8152602060048201526024808201527f4261746368494420616c72656164792065786973747320696e207468652073796044820152637374656d60e01b60648201526084016104f1565b868951146108505760405162461bcd60e51b815260206004820152603760248201527f53697a65206f662070726f6475637449447320617272617920646f6573206e6f60448201527f74206d6174636820776974682042617463682073697a6500000000000000000060648201526084016104f1565b604051806101c001604052808b8152602001888152602001600081526020018781526020018681526020018581526020018481526020018381526020018281526020016000815260200160001515815260200160405180602001604052806000815250815260200160405180602001604052806000815250815260200188815250600760008c81526020019081526020016000206000820151816000015560208201518160010155604082015181600201556060820151816003019081610917919061382b565b506080820151600482015560a08201516005820190610936908261382b565b5060c0820151600682019061094b908261382b565b5060e08201516007820190610960908261382b565b506101008201516008820190610976908261382b565b506101208201516009820155610140820151600a8201805460ff1916911515919091179055610160820151600b8201906109b0908261382b565b50610180820151600c8201906109c6908261382b565b506101a09190910151600d9091015560038054600181019091557fc2575a0e9e593c00f959f8c92f12db2869c3395a3b0502d05e2516446f71f85b018a905560008a81526008602090815260409091208a51610a24928c0190612ec8565b5060005b87811015610cdb57610a528a8281518110610a4557610a45613907565b6020026020010151612e2e565b15610aae5760405162461bcd60e51b815260206004820152602660248201527f50726f64756374494420616c72656164792065786973747320696e207468652060448201526573797374656d60d01b60648201526084016104f1565b6040518061018001604052808b8381518110610acc57610acc613907565b602002602001015181526020018a8381518110610aeb57610aeb613907565b602002602001015181526020018c815260200187815260200183815260200160405180602001604052806000815250815260200160405180602001604052806000815250815260200160001515815260200160405180602001604052806000815250815260200160405180602001604052806000815250815260200160405180602001604052806000815250815260200160405180602001604052806000815250815250600660008c8481518110610ba557610ba5613907565b60200260200101518152602001908152602001600020600082015181600001556020820151816001015560408201518160020155606082015181600301556080820151816004019081610bf8919061382b565b5060a08201516005820190610c0d908261382b565b5060c08201516006820190610c22908261382b565b5060e082015160078201805460ff19169115159190911790556101008201516008820190610c50908261382b565b506101208201516009820190610c66908261382b565b50610140820151600a820190610c7c908261382b565b50610160820151600b820190610c92908261382b565b5090505060028a8281518110610caa57610caa613907565b6020908102919091018101518254600181018455600093845291909220015580610cd381613933565b915050610a28565b5050505050505050505050565b60046020526000908152604090208054600182018054919291610d0a906137a2565b80601f0160208091040260200160405190810160405280929190818152602001828054610d36906137a2565b8015610d835780601f10610d5857610100808354040283529160200191610d83565b820191906000526020600020905b815481529060010190602001808311610d6657829003601f168201915b505050505090806002018054610d98906137a2565b80601f0160208091040260200160405190810160405280929190818152602001828054610dc4906137a2565b8015610e115780601f10610de657610100808354040283529160200191610e11565b820191906000526020600020905b815481529060010190602001808311610df457829003601f168201915b505050505090806003018054610e26906137a2565b80601f0160208091040260200160405190810160405280929190818152602001828054610e52906137a2565b8015610e9f5780601f10610e7457610100808354040283529160200191610e9f565b820191906000526020600020905b815481529060010190602001808311610e8257829003601f168201915b5050505050905084565b6060600380548060200260200160405190810160405280929190818152602001828054801561070857602002820191906000526020600020908154815260200190600101908083116106f4575050505050905090565b60056020526000908152604090208054600182015460028301805492939192610f27906137a2565b80601f0160208091040260200160405190810160405280929190818152602001828054610f53906137a2565b8015610fa05780601f10610f7557610100808354040283529160200191610fa0565b820191906000526020600020905b815481529060010190602001808311610f8357829003601f168201915b505050505090806003015490806004018054610fbb906137a2565b80601f0160208091040260200160405190810160405280929190818152602001828054610fe7906137a2565b80156110345780601f1061100957610100808354040283529160200191611034565b820191906000526020600020905b81548152906001019060200180831161101757829003601f168201915b5050505050905085565b60008481526006602052604090206007015460ff16156110b65760405162461bcd60e51b815260206004820152602d60248201527f5468697320626174636820697320616c7265616479207363616e6e656420627960448201526c103a3432903932ba30b4b632b960991b60648201526084016104f1565b826040516020016110c791906138eb565b6040516020818303038152906040528051906020012060066000868152602001908152602001600020600601604051602001611103919061394c565b60405160208183030381529060405280519060200120146111795760405162461bcd60e51b815260206004820152602a60248201527f546869732070726f64756374206973206e6f74206f776e65642062792074686960448201526939903932ba30b4b632b960b11b60648201526084016104f1565b600084815260066020526040902060078101805460ff191660011790556008016111a3838261382b565b5060008481526006602052604090206009016111bf828261382b565b5050505050565b6060600a826040516111d891906138eb565b9081526020016040518091039020805480602002602001604051908101604052809291908181526020016000905b8282101561062c57838290600052602060002090600502016040518060a0016040529081600082018054611239906137a2565b80601f0160208091040260200160405190810160405280929190818152602001828054611265906137a2565b80156112b25780601f10611287576101008083540402835291602001916112b2565b820191906000526020600020905b81548152906001019060200180831161129557829003601f168201915b505050505081526020016001820180546112cb906137a2565b80601f01602080910402602001604051908101604052809291908181526020018280546112f7906137a2565b80156113445780601f1061131957610100808354040283529160200191611344565b820191906000526020600020905b81548152906001019060200180831161132757829003601f168201915b505050505081526020016002820154815260200160038201548152602001600482018054611371906137a2565b80601f016020809104026020016040519081016040528092919081815260200182805461139d906137a2565b80156113ea5780601f106113bf576101008083540402835291602001916113ea565b820191906000526020600020905b8154815290600101906020018083116113cd57829003601f168201915b50505050508152505081526020019060010190611206565b600381815481106106a957600080fd5b6060600280548060200260200160405190810160405280929190818152602001828054801561070857602002820191906000526020600020908154815260200190600101908083116106f4575050505050905090565b61147185612e7b565b156114d85760405162461bcd60e51b815260206004820152603160248201527f5468697320426174636854656d706c617465494420616c72656164792065786960448201527073747320696e207468652073797374656d60781b60648201526084016104f1565b6114e184612d8b565b151560011461154f5760405162461bcd60e51b815260206004820152603460248201527f546869732050726f6475637454656d706c617465494420646f6573206e6f742060448201527365786973747320696e207468652073797374656d60601b60648201526084016104f1565b6040805160a0810182528681526020808201878152828401878152606084018790526080840186905260008a81526005909352939091208251815590516001820155915190919060028201906115a5908261382b565b5060608201516003820155608082015160048201906115c4908261382b565b50506001805480820182556000919091527fb10e2d527612073b26eecdfd717e6a320cf44b4afac2b0732d9fcbe2b7fa0cf601959095555050505050565b6008602052816000526040600020818154811061161e57600080fd5b90600052602060002001600091509150505481565b600281815481106106a957600080fd5b6060600b8260405161165591906138eb565b9081526020016040518091039020805480602002602001604051908101604052809291908181526020016000905b8282101561062c57838290600052602060002090600502016040518060a00160405290816000820180546116b6906137a2565b80601f01602080910402602001604051908101604052809291908181526020018280546116e2906137a2565b801561172f5780601f106117045761010080835404028352916020019161172f565b820191906000526020600020905b81548152906001019060200180831161171257829003601f168201915b50505050508152602001600182018054611748906137a2565b80601f0160208091040260200160405190810160405280929190818152602001828054611774906137a2565b80156117c15780601f10611796576101008083540402835291602001916117c1565b820191906000526020600020905b8154815290600101906020018083116117a457829003601f168201915b5050505050815260200160028201548152602001600382015481526020016004820180546117ee906137a2565b80601f016020809104026020016040519081016040528092919081815260200182805461181a906137a2565b80156118675780601f1061183c57610100808354040283529160200191611867565b820191906000526020600020905b81548152906001019060200180831161184a57829003601f168201915b50505050508152505081526020019060010190611683565b60008481526007602052604081206002018054600192906118a19084906139c2565b909155505060008381526006602052604090206005016118c1838261382b565b506000838152600660205260409020600b016118dd828261382b565b506009826040516118ee91906138eb565b908152604080516020928190038301812081830190925295865281860194855280546001808201835560009283529290912095516002909102909501948555925193909201929092555050565b60076020526000908152604090208054600182015460028301546003840180549394929391929161196b906137a2565b80601f0160208091040260200160405190810160405280929190818152602001828054611997906137a2565b80156119e45780601f106119b9576101008083540402835291602001916119e4565b820191906000526020600020905b8154815290600101906020018083116119c757829003601f168201915b5050505050908060040154908060050180546119ff906137a2565b80601f0160208091040260200160405190810160405280929190818152602001828054611a2b906137a2565b8015611a785780601f10611a4d57610100808354040283529160200191611a78565b820191906000526020600020905b815481529060010190602001808311611a5b57829003601f168201915b505050505090806006018054611a8d906137a2565b80601f0160208091040260200160405190810160405280929190818152602001828054611ab9906137a2565b8015611b065780601f10611adb57610100808354040283529160200191611b06565b820191906000526020600020905b815481529060010190602001808311611ae957829003601f168201915b505050505090806007018054611b1b906137a2565b80601f0160208091040260200160405190810160405280929190818152602001828054611b47906137a2565b8015611b945780601f10611b6957610100808354040283529160200191611b94565b820191906000526020600020905b815481529060010190602001808311611b7757829003601f168201915b505050505090806008018054611ba9906137a2565b80601f0160208091040260200160405190810160405280929190818152602001828054611bd5906137a2565b8015611c225780601f10611bf757610100808354040283529160200191611c22565b820191906000526020600020905b815481529060010190602001808311611c0557829003601f168201915b505050506009830154600a840154600b850180549495929460ff909216935090611c4b906137a2565b80601f0160208091040260200160405190810160405280929190818152602001828054611c77906137a2565b8015611cc45780601f10611c9957610100808354040283529160200191611cc4565b820191906000526020600020905b815481529060010190602001808311611ca757829003601f168201915b50505050509080600c018054611cd9906137a2565b80601f0160208091040260200160405190810160405280929190818152602001828054611d05906137a2565b8015611d525780601f10611d2757610100808354040283529160200191611d52565b820191906000526020600020905b815481529060010190602001808311611d3557829003601f168201915b50505050509080600d015490508e565b8151602081840181018051600a825292820191850191909120919052805482908110611d8d57600080fd5b906000526020600020906005020160009150915050806000018054611db1906137a2565b80601f0160208091040260200160405190810160405280929190818152602001828054611ddd906137a2565b8015611e2a5780601f10611dff57610100808354040283529160200191611e2a565b820191906000526020600020905b815481529060010190602001808311611e0d57829003601f168201915b505050505090806001018054611e3f906137a2565b80601f0160208091040260200160405190810160405280929190818152602001828054611e6b906137a2565b8015611eb85780601f10611e8d57610100808354040283529160200191611eb8565b820191906000526020600020905b815481529060010190602001808311611e9b57829003601f168201915b505050505090806002015490806003015490806004018054610fbb906137a2565b8151602081840181018051600b825292820191850191909120919052805482908110611d8d57600080fd5b600660205260009081526040902080546001820154600283015460038401546004850180549495939492939192611f3a906137a2565b80601f0160208091040260200160405190810160405280929190818152602001828054611f66906137a2565b8015611fb35780601f10611f8857610100808354040283529160200191611fb3565b820191906000526020600020905b815481529060010190602001808311611f9657829003601f168201915b505050505090806005018054611fc8906137a2565b80601f0160208091040260200160405190810160405280929190818152602001828054611ff4906137a2565b80156120415780601f1061201657610100808354040283529160200191612041565b820191906000526020600020905b81548152906001019060200180831161202457829003601f168201915b505050505090806006018054612056906137a2565b80601f0160208091040260200160405190810160405280929190818152602001828054612082906137a2565b80156120cf5780601f106120a4576101008083540402835291602001916120cf565b820191906000526020600020905b8154815290600101906020018083116120b257829003601f168201915b5050506007840154600885018054949560ff9092169491935091506120f3906137a2565b80601f016020809104026020016040519081016040528092919081815260200182805461211f906137a2565b801561216c5780601f106121415761010080835404028352916020019161216c565b820191906000526020600020905b81548152906001019060200180831161214f57829003601f168201915b505050505090806009018054612181906137a2565b80601f01602080910402602001604051908101604052809291908181526020018280546121ad906137a2565b80156121fa5780601f106121cf576101008083540402835291602001916121fa565b820191906000526020600020905b8154815290600101906020018083116121dd57829003601f168201915b50505050509080600a01805461220f906137a2565b80601f016020809104026020016040519081016040528092919081815260200182805461223b906137a2565b80156122885780601f1061225d57610100808354040283529160200191612288565b820191906000526020600020905b81548152906001019060200180831161226b57829003601f168201915b50505050509080600b01805461229d906137a2565b80601f01602080910402602001604051908101604052809291908181526020018280546122c9906137a2565b80156123165780601f106122eb57610100808354040283529160200191612316565b820191906000526020600020905b8154815290600101906020018083116122f957829003601f168201915b505050505090508c565b6000848152600760205260408120600d81015460018201546006909201805491939161234b906137a2565b80601f0160208091040260200160405190810160405280929190818152602001828054612377906137a2565b80156123c45780601f10612399576101008083540402835291602001916123c4565b820191906000526020600020905b8154815290600101906020018083116123a757829003601f168201915b505050505090508583101561244b5760405162461bcd60e51b815260206004820152604160248201527f5175616e746974792069732067726561746572207468616e2074686520616d6f60448201527f756e74206c65667420746f20626520736f6c6420696e207468697320626174636064820152600d60fb1b608482015260a4016104f1565b6000861161249b5760405162461bcd60e51b815260206004820152601760248201527f5175616e746974792063616e6e6f74206265207a65726f00000000000000000060448201526064016104f1565b60006124a784846139db565b60008981526008602090815260408083208054825181850281018501909352808352949550929390929183018282801561250057602002820191906000526020600020905b8154815260200190600101908083116124ec575b509394508593505050505b61251589846139c2565b811015612aa257600082828151811061253057612530613907565b602002602001015190506000600660008381526020019081526020016000206040518061018001604052908160008201548152602001600182015481526020016002820154815260200160038201548152602001600482018054612593906137a2565b80601f01602080910402602001604051908101604052809291908181526020018280546125bf906137a2565b801561260c5780601f106125e15761010080835404028352916020019161260c565b820191906000526020600020905b8154815290600101906020018083116125ef57829003601f168201915b50505050508152602001600582018054612625906137a2565b80601f0160208091040260200160405190810160405280929190818152602001828054612651906137a2565b801561269e5780601f106126735761010080835404028352916020019161269e565b820191906000526020600020905b81548152906001019060200180831161268157829003601f168201915b505050505081526020016006820180546126b7906137a2565b80601f01602080910402602001604051908101604052809291908181526020018280546126e3906137a2565b80156127305780601f1061270557610100808354040283529160200191612730565b820191906000526020600020905b81548152906001019060200180831161271357829003601f168201915b5050509183525050600782015460ff161515602082015260088201805460409092019161275c906137a2565b80601f0160208091040260200160405190810160405280929190818152602001828054612788906137a2565b80156127d55780601f106127aa576101008083540402835291602001916127d5565b820191906000526020600020905b8154815290600101906020018083116127b857829003601f168201915b505050505081526020016009820180546127ee906137a2565b80601f016020809104026020016040519081016040528092919081815260200182805461281a906137a2565b80156128675780601f1061283c57610100808354040283529160200191612867565b820191906000526020600020905b81548152906001019060200180831161284a57829003601f168201915b50505050508152602001600a82018054612880906137a2565b80601f01602080910402602001604051908101604052809291908181526020018280546128ac906137a2565b80156128f95780601f106128ce576101008083540402835291602001916128f9565b820191906000526020600020905b8154815290600101906020018083116128dc57829003601f168201915b50505050508152602001600b82018054612912906137a2565b80601f016020809104026020016040519081016040528092919081815260200182805461293e906137a2565b801561298b5780601f106129605761010080835404028352916020019161298b565b820191906000526020600020905b81548152906001019060200180831161296e57829003601f168201915b5050509190925250505060c081018b905261014081018a905260008381526006602090815260409182902083518155908301516001820155908201516002820155606082015160038201556080820151919250829160048201906129ef908261382b565b5060a08201516005820190612a04908261382b565b5060c08201516006820190612a19908261382b565b5060e082015160078201805460ff19169115159190911790556101008201516008820190612a47908261382b565b506101208201516009820190612a5d908261382b565b50610140820151600a820190612a73908261382b565b50610160820151600b820190612a89908261382b565b5090505050508080612a9a90613933565b91505061250b565b506000898152600760205260408120600d0180548a9290612ac49084906139db565b90915550506040805160a081018252848152602081018990528082018b9052606081018a9052608081018890529051600a90612b019086906138eb565b908152604051602091819003820190208054600181018255600091825291902082518392600502909101908190612b38908261382b565b5060208201516001820190612b4d908261382b565b50604082015160028201556060820151600382015560808201516004820190612b76908261382b565b505050600b88604051612b8991906138eb565b908152604051602091819003820190208054600181018255600091825291902082518392600502909101908190612bc0908261382b565b5060208201516001820190612bd5908261382b565b50604082015160028201556060820151600382015560808201516004820190612bfe908261382b565b50505050505050505050505050565b6000848152600760205260409020600a015460ff1615612c885760405162461bcd60e51b815260206004820152603060248201527f5468697320626174636820697320616c7265616479207363616e6e656420627960448201526f103a3432903234b9ba3934b13aba37b960811b60648201526084016104f1565b82604051602001612c9991906138eb565b60408051601f198184030181528282528051602091820120600088815260078352929092209192612cce92600601910161394c565b6040516020818303038152906040528051906020012014612d455760405162461bcd60e51b815260206004820152602b60248201527f54686973206261746368206973206e6f74206f776e656420627920746869732060448201526a3234b9ba3934b13aba37b960a91b60648201526084016104f1565b6000848152600760205260409020600a8101805460ff19166001179055600b01612d6f838261382b565b506000848152600760205260409020600c016111bf828261382b565b6000805b600054811015612dd8578260008281548110612dad57612dad613907565b906000526020600020015403612dc65750600192915050565b80612dd081613933565b915050612d8f565b50600092915050565b6000805b600354811015612dd8578260038281548110612e0357612e03613907565b906000526020600020015403612e1c5750600192915050565b80612e2681613933565b915050612de5565b6000805b600254811015612dd8578260028281548110612e5057612e50613907565b906000526020600020015403612e695750600192915050565b80612e7381613933565b915050612e32565b6000805b600154811015612dd8578260018281548110612e9d57612e9d613907565b906000526020600020015403612eb65750600192915050565b80612ec081613933565b915050612e7f565b828054828255906000526020600020908101928215612f03579160200282015b82811115612f03578251825591602001919060010190612ee8565b50612f0f929150612f13565b5090565b5b80821115612f0f5760008155600101612f14565b634e487b7160e01b600052604160045260246000fd5b604051601f8201601f1916810167ffffffffffffffff81118282101715612f6757612f67612f28565b604052919050565b600082601f830112612f8057600080fd5b813567ffffffffffffffff811115612f9a57612f9a612f28565b612fad601f8201601f1916602001612f3e565b818152846020838601011115612fc257600080fd5b816020850160208301376000918101602001919091529392505050565b60008060408385031215612ff257600080fd5b823567ffffffffffffffff81111561300957600080fd5b61301585828601612f6f565b95602094909401359450505050565b6000806000806080858703121561303a57600080fd5b84359350602085013567ffffffffffffffff8082111561305957600080fd5b61306588838901612f6f565b9450604087013591508082111561307b57600080fd5b61308788838901612f6f565b9350606087013591508082111561309d57600080fd5b506130aa87828801612f6f565b91505092959194509250565b6000602082840312156130c857600080fd5b813567ffffffffffffffff8111156130df57600080fd5b6130eb84828501612f6f565b949350505050565b602080825282518282018190526000919060409081850190868401855b8281101561313557815180518552860151868501529284019290850190600101613110565b5091979650505050505050565b60006020828403121561315457600080fd5b5035919050565b6020808252825182820181905260009190848201906040850190845b8181101561319357835183529284019291840191600101613177565b50909695505050505050565b600082601f8301126131b057600080fd5b8135602067ffffffffffffffff8211156131cc576131cc612f28565b8160051b6131db828201612f3e565b92835284810182019282810190878511156131f557600080fd5b83870192505b84831015613214578235825291830191908301906131fb565b979650505050505050565b6000806000806000806000806000806101408b8d03121561323f57600080fd5b8a35995060208b013567ffffffffffffffff8082111561325e57600080fd5b61326a8e838f0161319f565b9a5060408d013591508082111561328057600080fd5b61328c8e838f0161319f565b995060608d0135985060808d01359150808211156132a957600080fd5b6132b58e838f01612f6f565b975060a08d0135965060c08d01359150808211156132d257600080fd5b6132de8e838f01612f6f565b955060e08d01359150808211156132f457600080fd5b6133008e838f01612f6f565b94506101008d013591508082111561331757600080fd5b6133238e838f01612f6f565b93506101208d013591508082111561333a57600080fd5b506133478d828e01612f6f565b9150509295989b9194979a5092959850565b60005b8381101561337457818101518382015260200161335c565b50506000910152565b60008151808452613395816020860160208601613359565b601f01601f19169290920160200192915050565b8481526080602082015260006133c2608083018661337d565b82810360408401526133d4818661337d565b90508281036060840152613214818561337d565b85815284602082015260a06040820152600061340760a083018661337d565b846060840152828103608084015261341f818561337d565b98975050505050505050565b60006020808301818452808551808352604092508286019150828160051b87010184880160005b838110156134d457603f19898403018552815160a081518186526134788287018261337d565b915050888201518582038a870152613490828261337d565b91505087820151888601526060808301518187015250608080830151925085820381870152506134c0818361337d565b968901969450505090860190600101613452565b509098975050505050505050565b600080600080600060a086880312156134fa57600080fd5b8535945060208601359350604086013567ffffffffffffffff8082111561352057600080fd5b61352c89838a01612f6f565b945060608801359350608088013591508082111561354957600080fd5b5061355688828901612f6f565b9150509295509295909350565b6000806040838503121561357657600080fd5b50508035926020909101359150565b6000806000806080858703121561359b57600080fd5b8435935060208501359250604085013567ffffffffffffffff8082111561307b57600080fd5b8e81528d60208201528c60408201526101c0606082015260006135e86101c083018e61337d565b8c608084015282810360a0840152613600818d61337d565b905082810360c0840152613614818c61337d565b905082810360e0840152613628818b61337d565b905082810361010084015261363d818a61337d565b90508761012084015261365561014084018815159052565b828103610160840152613668818761337d565b905082810361018084015261367d818661337d565b915050826101a08301529f9e505050505050505050505050505050565b60a0815260006136ad60a083018861337d565b82810360208401526136bf818861337d565b9050856040840152846060840152828103608084015261341f818561337d565b60006101808e83528d60208401528c60408401528b606084015280608084015261370b8184018c61337d565b905082810360a084015261371f818b61337d565b905082810360c0840152613733818a61337d565b88151560e08501529050828103610100840152613750818861337d565b9050828103610120840152613765818761337d565b905082810361014084015261377a818661337d565b905082810361016084015261378f818561337d565b9f9e505050505050505050505050505050565b600181811c908216806137b657607f821691505b6020821081036137d657634e487b7160e01b600052602260045260246000fd5b50919050565b601f82111561382657600081815260208120601f850160051c810160208610156138035750805b601f850160051c820191505b818110156138225782815560010161380f565b5050505b505050565b815167ffffffffffffffff81111561384557613845612f28565b6138598161385384546137a2565b846137dc565b602080601f83116001811461388e57600084156138765750858301515b600019600386901b1c1916600185901b178555613822565b600085815260208120601f198616915b828110156138bd5788860151825594840194600190910190840161389e565b50858210156138db5787850151600019600388901b60f8161c191681555b5050505050600190811b01905550565b600082516138fd818460208701613359565b9190910192915050565b634e487b7160e01b600052603260045260246000fd5b634e487b7160e01b600052601160045260246000fd5b6000600182016139455761394561391d565b5060010190565b600080835461395a816137a2565b600182811680156139725760018114613987576139b6565b60ff19841687528215158302870194506139b6565b8760005260208060002060005b858110156139ad5781548a820152908401908201613994565b50505082870194505b50929695505050505050565b808201808211156139d5576139d561391d565b92915050565b818103818111156139d5576139d561391d56fea2646970667358221220ec585d83f205414d37f3fd24b52342197a880f8612ac8e83ac358708bb2d047464736f6c63430008110033",
  "linkReferences": {},
  "deployedLinkReferences": {}
}