{
  "_format": "hh-sol-artifact-1",
  "contractName": "Supplychain",
  "sourceName": "contracts/Supplychain.sol",
  "abi": [
    {
      "inputs": [
        {
          "internalType": "uint256",
          "name": "",
          "type": "uint256"
        },
        {
          "internalType": "uint256",
          "name": "",
          "type": "uint256"
        }
      ],
      "name": "BatchIDToProductIDMapping",
      "outputs": [
        {
          "internalType": "uint256",
          "name": "",
          "type": "uint256"
        }
      ],
      "stateMutability": "view",
      "type": "function"
    },
    {
      "inputs": [
        {
          "internalType": "uint256",
          "name": "",
          "type": "uint256"
        }
      ],
      "name": "BatchIDs",
      "outputs": [
        {
          "internalType": "uint256",
          "name": "",
          "type": "uint256"
        }
      ],
      "stateMutability": "view",
      "type": "function"
    },
    {
      "inputs": [
        {
          "internalType": "uint256",
          "name": "",
          "type": "uint256"
        }
      ],
      "name": "BatchMapping",
      "outputs": [
        {
          "internalType": "uint256",
          "name": "BatchID",
          "type": "uint256"
        },
        {
          "internalType": "uint256",
          "name": "BatchSize",
          "type": "uint256"
        },
        {
          "internalType": "uint256",
          "name": "AmountSold",
          "type": "uint256"
        },
        {
          "internalType": "string",
          "name": "BatchDescription",
          "type": "string"
        },
        {
          "internalType": "uint256",
          "name": "ProductTemplateID",
          "type": "uint256"
        },
        {
          "internalType": "string",
          "name": "FactoryID",
          "type": "string"
        },
        {
          "internalType": "string",
          "name": "DistributorID",
          "type": "string"
        },
        {
          "internalType": "string",
          "name": "RetailerID",
          "type": "string"
        },
        {
          "internalType": "string",
          "name": "FactoryLocation",
          "type": "string"
        },
        {
          "internalType": "string",
          "name": "DateOfProduction",
          "type": "string"
        },
        {
          "internalType": "uint256",
          "name": "State",
          "type": "uint256"
        },
        {
          "internalType": "bool",
          "name": "FactoryScanned",
          "type": "bool"
        },
        {
          "internalType": "bool",
          "name": "DistributorScanned",
          "type": "bool"
        },
        {
          "internalType": "bool",
          "name": "RetailerScanned",
          "type": "bool"
        }
      ],
      "stateMutability": "view",
      "type": "function"
    },
    {
      "inputs": [
        {
          "internalType": "uint256",
          "name": "",
          "type": "uint256"
        }
      ],
      "name": "BatchTemplateIDs",
      "outputs": [
        {
          "internalType": "uint256",
          "name": "",
          "type": "uint256"
        }
      ],
      "stateMutability": "view",
      "type": "function"
    },
    {
      "inputs": [
        {
          "internalType": "uint256",
          "name": "",
          "type": "uint256"
        }
      ],
      "name": "BatchTemplateMAP",
      "outputs": [
        {
          "internalType": "uint256",
          "name": "BatchTemplateID",
          "type": "uint256"
        },
        {
          "internalType": "uint256",
          "name": "ProductTemplateID",
          "type": "uint256"
        },
        {
          "internalType": "string",
          "name": "Description",
          "type": "string"
        },
        {
          "internalType": "uint256",
          "name": "BatchSize",
          "type": "uint256"
        },
        {
          "internalType": "string",
          "name": "FactoryID",
          "type": "string"
        }
      ],
      "stateMutability": "view",
      "type": "function"
    },
    {
      "inputs": [
        {
          "internalType": "string",
          "name": "",
          "type": "string"
        },
        {
          "internalType": "uint256",
          "name": "",
          "type": "uint256"
        }
      ],
      "name": "CustomerData",
      "outputs": [
        {
          "internalType": "uint256",
          "name": "BatchID",
          "type": "uint256"
        },
        {
          "internalType": "uint256",
          "name": "ProductID",
          "type": "uint256"
        }
      ],
      "stateMutability": "view",
      "type": "function"
    },
    {
      "inputs": [
        {
          "internalType": "uint256",
          "name": "",
          "type": "uint256"
        }
      ],
      "name": "ProductIDs",
      "outputs": [
        {
          "internalType": "uint256",
          "name": "",
          "type": "uint256"
        }
      ],
      "stateMutability": "view",
      "type": "function"
    },
    {
      "inputs": [
        {
          "internalType": "uint256",
          "name": "",
          "type": "uint256"
        }
      ],
      "name": "ProductMapping",
      "outputs": [
        {
          "internalType": "uint256",
          "name": "ProductID",
          "type": "uint256"
        },
        {
          "internalType": "uint256",
          "name": "BatchID",
          "type": "uint256"
        },
        {
          "internalType": "uint256",
          "name": "ProductTemplateID",
          "type": "uint256"
        },
        {
          "internalType": "string",
          "name": "DOM",
          "type": "string"
        },
        {
          "internalType": "string",
          "name": "OwnerID",
          "type": "string"
        },
        {
          "internalType": "uint256",
          "name": "DateWhenSold",
          "type": "uint256"
        }
      ],
      "stateMutability": "view",
      "type": "function"
    },
    {
      "inputs": [
        {
          "internalType": "uint256",
          "name": "",
          "type": "uint256"
        }
      ],
      "name": "ProductTemplateIDs",
      "outputs": [
        {
          "internalType": "uint256",
          "name": "",
          "type": "uint256"
        }
      ],
      "stateMutability": "view",
      "type": "function"
    },
    {
      "inputs": [
        {
          "internalType": "uint256",
          "name": "",
          "type": "uint256"
        }
      ],
      "name": "ProductTemplateMAP",
      "outputs": [
        {
          "internalType": "uint256",
          "name": "ProductTemplateID",
          "type": "uint256"
        },
        {
          "internalType": "string",
          "name": "Name",
          "type": "string"
        },
        {
          "internalType": "string",
          "name": "Description",
          "type": "string"
        },
        {
          "internalType": "string",
          "name": "FactoryID",
          "type": "string"
        }
      ],
      "stateMutability": "view",
      "type": "function"
    },
    {
      "inputs": [
        {
          "internalType": "uint256",
          "name": "_batchTemplateID",
          "type": "uint256"
        },
        {
          "internalType": "uint256",
          "name": "_productTemplateID",
          "type": "uint256"
        },
        {
          "internalType": "string",
          "name": "_description",
          "type": "string"
        },
        {
          "internalType": "uint256",
          "name": "_batchSize",
          "type": "uint256"
        },
        {
          "internalType": "string",
          "name": "_factoryID",
          "type": "string"
        }
      ],
      "name": "addBatchTemplate",
      "outputs": [],
      "stateMutability": "nonpayable",
      "type": "function"
    },
    {
      "inputs": [
        {
          "internalType": "uint256",
          "name": "_productTemplateID",
          "type": "uint256"
        },
        {
          "internalType": "string",
          "name": "_name",
          "type": "string"
        },
        {
          "internalType": "string",
          "name": "_description",
          "type": "string"
        },
        {
          "internalType": "string",
          "name": "_factoryID",
          "type": "string"
        }
      ],
      "name": "addProductTemplate",
      "outputs": [],
      "stateMutability": "nonpayable",
      "type": "function"
    },
    {
      "inputs": [
        {
          "internalType": "uint256",
          "name": "batchID",
          "type": "uint256"
        },
        {
          "internalType": "uint256[]",
          "name": "productIDs",
          "type": "uint256[]"
        },
        {
          "internalType": "uint256",
          "name": "batchSize",
          "type": "uint256"
        },
        {
          "internalType": "string",
          "name": "batchDescription",
          "type": "string"
        },
        {
          "internalType": "uint256",
          "name": "productTemplateID",
          "type": "uint256"
        },
        {
          "internalType": "string",
          "name": "factory",
          "type": "string"
        },
        {
          "internalType": "string",
          "name": "distributor",
          "type": "string"
        },
        {
          "internalType": "string",
          "name": "factoryLocation",
          "type": "string"
        },
        {
          "internalType": "string",
          "name": "dateOfProduction",
          "type": "string"
        }
      ],
      "name": "batchProduced",
      "outputs": [],
      "stateMutability": "nonpayable",
      "type": "function"
    },
    {
      "inputs": [
        {
          "internalType": "uint256",
          "name": "batchID",
          "type": "uint256"
        },
        {
          "internalType": "string",
          "name": "_distributorID",
          "type": "string"
        }
      ],
      "name": "distributorScansBatch",
      "outputs": [],
      "stateMutability": "nonpayable",
      "type": "function"
    },
    {
      "inputs": [
        {
          "internalType": "uint256",
          "name": "batchID",
          "type": "uint256"
        },
        {
          "internalType": "string",
          "name": "retailerID",
          "type": "string"
        }
      ],
      "name": "distributorSellToRetailer",
      "outputs": [],
      "stateMutability": "nonpayable",
      "type": "function"
    },
    {
      "inputs": [
        {
          "internalType": "uint256",
          "name": "batchID",
          "type": "uint256"
        },
        {
          "internalType": "string",
          "name": "_factoryID",
          "type": "string"
        }
      ],
      "name": "factoryScansBatch",
      "outputs": [],
      "stateMutability": "nonpayable",
      "type": "function"
    },
    {
      "inputs": [],
      "name": "getAllBatchIDs",
      "outputs": [
        {
          "internalType": "uint256[]",
          "name": "",
          "type": "uint256[]"
        }
      ],
      "stateMutability": "view",
      "type": "function"
    },
    {
      "inputs": [],
      "name": "getAllBatchTemplateIDs",
      "outputs": [
        {
          "internalType": "uint256[]",
          "name": "",
          "type": "uint256[]"
        }
      ],
      "stateMutability": "view",
      "type": "function"
    },
    {
      "inputs": [],
      "name": "getAllProductIDs",
      "outputs": [
        {
          "internalType": "uint256[]",
          "name": "",
          "type": "uint256[]"
        }
      ],
      "stateMutability": "view",
      "type": "function"
    },
    {
      "inputs": [],
      "name": "getAllProductTemplateIDs",
      "outputs": [
        {
          "internalType": "uint256[]",
          "name": "",
          "type": "uint256[]"
        }
      ],
      "stateMutability": "view",
      "type": "function"
    },
    {
      "inputs": [
        {
          "internalType": "string",
          "name": "customerID",
          "type": "string"
        }
      ],
      "name": "getAllProductsBought",
      "outputs": [
        {
          "components": [
            {
              "internalType": "uint256",
              "name": "BatchID",
              "type": "uint256"
            },
            {
              "internalType": "uint256",
              "name": "ProductID",
              "type": "uint256"
            }
          ],
          "internalType": "struct Supplychain.Customer[]",
          "name": "",
          "type": "tuple[]"
        }
      ],
      "stateMutability": "view",
      "type": "function"
    },
    {
      "inputs": [
        {
          "internalType": "uint256",
          "name": "batchID",
          "type": "uint256"
        }
      ],
      "name": "getProductIdsForaBatch",
      "outputs": [
        {
          "internalType": "uint256[]",
          "name": "",
          "type": "uint256[]"
        }
      ],
      "stateMutability": "view",
      "type": "function"
    },
    {
      "inputs": [
        {
          "internalType": "uint256",
          "name": "batchID",
          "type": "uint256"
        },
        {
          "internalType": "string",
          "name": "_retailerID",
          "type": "string"
        }
      ],
      "name": "retailerScansBatch",
      "outputs": [],
      "stateMutability": "nonpayable",
      "type": "function"
    },
    {
      "inputs": [
        {
          "internalType": "uint256",
          "name": "batchID",
          "type": "uint256"
        },
        {
          "internalType": "uint256",
          "name": "productID",
          "type": "uint256"
        },
        {
          "internalType": "string",
          "name": "customerID",
          "type": "string"
        }
      ],
      "name": "retailerSellToCustomer",
      "outputs": [],
      "stateMutability": "nonpayable",
      "type": "function"
    }
  ],
  "bytecode": "0x608060405234801561001057600080fd5b506121ee806100206000396000f3fe608060405234801561001057600080fd5b50600436106101585760003560e01c80637fdd55f5116100c3578063bf801df11161007c578063bf801df1146102ec578063c492384f14610319578063d16ad4e01461032c578063d5932cc41461033f578063d976f93014610352578063eac0e9771461036557600080fd5b80637fdd55f5146102855780638bd42880146102985780638c4c42cd146102ab5780638e5452b8146102b357806390973cce146102c6578063a78317f8146102d957600080fd5b80634c27729c116101155780634c27729c146102085780634ca20f34146102105780635aaa718e1461022357806371d1dc0c14610236578063793560dd146102595780637ae4ee041461026157600080fd5b806321f293911461015d578063278338e81461018a578063284328d01461019f578063392a70a6146101bf5780633ab95f30146101df5780633b7d255c14610200575b600080fd5b61017061016b366004611907565b61038a565b604080519283526020830191909152015b60405180910390f35b61019d61019836600461194c565b6103d5565b005b6101b26101ad3660046119de565b610483565b6040516101819190611a1b565b6101d26101cd366004611a6a565b610514565b6040516101819190611a83565b6101f26101ed366004611a6a565b610576565b604051908152602001610181565b6101d2610597565b6101d26105ef565b6101f261021e366004611a6a565b610645565b61019d610231366004611ac7565b610655565b610249610244366004611a6a565b61068a565b6040516101819493929190611b5e565b6101d261084b565b61027461026f366004611a6a565b6108a1565b604051610181959493929190611ba8565b61019d610293366004611ac7565b6109e1565b6101f26102a6366004611a6a565b610b41565b6101d2610b51565b61019d6102c1366004611beb565b610ba7565b6101f26102d4366004611c6c565b610c68565b6101f26102e7366004611a6a565b610c99565b6102ff6102fa366004611a6a565b610ca9565b6040516101819e9d9c9b9a99989796959493929190611c8e565b61019d610327366004611dd0565b61104e565b61019d61033a366004611ee4565b61134b565b61019d61034d366004611ac7565b6113fc565b61019d610360366004611ac7565b61154b565b610378610373366004611a6a565b6116a9565b60405161018196959493929190611f34565b815160208184018101805160058252928201918501919091209190528054829081106103b557600080fd5b600091825260209091206002909102018054600190910154909250905082565b60408051608081018252858152602080820186815282840186905260608301859052600088815291829052929020815181559151909190600182019061041b9082612008565b50604082015160028201906104309082612008565b50606082015160038201906104459082612008565b5050600680546001810182556000919091527ff652222313e28459528d920b65115c16c04f3efc82aaedc97be59f3f377c0d3f019490945550505050565b606060058260405161049591906120c8565b9081526020016040518091039020805480602002602001604051908101604052809291908181526020016000905b82821015610509578382906000526020600020906002020160405180604001604052908160008201548152602001600182015481525050815260200190600101906104c3565b505050509050919050565b60008181526004602090815260409182902080548351818402810184019094528084526060939283018282801561056a57602002820191906000526020600020905b815481526020019060010190808311610556575b50505050509050919050565b6006818154811061058657600080fd5b600091825260209091200154905081565b606060068054806020026020016040519081016040528092919081815260200182805480156105e557602002820191906000526020600020905b8154815260200190600101908083116105d1575b5050505050905090565b606060078054806020026020016040519081016040528092919081815260200182805480156105e557602002820191906000526020600020908154815260200190600101908083116105d1575050505050905090565b6007818154811061058657600080fd5b60008281526003602052604090206007016106708282612008565b505060009081526003602052604090206001600a90910155565b600060208190529081526040902080546001820180549192916106ac90611f7f565b80601f01602080910402602001604051908101604052809291908181526020018280546106d890611f7f565b80156107255780601f106106fa57610100808354040283529160200191610725565b820191906000526020600020905b81548152906001019060200180831161070857829003601f168201915b50505050509080600201805461073a90611f7f565b80601f016020809104026020016040519081016040528092919081815260200182805461076690611f7f565b80156107b35780601f10610788576101008083540402835291602001916107b3565b820191906000526020600020905b81548152906001019060200180831161079657829003601f168201915b5050505050908060030180546107c890611f7f565b80601f01602080910402602001604051908101604052809291908181526020018280546107f490611f7f565b80156108415780601f1061081657610100808354040283529160200191610841565b820191906000526020600020905b81548152906001019060200180831161082457829003601f168201915b5050505050905084565b606060098054806020026020016040519081016040528092919081815260200182805480156105e557602002820191906000526020600020908154815260200190600101908083116105d1575050505050905090565b60016020819052600091825260409091208054918101546002820180549192916108ca90611f7f565b80601f01602080910402602001604051908101604052809291908181526020018280546108f690611f7f565b80156109435780601f1061091857610100808354040283529160200191610943565b820191906000526020600020905b81548152906001019060200180831161092657829003601f168201915b50505050509080600301549080600401805461095e90611f7f565b80601f016020809104026020016040519081016040528092919081815260200182805461098a90611f7f565b80156109d75780601f106109ac576101008083540402835291602001916109d7565b820191906000526020600020905b8154815290600101906020018083116109ba57829003601f168201915b5050505050905085565b6000828152600360205260409020600b015462010000900460ff1615610a645760405162461bcd60e51b815260206004820152602d60248201527f5468697320626174636820697320616c7265616479207363616e6e656420627960448201526c103a3432903932ba30b4b632b960991b60648201526084015b60405180910390fd5b80604051602001610a7591906120c8565b60408051601f198184030181528282528051602091820120600086815260038352929092209192610aaa9260070191016120e4565b6040516020818303038152906040528051906020012014610b1e5760405162461bcd60e51b815260206004820152602860248201527f54686973206261746368206973206e6f74206f776e65642062792074686973206044820152673932ba30b4b632b960c11b6064820152608401610a5b565b506000908152600360205260409020600b01805462ff0000191662010000179055565b6009818154811061058657600080fd5b606060088054806020026020016040519081016040528092919081815260200182805480156105e557602002820191906000526020600020908154815260200190600101908083116105d1575050505050905090565b6040518060a00160405280868152602001858152602001848152602001838152602001828152506001600087815260200190815260200160002060008201518160000155602082015181600101556040820151816002019081610c0a9190612008565b506060820151600382015560808201516004820190610c299082612008565b5050600780546001810182556000919091527fa66cc928b5edb82af9bd49922954155ab7b0942694bea4ce44661d9a8736c68801959095555050505050565b60046020528160005260406000208181548110610c8457600080fd5b90600052602060002001600091509150505481565b6008818154811061058657600080fd5b6003602052806000526040600020600091509050806000015490806001015490806002015490806003018054610cde90611f7f565b80601f0160208091040260200160405190810160405280929190818152602001828054610d0a90611f7f565b8015610d575780601f10610d2c57610100808354040283529160200191610d57565b820191906000526020600020905b815481529060010190602001808311610d3a57829003601f168201915b505050505090806004015490806005018054610d7290611f7f565b80601f0160208091040260200160405190810160405280929190818152602001828054610d9e90611f7f565b8015610deb5780601f10610dc057610100808354040283529160200191610deb565b820191906000526020600020905b815481529060010190602001808311610dce57829003601f168201915b505050505090806006018054610e0090611f7f565b80601f0160208091040260200160405190810160405280929190818152602001828054610e2c90611f7f565b8015610e795780601f10610e4e57610100808354040283529160200191610e79565b820191906000526020600020905b815481529060010190602001808311610e5c57829003601f168201915b505050505090806007018054610e8e90611f7f565b80601f0160208091040260200160405190810160405280929190818152602001828054610eba90611f7f565b8015610f075780601f10610edc57610100808354040283529160200191610f07565b820191906000526020600020905b815481529060010190602001808311610eea57829003601f168201915b505050505090806008018054610f1c90611f7f565b80601f0160208091040260200160405190810160405280929190818152602001828054610f4890611f7f565b8015610f955780601f10610f6a57610100808354040283529160200191610f95565b820191906000526020600020905b815481529060010190602001808311610f7857829003601f168201915b505050505090806009018054610faa90611f7f565b80601f0160208091040260200160405190810160405280929190818152602001828054610fd690611f7f565b80156110235780601f10610ff857610100808354040283529160200191611023565b820191906000526020600020905b81548152906001019060200180831161100657829003601f168201915b50505050600a830154600b9093015491929160ff80821692506101008204811691620100009004168e565b604080516101c0810182528a815260208082018a81526000838501818152606085018c8152608086018c905260a086018b905260c086018a90528651808601885283815260e0870152610100860189905261012086018890526101408601839052610160860183905261018086018390526101a086018390528f83526003948590529590912084518155915160018301555160028201559251919291908201906110f89082612008565b506080820151600482015560a082015160058201906111179082612008565b5060c0820151600682019061112c9082612008565b5060e082015160078201906111419082612008565b5061010082015160088201906111579082612008565b50610120820151600982019061116d9082612008565b50610140820151600a820155610160820151600b90910180546101808401516101a0909401511515620100000262ff0000199415156101000261ff00199415159490941661ffff1990921691909117929092179290921617905560098054600181019091557f6e1540171b6c0c960b71a7020d9f60077f6af931a8bbf590da0223dacf75c7af0189905560008981526004602090815260409091208951611216928b01906117f0565b5060005b8781101561133f576040518060c001604052808a838151811061123f5761123f61215a565b602002602001015181526020018b81526020018781526020018381526020016040518060200160405280600081525081526020016000815250600260008b848151811061128e5761128e61215a565b6020026020010151815260200190815260200160002060008201518160000155602082015181600101556040820151816002015560608201518160030190816112d79190612008565b50608082015160048201906112ec9082612008565b5060a08201518160050155905050600889828151811061130e5761130e61215a565b602090810291909101810151825460018101845560009384529190922001558061133781612186565b91505061121a565b50505050505050505050565b600083815260036020526040812060020180546001929061136d90849061219f565b9091555050600082815260026020526040902060040161138d8282612008565b50600082815260026020526040908190204260059182015590516113b29083906120c8565b908152604080519182900360209081018320838301909252948252818501938452805460018181018355600092835295909120915160029091029091019081559151919092015550565b6000828152600360205260409020600b015460ff16156114735760405162461bcd60e51b815260206004820152602c60248201527f5468697320626174636820697320616c7265616479207363616e6e656420627960448201526b2074686520666163746f727960a01b6064820152608401610a5b565b8060405160200161148491906120c8565b60408051601f1981840301815282825280516020918201206000868152600383529290922091926114b99260050191016120e4565b604051602081830303815290604052805190602001201461152c5760405162461bcd60e51b815260206004820152602760248201527f54686973206261746368206973206e6f74206f776e6564206279207468697320604482015266666163746f727960c81b6064820152608401610a5b565b506000908152600360205260409020600b01805460ff19166001179055565b6000828152600360205260409020600b0154610100900460ff16156115cb5760405162461bcd60e51b815260206004820152603060248201527f5468697320626174636820697320616c7265616479207363616e6e656420627960448201526f103a3432903234b9ba3934b13aba37b960811b6064820152608401610a5b565b806040516020016115dc91906120c8565b60408051601f1981840301815282825280516020918201206000868152600383529290922091926116119260060191016120e4565b60405160208183030381529060405280519060200120146116885760405162461bcd60e51b815260206004820152602b60248201527f54686973206261746368206973206e6f74206f776e656420627920746869732060448201526a3234b9ba3934b13aba37b960a91b6064820152608401610a5b565b506000908152600360205260409020600b01805461ff001916610100179055565b6002602081905260009182526040909120805460018201549282015460038301805492949391926116d990611f7f565b80601f016020809104026020016040519081016040528092919081815260200182805461170590611f7f565b80156117525780601f1061172757610100808354040283529160200191611752565b820191906000526020600020905b81548152906001019060200180831161173557829003601f168201915b50505050509080600401805461176790611f7f565b80601f016020809104026020016040519081016040528092919081815260200182805461179390611f7f565b80156117e05780601f106117b5576101008083540402835291602001916117e0565b820191906000526020600020905b8154815290600101906020018083116117c357829003601f168201915b5050505050908060050154905086565b82805482825590600052602060002090810192821561182b579160200282015b8281111561182b578251825591602001919060010190611810565b5061183792915061183b565b5090565b5b80821115611837576000815560010161183c565b634e487b7160e01b600052604160045260246000fd5b604051601f8201601f1916810167ffffffffffffffff8111828210171561188f5761188f611850565b604052919050565b600082601f8301126118a857600080fd5b813567ffffffffffffffff8111156118c2576118c2611850565b6118d5601f8201601f1916602001611866565b8181528460208386010111156118ea57600080fd5b816020850160208301376000918101602001919091529392505050565b6000806040838503121561191a57600080fd5b823567ffffffffffffffff81111561193157600080fd5b61193d85828601611897565b95602094909401359450505050565b6000806000806080858703121561196257600080fd5b84359350602085013567ffffffffffffffff8082111561198157600080fd5b61198d88838901611897565b945060408701359150808211156119a357600080fd5b6119af88838901611897565b935060608701359150808211156119c557600080fd5b506119d287828801611897565b91505092959194509250565b6000602082840312156119f057600080fd5b813567ffffffffffffffff811115611a0757600080fd5b611a1384828501611897565b949350505050565b602080825282518282018190526000919060409081850190868401855b82811015611a5d57815180518552860151868501529284019290850190600101611a38565b5091979650505050505050565b600060208284031215611a7c57600080fd5b5035919050565b6020808252825182820181905260009190848201906040850190845b81811015611abb57835183529284019291840191600101611a9f565b50909695505050505050565b60008060408385031215611ada57600080fd5b82359150602083013567ffffffffffffffff811115611af857600080fd5b611b0485828601611897565b9150509250929050565b60005b83811015611b29578181015183820152602001611b11565b50506000910152565b60008151808452611b4a816020860160208601611b0e565b601f01601f19169290920160200192915050565b848152608060208201526000611b776080830186611b32565b8281036040840152611b898186611b32565b90508281036060840152611b9d8185611b32565b979650505050505050565b85815284602082015260a060408201526000611bc760a0830186611b32565b8460608401528281036080840152611bdf8185611b32565b98975050505050505050565b600080600080600060a08688031215611c0357600080fd5b8535945060208601359350604086013567ffffffffffffffff80821115611c2957600080fd5b611c3589838a01611897565b9450606088013593506080880135915080821115611c5257600080fd5b50611c5f88828901611897565b9150509295509295909350565b60008060408385031215611c7f57600080fd5b50508035926020909101359150565b8e81528d60208201528c60408201526101c060608201526000611cb56101c083018e611b32565b8c608084015282810360a0840152611ccd818d611b32565b905082810360c0840152611ce1818c611b32565b905082810360e0840152611cf5818b611b32565b9050828103610100840152611d0a818a611b32565b9050828103610120840152611d1f8189611b32565b91505085610140830152611d3861016083018615159052565b9215156101808201529015156101a0909101529c9b505050505050505050505050565b600082601f830112611d6c57600080fd5b8135602067ffffffffffffffff821115611d8857611d88611850565b8160051b611d97828201611866565b9283528481018201928281019087851115611db157600080fd5b83870192505b84831015611b9d57823582529183019190830190611db7565b60008060008060008060008060006101208a8c031215611def57600080fd5b8935985060208a013567ffffffffffffffff80821115611e0e57600080fd5b611e1a8d838e01611d5b565b995060408c0135985060608c0135915080821115611e3757600080fd5b611e438d838e01611897565b975060808c0135965060a08c0135915080821115611e6057600080fd5b611e6c8d838e01611897565b955060c08c0135915080821115611e8257600080fd5b611e8e8d838e01611897565b945060e08c0135915080821115611ea457600080fd5b611eb08d838e01611897565b93506101008c0135915080821115611ec757600080fd5b50611ed48c828d01611897565b9150509295985092959850929598565b600080600060608486031215611ef957600080fd5b8335925060208401359150604084013567ffffffffffffffff811115611f1e57600080fd5b611f2a86828701611897565b9150509250925092565b86815285602082015284604082015260c060608201526000611f5960c0830186611b32565b8281036080840152611f6b8186611b32565b9150508260a0830152979650505050505050565b600181811c90821680611f9357607f821691505b602082108103611fb357634e487b7160e01b600052602260045260246000fd5b50919050565b601f82111561200357600081815260208120601f850160051c81016020861015611fe05750805b601f850160051c820191505b81811015611fff57828155600101611fec565b5050505b505050565b815167ffffffffffffffff81111561202257612022611850565b612036816120308454611f7f565b84611fb9565b602080601f83116001811461206b57600084156120535750858301515b600019600386901b1c1916600185901b178555611fff565b600085815260208120601f198616915b8281101561209a5788860151825594840194600190910190840161207b565b50858210156120b85787850151600019600388901b60f8161c191681555b5050505050600190811b01905550565b600082516120da818460208701611b0e565b9190910192915050565b60008083546120f281611f7f565b6001828116801561210a576001811461211f5761214e565b60ff198416875282151583028701945061214e565b8760005260208060002060005b858110156121455781548a82015290840190820161212c565b50505082870194505b50929695505050505050565b634e487b7160e01b600052603260045260246000fd5b634e487b7160e01b600052601160045260246000fd5b60006001820161219857612198612170565b5060010190565b808201808211156121b2576121b2612170565b9291505056fea26469706673582212203f7e830a14b75295d7fe872a1cc7e7428832422df2ef4af7c4d1c0bbbd67428264736f6c63430008110033",
  "linkReferences": {},
  "deployedLinkReferences": {}
}