{
  "_format": "hh-sol-artifact-1",
  "contractName": "Supplychain",
  "sourceName": "contracts/Supplychain.sol",
  "abi": [
    {
      "inputs": [
        {
          "internalType": "uint256",
          "name": "",
          "type": "uint256"
        },
        {
          "internalType": "uint256",
          "name": "",
          "type": "uint256"
        }
      ],
      "name": "BatchIDToProductIDMapping",
      "outputs": [
        {
          "internalType": "uint256",
          "name": "",
          "type": "uint256"
        }
      ],
      "stateMutability": "view",
      "type": "function"
    },
    {
      "inputs": [
        {
          "internalType": "uint256",
          "name": "",
          "type": "uint256"
        }
      ],
      "name": "BatchIDs",
      "outputs": [
        {
          "internalType": "uint256",
          "name": "",
          "type": "uint256"
        }
      ],
      "stateMutability": "view",
      "type": "function"
    },
    {
      "inputs": [
        {
          "internalType": "uint256",
          "name": "",
          "type": "uint256"
        }
      ],
      "name": "BatchMapping",
      "outputs": [
        {
          "internalType": "uint256",
          "name": "BatchID",
          "type": "uint256"
        },
        {
          "internalType": "uint256",
          "name": "BatchSize",
          "type": "uint256"
        },
        {
          "internalType": "uint256",
          "name": "AmountSold",
          "type": "uint256"
        },
        {
          "internalType": "string",
          "name": "BatchDescription",
          "type": "string"
        },
        {
          "internalType": "uint256",
          "name": "ProductTemplateID",
          "type": "uint256"
        },
        {
          "internalType": "uint256",
          "name": "FactoryID",
          "type": "uint256"
        },
        {
          "internalType": "uint256",
          "name": "DistributorID",
          "type": "uint256"
        },
        {
          "internalType": "uint256",
          "name": "RetailerID",
          "type": "uint256"
        },
        {
          "internalType": "string",
          "name": "FactoryLocation",
          "type": "string"
        },
        {
          "internalType": "string",
          "name": "DateOfProduction",
          "type": "string"
        },
        {
          "internalType": "uint256",
          "name": "State",
          "type": "uint256"
        },
        {
          "internalType": "bool",
          "name": "FactoryScanned",
          "type": "bool"
        },
        {
          "internalType": "bool",
          "name": "DistributorScanned",
          "type": "bool"
        },
        {
          "internalType": "bool",
          "name": "RetailerScanned",
          "type": "bool"
        }
      ],
      "stateMutability": "view",
      "type": "function"
    },
    {
      "inputs": [
        {
          "internalType": "uint256",
          "name": "",
          "type": "uint256"
        }
      ],
      "name": "BatchTemplateIDs",
      "outputs": [
        {
          "internalType": "uint256",
          "name": "",
          "type": "uint256"
        }
      ],
      "stateMutability": "view",
      "type": "function"
    },
    {
      "inputs": [
        {
          "internalType": "uint256",
          "name": "",
          "type": "uint256"
        }
      ],
      "name": "BatchTemplateMAP",
      "outputs": [
        {
          "internalType": "uint256",
          "name": "BatchTemplateID",
          "type": "uint256"
        },
        {
          "internalType": "uint256",
          "name": "ProductTemplateID",
          "type": "uint256"
        },
        {
          "internalType": "string",
          "name": "Description",
          "type": "string"
        },
        {
          "internalType": "uint256",
          "name": "BatchSize",
          "type": "uint256"
        },
        {
          "internalType": "uint256",
          "name": "FactoryID",
          "type": "uint256"
        }
      ],
      "stateMutability": "view",
      "type": "function"
    },
    {
      "inputs": [
        {
          "internalType": "uint256",
          "name": "",
          "type": "uint256"
        },
        {
          "internalType": "uint256",
          "name": "",
          "type": "uint256"
        }
      ],
      "name": "CustomerData",
      "outputs": [
        {
          "internalType": "uint256",
          "name": "BatchID",
          "type": "uint256"
        },
        {
          "internalType": "uint256",
          "name": "ProductID",
          "type": "uint256"
        }
      ],
      "stateMutability": "view",
      "type": "function"
    },
    {
      "inputs": [
        {
          "internalType": "uint256",
          "name": "",
          "type": "uint256"
        }
      ],
      "name": "ProductIDs",
      "outputs": [
        {
          "internalType": "uint256",
          "name": "",
          "type": "uint256"
        }
      ],
      "stateMutability": "view",
      "type": "function"
    },
    {
      "inputs": [
        {
          "internalType": "uint256",
          "name": "",
          "type": "uint256"
        }
      ],
      "name": "ProductMapping",
      "outputs": [
        {
          "internalType": "uint256",
          "name": "ProductID",
          "type": "uint256"
        },
        {
          "internalType": "uint256",
          "name": "BatchID",
          "type": "uint256"
        },
        {
          "internalType": "uint256",
          "name": "ProductTemplateID",
          "type": "uint256"
        },
        {
          "internalType": "string",
          "name": "DOM",
          "type": "string"
        },
        {
          "internalType": "uint256",
          "name": "OwnerID",
          "type": "uint256"
        },
        {
          "internalType": "uint256",
          "name": "DateWhenSold",
          "type": "uint256"
        }
      ],
      "stateMutability": "view",
      "type": "function"
    },
    {
      "inputs": [
        {
          "internalType": "uint256",
          "name": "",
          "type": "uint256"
        }
      ],
      "name": "ProductTemplateIDs",
      "outputs": [
        {
          "internalType": "uint256",
          "name": "",
          "type": "uint256"
        }
      ],
      "stateMutability": "view",
      "type": "function"
    },
    {
      "inputs": [
        {
          "internalType": "uint256",
          "name": "",
          "type": "uint256"
        }
      ],
      "name": "ProductTemplateMAP",
      "outputs": [
        {
          "internalType": "uint256",
          "name": "ProductTemplateID",
          "type": "uint256"
        },
        {
          "internalType": "string",
          "name": "Name",
          "type": "string"
        },
        {
          "internalType": "string",
          "name": "Description",
          "type": "string"
        }
      ],
      "stateMutability": "view",
      "type": "function"
    },
    {
      "inputs": [
        {
          "internalType": "uint256",
          "name": "_batchTemplateID",
          "type": "uint256"
        },
        {
          "internalType": "uint256",
          "name": "_productTemplateID",
          "type": "uint256"
        },
        {
          "internalType": "string",
          "name": "_description",
          "type": "string"
        },
        {
          "internalType": "uint256",
          "name": "_batchSize",
          "type": "uint256"
        },
        {
          "internalType": "uint256",
          "name": "_factoryID",
          "type": "uint256"
        }
      ],
      "name": "addBatchTemplate",
      "outputs": [],
      "stateMutability": "nonpayable",
      "type": "function"
    },
    {
      "inputs": [
        {
          "internalType": "uint256",
          "name": "_productTemplateID",
          "type": "uint256"
        },
        {
          "internalType": "string",
          "name": "_name",
          "type": "string"
        },
        {
          "internalType": "string",
          "name": "_description",
          "type": "string"
        }
      ],
      "name": "addProductTemplate",
      "outputs": [],
      "stateMutability": "nonpayable",
      "type": "function"
    },
    {
      "inputs": [
        {
          "internalType": "uint256",
          "name": "batchID",
          "type": "uint256"
        },
        {
          "internalType": "uint256[]",
          "name": "productIDs",
          "type": "uint256[]"
        },
        {
          "internalType": "uint256",
          "name": "batchSize",
          "type": "uint256"
        },
        {
          "internalType": "string",
          "name": "batchDescription",
          "type": "string"
        },
        {
          "internalType": "uint256",
          "name": "productTemplateID",
          "type": "uint256"
        },
        {
          "internalType": "uint256",
          "name": "factory",
          "type": "uint256"
        },
        {
          "internalType": "uint256",
          "name": "distributor",
          "type": "uint256"
        },
        {
          "internalType": "string",
          "name": "factoryLocation",
          "type": "string"
        },
        {
          "internalType": "string",
          "name": "dateOfProduction",
          "type": "string"
        }
      ],
      "name": "batchProduced",
      "outputs": [],
      "stateMutability": "nonpayable",
      "type": "function"
    },
    {
      "inputs": [
        {
          "internalType": "uint256",
          "name": "batchID",
          "type": "uint256"
        },
        {
          "internalType": "uint256",
          "name": "_distributorID",
          "type": "uint256"
        }
      ],
      "name": "distributorScansBatch",
      "outputs": [],
      "stateMutability": "nonpayable",
      "type": "function"
    },
    {
      "inputs": [
        {
          "internalType": "uint256",
          "name": "batchID",
          "type": "uint256"
        },
        {
          "internalType": "uint256",
          "name": "retailerID",
          "type": "uint256"
        }
      ],
      "name": "distributorSellToRetailer",
      "outputs": [],
      "stateMutability": "nonpayable",
      "type": "function"
    },
    {
      "inputs": [
        {
          "internalType": "uint256",
          "name": "batchID",
          "type": "uint256"
        },
        {
          "internalType": "uint256",
          "name": "_factoryID",
          "type": "uint256"
        }
      ],
      "name": "factoryScansBatch",
      "outputs": [],
      "stateMutability": "nonpayable",
      "type": "function"
    },
    {
      "inputs": [],
      "name": "getAllBatchIDs",
      "outputs": [
        {
          "internalType": "uint256[]",
          "name": "",
          "type": "uint256[]"
        }
      ],
      "stateMutability": "view",
      "type": "function"
    },
    {
      "inputs": [],
      "name": "getAllBatchTemplateIDs",
      "outputs": [
        {
          "internalType": "uint256[]",
          "name": "",
          "type": "uint256[]"
        }
      ],
      "stateMutability": "view",
      "type": "function"
    },
    {
      "inputs": [],
      "name": "getAllProductIDs",
      "outputs": [
        {
          "internalType": "uint256[]",
          "name": "",
          "type": "uint256[]"
        }
      ],
      "stateMutability": "view",
      "type": "function"
    },
    {
      "inputs": [],
      "name": "getAllProductTemplateIDs",
      "outputs": [
        {
          "internalType": "uint256[]",
          "name": "",
          "type": "uint256[]"
        }
      ],
      "stateMutability": "view",
      "type": "function"
    },
    {
      "inputs": [
        {
          "internalType": "uint256",
          "name": "customerID",
          "type": "uint256"
        }
      ],
      "name": "getAllProductsBought",
      "outputs": [
        {
          "components": [
            {
              "internalType": "uint256",
              "name": "BatchID",
              "type": "uint256"
            },
            {
              "internalType": "uint256",
              "name": "ProductID",
              "type": "uint256"
            }
          ],
          "internalType": "struct Supplychain.Customer[]",
          "name": "",
          "type": "tuple[]"
        }
      ],
      "stateMutability": "view",
      "type": "function"
    },
    {
      "inputs": [
        {
          "internalType": "uint256",
          "name": "batchID",
          "type": "uint256"
        }
      ],
      "name": "getProductIdsForaBatch",
      "outputs": [
        {
          "internalType": "uint256[]",
          "name": "",
          "type": "uint256[]"
        }
      ],
      "stateMutability": "view",
      "type": "function"
    },
    {
      "inputs": [
        {
          "internalType": "uint256",
          "name": "batchID",
          "type": "uint256"
        },
        {
          "internalType": "uint256",
          "name": "_retailerID",
          "type": "uint256"
        }
      ],
      "name": "retailerScansBatch",
      "outputs": [],
      "stateMutability": "nonpayable",
      "type": "function"
    },
    {
      "inputs": [
        {
          "internalType": "uint256",
          "name": "batchID",
          "type": "uint256"
        },
        {
          "internalType": "uint256",
          "name": "productID",
          "type": "uint256"
        },
        {
          "internalType": "uint256",
          "name": "customerID",
          "type": "uint256"
        }
      ],
      "name": "retailerSellToCustomer",
      "outputs": [],
      "stateMutability": "nonpayable",
      "type": "function"
    }
  ],
  "bytecode": "0x608060405234801561001057600080fd5b50611ab9806100206000396000f3fe608060405234801561001057600080fd5b50600436106101585760003560e01c80638bd42880116100c3578063bf801df11161007c578063bf801df1146102e9578063c513ab8114610316578063cb441b1a14610329578063ce9a91c814610351578063e369f39b14610364578063eac0e9771461038457600080fd5b80638bd42880146102825780638c4c42cd1461029557806390973cce1461029d578063a43304c0146102b0578063a78317f8146102c3578063a90fdb4a146102d657600080fd5b80634e939486116101155780634e939486146101df57806371d1dc0c146101f2578063793560dd146102145780637ae4ee041461021c5780637c0fac7f14610240578063865a75251461026f57600080fd5b806312d938491461015d578063392a70a6146101725780633ab95f301461019b5780633b7d255c146101bc5780634c27729c146101c45780634ca20f34146101cc575b600080fd5b61017061016b366004611373565b6103a9565b005b61018561018036600461139f565b610428565b60405161019291906113b8565b60405180910390f35b6101ae6101a936600461139f565b61048a565b604051908152602001610192565b6101856104ab565b610185610503565b6101ae6101da36600461139f565b610559565b6101706101ed3660046114b3565b610569565b61020561020036600461139f565b6105fa565b60405161019293929190611566565b61018561072d565b61022f61022a36600461139f565b610783565b60405161019295949392919061159b565b61017061024e3660046115ce565b60009182526003602052604090912060078101919091556001600a90910155565b61017061027d3660046115ce565b61083b565b6101ae61029036600461139f565b610946565b610185610956565b6101ae6102ab3660046115ce565b6109ac565b6101706102be3660046115f0565b6109dd565b6101ae6102d136600461139f565b610a93565b6101706102e43660046115ce565b610aa3565b6102fc6102f736600461139f565b610bb5565b6040516101929e9d9c9b9a99989796959493929190611652565b610170610324366004611775565b610dc2565b61033c6103373660046115ce565b61107d565b60408051928352602083019190915201610192565b61017061035f3660046115ce565b6110b9565b61037761037236600461139f565b6111ce565b6040516101929190611853565b61039761039236600461139f565b611254565b604051610192969594939291906118a2565b60008381526003602052604081206002018054600192906103cb9084906118f2565b90915550506000828152600260208181526040808420600481018690554260059182015594845293815283832084518086019095529584528381019485528554600181810188559684529220925191029091019081559051910155565b60008181526004602090815260409182902080548351818402810184019094528084526060939283018282801561047e57602002820191906000526020600020905b81548152602001906001019080831161046a575b50505050509050919050565b6006818154811061049a57600080fd5b600091825260209091200154905081565b606060068054806020026020016040519081016040528092919081815260200182805480156104f957602002820191906000526020600020905b8154815260200190600101908083116104e5575b5050505050905090565b606060078054806020026020016040519081016040528092919081815260200182805480156104f957602002820191906000526020600020908154815260200190600101908083116104e5575050505050905090565b6007818154811061049a57600080fd5b60408051606081018252848152602080820185815282840185905260008781529182905292902081518155915190919060018201906105a89082611994565b50604082015160028201906105bd9082611994565b5050600680546001810182556000919091527ff652222313e28459528d920b65115c16c04f3efc82aaedc97be59f3f377c0d3f0193909355505050565b6000602081905290815260409020805460018201805491929161061c9061190b565b80601f01602080910402602001604051908101604052809291908181526020018280546106489061190b565b80156106955780601f1061066a57610100808354040283529160200191610695565b820191906000526020600020905b81548152906001019060200180831161067857829003601f168201915b5050505050908060020180546106aa9061190b565b80601f01602080910402602001604051908101604052809291908181526020018280546106d69061190b565b80156107235780601f106106f857610100808354040283529160200191610723565b820191906000526020600020905b81548152906001019060200180831161070657829003601f168201915b5050505050905083565b606060098054806020026020016040519081016040528092919081815260200182805480156104f957602002820191906000526020600020908154815260200190600101908083116104e5575050505050905090565b60016020819052600091825260409091208054918101546002820180549192916107ac9061190b565b80601f01602080910402602001604051908101604052809291908181526020018280546107d89061190b565b80156108255780601f106107fa57610100808354040283529160200191610825565b820191906000526020600020905b81548152906001019060200180831161080857829003601f168201915b5050505050908060030154908060040154905085565b6000828152600360205260409020600b015460ff16156108b75760405162461bcd60e51b815260206004820152602c60248201527f5468697320626174636820697320616c7265616479207363616e6e656420627960448201526b2074686520666163746f727960a01b60648201526084015b60405180910390fd5b60008281526003602052604090206005015481146109275760405162461bcd60e51b815260206004820152602760248201527f54686973206261746368206973206e6f74206f776e6564206279207468697320604482015266666163746f727960c81b60648201526084016108ae565b506000908152600360205260409020600b01805460ff19166001179055565b6009818154811061049a57600080fd5b606060088054806020026020016040519081016040528092919081815260200182805480156104f957602002820191906000526020600020908154815260200190600101908083116104e5575050505050905090565b600460205281600052604060002081815481106109c857600080fd5b90600052602060002001600091509150505481565b6040518060a00160405280868152602001858152602001848152602001838152602001828152506001600087815260200190815260200160002060008201518160000155602082015181600101556040820151816002019081610a409190611994565b50606082015160038201556080909101516004909101555050600780546001810182556000919091527fa66cc928b5edb82af9bd49922954155ab7b0942694bea4ce44661d9a8736c68801929092555050565b6008818154811061049a57600080fd5b6000828152600360205260409020600b015462010000900460ff1615610b215760405162461bcd60e51b815260206004820152602d60248201527f5468697320626174636820697320616c7265616479207363616e6e656420627960448201526c103a3432903932ba30b4b632b960991b60648201526084016108ae565b6000828152600360205260409020600701548114610b925760405162461bcd60e51b815260206004820152602860248201527f54686973206261746368206973206e6f74206f776e65642062792074686973206044820152673932ba30b4b632b960c11b60648201526084016108ae565b506000908152600360205260409020600b01805462ff0000191662010000179055565b6003602052806000526040600020600091509050806000015490806001015490806002015490806003018054610bea9061190b565b80601f0160208091040260200160405190810160405280929190818152602001828054610c169061190b565b8015610c635780601f10610c3857610100808354040283529160200191610c63565b820191906000526020600020905b815481529060010190602001808311610c4657829003601f168201915b505050505090806004015490806005015490806006015490806007015490806008018054610c909061190b565b80601f0160208091040260200160405190810160405280929190818152602001828054610cbc9061190b565b8015610d095780601f10610cde57610100808354040283529160200191610d09565b820191906000526020600020905b815481529060010190602001808311610cec57829003601f168201915b505050505090806009018054610d1e9061190b565b80601f0160208091040260200160405190810160405280929190818152602001828054610d4a9061190b565b8015610d975780601f10610d6c57610100808354040283529160200191610d97565b820191906000526020600020905b815481529060010190602001808311610d7a57829003601f168201915b50505050600a830154600b9093015491929160ff80821692506101008204811691620100009004168e565b604080516101c0810182528a815260208082018a81526000838501818152606085018c8152608086018c905260a086018b905260c086018a905260e08601839052610100860189905261012086018890526101408601839052610160860183905261018086018390526101a086018390528f8352600394859052959091208451815591516001830155516002820155925191929190820190610e649082611994565b506080820151600482015560a0820151600582015560c0820151600682015560e082015160078201556101008201516008820190610ea29082611994565b506101208201516009820190610eb89082611994565b50610140820151600a820155610160820151600b90910180546101808401516101a0909401511515620100000262ff0000199415156101000261ff00199415159490941661ffff1990921691909117929092179290921617905560098054600181019091557f6e1540171b6c0c960b71a7020d9f60077f6af931a8bbf590da0223dacf75c7af0189905560008981526004602090815260409091208951610f61928b0190611313565b5060005b87811015611071576040518060c001604052808a8381518110610f8a57610f8a611a54565b602002602001015181526020018b8152602001878152602001838152602001600081526020016000815250600260008b8481518110610fcb57610fcb611a54565b6020026020010151815260200190815260200160002060008201518160000155602082015181600101556040820151816002015560608201518160030190816110149190611994565b506080820151816004015560a08201518160050155905050600889828151811061104057611040611a54565b602090810291909101810151825460018101845560009384529190922001558061106981611a6a565b915050610f65565b50505050505050505050565b6005602052816000526040600020818154811061109957600080fd5b600091825260209091206002909102018054600190910154909250905082565b6000828152600360205260409020600b0154610100900460ff16156111395760405162461bcd60e51b815260206004820152603060248201527f5468697320626174636820697320616c7265616479207363616e6e656420627960448201526f103a3432903234b9ba3934b13aba37b960811b60648201526084016108ae565b60008281526003602052604090206006015481146111ad5760405162461bcd60e51b815260206004820152602b60248201527f54686973206261746368206973206e6f74206f776e656420627920746869732060448201526a3234b9ba3934b13aba37b960a91b60648201526084016108ae565b506000908152600360205260409020600b01805461ff001916610100179055565b606060056000838152602001908152602001600020805480602002602001604051908101604052809291908181526020016000905b8282101561124957838290600052602060002090600202016040518060400160405290816000820154815260200160018201548152505081526020019060010190611203565b505050509050919050565b6002602081905260009182526040909120805460018201549282015460038301805492949391926112849061190b565b80601f01602080910402602001604051908101604052809291908181526020018280546112b09061190b565b80156112fd5780601f106112d2576101008083540402835291602001916112fd565b820191906000526020600020905b8154815290600101906020018083116112e057829003601f168201915b5050505050908060040154908060050154905086565b82805482825590600052602060002090810192821561134e579160200282015b8281111561134e578251825591602001919060010190611333565b5061135a92915061135e565b5090565b5b8082111561135a576000815560010161135f565b60008060006060848603121561138857600080fd5b505081359360208301359350604090920135919050565b6000602082840312156113b157600080fd5b5035919050565b6020808252825182820181905260009190848201906040850190845b818110156113f0578351835292840192918401916001016113d4565b50909695505050505050565b634e487b7160e01b600052604160045260246000fd5b604051601f8201601f1916810167ffffffffffffffff8111828210171561143b5761143b6113fc565b604052919050565b600082601f83011261145457600080fd5b813567ffffffffffffffff81111561146e5761146e6113fc565b611481601f8201601f1916602001611412565b81815284602083860101111561149657600080fd5b816020850160208301376000918101602001919091529392505050565b6000806000606084860312156114c857600080fd5b83359250602084013567ffffffffffffffff808211156114e757600080fd5b6114f387838801611443565b9350604086013591508082111561150957600080fd5b5061151686828701611443565b9150509250925092565b6000815180845260005b818110156115465760208185018101518683018201520161152a565b506000602082860101526020601f19601f83011685010191505092915050565b83815260606020820152600061157f6060830185611520565b82810360408401526115918185611520565b9695505050505050565b85815284602082015260a0604082015260006115ba60a0830186611520565b606083019490945250608001529392505050565b600080604083850312156115e157600080fd5b50508035926020909101359150565b600080600080600060a0868803121561160857600080fd5b8535945060208601359350604086013567ffffffffffffffff81111561162d57600080fd5b61163988828901611443565b9598949750949560608101359550608001359392505050565b8e81528d60208201528c60408201526101c0606082015260006116796101c083018e611520565b8c60808401528b60a08401528a60c08401528960e08401528281036101008401526116a4818a611520565b90508281036101208401526116b98189611520565b915050856101408301526116d261016083018615159052565b9215156101808201529015156101a0909101529c9b505050505050505050505050565b600082601f83011261170657600080fd5b8135602067ffffffffffffffff821115611722576117226113fc565b8160051b611731828201611412565b928352848101820192828101908785111561174b57600080fd5b83870192505b8483101561176a57823582529183019190830190611751565b979650505050505050565b60008060008060008060008060006101208a8c03121561179457600080fd5b8935985060208a013567ffffffffffffffff808211156117b357600080fd5b6117bf8d838e016116f5565b995060408c0135985060608c01359150808211156117dc57600080fd5b6117e88d838e01611443565b975060808c0135965060a08c0135955060c08c0135945060e08c013591508082111561181357600080fd5b61181f8d838e01611443565b93506101008c013591508082111561183657600080fd5b506118438c828d01611443565b9150509295985092959850929598565b602080825282518282018190526000919060409081850190868401855b8281101561189557815180518552860151868501529284019290850190600101611870565b5091979650505050505050565b86815285602082015284604082015260c0606082015260006118c760c0830186611520565b60808301949094525060a00152949350505050565b634e487b7160e01b600052601160045260246000fd5b80820180821115611905576119056118dc565b92915050565b600181811c9082168061191f57607f821691505b60208210810361193f57634e487b7160e01b600052602260045260246000fd5b50919050565b601f82111561198f57600081815260208120601f850160051c8101602086101561196c5750805b601f850160051c820191505b8181101561198b57828155600101611978565b5050505b505050565b815167ffffffffffffffff8111156119ae576119ae6113fc565b6119c2816119bc845461190b565b84611945565b602080601f8311600181146119f757600084156119df5750858301515b600019600386901b1c1916600185901b17855561198b565b600085815260208120601f198616915b82811015611a2657888601518255948401946001909101908401611a07565b5085821015611a445787850151600019600388901b60f8161c191681555b5050505050600190811b01905550565b634e487b7160e01b600052603260045260246000fd5b600060018201611a7c57611a7c6118dc565b506001019056fea26469706673582212200925308f2b7a16dbb4fc721b3601b9e89fdde87fd9bcc5ec9c82e0dda0a46da764736f6c63430008110033",
  "linkReferences": {},
  "deployedLinkReferences": {}
}