{
  "_format": "hh-sol-artifact-1",
  "contractName": "Supplychain",
  "sourceName": "contracts/Supplychain.sol",
  "abi": [
    {
      "inputs": [
        {
          "internalType": "uint256",
          "name": "",
          "type": "uint256"
        },
        {
          "internalType": "uint256",
          "name": "",
          "type": "uint256"
        }
      ],
      "name": "BatchIDToProductIDMapping",
      "outputs": [
        {
          "internalType": "uint256",
          "name": "",
          "type": "uint256"
        }
      ],
      "stateMutability": "view",
      "type": "function"
    },
    {
      "inputs": [
        {
          "internalType": "uint256",
          "name": "",
          "type": "uint256"
        }
      ],
      "name": "BatchIDs",
      "outputs": [
        {
          "internalType": "uint256",
          "name": "",
          "type": "uint256"
        }
      ],
      "stateMutability": "view",
      "type": "function"
    },
    {
      "inputs": [
        {
          "internalType": "uint256",
          "name": "",
          "type": "uint256"
        }
      ],
      "name": "BatchMapping",
      "outputs": [
        {
          "internalType": "uint256",
          "name": "BatchID",
          "type": "uint256"
        },
        {
          "internalType": "uint256",
          "name": "BatchSize",
          "type": "uint256"
        },
        {
          "internalType": "uint256",
          "name": "AmountSoldTOCustomer",
          "type": "uint256"
        },
        {
          "internalType": "string",
          "name": "BatchDescription",
          "type": "string"
        },
        {
          "internalType": "uint256",
          "name": "ProductTemplateID",
          "type": "uint256"
        },
        {
          "internalType": "string",
          "name": "FactoryID",
          "type": "string"
        },
        {
          "internalType": "string",
          "name": "DistributorID",
          "type": "string"
        },
        {
          "internalType": "string",
          "name": "FactoryLocation",
          "type": "string"
        },
        {
          "internalType": "string",
          "name": "DateOfProduction",
          "type": "string"
        },
        {
          "internalType": "uint256",
          "name": "State",
          "type": "uint256"
        },
        {
          "internalType": "bool",
          "name": "DistributorScanned",
          "type": "bool"
        },
        {
          "internalType": "string",
          "name": "DistributorScannedTimeStamp",
          "type": "string"
        },
        {
          "internalType": "uint256",
          "name": "AmountLeftForSellingTORetailer",
          "type": "uint256"
        },
        {
          "internalType": "uint256",
          "name": "CompanyBatchID",
          "type": "uint256"
        }
      ],
      "stateMutability": "view",
      "type": "function"
    },
    {
      "inputs": [
        {
          "internalType": "uint256",
          "name": "",
          "type": "uint256"
        }
      ],
      "name": "BatchTemplateIDs",
      "outputs": [
        {
          "internalType": "uint256",
          "name": "",
          "type": "uint256"
        }
      ],
      "stateMutability": "view",
      "type": "function"
    },
    {
      "inputs": [
        {
          "internalType": "uint256",
          "name": "",
          "type": "uint256"
        }
      ],
      "name": "BatchTemplateMAP",
      "outputs": [
        {
          "internalType": "uint256",
          "name": "BatchTemplateID",
          "type": "uint256"
        },
        {
          "internalType": "uint256",
          "name": "ProductTemplateID",
          "type": "uint256"
        },
        {
          "internalType": "string",
          "name": "Description",
          "type": "string"
        },
        {
          "internalType": "uint256",
          "name": "BatchSize",
          "type": "uint256"
        },
        {
          "internalType": "string",
          "name": "FactoryID",
          "type": "string"
        }
      ],
      "stateMutability": "view",
      "type": "function"
    },
    {
      "inputs": [
        {
          "internalType": "string",
          "name": "",
          "type": "string"
        },
        {
          "internalType": "uint256",
          "name": "",
          "type": "uint256"
        }
      ],
      "name": "CustomerData",
      "outputs": [
        {
          "internalType": "uint256",
          "name": "ProductID",
          "type": "uint256"
        },
        {
          "internalType": "string",
          "name": "CustomerID",
          "type": "string"
        },
        {
          "internalType": "string",
          "name": "CustomerName",
          "type": "string"
        }
      ],
      "stateMutability": "view",
      "type": "function"
    },
    {
      "inputs": [
        {
          "internalType": "string",
          "name": "",
          "type": "string"
        },
        {
          "internalType": "uint256",
          "name": "",
          "type": "uint256"
        }
      ],
      "name": "DistributorIDToRetailerStruct",
      "outputs": [
        {
          "internalType": "string",
          "name": "DistributorID",
          "type": "string"
        },
        {
          "internalType": "string",
          "name": "RetailerID",
          "type": "string"
        },
        {
          "internalType": "uint256",
          "name": "BatchID",
          "type": "uint256"
        },
        {
          "internalType": "uint256",
          "name": "Quantity",
          "type": "uint256"
        },
        {
          "internalType": "string",
          "name": "TimeStamp",
          "type": "string"
        }
      ],
      "stateMutability": "view",
      "type": "function"
    },
    {
      "inputs": [
        {
          "internalType": "uint256",
          "name": "",
          "type": "uint256"
        }
      ],
      "name": "ProductIDs",
      "outputs": [
        {
          "internalType": "uint256",
          "name": "",
          "type": "uint256"
        }
      ],
      "stateMutability": "view",
      "type": "function"
    },
    {
      "inputs": [
        {
          "internalType": "uint256",
          "name": "",
          "type": "uint256"
        }
      ],
      "name": "ProductMapping",
      "outputs": [
        {
          "internalType": "uint256",
          "name": "ProductID",
          "type": "uint256"
        },
        {
          "internalType": "uint256",
          "name": "CompanyProductID",
          "type": "uint256"
        },
        {
          "internalType": "uint256",
          "name": "BatchID",
          "type": "uint256"
        },
        {
          "internalType": "uint256",
          "name": "ProductTemplateID",
          "type": "uint256"
        },
        {
          "internalType": "string",
          "name": "DOM",
          "type": "string"
        },
        {
          "internalType": "string",
          "name": "CustomerID",
          "type": "string"
        },
        {
          "internalType": "string",
          "name": "RetailerID",
          "type": "string"
        },
        {
          "internalType": "bool",
          "name": "RetailerScanned",
          "type": "bool"
        },
        {
          "internalType": "string",
          "name": "RetailerScannedTimeStamp",
          "type": "string"
        },
        {
          "internalType": "string",
          "name": "DateWhenSoldToRetailer",
          "type": "string"
        },
        {
          "internalType": "string",
          "name": "DateWhenSoldToCustomer",
          "type": "string"
        },
        {
          "internalType": "string",
          "name": "RetailerLatitude",
          "type": "string"
        },
        {
          "internalType": "string",
          "name": "RetailerLongitude",
          "type": "string"
        },
        {
          "internalType": "string",
          "name": "CustomerName",
          "type": "string"
        }
      ],
      "stateMutability": "view",
      "type": "function"
    },
    {
      "inputs": [
        {
          "internalType": "uint256",
          "name": "",
          "type": "uint256"
        }
      ],
      "name": "ProductTemplateIDs",
      "outputs": [
        {
          "internalType": "uint256",
          "name": "",
          "type": "uint256"
        }
      ],
      "stateMutability": "view",
      "type": "function"
    },
    {
      "inputs": [
        {
          "internalType": "uint256",
          "name": "",
          "type": "uint256"
        }
      ],
      "name": "ProductTemplateMAP",
      "outputs": [
        {
          "internalType": "uint256",
          "name": "ProductTemplateID",
          "type": "uint256"
        },
        {
          "internalType": "string",
          "name": "Name",
          "type": "string"
        },
        {
          "internalType": "string",
          "name": "Description",
          "type": "string"
        },
        {
          "internalType": "string",
          "name": "FactoryID",
          "type": "string"
        }
      ],
      "stateMutability": "view",
      "type": "function"
    },
    {
      "inputs": [
        {
          "internalType": "string",
          "name": "",
          "type": "string"
        },
        {
          "internalType": "uint256",
          "name": "",
          "type": "uint256"
        }
      ],
      "name": "RetailerIDToRetailerStruct",
      "outputs": [
        {
          "internalType": "string",
          "name": "DistributorID",
          "type": "string"
        },
        {
          "internalType": "string",
          "name": "RetailerID",
          "type": "string"
        },
        {
          "internalType": "uint256",
          "name": "BatchID",
          "type": "uint256"
        },
        {
          "internalType": "uint256",
          "name": "Quantity",
          "type": "uint256"
        },
        {
          "internalType": "string",
          "name": "TimeStamp",
          "type": "string"
        }
      ],
      "stateMutability": "view",
      "type": "function"
    },
    {
      "inputs": [
        {
          "internalType": "uint256",
          "name": "_batchTemplateID",
          "type": "uint256"
        },
        {
          "internalType": "uint256",
          "name": "_productTemplateID",
          "type": "uint256"
        },
        {
          "internalType": "string",
          "name": "_description",
          "type": "string"
        },
        {
          "internalType": "uint256",
          "name": "_batchSize",
          "type": "uint256"
        },
        {
          "internalType": "string",
          "name": "_factoryID",
          "type": "string"
        }
      ],
      "name": "addBatchTemplate",
      "outputs": [],
      "stateMutability": "nonpayable",
      "type": "function"
    },
    {
      "inputs": [
        {
          "internalType": "uint256",
          "name": "_productTemplateID",
          "type": "uint256"
        },
        {
          "internalType": "string",
          "name": "_name",
          "type": "string"
        },
        {
          "internalType": "string",
          "name": "_description",
          "type": "string"
        },
        {
          "internalType": "string",
          "name": "_factoryID",
          "type": "string"
        }
      ],
      "name": "addProductTemplate",
      "outputs": [],
      "stateMutability": "nonpayable",
      "type": "function"
    },
    {
      "inputs": [
        {
          "internalType": "uint256",
          "name": "batchID",
          "type": "uint256"
        },
        {
          "internalType": "uint256",
          "name": "companyBatchID",
          "type": "uint256"
        },
        {
          "internalType": "uint256[]",
          "name": "productIDs",
          "type": "uint256[]"
        },
        {
          "internalType": "uint256",
          "name": "batchSize",
          "type": "uint256"
        },
        {
          "internalType": "string",
          "name": "batchDescription",
          "type": "string"
        },
        {
          "internalType": "uint256",
          "name": "productTemplateID",
          "type": "uint256"
        },
        {
          "internalType": "string",
          "name": "factory",
          "type": "string"
        },
        {
          "internalType": "string",
          "name": "distributor",
          "type": "string"
        },
        {
          "internalType": "string",
          "name": "factoryLocation",
          "type": "string"
        },
        {
          "internalType": "string",
          "name": "dateOfProduction",
          "type": "string"
        }
      ],
      "name": "batchProduced",
      "outputs": [],
      "stateMutability": "nonpayable",
      "type": "function"
    },
    {
      "inputs": [
        {
          "internalType": "uint256",
          "name": "batchID",
          "type": "uint256"
        },
        {
          "internalType": "string",
          "name": "_distributorID",
          "type": "string"
        },
        {
          "internalType": "string",
          "name": "timeStamp",
          "type": "string"
        }
      ],
      "name": "distributorScansBatch",
      "outputs": [],
      "stateMutability": "nonpayable",
      "type": "function"
    },
    {
      "inputs": [
        {
          "internalType": "uint256",
          "name": "batchID",
          "type": "uint256"
        },
        {
          "internalType": "uint256",
          "name": "quantity",
          "type": "uint256"
        }
      ],
      "name": "distributorSellToRetailer",
      "outputs": [],
      "stateMutability": "nonpayable",
      "type": "function"
    },
    {
      "inputs": [],
      "name": "getAllBatchIDs",
      "outputs": [
        {
          "internalType": "uint256[]",
          "name": "",
          "type": "uint256[]"
        }
      ],
      "stateMutability": "view",
      "type": "function"
    },
    {
      "inputs": [],
      "name": "getAllBatchTemplateIDs",
      "outputs": [
        {
          "internalType": "uint256[]",
          "name": "",
          "type": "uint256[]"
        }
      ],
      "stateMutability": "view",
      "type": "function"
    },
    {
      "inputs": [],
      "name": "getAllProductIDs",
      "outputs": [
        {
          "internalType": "uint256[]",
          "name": "",
          "type": "uint256[]"
        }
      ],
      "stateMutability": "view",
      "type": "function"
    },
    {
      "inputs": [],
      "name": "getAllProductTemplateIDs",
      "outputs": [
        {
          "internalType": "uint256[]",
          "name": "",
          "type": "uint256[]"
        }
      ],
      "stateMutability": "view",
      "type": "function"
    },
    {
      "inputs": [
        {
          "internalType": "string",
          "name": "customerID",
          "type": "string"
        }
      ],
      "name": "getAllProductsBought",
      "outputs": [
        {
          "components": [
            {
              "internalType": "uint256",
              "name": "ProductID",
              "type": "uint256"
            },
            {
              "internalType": "string",
              "name": "CustomerID",
              "type": "string"
            },
            {
              "internalType": "string",
              "name": "CustomerName",
              "type": "string"
            }
          ],
          "internalType": "struct Supplychain.Customer[]",
          "name": "",
          "type": "tuple[]"
        }
      ],
      "stateMutability": "view",
      "type": "function"
    },
    {
      "inputs": [
        {
          "internalType": "string",
          "name": "distributorID",
          "type": "string"
        }
      ],
      "name": "getDistributorIDToRetailerStruct",
      "outputs": [
        {
          "components": [
            {
              "internalType": "string",
              "name": "DistributorID",
              "type": "string"
            },
            {
              "internalType": "string",
              "name": "RetailerID",
              "type": "string"
            },
            {
              "internalType": "uint256",
              "name": "BatchID",
              "type": "uint256"
            },
            {
              "internalType": "uint256",
              "name": "Quantity",
              "type": "uint256"
            },
            {
              "internalType": "string",
              "name": "TimeStamp",
              "type": "string"
            }
          ],
          "internalType": "struct Supplychain.Retailer[]",
          "name": "",
          "type": "tuple[]"
        }
      ],
      "stateMutability": "view",
      "type": "function"
    },
    {
      "inputs": [
        {
          "internalType": "uint256",
          "name": "batchID",
          "type": "uint256"
        }
      ],
      "name": "getProductIdsForaBatch",
      "outputs": [
        {
          "internalType": "uint256[]",
          "name": "",
          "type": "uint256[]"
        }
      ],
      "stateMutability": "view",
      "type": "function"
    },
    {
      "inputs": [
        {
          "internalType": "string",
          "name": "retailerID",
          "type": "string"
        }
      ],
      "name": "getRetailerIDToRetailerStruct",
      "outputs": [
        {
          "components": [
            {
              "internalType": "string",
              "name": "DistributorID",
              "type": "string"
            },
            {
              "internalType": "string",
              "name": "RetailerID",
              "type": "string"
            },
            {
              "internalType": "uint256",
              "name": "BatchID",
              "type": "uint256"
            },
            {
              "internalType": "uint256",
              "name": "Quantity",
              "type": "uint256"
            },
            {
              "internalType": "string",
              "name": "TimeStamp",
              "type": "string"
            }
          ],
          "internalType": "struct Supplychain.Retailer[]",
          "name": "",
          "type": "tuple[]"
        }
      ],
      "stateMutability": "view",
      "type": "function"
    },
    {
      "inputs": [
        {
          "internalType": "uint256",
          "name": "_productID",
          "type": "uint256"
        },
        {
          "internalType": "string",
          "name": "_retailerID",
          "type": "string"
        },
        {
          "internalType": "string",
          "name": "timeStamp",
          "type": "string"
        },
        {
          "internalType": "string",
          "name": "latitude",
          "type": "string"
        },
        {
          "internalType": "string",
          "name": "longitude",
          "type": "string"
        }
      ],
      "name": "retailerScansProduct",
      "outputs": [],
      "stateMutability": "nonpayable",
      "type": "function"
    },
    {
      "inputs": [
        {
          "internalType": "uint256",
          "name": "productID",
          "type": "uint256"
        },
        {
          "internalType": "string",
          "name": "customerID",
          "type": "string"
        },
        {
          "internalType": "string",
          "name": "customerName",
          "type": "string"
        }
      ],
      "name": "retailerSellToCustomer",
      "outputs": [],
      "stateMutability": "nonpayable",
      "type": "function"
    }
  ],
  "bytecode": "0x608060405234801561001057600080fd5b506134a9806100206000396000f3fe608060405234801561001057600080fd5b50600436106101a95760003560e01c80637f7bf690116100f9578063a78317f811610097578063bf801df111610071578063bf801df1146103a7578063e139f994146103d4578063e3c6a4ac146103f8578063eac0e9771461040b57600080fd5b8063a78317f81461036e578063a7a4523d14610381578063ab6e3ec51461039457600080fd5b80638c4c42cd116100d35780638c4c42cd1461032d5780638e5452b81461033557806390973cce1461034857806398a473f11461035b57600080fd5b80637f7bf690146102e75780638272d34b146103075780638bd428801461031a57600080fd5b80633c2f29761161016657806371d1dc0c1161014057806371d1dc0c14610285578063793560dd146102a85780637ae4ee04146102b05780637c0fac7f146102d457600080fd5b80633c2f2976146102575780634c27729c1461026a5780634ca20f341461027257600080fd5b806321f29391146101ae578063278338e8146101d9578063284328d0146101ee578063392a70a61461020e5780633ab95f301461022e5780633b7d255c1461024f575b600080fd5b6101c16101bc366004612918565b610438565b6040516101d0939291906129ad565b60405180910390f35b6101ec6101e73660046129e2565b61059e565b005b6102016101fc366004612a74565b6106c1565b6040516101d09190612ab1565b61022161021c366004612b42565b61086c565b6040516101d09190612b5b565b61024161023c366004612b42565b6108ce565b6040519081526020016101d0565b6102216108ef565b6101ec610265366004612c1f565b610947565b610221610cb4565b610241610280366004612b42565b610d0a565b610298610293366004612b42565b610d1a565b6040516101d09493929190612d3e565b610221610edb565b6102c36102be366004612b42565b610f31565b6040516101d0959493929190612d7d565b6101ec6102e2366004612dc0565b611070565b6102fa6102f5366004612a74565b61117d565b6040516101d09190612de2565b6101ec610315366004612e8b565b6113b9565b610241610328366004612b42565b611511565b610221611521565b6101ec610343366004612ef8565b611577565b610241610356366004612dc0565b611711565b6101ec610369366004612e8b565b611742565b61024161037c366004612b42565b6117fb565b6102fa61038f366004612a74565b61180b565b6101ec6103a2366004612f79565b611a47565b6103ba6103b5366004612b42565b611be4565b6040516101d09e9d9c9b9a99989796959493929190613016565b6103e76103e2366004612918565b611f83565b6040516101d09594939291906130dd565b6103e7610406366004612918565b6120fa565b61041e610419366004612b42565b612125565b6040516101d09e9d9c9b9a99989796959493929190613122565b8151602081840181018051600982529282019185019190912091905280548290811061046357600080fd5b90600052602060002090600302016000915091505080600001549080600101805461048d90613211565b80601f01602080910402602001604051908101604052809291908181526020018280546104b990613211565b80156105065780601f106104db57610100808354040283529160200191610506565b820191906000526020600020905b8154815290600101906020018083116104e957829003601f168201915b50505050509080600201805461051b90613211565b80601f016020809104026020016040519081016040528092919081815260200182805461054790613211565b80156105945780601f1061056957610100808354040283529160200191610594565b820191906000526020600020905b81548152906001019060200180831161057757829003601f168201915b5050505050905083565b6105a78461265d565b156106155760405162461bcd60e51b815260206004820152603360248201527f546869732050726f6475637454656d706c617465494420616c72656164792065604482015272786973747320696e207468652073797374656d60681b60648201526084015b60405180910390fd5b6040805160808101825285815260208082018681528284018690526060830185905260008881526004909252929020815181559151909190600182019061065c9082613296565b50604082015160028201906106719082613296565b50606082015160038201906106869082613296565b5050600080546001810182559080527f290decd9548b62a8d60345a988386fc84ba6bc95484008f6362f93160ef3e563019490945550505050565b60606009826040516106d39190613356565b9081526020016040518091039020805480602002602001604051908101604052809291908181526020016000905b8282101561086157838290600052602060002090600302016040518060600160405290816000820154815260200160018201805461073e90613211565b80601f016020809104026020016040519081016040528092919081815260200182805461076a90613211565b80156107b75780601f1061078c576101008083540402835291602001916107b7565b820191906000526020600020905b81548152906001019060200180831161079a57829003601f168201915b505050505081526020016002820180546107d090613211565b80601f01602080910402602001604051908101604052809291908181526020018280546107fc90613211565b80156108495780601f1061081e57610100808354040283529160200191610849565b820191906000526020600020905b81548152906001019060200180831161082c57829003601f168201915b50505050508152505081526020019060010190610701565b505050509050919050565b6000818152600860209081526040918290208054835181840281018401909452808452606093928301828280156108c257602002820191906000526020600020905b8154815260200190600101908083116108ae575b50505050509050919050565b600081815481106108de57600080fd5b600091825260209091200154905081565b6060600080548060200260200160405190810160405280929190818152602001828054801561093d57602002820191906000526020600020905b815481526020019060010190808311610929575b5050505050905090565b6109508a6126b3565b156109a95760405162461bcd60e51b8152602060048201526024808201527f4261746368494420616c72656164792065786973747320696e207468652073796044820152637374656d60e01b606482015260840161060c565b86885114610a1f5760405162461bcd60e51b815260206004820152603760248201527f53697a65206f662070726f6475637449447320617272617920646f6573206e6f60448201527f74206d6174636820776974682042617463682073697a65000000000000000000606482015260840161060c565b604051806101c001604052808b815260200188815260200160008152602001878152602001868152602001858152602001848152602001838152602001828152602001600081526020016000151581526020016040518060200160405280600081525081526020018881526020018a815250600760008c81526020019081526020016000206000820151816000015560208201518160010155604082015181600201556060820151816003019081610ad79190613296565b506080820151600482015560a08201516005820190610af69082613296565b5060c08201516006820190610b0b9082613296565b5060e08201516007820190610b209082613296565b506101008201516008820190610b369082613296565b506101208201516009820155610140820151600a8201805460ff1916911515919091179055610160820151600b820190610b709082613296565b50610180820151600c8201556101a090910151600d9091015560038054600181019091557fc2575a0e9e593c00f959f8c92f12db2869c3395a3b0502d05e2516446f71f85b018a905560008a81526008602090815260409091208951610bd8928b0190612801565b5060005b87811015610ca757610c06898281518110610bf957610bf9613372565b6020026020010151612700565b15610c625760405162461bcd60e51b815260206004820152602660248201527f50726f64756374494420616c72656164792065786973747320696e207468652060448201526573797374656d60d01b606482015260840161060c565b6002898281518110610c7657610c76613372565b6020908102919091018101518254600181018455600093845291909220015580610c9f8161339e565b915050610bdc565b5050505050505050505050565b6060600180548060200260200160405190810160405280929190818152602001828054801561093d5760200282019190600052602060002090815481526020019060010190808311610929575050505050905090565b600181815481106108de57600080fd5b60046020526000908152604090208054600182018054919291610d3c90613211565b80601f0160208091040260200160405190810160405280929190818152602001828054610d6890613211565b8015610db55780601f10610d8a57610100808354040283529160200191610db5565b820191906000526020600020905b815481529060010190602001808311610d9857829003601f168201915b505050505090806002018054610dca90613211565b80601f0160208091040260200160405190810160405280929190818152602001828054610df690613211565b8015610e435780601f10610e1857610100808354040283529160200191610e43565b820191906000526020600020905b815481529060010190602001808311610e2657829003601f168201915b505050505090806003018054610e5890613211565b80601f0160208091040260200160405190810160405280929190818152602001828054610e8490613211565b8015610ed15780601f10610ea657610100808354040283529160200191610ed1565b820191906000526020600020905b815481529060010190602001808311610eb457829003601f168201915b5050505050905084565b6060600380548060200260200160405190810160405280929190818152602001828054801561093d5760200282019190600052602060002090815481526020019060010190808311610929575050505050905090565b60056020526000908152604090208054600182015460028301805492939192610f5990613211565b80601f0160208091040260200160405190810160405280929190818152602001828054610f8590613211565b8015610fd25780601f10610fa757610100808354040283529160200191610fd2565b820191906000526020600020905b815481529060010190602001808311610fb557829003601f168201915b505050505090806003015490806004018054610fed90613211565b80601f016020809104026020016040519081016040528092919081815260200182805461101990613211565b80156110665780601f1061103b57610100808354040283529160200191611066565b820191906000526020600020905b81548152906001019060200180831161104957829003601f168201915b5050505050905085565b6000828152600760205260409020600c0154818110156111025760405162461bcd60e51b815260206004820152604160248201527f5175616e746974792069732067726561746572207468616e2074686520616d6f60448201527f756e74206c65667420746f20626520736f6c6420696e207468697320626174636064820152600d60fb1b608482015260a40161060c565b600082116111525760405162461bcd60e51b815260206004820152601760248201527f5175616e746974792063616e6e6f74206265207a65726f000000000000000000604482015260640161060c565b6000838152600760205260408120600c0180548492906111739084906133b7565b9091555050505050565b6060600a8260405161118f9190613356565b9081526020016040518091039020805480602002602001604051908101604052809291908181526020016000905b8282101561086157838290600052602060002090600502016040518060a00160405290816000820180546111f090613211565b80601f016020809104026020016040519081016040528092919081815260200182805461121c90613211565b80156112695780601f1061123e57610100808354040283529160200191611269565b820191906000526020600020905b81548152906001019060200180831161124c57829003601f168201915b5050505050815260200160018201805461128290613211565b80601f01602080910402602001604051908101604052809291908181526020018280546112ae90613211565b80156112fb5780601f106112d0576101008083540402835291602001916112fb565b820191906000526020600020905b8154815290600101906020018083116112de57829003601f168201915b50505050508152602001600282015481526020016003820154815260200160048201805461132890613211565b80601f016020809104026020016040519081016040528092919081815260200182805461135490613211565b80156113a15780601f10611376576101008083540402835291602001916113a1565b820191906000526020600020905b81548152906001019060200180831161138457829003601f168201915b505050505081525050815260200190600101906111bd565b6000838152600760205260409020600a015460ff16156114345760405162461bcd60e51b815260206004820152603060248201527f5468697320626174636820697320616c7265616479207363616e6e656420627960448201526f103a3432903234b9ba3934b13aba37b960811b606482015260840161060c565b600083815260076020526040902060060180546114d8919061145590613211565b80601f016020809104026020016040519081016040528092919081815260200182805461148190613211565b80156114ce5780601f106114a3576101008083540402835291602001916114ce565b820191906000526020600020905b8154815290600101906020018083116114b157829003601f168201915b505050505061274d565b6114e18261274d565b6000838152600760205260409020600a8101805460ff19166001179055600b0161150b8282613296565b50505050565b600381815481106108de57600080fd5b6060600280548060200260200160405190810160405280929190818152602001828054801561093d5760200282019190600052602060002090815481526020019060010190808311610929575050505050905090565b61158085612793565b156115e75760405162461bcd60e51b815260206004820152603160248201527f5468697320426174636854656d706c617465494420616c72656164792065786960448201527073747320696e207468652073797374656d60781b606482015260840161060c565b6115f08461265d565b151560011461165e5760405162461bcd60e51b815260206004820152603460248201527f546869732050726f6475637454656d706c617465494420646f6573206e6f742060448201527365786973747320696e207468652073797374656d60601b606482015260840161060c565b6040805160a0810182528681526020808201878152828401878152606084018790526080840186905260008a81526005909352939091208251815590516001820155915190919060028201906116b49082613296565b5060608201516003820155608082015160048201906116d39082613296565b50506001805480820182556000919091527fb10e2d527612073b26eecdfd717e6a320cf44b4afac2b0732d9fcbe2b7fa0cf601959095555050505050565b6008602052816000526040600020818154811061172d57600080fd5b90600052602060002001600091509150505481565b6000838152600660209081526040808320600290810154845260079092528220018054600192906117749084906133d0565b909155505060405160099061178a908490613356565b90815260408051918290036020908101832060608401835286845283820186815292840185905280546001818101835560009283529290912084516003909202019081559151908201906117de9082613296565b50604082015160028201906117f39082613296565b505050505050565b600281815481106108de57600080fd5b6060600b8260405161181d9190613356565b9081526020016040518091039020805480602002602001604051908101604052809291908181526020016000905b8282101561086157838290600052602060002090600502016040518060a001604052908160008201805461187e90613211565b80601f01602080910402602001604051908101604052809291908181526020018280546118aa90613211565b80156118f75780601f106118cc576101008083540402835291602001916118f7565b820191906000526020600020905b8154815290600101906020018083116118da57829003601f168201915b5050505050815260200160018201805461191090613211565b80601f016020809104026020016040519081016040528092919081815260200182805461193c90613211565b80156119895780601f1061195e57610100808354040283529160200191611989565b820191906000526020600020905b81548152906001019060200180831161196c57829003601f168201915b5050505050815260200160028201548152602001600382015481526020016004820180546119b690613211565b80601f01602080910402602001604051908101604052809291908181526020018280546119e290613211565b8015611a2f5780601f10611a0457610100808354040283529160200191611a2f565b820191906000526020600020905b815481529060010190602001808311611a1257829003601f168201915b5050505050815250508152602001906001019061184b565b60008581526006602052604090206007015460ff1615611abf5760405162461bcd60e51b815260206004820152602d60248201527f5468697320626174636820697320616c7265616479207363616e6e656420627960448201526c103a3432903932ba30b4b632b960991b606482015260840161060c565b83604051602001611ad09190613356565b6040516020818303038152906040528051906020012060066000878152602001908152602001600020600601604051602001611b0c91906133e3565b6040516020818303038152906040528051906020012014611b825760405162461bcd60e51b815260206004820152602a60248201527f546869732070726f64756374206973206e6f74206f776e65642062792074686960448201526939903932ba30b4b632b960b11b606482015260840161060c565b600085815260066020526040902060078101805460ff19166001179055600801611bac8482613296565b506000858152600660205260409020600b01611bc88382613296565b506000858152600660205260409020600c016117f38282613296565b600760205260009081526040902080546001820154600283015460038401805493949293919291611c1490613211565b80601f0160208091040260200160405190810160405280929190818152602001828054611c4090613211565b8015611c8d5780601f10611c6257610100808354040283529160200191611c8d565b820191906000526020600020905b815481529060010190602001808311611c7057829003601f168201915b505050505090806004015490806005018054611ca890613211565b80601f0160208091040260200160405190810160405280929190818152602001828054611cd490613211565b8015611d215780601f10611cf657610100808354040283529160200191611d21565b820191906000526020600020905b815481529060010190602001808311611d0457829003601f168201915b505050505090806006018054611d3690613211565b80601f0160208091040260200160405190810160405280929190818152602001828054611d6290613211565b8015611daf5780601f10611d8457610100808354040283529160200191611daf565b820191906000526020600020905b815481529060010190602001808311611d9257829003601f168201915b505050505090806007018054611dc490613211565b80601f0160208091040260200160405190810160405280929190818152602001828054611df090613211565b8015611e3d5780601f10611e1257610100808354040283529160200191611e3d565b820191906000526020600020905b815481529060010190602001808311611e2057829003601f168201915b505050505090806008018054611e5290613211565b80601f0160208091040260200160405190810160405280929190818152602001828054611e7e90613211565b8015611ecb5780601f10611ea057610100808354040283529160200191611ecb565b820191906000526020600020905b815481529060010190602001808311611eae57829003601f168201915b505050506009830154600a840154600b850180549495929460ff909216935090611ef490613211565b80601f0160208091040260200160405190810160405280929190818152602001828054611f2090613211565b8015611f6d5780601f10611f4257610100808354040283529160200191611f6d565b820191906000526020600020905b815481529060010190602001808311611f5057829003601f168201915b50505050509080600c01549080600d015490508e565b8151602081840181018051600a825292820191850191909120919052805482908110611fae57600080fd5b906000526020600020906005020160009150915050806000018054611fd290613211565b80601f0160208091040260200160405190810160405280929190818152602001828054611ffe90613211565b801561204b5780601f106120205761010080835404028352916020019161204b565b820191906000526020600020905b81548152906001019060200180831161202e57829003601f168201915b50505050509080600101805461206090613211565b80601f016020809104026020016040519081016040528092919081815260200182805461208c90613211565b80156120d95780601f106120ae576101008083540402835291602001916120d9565b820191906000526020600020905b8154815290600101906020018083116120bc57829003601f168201915b505050505090806002015490806003015490806004018054610fed90613211565b8151602081840181018051600b825292820191850191909120919052805482908110611fae57600080fd5b60066020526000908152604090208054600182015460028301546003840154600485018054949593949293919261215b90613211565b80601f016020809104026020016040519081016040528092919081815260200182805461218790613211565b80156121d45780601f106121a9576101008083540402835291602001916121d4565b820191906000526020600020905b8154815290600101906020018083116121b757829003601f168201915b5050505050908060050180546121e990613211565b80601f016020809104026020016040519081016040528092919081815260200182805461221590613211565b80156122625780601f1061223757610100808354040283529160200191612262565b820191906000526020600020905b81548152906001019060200180831161224557829003601f168201915b50505050509080600601805461227790613211565b80601f01602080910402602001604051908101604052809291908181526020018280546122a390613211565b80156122f05780601f106122c5576101008083540402835291602001916122f0565b820191906000526020600020905b8154815290600101906020018083116122d357829003601f168201915b5050506007840154600885018054949560ff90921694919350915061231490613211565b80601f016020809104026020016040519081016040528092919081815260200182805461234090613211565b801561238d5780601f106123625761010080835404028352916020019161238d565b820191906000526020600020905b81548152906001019060200180831161237057829003601f168201915b5050505050908060090180546123a290613211565b80601f01602080910402602001604051908101604052809291908181526020018280546123ce90613211565b801561241b5780601f106123f05761010080835404028352916020019161241b565b820191906000526020600020905b8154815290600101906020018083116123fe57829003601f168201915b50505050509080600a01805461243090613211565b80601f016020809104026020016040519081016040528092919081815260200182805461245c90613211565b80156124a95780601f1061247e576101008083540402835291602001916124a9565b820191906000526020600020905b81548152906001019060200180831161248c57829003601f168201915b50505050509080600b0180546124be90613211565b80601f01602080910402602001604051908101604052809291908181526020018280546124ea90613211565b80156125375780601f1061250c57610100808354040283529160200191612537565b820191906000526020600020905b81548152906001019060200180831161251a57829003601f168201915b50505050509080600c01805461254c90613211565b80601f016020809104026020016040519081016040528092919081815260200182805461257890613211565b80156125c55780601f1061259a576101008083540402835291602001916125c5565b820191906000526020600020905b8154815290600101906020018083116125a857829003601f168201915b50505050509080600d0180546125da90613211565b80601f016020809104026020016040519081016040528092919081815260200182805461260690613211565b80156126535780601f1061262857610100808354040283529160200191612653565b820191906000526020600020905b81548152906001019060200180831161263657829003601f168201915b505050505090508e565b6000805b6000548110156126aa57826000828154811061267f5761267f613372565b9060005260206000200154036126985750600192915050565b806126a28161339e565b915050612661565b50600092915050565b6000805b6003548110156126aa5782600382815481106126d5576126d5613372565b9060005260206000200154036126ee5750600192915050565b806126f88161339e565b9150506126b7565b6000805b6002548110156126aa57826002828154811061272257612722613372565b90600052602060002001540361273b5750600192915050565b806127458161339e565b915050612704565b612790816040516024016127619190613459565b60408051601f198184030181529190526020810180516001600160e01b031663104c13eb60e21b1790526127e0565b50565b6000805b6001548110156126aa5782600182815481106127b5576127b5613372565b9060005260206000200154036127ce5750600192915050565b806127d88161339e565b915050612797565b80516a636f6e736f6c652e6c6f67602083016000808483855afa5050505050565b82805482825590600052602060002090810192821561283c579160200282015b8281111561283c578251825591602001919060010190612821565b5061284892915061284c565b5090565b5b80821115612848576000815560010161284d565b634e487b7160e01b600052604160045260246000fd5b604051601f8201601f1916810167ffffffffffffffff811182821017156128a0576128a0612861565b604052919050565b600082601f8301126128b957600080fd5b813567ffffffffffffffff8111156128d3576128d3612861565b6128e6601f8201601f1916602001612877565b8181528460208386010111156128fb57600080fd5b816020850160208301376000918101602001919091529392505050565b6000806040838503121561292b57600080fd5b823567ffffffffffffffff81111561294257600080fd5b61294e858286016128a8565b95602094909401359450505050565b60005b83811015612978578181015183820152602001612960565b50506000910152565b6000815180845261299981602086016020860161295d565b601f01601f19169290920160200192915050565b8381526060602082015260006129c66060830185612981565b82810360408401526129d88185612981565b9695505050505050565b600080600080608085870312156129f857600080fd5b84359350602085013567ffffffffffffffff80821115612a1757600080fd5b612a23888389016128a8565b94506040870135915080821115612a3957600080fd5b612a45888389016128a8565b93506060870135915080821115612a5b57600080fd5b50612a68878288016128a8565b91505092959194509250565b600060208284031215612a8657600080fd5b813567ffffffffffffffff811115612a9d57600080fd5b612aa9848285016128a8565b949350505050565b60006020808301818452808551808352604092508286019150828160051b87010184880160005b83811015612b3457603f19898403018552815160608151855288820151818a870152612b0682870182612981565b91505087820151915084810388860152612b208183612981565b968901969450505090860190600101612ad8565b509098975050505050505050565b600060208284031215612b5457600080fd5b5035919050565b6020808252825182820181905260009190848201906040850190845b81811015612b9357835183529284019291840191600101612b77565b50909695505050505050565b600082601f830112612bb057600080fd5b8135602067ffffffffffffffff821115612bcc57612bcc612861565b8160051b612bdb828201612877565b9283528481018201928281019087851115612bf557600080fd5b83870192505b84831015612c1457823582529183019190830190612bfb565b979650505050505050565b6000806000806000806000806000806101408b8d031215612c3f57600080fd5b8a35995060208b0135985060408b013567ffffffffffffffff80821115612c6557600080fd5b612c718e838f01612b9f565b995060608d0135985060808d0135915080821115612c8e57600080fd5b612c9a8e838f016128a8565b975060a08d0135965060c08d0135915080821115612cb757600080fd5b612cc38e838f016128a8565b955060e08d0135915080821115612cd957600080fd5b612ce58e838f016128a8565b94506101008d0135915080821115612cfc57600080fd5b612d088e838f016128a8565b93506101208d0135915080821115612d1f57600080fd5b50612d2c8d828e016128a8565b9150509295989b9194979a5092959850565b848152608060208201526000612d576080830186612981565b8281036040840152612d698186612981565b90508281036060840152612c148185612981565b85815284602082015260a060408201526000612d9c60a0830186612981565b8460608401528281036080840152612db48185612981565b98975050505050505050565b60008060408385031215612dd357600080fd5b50508035926020909101359150565b60006020808301818452808551808352604092508286019150828160051b87010184880160005b83811015612b3457603f19898403018552815160a08151818652612e2f82870182612981565b915050888201518582038a870152612e478282612981565b9150508782015188860152606080830151818701525060808083015192508582038187015250612e778183612981565b968901969450505090860190600101612e09565b600080600060608486031215612ea057600080fd5b83359250602084013567ffffffffffffffff80821115612ebf57600080fd5b612ecb878388016128a8565b93506040860135915080821115612ee157600080fd5b50612eee868287016128a8565b9150509250925092565b600080600080600060a08688031215612f1057600080fd5b8535945060208601359350604086013567ffffffffffffffff80821115612f3657600080fd5b612f4289838a016128a8565b9450606088013593506080880135915080821115612f5f57600080fd5b50612f6c888289016128a8565b9150509295509295909350565b600080600080600060a08688031215612f9157600080fd5b85359450602086013567ffffffffffffffff80821115612fb057600080fd5b612fbc89838a016128a8565b95506040880135915080821115612fd257600080fd5b612fde89838a016128a8565b94506060880135915080821115612ff457600080fd5b61300089838a016128a8565b93506080880135915080821115612f5f57600080fd5b8e81528d60208201528c60408201526101c06060820152600061303d6101c083018e612981565b8c608084015282810360a0840152613055818d612981565b905082810360c0840152613069818c612981565b905082810360e084015261307d818b612981565b9050828103610100840152613092818a612981565b9050876101208401526130aa61014084018815159052565b8281036101608401526130bd8187612981565b61018084019590955250506101a001529c9b505050505050505050505050565b60a0815260006130f060a0830188612981565b82810360208401526131028188612981565b90508560408401528460608401528281036080840152612db48185612981565b8e81528d60208201528c60408201528b60608201526101c06080820152600061314f6101c083018d612981565b82810360a0840152613161818d612981565b905082810360c0840152613175818c612981565b8a151560e08501529050828103610100840152613192818a612981565b90508281036101208401526131a78189612981565b90508281036101408401526131bc8188612981565b90508281036101608401526131d18187612981565b90508281036101808401526131e68186612981565b90508281036101a08401526131fb8185612981565b9150509f9e505050505050505050505050505050565b600181811c9082168061322557607f821691505b60208210810361324557634e487b7160e01b600052602260045260246000fd5b50919050565b601f82111561329157600081815260208120601f850160051c810160208610156132725750805b601f850160051c820191505b818110156117f35782815560010161327e565b505050565b815167ffffffffffffffff8111156132b0576132b0612861565b6132c4816132be8454613211565b8461324b565b602080601f8311600181146132f957600084156132e15750858301515b600019600386901b1c1916600185901b1785556117f3565b600085815260208120601f198616915b8281101561332857888601518255948401946001909101908401613309565b50858210156133465787850151600019600388901b60f8161c191681555b5050505050600190811b01905550565b6000825161336881846020870161295d565b9190910192915050565b634e487b7160e01b600052603260045260246000fd5b634e487b7160e01b600052601160045260246000fd5b6000600182016133b0576133b0613388565b5060010190565b818103818111156133ca576133ca613388565b92915050565b808201808211156133ca576133ca613388565b60008083546133f181613211565b60018281168015613409576001811461341e5761344d565b60ff198416875282151583028701945061344d565b8760005260208060002060005b858110156134445781548a82015290840190820161342b565b50505082870194505b50929695505050505050565b60208152600061346c6020830184612981565b939250505056fea2646970667358221220126b5321a5e845847ab6b659467f3c7d5588ddd344b62ba61fc4a4d242f085e864736f6c63430008110033",
  "linkReferences": {},
  "deployedLinkReferences": {}
}