{
  "_format": "hh-sol-artifact-1",
  "contractName": "Supplychain",
  "sourceName": "contracts/Supplychain.sol",
  "abi": [
    {
      "inputs": [
        {
          "internalType": "uint256",
          "name": "",
          "type": "uint256"
        },
        {
          "internalType": "uint256",
          "name": "",
          "type": "uint256"
        }
      ],
      "name": "BatchIDToProductIDMapping",
      "outputs": [
        {
          "internalType": "uint256",
          "name": "",
          "type": "uint256"
        }
      ],
      "stateMutability": "view",
      "type": "function"
    },
    {
      "inputs": [
        {
          "internalType": "uint256",
          "name": "",
          "type": "uint256"
        }
      ],
      "name": "BatchIDs",
      "outputs": [
        {
          "internalType": "uint256",
          "name": "",
          "type": "uint256"
        }
      ],
      "stateMutability": "view",
      "type": "function"
    },
    {
      "inputs": [
        {
          "internalType": "uint256",
          "name": "",
          "type": "uint256"
        }
      ],
      "name": "BatchMapping",
      "outputs": [
        {
          "internalType": "uint256",
          "name": "BatchID",
          "type": "uint256"
        },
        {
          "internalType": "uint256",
          "name": "BatchSize",
          "type": "uint256"
        },
        {
          "internalType": "uint256",
          "name": "AmountSold",
          "type": "uint256"
        },
        {
          "internalType": "string",
          "name": "BatchDescription",
          "type": "string"
        },
        {
          "internalType": "uint256",
          "name": "ProductTemplateID",
          "type": "uint256"
        },
        {
          "internalType": "uint256",
          "name": "FactoryID",
          "type": "uint256"
        },
        {
          "internalType": "uint256",
          "name": "DistributorID",
          "type": "uint256"
        },
        {
          "internalType": "uint256",
          "name": "RetailerID",
          "type": "uint256"
        },
        {
          "internalType": "string",
          "name": "FactoryLocation",
          "type": "string"
        },
        {
          "internalType": "string",
          "name": "DateOfProduction",
          "type": "string"
        },
        {
          "internalType": "uint256",
          "name": "State",
          "type": "uint256"
        },
        {
          "internalType": "bool",
          "name": "FactoryScanned",
          "type": "bool"
        },
        {
          "internalType": "bool",
          "name": "DistributorScanned",
          "type": "bool"
        },
        {
          "internalType": "bool",
          "name": "RetailerScanned",
          "type": "bool"
        }
      ],
      "stateMutability": "view",
      "type": "function"
    },
    {
      "inputs": [
        {
          "internalType": "uint256",
          "name": "",
          "type": "uint256"
        }
      ],
      "name": "BatchTemplateIDs",
      "outputs": [
        {
          "internalType": "uint256",
          "name": "",
          "type": "uint256"
        }
      ],
      "stateMutability": "view",
      "type": "function"
    },
    {
      "inputs": [
        {
          "internalType": "uint256",
          "name": "",
          "type": "uint256"
        }
      ],
      "name": "BatchTemplateMAP",
      "outputs": [
        {
          "internalType": "uint256",
          "name": "BatchTemplateID",
          "type": "uint256"
        },
        {
          "internalType": "uint256",
          "name": "ProductTemplateID",
          "type": "uint256"
        },
        {
          "internalType": "string",
          "name": "Description",
          "type": "string"
        },
        {
          "internalType": "uint256",
          "name": "BatchSize",
          "type": "uint256"
        },
        {
          "internalType": "uint256",
          "name": "FactoryID",
          "type": "uint256"
        }
      ],
      "stateMutability": "view",
      "type": "function"
    },
    {
      "inputs": [
        {
          "internalType": "uint256",
          "name": "",
          "type": "uint256"
        },
        {
          "internalType": "uint256",
          "name": "",
          "type": "uint256"
        }
      ],
      "name": "CustomerData",
      "outputs": [
        {
          "internalType": "uint256",
          "name": "BatchID",
          "type": "uint256"
        },
        {
          "internalType": "uint256",
          "name": "ProductID",
          "type": "uint256"
        }
      ],
      "stateMutability": "view",
      "type": "function"
    },
    {
      "inputs": [
        {
          "internalType": "uint256",
          "name": "",
          "type": "uint256"
        }
      ],
      "name": "ProductIDs",
      "outputs": [
        {
          "internalType": "uint256",
          "name": "",
          "type": "uint256"
        }
      ],
      "stateMutability": "view",
      "type": "function"
    },
    {
      "inputs": [
        {
          "internalType": "uint256",
          "name": "",
          "type": "uint256"
        }
      ],
      "name": "ProductMapping",
      "outputs": [
        {
          "internalType": "uint256",
          "name": "ProductID",
          "type": "uint256"
        },
        {
          "internalType": "uint256",
          "name": "ProductTemplateID",
          "type": "uint256"
        },
        {
          "internalType": "string",
          "name": "DOM",
          "type": "string"
        },
        {
          "internalType": "uint256",
          "name": "OwnerID",
          "type": "uint256"
        },
        {
          "internalType": "uint256",
          "name": "DateWhenSold",
          "type": "uint256"
        }
      ],
      "stateMutability": "view",
      "type": "function"
    },
    {
      "inputs": [
        {
          "internalType": "uint256",
          "name": "",
          "type": "uint256"
        }
      ],
      "name": "ProductTemplateIDs",
      "outputs": [
        {
          "internalType": "uint256",
          "name": "",
          "type": "uint256"
        }
      ],
      "stateMutability": "view",
      "type": "function"
    },
    {
      "inputs": [
        {
          "internalType": "uint256",
          "name": "",
          "type": "uint256"
        }
      ],
      "name": "ProductTemplateMAP",
      "outputs": [
        {
          "internalType": "uint256",
          "name": "ProductTemplateID",
          "type": "uint256"
        },
        {
          "internalType": "string",
          "name": "Name",
          "type": "string"
        },
        {
          "internalType": "string",
          "name": "Description",
          "type": "string"
        }
      ],
      "stateMutability": "view",
      "type": "function"
    },
    {
      "inputs": [
        {
          "internalType": "uint256",
          "name": "_batchTemplateID",
          "type": "uint256"
        },
        {
          "internalType": "uint256",
          "name": "_productTemplateID",
          "type": "uint256"
        },
        {
          "internalType": "string",
          "name": "_description",
          "type": "string"
        },
        {
          "internalType": "uint256",
          "name": "_batchSize",
          "type": "uint256"
        },
        {
          "internalType": "uint256",
          "name": "_factoryID",
          "type": "uint256"
        }
      ],
      "name": "addBatchTemplate",
      "outputs": [],
      "stateMutability": "nonpayable",
      "type": "function"
    },
    {
      "inputs": [
        {
          "internalType": "uint256",
          "name": "_productTemplateID",
          "type": "uint256"
        },
        {
          "internalType": "string",
          "name": "_name",
          "type": "string"
        },
        {
          "internalType": "string",
          "name": "_description",
          "type": "string"
        }
      ],
      "name": "addProductTemplate",
      "outputs": [],
      "stateMutability": "nonpayable",
      "type": "function"
    },
    {
      "inputs": [
        {
          "internalType": "uint256",
          "name": "batchID",
          "type": "uint256"
        },
        {
          "internalType": "uint256[]",
          "name": "productIDs",
          "type": "uint256[]"
        },
        {
          "internalType": "uint256",
          "name": "batchSize",
          "type": "uint256"
        },
        {
          "internalType": "string",
          "name": "batchDescription",
          "type": "string"
        },
        {
          "internalType": "uint256",
          "name": "productTemplateID",
          "type": "uint256"
        },
        {
          "internalType": "uint256",
          "name": "factory",
          "type": "uint256"
        },
        {
          "internalType": "uint256",
          "name": "distributor",
          "type": "uint256"
        },
        {
          "internalType": "string",
          "name": "factoryLocation",
          "type": "string"
        },
        {
          "internalType": "string",
          "name": "dateOfProduction",
          "type": "string"
        }
      ],
      "name": "batchProduced",
      "outputs": [],
      "stateMutability": "nonpayable",
      "type": "function"
    },
    {
      "inputs": [
        {
          "internalType": "uint256",
          "name": "batchID",
          "type": "uint256"
        }
      ],
      "name": "distributorScansBatch",
      "outputs": [],
      "stateMutability": "nonpayable",
      "type": "function"
    },
    {
      "inputs": [
        {
          "internalType": "uint256",
          "name": "batchID",
          "type": "uint256"
        },
        {
          "internalType": "uint256",
          "name": "retailerID",
          "type": "uint256"
        }
      ],
      "name": "distributorSellToRetailer",
      "outputs": [],
      "stateMutability": "nonpayable",
      "type": "function"
    },
    {
      "inputs": [
        {
          "internalType": "uint256",
          "name": "batchID",
          "type": "uint256"
        }
      ],
      "name": "factoryScansBatch",
      "outputs": [],
      "stateMutability": "nonpayable",
      "type": "function"
    },
    {
      "inputs": [],
      "name": "getAllBatchIDs",
      "outputs": [
        {
          "internalType": "uint256[]",
          "name": "",
          "type": "uint256[]"
        }
      ],
      "stateMutability": "view",
      "type": "function"
    },
    {
      "inputs": [],
      "name": "getAllBatchTemplateIDs",
      "outputs": [
        {
          "internalType": "uint256[]",
          "name": "",
          "type": "uint256[]"
        }
      ],
      "stateMutability": "view",
      "type": "function"
    },
    {
      "inputs": [],
      "name": "getAllProductIDs",
      "outputs": [
        {
          "internalType": "uint256[]",
          "name": "",
          "type": "uint256[]"
        }
      ],
      "stateMutability": "view",
      "type": "function"
    },
    {
      "inputs": [],
      "name": "getAllProductTemplateIDs",
      "outputs": [
        {
          "internalType": "uint256[]",
          "name": "",
          "type": "uint256[]"
        }
      ],
      "stateMutability": "view",
      "type": "function"
    },
    {
      "inputs": [
        {
          "internalType": "uint256",
          "name": "customerID",
          "type": "uint256"
        }
      ],
      "name": "getAllProductsBought",
      "outputs": [
        {
          "components": [
            {
              "internalType": "uint256",
              "name": "BatchID",
              "type": "uint256"
            },
            {
              "internalType": "uint256",
              "name": "ProductID",
              "type": "uint256"
            }
          ],
          "internalType": "struct Supplychain.Customer[]",
          "name": "",
          "type": "tuple[]"
        }
      ],
      "stateMutability": "view",
      "type": "function"
    },
    {
      "inputs": [
        {
          "internalType": "uint256",
          "name": "batchID",
          "type": "uint256"
        }
      ],
      "name": "getProductIdsForaBatch",
      "outputs": [
        {
          "internalType": "uint256[]",
          "name": "",
          "type": "uint256[]"
        }
      ],
      "stateMutability": "view",
      "type": "function"
    },
    {
      "inputs": [
        {
          "internalType": "uint256",
          "name": "batchID",
          "type": "uint256"
        }
      ],
      "name": "retailerScansBatch",
      "outputs": [],
      "stateMutability": "nonpayable",
      "type": "function"
    },
    {
      "inputs": [
        {
          "internalType": "uint256",
          "name": "batchID",
          "type": "uint256"
        },
        {
          "internalType": "uint256",
          "name": "productID",
          "type": "uint256"
        },
        {
          "internalType": "uint256",
          "name": "customerID",
          "type": "uint256"
        }
      ],
      "name": "retailerSellToCustomer",
      "outputs": [],
      "stateMutability": "nonpayable",
      "type": "function"
    }
  ],
  "bytecode": "0x608060405234801561001057600080fd5b50611871806100206000396000f3fe608060405234801561001057600080fd5b50600436106101585760003560e01c80637c0fac7f116100c3578063a78317f81161007c578063a78317f8146102e9578063bf801df1146102fc578063c513ab8114610329578063cb441b1a1461033c578063e369f39b14610364578063eac0e9771461038457600080fd5b80637c0fac7f146102665780638bd42880146102955780638c4c42cd146102a857806390973cce146102b05780639ffeb107146102c3578063a43304c0146102d657600080fd5b80634c27729c116101155780634c27729c146101ea5780634ca20f34146101f25780634e9394861461020557806371d1dc0c14610218578063793560dd1461023a5780637ae4ee041461024257600080fd5b806308b777311461015d57806312d9384914610172578063392a70a6146101855780633ab95f30146101ae5780633b7d255c146101cf5780633ba19971146101d7575b600080fd5b61017061016b366004611165565b610397565b005b61017061018036600461117e565b61043c565b610198610193366004611165565b6104bc565b6040516101a591906111aa565b60405180910390f35b6101c16101bc366004611165565b61051e565b6040519081526020016101a5565b61019861053f565b6101706101e5366004611165565b610597565b61019861062c565b6101c1610200366004611165565b610682565b6101706102133660046112a5565b610692565b61022b610226366004611165565b610723565b6040516101a593929190611358565b610198610856565b610255610250366004611165565b6108ac565b6040516101a595949392919061138d565b6101706102743660046113c0565b60009182526003602052604090912060078101919091556001600a90910155565b6101c16102a3366004611165565b610964565b610198610974565b6101c16102be3660046113c0565b6109ca565b6101706102d1366004611165565b6109fb565b6101706102e43660046113e2565b610a9b565b6101c16102f7366004611165565b610b51565b61030f61030a366004611165565b610b61565b6040516101a59e9d9c9b9a99989796959493929190611444565b610170610337366004611567565b610d6e565b61034f61034a3660046113c0565b611019565b604080519283526020830191909152016101a5565b610377610372366004611165565b611055565b6040516101a59190611645565b610255610392366004611165565b6110db565b6000818152600360205260409020600b0154610100900460ff161561041c5760405162461bcd60e51b815260206004820152603060248201527f5468697320626174636820697320616c7265616479207363616e6e656420627960448201526f103a3432903234b9ba3934b13aba37b960811b60648201526084015b60405180910390fd5b6000908152600360205260409020600b01805461ff001916610100179055565b600083815260036020526040812060020180546001929061045e9084906116aa565b9091555050600082815260026020818152604080842060038101869055426004909101559383526005815283832084518086019095529584528381019485528554600181810188559684529220925191029091019081559051910155565b60008181526004602090815260409182902080548351818402810184019094528084526060939283018282801561051257602002820191906000526020600020905b8154815260200190600101908083116104fe575b50505050509050919050565b6006818154811061052e57600080fd5b600091825260209091200154905081565b6060600680548060200260200160405190810160405280929190818152602001828054801561058d57602002820191906000526020600020905b815481526020019060010190808311610579575b5050505050905090565b6000818152600360205260409020600b015460ff161561060e5760405162461bcd60e51b815260206004820152602c60248201527f5468697320626174636820697320616c7265616479207363616e6e656420627960448201526b2074686520666163746f727960a01b6064820152608401610413565b6000908152600360205260409020600b01805460ff19166001179055565b6060600780548060200260200160405190810160405280929190818152602001828054801561058d5760200282019190600052602060002090815481526020019060010190808311610579575050505050905090565b6007818154811061052e57600080fd5b60408051606081018252848152602080820185815282840185905260008781529182905292902081518155915190919060018201906106d1908261174c565b50604082015160028201906106e6908261174c565b5050600680546001810182556000919091527ff652222313e28459528d920b65115c16c04f3efc82aaedc97be59f3f377c0d3f0193909355505050565b60006020819052908152604090208054600182018054919291610745906116c3565b80601f0160208091040260200160405190810160405280929190818152602001828054610771906116c3565b80156107be5780601f10610793576101008083540402835291602001916107be565b820191906000526020600020905b8154815290600101906020018083116107a157829003601f168201915b5050505050908060020180546107d3906116c3565b80601f01602080910402602001604051908101604052809291908181526020018280546107ff906116c3565b801561084c5780601f106108215761010080835404028352916020019161084c565b820191906000526020600020905b81548152906001019060200180831161082f57829003601f168201915b5050505050905083565b6060600980548060200260200160405190810160405280929190818152602001828054801561058d5760200282019190600052602060002090815481526020019060010190808311610579575050505050905090565b60016020819052600091825260409091208054918101546002820180549192916108d5906116c3565b80601f0160208091040260200160405190810160405280929190818152602001828054610901906116c3565b801561094e5780601f106109235761010080835404028352916020019161094e565b820191906000526020600020905b81548152906001019060200180831161093157829003601f168201915b5050505050908060030154908060040154905085565b6009818154811061052e57600080fd5b6060600880548060200260200160405190810160405280929190818152602001828054801561058d5760200282019190600052602060002090815481526020019060010190808311610579575050505050905090565b600460205281600052604060002081815481106109e657600080fd5b90600052602060002001600091509150505481565b6000818152600360205260409020600b015462010000900460ff1615610a795760405162461bcd60e51b815260206004820152602d60248201527f5468697320626174636820697320616c7265616479207363616e6e656420627960448201526c103a3432903932ba30b4b632b960991b6064820152608401610413565b6000908152600360205260409020600b01805462ff0000191662010000179055565b6040518060a00160405280868152602001858152602001848152602001838152602001828152506001600087815260200190815260200160002060008201518160000155602082015181600101556040820151816002019081610afe919061174c565b50606082015160038201556080909101516004909101555050600780546001810182556000919091527fa66cc928b5edb82af9bd49922954155ab7b0942694bea4ce44661d9a8736c68801929092555050565b6008818154811061052e57600080fd5b6003602052806000526040600020600091509050806000015490806001015490806002015490806003018054610b96906116c3565b80601f0160208091040260200160405190810160405280929190818152602001828054610bc2906116c3565b8015610c0f5780601f10610be457610100808354040283529160200191610c0f565b820191906000526020600020905b815481529060010190602001808311610bf257829003601f168201915b505050505090806004015490806005015490806006015490806007015490806008018054610c3c906116c3565b80601f0160208091040260200160405190810160405280929190818152602001828054610c68906116c3565b8015610cb55780601f10610c8a57610100808354040283529160200191610cb5565b820191906000526020600020905b815481529060010190602001808311610c9857829003601f168201915b505050505090806009018054610cca906116c3565b80601f0160208091040260200160405190810160405280929190818152602001828054610cf6906116c3565b8015610d435780601f10610d1857610100808354040283529160200191610d43565b820191906000526020600020905b815481529060010190602001808311610d2657829003601f168201915b50505050600a830154600b9093015491929160ff80821692506101008204811691620100009004168e565b604080516101c0810182528a815260208082018a81526000838501818152606085018c8152608086018c905260a086018b905260c086018a905260e08601839052610100860189905261012086018890526101408601839052610160860183905261018086018390526101a086018390528f8352600394859052959091208451815591516001830155516002820155925191929190820190610e10908261174c565b506080820151600482015560a0820151600582015560c0820151600682015560e082015160078201556101008201516008820190610e4e908261174c565b506101208201516009820190610e64908261174c565b50610140820151600a820155610160820151600b90910180546101808401516101a0909401511515620100000262ff0000199415156101000261ff00199415159490941661ffff1990921691909117929092179290921617905560098054600181019091557f6e1540171b6c0c960b71a7020d9f60077f6af931a8bbf590da0223dacf75c7af0189905560008981526004602090815260409091208951610f0d928b0190611105565b5060005b8781101561100d576040518060a001604052808a8381518110610f3657610f3661180c565b60200260200101518152602001878152602001838152602001600081526020016000815250600260008b8481518110610f7157610f7161180c565b6020026020010151815260200190815260200160002060008201518160000155602082015181600101556040820151816002019081610fb0919061174c565b5060608201518160030155608082015181600401559050506008898281518110610fdc57610fdc61180c565b602090810291909101810151825460018101845560009384529190922001558061100581611822565b915050610f11565b50505050505050505050565b6005602052816000526040600020818154811061103557600080fd5b600091825260209091206002909102018054600190910154909250905082565b606060056000838152602001908152602001600020805480602002602001604051908101604052809291908181526020016000905b828210156110d05783829060005260206000209060020201604051806040016040529081600082015481526020016001820154815250508152602001906001019061108a565b505050509050919050565b6002602081905260009182526040909120805460018201549282018054919392916108d5906116c3565b828054828255906000526020600020908101928215611140579160200282015b82811115611140578251825591602001919060010190611125565b5061114c929150611150565b5090565b5b8082111561114c5760008155600101611151565b60006020828403121561117757600080fd5b5035919050565b60008060006060848603121561119357600080fd5b505081359360208301359350604090920135919050565b6020808252825182820181905260009190848201906040850190845b818110156111e2578351835292840192918401916001016111c6565b50909695505050505050565b634e487b7160e01b600052604160045260246000fd5b604051601f8201601f1916810167ffffffffffffffff8111828210171561122d5761122d6111ee565b604052919050565b600082601f83011261124657600080fd5b813567ffffffffffffffff811115611260576112606111ee565b611273601f8201601f1916602001611204565b81815284602083860101111561128857600080fd5b816020850160208301376000918101602001919091529392505050565b6000806000606084860312156112ba57600080fd5b83359250602084013567ffffffffffffffff808211156112d957600080fd5b6112e587838801611235565b935060408601359150808211156112fb57600080fd5b5061130886828701611235565b9150509250925092565b6000815180845260005b818110156113385760208185018101518683018201520161131c565b506000602082860101526020601f19601f83011685010191505092915050565b8381526060602082015260006113716060830185611312565b82810360408401526113838185611312565b9695505050505050565b85815284602082015260a0604082015260006113ac60a0830186611312565b606083019490945250608001529392505050565b600080604083850312156113d357600080fd5b50508035926020909101359150565b600080600080600060a086880312156113fa57600080fd5b8535945060208601359350604086013567ffffffffffffffff81111561141f57600080fd5b61142b88828901611235565b9598949750949560608101359550608001359392505050565b8e81528d60208201528c60408201526101c06060820152600061146b6101c083018e611312565b8c60808401528b60a08401528a60c08401528960e0840152828103610100840152611496818a611312565b90508281036101208401526114ab8189611312565b915050856101408301526114c461016083018615159052565b9215156101808201529015156101a0909101529c9b505050505050505050505050565b600082601f8301126114f857600080fd5b8135602067ffffffffffffffff821115611514576115146111ee565b8160051b611523828201611204565b928352848101820192828101908785111561153d57600080fd5b83870192505b8483101561155c57823582529183019190830190611543565b979650505050505050565b60008060008060008060008060006101208a8c03121561158657600080fd5b8935985060208a013567ffffffffffffffff808211156115a557600080fd5b6115b18d838e016114e7565b995060408c0135985060608c01359150808211156115ce57600080fd5b6115da8d838e01611235565b975060808c0135965060a08c0135955060c08c0135945060e08c013591508082111561160557600080fd5b6116118d838e01611235565b93506101008c013591508082111561162857600080fd5b506116358c828d01611235565b9150509295985092959850929598565b602080825282518282018190526000919060409081850190868401855b8281101561168757815180518552860151868501529284019290850190600101611662565b5091979650505050505050565b634e487b7160e01b600052601160045260246000fd5b808201808211156116bd576116bd611694565b92915050565b600181811c908216806116d757607f821691505b6020821081036116f757634e487b7160e01b600052602260045260246000fd5b50919050565b601f82111561174757600081815260208120601f850160051c810160208610156117245750805b601f850160051c820191505b8181101561174357828155600101611730565b5050505b505050565b815167ffffffffffffffff811115611766576117666111ee565b61177a8161177484546116c3565b846116fd565b602080601f8311600181146117af57600084156117975750858301515b600019600386901b1c1916600185901b178555611743565b600085815260208120601f198616915b828110156117de578886015182559484019460019091019084016117bf565b50858210156117fc5787850151600019600388901b60f8161c191681555b5050505050600190811b01905550565b634e487b7160e01b600052603260045260246000fd5b60006001820161183457611834611694565b506001019056fea264697066735822122033fa8fea148c64a36302d83d27db5789a7d3a7b6ddcf91c83abdfa5bd2ff4d7664736f6c63430008110033",
  "linkReferences": {},
  "deployedLinkReferences": {}
}