{
  "_format": "hh-sol-artifact-1",
  "contractName": "Supplychain",
  "sourceName": "contracts/Supplychain.sol",
  "abi": [
    {
      "inputs": [
        {
          "internalType": "uint256",
          "name": "",
          "type": "uint256"
        },
        {
          "internalType": "uint256",
          "name": "",
          "type": "uint256"
        }
      ],
      "name": "BatchIDToProductIDMapping",
      "outputs": [
        {
          "internalType": "uint256",
          "name": "",
          "type": "uint256"
        }
      ],
      "stateMutability": "view",
      "type": "function"
    },
    {
      "inputs": [
        {
          "internalType": "uint256",
          "name": "",
          "type": "uint256"
        }
      ],
      "name": "BatchIDs",
      "outputs": [
        {
          "internalType": "uint256",
          "name": "",
          "type": "uint256"
        }
      ],
      "stateMutability": "view",
      "type": "function"
    },
    {
      "inputs": [
        {
          "internalType": "uint256",
          "name": "",
          "type": "uint256"
        }
      ],
      "name": "BatchMapping",
      "outputs": [
        {
          "internalType": "uint256",
          "name": "BatchID",
          "type": "uint256"
        },
        {
          "internalType": "uint256",
          "name": "BatchSize",
          "type": "uint256"
        },
        {
          "internalType": "uint256",
          "name": "AmountSoldTOCustomer",
          "type": "uint256"
        },
        {
          "internalType": "string",
          "name": "BatchDescription",
          "type": "string"
        },
        {
          "internalType": "uint256",
          "name": "ProductTemplateID",
          "type": "uint256"
        },
        {
          "internalType": "string",
          "name": "FactoryID",
          "type": "string"
        },
        {
          "internalType": "string",
          "name": "DistributorID",
          "type": "string"
        },
        {
          "internalType": "string",
          "name": "FactoryLocation",
          "type": "string"
        },
        {
          "internalType": "string",
          "name": "DateOfProduction",
          "type": "string"
        },
        {
          "internalType": "uint256",
          "name": "State",
          "type": "uint256"
        },
        {
          "internalType": "bool",
          "name": "DistributorScanned",
          "type": "bool"
        },
        {
          "internalType": "uint256",
          "name": "AmountLeftForSellingTORetailer",
          "type": "uint256"
        }
      ],
      "stateMutability": "view",
      "type": "function"
    },
    {
      "inputs": [
        {
          "internalType": "uint256",
          "name": "",
          "type": "uint256"
        }
      ],
      "name": "BatchTemplateIDs",
      "outputs": [
        {
          "internalType": "uint256",
          "name": "",
          "type": "uint256"
        }
      ],
      "stateMutability": "view",
      "type": "function"
    },
    {
      "inputs": [
        {
          "internalType": "uint256",
          "name": "",
          "type": "uint256"
        }
      ],
      "name": "BatchTemplateMAP",
      "outputs": [
        {
          "internalType": "uint256",
          "name": "BatchTemplateID",
          "type": "uint256"
        },
        {
          "internalType": "uint256",
          "name": "ProductTemplateID",
          "type": "uint256"
        },
        {
          "internalType": "string",
          "name": "Description",
          "type": "string"
        },
        {
          "internalType": "uint256",
          "name": "BatchSize",
          "type": "uint256"
        },
        {
          "internalType": "string",
          "name": "FactoryID",
          "type": "string"
        }
      ],
      "stateMutability": "view",
      "type": "function"
    },
    {
      "inputs": [
        {
          "internalType": "string",
          "name": "",
          "type": "string"
        },
        {
          "internalType": "uint256",
          "name": "",
          "type": "uint256"
        }
      ],
      "name": "CustomerData",
      "outputs": [
        {
          "internalType": "uint256",
          "name": "BatchID",
          "type": "uint256"
        },
        {
          "internalType": "uint256",
          "name": "ProductID",
          "type": "uint256"
        }
      ],
      "stateMutability": "view",
      "type": "function"
    },
    {
      "inputs": [
        {
          "internalType": "string",
          "name": "",
          "type": "string"
        },
        {
          "internalType": "uint256",
          "name": "",
          "type": "uint256"
        }
      ],
      "name": "DistributorIDToRetailerStruct",
      "outputs": [
        {
          "internalType": "string",
          "name": "DistributorID",
          "type": "string"
        },
        {
          "internalType": "string",
          "name": "RetailerID",
          "type": "string"
        },
        {
          "internalType": "uint256",
          "name": "BatchID",
          "type": "uint256"
        },
        {
          "internalType": "uint256",
          "name": "Quantity",
          "type": "uint256"
        },
        {
          "internalType": "uint256",
          "name": "TimeStamp",
          "type": "uint256"
        }
      ],
      "stateMutability": "view",
      "type": "function"
    },
    {
      "inputs": [
        {
          "internalType": "uint256",
          "name": "",
          "type": "uint256"
        }
      ],
      "name": "ProductIDs",
      "outputs": [
        {
          "internalType": "uint256",
          "name": "",
          "type": "uint256"
        }
      ],
      "stateMutability": "view",
      "type": "function"
    },
    {
      "inputs": [
        {
          "internalType": "uint256",
          "name": "",
          "type": "uint256"
        }
      ],
      "name": "ProductMapping",
      "outputs": [
        {
          "internalType": "uint256",
          "name": "ProductID",
          "type": "uint256"
        },
        {
          "internalType": "uint256",
          "name": "BatchID",
          "type": "uint256"
        },
        {
          "internalType": "uint256",
          "name": "ProductTemplateID",
          "type": "uint256"
        },
        {
          "internalType": "string",
          "name": "DOM",
          "type": "string"
        },
        {
          "internalType": "string",
          "name": "CustomerID",
          "type": "string"
        },
        {
          "internalType": "string",
          "name": "RetailerID",
          "type": "string"
        },
        {
          "internalType": "bool",
          "name": "RetailerScanned",
          "type": "bool"
        },
        {
          "internalType": "uint256",
          "name": "DateWhenSoldToRetailer",
          "type": "uint256"
        },
        {
          "internalType": "uint256",
          "name": "DateWhenSoldToCustomer",
          "type": "uint256"
        }
      ],
      "stateMutability": "view",
      "type": "function"
    },
    {
      "inputs": [
        {
          "internalType": "uint256",
          "name": "",
          "type": "uint256"
        }
      ],
      "name": "ProductTemplateIDs",
      "outputs": [
        {
          "internalType": "uint256",
          "name": "",
          "type": "uint256"
        }
      ],
      "stateMutability": "view",
      "type": "function"
    },
    {
      "inputs": [
        {
          "internalType": "uint256",
          "name": "",
          "type": "uint256"
        }
      ],
      "name": "ProductTemplateMAP",
      "outputs": [
        {
          "internalType": "uint256",
          "name": "ProductTemplateID",
          "type": "uint256"
        },
        {
          "internalType": "string",
          "name": "Name",
          "type": "string"
        },
        {
          "internalType": "string",
          "name": "Description",
          "type": "string"
        },
        {
          "internalType": "string",
          "name": "FactoryID",
          "type": "string"
        }
      ],
      "stateMutability": "view",
      "type": "function"
    },
    {
      "inputs": [
        {
          "internalType": "string",
          "name": "",
          "type": "string"
        },
        {
          "internalType": "uint256",
          "name": "",
          "type": "uint256"
        }
      ],
      "name": "RetailerIDToRetailerStruct",
      "outputs": [
        {
          "internalType": "string",
          "name": "DistributorID",
          "type": "string"
        },
        {
          "internalType": "string",
          "name": "RetailerID",
          "type": "string"
        },
        {
          "internalType": "uint256",
          "name": "BatchID",
          "type": "uint256"
        },
        {
          "internalType": "uint256",
          "name": "Quantity",
          "type": "uint256"
        },
        {
          "internalType": "uint256",
          "name": "TimeStamp",
          "type": "uint256"
        }
      ],
      "stateMutability": "view",
      "type": "function"
    },
    {
      "inputs": [
        {
          "internalType": "uint256",
          "name": "_batchTemplateID",
          "type": "uint256"
        },
        {
          "internalType": "uint256",
          "name": "_productTemplateID",
          "type": "uint256"
        },
        {
          "internalType": "string",
          "name": "_description",
          "type": "string"
        },
        {
          "internalType": "uint256",
          "name": "_batchSize",
          "type": "uint256"
        },
        {
          "internalType": "string",
          "name": "_factoryID",
          "type": "string"
        }
      ],
      "name": "addBatchTemplate",
      "outputs": [],
      "stateMutability": "nonpayable",
      "type": "function"
    },
    {
      "inputs": [
        {
          "internalType": "uint256",
          "name": "_productTemplateID",
          "type": "uint256"
        },
        {
          "internalType": "string",
          "name": "_name",
          "type": "string"
        },
        {
          "internalType": "string",
          "name": "_description",
          "type": "string"
        },
        {
          "internalType": "string",
          "name": "_factoryID",
          "type": "string"
        }
      ],
      "name": "addProductTemplate",
      "outputs": [],
      "stateMutability": "nonpayable",
      "type": "function"
    },
    {
      "inputs": [
        {
          "internalType": "uint256",
          "name": "batchID",
          "type": "uint256"
        },
        {
          "internalType": "uint256[]",
          "name": "productIDs",
          "type": "uint256[]"
        },
        {
          "internalType": "uint256",
          "name": "batchSize",
          "type": "uint256"
        },
        {
          "internalType": "string",
          "name": "batchDescription",
          "type": "string"
        },
        {
          "internalType": "uint256",
          "name": "productTemplateID",
          "type": "uint256"
        },
        {
          "internalType": "string",
          "name": "factory",
          "type": "string"
        },
        {
          "internalType": "string",
          "name": "distributor",
          "type": "string"
        },
        {
          "internalType": "string",
          "name": "factoryLocation",
          "type": "string"
        },
        {
          "internalType": "string",
          "name": "dateOfProduction",
          "type": "string"
        }
      ],
      "name": "batchProduced",
      "outputs": [],
      "stateMutability": "nonpayable",
      "type": "function"
    },
    {
      "inputs": [
        {
          "internalType": "uint256",
          "name": "batchID",
          "type": "uint256"
        },
        {
          "internalType": "string",
          "name": "_distributorID",
          "type": "string"
        }
      ],
      "name": "distributorScansBatch",
      "outputs": [],
      "stateMutability": "nonpayable",
      "type": "function"
    },
    {
      "inputs": [
        {
          "internalType": "uint256",
          "name": "batchID",
          "type": "uint256"
        },
        {
          "internalType": "uint256",
          "name": "quantity",
          "type": "uint256"
        },
        {
          "internalType": "string",
          "name": "retailerID",
          "type": "string"
        }
      ],
      "name": "distributorSellToRetailer",
      "outputs": [],
      "stateMutability": "nonpayable",
      "type": "function"
    },
    {
      "inputs": [],
      "name": "getAllBatchIDs",
      "outputs": [
        {
          "internalType": "uint256[]",
          "name": "",
          "type": "uint256[]"
        }
      ],
      "stateMutability": "view",
      "type": "function"
    },
    {
      "inputs": [],
      "name": "getAllBatchTemplateIDs",
      "outputs": [
        {
          "internalType": "uint256[]",
          "name": "",
          "type": "uint256[]"
        }
      ],
      "stateMutability": "view",
      "type": "function"
    },
    {
      "inputs": [],
      "name": "getAllProductIDs",
      "outputs": [
        {
          "internalType": "uint256[]",
          "name": "",
          "type": "uint256[]"
        }
      ],
      "stateMutability": "view",
      "type": "function"
    },
    {
      "inputs": [],
      "name": "getAllProductTemplateIDs",
      "outputs": [
        {
          "internalType": "uint256[]",
          "name": "",
          "type": "uint256[]"
        }
      ],
      "stateMutability": "view",
      "type": "function"
    },
    {
      "inputs": [
        {
          "internalType": "string",
          "name": "customerID",
          "type": "string"
        }
      ],
      "name": "getAllProductsBought",
      "outputs": [
        {
          "components": [
            {
              "internalType": "uint256",
              "name": "BatchID",
              "type": "uint256"
            },
            {
              "internalType": "uint256",
              "name": "ProductID",
              "type": "uint256"
            }
          ],
          "internalType": "struct Supplychain.Customer[]",
          "name": "",
          "type": "tuple[]"
        }
      ],
      "stateMutability": "view",
      "type": "function"
    },
    {
      "inputs": [
        {
          "internalType": "string",
          "name": "distributorID",
          "type": "string"
        }
      ],
      "name": "getDistributorIDToRetailerStruct",
      "outputs": [
        {
          "components": [
            {
              "internalType": "string",
              "name": "DistributorID",
              "type": "string"
            },
            {
              "internalType": "string",
              "name": "RetailerID",
              "type": "string"
            },
            {
              "internalType": "uint256",
              "name": "BatchID",
              "type": "uint256"
            },
            {
              "internalType": "uint256",
              "name": "Quantity",
              "type": "uint256"
            },
            {
              "internalType": "uint256",
              "name": "TimeStamp",
              "type": "uint256"
            }
          ],
          "internalType": "struct Supplychain.Retailer[]",
          "name": "",
          "type": "tuple[]"
        }
      ],
      "stateMutability": "view",
      "type": "function"
    },
    {
      "inputs": [
        {
          "internalType": "uint256",
          "name": "batchID",
          "type": "uint256"
        }
      ],
      "name": "getProductIdsForaBatch",
      "outputs": [
        {
          "internalType": "uint256[]",
          "name": "",
          "type": "uint256[]"
        }
      ],
      "stateMutability": "view",
      "type": "function"
    },
    {
      "inputs": [
        {
          "internalType": "string",
          "name": "retailerID",
          "type": "string"
        }
      ],
      "name": "getRetailerIDToRetailerStruct",
      "outputs": [
        {
          "components": [
            {
              "internalType": "string",
              "name": "DistributorID",
              "type": "string"
            },
            {
              "internalType": "string",
              "name": "RetailerID",
              "type": "string"
            },
            {
              "internalType": "uint256",
              "name": "BatchID",
              "type": "uint256"
            },
            {
              "internalType": "uint256",
              "name": "Quantity",
              "type": "uint256"
            },
            {
              "internalType": "uint256",
              "name": "TimeStamp",
              "type": "uint256"
            }
          ],
          "internalType": "struct Supplychain.Retailer[]",
          "name": "",
          "type": "tuple[]"
        }
      ],
      "stateMutability": "view",
      "type": "function"
    },
    {
      "inputs": [
        {
          "internalType": "uint256",
          "name": "_productID",
          "type": "uint256"
        },
        {
          "internalType": "string",
          "name": "_retailerID",
          "type": "string"
        }
      ],
      "name": "retailerScansProduct",
      "outputs": [],
      "stateMutability": "nonpayable",
      "type": "function"
    },
    {
      "inputs": [
        {
          "internalType": "uint256",
          "name": "batchID",
          "type": "uint256"
        },
        {
          "internalType": "uint256",
          "name": "productID",
          "type": "uint256"
        },
        {
          "internalType": "string",
          "name": "customerID",
          "type": "string"
        }
      ],
      "name": "retailerSellToCustomer",
      "outputs": [],
      "stateMutability": "nonpayable",
      "type": "function"
    }
  ],
  "bytecode": "0x608060405234801561001057600080fd5b50613148806100206000396000f3fe608060405234801561001057600080fd5b50600436106101a95760003560e01c80638bd42880116100f9578063c492384f11610097578063e139f99411610071578063e139f994146103c1578063e3c6a4ac146103e5578063ea417247146103f8578063eac0e9771461040b57600080fd5b8063c492384f14610388578063d16ad4e01461039b578063d976f930146103ae57600080fd5b806390973cce116100d357806390973cce14610324578063a78317f814610337578063a7a4523d1461034a578063bf801df11461035d57600080fd5b80638bd42880146102f65780638c4c42cd146103095780638e5452b81461031157600080fd5b80634c27729c1161016657806371d1dc0c1161014057806371d1dc0c14610287578063793560dd146102aa5780637ae4ee04146102b25780637f7bf690146102d657600080fd5b80634c27729c146102595780634ca20f3414610261578063636955b61461027457600080fd5b806321f29391146101ae578063278338e8146101db578063284328d0146101f0578063392a70a6146102105780633ab95f30146102305780633b7d255c14610251575b600080fd5b6101c16101bc366004612768565b610433565b604080519283526020830191909152015b60405180910390f35b6101ee6101e93660046127ad565b61047e565b005b6102036101fe36600461283f565b6105a3565b6040516101d2919061287c565b61022361021e3660046128cb565b610634565b6040516101d291906128e4565b61024361023e3660046128cb565b610696565b6040519081526020016101d2565b6102236106b7565b61022361070f565b61024361026f3660046128cb565b610765565b6101ee610282366004612928565b610775565b61029a6102953660046128cb565b610dbc565b6040516101d294939291906129c8565b610223610f7d565b6102c56102c03660046128cb565b610fd3565b6040516101d2959493929190612a12565b6102e96102e436600461283f565b611113565b6040516101d29190612a55565b6102436103043660046128cb565b6112c7565b6102236112d7565b6101ee61031f366004612afa565b61132d565b610243610332366004612b7b565b6114d5565b6102436103453660046128cb565b611506565b6102e961035836600461283f565b611516565b61037061036b3660046128cb565b6116ca565b6040516101d29c9b9a99989796959493929190612b9d565b6101ee610396366004612cb7565b6119d8565b6101ee6103a9366004612928565b611e33565b6101ee6103bc366004612dcb565b611ee6565b6103d46103cf366004612768565b61203d565b6040516101d2959493929190612e12565b6103d46103f3366004612768565b6121af565b6101ee610406366004612dcb565b6121da565b61041e6104193660046128cb565b61232d565b6040516101d299989796959493929190612e55565b8151602081840181018051600582529282019185019190912091905280548290811061045e57600080fd5b600091825260209091206002909102018054600190910154909250905082565b61048784612514565b156104f55760405162461bcd60e51b815260206004820152603360248201527f546869732050726f6475637454656d706c617465494420616c72656164792065604482015272786973747320696e207468652073797374656d60681b60648201526084015b60405180910390fd5b60408051608081018252858152602080820186815282840186905260608301859052600088815291829052929020815181559151909190600182019061053b9082612f4f565b50604082015160028201906105509082612f4f565b50606082015160038201906105659082612f4f565b5050600880546001810182556000919091527ff3f7a9fe364faab93b216da50a3214154f22a0a2b415b23a84c8169e8b636ee3019490945550505050565b60606005826040516105b5919061300f565b9081526020016040518091039020805480602002602001604051908101604052809291908181526020016000905b82821015610629578382906000526020600020906002020160405180604001604052908160008201548152602001600182015481525050815260200190600101906105e3565b505050509050919050565b60008181526004602090815260409182902080548351818402810184019094528084526060939283018282801561068a57602002820191906000526020600020905b815481526020019060010190808311610676575b50505050509050919050565b600881815481106106a657600080fd5b600091825260209091200154905081565b6060600880548060200260200160405190810160405280929190818152602001828054801561070557602002820191906000526020600020905b8154815260200190600101908083116106f1575b5050505050905090565b6060600980548060200260200160405190810160405280929190818152602001828054801561070557602002820191906000526020600020908154815260200190600101908083116106f1575050505050905090565b600981815481106106a657600080fd5b6000838152600360205260408120600b8101546001820154600690920180549193916107a090612ec6565b80601f01602080910402602001604051908101604052809291908181526020018280546107cc90612ec6565b80156108195780601f106107ee57610100808354040283529160200191610819565b820191906000526020600020905b8154815290600101906020018083116107fc57829003601f168201915b50505050509050848310156108a05760405162461bcd60e51b815260206004820152604160248201527f5175616e746974792069732067726561746572207468616e2074686520616d6f60448201527f756e74206c65667420746f20626520736f6c6420696e207468697320626174636064820152600d60fb1b608482015260a4016104ec565b600085116108f05760405162461bcd60e51b815260206004820152601760248201527f5175616e746974792063616e6e6f74206265207a65726f00000000000000000060448201526064016104ec565b60006108fc8484613041565b60008881526004602090815260408083208054825181850281018501909352808352949550929390929183018282801561095557602002820191906000526020600020905b815481526020019060010190808311610941575b509394508593505050505b61096a888461305a565b811015610c695760008282815181106109855761098561306d565b60200260200101519050600060026000838152602001908152602001600020604051806101200160405290816000820154815260200160018201548152602001600282015481526020016003820180546109de90612ec6565b80601f0160208091040260200160405190810160405280929190818152602001828054610a0a90612ec6565b8015610a575780601f10610a2c57610100808354040283529160200191610a57565b820191906000526020600020905b815481529060010190602001808311610a3a57829003601f168201915b50505050508152602001600482018054610a7090612ec6565b80601f0160208091040260200160405190810160405280929190818152602001828054610a9c90612ec6565b8015610ae95780601f10610abe57610100808354040283529160200191610ae9565b820191906000526020600020905b815481529060010190602001808311610acc57829003601f168201915b50505050508152602001600582018054610b0290612ec6565b80601f0160208091040260200160405190810160405280929190818152602001828054610b2e90612ec6565b8015610b7b5780601f10610b5057610100808354040283529160200191610b7b565b820191906000526020600020905b815481529060010190602001808311610b5e57829003601f168201915b5050509183525050600682015460ff161515602080830191909152600783015460408084019190915260089093015460609283015260a084018d90524260e0850152600086815260028083529084902085518155918501516001830155928401519281019290925582015191925082916003820190610bfa9082612f4f565b5060808201516004820190610c0f9082612f4f565b5060a08201516005820190610c249082612f4f565b5060c082015160068201805460ff191691151591909117905560e082015160078201556101009091015160089091015550819050610c6181613083565b915050610960565b506000888152600360205260408120600b018054899290610c8b908490613041565b90915550506040805160a081018252848152602081018890528082018a9052606081018990524260808201529051600690610cc790869061300f565b908152604051602091819003820190208054600181018255600091825291902082518392600502909101908190610cfe9082612f4f565b5060208201516001820190610d139082612f4f565b506040820151816002015560608201518160030155608082015181600401555050600787604051610d44919061300f565b908152604051602091819003820190208054600181018255600091825291902082518392600502909101908190610d7b9082612f4f565b5060208201516001820190610d909082612f4f565b506040820151816002015560608201518160030155608082015181600401555050505050505050505050565b60006020819052908152604090208054600182018054919291610dde90612ec6565b80601f0160208091040260200160405190810160405280929190818152602001828054610e0a90612ec6565b8015610e575780601f10610e2c57610100808354040283529160200191610e57565b820191906000526020600020905b815481529060010190602001808311610e3a57829003601f168201915b505050505090806002018054610e6c90612ec6565b80601f0160208091040260200160405190810160405280929190818152602001828054610e9890612ec6565b8015610ee55780601f10610eba57610100808354040283529160200191610ee5565b820191906000526020600020905b815481529060010190602001808311610ec857829003601f168201915b505050505090806003018054610efa90612ec6565b80601f0160208091040260200160405190810160405280929190818152602001828054610f2690612ec6565b8015610f735780601f10610f4857610100808354040283529160200191610f73565b820191906000526020600020905b815481529060010190602001808311610f5657829003601f168201915b5050505050905084565b6060600b80548060200260200160405190810160405280929190818152602001828054801561070557602002820191906000526020600020908154815260200190600101908083116106f1575050505050905090565b6001602081905260009182526040909120805491810154600282018054919291610ffc90612ec6565b80601f016020809104026020016040519081016040528092919081815260200182805461102890612ec6565b80156110755780601f1061104a57610100808354040283529160200191611075565b820191906000526020600020905b81548152906001019060200180831161105857829003601f168201915b50505050509080600301549080600401805461109090612ec6565b80601f01602080910402602001604051908101604052809291908181526020018280546110bc90612ec6565b80156111095780601f106110de57610100808354040283529160200191611109565b820191906000526020600020905b8154815290600101906020018083116110ec57829003601f168201915b5050505050905085565b6060600682604051611125919061300f565b9081526020016040518091039020805480602002602001604051908101604052809291908181526020016000905b8282101561062957838290600052602060002090600502016040518060a001604052908160008201805461118690612ec6565b80601f01602080910402602001604051908101604052809291908181526020018280546111b290612ec6565b80156111ff5780601f106111d4576101008083540402835291602001916111ff565b820191906000526020600020905b8154815290600101906020018083116111e257829003601f168201915b5050505050815260200160018201805461121890612ec6565b80601f016020809104026020016040519081016040528092919081815260200182805461124490612ec6565b80156112915780601f1061126657610100808354040283529160200191611291565b820191906000526020600020905b81548152906001019060200180831161127457829003601f168201915b50505050508152602001600282015481526020016003820154815260200160048201548152505081526020019060010190611153565b600b81815481106106a657600080fd5b6060600a80548060200260200160405190810160405280929190818152602001828054801561070557602002820191906000526020600020908154815260200190600101908083116106f1575050505050905090565b6113368561256a565b1561139d5760405162461bcd60e51b815260206004820152603160248201527f5468697320426174636854656d706c617465494420616c72656164792065786960448201527073747320696e207468652073797374656d60781b60648201526084016104ec565b6113a684612514565b15156001146114145760405162461bcd60e51b815260206004820152603460248201527f546869732050726f6475637454656d706c617465494420646f6573206e6f742060448201527365786973747320696e207468652073797374656d60601b60648201526084016104ec565b6040518060a001604052808681526020018581526020018481526020018381526020018281525060016000878152602001908152602001600020600082015181600001556020820151816001015560408201518160020190816114779190612f4f565b5060608201516003820155608082015160048201906114969082612f4f565b5050600980546001810182556000919091527f6e1540171b6c0c960b71a7020d9f60077f6af931a8bbf590da0223dacf75c7af01959095555050505050565b600460205281600052604060002081815481106114f157600080fd5b90600052602060002001600091509150505481565b600a81815481106106a657600080fd5b6060600782604051611528919061300f565b9081526020016040518091039020805480602002602001604051908101604052809291908181526020016000905b8282101561062957838290600052602060002090600502016040518060a001604052908160008201805461158990612ec6565b80601f01602080910402602001604051908101604052809291908181526020018280546115b590612ec6565b80156116025780601f106115d757610100808354040283529160200191611602565b820191906000526020600020905b8154815290600101906020018083116115e557829003601f168201915b5050505050815260200160018201805461161b90612ec6565b80601f016020809104026020016040519081016040528092919081815260200182805461164790612ec6565b80156116945780601f1061166957610100808354040283529160200191611694565b820191906000526020600020905b81548152906001019060200180831161167757829003601f168201915b50505050508152602001600282015481526020016003820154815260200160048201548152505081526020019060010190611556565b60036020528060005260406000206000915090508060000154908060010154908060020154908060030180546116ff90612ec6565b80601f016020809104026020016040519081016040528092919081815260200182805461172b90612ec6565b80156117785780601f1061174d57610100808354040283529160200191611778565b820191906000526020600020905b81548152906001019060200180831161175b57829003601f168201915b50505050509080600401549080600501805461179390612ec6565b80601f01602080910402602001604051908101604052809291908181526020018280546117bf90612ec6565b801561180c5780601f106117e15761010080835404028352916020019161180c565b820191906000526020600020905b8154815290600101906020018083116117ef57829003601f168201915b50505050509080600601805461182190612ec6565b80601f016020809104026020016040519081016040528092919081815260200182805461184d90612ec6565b801561189a5780601f1061186f5761010080835404028352916020019161189a565b820191906000526020600020905b81548152906001019060200180831161187d57829003601f168201915b5050505050908060070180546118af90612ec6565b80601f01602080910402602001604051908101604052809291908181526020018280546118db90612ec6565b80156119285780601f106118fd57610100808354040283529160200191611928565b820191906000526020600020905b81548152906001019060200180831161190b57829003601f168201915b50505050509080600801805461193d90612ec6565b80601f016020809104026020016040519081016040528092919081815260200182805461196990612ec6565b80156119b65780601f1061198b576101008083540402835291602001916119b6565b820191906000526020600020905b81548152906001019060200180831161199957829003601f168201915b505050506009830154600a840154600b909401549293909260ff90911691508c565b6119e1896125b7565b15611a3a5760405162461bcd60e51b8152602060048201526024808201527f4261746368494420616c72656164792065786973747320696e207468652073796044820152637374656d60e01b60648201526084016104ec565b86885114611ab05760405162461bcd60e51b815260206004820152603760248201527f53697a65206f662070726f6475637449447320617272617920646f6573206e6f60448201527f74206d6174636820776974682042617463682073697a6500000000000000000060648201526084016104ec565b60408051610180810182528a815260208082018a81526000838501818152606085018c8152608086018c905260a086018b905260c086018a905260e0860189905261010086018890526101208601839052610140860183905261016086018e90528f8352600394859052959091208451815591516001830155516002820155925191929190820190611b429082612f4f565b506080820151600482015560a08201516005820190611b619082612f4f565b5060c08201516006820190611b769082612f4f565b5060e08201516007820190611b8b9082612f4f565b506101008201516008820190611ba19082612f4f565b506101208201516009820155610140820151600a8201805460ff191691151591909117905561016090910151600b918201558054600181019091557f0175b7a638427703f0dbe7bb9bbf987a2551717b34e79f33b5b1008d1fa01db90189905560008981526004602090815260409091208951611c20928b0190612651565b5060005b87811015611e2757611c4e898281518110611c4157611c4161306d565b6020026020010151612604565b15611caa5760405162461bcd60e51b815260206004820152602660248201527f50726f64756374494420616c72656164792065786973747320696e207468652060448201526573797374656d60d01b60648201526084016104ec565b6040518061012001604052808a8381518110611cc857611cc861306d565b602002602001015181526020018b8152602001878152602001838152602001604051806020016040528060008152508152602001604051806020016040528060008152508152602001600015158152602001600081526020016000815250600260008b8481518110611d3c57611d3c61306d565b602002602001015181526020019081526020016000206000820151816000015560208201518160010155604082015181600201556060820151816003019081611d859190612f4f565b5060808201516004820190611d9a9082612f4f565b5060a08201516005820190611daf9082612f4f565b5060c082015160068201805460ff191691151591909117905560e08201516007820155610100909101516008909101558851600a908a9083908110611df657611df661306d565b6020908102919091018101518254600181018455600093845291909220015580611e1f81613083565b915050611c24565b50505050505050505050565b6000838152600360205260408120600201805460019290611e5590849061305a565b90915550506000828152600260205260409020600401611e758282612f4f565b50600082815260026020526040908190204260089091015551600590611e9c90839061300f565b908152604080519182900360209081018320838301909252948252818501938452805460018181018355600092835295909120915160029091029091019081559151919092015550565b6000828152600360205260409020600a015460ff1615611f615760405162461bcd60e51b815260206004820152603060248201527f5468697320626174636820697320616c7265616479207363616e6e656420627960448201526f103a3432903234b9ba3934b13aba37b960811b60648201526084016104ec565b80604051602001611f72919061300f565b60408051601f198184030181528282528051602091820120600086815260038352929092209192611fa792600601910161309c565b604051602081830303815290604052805190602001201461201e5760405162461bcd60e51b815260206004820152602b60248201527f54686973206261746368206973206e6f74206f776e656420627920746869732060448201526a3234b9ba3934b13aba37b960a91b60648201526084016104ec565b506000908152600360205260409020600a01805460ff19166001179055565b8151602081840181018051600682529282019185019190912091905280548290811061206857600080fd5b90600052602060002090600502016000915091505080600001805461208c90612ec6565b80601f01602080910402602001604051908101604052809291908181526020018280546120b890612ec6565b80156121055780601f106120da57610100808354040283529160200191612105565b820191906000526020600020905b8154815290600101906020018083116120e857829003601f168201915b50505050509080600101805461211a90612ec6565b80601f016020809104026020016040519081016040528092919081815260200182805461214690612ec6565b80156121935780601f1061216857610100808354040283529160200191612193565b820191906000526020600020905b81548152906001019060200180831161217657829003601f168201915b5050505050908060020154908060030154908060040154905085565b8151602081840181018051600782529282019185019190912091905280548290811061206857600080fd5b60008281526002602052604090206006015460ff16156122525760405162461bcd60e51b815260206004820152602d60248201527f5468697320626174636820697320616c7265616479207363616e6e656420627960448201526c103a3432903932ba30b4b632b960991b60648201526084016104ec565b80604051602001612263919061300f565b60408051601f19818403018152828252805160209182012060008681526002835292909220919261229892600501910161309c565b604051602081830303815290604052805190602001201461230e5760405162461bcd60e51b815260206004820152602a60248201527f546869732070726f64756374206973206e6f74206f776e65642062792074686960448201526939903932ba30b4b632b960b11b60648201526084016104ec565b506000908152600260205260409020600601805460ff19166001179055565b60026020819052600091825260409091208054600182015492820154600383018054929493919261235d90612ec6565b80601f016020809104026020016040519081016040528092919081815260200182805461238990612ec6565b80156123d65780601f106123ab576101008083540402835291602001916123d6565b820191906000526020600020905b8154815290600101906020018083116123b957829003601f168201915b5050505050908060040180546123eb90612ec6565b80601f016020809104026020016040519081016040528092919081815260200182805461241790612ec6565b80156124645780601f1061243957610100808354040283529160200191612464565b820191906000526020600020905b81548152906001019060200180831161244757829003601f168201915b50505050509080600501805461247990612ec6565b80601f01602080910402602001604051908101604052809291908181526020018280546124a590612ec6565b80156124f25780601f106124c7576101008083540402835291602001916124f2565b820191906000526020600020905b8154815290600101906020018083116124d557829003601f168201915b5050505060068301546007840154600890940154929360ff9091169290915089565b6000805b6008548110156125615782600882815481106125365761253661306d565b90600052602060002001540361254f5750600192915050565b8061255981613083565b915050612518565b50600092915050565b6000805b60095481101561256157826009828154811061258c5761258c61306d565b9060005260206000200154036125a55750600192915050565b806125af81613083565b91505061256e565b6000805b600b548110156125615782600b82815481106125d9576125d961306d565b9060005260206000200154036125f25750600192915050565b806125fc81613083565b9150506125bb565b6000805b600a548110156125615782600a82815481106126265761262661306d565b90600052602060002001540361263f5750600192915050565b8061264981613083565b915050612608565b82805482825590600052602060002090810192821561268c579160200282015b8281111561268c578251825591602001919060010190612671565b5061269892915061269c565b5090565b5b80821115612698576000815560010161269d565b634e487b7160e01b600052604160045260246000fd5b604051601f8201601f1916810167ffffffffffffffff811182821017156126f0576126f06126b1565b604052919050565b600082601f83011261270957600080fd5b813567ffffffffffffffff811115612723576127236126b1565b612736601f8201601f19166020016126c7565b81815284602083860101111561274b57600080fd5b816020850160208301376000918101602001919091529392505050565b6000806040838503121561277b57600080fd5b823567ffffffffffffffff81111561279257600080fd5b61279e858286016126f8565b95602094909401359450505050565b600080600080608085870312156127c357600080fd5b84359350602085013567ffffffffffffffff808211156127e257600080fd5b6127ee888389016126f8565b9450604087013591508082111561280457600080fd5b612810888389016126f8565b9350606087013591508082111561282657600080fd5b50612833878288016126f8565b91505092959194509250565b60006020828403121561285157600080fd5b813567ffffffffffffffff81111561286857600080fd5b612874848285016126f8565b949350505050565b602080825282518282018190526000919060409081850190868401855b828110156128be57815180518552860151868501529284019290850190600101612899565b5091979650505050505050565b6000602082840312156128dd57600080fd5b5035919050565b6020808252825182820181905260009190848201906040850190845b8181101561291c57835183529284019291840191600101612900565b50909695505050505050565b60008060006060848603121561293d57600080fd5b8335925060208401359150604084013567ffffffffffffffff81111561296257600080fd5b61296e868287016126f8565b9150509250925092565b60005b8381101561299357818101518382015260200161297b565b50506000910152565b600081518084526129b4816020860160208601612978565b601f01601f19169290920160200192915050565b8481526080602082015260006129e1608083018661299c565b82810360408401526129f3818661299c565b90508281036060840152612a07818561299c565b979650505050505050565b85815284602082015260a060408201526000612a3160a083018661299c565b8460608401528281036080840152612a49818561299c565b98975050505050505050565b60006020808301818452808551808352604092508286019150828160051b87010184880160005b83811015612aec57603f19898403018552815160a08151818652612aa28287018261299c565b915050888201518582038a870152612aba828261299c565b838a0151878b015260608085015190880152608093840151939096019290925250509386019390860190600101612a7c565b509098975050505050505050565b600080600080600060a08688031215612b1257600080fd5b8535945060208601359350604086013567ffffffffffffffff80821115612b3857600080fd5b612b4489838a016126f8565b9450606088013593506080880135915080821115612b6157600080fd5b50612b6e888289016126f8565b9150509295509295909350565b60008060408385031215612b8e57600080fd5b50508035926020909101359150565b60006101808e83528d60208401528c6040840152806060840152612bc38184018d61299c565b90508a608084015282810360a0840152612bdd818b61299c565b905082810360c0840152612bf1818a61299c565b905082810360e0840152612c05818961299c565b9050828103610100840152612c1a818861299c565b6101208401969096525050911515610140830152610160909101529998505050505050505050565b600082601f830112612c5357600080fd5b8135602067ffffffffffffffff821115612c6f57612c6f6126b1565b8160051b612c7e8282016126c7565b9283528481018201928281019087851115612c9857600080fd5b83870192505b84831015612a0757823582529183019190830190612c9e565b60008060008060008060008060006101208a8c031215612cd657600080fd5b8935985060208a013567ffffffffffffffff80821115612cf557600080fd5b612d018d838e01612c42565b995060408c0135985060608c0135915080821115612d1e57600080fd5b612d2a8d838e016126f8565b975060808c0135965060a08c0135915080821115612d4757600080fd5b612d538d838e016126f8565b955060c08c0135915080821115612d6957600080fd5b612d758d838e016126f8565b945060e08c0135915080821115612d8b57600080fd5b612d978d838e016126f8565b93506101008c0135915080821115612dae57600080fd5b50612dbb8c828d016126f8565b9150509295985092959850929598565b60008060408385031215612dde57600080fd5b82359150602083013567ffffffffffffffff811115612dfc57600080fd5b612e08858286016126f8565b9150509250929050565b60a081526000612e2560a083018861299c565b8281036020840152612e37818861299c565b60408401969096525050606081019290925260809091015292915050565b60006101208b83528a6020840152896040840152806060840152612e7b8184018a61299c565b90508281036080840152612e8f818961299c565b905082810360a0840152612ea3818861299c565b95151560c0840152505060e0810192909252610100909101529695505050505050565b600181811c90821680612eda57607f821691505b602082108103612efa57634e487b7160e01b600052602260045260246000fd5b50919050565b601f821115612f4a57600081815260208120601f850160051c81016020861015612f275750805b601f850160051c820191505b81811015612f4657828155600101612f33565b5050505b505050565b815167ffffffffffffffff811115612f6957612f696126b1565b612f7d81612f778454612ec6565b84612f00565b602080601f831160018114612fb25760008415612f9a5750858301515b600019600386901b1c1916600185901b178555612f46565b600085815260208120601f198616915b82811015612fe157888601518255948401946001909101908401612fc2565b5085821015612fff5787850151600019600388901b60f8161c191681555b5050505050600190811b01905550565b60008251613021818460208701612978565b9190910192915050565b634e487b7160e01b600052601160045260246000fd5b818103818111156130545761305461302b565b92915050565b808201808211156130545761305461302b565b634e487b7160e01b600052603260045260246000fd5b6000600182016130955761309561302b565b5060010190565b60008083546130aa81612ec6565b600182811680156130c257600181146130d757613106565b60ff1984168752821515830287019450613106565b8760005260208060002060005b858110156130fd5781548a8201529084019082016130e4565b50505082870194505b5092969550505050505056fea2646970667358221220cfa3af21ae6067081784713596269fc30d6598265e715975c56b27cbf9e2746464736f6c63430008110033",
  "linkReferences": {},
  "deployedLinkReferences": {}
}