{
  "_format": "hh-sol-artifact-1",
  "contractName": "Supplychain",
  "sourceName": "contracts/Supplychain.sol",
  "abi": [
    {
      "inputs": [
        {
          "internalType": "uint256",
          "name": "",
          "type": "uint256"
        },
        {
          "internalType": "uint256",
          "name": "",
          "type": "uint256"
        }
      ],
      "name": "BatchIDToProductIDMapping",
      "outputs": [
        {
          "internalType": "uint256",
          "name": "",
          "type": "uint256"
        }
      ],
      "stateMutability": "view",
      "type": "function"
    },
    {
      "inputs": [
        {
          "internalType": "uint256",
          "name": "",
          "type": "uint256"
        }
      ],
      "name": "BatchIDs",
      "outputs": [
        {
          "internalType": "uint256",
          "name": "",
          "type": "uint256"
        }
      ],
      "stateMutability": "view",
      "type": "function"
    },
    {
      "inputs": [
        {
          "internalType": "uint256",
          "name": "",
          "type": "uint256"
        }
      ],
      "name": "BatchMapping",
      "outputs": [
        {
          "internalType": "uint256",
          "name": "BatchID",
          "type": "uint256"
        },
        {
          "internalType": "uint256",
          "name": "BatchSize",
          "type": "uint256"
        },
        {
          "internalType": "uint256",
          "name": "AmountSold",
          "type": "uint256"
        },
        {
          "internalType": "string",
          "name": "BatchDescription",
          "type": "string"
        },
        {
          "internalType": "uint256",
          "name": "ProductTemplateID",
          "type": "uint256"
        },
        {
          "internalType": "uint256",
          "name": "FactoryID",
          "type": "uint256"
        },
        {
          "internalType": "uint256",
          "name": "DistributorID",
          "type": "uint256"
        },
        {
          "internalType": "uint256",
          "name": "RetailerID",
          "type": "uint256"
        },
        {
          "internalType": "string",
          "name": "FactoryLocation",
          "type": "string"
        },
        {
          "internalType": "string",
          "name": "DateOfProduction",
          "type": "string"
        },
        {
          "internalType": "uint256",
          "name": "State",
          "type": "uint256"
        },
        {
          "internalType": "bool",
          "name": "FactoryScanned",
          "type": "bool"
        },
        {
          "internalType": "bool",
          "name": "DistributorScanned",
          "type": "bool"
        },
        {
          "internalType": "bool",
          "name": "RetailerScanned",
          "type": "bool"
        }
      ],
      "stateMutability": "view",
      "type": "function"
    },
    {
      "inputs": [
        {
          "internalType": "uint256",
          "name": "",
          "type": "uint256"
        }
      ],
      "name": "BatchTemplateIDs",
      "outputs": [
        {
          "internalType": "uint256",
          "name": "",
          "type": "uint256"
        }
      ],
      "stateMutability": "view",
      "type": "function"
    },
    {
      "inputs": [
        {
          "internalType": "uint256",
          "name": "",
          "type": "uint256"
        }
      ],
      "name": "BatchTemplateMAP",
      "outputs": [
        {
          "internalType": "uint256",
          "name": "BatchTemplateID",
          "type": "uint256"
        },
        {
          "internalType": "uint256",
          "name": "ProductTemplateID",
          "type": "uint256"
        },
        {
          "internalType": "string",
          "name": "Description",
          "type": "string"
        },
        {
          "internalType": "uint256",
          "name": "BatchSize",
          "type": "uint256"
        },
        {
          "internalType": "uint256",
          "name": "FactoryID",
          "type": "uint256"
        }
      ],
      "stateMutability": "view",
      "type": "function"
    },
    {
      "inputs": [
        {
          "internalType": "uint256",
          "name": "",
          "type": "uint256"
        },
        {
          "internalType": "uint256",
          "name": "",
          "type": "uint256"
        }
      ],
      "name": "CustomerData",
      "outputs": [
        {
          "internalType": "uint256",
          "name": "BatchID",
          "type": "uint256"
        },
        {
          "internalType": "uint256",
          "name": "ProductID",
          "type": "uint256"
        }
      ],
      "stateMutability": "view",
      "type": "function"
    },
    {
      "inputs": [
        {
          "internalType": "uint256",
          "name": "",
          "type": "uint256"
        }
      ],
      "name": "ProductIDs",
      "outputs": [
        {
          "internalType": "uint256",
          "name": "",
          "type": "uint256"
        }
      ],
      "stateMutability": "view",
      "type": "function"
    },
    {
      "inputs": [
        {
          "internalType": "uint256",
          "name": "",
          "type": "uint256"
        }
      ],
      "name": "ProductMapping",
      "outputs": [
        {
          "internalType": "uint256",
          "name": "ProductID",
          "type": "uint256"
        },
        {
          "internalType": "uint256",
          "name": "BatchID",
          "type": "uint256"
        },
        {
          "internalType": "uint256",
          "name": "ProductTemplateID",
          "type": "uint256"
        },
        {
          "internalType": "string",
          "name": "DOM",
          "type": "string"
        },
        {
          "internalType": "uint256",
          "name": "OwnerID",
          "type": "uint256"
        },
        {
          "internalType": "uint256",
          "name": "DateWhenSold",
          "type": "uint256"
        }
      ],
      "stateMutability": "view",
      "type": "function"
    },
    {
      "inputs": [
        {
          "internalType": "uint256",
          "name": "",
          "type": "uint256"
        }
      ],
      "name": "ProductTemplateIDs",
      "outputs": [
        {
          "internalType": "uint256",
          "name": "",
          "type": "uint256"
        }
      ],
      "stateMutability": "view",
      "type": "function"
    },
    {
      "inputs": [
        {
          "internalType": "uint256",
          "name": "",
          "type": "uint256"
        }
      ],
      "name": "ProductTemplateMAP",
      "outputs": [
        {
          "internalType": "uint256",
          "name": "ProductTemplateID",
          "type": "uint256"
        },
        {
          "internalType": "string",
          "name": "Name",
          "type": "string"
        },
        {
          "internalType": "string",
          "name": "Description",
          "type": "string"
        },
        {
          "internalType": "uint256",
          "name": "FactoryID",
          "type": "uint256"
        }
      ],
      "stateMutability": "view",
      "type": "function"
    },
    {
      "inputs": [
        {
          "internalType": "uint256",
          "name": "_batchTemplateID",
          "type": "uint256"
        },
        {
          "internalType": "uint256",
          "name": "_productTemplateID",
          "type": "uint256"
        },
        {
          "internalType": "string",
          "name": "_description",
          "type": "string"
        },
        {
          "internalType": "uint256",
          "name": "_batchSize",
          "type": "uint256"
        },
        {
          "internalType": "uint256",
          "name": "_factoryID",
          "type": "uint256"
        }
      ],
      "name": "addBatchTemplate",
      "outputs": [],
      "stateMutability": "nonpayable",
      "type": "function"
    },
    {
      "inputs": [
        {
          "internalType": "uint256",
          "name": "_productTemplateID",
          "type": "uint256"
        },
        {
          "internalType": "string",
          "name": "_name",
          "type": "string"
        },
        {
          "internalType": "string",
          "name": "_description",
          "type": "string"
        },
        {
          "internalType": "uint256",
          "name": "_factoryID",
          "type": "uint256"
        }
      ],
      "name": "addProductTemplate",
      "outputs": [],
      "stateMutability": "nonpayable",
      "type": "function"
    },
    {
      "inputs": [
        {
          "internalType": "uint256",
          "name": "batchID",
          "type": "uint256"
        },
        {
          "internalType": "uint256[]",
          "name": "productIDs",
          "type": "uint256[]"
        },
        {
          "internalType": "uint256",
          "name": "batchSize",
          "type": "uint256"
        },
        {
          "internalType": "string",
          "name": "batchDescription",
          "type": "string"
        },
        {
          "internalType": "uint256",
          "name": "productTemplateID",
          "type": "uint256"
        },
        {
          "internalType": "uint256",
          "name": "factory",
          "type": "uint256"
        },
        {
          "internalType": "uint256",
          "name": "distributor",
          "type": "uint256"
        },
        {
          "internalType": "string",
          "name": "factoryLocation",
          "type": "string"
        },
        {
          "internalType": "string",
          "name": "dateOfProduction",
          "type": "string"
        }
      ],
      "name": "batchProduced",
      "outputs": [],
      "stateMutability": "nonpayable",
      "type": "function"
    },
    {
      "inputs": [
        {
          "internalType": "uint256",
          "name": "batchID",
          "type": "uint256"
        },
        {
          "internalType": "uint256",
          "name": "_distributorID",
          "type": "uint256"
        }
      ],
      "name": "distributorScansBatch",
      "outputs": [],
      "stateMutability": "nonpayable",
      "type": "function"
    },
    {
      "inputs": [
        {
          "internalType": "uint256",
          "name": "batchID",
          "type": "uint256"
        },
        {
          "internalType": "uint256",
          "name": "retailerID",
          "type": "uint256"
        }
      ],
      "name": "distributorSellToRetailer",
      "outputs": [],
      "stateMutability": "nonpayable",
      "type": "function"
    },
    {
      "inputs": [
        {
          "internalType": "uint256",
          "name": "batchID",
          "type": "uint256"
        },
        {
          "internalType": "uint256",
          "name": "_factoryID",
          "type": "uint256"
        }
      ],
      "name": "factoryScansBatch",
      "outputs": [],
      "stateMutability": "nonpayable",
      "type": "function"
    },
    {
      "inputs": [],
      "name": "getAllBatchIDs",
      "outputs": [
        {
          "internalType": "uint256[]",
          "name": "",
          "type": "uint256[]"
        }
      ],
      "stateMutability": "view",
      "type": "function"
    },
    {
      "inputs": [],
      "name": "getAllBatchTemplateIDs",
      "outputs": [
        {
          "internalType": "uint256[]",
          "name": "",
          "type": "uint256[]"
        }
      ],
      "stateMutability": "view",
      "type": "function"
    },
    {
      "inputs": [],
      "name": "getAllProductIDs",
      "outputs": [
        {
          "internalType": "uint256[]",
          "name": "",
          "type": "uint256[]"
        }
      ],
      "stateMutability": "view",
      "type": "function"
    },
    {
      "inputs": [],
      "name": "getAllProductTemplateIDs",
      "outputs": [
        {
          "internalType": "uint256[]",
          "name": "",
          "type": "uint256[]"
        }
      ],
      "stateMutability": "view",
      "type": "function"
    },
    {
      "inputs": [
        {
          "internalType": "uint256",
          "name": "customerID",
          "type": "uint256"
        }
      ],
      "name": "getAllProductsBought",
      "outputs": [
        {
          "components": [
            {
              "internalType": "uint256",
              "name": "BatchID",
              "type": "uint256"
            },
            {
              "internalType": "uint256",
              "name": "ProductID",
              "type": "uint256"
            }
          ],
          "internalType": "struct Supplychain.Customer[]",
          "name": "",
          "type": "tuple[]"
        }
      ],
      "stateMutability": "view",
      "type": "function"
    },
    {
      "inputs": [
        {
          "internalType": "uint256",
          "name": "batchID",
          "type": "uint256"
        }
      ],
      "name": "getProductIdsForaBatch",
      "outputs": [
        {
          "internalType": "uint256[]",
          "name": "",
          "type": "uint256[]"
        }
      ],
      "stateMutability": "view",
      "type": "function"
    },
    {
      "inputs": [
        {
          "internalType": "uint256",
          "name": "batchID",
          "type": "uint256"
        },
        {
          "internalType": "uint256",
          "name": "_retailerID",
          "type": "uint256"
        }
      ],
      "name": "retailerScansBatch",
      "outputs": [],
      "stateMutability": "nonpayable",
      "type": "function"
    },
    {
      "inputs": [
        {
          "internalType": "uint256",
          "name": "batchID",
          "type": "uint256"
        },
        {
          "internalType": "uint256",
          "name": "productID",
          "type": "uint256"
        },
        {
          "internalType": "uint256",
          "name": "customerID",
          "type": "uint256"
        }
      ],
      "name": "retailerSellToCustomer",
      "outputs": [],
      "stateMutability": "nonpayable",
      "type": "function"
    }
  ],
  "bytecode": "0x608060405234801561001057600080fd5b50611ae3806100206000396000f3fe608060405234801561001057600080fd5b50600436106101585760003560e01c80638bd42880116100c3578063bf801df11161007c578063bf801df1146102ea578063c513ab8114610317578063cb441b1a1461032a578063ce9a91c814610352578063e369f39b14610365578063eac0e9771461038557600080fd5b80638bd42880146102835780638c4c42cd1461029657806390973cce1461029e578063a43304c0146102b1578063a78317f8146102c4578063a90fdb4a146102d757600080fd5b806371d1dc0c1161011557806371d1dc0c146101df578063720a02ef14610202578063793560dd146102155780637ae4ee041461021d5780637c0fac7f14610241578063865a75251461027057600080fd5b806312d938491461015d578063392a70a6146101725780633ab95f301461019b5780633b7d255c146101bc5780634c27729c146101c45780634ca20f34146101cc575b600080fd5b61017061016b36600461138d565b6103aa565b005b6101856101803660046113b9565b610429565b60405161019291906113d2565b60405180910390f35b6101ae6101a93660046113b9565b61048b565b604051908152602001610192565b6101856104ac565b610185610504565b6101ae6101da3660046113b9565b61055a565b6101f26101ed3660046113b9565b61056a565b604051610192949392919061145c565b610170610210366004611550565b6106a3565b610185610747565b61023061022b3660046113b9565b61079d565b6040516101929594939291906115c5565b61017061024f3660046115f8565b60009182526003602052604090912060078101919091556001600a90910155565b61017061027e3660046115f8565b610855565b6101ae6102913660046113b9565b610960565b610185610970565b6101ae6102ac3660046115f8565b6109c6565b6101706102bf36600461161a565b6109f7565b6101ae6102d23660046113b9565b610aad565b6101706102e53660046115f8565b610abd565b6102fd6102f83660046113b9565b610bcf565b6040516101929e9d9c9b9a9998979695949392919061167c565b61017061032536600461179f565b610ddc565b61033d6103383660046115f8565b611097565b60408051928352602083019190915201610192565b6101706103603660046115f8565b6110d3565b6103786103733660046113b9565b6111e8565b604051610192919061187d565b6103986103933660046113b9565b61126e565b604051610192969594939291906118cc565b60008381526003602052604081206002018054600192906103cc90849061191c565b90915550506000828152600260208181526040808420600481018690554260059182015594845293815283832084518086019095529584528381019485528554600181810188559684529220925191029091019081559051910155565b60008181526004602090815260409182902080548351818402810184019094528084526060939283018282801561047f57602002820191906000526020600020905b81548152602001906001019080831161046b575b50505050509050919050565b6006818154811061049b57600080fd5b600091825260209091200154905081565b606060068054806020026020016040519081016040528092919081815260200182805480156104fa57602002820191906000526020600020905b8154815260200190600101908083116104e6575b5050505050905090565b606060078054806020026020016040519081016040528092919081815260200182805480156104fa57602002820191906000526020600020908154815260200190600101908083116104e6575050505050905090565b6007818154811061049b57600080fd5b6000602081905290815260409020805460018201805491929161058c90611935565b80601f01602080910402602001604051908101604052809291908181526020018280546105b890611935565b80156106055780601f106105da57610100808354040283529160200191610605565b820191906000526020600020905b8154815290600101906020018083116105e857829003601f168201915b50505050509080600201805461061a90611935565b80601f016020809104026020016040519081016040528092919081815260200182805461064690611935565b80156106935780601f1061066857610100808354040283529160200191610693565b820191906000526020600020905b81548152906001019060200180831161067657829003601f168201915b5050505050908060030154905084565b6040805160808101825285815260208082018681528284018690526060830185905260008881529182905292902081518155915190919060018201906106e990826119be565b50604082015160028201906106fe90826119be565b50606091909101516003909101555050600680546001810182556000919091527ff652222313e28459528d920b65115c16c04f3efc82aaedc97be59f3f377c0d3f019190915550565b606060098054806020026020016040519081016040528092919081815260200182805480156104fa57602002820191906000526020600020908154815260200190600101908083116104e6575050505050905090565b60016020819052600091825260409091208054918101546002820180549192916107c690611935565b80601f01602080910402602001604051908101604052809291908181526020018280546107f290611935565b801561083f5780601f106108145761010080835404028352916020019161083f565b820191906000526020600020905b81548152906001019060200180831161082257829003601f168201915b5050505050908060030154908060040154905085565b6000828152600360205260409020600b015460ff16156108d15760405162461bcd60e51b815260206004820152602c60248201527f5468697320626174636820697320616c7265616479207363616e6e656420627960448201526b2074686520666163746f727960a01b60648201526084015b60405180910390fd5b60008281526003602052604090206005015481146109415760405162461bcd60e51b815260206004820152602760248201527f54686973206261746368206973206e6f74206f776e6564206279207468697320604482015266666163746f727960c81b60648201526084016108c8565b506000908152600360205260409020600b01805460ff19166001179055565b6009818154811061049b57600080fd5b606060088054806020026020016040519081016040528092919081815260200182805480156104fa57602002820191906000526020600020908154815260200190600101908083116104e6575050505050905090565b600460205281600052604060002081815481106109e257600080fd5b90600052602060002001600091509150505481565b6040518060a00160405280868152602001858152602001848152602001838152602001828152506001600087815260200190815260200160002060008201518160000155602082015181600101556040820151816002019081610a5a91906119be565b50606082015160038201556080909101516004909101555050600780546001810182556000919091527fa66cc928b5edb82af9bd49922954155ab7b0942694bea4ce44661d9a8736c68801929092555050565b6008818154811061049b57600080fd5b6000828152600360205260409020600b015462010000900460ff1615610b3b5760405162461bcd60e51b815260206004820152602d60248201527f5468697320626174636820697320616c7265616479207363616e6e656420627960448201526c103a3432903932ba30b4b632b960991b60648201526084016108c8565b6000828152600360205260409020600701548114610bac5760405162461bcd60e51b815260206004820152602860248201527f54686973206261746368206973206e6f74206f776e65642062792074686973206044820152673932ba30b4b632b960c11b60648201526084016108c8565b506000908152600360205260409020600b01805462ff0000191662010000179055565b6003602052806000526040600020600091509050806000015490806001015490806002015490806003018054610c0490611935565b80601f0160208091040260200160405190810160405280929190818152602001828054610c3090611935565b8015610c7d5780601f10610c5257610100808354040283529160200191610c7d565b820191906000526020600020905b815481529060010190602001808311610c6057829003601f168201915b505050505090806004015490806005015490806006015490806007015490806008018054610caa90611935565b80601f0160208091040260200160405190810160405280929190818152602001828054610cd690611935565b8015610d235780601f10610cf857610100808354040283529160200191610d23565b820191906000526020600020905b815481529060010190602001808311610d0657829003601f168201915b505050505090806009018054610d3890611935565b80601f0160208091040260200160405190810160405280929190818152602001828054610d6490611935565b8015610db15780601f10610d8657610100808354040283529160200191610db1565b820191906000526020600020905b815481529060010190602001808311610d9457829003601f168201915b50505050600a830154600b9093015491929160ff80821692506101008204811691620100009004168e565b604080516101c0810182528a815260208082018a81526000838501818152606085018c8152608086018c905260a086018b905260c086018a905260e08601839052610100860189905261012086018890526101408601839052610160860183905261018086018390526101a086018390528f8352600394859052959091208451815591516001830155516002820155925191929190820190610e7e90826119be565b506080820151600482015560a0820151600582015560c0820151600682015560e082015160078201556101008201516008820190610ebc90826119be565b506101208201516009820190610ed290826119be565b50610140820151600a820155610160820151600b90910180546101808401516101a0909401511515620100000262ff0000199415156101000261ff00199415159490941661ffff1990921691909117929092179290921617905560098054600181019091557f6e1540171b6c0c960b71a7020d9f60077f6af931a8bbf590da0223dacf75c7af0189905560008981526004602090815260409091208951610f7b928b019061132d565b5060005b8781101561108b576040518060c001604052808a8381518110610fa457610fa4611a7e565b602002602001015181526020018b8152602001878152602001838152602001600081526020016000815250600260008b8481518110610fe557610fe5611a7e565b60200260200101518152602001908152602001600020600082015181600001556020820151816001015560408201518160020155606082015181600301908161102e91906119be565b506080820151816004015560a08201518160050155905050600889828151811061105a5761105a611a7e565b602090810291909101810151825460018101845560009384529190922001558061108381611a94565b915050610f7f565b50505050505050505050565b600560205281600052604060002081815481106110b357600080fd5b600091825260209091206002909102018054600190910154909250905082565b6000828152600360205260409020600b0154610100900460ff16156111535760405162461bcd60e51b815260206004820152603060248201527f5468697320626174636820697320616c7265616479207363616e6e656420627960448201526f103a3432903234b9ba3934b13aba37b960811b60648201526084016108c8565b60008281526003602052604090206006015481146111c75760405162461bcd60e51b815260206004820152602b60248201527f54686973206261746368206973206e6f74206f776e656420627920746869732060448201526a3234b9ba3934b13aba37b960a91b60648201526084016108c8565b506000908152600360205260409020600b01805461ff001916610100179055565b606060056000838152602001908152602001600020805480602002602001604051908101604052809291908181526020016000905b828210156112635783829060005260206000209060020201604051806040016040529081600082015481526020016001820154815250508152602001906001019061121d565b505050509050919050565b60026020819052600091825260409091208054600182015492820154600383018054929493919261129e90611935565b80601f01602080910402602001604051908101604052809291908181526020018280546112ca90611935565b80156113175780601f106112ec57610100808354040283529160200191611317565b820191906000526020600020905b8154815290600101906020018083116112fa57829003601f168201915b5050505050908060040154908060050154905086565b828054828255906000526020600020908101928215611368579160200282015b8281111561136857825182559160200191906001019061134d565b50611374929150611378565b5090565b5b808211156113745760008155600101611379565b6000806000606084860312156113a257600080fd5b505081359360208301359350604090920135919050565b6000602082840312156113cb57600080fd5b5035919050565b6020808252825182820181905260009190848201906040850190845b8181101561140a578351835292840192918401916001016113ee565b50909695505050505050565b6000815180845260005b8181101561143c57602081850181015186830182015201611420565b506000602082860101526020601f19601f83011685010191505092915050565b8481526080602082015260006114756080830186611416565b82810360408401526114878186611416565b91505082606083015295945050505050565b634e487b7160e01b600052604160045260246000fd5b604051601f8201601f1916810167ffffffffffffffff811182821017156114d8576114d8611499565b604052919050565b600082601f8301126114f157600080fd5b813567ffffffffffffffff81111561150b5761150b611499565b61151e601f8201601f19166020016114af565b81815284602083860101111561153357600080fd5b816020850160208301376000918101602001919091529392505050565b6000806000806080858703121561156657600080fd5b84359350602085013567ffffffffffffffff8082111561158557600080fd5b611591888389016114e0565b945060408701359150808211156115a757600080fd5b506115b4878288016114e0565b949793965093946060013593505050565b85815284602082015260a0604082015260006115e460a0830186611416565b606083019490945250608001529392505050565b6000806040838503121561160b57600080fd5b50508035926020909101359150565b600080600080600060a0868803121561163257600080fd5b8535945060208601359350604086013567ffffffffffffffff81111561165757600080fd5b611663888289016114e0565b9598949750949560608101359550608001359392505050565b8e81528d60208201528c60408201526101c0606082015260006116a36101c083018e611416565b8c60808401528b60a08401528a60c08401528960e08401528281036101008401526116ce818a611416565b90508281036101208401526116e38189611416565b915050856101408301526116fc61016083018615159052565b9215156101808201529015156101a0909101529c9b505050505050505050505050565b600082601f83011261173057600080fd5b8135602067ffffffffffffffff82111561174c5761174c611499565b8160051b61175b8282016114af565b928352848101820192828101908785111561177557600080fd5b83870192505b848310156117945782358252918301919083019061177b565b979650505050505050565b60008060008060008060008060006101208a8c0312156117be57600080fd5b8935985060208a013567ffffffffffffffff808211156117dd57600080fd5b6117e98d838e0161171f565b995060408c0135985060608c013591508082111561180657600080fd5b6118128d838e016114e0565b975060808c0135965060a08c0135955060c08c0135945060e08c013591508082111561183d57600080fd5b6118498d838e016114e0565b93506101008c013591508082111561186057600080fd5b5061186d8c828d016114e0565b9150509295985092959850929598565b602080825282518282018190526000919060409081850190868401855b828110156118bf5781518051855286015186850152928401929085019060010161189a565b5091979650505050505050565b86815285602082015284604082015260c0606082015260006118f160c0830186611416565b60808301949094525060a00152949350505050565b634e487b7160e01b600052601160045260246000fd5b8082018082111561192f5761192f611906565b92915050565b600181811c9082168061194957607f821691505b60208210810361196957634e487b7160e01b600052602260045260246000fd5b50919050565b601f8211156119b957600081815260208120601f850160051c810160208610156119965750805b601f850160051c820191505b818110156119b5578281556001016119a2565b5050505b505050565b815167ffffffffffffffff8111156119d8576119d8611499565b6119ec816119e68454611935565b8461196f565b602080601f831160018114611a215760008415611a095750858301515b600019600386901b1c1916600185901b1785556119b5565b600085815260208120601f198616915b82811015611a5057888601518255948401946001909101908401611a31565b5085821015611a6e5787850151600019600388901b60f8161c191681555b5050505050600190811b01905550565b634e487b7160e01b600052603260045260246000fd5b600060018201611aa657611aa6611906565b506001019056fea26469706673582212200237406c5151d1b4e5f399f62d51cccc10ecb09d49d738108501bf83c2e2f75964736f6c63430008110033",
  "linkReferences": {},
  "deployedLinkReferences": {}
}