{
  "_format": "hh-sol-artifact-1",
  "contractName": "Supplychain",
  "sourceName": "contracts/Supplychain.sol",
  "abi": [
    {
      "inputs": [
        {
          "internalType": "uint256",
          "name": "",
          "type": "uint256"
        },
        {
          "internalType": "uint256",
          "name": "",
          "type": "uint256"
        }
      ],
      "name": "BatchIDToProductIDMapping",
      "outputs": [
        {
          "internalType": "uint256",
          "name": "",
          "type": "uint256"
        }
      ],
      "stateMutability": "view",
      "type": "function"
    },
    {
      "inputs": [
        {
          "internalType": "uint256",
          "name": "",
          "type": "uint256"
        }
      ],
      "name": "BatchIDs",
      "outputs": [
        {
          "internalType": "uint256",
          "name": "",
          "type": "uint256"
        }
      ],
      "stateMutability": "view",
      "type": "function"
    },
    {
      "inputs": [
        {
          "internalType": "uint256",
          "name": "",
          "type": "uint256"
        }
      ],
      "name": "BatchMapping",
      "outputs": [
        {
          "internalType": "uint256",
          "name": "BatchID",
          "type": "uint256"
        },
        {
          "internalType": "uint256",
          "name": "BatchSize",
          "type": "uint256"
        },
        {
          "internalType": "uint256",
          "name": "AmountSoldTOCustomer",
          "type": "uint256"
        },
        {
          "internalType": "string",
          "name": "BatchDescription",
          "type": "string"
        },
        {
          "internalType": "uint256",
          "name": "ProductTemplateID",
          "type": "uint256"
        },
        {
          "internalType": "string",
          "name": "FactoryID",
          "type": "string"
        },
        {
          "internalType": "string",
          "name": "DistributorID",
          "type": "string"
        },
        {
          "internalType": "string",
          "name": "FactoryLocation",
          "type": "string"
        },
        {
          "internalType": "string",
          "name": "DateOfProduction",
          "type": "string"
        },
        {
          "internalType": "uint256",
          "name": "State",
          "type": "uint256"
        },
        {
          "internalType": "bool",
          "name": "DistributorScanned",
          "type": "bool"
        },
        {
          "internalType": "string",
          "name": "DistributorScannedTimeStamp",
          "type": "string"
        },
        {
          "internalType": "uint256",
          "name": "AmountLeftForSellingTORetailer",
          "type": "uint256"
        }
      ],
      "stateMutability": "view",
      "type": "function"
    },
    {
      "inputs": [
        {
          "internalType": "uint256",
          "name": "",
          "type": "uint256"
        }
      ],
      "name": "BatchTemplateIDs",
      "outputs": [
        {
          "internalType": "uint256",
          "name": "",
          "type": "uint256"
        }
      ],
      "stateMutability": "view",
      "type": "function"
    },
    {
      "inputs": [
        {
          "internalType": "uint256",
          "name": "",
          "type": "uint256"
        }
      ],
      "name": "BatchTemplateMAP",
      "outputs": [
        {
          "internalType": "uint256",
          "name": "BatchTemplateID",
          "type": "uint256"
        },
        {
          "internalType": "uint256",
          "name": "ProductTemplateID",
          "type": "uint256"
        },
        {
          "internalType": "string",
          "name": "Description",
          "type": "string"
        },
        {
          "internalType": "uint256",
          "name": "BatchSize",
          "type": "uint256"
        },
        {
          "internalType": "string",
          "name": "FactoryID",
          "type": "string"
        }
      ],
      "stateMutability": "view",
      "type": "function"
    },
    {
      "inputs": [
        {
          "internalType": "string",
          "name": "",
          "type": "string"
        },
        {
          "internalType": "uint256",
          "name": "",
          "type": "uint256"
        }
      ],
      "name": "CustomerData",
      "outputs": [
        {
          "internalType": "uint256",
          "name": "BatchID",
          "type": "uint256"
        },
        {
          "internalType": "uint256",
          "name": "ProductID",
          "type": "uint256"
        }
      ],
      "stateMutability": "view",
      "type": "function"
    },
    {
      "inputs": [
        {
          "internalType": "string",
          "name": "",
          "type": "string"
        },
        {
          "internalType": "uint256",
          "name": "",
          "type": "uint256"
        }
      ],
      "name": "DistributorIDToRetailerStruct",
      "outputs": [
        {
          "internalType": "string",
          "name": "DistributorID",
          "type": "string"
        },
        {
          "internalType": "string",
          "name": "RetailerID",
          "type": "string"
        },
        {
          "internalType": "uint256",
          "name": "BatchID",
          "type": "uint256"
        },
        {
          "internalType": "uint256",
          "name": "Quantity",
          "type": "uint256"
        },
        {
          "internalType": "string",
          "name": "TimeStamp",
          "type": "string"
        }
      ],
      "stateMutability": "view",
      "type": "function"
    },
    {
      "inputs": [
        {
          "internalType": "uint256",
          "name": "",
          "type": "uint256"
        }
      ],
      "name": "ProductIDs",
      "outputs": [
        {
          "internalType": "uint256",
          "name": "",
          "type": "uint256"
        }
      ],
      "stateMutability": "view",
      "type": "function"
    },
    {
      "inputs": [
        {
          "internalType": "uint256",
          "name": "",
          "type": "uint256"
        }
      ],
      "name": "ProductMapping",
      "outputs": [
        {
          "internalType": "uint256",
          "name": "ProductID",
          "type": "uint256"
        },
        {
          "internalType": "uint256",
          "name": "BatchID",
          "type": "uint256"
        },
        {
          "internalType": "uint256",
          "name": "ProductTemplateID",
          "type": "uint256"
        },
        {
          "internalType": "string",
          "name": "DOM",
          "type": "string"
        },
        {
          "internalType": "string",
          "name": "CustomerID",
          "type": "string"
        },
        {
          "internalType": "string",
          "name": "RetailerID",
          "type": "string"
        },
        {
          "internalType": "bool",
          "name": "RetailerScanned",
          "type": "bool"
        },
        {
          "internalType": "string",
          "name": "RetailerScannedTimeStamp",
          "type": "string"
        },
        {
          "internalType": "string",
          "name": "DateWhenSoldToRetailer",
          "type": "string"
        },
        {
          "internalType": "string",
          "name": "DateWhenSoldToCustomer",
          "type": "string"
        }
      ],
      "stateMutability": "view",
      "type": "function"
    },
    {
      "inputs": [
        {
          "internalType": "uint256",
          "name": "",
          "type": "uint256"
        }
      ],
      "name": "ProductTemplateIDs",
      "outputs": [
        {
          "internalType": "uint256",
          "name": "",
          "type": "uint256"
        }
      ],
      "stateMutability": "view",
      "type": "function"
    },
    {
      "inputs": [
        {
          "internalType": "uint256",
          "name": "",
          "type": "uint256"
        }
      ],
      "name": "ProductTemplateMAP",
      "outputs": [
        {
          "internalType": "uint256",
          "name": "ProductTemplateID",
          "type": "uint256"
        },
        {
          "internalType": "string",
          "name": "Name",
          "type": "string"
        },
        {
          "internalType": "string",
          "name": "Description",
          "type": "string"
        },
        {
          "internalType": "string",
          "name": "FactoryID",
          "type": "string"
        }
      ],
      "stateMutability": "view",
      "type": "function"
    },
    {
      "inputs": [
        {
          "internalType": "string",
          "name": "",
          "type": "string"
        },
        {
          "internalType": "uint256",
          "name": "",
          "type": "uint256"
        }
      ],
      "name": "RetailerIDToRetailerStruct",
      "outputs": [
        {
          "internalType": "string",
          "name": "DistributorID",
          "type": "string"
        },
        {
          "internalType": "string",
          "name": "RetailerID",
          "type": "string"
        },
        {
          "internalType": "uint256",
          "name": "BatchID",
          "type": "uint256"
        },
        {
          "internalType": "uint256",
          "name": "Quantity",
          "type": "uint256"
        },
        {
          "internalType": "string",
          "name": "TimeStamp",
          "type": "string"
        }
      ],
      "stateMutability": "view",
      "type": "function"
    },
    {
      "inputs": [
        {
          "internalType": "uint256",
          "name": "_batchTemplateID",
          "type": "uint256"
        },
        {
          "internalType": "uint256",
          "name": "_productTemplateID",
          "type": "uint256"
        },
        {
          "internalType": "string",
          "name": "_description",
          "type": "string"
        },
        {
          "internalType": "uint256",
          "name": "_batchSize",
          "type": "uint256"
        },
        {
          "internalType": "string",
          "name": "_factoryID",
          "type": "string"
        }
      ],
      "name": "addBatchTemplate",
      "outputs": [],
      "stateMutability": "nonpayable",
      "type": "function"
    },
    {
      "inputs": [
        {
          "internalType": "uint256",
          "name": "_productTemplateID",
          "type": "uint256"
        },
        {
          "internalType": "string",
          "name": "_name",
          "type": "string"
        },
        {
          "internalType": "string",
          "name": "_description",
          "type": "string"
        },
        {
          "internalType": "string",
          "name": "_factoryID",
          "type": "string"
        }
      ],
      "name": "addProductTemplate",
      "outputs": [],
      "stateMutability": "nonpayable",
      "type": "function"
    },
    {
      "inputs": [
        {
          "internalType": "uint256",
          "name": "batchID",
          "type": "uint256"
        },
        {
          "internalType": "uint256[]",
          "name": "productIDs",
          "type": "uint256[]"
        },
        {
          "internalType": "uint256",
          "name": "batchSize",
          "type": "uint256"
        },
        {
          "internalType": "string",
          "name": "batchDescription",
          "type": "string"
        },
        {
          "internalType": "uint256",
          "name": "productTemplateID",
          "type": "uint256"
        },
        {
          "internalType": "string",
          "name": "factory",
          "type": "string"
        },
        {
          "internalType": "string",
          "name": "distributor",
          "type": "string"
        },
        {
          "internalType": "string",
          "name": "factoryLocation",
          "type": "string"
        },
        {
          "internalType": "string",
          "name": "dateOfProduction",
          "type": "string"
        }
      ],
      "name": "batchProduced",
      "outputs": [],
      "stateMutability": "nonpayable",
      "type": "function"
    },
    {
      "inputs": [
        {
          "internalType": "uint256",
          "name": "batchID",
          "type": "uint256"
        },
        {
          "internalType": "string",
          "name": "_distributorID",
          "type": "string"
        },
        {
          "internalType": "string",
          "name": "timeStamp",
          "type": "string"
        }
      ],
      "name": "distributorScansBatch",
      "outputs": [],
      "stateMutability": "nonpayable",
      "type": "function"
    },
    {
      "inputs": [
        {
          "internalType": "uint256",
          "name": "batchID",
          "type": "uint256"
        },
        {
          "internalType": "uint256",
          "name": "quantity",
          "type": "uint256"
        },
        {
          "internalType": "string",
          "name": "retailerID",
          "type": "string"
        },
        {
          "internalType": "string",
          "name": "timeStamp",
          "type": "string"
        }
      ],
      "name": "distributorSellToRetailer",
      "outputs": [],
      "stateMutability": "nonpayable",
      "type": "function"
    },
    {
      "inputs": [],
      "name": "getAllBatchIDs",
      "outputs": [
        {
          "internalType": "uint256[]",
          "name": "",
          "type": "uint256[]"
        }
      ],
      "stateMutability": "view",
      "type": "function"
    },
    {
      "inputs": [],
      "name": "getAllBatchTemplateIDs",
      "outputs": [
        {
          "internalType": "uint256[]",
          "name": "",
          "type": "uint256[]"
        }
      ],
      "stateMutability": "view",
      "type": "function"
    },
    {
      "inputs": [],
      "name": "getAllProductIDs",
      "outputs": [
        {
          "internalType": "uint256[]",
          "name": "",
          "type": "uint256[]"
        }
      ],
      "stateMutability": "view",
      "type": "function"
    },
    {
      "inputs": [],
      "name": "getAllProductTemplateIDs",
      "outputs": [
        {
          "internalType": "uint256[]",
          "name": "",
          "type": "uint256[]"
        }
      ],
      "stateMutability": "view",
      "type": "function"
    },
    {
      "inputs": [
        {
          "internalType": "string",
          "name": "customerID",
          "type": "string"
        }
      ],
      "name": "getAllProductsBought",
      "outputs": [
        {
          "components": [
            {
              "internalType": "uint256",
              "name": "BatchID",
              "type": "uint256"
            },
            {
              "internalType": "uint256",
              "name": "ProductID",
              "type": "uint256"
            }
          ],
          "internalType": "struct Supplychain.Customer[]",
          "name": "",
          "type": "tuple[]"
        }
      ],
      "stateMutability": "view",
      "type": "function"
    },
    {
      "inputs": [
        {
          "internalType": "string",
          "name": "distributorID",
          "type": "string"
        }
      ],
      "name": "getDistributorIDToRetailerStruct",
      "outputs": [
        {
          "components": [
            {
              "internalType": "string",
              "name": "DistributorID",
              "type": "string"
            },
            {
              "internalType": "string",
              "name": "RetailerID",
              "type": "string"
            },
            {
              "internalType": "uint256",
              "name": "BatchID",
              "type": "uint256"
            },
            {
              "internalType": "uint256",
              "name": "Quantity",
              "type": "uint256"
            },
            {
              "internalType": "string",
              "name": "TimeStamp",
              "type": "string"
            }
          ],
          "internalType": "struct Supplychain.Retailer[]",
          "name": "",
          "type": "tuple[]"
        }
      ],
      "stateMutability": "view",
      "type": "function"
    },
    {
      "inputs": [
        {
          "internalType": "uint256",
          "name": "batchID",
          "type": "uint256"
        }
      ],
      "name": "getProductIdsForaBatch",
      "outputs": [
        {
          "internalType": "uint256[]",
          "name": "",
          "type": "uint256[]"
        }
      ],
      "stateMutability": "view",
      "type": "function"
    },
    {
      "inputs": [
        {
          "internalType": "string",
          "name": "retailerID",
          "type": "string"
        }
      ],
      "name": "getRetailerIDToRetailerStruct",
      "outputs": [
        {
          "components": [
            {
              "internalType": "string",
              "name": "DistributorID",
              "type": "string"
            },
            {
              "internalType": "string",
              "name": "RetailerID",
              "type": "string"
            },
            {
              "internalType": "uint256",
              "name": "BatchID",
              "type": "uint256"
            },
            {
              "internalType": "uint256",
              "name": "Quantity",
              "type": "uint256"
            },
            {
              "internalType": "string",
              "name": "TimeStamp",
              "type": "string"
            }
          ],
          "internalType": "struct Supplychain.Retailer[]",
          "name": "",
          "type": "tuple[]"
        }
      ],
      "stateMutability": "view",
      "type": "function"
    },
    {
      "inputs": [
        {
          "internalType": "uint256",
          "name": "_productID",
          "type": "uint256"
        },
        {
          "internalType": "string",
          "name": "_retailerID",
          "type": "string"
        },
        {
          "internalType": "string",
          "name": "timeStamp",
          "type": "string"
        }
      ],
      "name": "retailerScansProduct",
      "outputs": [],
      "stateMutability": "nonpayable",
      "type": "function"
    },
    {
      "inputs": [
        {
          "internalType": "uint256",
          "name": "batchID",
          "type": "uint256"
        },
        {
          "internalType": "uint256",
          "name": "productID",
          "type": "uint256"
        },
        {
          "internalType": "string",
          "name": "customerID",
          "type": "string"
        },
        {
          "internalType": "string",
          "name": "timeStamp",
          "type": "string"
        }
      ],
      "name": "retailerSellToCustomer",
      "outputs": [],
      "stateMutability": "nonpayable",
      "type": "function"
    }
  ],
  "bytecode": "0x608060405234801561001057600080fd5b5061379a806100206000396000f3fe608060405234801561001057600080fd5b50600436106101a95760003560e01c80638bd42880116100f9578063bf801df111610097578063e3c6a4ac11610071578063e3c6a4ac146103d3578063eac0e977146103e6578063ecc4217c1461040f578063ee55fae21461042257600080fd5b8063bf801df114610370578063c492384f1461039c578063e139f994146103af57600080fd5b806390973cce116100d357806390973cce14610324578063a78317f814610337578063a7a4523d1461034a578063b84a6f221461035d57600080fd5b80638bd42880146102f65780638c4c42cd146103095780638e5452b81461031157600080fd5b80634c27729c11610166578063793560dd11610140578063793560dd146102975780637ae4ee041461029f5780637f7bf690146102c35780638272d34b146102e357600080fd5b80634c27729c146102595780634ca20f341461026157806371d1dc0c1461027457600080fd5b806321f29391146101ae578063278338e8146101db578063284328d0146101f0578063392a70a6146102105780633ab95f30146102305780633b7d255c14610251575b600080fd5b6101c16101bc366004612d41565b610435565b604080519283526020830191909152015b60405180910390f35b6101ee6101e9366004612d86565b610480565b005b6102036101fe366004612e18565b6105a5565b6040516101d29190612e55565b61022361021e366004612ea4565b610636565b6040516101d29190612ebd565b61024361023e366004612ea4565b610698565b6040519081526020016101d2565b6102236106b9565b610223610711565b61024361026f366004612ea4565b610767565b610287610282366004612ea4565b610777565b6040516101d29493929190612f51565b610223610938565b6102b26102ad366004612ea4565b61098e565b6040516101d2959493929190612f9b565b6102d66102d1366004612e18565b610ace565b6040516101d29190612fde565b6101ee6102f1366004613095565b610d0a565b610243610304366004612ea4565b610e72565b610223610e82565b6101ee61031f366004613102565b610ed8565b610243610332366004613183565b611080565b610243610345366004612ea4565b6110b1565b6102d6610358366004612e18565b6110c1565b6101ee61036b3660046131a5565b6112fd565b61038361037e366004612ea4565b6113b9565b6040516101d29d9c9b9a999897969594939291906131e1565b6101ee6103aa36600461331a565b611757565b6103c26103bd366004612d41565b611c36565b6040516101d295949392919061342e565b6103c26103e1366004612d41565b611dad565b6103f96103f4366004612ea4565b611dd8565b6040516101d29a99989796959493929190613473565b6101ee61041d366004613095565b612160565b6101ee6104303660046131a5565b6122be565b8151602081840181018051600582529282019185019190912091905280548290811061046057600080fd5b600091825260209091206002909102018054600190910154909250905082565b61048984612aed565b156104f75760405162461bcd60e51b815260206004820152603360248201527f546869732050726f6475637454656d706c617465494420616c72656164792065604482015272786973747320696e207468652073797374656d60681b60648201526084015b60405180910390fd5b60408051608081018252858152602080820186815282840186905260608301859052600088815291829052929020815181559151909190600182019061053d90826135a1565b506040820151600282019061055290826135a1565b506060820151600382019061056790826135a1565b5050600880546001810182556000919091527ff3f7a9fe364faab93b216da50a3214154f22a0a2b415b23a84c8169e8b636ee3019490945550505050565b60606005826040516105b79190613661565b9081526020016040518091039020805480602002602001604051908101604052809291908181526020016000905b8282101561062b578382906000526020600020906002020160405180604001604052908160008201548152602001600182015481525050815260200190600101906105e5565b505050509050919050565b60008181526004602090815260409182902080548351818402810184019094528084526060939283018282801561068c57602002820191906000526020600020905b815481526020019060010190808311610678575b50505050509050919050565b600881815481106106a857600080fd5b600091825260209091200154905081565b6060600880548060200260200160405190810160405280929190818152602001828054801561070757602002820191906000526020600020905b8154815260200190600101908083116106f3575b5050505050905090565b6060600980548060200260200160405190810160405280929190818152602001828054801561070757602002820191906000526020600020908154815260200190600101908083116106f3575050505050905090565b600981815481106106a857600080fd5b6000602081905290815260409020805460018201805491929161079990613518565b80601f01602080910402602001604051908101604052809291908181526020018280546107c590613518565b80156108125780601f106107e757610100808354040283529160200191610812565b820191906000526020600020905b8154815290600101906020018083116107f557829003601f168201915b50505050509080600201805461082790613518565b80601f016020809104026020016040519081016040528092919081815260200182805461085390613518565b80156108a05780601f10610875576101008083540402835291602001916108a0565b820191906000526020600020905b81548152906001019060200180831161088357829003601f168201915b5050505050908060030180546108b590613518565b80601f01602080910402602001604051908101604052809291908181526020018280546108e190613518565b801561092e5780601f106109035761010080835404028352916020019161092e565b820191906000526020600020905b81548152906001019060200180831161091157829003601f168201915b5050505050905084565b6060600b80548060200260200160405190810160405280929190818152602001828054801561070757602002820191906000526020600020908154815260200190600101908083116106f3575050505050905090565b60016020819052600091825260409091208054918101546002820180549192916109b790613518565b80601f01602080910402602001604051908101604052809291908181526020018280546109e390613518565b8015610a305780601f10610a0557610100808354040283529160200191610a30565b820191906000526020600020905b815481529060010190602001808311610a1357829003601f168201915b505050505090806003015490806004018054610a4b90613518565b80601f0160208091040260200160405190810160405280929190818152602001828054610a7790613518565b8015610ac45780601f10610a9957610100808354040283529160200191610ac4565b820191906000526020600020905b815481529060010190602001808311610aa757829003601f168201915b5050505050905085565b6060600682604051610ae09190613661565b9081526020016040518091039020805480602002602001604051908101604052809291908181526020016000905b8282101561062b57838290600052602060002090600502016040518060a0016040529081600082018054610b4190613518565b80601f0160208091040260200160405190810160405280929190818152602001828054610b6d90613518565b8015610bba5780601f10610b8f57610100808354040283529160200191610bba565b820191906000526020600020905b815481529060010190602001808311610b9d57829003601f168201915b50505050508152602001600182018054610bd390613518565b80601f0160208091040260200160405190810160405280929190818152602001828054610bff90613518565b8015610c4c5780601f10610c2157610100808354040283529160200191610c4c565b820191906000526020600020905b815481529060010190602001808311610c2f57829003601f168201915b505050505081526020016002820154815260200160038201548152602001600482018054610c7990613518565b80601f0160208091040260200160405190810160405280929190818152602001828054610ca590613518565b8015610cf25780601f10610cc757610100808354040283529160200191610cf2565b820191906000526020600020905b815481529060010190602001808311610cd557829003601f168201915b50505050508152505081526020019060010190610b0e565b6000838152600360205260409020600a015460ff1615610d855760405162461bcd60e51b815260206004820152603060248201527f5468697320626174636820697320616c7265616479207363616e6e656420627960448201526f103a3432903234b9ba3934b13aba37b960811b60648201526084016104ee565b81604051602001610d969190613661565b60408051601f198184030181528282528051602091820120600087815260038352929092209192610dcb92600601910161367d565b6040516020818303038152906040528051906020012014610e425760405162461bcd60e51b815260206004820152602b60248201527f54686973206261746368206973206e6f74206f776e656420627920746869732060448201526a3234b9ba3934b13aba37b960a91b60648201526084016104ee565b6000838152600360205260409020600a8101805460ff19166001179055600b01610e6c82826135a1565b50505050565b600b81815481106106a857600080fd5b6060600a80548060200260200160405190810160405280929190818152602001828054801561070757602002820191906000526020600020908154815260200190600101908083116106f3575050505050905090565b610ee185612b43565b15610f485760405162461bcd60e51b815260206004820152603160248201527f5468697320426174636854656d706c617465494420616c72656164792065786960448201527073747320696e207468652073797374656d60781b60648201526084016104ee565b610f5184612aed565b1515600114610fbf5760405162461bcd60e51b815260206004820152603460248201527f546869732050726f6475637454656d706c617465494420646f6573206e6f742060448201527365786973747320696e207468652073797374656d60601b60648201526084016104ee565b6040518060a0016040528086815260200185815260200184815260200183815260200182815250600160008781526020019081526020016000206000820151816000015560208201518160010155604082015181600201908161102291906135a1565b50606082015160038201556080820151600482019061104190826135a1565b5050600980546001810182556000919091527f6e1540171b6c0c960b71a7020d9f60077f6af931a8bbf590da0223dacf75c7af01959095555050505050565b6004602052816000526040600020818154811061109c57600080fd5b90600052602060002001600091509150505481565b600a81815481106106a857600080fd5b60606007826040516110d39190613661565b9081526020016040518091039020805480602002602001604051908101604052809291908181526020016000905b8282101561062b57838290600052602060002090600502016040518060a001604052908160008201805461113490613518565b80601f016020809104026020016040519081016040528092919081815260200182805461116090613518565b80156111ad5780601f10611182576101008083540402835291602001916111ad565b820191906000526020600020905b81548152906001019060200180831161119057829003601f168201915b505050505081526020016001820180546111c690613518565b80601f01602080910402602001604051908101604052809291908181526020018280546111f290613518565b801561123f5780601f106112145761010080835404028352916020019161123f565b820191906000526020600020905b81548152906001019060200180831161122257829003601f168201915b50505050508152602001600282015481526020016003820154815260200160048201805461126c90613518565b80601f016020809104026020016040519081016040528092919081815260200182805461129890613518565b80156112e55780601f106112ba576101008083540402835291602001916112e5565b820191906000526020600020905b8154815290600101906020018083116112c857829003601f168201915b50505050508152505081526020019060010190611101565b600084815260036020526040812060020180546001929061131f908490613709565b9091555050600083815260026020526040902060040161133f83826135a1565b50600083815260026020526040902060090161135b82826135a1565b5060058260405161136c9190613661565b908152604080516020928190038301812081830190925295865281860194855280546001808201835560009283529290912095516002909102909501948555925193909201929092555050565b60036020528060005260406000206000915090508060000154908060010154908060020154908060030180546113ee90613518565b80601f016020809104026020016040519081016040528092919081815260200182805461141a90613518565b80156114675780601f1061143c57610100808354040283529160200191611467565b820191906000526020600020905b81548152906001019060200180831161144a57829003601f168201915b50505050509080600401549080600501805461148290613518565b80601f01602080910402602001604051908101604052809291908181526020018280546114ae90613518565b80156114fb5780601f106114d0576101008083540402835291602001916114fb565b820191906000526020600020905b8154815290600101906020018083116114de57829003601f168201915b50505050509080600601805461151090613518565b80601f016020809104026020016040519081016040528092919081815260200182805461153c90613518565b80156115895780601f1061155e57610100808354040283529160200191611589565b820191906000526020600020905b81548152906001019060200180831161156c57829003601f168201915b50505050509080600701805461159e90613518565b80601f01602080910402602001604051908101604052809291908181526020018280546115ca90613518565b80156116175780601f106115ec57610100808354040283529160200191611617565b820191906000526020600020905b8154815290600101906020018083116115fa57829003601f168201915b50505050509080600801805461162c90613518565b80601f016020809104026020016040519081016040528092919081815260200182805461165890613518565b80156116a55780601f1061167a576101008083540402835291602001916116a5565b820191906000526020600020905b81548152906001019060200180831161168857829003601f168201915b505050506009830154600a840154600b850180549495929460ff9092169350906116ce90613518565b80601f01602080910402602001604051908101604052809291908181526020018280546116fa90613518565b80156117475780601f1061171c57610100808354040283529160200191611747565b820191906000526020600020905b81548152906001019060200180831161172a57829003601f168201915b50505050509080600c015490508d565b61176089612b90565b156117b95760405162461bcd60e51b8152602060048201526024808201527f4261746368494420616c72656164792065786973747320696e207468652073796044820152637374656d60e01b60648201526084016104ee565b8688511461182f5760405162461bcd60e51b815260206004820152603760248201527f53697a65206f662070726f6475637449447320617272617920646f6573206e6f60448201527f74206d6174636820776974682042617463682073697a6500000000000000000060648201526084016104ee565b604080516101a0810182528a815260208082018a81526000838501818152606085018c8152608086018c905260a086018b905260c086018a905260e086018990526101008601889052610120860183905261014086018390528651808601885283815261016087015261018086018e90528f83526003948590529590912084518155915160018301555160028201559251919291908201906118d190826135a1565b506080820151600482015560a082015160058201906118f090826135a1565b5060c0820151600682019061190590826135a1565b5060e0820151600782019061191a90826135a1565b50610100820151600882019061193090826135a1565b506101208201516009820155610140820151600a8201805460ff1916911515919091179055610160820151600b82019061196a90826135a1565b506101809190910151600c90910155600b8054600181019091557f0175b7a638427703f0dbe7bb9bbf987a2551717b34e79f33b5b1008d1fa01db901899055600089815260046020908152604090912089516119c8928b0190612c2a565b5060005b87811015611c2a576119f68982815181106119e9576119e9613722565b6020026020010151612bdd565b15611a525760405162461bcd60e51b815260206004820152602660248201527f50726f64756374494420616c72656164792065786973747320696e207468652060448201526573797374656d60d01b60648201526084016104ee565b6040518061014001604052808a8381518110611a7057611a70613722565b602002602001015181526020018b815260200187815260200183815260200160405180602001604052806000815250815260200160405180602001604052806000815250815260200160001515815260200160405180602001604052806000815250815260200160405180602001604052806000815250815260200160405180602001604052806000815250815250600260008b8481518110611b1557611b15613722565b602002602001015181526020019081526020016000206000820151816000015560208201518160010155604082015181600201556060820151816003019081611b5e91906135a1565b5060808201516004820190611b7390826135a1565b5060a08201516005820190611b8890826135a1565b5060c082015160068201805460ff191691151591909117905560e08201516007820190611bb590826135a1565b506101008201516008820190611bcb90826135a1565b506101208201516009820190611be190826135a1565b50905050600a898281518110611bf957611bf9613722565b6020908102919091018101518254600181018455600093845291909220015580611c2281613738565b9150506119cc565b50505050505050505050565b81516020818401810180516006825292820191850191909120919052805482908110611c6157600080fd5b906000526020600020906005020160009150915050806000018054611c8590613518565b80601f0160208091040260200160405190810160405280929190818152602001828054611cb190613518565b8015611cfe5780601f10611cd357610100808354040283529160200191611cfe565b820191906000526020600020905b815481529060010190602001808311611ce157829003601f168201915b505050505090806001018054611d1390613518565b80601f0160208091040260200160405190810160405280929190818152602001828054611d3f90613518565b8015611d8c5780601f10611d6157610100808354040283529160200191611d8c565b820191906000526020600020905b815481529060010190602001808311611d6f57829003601f168201915b505050505090806002015490806003015490806004018054610a4b90613518565b81516020818401810180516007825292820191850191909120919052805482908110611c6157600080fd5b600260208190526000918252604090912080546001820154928201546003830180549294939192611e0890613518565b80601f0160208091040260200160405190810160405280929190818152602001828054611e3490613518565b8015611e815780601f10611e5657610100808354040283529160200191611e81565b820191906000526020600020905b815481529060010190602001808311611e6457829003601f168201915b505050505090806004018054611e9690613518565b80601f0160208091040260200160405190810160405280929190818152602001828054611ec290613518565b8015611f0f5780601f10611ee457610100808354040283529160200191611f0f565b820191906000526020600020905b815481529060010190602001808311611ef257829003601f168201915b505050505090806005018054611f2490613518565b80601f0160208091040260200160405190810160405280929190818152602001828054611f5090613518565b8015611f9d5780601f10611f7257610100808354040283529160200191611f9d565b820191906000526020600020905b815481529060010190602001808311611f8057829003601f168201915b5050506006840154600785018054949560ff909216949193509150611fc190613518565b80601f0160208091040260200160405190810160405280929190818152602001828054611fed90613518565b801561203a5780601f1061200f5761010080835404028352916020019161203a565b820191906000526020600020905b81548152906001019060200180831161201d57829003601f168201915b50505050509080600801805461204f90613518565b80601f016020809104026020016040519081016040528092919081815260200182805461207b90613518565b80156120c85780601f1061209d576101008083540402835291602001916120c8565b820191906000526020600020905b8154815290600101906020018083116120ab57829003601f168201915b5050505050908060090180546120dd90613518565b80601f016020809104026020016040519081016040528092919081815260200182805461210990613518565b80156121565780601f1061212b57610100808354040283529160200191612156565b820191906000526020600020905b81548152906001019060200180831161213957829003601f168201915b505050505090508a565b60008381526002602052604090206006015460ff16156121d85760405162461bcd60e51b815260206004820152602d60248201527f5468697320626174636820697320616c7265616479207363616e6e656420627960448201526c103a3432903932ba30b4b632b960991b60648201526084016104ee565b816040516020016121e99190613661565b60408051601f19818403018152828252805160209182012060008781526002835292909220919261221e92600501910161367d565b60405160208183030381529060405280519060200120146122945760405162461bcd60e51b815260206004820152602a60248201527f546869732070726f64756374206973206e6f74206f776e65642062792074686960448201526939903932ba30b4b632b960b11b60648201526084016104ee565b600083815260026020526040902060068101805460ff19166001179055600701610e6c82826135a1565b6000848152600360205260408120600c8101546001820154600690920180549193916122e990613518565b80601f016020809104026020016040519081016040528092919081815260200182805461231590613518565b80156123625780601f1061233757610100808354040283529160200191612362565b820191906000526020600020905b81548152906001019060200180831161234557829003601f168201915b50505050509050858310156123e95760405162461bcd60e51b815260206004820152604160248201527f5175616e746974792069732067726561746572207468616e2074686520616d6f60448201527f756e74206c65667420746f20626520736f6c6420696e207468697320626174636064820152600d60fb1b608482015260a4016104ee565b600086116124395760405162461bcd60e51b815260206004820152601760248201527f5175616e746974792063616e6e6f74206265207a65726f00000000000000000060448201526064016104ee565b60006124458484613751565b60008981526004602090815260408083208054825181850281018501909352808352949550929390929183018282801561249e57602002820191906000526020600020905b81548152602001906001019080831161248a575b509394508593505050505b6124b38984613709565b8110156129825760008282815181106124ce576124ce613722565b602002602001015190506000600260008381526020019081526020016000206040518061014001604052908160008201548152602001600182015481526020016002820154815260200160038201805461252790613518565b80601f016020809104026020016040519081016040528092919081815260200182805461255390613518565b80156125a05780601f10612575576101008083540402835291602001916125a0565b820191906000526020600020905b81548152906001019060200180831161258357829003601f168201915b505050505081526020016004820180546125b990613518565b80601f01602080910402602001604051908101604052809291908181526020018280546125e590613518565b80156126325780601f1061260757610100808354040283529160200191612632565b820191906000526020600020905b81548152906001019060200180831161261557829003601f168201915b5050505050815260200160058201805461264b90613518565b80601f016020809104026020016040519081016040528092919081815260200182805461267790613518565b80156126c45780601f10612699576101008083540402835291602001916126c4565b820191906000526020600020905b8154815290600101906020018083116126a757829003601f168201915b5050509183525050600682015460ff16151560208201526007820180546040909201916126f090613518565b80601f016020809104026020016040519081016040528092919081815260200182805461271c90613518565b80156127695780601f1061273e57610100808354040283529160200191612769565b820191906000526020600020905b81548152906001019060200180831161274c57829003601f168201915b5050505050815260200160088201805461278290613518565b80601f01602080910402602001604051908101604052809291908181526020018280546127ae90613518565b80156127fb5780601f106127d0576101008083540402835291602001916127fb565b820191906000526020600020905b8154815290600101906020018083116127de57829003601f168201915b5050505050815260200160098201805461281490613518565b80601f016020809104026020016040519081016040528092919081815260200182805461284090613518565b801561288d5780601f106128625761010080835404028352916020019161288d565b820191906000526020600020905b81548152906001019060200180831161287057829003601f168201915b5050509190925250505060a081018b905261010081018a90526000838152600260208181526040928390208451815590840151600182015591830151908201556060820151919250829160038201906128e690826135a1565b50608082015160048201906128fb90826135a1565b5060a0820151600582019061291090826135a1565b5060c082015160068201805460ff191691151591909117905560e0820151600782019061293d90826135a1565b50610100820151600882019061295390826135a1565b50610120820151600982019061296990826135a1565b509050505050808061297a90613738565b9150506124a9565b506000898152600360205260408120600c0180548a92906129a4908490613751565b90915550506040805160a081018252848152602081018990528082018b9052606081018a90526080810188905290516006906129e1908690613661565b908152604051602091819003820190208054600181018255600091825291902082518392600502909101908190612a1890826135a1565b5060208201516001820190612a2d90826135a1565b50604082015160028201556060820151600382015560808201516004820190612a5690826135a1565b505050600788604051612a699190613661565b908152604051602091819003820190208054600181018255600091825291902082518392600502909101908190612aa090826135a1565b5060208201516001820190612ab590826135a1565b50604082015160028201556060820151600382015560808201516004820190612ade90826135a1565b50505050505050505050505050565b6000805b600854811015612b3a578260088281548110612b0f57612b0f613722565b906000526020600020015403612b285750600192915050565b80612b3281613738565b915050612af1565b50600092915050565b6000805b600954811015612b3a578260098281548110612b6557612b65613722565b906000526020600020015403612b7e5750600192915050565b80612b8881613738565b915050612b47565b6000805b600b54811015612b3a5782600b8281548110612bb257612bb2613722565b906000526020600020015403612bcb5750600192915050565b80612bd581613738565b915050612b94565b6000805b600a54811015612b3a5782600a8281548110612bff57612bff613722565b906000526020600020015403612c185750600192915050565b80612c2281613738565b915050612be1565b828054828255906000526020600020908101928215612c65579160200282015b82811115612c65578251825591602001919060010190612c4a565b50612c71929150612c75565b5090565b5b80821115612c715760008155600101612c76565b634e487b7160e01b600052604160045260246000fd5b604051601f8201601f1916810167ffffffffffffffff81118282101715612cc957612cc9612c8a565b604052919050565b600082601f830112612ce257600080fd5b813567ffffffffffffffff811115612cfc57612cfc612c8a565b612d0f601f8201601f1916602001612ca0565b818152846020838601011115612d2457600080fd5b816020850160208301376000918101602001919091529392505050565b60008060408385031215612d5457600080fd5b823567ffffffffffffffff811115612d6b57600080fd5b612d7785828601612cd1565b95602094909401359450505050565b60008060008060808587031215612d9c57600080fd5b84359350602085013567ffffffffffffffff80821115612dbb57600080fd5b612dc788838901612cd1565b94506040870135915080821115612ddd57600080fd5b612de988838901612cd1565b93506060870135915080821115612dff57600080fd5b50612e0c87828801612cd1565b91505092959194509250565b600060208284031215612e2a57600080fd5b813567ffffffffffffffff811115612e4157600080fd5b612e4d84828501612cd1565b949350505050565b602080825282518282018190526000919060409081850190868401855b82811015612e9757815180518552860151868501529284019290850190600101612e72565b5091979650505050505050565b600060208284031215612eb657600080fd5b5035919050565b6020808252825182820181905260009190848201906040850190845b81811015612ef557835183529284019291840191600101612ed9565b50909695505050505050565b60005b83811015612f1c578181015183820152602001612f04565b50506000910152565b60008151808452612f3d816020860160208601612f01565b601f01601f19169290920160200192915050565b848152608060208201526000612f6a6080830186612f25565b8281036040840152612f7c8186612f25565b90508281036060840152612f908185612f25565b979650505050505050565b85815284602082015260a060408201526000612fba60a0830186612f25565b8460608401528281036080840152612fd28185612f25565b98975050505050505050565b60006020808301818452808551808352604092508286019150828160051b87010184880160005b8381101561308757603f19898403018552815160a0815181865261302b82870182612f25565b915050888201518582038a8701526130438282612f25565b91505087820151888601526060808301518187015250608080830151925085820381870152506130738183612f25565b968901969450505090860190600101613005565b509098975050505050505050565b6000806000606084860312156130aa57600080fd5b83359250602084013567ffffffffffffffff808211156130c957600080fd5b6130d587838801612cd1565b935060408601359150808211156130eb57600080fd5b506130f886828701612cd1565b9150509250925092565b600080600080600060a0868803121561311a57600080fd5b8535945060208601359350604086013567ffffffffffffffff8082111561314057600080fd5b61314c89838a01612cd1565b945060608801359350608088013591508082111561316957600080fd5b5061317688828901612cd1565b9150509295509295909350565b6000806040838503121561319657600080fd5b50508035926020909101359150565b600080600080608085870312156131bb57600080fd5b8435935060208501359250604085013567ffffffffffffffff80821115612ddd57600080fd5b60006101a08f83528e60208401528d60408401528060608401526132078184018e612f25565b90508b608084015282810360a0840152613221818c612f25565b905082810360c0840152613235818b612f25565b905082810360e0840152613249818a612f25565b905082810361010084015261325e8189612f25565b90508661012084015261327661014084018715159052565b8281036101608401526132898186612f25565b915050826101808301529e9d5050505050505050505050505050565b600082601f8301126132b657600080fd5b8135602067ffffffffffffffff8211156132d2576132d2612c8a565b8160051b6132e1828201612ca0565b92835284810182019282810190878511156132fb57600080fd5b83870192505b84831015612f9057823582529183019190830190613301565b60008060008060008060008060006101208a8c03121561333957600080fd5b8935985060208a013567ffffffffffffffff8082111561335857600080fd5b6133648d838e016132a5565b995060408c0135985060608c013591508082111561338157600080fd5b61338d8d838e01612cd1565b975060808c0135965060a08c01359150808211156133aa57600080fd5b6133b68d838e01612cd1565b955060c08c01359150808211156133cc57600080fd5b6133d88d838e01612cd1565b945060e08c01359150808211156133ee57600080fd5b6133fa8d838e01612cd1565b93506101008c013591508082111561341157600080fd5b5061341e8c828d01612cd1565b9150509295985092959850929598565b60a08152600061344160a0830188612f25565b82810360208401526134538188612f25565b90508560408401528460608401528281036080840152612fd28185612f25565b60006101408c83528b60208401528a60408401528060608401526134998184018b612f25565b905082810360808401526134ad818a612f25565b905082810360a08401526134c18189612f25565b905086151560c084015282810360e08401526134dd8187612f25565b90508281036101008401526134f28186612f25565b90508281036101208401526135078185612f25565b9d9c50505050505050505050505050565b600181811c9082168061352c57607f821691505b60208210810361354c57634e487b7160e01b600052602260045260246000fd5b50919050565b601f82111561359c57600081815260208120601f850160051c810160208610156135795750805b601f850160051c820191505b8181101561359857828155600101613585565b5050505b505050565b815167ffffffffffffffff8111156135bb576135bb612c8a565b6135cf816135c98454613518565b84613552565b602080601f83116001811461360457600084156135ec5750858301515b600019600386901b1c1916600185901b178555613598565b600085815260208120601f198616915b8281101561363357888601518255948401946001909101908401613614565b50858210156136515787850151600019600388901b60f8161c191681555b5050505050600190811b01905550565b60008251613673818460208701612f01565b9190910192915050565b600080835461368b81613518565b600182811680156136a357600181146136b8576136e7565b60ff19841687528215158302870194506136e7565b8760005260208060002060005b858110156136de5781548a8201529084019082016136c5565b50505082870194505b50929695505050505050565b634e487b7160e01b600052601160045260246000fd5b8082018082111561371c5761371c6136f3565b92915050565b634e487b7160e01b600052603260045260246000fd5b60006001820161374a5761374a6136f3565b5060010190565b8181038181111561371c5761371c6136f356fea2646970667358221220f0c65a20db62a08275b7ccd5f77515d3138249588d3d61c1e207ebade6a7c90864736f6c63430008110033",
  "linkReferences": {},
  "deployedLinkReferences": {}
}