{
  "_format": "hh-sol-artifact-1",
  "contractName": "Supplychain",
  "sourceName": "contracts/Supplychain.sol",
  "abi": [
    {
      "inputs": [
        {
          "internalType": "uint256",
          "name": "",
          "type": "uint256"
        },
        {
          "internalType": "uint256",
          "name": "",
          "type": "uint256"
        }
      ],
      "name": "BatchIDToProductIDMapping",
      "outputs": [
        {
          "internalType": "uint256",
          "name": "",
          "type": "uint256"
        }
      ],
      "stateMutability": "view",
      "type": "function"
    },
    {
      "inputs": [
        {
          "internalType": "uint256",
          "name": "",
          "type": "uint256"
        }
      ],
      "name": "BatchIDs",
      "outputs": [
        {
          "internalType": "uint256",
          "name": "",
          "type": "uint256"
        }
      ],
      "stateMutability": "view",
      "type": "function"
    },
    {
      "inputs": [
        {
          "internalType": "uint256",
          "name": "",
          "type": "uint256"
        }
      ],
      "name": "BatchMapping",
      "outputs": [
        {
          "internalType": "uint256",
          "name": "BatchID",
          "type": "uint256"
        },
        {
          "internalType": "uint256",
          "name": "BatchSize",
          "type": "uint256"
        },
        {
          "internalType": "uint256",
          "name": "AmountSoldTOCustomer",
          "type": "uint256"
        },
        {
          "internalType": "string",
          "name": "BatchDescription",
          "type": "string"
        },
        {
          "internalType": "uint256",
          "name": "ProductTemplateID",
          "type": "uint256"
        },
        {
          "internalType": "string",
          "name": "FactoryID",
          "type": "string"
        },
        {
          "internalType": "string",
          "name": "DistributorID",
          "type": "string"
        },
        {
          "internalType": "string",
          "name": "FactoryLocation",
          "type": "string"
        },
        {
          "internalType": "string",
          "name": "DateOfProduction",
          "type": "string"
        },
        {
          "internalType": "uint256",
          "name": "State",
          "type": "uint256"
        },
        {
          "internalType": "bool",
          "name": "DistributorScanned",
          "type": "bool"
        },
        {
          "internalType": "string",
          "name": "DistributorScannedTimeStamp",
          "type": "string"
        },
        {
          "internalType": "uint256",
          "name": "AmountLeftForSellingTORetailer",
          "type": "uint256"
        },
        {
          "internalType": "uint256",
          "name": "CompanyBatchID",
          "type": "uint256"
        }
      ],
      "stateMutability": "view",
      "type": "function"
    },
    {
      "inputs": [
        {
          "internalType": "uint256",
          "name": "",
          "type": "uint256"
        }
      ],
      "name": "BatchTemplateIDs",
      "outputs": [
        {
          "internalType": "uint256",
          "name": "",
          "type": "uint256"
        }
      ],
      "stateMutability": "view",
      "type": "function"
    },
    {
      "inputs": [
        {
          "internalType": "uint256",
          "name": "",
          "type": "uint256"
        }
      ],
      "name": "BatchTemplateMAP",
      "outputs": [
        {
          "internalType": "uint256",
          "name": "BatchTemplateID",
          "type": "uint256"
        },
        {
          "internalType": "uint256",
          "name": "ProductTemplateID",
          "type": "uint256"
        },
        {
          "internalType": "string",
          "name": "Description",
          "type": "string"
        },
        {
          "internalType": "uint256",
          "name": "BatchSize",
          "type": "uint256"
        },
        {
          "internalType": "string",
          "name": "FactoryID",
          "type": "string"
        }
      ],
      "stateMutability": "view",
      "type": "function"
    },
    {
      "inputs": [
        {
          "internalType": "string",
          "name": "",
          "type": "string"
        },
        {
          "internalType": "uint256",
          "name": "",
          "type": "uint256"
        }
      ],
      "name": "CustomerData",
      "outputs": [
        {
          "internalType": "uint256",
          "name": "BatchID",
          "type": "uint256"
        },
        {
          "internalType": "uint256",
          "name": "ProductID",
          "type": "uint256"
        },
        {
          "internalType": "string",
          "name": "CustomerID",
          "type": "string"
        },
        {
          "internalType": "string",
          "name": "CustomerName",
          "type": "string"
        }
      ],
      "stateMutability": "view",
      "type": "function"
    },
    {
      "inputs": [
        {
          "internalType": "string",
          "name": "",
          "type": "string"
        },
        {
          "internalType": "uint256",
          "name": "",
          "type": "uint256"
        }
      ],
      "name": "DistributorIDToRetailerStruct",
      "outputs": [
        {
          "internalType": "string",
          "name": "DistributorID",
          "type": "string"
        },
        {
          "internalType": "string",
          "name": "RetailerID",
          "type": "string"
        },
        {
          "internalType": "uint256",
          "name": "BatchID",
          "type": "uint256"
        },
        {
          "internalType": "uint256",
          "name": "Quantity",
          "type": "uint256"
        },
        {
          "internalType": "string",
          "name": "TimeStamp",
          "type": "string"
        }
      ],
      "stateMutability": "view",
      "type": "function"
    },
    {
      "inputs": [
        {
          "internalType": "uint256",
          "name": "",
          "type": "uint256"
        }
      ],
      "name": "ProductIDs",
      "outputs": [
        {
          "internalType": "uint256",
          "name": "",
          "type": "uint256"
        }
      ],
      "stateMutability": "view",
      "type": "function"
    },
    {
      "inputs": [
        {
          "internalType": "uint256",
          "name": "",
          "type": "uint256"
        }
      ],
      "name": "ProductMapping",
      "outputs": [
        {
          "internalType": "uint256",
          "name": "ProductID",
          "type": "uint256"
        },
        {
          "internalType": "uint256",
          "name": "CompanyProductID",
          "type": "uint256"
        },
        {
          "internalType": "uint256",
          "name": "BatchID",
          "type": "uint256"
        },
        {
          "internalType": "uint256",
          "name": "ProductTemplateID",
          "type": "uint256"
        },
        {
          "internalType": "string",
          "name": "DOM",
          "type": "string"
        },
        {
          "internalType": "string",
          "name": "CustomerID",
          "type": "string"
        },
        {
          "internalType": "string",
          "name": "RetailerID",
          "type": "string"
        },
        {
          "internalType": "bool",
          "name": "RetailerScanned",
          "type": "bool"
        },
        {
          "internalType": "string",
          "name": "RetailerScannedTimeStamp",
          "type": "string"
        },
        {
          "internalType": "string",
          "name": "DateWhenSoldToRetailer",
          "type": "string"
        },
        {
          "internalType": "string",
          "name": "DateWhenSoldToCustomer",
          "type": "string"
        },
        {
          "internalType": "string",
          "name": "RetailerLatitude",
          "type": "string"
        },
        {
          "internalType": "string",
          "name": "RetailerLongitude",
          "type": "string"
        },
        {
          "internalType": "string",
          "name": "CustomerName",
          "type": "string"
        }
      ],
      "stateMutability": "view",
      "type": "function"
    },
    {
      "inputs": [
        {
          "internalType": "uint256",
          "name": "",
          "type": "uint256"
        }
      ],
      "name": "ProductTemplateIDs",
      "outputs": [
        {
          "internalType": "uint256",
          "name": "",
          "type": "uint256"
        }
      ],
      "stateMutability": "view",
      "type": "function"
    },
    {
      "inputs": [
        {
          "internalType": "uint256",
          "name": "",
          "type": "uint256"
        }
      ],
      "name": "ProductTemplateMAP",
      "outputs": [
        {
          "internalType": "uint256",
          "name": "ProductTemplateID",
          "type": "uint256"
        },
        {
          "internalType": "string",
          "name": "Name",
          "type": "string"
        },
        {
          "internalType": "string",
          "name": "Description",
          "type": "string"
        },
        {
          "internalType": "string",
          "name": "FactoryID",
          "type": "string"
        }
      ],
      "stateMutability": "view",
      "type": "function"
    },
    {
      "inputs": [
        {
          "internalType": "string",
          "name": "",
          "type": "string"
        },
        {
          "internalType": "uint256",
          "name": "",
          "type": "uint256"
        }
      ],
      "name": "RetailerIDToRetailerStruct",
      "outputs": [
        {
          "internalType": "string",
          "name": "DistributorID",
          "type": "string"
        },
        {
          "internalType": "string",
          "name": "RetailerID",
          "type": "string"
        },
        {
          "internalType": "uint256",
          "name": "BatchID",
          "type": "uint256"
        },
        {
          "internalType": "uint256",
          "name": "Quantity",
          "type": "uint256"
        },
        {
          "internalType": "string",
          "name": "TimeStamp",
          "type": "string"
        }
      ],
      "stateMutability": "view",
      "type": "function"
    },
    {
      "inputs": [
        {
          "internalType": "uint256",
          "name": "_batchTemplateID",
          "type": "uint256"
        },
        {
          "internalType": "uint256",
          "name": "_productTemplateID",
          "type": "uint256"
        },
        {
          "internalType": "string",
          "name": "_description",
          "type": "string"
        },
        {
          "internalType": "uint256",
          "name": "_batchSize",
          "type": "uint256"
        },
        {
          "internalType": "string",
          "name": "_factoryID",
          "type": "string"
        }
      ],
      "name": "addBatchTemplate",
      "outputs": [],
      "stateMutability": "nonpayable",
      "type": "function"
    },
    {
      "inputs": [
        {
          "internalType": "uint256",
          "name": "_productTemplateID",
          "type": "uint256"
        },
        {
          "internalType": "string",
          "name": "_name",
          "type": "string"
        },
        {
          "internalType": "string",
          "name": "_description",
          "type": "string"
        },
        {
          "internalType": "string",
          "name": "_factoryID",
          "type": "string"
        }
      ],
      "name": "addProductTemplate",
      "outputs": [],
      "stateMutability": "nonpayable",
      "type": "function"
    },
    {
      "inputs": [
        {
          "internalType": "uint256",
          "name": "batchID",
          "type": "uint256"
        },
        {
          "internalType": "uint256",
          "name": "companyBatchID",
          "type": "uint256"
        },
        {
          "internalType": "uint256[]",
          "name": "productIDs",
          "type": "uint256[]"
        },
        {
          "internalType": "uint256",
          "name": "batchSize",
          "type": "uint256"
        },
        {
          "internalType": "string",
          "name": "batchDescription",
          "type": "string"
        },
        {
          "internalType": "uint256",
          "name": "productTemplateID",
          "type": "uint256"
        },
        {
          "internalType": "string",
          "name": "factory",
          "type": "string"
        },
        {
          "internalType": "string",
          "name": "distributor",
          "type": "string"
        },
        {
          "internalType": "string",
          "name": "factoryLocation",
          "type": "string"
        },
        {
          "internalType": "string",
          "name": "dateOfProduction",
          "type": "string"
        }
      ],
      "name": "batchProduced",
      "outputs": [],
      "stateMutability": "nonpayable",
      "type": "function"
    },
    {
      "inputs": [
        {
          "internalType": "uint256",
          "name": "batchID",
          "type": "uint256"
        },
        {
          "internalType": "string",
          "name": "_distributorID",
          "type": "string"
        },
        {
          "internalType": "string",
          "name": "timeStamp",
          "type": "string"
        }
      ],
      "name": "distributorScansBatch",
      "outputs": [],
      "stateMutability": "nonpayable",
      "type": "function"
    },
    {
      "inputs": [
        {
          "internalType": "uint256",
          "name": "batchID",
          "type": "uint256"
        },
        {
          "internalType": "uint256",
          "name": "quantity",
          "type": "uint256"
        }
      ],
      "name": "distributorSellToRetailer",
      "outputs": [],
      "stateMutability": "nonpayable",
      "type": "function"
    },
    {
      "inputs": [],
      "name": "getAllBatchIDs",
      "outputs": [
        {
          "internalType": "uint256[]",
          "name": "",
          "type": "uint256[]"
        }
      ],
      "stateMutability": "view",
      "type": "function"
    },
    {
      "inputs": [],
      "name": "getAllBatchTemplateIDs",
      "outputs": [
        {
          "internalType": "uint256[]",
          "name": "",
          "type": "uint256[]"
        }
      ],
      "stateMutability": "view",
      "type": "function"
    },
    {
      "inputs": [],
      "name": "getAllProductIDs",
      "outputs": [
        {
          "internalType": "uint256[]",
          "name": "",
          "type": "uint256[]"
        }
      ],
      "stateMutability": "view",
      "type": "function"
    },
    {
      "inputs": [],
      "name": "getAllProductTemplateIDs",
      "outputs": [
        {
          "internalType": "uint256[]",
          "name": "",
          "type": "uint256[]"
        }
      ],
      "stateMutability": "view",
      "type": "function"
    },
    {
      "inputs": [
        {
          "internalType": "string",
          "name": "customerID",
          "type": "string"
        }
      ],
      "name": "getAllProductsBought",
      "outputs": [
        {
          "components": [
            {
              "internalType": "uint256",
              "name": "BatchID",
              "type": "uint256"
            },
            {
              "internalType": "uint256",
              "name": "ProductID",
              "type": "uint256"
            },
            {
              "internalType": "string",
              "name": "CustomerID",
              "type": "string"
            },
            {
              "internalType": "string",
              "name": "CustomerName",
              "type": "string"
            }
          ],
          "internalType": "struct Supplychain.Customer[]",
          "name": "",
          "type": "tuple[]"
        }
      ],
      "stateMutability": "view",
      "type": "function"
    },
    {
      "inputs": [
        {
          "internalType": "string",
          "name": "distributorID",
          "type": "string"
        }
      ],
      "name": "getDistributorIDToRetailerStruct",
      "outputs": [
        {
          "components": [
            {
              "internalType": "string",
              "name": "DistributorID",
              "type": "string"
            },
            {
              "internalType": "string",
              "name": "RetailerID",
              "type": "string"
            },
            {
              "internalType": "uint256",
              "name": "BatchID",
              "type": "uint256"
            },
            {
              "internalType": "uint256",
              "name": "Quantity",
              "type": "uint256"
            },
            {
              "internalType": "string",
              "name": "TimeStamp",
              "type": "string"
            }
          ],
          "internalType": "struct Supplychain.Retailer[]",
          "name": "",
          "type": "tuple[]"
        }
      ],
      "stateMutability": "view",
      "type": "function"
    },
    {
      "inputs": [
        {
          "internalType": "uint256",
          "name": "batchID",
          "type": "uint256"
        }
      ],
      "name": "getProductIdsForaBatch",
      "outputs": [
        {
          "internalType": "uint256[]",
          "name": "",
          "type": "uint256[]"
        }
      ],
      "stateMutability": "view",
      "type": "function"
    },
    {
      "inputs": [
        {
          "internalType": "string",
          "name": "retailerID",
          "type": "string"
        }
      ],
      "name": "getRetailerIDToRetailerStruct",
      "outputs": [
        {
          "components": [
            {
              "internalType": "string",
              "name": "DistributorID",
              "type": "string"
            },
            {
              "internalType": "string",
              "name": "RetailerID",
              "type": "string"
            },
            {
              "internalType": "uint256",
              "name": "BatchID",
              "type": "uint256"
            },
            {
              "internalType": "uint256",
              "name": "Quantity",
              "type": "uint256"
            },
            {
              "internalType": "string",
              "name": "TimeStamp",
              "type": "string"
            }
          ],
          "internalType": "struct Supplychain.Retailer[]",
          "name": "",
          "type": "tuple[]"
        }
      ],
      "stateMutability": "view",
      "type": "function"
    },
    {
      "inputs": [
        {
          "internalType": "uint256",
          "name": "_productID",
          "type": "uint256"
        },
        {
          "internalType": "string",
          "name": "_retailerID",
          "type": "string"
        },
        {
          "internalType": "string",
          "name": "timeStamp",
          "type": "string"
        },
        {
          "internalType": "string",
          "name": "latitude",
          "type": "string"
        },
        {
          "internalType": "string",
          "name": "longitude",
          "type": "string"
        }
      ],
      "name": "retailerScansProduct",
      "outputs": [],
      "stateMutability": "nonpayable",
      "type": "function"
    },
    {
      "inputs": [
        {
          "internalType": "uint256",
          "name": "batchID",
          "type": "uint256"
        },
        {
          "internalType": "uint256",
          "name": "productID",
          "type": "uint256"
        },
        {
          "internalType": "string",
          "name": "customerID",
          "type": "string"
        },
        {
          "internalType": "string",
          "name": "customerName",
          "type": "string"
        },
        {
          "internalType": "string",
          "name": "timeStamp",
          "type": "string"
        }
      ],
      "name": "retailerSellToCustomer",
      "outputs": [],
      "stateMutability": "nonpayable",
      "type": "function"
    }
  ],
  "bytecode": "0x608060405234801561001057600080fd5b506133db806100206000396000f3fe608060405234801561001057600080fd5b50600436106101a95760003560e01c80637c0fac7f116100f9578063a78317f811610097578063bf801df111610071578063bf801df1146103a8578063e139f994146103d5578063e3c6a4ac146103f9578063eac0e9771461040c57600080fd5b8063a78317f81461036f578063a7a4523d14610382578063ab6e3ec51461039557600080fd5b80638bd42880116100d35780638bd428801461032e5780638c4c42cd146103415780638e5452b81461034957806390973cce1461035c57600080fd5b80637c0fac7f146102e85780637f7bf690146102fb5780638272d34b1461031b57600080fd5b80633b7d255c116101665780634ca20f34116101405780634ca20f341461028657806371d1dc0c14610299578063793560dd146102bc5780637ae4ee04146102c457600080fd5b80633b7d255c146102635780633c2f29761461026b5780634c27729c1461027e57600080fd5b806321359e58146101ae57806321f29391146101c3578063278338e8146101ef578063284328d014610202578063392a70a6146102225780633ab95f3014610242575b600080fd5b6101c16101bc36600461281f565b610439565b005b6101d66101d13660046128bb565b610548565b6040516101e69493929190612950565b60405180910390f35b6101c16101fd36600461298c565b6106b4565b610215610210366004612a1e565b6107d7565b6040516101e69190612a5b565b610235610230366004612af7565b61098c565b6040516101e69190612b10565b610255610250366004612af7565b6109ee565b6040519081526020016101e6565b610235610a0f565b6101c1610279366004612bc9565b610a67565b610235610dd4565b610255610294366004612af7565b610e2a565b6102ac6102a7366004612af7565b610e3a565b6040516101e69493929190612ce8565b610235610eea565b6102d76102d2366004612af7565b610f40565b6040516101e6959493929190612d27565b6101c16102f6366004612d6a565b61107f565b61030e610309366004612a1e565b61118c565b6040516101e69190612d8c565b6101c1610329366004612e35565b6113c8565b61025561033c366004612af7565b611530565b610235611540565b6101c1610357366004612ea2565b611596565b61025561036a366004612d6a565b611730565b61025561037d366004612af7565b611761565b61030e610390366004612a1e565b611771565b6101c16103a3366004612f09565b6119ad565b6103bb6103b6366004612af7565b611b52565b6040516101e69e9d9c9b9a99989796959493929190612f62565b6103e86103e33660046128bb565b611ef1565b6040516101e6959493929190613029565b6103e86104073660046128bb565b612068565b61041f61041a366004612af7565b612093565b6040516101e69e9d9c9b9a9998979695949392919061306e565b600085815260076020526040812060020180546001929061045b908490613173565b9091555050600084815260066020526040902060050161047b8482613211565b506000848152600660205260409020600d016104978382613211565b506000848152600660205260409020600a016104b38282613211565b506009836040516104c491906132d1565b908152604080519182900360209081018320608084018352888452838201888152928401878152606085018790528154600181810184556000938452939092208551600490930201918255925191810191909155905160028201906105299082613211565b506060820151600382019061053e9082613211565b5050505050505050565b8151602081840181018051600982529282019185019190912091905280548290811061057357600080fd5b9060005260206000209060040201600091509150508060000154908060010154908060020180546105a39061318c565b80601f01602080910402602001604051908101604052809291908181526020018280546105cf9061318c565b801561061c5780601f106105f15761010080835404028352916020019161061c565b820191906000526020600020905b8154815290600101906020018083116105ff57829003601f168201915b5050505050908060030180546106319061318c565b80601f016020809104026020016040519081016040528092919081815260200182805461065d9061318c565b80156106aa5780601f1061067f576101008083540402835291602001916106aa565b820191906000526020600020905b81548152906001019060200180831161068d57829003601f168201915b5050505050905084565b6106bd846125cb565b1561072b5760405162461bcd60e51b815260206004820152603360248201527f546869732050726f6475637454656d706c617465494420616c72656164792065604482015272786973747320696e207468652073797374656d60681b60648201526084015b60405180910390fd5b604080516080810182528581526020808201868152828401869052606083018590526000888152600490925292902081518155915190919060018201906107729082613211565b50604082015160028201906107879082613211565b506060820151600382019061079c9082613211565b5050600080546001810182559080527f290decd9548b62a8d60345a988386fc84ba6bc95484008f6362f93160ef3e563019490945550505050565b60606009826040516107e991906132d1565b9081526020016040518091039020805480602002602001604051908101604052809291908181526020016000905b828210156109815783829060005260206000209060040201604051806080016040529081600082015481526020016001820154815260200160028201805461085e9061318c565b80601f016020809104026020016040519081016040528092919081815260200182805461088a9061318c565b80156108d75780601f106108ac576101008083540402835291602001916108d7565b820191906000526020600020905b8154815290600101906020018083116108ba57829003601f168201915b505050505081526020016003820180546108f09061318c565b80601f016020809104026020016040519081016040528092919081815260200182805461091c9061318c565b80156109695780601f1061093e57610100808354040283529160200191610969565b820191906000526020600020905b81548152906001019060200180831161094c57829003601f168201915b50505050508152505081526020019060010190610817565b505050509050919050565b6000818152600860209081526040918290208054835181840281018401909452808452606093928301828280156109e257602002820191906000526020600020905b8154815260200190600101908083116109ce575b50505050509050919050565b600081815481106109fe57600080fd5b600091825260209091200154905081565b60606000805480602002602001604051908101604052809291908181526020018280548015610a5d57602002820191906000526020600020905b815481526020019060010190808311610a49575b5050505050905090565b610a708a612621565b15610ac95760405162461bcd60e51b8152602060048201526024808201527f4261746368494420616c72656164792065786973747320696e207468652073796044820152637374656d60e01b6064820152608401610722565b86885114610b3f5760405162461bcd60e51b815260206004820152603760248201527f53697a65206f662070726f6475637449447320617272617920646f6573206e6f60448201527f74206d6174636820776974682042617463682073697a650000000000000000006064820152608401610722565b604051806101c001604052808b815260200188815260200160008152602001878152602001868152602001858152602001848152602001838152602001828152602001600081526020016000151581526020016040518060200160405280600081525081526020018881526020018a815250600760008c81526020019081526020016000206000820151816000015560208201518160010155604082015181600201556060820151816003019081610bf79190613211565b506080820151600482015560a08201516005820190610c169082613211565b5060c08201516006820190610c2b9082613211565b5060e08201516007820190610c409082613211565b506101008201516008820190610c569082613211565b506101208201516009820155610140820151600a8201805460ff1916911515919091179055610160820151600b820190610c909082613211565b50610180820151600c8201556101a090910151600d9091015560038054600181019091557fc2575a0e9e593c00f959f8c92f12db2869c3395a3b0502d05e2516446f71f85b018a905560008a81526008602090815260409091208951610cf8928b0190612708565b5060005b87811015610dc757610d26898281518110610d1957610d196132ed565b602002602001015161266e565b15610d825760405162461bcd60e51b815260206004820152602660248201527f50726f64756374494420616c72656164792065786973747320696e207468652060448201526573797374656d60d01b6064820152608401610722565b6002898281518110610d9657610d966132ed565b6020908102919091018101518254600181018455600093845291909220015580610dbf81613303565b915050610cfc565b5050505050505050505050565b60606001805480602002602001604051908101604052809291908181526020018280548015610a5d5760200282019190600052602060002090815481526020019060010190808311610a49575050505050905090565b600181815481106109fe57600080fd5b60046020526000908152604090208054600182018054919291610e5c9061318c565b80601f0160208091040260200160405190810160405280929190818152602001828054610e889061318c565b8015610ed55780601f10610eaa57610100808354040283529160200191610ed5565b820191906000526020600020905b815481529060010190602001808311610eb857829003601f168201915b5050505050908060020180546105a39061318c565b60606003805480602002602001604051908101604052809291908181526020018280548015610a5d5760200282019190600052602060002090815481526020019060010190808311610a49575050505050905090565b60056020526000908152604090208054600182015460028301805492939192610f689061318c565b80601f0160208091040260200160405190810160405280929190818152602001828054610f949061318c565b8015610fe15780601f10610fb657610100808354040283529160200191610fe1565b820191906000526020600020905b815481529060010190602001808311610fc457829003601f168201915b505050505090806003015490806004018054610ffc9061318c565b80601f01602080910402602001604051908101604052809291908181526020018280546110289061318c565b80156110755780601f1061104a57610100808354040283529160200191611075565b820191906000526020600020905b81548152906001019060200180831161105857829003601f168201915b5050505050905085565b6000828152600760205260409020600c0154818110156111115760405162461bcd60e51b815260206004820152604160248201527f5175616e746974792069732067726561746572207468616e2074686520616d6f60448201527f756e74206c65667420746f20626520736f6c6420696e207468697320626174636064820152600d60fb1b608482015260a401610722565b600082116111615760405162461bcd60e51b815260206004820152601760248201527f5175616e746974792063616e6e6f74206265207a65726f0000000000000000006044820152606401610722565b6000838152600760205260408120600c01805484929061118290849061331c565b9091555050505050565b6060600a8260405161119e91906132d1565b9081526020016040518091039020805480602002602001604051908101604052809291908181526020016000905b8282101561098157838290600052602060002090600502016040518060a00160405290816000820180546111ff9061318c565b80601f016020809104026020016040519081016040528092919081815260200182805461122b9061318c565b80156112785780601f1061124d57610100808354040283529160200191611278565b820191906000526020600020905b81548152906001019060200180831161125b57829003601f168201915b505050505081526020016001820180546112919061318c565b80601f01602080910402602001604051908101604052809291908181526020018280546112bd9061318c565b801561130a5780601f106112df5761010080835404028352916020019161130a565b820191906000526020600020905b8154815290600101906020018083116112ed57829003601f168201915b5050505050815260200160028201548152602001600382015481526020016004820180546113379061318c565b80601f01602080910402602001604051908101604052809291908181526020018280546113639061318c565b80156113b05780601f10611385576101008083540402835291602001916113b0565b820191906000526020600020905b81548152906001019060200180831161139357829003601f168201915b505050505081525050815260200190600101906111cc565b6000838152600760205260409020600a015460ff16156114435760405162461bcd60e51b815260206004820152603060248201527f5468697320626174636820697320616c7265616479207363616e6e656420627960448201526f103a3432903234b9ba3934b13aba37b960811b6064820152608401610722565b8160405160200161145491906132d1565b60408051601f19818403018152828252805160209182012060008781526007835292909220919261148992600601910161332f565b60405160208183030381529060405280519060200120146115005760405162461bcd60e51b815260206004820152602b60248201527f54686973206261746368206973206e6f74206f776e656420627920746869732060448201526a3234b9ba3934b13aba37b960a91b6064820152608401610722565b6000838152600760205260409020600a8101805460ff19166001179055600b0161152a8282613211565b50505050565b600381815481106109fe57600080fd5b60606002805480602002602001604051908101604052809291908181526020018280548015610a5d5760200282019190600052602060002090815481526020019060010190808311610a49575050505050905090565b61159f856126bb565b156116065760405162461bcd60e51b815260206004820152603160248201527f5468697320426174636854656d706c617465494420616c72656164792065786960448201527073747320696e207468652073797374656d60781b6064820152608401610722565b61160f846125cb565b151560011461167d5760405162461bcd60e51b815260206004820152603460248201527f546869732050726f6475637454656d706c617465494420646f6573206e6f742060448201527365786973747320696e207468652073797374656d60601b6064820152608401610722565b6040805160a0810182528681526020808201878152828401878152606084018790526080840186905260008a81526005909352939091208251815590516001820155915190919060028201906116d39082613211565b5060608201516003820155608082015160048201906116f29082613211565b50506001805480820182556000919091527fb10e2d527612073b26eecdfd717e6a320cf44b4afac2b0732d9fcbe2b7fa0cf601959095555050505050565b6008602052816000526040600020818154811061174c57600080fd5b90600052602060002001600091509150505481565b600281815481106109fe57600080fd5b6060600b8260405161178391906132d1565b9081526020016040518091039020805480602002602001604051908101604052809291908181526020016000905b8282101561098157838290600052602060002090600502016040518060a00160405290816000820180546117e49061318c565b80601f01602080910402602001604051908101604052809291908181526020018280546118109061318c565b801561185d5780601f106118325761010080835404028352916020019161185d565b820191906000526020600020905b81548152906001019060200180831161184057829003601f168201915b505050505081526020016001820180546118769061318c565b80601f01602080910402602001604051908101604052809291908181526020018280546118a29061318c565b80156118ef5780601f106118c4576101008083540402835291602001916118ef565b820191906000526020600020905b8154815290600101906020018083116118d257829003601f168201915b50505050508152602001600282015481526020016003820154815260200160048201805461191c9061318c565b80601f01602080910402602001604051908101604052809291908181526020018280546119489061318c565b80156119955780601f1061196a57610100808354040283529160200191611995565b820191906000526020600020905b81548152906001019060200180831161197857829003601f168201915b505050505081525050815260200190600101906117b1565b60008581526006602052604090206007015460ff1615611a255760405162461bcd60e51b815260206004820152602d60248201527f5468697320626174636820697320616c7265616479207363616e6e656420627960448201526c103a3432903932ba30b4b632b960991b6064820152608401610722565b83604051602001611a3691906132d1565b6040516020818303038152906040528051906020012060066000878152602001908152602001600020600601604051602001611a72919061332f565b6040516020818303038152906040528051906020012014611ae85760405162461bcd60e51b815260206004820152602a60248201527f546869732070726f64756374206973206e6f74206f776e65642062792074686960448201526939903932ba30b4b632b960b11b6064820152608401610722565b600085815260066020526040902060078101805460ff19166001179055600801611b128482613211565b506000858152600660205260409020600b01611b2e8382613211565b506000858152600660205260409020600c01611b4a8282613211565b505050505050565b600760205260009081526040902080546001820154600283015460038401805493949293919291611b829061318c565b80601f0160208091040260200160405190810160405280929190818152602001828054611bae9061318c565b8015611bfb5780601f10611bd057610100808354040283529160200191611bfb565b820191906000526020600020905b815481529060010190602001808311611bde57829003601f168201915b505050505090806004015490806005018054611c169061318c565b80601f0160208091040260200160405190810160405280929190818152602001828054611c429061318c565b8015611c8f5780601f10611c6457610100808354040283529160200191611c8f565b820191906000526020600020905b815481529060010190602001808311611c7257829003601f168201915b505050505090806006018054611ca49061318c565b80601f0160208091040260200160405190810160405280929190818152602001828054611cd09061318c565b8015611d1d5780601f10611cf257610100808354040283529160200191611d1d565b820191906000526020600020905b815481529060010190602001808311611d0057829003601f168201915b505050505090806007018054611d329061318c565b80601f0160208091040260200160405190810160405280929190818152602001828054611d5e9061318c565b8015611dab5780601f10611d8057610100808354040283529160200191611dab565b820191906000526020600020905b815481529060010190602001808311611d8e57829003601f168201915b505050505090806008018054611dc09061318c565b80601f0160208091040260200160405190810160405280929190818152602001828054611dec9061318c565b8015611e395780601f10611e0e57610100808354040283529160200191611e39565b820191906000526020600020905b815481529060010190602001808311611e1c57829003601f168201915b505050506009830154600a840154600b850180549495929460ff909216935090611e629061318c565b80601f0160208091040260200160405190810160405280929190818152602001828054611e8e9061318c565b8015611edb5780601f10611eb057610100808354040283529160200191611edb565b820191906000526020600020905b815481529060010190602001808311611ebe57829003601f168201915b50505050509080600c01549080600d015490508e565b8151602081840181018051600a825292820191850191909120919052805482908110611f1c57600080fd5b906000526020600020906005020160009150915050806000018054611f409061318c565b80601f0160208091040260200160405190810160405280929190818152602001828054611f6c9061318c565b8015611fb95780601f10611f8e57610100808354040283529160200191611fb9565b820191906000526020600020905b815481529060010190602001808311611f9c57829003601f168201915b505050505090806001018054611fce9061318c565b80601f0160208091040260200160405190810160405280929190818152602001828054611ffa9061318c565b80156120475780601f1061201c57610100808354040283529160200191612047565b820191906000526020600020905b81548152906001019060200180831161202a57829003601f168201915b505050505090806002015490806003015490806004018054610ffc9061318c565b8151602081840181018051600b825292820191850191909120919052805482908110611f1c57600080fd5b6006602052600090815260409020805460018201546002830154600384015460048501805494959394929391926120c99061318c565b80601f01602080910402602001604051908101604052809291908181526020018280546120f59061318c565b80156121425780601f1061211757610100808354040283529160200191612142565b820191906000526020600020905b81548152906001019060200180831161212557829003601f168201915b5050505050908060050180546121579061318c565b80601f01602080910402602001604051908101604052809291908181526020018280546121839061318c565b80156121d05780601f106121a5576101008083540402835291602001916121d0565b820191906000526020600020905b8154815290600101906020018083116121b357829003601f168201915b5050505050908060060180546121e59061318c565b80601f01602080910402602001604051908101604052809291908181526020018280546122119061318c565b801561225e5780601f106122335761010080835404028352916020019161225e565b820191906000526020600020905b81548152906001019060200180831161224157829003601f168201915b5050506007840154600885018054949560ff9092169491935091506122829061318c565b80601f01602080910402602001604051908101604052809291908181526020018280546122ae9061318c565b80156122fb5780601f106122d0576101008083540402835291602001916122fb565b820191906000526020600020905b8154815290600101906020018083116122de57829003601f168201915b5050505050908060090180546123109061318c565b80601f016020809104026020016040519081016040528092919081815260200182805461233c9061318c565b80156123895780601f1061235e57610100808354040283529160200191612389565b820191906000526020600020905b81548152906001019060200180831161236c57829003601f168201915b50505050509080600a01805461239e9061318c565b80601f01602080910402602001604051908101604052809291908181526020018280546123ca9061318c565b80156124175780601f106123ec57610100808354040283529160200191612417565b820191906000526020600020905b8154815290600101906020018083116123fa57829003601f168201915b50505050509080600b01805461242c9061318c565b80601f01602080910402602001604051908101604052809291908181526020018280546124589061318c565b80156124a55780601f1061247a576101008083540402835291602001916124a5565b820191906000526020600020905b81548152906001019060200180831161248857829003601f168201915b50505050509080600c0180546124ba9061318c565b80601f01602080910402602001604051908101604052809291908181526020018280546124e69061318c565b80156125335780601f1061250857610100808354040283529160200191612533565b820191906000526020600020905b81548152906001019060200180831161251657829003601f168201915b50505050509080600d0180546125489061318c565b80601f01602080910402602001604051908101604052809291908181526020018280546125749061318c565b80156125c15780601f10612596576101008083540402835291602001916125c1565b820191906000526020600020905b8154815290600101906020018083116125a457829003601f168201915b505050505090508e565b6000805b6000548110156126185782600082815481106125ed576125ed6132ed565b9060005260206000200154036126065750600192915050565b8061261081613303565b9150506125cf565b50600092915050565b6000805b600354811015612618578260038281548110612643576126436132ed565b90600052602060002001540361265c5750600192915050565b8061266681613303565b915050612625565b6000805b600254811015612618578260028281548110612690576126906132ed565b9060005260206000200154036126a95750600192915050565b806126b381613303565b915050612672565b6000805b6001548110156126185782600182815481106126dd576126dd6132ed565b9060005260206000200154036126f65750600192915050565b8061270081613303565b9150506126bf565b828054828255906000526020600020908101928215612743579160200282015b82811115612743578251825591602001919060010190612728565b5061274f929150612753565b5090565b5b8082111561274f5760008155600101612754565b634e487b7160e01b600052604160045260246000fd5b604051601f8201601f1916810167ffffffffffffffff811182821017156127a7576127a7612768565b604052919050565b600082601f8301126127c057600080fd5b813567ffffffffffffffff8111156127da576127da612768565b6127ed601f8201601f191660200161277e565b81815284602083860101111561280257600080fd5b816020850160208301376000918101602001919091529392505050565b600080600080600060a0868803121561283757600080fd5b8535945060208601359350604086013567ffffffffffffffff8082111561285d57600080fd5b61286989838a016127af565b9450606088013591508082111561287f57600080fd5b61288b89838a016127af565b935060808801359150808211156128a157600080fd5b506128ae888289016127af565b9150509295509295909350565b600080604083850312156128ce57600080fd5b823567ffffffffffffffff8111156128e557600080fd5b6128f1858286016127af565b95602094909401359450505050565b60005b8381101561291b578181015183820152602001612903565b50506000910152565b6000815180845261293c816020860160208601612900565b601f01601f19169290920160200192915050565b84815283602082015260806040820152600061296f6080830185612924565b82810360608401526129818185612924565b979650505050505050565b600080600080608085870312156129a257600080fd5b84359350602085013567ffffffffffffffff808211156129c157600080fd5b6129cd888389016127af565b945060408701359150808211156129e357600080fd5b6129ef888389016127af565b93506060870135915080821115612a0557600080fd5b50612a12878288016127af565b91505092959194509250565b600060208284031215612a3057600080fd5b813567ffffffffffffffff811115612a4757600080fd5b612a53848285016127af565b949350505050565b60006020808301818452808551808352604092508286019150828160051b87010184880160005b83811015612ae957603f1989840301855281516080815185528882015189860152878201518189870152612ab882870182612924565b91505060608083015192508582038187015250612ad58183612924565b968901969450505090860190600101612a82565b509098975050505050505050565b600060208284031215612b0957600080fd5b5035919050565b6020808252825182820181905260009190848201906040850190845b81811015612b4857835183529284019291840191600101612b2c565b50909695505050505050565b600082601f830112612b6557600080fd5b8135602067ffffffffffffffff821115612b8157612b81612768565b8160051b612b9082820161277e565b9283528481018201928281019087851115612baa57600080fd5b83870192505b8483101561298157823582529183019190830190612bb0565b6000806000806000806000806000806101408b8d031215612be957600080fd5b8a35995060208b0135985060408b013567ffffffffffffffff80821115612c0f57600080fd5b612c1b8e838f01612b54565b995060608d0135985060808d0135915080821115612c3857600080fd5b612c448e838f016127af565b975060a08d0135965060c08d0135915080821115612c6157600080fd5b612c6d8e838f016127af565b955060e08d0135915080821115612c8357600080fd5b612c8f8e838f016127af565b94506101008d0135915080821115612ca657600080fd5b612cb28e838f016127af565b93506101208d0135915080821115612cc957600080fd5b50612cd68d828e016127af565b9150509295989b9194979a5092959850565b848152608060208201526000612d016080830186612924565b8281036040840152612d138186612924565b905082810360608401526129818185612924565b85815284602082015260a060408201526000612d4660a0830186612924565b8460608401528281036080840152612d5e8185612924565b98975050505050505050565b60008060408385031215612d7d57600080fd5b50508035926020909101359150565b60006020808301818452808551808352604092508286019150828160051b87010184880160005b83811015612ae957603f19898403018552815160a08151818652612dd982870182612924565b915050888201518582038a870152612df18282612924565b9150508782015188860152606080830151818701525060808083015192508582038187015250612e218183612924565b968901969450505090860190600101612db3565b600080600060608486031215612e4a57600080fd5b83359250602084013567ffffffffffffffff80821115612e6957600080fd5b612e75878388016127af565b93506040860135915080821115612e8b57600080fd5b50612e98868287016127af565b9150509250925092565b600080600080600060a08688031215612eba57600080fd5b8535945060208601359350604086013567ffffffffffffffff80821115612ee057600080fd5b612eec89838a016127af565b94506060880135935060808801359150808211156128a157600080fd5b600080600080600060a08688031215612f2157600080fd5b85359450602086013567ffffffffffffffff80821115612f4057600080fd5b612f4c89838a016127af565b9550604088013591508082111561285d57600080fd5b8e81528d60208201528c60408201526101c060608201526000612f896101c083018e612924565b8c608084015282810360a0840152612fa1818d612924565b905082810360c0840152612fb5818c612924565b905082810360e0840152612fc9818b612924565b9050828103610100840152612fde818a612924565b905087610120840152612ff661014084018815159052565b8281036101608401526130098187612924565b61018084019590955250506101a001529c9b505050505050505050505050565b60a08152600061303c60a0830188612924565b828103602084015261304e8188612924565b90508560408401528460608401528281036080840152612d5e8185612924565b8e81528d60208201528c60408201528b60608201526101c06080820152600061309b6101c083018d612924565b82810360a08401526130ad818d612924565b905082810360c08401526130c1818c612924565b8a151560e085015290508281036101008401526130de818a612924565b90508281036101208401526130f38189612924565b90508281036101408401526131088188612924565b905082810361016084015261311d8187612924565b90508281036101808401526131328186612924565b90508281036101a08401526131478185612924565b9150509f9e505050505050505050505050505050565b634e487b7160e01b600052601160045260246000fd5b808201808211156131865761318661315d565b92915050565b600181811c908216806131a057607f821691505b6020821081036131c057634e487b7160e01b600052602260045260246000fd5b50919050565b601f82111561320c57600081815260208120601f850160051c810160208610156131ed5750805b601f850160051c820191505b81811015611b4a578281556001016131f9565b505050565b815167ffffffffffffffff81111561322b5761322b612768565b61323f81613239845461318c565b846131c6565b602080601f831160018114613274576000841561325c5750858301515b600019600386901b1c1916600185901b178555611b4a565b600085815260208120601f198616915b828110156132a357888601518255948401946001909101908401613284565b50858210156132c15787850151600019600388901b60f8161c191681555b5050505050600190811b01905550565b600082516132e3818460208701612900565b9190910192915050565b634e487b7160e01b600052603260045260246000fd5b6000600182016133155761331561315d565b5060010190565b818103818111156131865761318661315d565b600080835461333d8161318c565b60018281168015613355576001811461336a57613399565b60ff1984168752821515830287019450613399565b8760005260208060002060005b858110156133905781548a820152908401908201613377565b50505082870194505b5092969550505050505056fea26469706673582212205775dc56e1deb3ef68a505b51c6b8ed0420529eed47dda3c35aba20cd7c2d3d664736f6c63430008110033",
  "linkReferences": {},
  "deployedLinkReferences": {}
}