{
  "_format": "hh-sol-artifact-1",
  "contractName": "Supplychain",
  "sourceName": "contracts/Supplychain.sol",
  "abi": [
    {
      "inputs": [
        {
          "internalType": "uint256",
          "name": "",
          "type": "uint256"
        },
        {
          "internalType": "uint256",
          "name": "",
          "type": "uint256"
        }
      ],
      "name": "BatchIDToProductIDMapping",
      "outputs": [
        {
          "internalType": "uint256",
          "name": "",
          "type": "uint256"
        }
      ],
      "stateMutability": "view",
      "type": "function"
    },
    {
      "inputs": [
        {
          "internalType": "uint256",
          "name": "",
          "type": "uint256"
        }
      ],
      "name": "BatchIDs",
      "outputs": [
        {
          "internalType": "uint256",
          "name": "",
          "type": "uint256"
        }
      ],
      "stateMutability": "view",
      "type": "function"
    },
    {
      "inputs": [
        {
          "internalType": "uint256",
          "name": "",
          "type": "uint256"
        }
      ],
      "name": "BatchMapping",
      "outputs": [
        {
          "internalType": "uint256",
          "name": "BatchID",
          "type": "uint256"
        },
        {
          "internalType": "uint256",
          "name": "BatchSize",
          "type": "uint256"
        },
        {
          "internalType": "uint256",
          "name": "AmountSoldTOCustomer",
          "type": "uint256"
        },
        {
          "internalType": "string",
          "name": "BatchDescription",
          "type": "string"
        },
        {
          "internalType": "uint256",
          "name": "ProductTemplateID",
          "type": "uint256"
        },
        {
          "internalType": "string",
          "name": "FactoryID",
          "type": "string"
        },
        {
          "internalType": "string",
          "name": "DistributorID",
          "type": "string"
        },
        {
          "internalType": "string",
          "name": "DistributorName",
          "type": "string"
        },
        {
          "internalType": "string",
          "name": "FactoryLocation",
          "type": "string"
        },
        {
          "internalType": "string",
          "name": "DateOfProduction",
          "type": "string"
        },
        {
          "internalType": "bool",
          "name": "DistributorScanned",
          "type": "bool"
        },
        {
          "internalType": "string",
          "name": "DistributorScannedTimeStamp",
          "type": "string"
        },
        {
          "internalType": "uint256",
          "name": "AmountLeftForSellingTORetailer",
          "type": "uint256"
        },
        {
          "internalType": "uint256",
          "name": "CompanyBatchID",
          "type": "uint256"
        }
      ],
      "stateMutability": "view",
      "type": "function"
    },
    {
      "inputs": [
        {
          "internalType": "uint256",
          "name": "",
          "type": "uint256"
        }
      ],
      "name": "BatchTemplateIDs",
      "outputs": [
        {
          "internalType": "uint256",
          "name": "",
          "type": "uint256"
        }
      ],
      "stateMutability": "view",
      "type": "function"
    },
    {
      "inputs": [
        {
          "internalType": "uint256",
          "name": "",
          "type": "uint256"
        }
      ],
      "name": "BatchTemplateMAP",
      "outputs": [
        {
          "internalType": "uint256",
          "name": "BatchTemplateID",
          "type": "uint256"
        },
        {
          "internalType": "uint256",
          "name": "ProductTemplateID",
          "type": "uint256"
        },
        {
          "internalType": "string",
          "name": "Description",
          "type": "string"
        },
        {
          "internalType": "uint256",
          "name": "BatchSize",
          "type": "uint256"
        },
        {
          "internalType": "string",
          "name": "FactoryID",
          "type": "string"
        }
      ],
      "stateMutability": "view",
      "type": "function"
    },
    {
      "inputs": [
        {
          "internalType": "string",
          "name": "",
          "type": "string"
        },
        {
          "internalType": "uint256",
          "name": "",
          "type": "uint256"
        }
      ],
      "name": "CustomerData",
      "outputs": [
        {
          "internalType": "uint256",
          "name": "ProductID",
          "type": "uint256"
        },
        {
          "internalType": "string",
          "name": "CustomerID",
          "type": "string"
        },
        {
          "internalType": "string",
          "name": "CustomerName",
          "type": "string"
        }
      ],
      "stateMutability": "view",
      "type": "function"
    },
    {
      "inputs": [
        {
          "internalType": "string",
          "name": "",
          "type": "string"
        },
        {
          "internalType": "uint256",
          "name": "",
          "type": "uint256"
        }
      ],
      "name": "DistributorIDToRetailerStruct",
      "outputs": [
        {
          "internalType": "string",
          "name": "DistributorID",
          "type": "string"
        },
        {
          "internalType": "string",
          "name": "RetailerID",
          "type": "string"
        },
        {
          "internalType": "uint256",
          "name": "BatchID",
          "type": "uint256"
        },
        {
          "internalType": "uint256",
          "name": "Quantity",
          "type": "uint256"
        },
        {
          "internalType": "string",
          "name": "TimeStamp",
          "type": "string"
        }
      ],
      "stateMutability": "view",
      "type": "function"
    },
    {
      "inputs": [
        {
          "internalType": "uint256",
          "name": "",
          "type": "uint256"
        }
      ],
      "name": "ProductIDs",
      "outputs": [
        {
          "internalType": "uint256",
          "name": "",
          "type": "uint256"
        }
      ],
      "stateMutability": "view",
      "type": "function"
    },
    {
      "inputs": [
        {
          "internalType": "uint256",
          "name": "",
          "type": "uint256"
        }
      ],
      "name": "ProductMapping",
      "outputs": [
        {
          "internalType": "uint256",
          "name": "ProductID",
          "type": "uint256"
        },
        {
          "internalType": "uint256",
          "name": "CompanyProductID",
          "type": "uint256"
        },
        {
          "internalType": "uint256",
          "name": "BatchID",
          "type": "uint256"
        },
        {
          "internalType": "uint256",
          "name": "ProductTemplateID",
          "type": "uint256"
        },
        {
          "internalType": "string",
          "name": "DOM",
          "type": "string"
        },
        {
          "internalType": "string",
          "name": "CustomerID",
          "type": "string"
        },
        {
          "internalType": "string",
          "name": "RetailerID",
          "type": "string"
        },
        {
          "internalType": "bool",
          "name": "RetailerScanned",
          "type": "bool"
        },
        {
          "internalType": "string",
          "name": "RetailerScannedTimeStamp",
          "type": "string"
        },
        {
          "internalType": "string",
          "name": "DateWhenSoldToRetailer",
          "type": "string"
        },
        {
          "internalType": "string",
          "name": "DateWhenSoldToCustomer",
          "type": "string"
        },
        {
          "internalType": "string",
          "name": "RetailerLatitude",
          "type": "string"
        },
        {
          "internalType": "string",
          "name": "RetailerLongitude",
          "type": "string"
        },
        {
          "internalType": "string",
          "name": "CustomerName",
          "type": "string"
        }
      ],
      "stateMutability": "view",
      "type": "function"
    },
    {
      "inputs": [
        {
          "internalType": "uint256",
          "name": "",
          "type": "uint256"
        }
      ],
      "name": "ProductTemplateIDs",
      "outputs": [
        {
          "internalType": "uint256",
          "name": "",
          "type": "uint256"
        }
      ],
      "stateMutability": "view",
      "type": "function"
    },
    {
      "inputs": [
        {
          "internalType": "uint256",
          "name": "",
          "type": "uint256"
        }
      ],
      "name": "ProductTemplateMAP",
      "outputs": [
        {
          "internalType": "uint256",
          "name": "ProductTemplateID",
          "type": "uint256"
        },
        {
          "internalType": "string",
          "name": "Name",
          "type": "string"
        },
        {
          "internalType": "string",
          "name": "Description",
          "type": "string"
        },
        {
          "internalType": "string",
          "name": "FactoryID",
          "type": "string"
        }
      ],
      "stateMutability": "view",
      "type": "function"
    },
    {
      "inputs": [
        {
          "internalType": "string",
          "name": "",
          "type": "string"
        },
        {
          "internalType": "uint256",
          "name": "",
          "type": "uint256"
        }
      ],
      "name": "RetailerIDToRetailerStruct",
      "outputs": [
        {
          "internalType": "string",
          "name": "DistributorID",
          "type": "string"
        },
        {
          "internalType": "string",
          "name": "RetailerID",
          "type": "string"
        },
        {
          "internalType": "uint256",
          "name": "BatchID",
          "type": "uint256"
        },
        {
          "internalType": "uint256",
          "name": "Quantity",
          "type": "uint256"
        },
        {
          "internalType": "string",
          "name": "TimeStamp",
          "type": "string"
        }
      ],
      "stateMutability": "view",
      "type": "function"
    },
    {
      "inputs": [
        {
          "internalType": "uint256",
          "name": "_batchTemplateID",
          "type": "uint256"
        },
        {
          "internalType": "uint256",
          "name": "_productTemplateID",
          "type": "uint256"
        },
        {
          "internalType": "string",
          "name": "_description",
          "type": "string"
        },
        {
          "internalType": "uint256",
          "name": "_batchSize",
          "type": "uint256"
        },
        {
          "internalType": "string",
          "name": "_factoryID",
          "type": "string"
        }
      ],
      "name": "addBatchTemplate",
      "outputs": [],
      "stateMutability": "nonpayable",
      "type": "function"
    },
    {
      "inputs": [
        {
          "internalType": "uint256",
          "name": "_productTemplateID",
          "type": "uint256"
        },
        {
          "internalType": "string",
          "name": "_name",
          "type": "string"
        },
        {
          "internalType": "string",
          "name": "_description",
          "type": "string"
        },
        {
          "internalType": "string",
          "name": "_factoryID",
          "type": "string"
        }
      ],
      "name": "addProductTemplate",
      "outputs": [],
      "stateMutability": "nonpayable",
      "type": "function"
    },
    {
      "inputs": [
        {
          "internalType": "uint256",
          "name": "batchID",
          "type": "uint256"
        },
        {
          "internalType": "uint256",
          "name": "companyBatchID",
          "type": "uint256"
        },
        {
          "internalType": "uint256[]",
          "name": "productIDs",
          "type": "uint256[]"
        },
        {
          "internalType": "uint256",
          "name": "batchSize",
          "type": "uint256"
        },
        {
          "internalType": "string",
          "name": "batchDescription",
          "type": "string"
        },
        {
          "internalType": "uint256",
          "name": "productTemplateID",
          "type": "uint256"
        },
        {
          "internalType": "string",
          "name": "factory",
          "type": "string"
        },
        {
          "internalType": "string",
          "name": "distributor",
          "type": "string"
        },
        {
          "internalType": "string",
          "name": "distributorName",
          "type": "string"
        },
        {
          "internalType": "string",
          "name": "factoryLocation",
          "type": "string"
        },
        {
          "internalType": "string",
          "name": "dateOfProduction",
          "type": "string"
        }
      ],
      "name": "batchProduced",
      "outputs": [],
      "stateMutability": "nonpayable",
      "type": "function"
    },
    {
      "inputs": [
        {
          "internalType": "uint256",
          "name": "batchID",
          "type": "uint256"
        },
        {
          "internalType": "string",
          "name": "_distributorID",
          "type": "string"
        },
        {
          "internalType": "string",
          "name": "timeStamp",
          "type": "string"
        }
      ],
      "name": "distributorScansBatch",
      "outputs": [],
      "stateMutability": "nonpayable",
      "type": "function"
    },
    {
      "inputs": [
        {
          "internalType": "uint256",
          "name": "batchID",
          "type": "uint256"
        },
        {
          "internalType": "uint256",
          "name": "quantity",
          "type": "uint256"
        }
      ],
      "name": "distributorSellToRetailer",
      "outputs": [],
      "stateMutability": "nonpayable",
      "type": "function"
    },
    {
      "inputs": [],
      "name": "getAllBatchIDs",
      "outputs": [
        {
          "internalType": "uint256[]",
          "name": "",
          "type": "uint256[]"
        }
      ],
      "stateMutability": "view",
      "type": "function"
    },
    {
      "inputs": [],
      "name": "getAllBatchTemplateIDs",
      "outputs": [
        {
          "internalType": "uint256[]",
          "name": "",
          "type": "uint256[]"
        }
      ],
      "stateMutability": "view",
      "type": "function"
    },
    {
      "inputs": [],
      "name": "getAllProductIDs",
      "outputs": [
        {
          "internalType": "uint256[]",
          "name": "",
          "type": "uint256[]"
        }
      ],
      "stateMutability": "view",
      "type": "function"
    },
    {
      "inputs": [],
      "name": "getAllProductTemplateIDs",
      "outputs": [
        {
          "internalType": "uint256[]",
          "name": "",
          "type": "uint256[]"
        }
      ],
      "stateMutability": "view",
      "type": "function"
    },
    {
      "inputs": [
        {
          "internalType": "string",
          "name": "customerID",
          "type": "string"
        }
      ],
      "name": "getAllProductsBought",
      "outputs": [
        {
          "components": [
            {
              "internalType": "uint256",
              "name": "ProductID",
              "type": "uint256"
            },
            {
              "internalType": "string",
              "name": "CustomerID",
              "type": "string"
            },
            {
              "internalType": "string",
              "name": "CustomerName",
              "type": "string"
            }
          ],
          "internalType": "struct Supplychain.Customer[]",
          "name": "",
          "type": "tuple[]"
        }
      ],
      "stateMutability": "view",
      "type": "function"
    },
    {
      "inputs": [
        {
          "internalType": "string",
          "name": "distributorID",
          "type": "string"
        }
      ],
      "name": "getDistributorIDToRetailerStruct",
      "outputs": [
        {
          "components": [
            {
              "internalType": "string",
              "name": "DistributorID",
              "type": "string"
            },
            {
              "internalType": "string",
              "name": "RetailerID",
              "type": "string"
            },
            {
              "internalType": "uint256",
              "name": "BatchID",
              "type": "uint256"
            },
            {
              "internalType": "uint256",
              "name": "Quantity",
              "type": "uint256"
            },
            {
              "internalType": "string",
              "name": "TimeStamp",
              "type": "string"
            }
          ],
          "internalType": "struct Supplychain.Retailer[]",
          "name": "",
          "type": "tuple[]"
        }
      ],
      "stateMutability": "view",
      "type": "function"
    },
    {
      "inputs": [
        {
          "internalType": "uint256",
          "name": "batchID",
          "type": "uint256"
        }
      ],
      "name": "getProductIdsForaBatch",
      "outputs": [
        {
          "internalType": "uint256[]",
          "name": "",
          "type": "uint256[]"
        }
      ],
      "stateMutability": "view",
      "type": "function"
    },
    {
      "inputs": [
        {
          "internalType": "string",
          "name": "retailerID",
          "type": "string"
        }
      ],
      "name": "getRetailerIDToRetailerStruct",
      "outputs": [
        {
          "components": [
            {
              "internalType": "string",
              "name": "DistributorID",
              "type": "string"
            },
            {
              "internalType": "string",
              "name": "RetailerID",
              "type": "string"
            },
            {
              "internalType": "uint256",
              "name": "BatchID",
              "type": "uint256"
            },
            {
              "internalType": "uint256",
              "name": "Quantity",
              "type": "uint256"
            },
            {
              "internalType": "string",
              "name": "TimeStamp",
              "type": "string"
            }
          ],
          "internalType": "struct Supplychain.Retailer[]",
          "name": "",
          "type": "tuple[]"
        }
      ],
      "stateMutability": "view",
      "type": "function"
    },
    {
      "inputs": [
        {
          "internalType": "uint256",
          "name": "_productID",
          "type": "uint256"
        },
        {
          "internalType": "string",
          "name": "_retailerID",
          "type": "string"
        },
        {
          "internalType": "string",
          "name": "timeStamp",
          "type": "string"
        },
        {
          "internalType": "string",
          "name": "latitude",
          "type": "string"
        },
        {
          "internalType": "string",
          "name": "longitude",
          "type": "string"
        }
      ],
      "name": "retailerScansProduct",
      "outputs": [],
      "stateMutability": "nonpayable",
      "type": "function"
    },
    {
      "inputs": [
        {
          "internalType": "uint256",
          "name": "productID",
          "type": "uint256"
        },
        {
          "internalType": "string",
          "name": "customerID",
          "type": "string"
        },
        {
          "internalType": "string",
          "name": "customerName",
          "type": "string"
        }
      ],
      "name": "retailerSellToCustomer",
      "outputs": [],
      "stateMutability": "nonpayable",
      "type": "function"
    }
  ],
  "bytecode": "0x608060405234801561001057600080fd5b50613576806100206000396000f3fe608060405234801561001057600080fd5b50600436106101a95760003560e01c80638272d34b116100f9578063a7a4523d11610097578063bf801df111610071578063bf801df1146103a7578063e139f994146103d4578063e3c6a4ac146103f8578063eac0e9771461040b57600080fd5b8063a7a4523d1461036e578063ab6e3ec514610381578063b5a9d6bb1461039457600080fd5b80638e5452b8116100d35780638e5452b81461032257806390973cce1461033557806398a473f114610348578063a78317f81461035b57600080fd5b80638272d34b146102f45780638bd42880146103075780638c4c42cd1461031a57600080fd5b80634c27729c11610166578063793560dd11610140578063793560dd146102955780637ae4ee041461029d5780637c0fac7f146102c15780637f7bf690146102d457600080fd5b80634c27729c146102575780634ca20f341461025f57806371d1dc0c1461027257600080fd5b806321f29391146101ae578063278338e8146101d9578063284328d0146101ee578063392a70a61461020e5780633ab95f301461022e5780633b7d255c1461024f575b600080fd5b6101c16101bc3660046129ac565b610438565b6040516101d093929190612a41565b60405180910390f35b6101ec6101e7366004612a76565b61059e565b005b6102016101fc366004612b08565b6106c1565b6040516101d09190612b45565b61022161021c366004612bd6565b61086c565b6040516101d09190612bef565b61024161023c366004612bd6565b6108ce565b6040519081526020016101d0565b6102216108ef565b610221610947565b61024161026d366004612bd6565b61099d565b610285610280366004612bd6565b6109ad565b6040516101d09493929190612c33565b610221610b6e565b6102b06102ab366004612bd6565b610bc4565b6040516101d0959493929190612c7d565b6101ec6102cf366004612cc0565b610d03565b6102e76102e2366004612b08565b610e10565b6040516101d09190612ce2565b6101ec610302366004612d8b565b61104c565b610241610315366004612bd6565b6111a4565b6102216111b4565b6101ec610330366004612df8565b61120a565b610241610343366004612cc0565b6113a4565b6101ec610356366004612d8b565b6113d5565b610241610369366004612bd6565b61148e565b6102e761037c366004612b08565b61149e565b6101ec61038f366004612e79565b6116da565b6101ec6103a2366004612f8b565b611877565b6103ba6103b5366004612bd6565b611bef565b6040516101d09e9d9c9b9a999897969594939291906130db565b6103e76103e23660046129ac565b612017565b6040516101d09594939291906131aa565b6103e76104063660046129ac565b61218e565b61041e610419366004612bd6565b6121b9565b6040516101d09e9d9c9b9a999897969594939291906131ef565b8151602081840181018051600982529282019185019190912091905280548290811061046357600080fd5b90600052602060002090600302016000915091505080600001549080600101805461048d906132de565b80601f01602080910402602001604051908101604052809291908181526020018280546104b9906132de565b80156105065780601f106104db57610100808354040283529160200191610506565b820191906000526020600020905b8154815290600101906020018083116104e957829003601f168201915b50505050509080600201805461051b906132de565b80601f0160208091040260200160405190810160405280929190818152602001828054610547906132de565b80156105945780601f1061056957610100808354040283529160200191610594565b820191906000526020600020905b81548152906001019060200180831161057757829003601f168201915b5050505050905083565b6105a7846126f1565b156106155760405162461bcd60e51b815260206004820152603360248201527f546869732050726f6475637454656d706c617465494420616c72656164792065604482015272786973747320696e207468652073797374656d60681b60648201526084015b60405180910390fd5b6040805160808101825285815260208082018681528284018690526060830185905260008881526004909252929020815181559151909190600182019061065c9082613363565b50604082015160028201906106719082613363565b50606082015160038201906106869082613363565b5050600080546001810182559080527f290decd9548b62a8d60345a988386fc84ba6bc95484008f6362f93160ef3e563019490945550505050565b60606009826040516106d39190613423565b9081526020016040518091039020805480602002602001604051908101604052809291908181526020016000905b8282101561086157838290600052602060002090600302016040518060600160405290816000820154815260200160018201805461073e906132de565b80601f016020809104026020016040519081016040528092919081815260200182805461076a906132de565b80156107b75780601f1061078c576101008083540402835291602001916107b7565b820191906000526020600020905b81548152906001019060200180831161079a57829003601f168201915b505050505081526020016002820180546107d0906132de565b80601f01602080910402602001604051908101604052809291908181526020018280546107fc906132de565b80156108495780601f1061081e57610100808354040283529160200191610849565b820191906000526020600020905b81548152906001019060200180831161082c57829003601f168201915b50505050508152505081526020019060010190610701565b505050509050919050565b6000818152600860209081526040918290208054835181840281018401909452808452606093928301828280156108c257602002820191906000526020600020905b8154815260200190600101908083116108ae575b50505050509050919050565b600081815481106108de57600080fd5b600091825260209091200154905081565b6060600080548060200260200160405190810160405280929190818152602001828054801561093d57602002820191906000526020600020905b815481526020019060010190808311610929575b5050505050905090565b6060600180548060200260200160405190810160405280929190818152602001828054801561093d5760200282019190600052602060002090815481526020019060010190808311610929575050505050905090565b600181815481106108de57600080fd5b600460205260009081526040902080546001820180549192916109cf906132de565b80601f01602080910402602001604051908101604052809291908181526020018280546109fb906132de565b8015610a485780601f10610a1d57610100808354040283529160200191610a48565b820191906000526020600020905b815481529060010190602001808311610a2b57829003601f168201915b505050505090806002018054610a5d906132de565b80601f0160208091040260200160405190810160405280929190818152602001828054610a89906132de565b8015610ad65780601f10610aab57610100808354040283529160200191610ad6565b820191906000526020600020905b815481529060010190602001808311610ab957829003601f168201915b505050505090806003018054610aeb906132de565b80601f0160208091040260200160405190810160405280929190818152602001828054610b17906132de565b8015610b645780601f10610b3957610100808354040283529160200191610b64565b820191906000526020600020905b815481529060010190602001808311610b4757829003601f168201915b5050505050905084565b6060600380548060200260200160405190810160405280929190818152602001828054801561093d5760200282019190600052602060002090815481526020019060010190808311610929575050505050905090565b60056020526000908152604090208054600182015460028301805492939192610bec906132de565b80601f0160208091040260200160405190810160405280929190818152602001828054610c18906132de565b8015610c655780601f10610c3a57610100808354040283529160200191610c65565b820191906000526020600020905b815481529060010190602001808311610c4857829003601f168201915b505050505090806003015490806004018054610c80906132de565b80601f0160208091040260200160405190810160405280929190818152602001828054610cac906132de565b8015610cf95780601f10610cce57610100808354040283529160200191610cf9565b820191906000526020600020905b815481529060010190602001808311610cdc57829003601f168201915b5050505050905085565b6000828152600760205260409020600c015481811015610d955760405162461bcd60e51b815260206004820152604160248201527f5175616e746974792069732067726561746572207468616e2074686520616d6f60448201527f756e74206c65667420746f20626520736f6c6420696e207468697320626174636064820152600d60fb1b608482015260a40161060c565b60008211610de55760405162461bcd60e51b815260206004820152601760248201527f5175616e746974792063616e6e6f74206265207a65726f000000000000000000604482015260640161060c565b6000838152600760205260408120600c018054849290610e06908490613455565b9091555050505050565b6060600a82604051610e229190613423565b9081526020016040518091039020805480602002602001604051908101604052809291908181526020016000905b8282101561086157838290600052602060002090600502016040518060a0016040529081600082018054610e83906132de565b80601f0160208091040260200160405190810160405280929190818152602001828054610eaf906132de565b8015610efc5780601f10610ed157610100808354040283529160200191610efc565b820191906000526020600020905b815481529060010190602001808311610edf57829003601f168201915b50505050508152602001600182018054610f15906132de565b80601f0160208091040260200160405190810160405280929190818152602001828054610f41906132de565b8015610f8e5780601f10610f6357610100808354040283529160200191610f8e565b820191906000526020600020905b815481529060010190602001808311610f7157829003601f168201915b505050505081526020016002820154815260200160038201548152602001600482018054610fbb906132de565b80601f0160208091040260200160405190810160405280929190818152602001828054610fe7906132de565b80156110345780601f1061100957610100808354040283529160200191611034565b820191906000526020600020905b81548152906001019060200180831161101757829003601f168201915b50505050508152505081526020019060010190610e50565b6000838152600760205260409020600a015460ff16156110c75760405162461bcd60e51b815260206004820152603060248201527f5468697320626174636820697320616c7265616479207363616e6e656420627960448201526f103a3432903234b9ba3934b13aba37b960811b606482015260840161060c565b6000838152600760205260409020600601805461116b91906110e8906132de565b80601f0160208091040260200160405190810160405280929190818152602001828054611114906132de565b80156111615780601f1061113657610100808354040283529160200191611161565b820191906000526020600020905b81548152906001019060200180831161114457829003601f168201915b5050505050612747565b61117482612747565b6000838152600760205260409020600a8101805460ff19166001179055600b0161119e8282613363565b50505050565b600381815481106108de57600080fd5b6060600280548060200260200160405190810160405280929190818152602001828054801561093d5760200282019190600052602060002090815481526020019060010190808311610929575050505050905090565b6112138561278d565b1561127a5760405162461bcd60e51b815260206004820152603160248201527f5468697320426174636854656d706c617465494420616c72656164792065786960448201527073747320696e207468652073797374656d60781b606482015260840161060c565b611283846126f1565b15156001146112f15760405162461bcd60e51b815260206004820152603460248201527f546869732050726f6475637454656d706c617465494420646f6573206e6f742060448201527365786973747320696e207468652073797374656d60601b606482015260840161060c565b6040805160a0810182528681526020808201878152828401878152606084018790526080840186905260008a81526005909352939091208251815590516001820155915190919060028201906113479082613363565b5060608201516003820155608082015160048201906113669082613363565b50506001805480820182556000919091527fb10e2d527612073b26eecdfd717e6a320cf44b4afac2b0732d9fcbe2b7fa0cf601959095555050505050565b600860205281600052604060002081815481106113c057600080fd5b90600052602060002001600091509150505481565b60008381526006602090815260408083206002908101548452600790925282200180546001929061140790849061346e565b909155505060405160099061141d908490613423565b90815260408051918290036020908101832060608401835286845283820186815292840185905280546001818101835560009283529290912084516003909202019081559151908201906114719082613363565b50604082015160028201906114869082613363565b505050505050565b600281815481106108de57600080fd5b6060600b826040516114b09190613423565b9081526020016040518091039020805480602002602001604051908101604052809291908181526020016000905b8282101561086157838290600052602060002090600502016040518060a0016040529081600082018054611511906132de565b80601f016020809104026020016040519081016040528092919081815260200182805461153d906132de565b801561158a5780601f1061155f5761010080835404028352916020019161158a565b820191906000526020600020905b81548152906001019060200180831161156d57829003601f168201915b505050505081526020016001820180546115a3906132de565b80601f01602080910402602001604051908101604052809291908181526020018280546115cf906132de565b801561161c5780601f106115f15761010080835404028352916020019161161c565b820191906000526020600020905b8154815290600101906020018083116115ff57829003601f168201915b505050505081526020016002820154815260200160038201548152602001600482018054611649906132de565b80601f0160208091040260200160405190810160405280929190818152602001828054611675906132de565b80156116c25780601f10611697576101008083540402835291602001916116c2565b820191906000526020600020905b8154815290600101906020018083116116a557829003601f168201915b505050505081525050815260200190600101906114de565b60008581526006602052604090206007015460ff16156117525760405162461bcd60e51b815260206004820152602d60248201527f5468697320626174636820697320616c7265616479207363616e6e656420627960448201526c103a3432903932ba30b4b632b960991b606482015260840161060c565b836040516020016117639190613423565b604051602081830303815290604052805190602001206006600087815260200190815260200160002060060160405160200161179f9190613481565b60405160208183030381529060405280519060200120146118155760405162461bcd60e51b815260206004820152602a60248201527f546869732070726f64756374206973206e6f74206f776e65642062792074686960448201526939903932ba30b4b632b960b11b606482015260840161060c565b600085815260066020526040902060078101805460ff1916600117905560080161183f8482613363565b506000858152600660205260409020600b0161185b8382613363565b506000858152600660205260409020600c016114868282613363565b6118808b6127da565b156118d95760405162461bcd60e51b8152602060048201526024808201527f4261746368494420616c72656164792065786973747320696e207468652073796044820152637374656d60e01b606482015260840161060c565b8789511461194f5760405162461bcd60e51b815260206004820152603760248201527f53697a65206f662070726f6475637449447320617272617920646f6573206e6f60448201527f74206d6174636820776974682042617463682073697a65000000000000000000606482015260840161060c565b604051806101c001604052808c8152602001898152602001600081526020018881526020018781526020018681526020018581526020018481526020018381526020018281526020016000151581526020016040518060200160405280600081525081526020018981526020018b815250600760008d81526020019081526020016000206000820151816000015560208201518160010155604082015181600201556060820151816003019081611a069190613363565b506080820151600482015560a08201516005820190611a259082613363565b5060c08201516006820190611a3a9082613363565b5060e08201516007820190611a4f9082613363565b506101008201516008820190611a659082613363565b506101208201516009820190611a7b9082613363565b50610140820151600a8201805460ff1916911515919091179055610160820151600b820190611aaa9082613363565b50610180820151600c8201556101a090910151600d9091015560038054600181019091557fc2575a0e9e593c00f959f8c92f12db2869c3395a3b0502d05e2516446f71f85b018b905560008b81526008602090815260409091208a51611b12928c0190612895565b5060005b88811015611be157611b408a8281518110611b3357611b336134f7565b6020026020010151612827565b15611b9c5760405162461bcd60e51b815260206004820152602660248201527f50726f64756374494420616c72656164792065786973747320696e207468652060448201526573797374656d60d01b606482015260840161060c565b60028a8281518110611bb057611bb06134f7565b6020908102919091018101518254600181018455600093845291909220015580611bd98161350d565b915050611b16565b505050505050505050505050565b600760205260009081526040902080546001820154600283015460038401805493949293919291611c1f906132de565b80601f0160208091040260200160405190810160405280929190818152602001828054611c4b906132de565b8015611c985780601f10611c6d57610100808354040283529160200191611c98565b820191906000526020600020905b815481529060010190602001808311611c7b57829003601f168201915b505050505090806004015490806005018054611cb3906132de565b80601f0160208091040260200160405190810160405280929190818152602001828054611cdf906132de565b8015611d2c5780601f10611d0157610100808354040283529160200191611d2c565b820191906000526020600020905b815481529060010190602001808311611d0f57829003601f168201915b505050505090806006018054611d41906132de565b80601f0160208091040260200160405190810160405280929190818152602001828054611d6d906132de565b8015611dba5780601f10611d8f57610100808354040283529160200191611dba565b820191906000526020600020905b815481529060010190602001808311611d9d57829003601f168201915b505050505090806007018054611dcf906132de565b80601f0160208091040260200160405190810160405280929190818152602001828054611dfb906132de565b8015611e485780601f10611e1d57610100808354040283529160200191611e48565b820191906000526020600020905b815481529060010190602001808311611e2b57829003601f168201915b505050505090806008018054611e5d906132de565b80601f0160208091040260200160405190810160405280929190818152602001828054611e89906132de565b8015611ed65780601f10611eab57610100808354040283529160200191611ed6565b820191906000526020600020905b815481529060010190602001808311611eb957829003601f168201915b505050505090806009018054611eeb906132de565b80601f0160208091040260200160405190810160405280929190818152602001828054611f17906132de565b8015611f645780601f10611f3957610100808354040283529160200191611f64565b820191906000526020600020905b815481529060010190602001808311611f4757829003601f168201915b505050600a840154600b85018054949560ff909216949193509150611f88906132de565b80601f0160208091040260200160405190810160405280929190818152602001828054611fb4906132de565b80156120015780601f10611fd657610100808354040283529160200191612001565b820191906000526020600020905b815481529060010190602001808311611fe457829003601f168201915b50505050509080600c01549080600d015490508e565b8151602081840181018051600a82529282019185019190912091905280548290811061204257600080fd5b906000526020600020906005020160009150915050806000018054612066906132de565b80601f0160208091040260200160405190810160405280929190818152602001828054612092906132de565b80156120df5780601f106120b4576101008083540402835291602001916120df565b820191906000526020600020905b8154815290600101906020018083116120c257829003601f168201915b5050505050908060010180546120f4906132de565b80601f0160208091040260200160405190810160405280929190818152602001828054612120906132de565b801561216d5780601f106121425761010080835404028352916020019161216d565b820191906000526020600020905b81548152906001019060200180831161215057829003601f168201915b505050505090806002015490806003015490806004018054610c80906132de565b8151602081840181018051600b82529282019185019190912091905280548290811061204257600080fd5b6006602052600090815260409020805460018201546002830154600384015460048501805494959394929391926121ef906132de565b80601f016020809104026020016040519081016040528092919081815260200182805461221b906132de565b80156122685780601f1061223d57610100808354040283529160200191612268565b820191906000526020600020905b81548152906001019060200180831161224b57829003601f168201915b50505050509080600501805461227d906132de565b80601f01602080910402602001604051908101604052809291908181526020018280546122a9906132de565b80156122f65780601f106122cb576101008083540402835291602001916122f6565b820191906000526020600020905b8154815290600101906020018083116122d957829003601f168201915b50505050509080600601805461230b906132de565b80601f0160208091040260200160405190810160405280929190818152602001828054612337906132de565b80156123845780601f1061235957610100808354040283529160200191612384565b820191906000526020600020905b81548152906001019060200180831161236757829003601f168201915b5050506007840154600885018054949560ff9092169491935091506123a8906132de565b80601f01602080910402602001604051908101604052809291908181526020018280546123d4906132de565b80156124215780601f106123f657610100808354040283529160200191612421565b820191906000526020600020905b81548152906001019060200180831161240457829003601f168201915b505050505090806009018054612436906132de565b80601f0160208091040260200160405190810160405280929190818152602001828054612462906132de565b80156124af5780601f10612484576101008083540402835291602001916124af565b820191906000526020600020905b81548152906001019060200180831161249257829003601f168201915b50505050509080600a0180546124c4906132de565b80601f01602080910402602001604051908101604052809291908181526020018280546124f0906132de565b801561253d5780601f106125125761010080835404028352916020019161253d565b820191906000526020600020905b81548152906001019060200180831161252057829003601f168201915b50505050509080600b018054612552906132de565b80601f016020809104026020016040519081016040528092919081815260200182805461257e906132de565b80156125cb5780601f106125a0576101008083540402835291602001916125cb565b820191906000526020600020905b8154815290600101906020018083116125ae57829003601f168201915b50505050509080600c0180546125e0906132de565b80601f016020809104026020016040519081016040528092919081815260200182805461260c906132de565b80156126595780601f1061262e57610100808354040283529160200191612659565b820191906000526020600020905b81548152906001019060200180831161263c57829003601f168201915b50505050509080600d01805461266e906132de565b80601f016020809104026020016040519081016040528092919081815260200182805461269a906132de565b80156126e75780601f106126bc576101008083540402835291602001916126e7565b820191906000526020600020905b8154815290600101906020018083116126ca57829003601f168201915b505050505090508e565b6000805b60005481101561273e578260008281548110612713576127136134f7565b90600052602060002001540361272c5750600192915050565b806127368161350d565b9150506126f5565b50600092915050565b61278a8160405160240161275b9190613526565b60408051601f198184030181529190526020810180516001600160e01b031663104c13eb60e21b179052612874565b50565b6000805b60015481101561273e5782600182815481106127af576127af6134f7565b9060005260206000200154036127c85750600192915050565b806127d28161350d565b915050612791565b6000805b60035481101561273e5782600382815481106127fc576127fc6134f7565b9060005260206000200154036128155750600192915050565b8061281f8161350d565b9150506127de565b6000805b60025481101561273e578260028281548110612849576128496134f7565b9060005260206000200154036128625750600192915050565b8061286c8161350d565b91505061282b565b80516a636f6e736f6c652e6c6f67602083016000808483855afa5050505050565b8280548282559060005260206000209081019282156128d0579160200282015b828111156128d05782518255916020019190600101906128b5565b506128dc9291506128e0565b5090565b5b808211156128dc57600081556001016128e1565b634e487b7160e01b600052604160045260246000fd5b604051601f8201601f1916810167ffffffffffffffff81118282101715612934576129346128f5565b604052919050565b600082601f83011261294d57600080fd5b813567ffffffffffffffff811115612967576129676128f5565b61297a601f8201601f191660200161290b565b81815284602083860101111561298f57600080fd5b816020850160208301376000918101602001919091529392505050565b600080604083850312156129bf57600080fd5b823567ffffffffffffffff8111156129d657600080fd5b6129e28582860161293c565b95602094909401359450505050565b60005b83811015612a0c5781810151838201526020016129f4565b50506000910152565b60008151808452612a2d8160208601602086016129f1565b601f01601f19169290920160200192915050565b838152606060208201526000612a5a6060830185612a15565b8281036040840152612a6c8185612a15565b9695505050505050565b60008060008060808587031215612a8c57600080fd5b84359350602085013567ffffffffffffffff80821115612aab57600080fd5b612ab78883890161293c565b94506040870135915080821115612acd57600080fd5b612ad98883890161293c565b93506060870135915080821115612aef57600080fd5b50612afc8782880161293c565b91505092959194509250565b600060208284031215612b1a57600080fd5b813567ffffffffffffffff811115612b3157600080fd5b612b3d8482850161293c565b949350505050565b60006020808301818452808551808352604092508286019150828160051b87010184880160005b83811015612bc857603f19898403018552815160608151855288820151818a870152612b9a82870182612a15565b91505087820151915084810388860152612bb48183612a15565b968901969450505090860190600101612b6c565b509098975050505050505050565b600060208284031215612be857600080fd5b5035919050565b6020808252825182820181905260009190848201906040850190845b81811015612c2757835183529284019291840191600101612c0b565b50909695505050505050565b848152608060208201526000612c4c6080830186612a15565b8281036040840152612c5e8186612a15565b90508281036060840152612c728185612a15565b979650505050505050565b85815284602082015260a060408201526000612c9c60a0830186612a15565b8460608401528281036080840152612cb48185612a15565b98975050505050505050565b60008060408385031215612cd357600080fd5b50508035926020909101359150565b60006020808301818452808551808352604092508286019150828160051b87010184880160005b83811015612bc857603f19898403018552815160a08151818652612d2f82870182612a15565b915050888201518582038a870152612d478282612a15565b9150508782015188860152606080830151818701525060808083015192508582038187015250612d778183612a15565b968901969450505090860190600101612d09565b600080600060608486031215612da057600080fd5b83359250602084013567ffffffffffffffff80821115612dbf57600080fd5b612dcb8783880161293c565b93506040860135915080821115612de157600080fd5b50612dee8682870161293c565b9150509250925092565b600080600080600060a08688031215612e1057600080fd5b8535945060208601359350604086013567ffffffffffffffff80821115612e3657600080fd5b612e4289838a0161293c565b9450606088013593506080880135915080821115612e5f57600080fd5b50612e6c8882890161293c565b9150509295509295909350565b600080600080600060a08688031215612e9157600080fd5b85359450602086013567ffffffffffffffff80821115612eb057600080fd5b612ebc89838a0161293c565b95506040880135915080821115612ed257600080fd5b612ede89838a0161293c565b94506060880135915080821115612ef457600080fd5b612f0089838a0161293c565b93506080880135915080821115612e5f57600080fd5b600082601f830112612f2757600080fd5b8135602067ffffffffffffffff821115612f4357612f436128f5565b8160051b612f5282820161290b565b9283528481018201928281019087851115612f6c57600080fd5b83870192505b84831015612c7257823582529183019190830190612f72565b60008060008060008060008060008060006101608c8e031215612fad57600080fd5b8b359a5060208c0135995067ffffffffffffffff8060408e01351115612fd257600080fd5b612fe28e60408f01358f01612f16565b995060608d013598508060808e01351115612ffc57600080fd5b61300c8e60808f01358f0161293c565b975060a08d013596508060c08e0135111561302657600080fd5b6130368e60c08f01358f0161293c565b95508060e08e0135111561304957600080fd5b6130598e60e08f01358f0161293c565b9450806101008e0135111561306d57600080fd5b61307e8e6101008f01358f0161293c565b9350806101208e0135111561309257600080fd5b6130a38e6101208f01358f0161293c565b9250806101408e013511156130b757600080fd5b506130c98d6101408e01358e0161293c565b90509295989b509295989b9093969950565b8e81528d60208201528c60408201526101c0606082015260006131026101c083018e612a15565b8c608084015282810360a084015261311a818d612a15565b905082810360c084015261312e818c612a15565b905082810360e0840152613142818b612a15565b9050828103610100840152613157818a612a15565b905082810361012084015261316c8189612a15565b871515610140850152905082810361016084015261318a8187612a15565b61018084019590955250506101a001529c9b505050505050505050505050565b60a0815260006131bd60a0830188612a15565b82810360208401526131cf8188612a15565b90508560408401528460608401528281036080840152612cb48185612a15565b8e81528d60208201528c60408201528b60608201526101c06080820152600061321c6101c083018d612a15565b82810360a084015261322e818d612a15565b905082810360c0840152613242818c612a15565b8a151560e0850152905082810361010084015261325f818a612a15565b90508281036101208401526132748189612a15565b90508281036101408401526132898188612a15565b905082810361016084015261329e8187612a15565b90508281036101808401526132b38186612a15565b90508281036101a08401526132c88185612a15565b9150509f9e505050505050505050505050505050565b600181811c908216806132f257607f821691505b60208210810361331257634e487b7160e01b600052602260045260246000fd5b50919050565b601f82111561335e57600081815260208120601f850160051c8101602086101561333f5750805b601f850160051c820191505b818110156114865782815560010161334b565b505050565b815167ffffffffffffffff81111561337d5761337d6128f5565b6133918161338b84546132de565b84613318565b602080601f8311600181146133c657600084156133ae5750858301515b600019600386901b1c1916600185901b178555611486565b600085815260208120601f198616915b828110156133f5578886015182559484019460019091019084016133d6565b50858210156134135787850151600019600388901b60f8161c191681555b5050505050600190811b01905550565b600082516134358184602087016129f1565b9190910192915050565b634e487b7160e01b600052601160045260246000fd5b818103818111156134685761346861343f565b92915050565b808201808211156134685761346861343f565b600080835461348f816132de565b600182811680156134a757600181146134bc576134eb565b60ff19841687528215158302870194506134eb565b8760005260208060002060005b858110156134e25781548a8201529084019082016134c9565b50505082870194505b50929695505050505050565b634e487b7160e01b600052603260045260246000fd5b60006001820161351f5761351f61343f565b5060010190565b6020815260006135396020830184612a15565b939250505056fea2646970667358221220201005f90bd808e4d477bda69fec653cdcf6f66016ace6b7cda30c6db13cbdc364736f6c63430008110033",
  "linkReferences": {},
  "deployedLinkReferences": {}
}