{
  "_format": "hh-sol-artifact-1",
  "contractName": "Supplychain",
  "sourceName": "contracts/Supplychain.sol",
  "abi": [
    {
      "inputs": [
        {
          "internalType": "uint256",
          "name": "",
          "type": "uint256"
        },
        {
          "internalType": "uint256",
          "name": "",
          "type": "uint256"
        }
      ],
      "name": "BatchIDToProductIDMapping",
      "outputs": [
        {
          "internalType": "uint256",
          "name": "",
          "type": "uint256"
        }
      ],
      "stateMutability": "view",
      "type": "function"
    },
    {
      "inputs": [
        {
          "internalType": "uint256",
          "name": "",
          "type": "uint256"
        }
      ],
      "name": "BatchIDs",
      "outputs": [
        {
          "internalType": "uint256",
          "name": "",
          "type": "uint256"
        }
      ],
      "stateMutability": "view",
      "type": "function"
    },
    {
      "inputs": [
        {
          "internalType": "uint256",
          "name": "",
          "type": "uint256"
        }
      ],
      "name": "BatchMapping",
      "outputs": [
        {
          "internalType": "uint256",
          "name": "BatchID",
          "type": "uint256"
        },
        {
          "internalType": "uint256",
          "name": "BatchSize",
          "type": "uint256"
        },
        {
          "internalType": "uint256",
          "name": "AmountSold",
          "type": "uint256"
        },
        {
          "internalType": "string",
          "name": "BatchDescription",
          "type": "string"
        },
        {
          "internalType": "uint256",
          "name": "ProductTemplateID",
          "type": "uint256"
        },
        {
          "internalType": "uint256",
          "name": "FactoryID",
          "type": "uint256"
        },
        {
          "internalType": "uint256",
          "name": "DistributorID",
          "type": "uint256"
        },
        {
          "internalType": "uint256",
          "name": "RetailerID",
          "type": "uint256"
        },
        {
          "internalType": "string",
          "name": "FactoryLocation",
          "type": "string"
        },
        {
          "internalType": "string",
          "name": "DateOfProduction",
          "type": "string"
        },
        {
          "internalType": "uint256",
          "name": "state",
          "type": "uint256"
        }
      ],
      "stateMutability": "view",
      "type": "function"
    },
    {
      "inputs": [
        {
          "internalType": "uint256",
          "name": "",
          "type": "uint256"
        },
        {
          "internalType": "uint256",
          "name": "",
          "type": "uint256"
        }
      ],
      "name": "BatchScanned",
      "outputs": [
        {
          "internalType": "bool",
          "name": "",
          "type": "bool"
        }
      ],
      "stateMutability": "view",
      "type": "function"
    },
    {
      "inputs": [
        {
          "internalType": "uint256",
          "name": "",
          "type": "uint256"
        }
      ],
      "name": "BatchTemplateIDs",
      "outputs": [
        {
          "internalType": "uint256",
          "name": "",
          "type": "uint256"
        }
      ],
      "stateMutability": "view",
      "type": "function"
    },
    {
      "inputs": [
        {
          "internalType": "uint256",
          "name": "",
          "type": "uint256"
        }
      ],
      "name": "BatchTemplateMAP",
      "outputs": [
        {
          "internalType": "uint256",
          "name": "BatchTemplateID",
          "type": "uint256"
        },
        {
          "internalType": "uint256",
          "name": "ProductTemplateID",
          "type": "uint256"
        },
        {
          "internalType": "string",
          "name": "Description",
          "type": "string"
        },
        {
          "internalType": "uint256",
          "name": "BatchSize",
          "type": "uint256"
        },
        {
          "internalType": "uint256",
          "name": "FactoryID",
          "type": "uint256"
        }
      ],
      "stateMutability": "view",
      "type": "function"
    },
    {
      "inputs": [
        {
          "internalType": "uint256",
          "name": "",
          "type": "uint256"
        },
        {
          "internalType": "uint256",
          "name": "",
          "type": "uint256"
        }
      ],
      "name": "CustomerData",
      "outputs": [
        {
          "internalType": "uint256",
          "name": "BatchID",
          "type": "uint256"
        },
        {
          "internalType": "uint256",
          "name": "ProductID",
          "type": "uint256"
        }
      ],
      "stateMutability": "view",
      "type": "function"
    },
    {
      "inputs": [
        {
          "internalType": "uint256",
          "name": "",
          "type": "uint256"
        }
      ],
      "name": "ProductIDs",
      "outputs": [
        {
          "internalType": "uint256",
          "name": "",
          "type": "uint256"
        }
      ],
      "stateMutability": "view",
      "type": "function"
    },
    {
      "inputs": [
        {
          "internalType": "uint256",
          "name": "",
          "type": "uint256"
        }
      ],
      "name": "ProductMapping",
      "outputs": [
        {
          "internalType": "uint256",
          "name": "ProductID",
          "type": "uint256"
        },
        {
          "internalType": "uint256",
          "name": "ProductTemplateID",
          "type": "uint256"
        },
        {
          "internalType": "string",
          "name": "DOM",
          "type": "string"
        },
        {
          "internalType": "uint256",
          "name": "OwnerID",
          "type": "uint256"
        },
        {
          "internalType": "uint256",
          "name": "DateWhenSold",
          "type": "uint256"
        }
      ],
      "stateMutability": "view",
      "type": "function"
    },
    {
      "inputs": [
        {
          "internalType": "uint256",
          "name": "",
          "type": "uint256"
        }
      ],
      "name": "ProductTemplateIDs",
      "outputs": [
        {
          "internalType": "uint256",
          "name": "",
          "type": "uint256"
        }
      ],
      "stateMutability": "view",
      "type": "function"
    },
    {
      "inputs": [
        {
          "internalType": "uint256",
          "name": "",
          "type": "uint256"
        }
      ],
      "name": "ProductTemplateMAP",
      "outputs": [
        {
          "internalType": "uint256",
          "name": "ProductTemplateID",
          "type": "uint256"
        },
        {
          "internalType": "string",
          "name": "Name",
          "type": "string"
        },
        {
          "internalType": "string",
          "name": "Description",
          "type": "string"
        }
      ],
      "stateMutability": "view",
      "type": "function"
    },
    {
      "inputs": [
        {
          "internalType": "uint256",
          "name": "_batchTemplateID",
          "type": "uint256"
        },
        {
          "internalType": "uint256",
          "name": "_productTemplateID",
          "type": "uint256"
        },
        {
          "internalType": "string",
          "name": "_description",
          "type": "string"
        },
        {
          "internalType": "uint256",
          "name": "_batchSize",
          "type": "uint256"
        },
        {
          "internalType": "uint256",
          "name": "_factoryID",
          "type": "uint256"
        }
      ],
      "name": "addBatchTemplate",
      "outputs": [],
      "stateMutability": "nonpayable",
      "type": "function"
    },
    {
      "inputs": [
        {
          "internalType": "uint256",
          "name": "_productTemplateID",
          "type": "uint256"
        },
        {
          "internalType": "string",
          "name": "_name",
          "type": "string"
        },
        {
          "internalType": "string",
          "name": "_description",
          "type": "string"
        }
      ],
      "name": "addProductTemplate",
      "outputs": [],
      "stateMutability": "nonpayable",
      "type": "function"
    },
    {
      "inputs": [
        {
          "internalType": "uint256",
          "name": "batchID",
          "type": "uint256"
        },
        {
          "internalType": "uint256[]",
          "name": "productIDs",
          "type": "uint256[]"
        },
        {
          "internalType": "uint256",
          "name": "batchSize",
          "type": "uint256"
        },
        {
          "internalType": "string",
          "name": "batchDescription",
          "type": "string"
        },
        {
          "internalType": "uint256",
          "name": "productTemplateID",
          "type": "uint256"
        },
        {
          "internalType": "uint256",
          "name": "factory",
          "type": "uint256"
        },
        {
          "internalType": "uint256",
          "name": "distributor",
          "type": "uint256"
        },
        {
          "internalType": "string",
          "name": "factoryLocation",
          "type": "string"
        },
        {
          "internalType": "string",
          "name": "dateOfProduction",
          "type": "string"
        }
      ],
      "name": "batchProduced",
      "outputs": [],
      "stateMutability": "nonpayable",
      "type": "function"
    },
    {
      "inputs": [
        {
          "internalType": "uint256",
          "name": "distributorID",
          "type": "uint256"
        },
        {
          "internalType": "uint256",
          "name": "batchID",
          "type": "uint256"
        }
      ],
      "name": "distributorScansBatch",
      "outputs": [],
      "stateMutability": "nonpayable",
      "type": "function"
    },
    {
      "inputs": [
        {
          "internalType": "uint256",
          "name": "batchID",
          "type": "uint256"
        },
        {
          "internalType": "uint256",
          "name": "retailerID",
          "type": "uint256"
        }
      ],
      "name": "distributorSellToRetailer",
      "outputs": [],
      "stateMutability": "nonpayable",
      "type": "function"
    },
    {
      "inputs": [
        {
          "internalType": "uint256",
          "name": "factoryID",
          "type": "uint256"
        },
        {
          "internalType": "uint256",
          "name": "batchID",
          "type": "uint256"
        }
      ],
      "name": "factoryScansBatch",
      "outputs": [],
      "stateMutability": "nonpayable",
      "type": "function"
    },
    {
      "inputs": [],
      "name": "getAllBatchIDs",
      "outputs": [
        {
          "internalType": "uint256[]",
          "name": "",
          "type": "uint256[]"
        }
      ],
      "stateMutability": "view",
      "type": "function"
    },
    {
      "inputs": [],
      "name": "getAllBatchTemplateIDs",
      "outputs": [
        {
          "internalType": "uint256[]",
          "name": "",
          "type": "uint256[]"
        }
      ],
      "stateMutability": "view",
      "type": "function"
    },
    {
      "inputs": [],
      "name": "getAllProductIDs",
      "outputs": [
        {
          "internalType": "uint256[]",
          "name": "",
          "type": "uint256[]"
        }
      ],
      "stateMutability": "view",
      "type": "function"
    },
    {
      "inputs": [],
      "name": "getAllProductTemplateIDs",
      "outputs": [
        {
          "internalType": "uint256[]",
          "name": "",
          "type": "uint256[]"
        }
      ],
      "stateMutability": "view",
      "type": "function"
    },
    {
      "inputs": [
        {
          "internalType": "uint256",
          "name": "customerID",
          "type": "uint256"
        }
      ],
      "name": "getAllProductsBought",
      "outputs": [
        {
          "components": [
            {
              "internalType": "uint256",
              "name": "BatchID",
              "type": "uint256"
            },
            {
              "internalType": "uint256",
              "name": "ProductID",
              "type": "uint256"
            }
          ],
          "internalType": "struct Supplychain.Customer[]",
          "name": "",
          "type": "tuple[]"
        }
      ],
      "stateMutability": "view",
      "type": "function"
    },
    {
      "inputs": [
        {
          "internalType": "uint256",
          "name": "batchID",
          "type": "uint256"
        }
      ],
      "name": "getProductIdsForaBatch",
      "outputs": [
        {
          "internalType": "uint256[]",
          "name": "",
          "type": "uint256[]"
        }
      ],
      "stateMutability": "view",
      "type": "function"
    },
    {
      "inputs": [
        {
          "internalType": "uint256",
          "name": "retailerID",
          "type": "uint256"
        },
        {
          "internalType": "uint256",
          "name": "batchID",
          "type": "uint256"
        }
      ],
      "name": "retailerScansBatch",
      "outputs": [],
      "stateMutability": "nonpayable",
      "type": "function"
    },
    {
      "inputs": [
        {
          "internalType": "uint256",
          "name": "batchID",
          "type": "uint256"
        },
        {
          "internalType": "uint256",
          "name": "productID",
          "type": "uint256"
        },
        {
          "internalType": "uint256",
          "name": "customerID",
          "type": "uint256"
        }
      ],
      "name": "retailerSellToCustomer",
      "outputs": [],
      "stateMutability": "nonpayable",
      "type": "function"
    }
  ],
  "bytecode": "0x608060405234801561001057600080fd5b50611806806100206000396000f3fe608060405234801561001057600080fd5b50600436106101735760003560e01c80638bd42880116100de578063bf801df111610097578063ce9a91c811610071578063ce9a91c814610369578063da7de4c91461037c578063e369f39b146103ba578063eac0e977146103da57600080fd5b8063bf801df114610304578063c513ab811461032e578063cb441b1a1461034157600080fd5b80638bd428801461029d5780638c4c42cd146102b057806390973cce146102b8578063a43304c0146102cb578063a78317f8146102de578063a90fdb4a146102f157600080fd5b80634e939486116101305780634e939486146101fa57806371d1dc0c1461020d578063793560dd1461022f5780637ae4ee04146102375780637c0fac7f1461025b578063865a75251461028a57600080fd5b806312d9384914610178578063392a70a61461018d5780633ab95f30146101b65780633b7d255c146101d75780634c27729c146101df5780634ca20f34146101e7575b600080fd5b61018b61018636600461111b565b6103ed565b005b6101a061019b366004611147565b61046d565b6040516101ad9190611160565b60405180910390f35b6101c96101c4366004611147565b6104cf565b6040519081526020016101ad565b6101a06104f0565b6101a0610548565b6101c96101f5366004611147565b61059e565b61018b61020836600461125b565b6105ae565b61022061021b366004611147565b61063f565b6040516101ad9392919061130e565b6101a0610772565b61024a610245366004611147565b6107c8565b6040516101ad959493929190611343565b61018b610269366004611376565b60009182526003602052604090912060078101919091556001600a90910155565b61018b610298366004611376565b610880565b6101c96102ab366004611147565b61092a565b6101a061093a565b6101c96102c6366004611376565b610990565b61018b6102d9366004611398565b6109c1565b6101c96102ec366004611147565b610a77565b61018b6102ff366004611376565b610a87565b610317610312366004611147565b610b07565b6040516101ad9b9a999897969594939291906113fa565b61018b61033c3660046114fc565b610cf9565b61035461034f366004611376565b610f4c565b604080519283526020830191909152016101ad565b61018b610377366004611376565b610f88565b6103aa61038a366004611376565b600a60209081526000928352604080842090915290825290205460ff1681565b60405190151581526020016101ad565b6103cd6103c8366004611147565b61100b565b6040516101ad91906115da565b61024a6103e8366004611147565b611091565b600083815260036020526040812060020180546001929061040f90849061163f565b9091555050600082815260026020818152604080842060038101869055426004909101559383526005815283832084518086019095529584528381019485528554600181810188559684529220925191029091019081559051910155565b6000818152600460209081526040918290208054835181840281018401909452808452606093928301828280156104c357602002820191906000526020600020905b8154815260200190600101908083116104af575b50505050509050919050565b600681815481106104df57600080fd5b600091825260209091200154905081565b6060600680548060200260200160405190810160405280929190818152602001828054801561053e57602002820191906000526020600020905b81548152602001906001019080831161052a575b5050505050905090565b6060600780548060200260200160405190810160405280929190818152602001828054801561053e576020028201919060005260206000209081548152602001906001019080831161052a575050505050905090565b600781815481106104df57600080fd5b60408051606081018252848152602080820185815282840185905260008781529182905292902081518155915190919060018201906105ed90826116e1565b506040820151600282019061060290826116e1565b5050600680546001810182556000919091527ff652222313e28459528d920b65115c16c04f3efc82aaedc97be59f3f377c0d3f0193909355505050565b6000602081905290815260409020805460018201805491929161066190611658565b80601f016020809104026020016040519081016040528092919081815260200182805461068d90611658565b80156106da5780601f106106af576101008083540402835291602001916106da565b820191906000526020600020905b8154815290600101906020018083116106bd57829003601f168201915b5050505050908060020180546106ef90611658565b80601f016020809104026020016040519081016040528092919081815260200182805461071b90611658565b80156107685780601f1061073d57610100808354040283529160200191610768565b820191906000526020600020905b81548152906001019060200180831161074b57829003601f168201915b5050505050905083565b6060600980548060200260200160405190810160405280929190818152602001828054801561053e576020028201919060005260206000209081548152602001906001019080831161052a575050505050905090565b60016020819052600091825260409091208054918101546002820180549192916107f190611658565b80601f016020809104026020016040519081016040528092919081815260200182805461081d90611658565b801561086a5780601f1061083f5761010080835404028352916020019161086a565b820191906000526020600020905b81548152906001019060200180831161084d57829003601f168201915b5050505050908060030154908060040154905085565b6000828152600a6020908152604080832084845290915290205460ff16156109045760405162461bcd60e51b815260206004820152602c60248201527f5468697320626174636820697320616c7265616479207363616e6e656420627960448201526b2074686520666163746f727960a01b60648201526084015b60405180910390fd5b6000918252600a602090815260408084209284529190529020805460ff19166001179055565b600981815481106104df57600080fd5b6060600880548060200260200160405190810160405280929190818152602001828054801561053e576020028201919060005260206000209081548152602001906001019080831161052a575050505050905090565b600460205281600052604060002081815481106109ac57600080fd5b90600052602060002001600091509150505481565b6040518060a00160405280868152602001858152602001848152602001838152602001828152506001600087815260200190815260200160002060008201518160000155602082015181600101556040820151816002019081610a2491906116e1565b50606082015160038201556080909101516004909101555050600780546001810182556000919091527fa66cc928b5edb82af9bd49922954155ab7b0942694bea4ce44661d9a8736c68801929092555050565b600881815481106104df57600080fd5b6000828152600a6020908152604080832084845290915290205460ff16156109045760405162461bcd60e51b815260206004820152602d60248201527f5468697320626174636820697320616c7265616479207363616e6e656420627960448201526c103a3432903932ba30b4b632b960991b60648201526084016108fb565b6003602052806000526040600020600091509050806000015490806001015490806002015490806003018054610b3c90611658565b80601f0160208091040260200160405190810160405280929190818152602001828054610b6890611658565b8015610bb55780601f10610b8a57610100808354040283529160200191610bb5565b820191906000526020600020905b815481529060010190602001808311610b9857829003601f168201915b505050505090806004015490806005015490806006015490806007015490806008018054610be290611658565b80601f0160208091040260200160405190810160405280929190818152602001828054610c0e90611658565b8015610c5b5780601f10610c3057610100808354040283529160200191610c5b565b820191906000526020600020905b815481529060010190602001808311610c3e57829003601f168201915b505050505090806009018054610c7090611658565b80601f0160208091040260200160405190810160405280929190818152602001828054610c9c90611658565b8015610ce95780601f10610cbe57610100808354040283529160200191610ce9565b820191906000526020600020905b815481529060010190602001808311610ccc57829003601f168201915b50505050509080600a015490508b565b6040518061016001604052808a815260200188815260200160008152602001878152602001868152602001858152602001848152602001600081526020018381526020018281526020016000815250600360008b81526020019081526020016000206000820151816000015560208201518160010155604082015181600201556060820151816003019081610d8e91906116e1565b506080820151600482015560a0820151600582015560c0820151600682015560e082015160078201556101008201516008820190610dcc90826116e1565b506101208201516009820190610de290826116e1565b506101409190910151600a9091015560098054600181019091557f6e1540171b6c0c960b71a7020d9f60077f6af931a8bbf590da0223dacf75c7af0189905560008981526004602090815260409091208951610e40928b01906110bb565b5060005b87811015610f40576040518060a001604052808a8381518110610e6957610e696117a1565b60200260200101518152602001878152602001838152602001600081526020016000815250600260008b8481518110610ea457610ea46117a1565b6020026020010151815260200190815260200160002060008201518160000155602082015181600101556040820151816002019081610ee391906116e1565b5060608201518160030155608082015181600401559050506008898281518110610f0f57610f0f6117a1565b6020908102919091018101518254600181018455600093845291909220015580610f38816117b7565b915050610e44565b50505050505050505050565b60056020528160005260406000208181548110610f6857600080fd5b600091825260209091206002909102018054600190910154909250905082565b6000828152600a6020908152604080832084845290915290205460ff16156109045760405162461bcd60e51b815260206004820152603060248201527f5468697320626174636820697320616c7265616479207363616e6e656420627960448201526f103a3432903234b9ba3934b13aba37b960811b60648201526084016108fb565b606060056000838152602001908152602001600020805480602002602001604051908101604052809291908181526020016000905b8282101561108657838290600052602060002090600202016040518060400160405290816000820154815260200160018201548152505081526020019060010190611040565b505050509050919050565b6002602081905260009182526040909120805460018201549282018054919392916107f190611658565b8280548282559060005260206000209081019282156110f6579160200282015b828111156110f65782518255916020019190600101906110db565b50611102929150611106565b5090565b5b808211156111025760008155600101611107565b60008060006060848603121561113057600080fd5b505081359360208301359350604090920135919050565b60006020828403121561115957600080fd5b5035919050565b6020808252825182820181905260009190848201906040850190845b818110156111985783518352928401929184019160010161117c565b50909695505050505050565b634e487b7160e01b600052604160045260246000fd5b604051601f8201601f1916810167ffffffffffffffff811182821017156111e3576111e36111a4565b604052919050565b600082601f8301126111fc57600080fd5b813567ffffffffffffffff811115611216576112166111a4565b611229601f8201601f19166020016111ba565b81815284602083860101111561123e57600080fd5b816020850160208301376000918101602001919091529392505050565b60008060006060848603121561127057600080fd5b83359250602084013567ffffffffffffffff8082111561128f57600080fd5b61129b878388016111eb565b935060408601359150808211156112b157600080fd5b506112be868287016111eb565b9150509250925092565b6000815180845260005b818110156112ee576020818501810151868301820152016112d2565b506000602082860101526020601f19601f83011685010191505092915050565b83815260606020820152600061132760608301856112c8565b828103604084015261133981856112c8565b9695505050505050565b85815284602082015260a06040820152600061136260a08301866112c8565b606083019490945250608001529392505050565b6000806040838503121561138957600080fd5b50508035926020909101359150565b600080600080600060a086880312156113b057600080fd5b8535945060208601359350604086013567ffffffffffffffff8111156113d557600080fd5b6113e1888289016111eb565b9598949750949560608101359550608001359392505050565b60006101608d83528c60208401528b60408401528060608401526114208184018c6112c8565b90508960808401528860a08401528760c08401528660e084015282810361010084015261144d81876112c8565b905082810361012084015261146281866112c8565b915050826101408301529c9b505050505050505050505050565b600082601f83011261148d57600080fd5b8135602067ffffffffffffffff8211156114a9576114a96111a4565b8160051b6114b88282016111ba565b92835284810182019282810190878511156114d257600080fd5b83870192505b848310156114f1578235825291830191908301906114d8565b979650505050505050565b60008060008060008060008060006101208a8c03121561151b57600080fd5b8935985060208a013567ffffffffffffffff8082111561153a57600080fd5b6115468d838e0161147c565b995060408c0135985060608c013591508082111561156357600080fd5b61156f8d838e016111eb565b975060808c0135965060a08c0135955060c08c0135945060e08c013591508082111561159a57600080fd5b6115a68d838e016111eb565b93506101008c01359150808211156115bd57600080fd5b506115ca8c828d016111eb565b9150509295985092959850929598565b602080825282518282018190526000919060409081850190868401855b8281101561161c578151805185528601518685015292840192908501906001016115f7565b5091979650505050505050565b634e487b7160e01b600052601160045260246000fd5b8082018082111561165257611652611629565b92915050565b600181811c9082168061166c57607f821691505b60208210810361168c57634e487b7160e01b600052602260045260246000fd5b50919050565b601f8211156116dc57600081815260208120601f850160051c810160208610156116b95750805b601f850160051c820191505b818110156116d8578281556001016116c5565b5050505b505050565b815167ffffffffffffffff8111156116fb576116fb6111a4565b61170f816117098454611658565b84611692565b602080601f831160018114611744576000841561172c5750858301515b600019600386901b1c1916600185901b1785556116d8565b600085815260208120601f198616915b8281101561177357888601518255948401946001909101908401611754565b50858210156117915787850151600019600388901b60f8161c191681555b5050505050600190811b01905550565b634e487b7160e01b600052603260045260246000fd5b6000600182016117c9576117c9611629565b506001019056fea264697066735822122002935d9817c4afc3345b56cd882c53c9a55854df982745e825d6acdbcce8741d64736f6c63430008110033",
  "linkReferences": {},
  "deployedLinkReferences": {}
}